:100000000C94F9020C9440030C9440030C949B2A2A
:100010000C9440030C9440030C9440030C94400354
:100020000C9440030C9440030C94F0160C94582844
:100030000C94D11B0C9440030C9440030C9440038B
:100040000C9440030C9440030C9440030C94400324
:100050000C9440030C94901B0C9440030C944003AC
:100060000C9440030C9440030C9440030C94400304
:100070000C9440030C9440030C9440030C944003F4
:100080000C943A060C9440030C9440030C944003E7
:100090000C9440030C9440030C9440030C944003D4
:1000A0000C9440030C9440030C9440033813381311
:1000B000721372134F154F154F154F15C813A61411
:1000C000B714B7148D15DC15E115E615EB15F01511
:1000D000F515FA15FF15041609161016131616163F
:1000E00019161C161F16221625162A168026A72654
:1000F0003028A7263028EF2612273028FA270D2887
:10010000AE28AE28C128C128B728C128C128C128D7
:10011000AE28AE28BC28C128C128BC2807634236B7
:10012000B79BD8A71A39685618AEBAAB558C1D3C88
:10013000B7CC5763BD6DEDFD753EF6177231BF004C
:100140000000803F08000000BE922449123EABAA86
:10015000AA2ABECDCCCC4C3E00000080BEABAAAAE1
:10016000AA3E00000000BF000000803F0000000029
:1001700000084178D3BB4387D1133D190E3CC3BD62
:100180004282AD2B3E68EC8276BED98FE1A93E4C0F
:1001900080EFFFBE01C4FF7F3F00000000000001B0
:1001A0000101010101010101020202020202020237
:1001B0000203030303030303030404040404040409
:1001C00005050505050606060606070707070708CD
:1001D000080808090909090A0A0A0B0B0B0C0C0C80
:1001E0000D0D0D0E0E0E0F0F0F101011111112121A
:1001F00013131414151516161717181819191A1A97
:100200001B1B1C1D1D1E1E1F2020212222232424F7
:10021000252626272829292A2B2C2D2D2E2F303133
:100220003232333435363738393A3B3C3D3E3F4045
:100230004142434445464748494A4C4D4E4F505130
:100240005354555658595A5B5D5E5F6162646566EA
:1002500068696B6C6D6F7072737577787A7B7D7E71
:100260008082838587888A8C8E8F91939596989AC1
:100270009C9EA0A2A3A5A7A9ABADAFB1B3B5B7BAD9
:10028000BCBEC0C2C4C6C9CBCDCFD1D4D6D8DBDDAD
:10029000DFE2E4E7E9EBEEF0F3F5F8FAFDFFFFAAA1
:1002A0007F55400001020304050B0A090807062BCD
:1002B0000014001A00080015001700E000040016E2
:1002C00000070009000A00E1001D001B00060019DC
:1002D00000050000000000E300E20001512C002AAC
:1002E00000130012000C0018001C00340033000F33
:1002F000000E000D000B00E500380037003600103E
:1003000000110000000000E700E60002512800296B
:10031000001E001F00200021002200E0000100015B
:1003200000010001000100E10001000100010001E5
:1003300000010000000000E300E20001512C002A4F
:100340000027002600250024002300010001004FA3
:1003500000520051005000010001000100010001A5
:1003600000010000000000E700E60002512800291B
:10037000001E021F02200221022202E000010001F1
:1003800000010001000100E100350201000100014F
:1003900000010000000000E300E20001512C002AEF
:1003A00000270226022502240223023500310230F2
:1003B000022F022E002D003502310030002F002EBA
:1003C000022D0200000000E700E6000251280000B4
:1003D0005C01000100010001000100C25CC55CC7B6
:1003E0005CC95C01000100C35CC65CC85CCA5C01FE
:1003F00000010000000000E300E20001512C003F7A
:10040000003E003D003C003B003A004500440043F4
:100410000042004100400001000100010001000114
:1004200000010000000000E700E600025128003251
:10043000190A00047F3F1F643214643214783C1E92
:100440001E140A052223252628292A2C2D2F303276
:10045000333536383A3B3D3E4042434547494A4CA6
:100460004E5051535557595A5C5E606264666869D4
:100470006B6D6F71737577797B7D7F8183858789DC
:100480008A8C8E90929496989A9C9E9FA1A3A5A7E1
:10049000A8AAACAEAFB1B3B4B6B8B9BBBCBEBFC10D
:1004A000C2C3C5C6C7C9CACBCCCDCED0D1D2D2D398
:1004B000D4D5D6D7D7D8D9D9DADADBDBDBDCDCDCAC
:1004C000DCDCDDDDDDDDDCDCDCDCDCDBDBDBDADA6F
:1004D000D9D9D8D7D7D6D5D4D3D2D2D1D0CECDCCE6
:1004E000CBCAC9C7C6C5C3C2C1BFBEBCBBB9B8B6FB
:1004F000B4B3B1AFAEACAAA8A7A5A3A19F9E9C9A86
:1005000098969492908E8C8A89878583817F7D7B53
:1005100079777573716F6D6B6968666462605E5C34
:100520005A5957555351504E4C4A494745434240FA
:100530003E3D3B3A3836353332302F2D2C2A292890
:100540002625232205010906A101050719E029E74F
:100550001500250195087501810295017508810135
:100560000507190029FF150026FF0095067508816B
:100570000005081901290595057501910295017578
:10058000039101C009022200010100A0FA09040040
:1005900000010301010009211101000122400007AF
:1005A00005810308000A12011001000000085459D7
:1005B00001000100010203010403300000001A03DE
:1005C0004C0075006E0061006B0065007900200032
:1005D0004D0069006E0069000000120379006F0091
:1005E000690063006800690072006F000000040386
:1005F000090411241FBECFEFDAE0DEBFCDBF04B681
:1006000003FE27C08091B6059091B705A091B8056B
:10061000B091B9058730904BA740B04BD1F4109200
:10062000B6051092B7051092B8051092B90514BE20
:1006300084B7877F84BF0FB6F894A8958091600037
:10064000886180936000109260000FBEE0E0F8E3E4
:10065000099525E0A8E0B4E001C01D92A63BB207D1
:10066000E1F714E0A0E0B1E0EEEAF1E602C00590A7
:100670000D92A830B107D9F70E9489180C94D53093
:100680000C9400009091840492FF0DC0282F2871D3
:10069000283019F4877F846006C0282F2471243005
:1006A00011F48B7F886093FF0DC0282F28712831AB
:1006B00019F4877E846106C0282F2471243111F437
:1006C0008B7E88612091850420FF0DC0382F387102
:1006D000383019F4877F816006C0382F317131308E
:1006E00011F48E7F886021FF0DC0282F28712831DA
:1006F00019F4877E816106C0282F2171213111F400
:100700008E7E886194FD877E0895CF92DF92EF926E
:100710000F931F93CF93DF93CDB7DEB7A4970FB698
:10072000F894DEBF0FBECDBF60917D038091A90418
:1007300080FF0AC0E3EAF2E0AE014F5F5F4F8E0137
:100740000B5D1F4FCA0114C080917E0390917F03FF
:10075000891780F7E82FF0E09F01220F331FE20F87
:10076000F31FE25EFA4F1182108212828F5FF0CF88
:10077000249130E0D901AA0FBB1F2A0F3B1FD901DA
:10078000A25EBA4FCD90DD90EC90DA01CD92DD9271
:10079000ED92AD013196A017B10751F720917C037E
:1007A000FC01B3E02B9FE00DF11D1124539A8BB196
:1007B000877F9BB198602FB7F894AF0133E0639FB8
:1007C000400D511D1124E417F50789F0319168E0BF
:1007D0009BB9000000C037FF8BB9330F000000C089
:1007E00000C000C08BB900C06A9591F7ECCF2FBF55
:1007F0008FE594E00197F1F700C00000A4960FB6D2
:10080000F894DEBF0FBECDBFDF91CF911F910F9146
:10081000EF90DF90CF9008959091A90490FF16C0BB
:1008200090917E0320917F03921770F4E92FF0E0FE
:10083000DF01AA0FBB1FEA0FFB1FE25EFA4F8183A5
:10084000608342839F5FF0CF0C948503089580916D
:10085000A904282F269530E02115310519F481705F
:10086000826005C02B32310524F08170846580934D
:10087000A9040895CF92DF92EF92FF926B017C0161
:100880000E942704B701A60188E090E0FF90EF9056
:10089000DF90CF900C94302C8091AD04882319F018
:1008A00081508093AD046091A9047091AA04809155
:1008B000AB049091AC040C943A048091AD04833065
:1008C00018F48F5F8093AD046091A9047091AA041D
:1008D0008091AB049091AC040C943A04E9EAF4E002
:1008E00083E0808311828FEF828383831482ABE95C
:1008F000B4E012968C911297836012968C9360816B
:100900007181828193810C943A04AF92BF92CF920D
:10091000DF92EF92FF920F931F93CF93DF93E82E16
:10092000F62EE901E42FF0E0611106C0E256FE4F19
:10093000E4914E2F2E2F71C0062F10E0E256FE4F8D
:100940004491F42FC42ED12C26E0829FC0011124A3
:100950002FEF30E0B9010E948B305BEA5603C001F3
:10096000579F900D11248E0D911D8E0D911D582FA6
:10097000550F580FD901A01BB10BAC9DC001AD9D07
:10098000900DBC9D900D1124E92FF59ED0011124EE
:10099000AB2FBB277901EA1AFB0AEC9CD001ED9C36
:1009A000B00DFC9CB00D11245901A51AB108A09EF0
:1009B0007001A19EF00CB09EF00C1124EF2CFF24CE
:1009C0002E193F092C9D80012D9D100D3C9D100D71
:1009D0001124212F6230710591F048F461157105E1
:1009E000E1F061307105B9F4242F4B2F16C064304B
:1009F000710569F040F06630710579F00CC0242F64
:100A0000492FE12F0AC0492FEF2F2B2F06C0292F86
:100A1000E42F412F02C0292FEB2F49832883EA833B
:100A2000DF91CF911F910F91FF90EF90DF90CF90CA
:100A3000BF90AF900895CF93DF9300D01F92CDB7B2
:100A4000DEB79091A90490FF0AC09E012F5F3F4F2F
:100A50000E9485044B8169818A810E940C040F9059
:100A60000F900F90DF91CF910895AF92BF92CF92E8
:100A7000DF92EF92FF920F931F93CF93DF9300D0FB
:100A80001F92CDB7DEB7182FF62E042FE22E9091CD
:100A9000A90490FF7EC0E92FE695AE2FB0E0A253E7
:100AA000BC4F8C9180939B049E7F923061F49E0199
:100AB0002F5F3F4F812F0E9485044B8169818A817E
:100AC0000E940C0443C0823019F40091AC043EC073
:100AD000863019F41091AA0439C08930D9F38931CC
:100AE000A9F5E9518E2F8170D82EE695F0E0E256F7
:100AF000FD4FA590B490C12CBB2460918003C61615
:100B000018F52C2D30E0A29EC001A39E900DB29E40
:100B1000900D112470E00E948B30812FD11002C003
:100B2000860F01C0861B90917E03290F311DA901FC
:100B3000440F551F240F351F225E3A4F402F6F2D53
:100B40000E948504C394D9CF0E9485038091AA0492
:100B5000181308C08091AB04F81204C08091AC0453
:100B6000081729F080919D04826080939D04109362
:100B7000AA04F092AB040093AC04EE2051F0609113
:100B8000A9047091AA048091AB049091AC040E94D6
:100B90003A040F900F900F90DF91CF911F910F911A
:100BA000FF90EF90DF90CF90BF90AF900895E9EA6B
:100BB000F4E0438128E0421B08F440E021E0628138
:100BC00081810C943505E9EAF4E0438128E0420F85
:100BD00008F44FEF21E0628181810C943505E9EA48
:100BE000F4E0628128E0621B08F460E021E04381C8
:100BF00081810C943505E9EAF4E0628128E0620F16
:100C000008F46FEF21E0438181810C943505E9EA16
:100C1000F4E0818121E04381628188500C943505A4
:100C2000E9EAF4E0818121E043816281885F0C94EC
:100C3000350581E08093640468E070E081EC91E028
:100C40000C94DD2481E08093650468E070E081E429
:100C500091E00C94DD246091AD0561606093AD0579
:100C600087E090E00E941E2C62E070E081E291E05B
:100C70000C94DD241F920F920FB60F9211244F9205
:100C80005F926F927F928F929F92AF92BF92CF921C
:100C9000DF92EF92FF922F933F934F935F936F9367
:100CA0007F938F939F93AF93BF93CF93DF93EF93F4
:100CB000FF938091AC05882309F4C2C1C0914A0416
:100CC000D0914B041C161D060CF0BAC1409046048E
:100CD00050904704609048047090490420E030E050
:100CE000A901C301B2010E947A2E18160CF065C04A
:100CF000C130D10509F452C080914404909145045B
:100D0000BE010E949F307C0190934504809344046F
:100D10008090A2059090A305A090A405B090A50591
:100D200020E030E040E85FE3C501B4010E94B62C4A
:100D30006093A2057093A3058093A4059093A505E5
:100D4000F701EE0FFF1FEE0FFF1FEC5DFB4FA3013E
:100D5000920160817181828193810E94272D20E020
:100D600030E040E05EE30E947F2E9B01AC01C501B4
:100D7000B4010E947A2E18168CF4C7010196BE01A8
:100D80000E949F3090934504809344041092A205E2
:100D90001092A3051092A4051092A505E0914404B9
:100DA000F0914504EE0FFF1FEE0FFF1FEC5DFB4FB0
:100DB000C080D180E280F380E0C080912001219743
:100DC000882309F4BFC0C0902004D0902104E09093
:100DD0002204F090230420E030E0A901C701B6010D
:100DE0000E94222D882309F4A2C0FE01EE0FFF1FEE
:100DF000EE0FFF1FEC5DFB4F80809180A280B380DF
:100E0000A5019401C701B6010E94222D87FF31C0C0
:100E1000A501940160E070E08CED93EC0E94272D19
:100E200020E030E040E451E40E94272D20E030E053
:100E300040E05FE30E947F2E9B01AC0160E070E028
:100E400080E090E40E94EC2E9B01AC01C501B4014E
:100E50000E947F2E9B01AC01C701B6010E94222D8A
:100E600087FF07C0A701960160E070E08CED93E476
:100E700039C0A5019401C701B6010E947A2E181647
:100E80000CF055C0A501940160E070E08CED93E496
:100E90000E94272D20E030E040E451E40E94272DFD
:100EA00020E030E040E05FE30E947F2E9B01AC0138
:100EB00060E070E080E090E40E94EC2E9B01AC01C9
:100EC000C501B4010E947F2E9B01AC01C701B60190
:100ED0000E947A2E18165CF5A701960160E070E07A
:100EE0008CED93EC0E94272D20E030E040E451E4AB
:100EF0000E94272D20E030E040E05FE30E947F2E3B
:100F00009B01AC0160E070E080E090E40E94EC2E78
:100F10009B01AC01C701B6010E947F2E60932004A3
:100F20007093210480932204909323041EC0CC0F5D
:100F3000DD1FCC0FDD1FCC5DDB4F88819981AA813D
:100F4000BB810BC0FE01EE0FFF1FEE0FFF1FEC5D1C
:100F5000FB4F80819181A281B38180932004909383
:100F60002104A0932204B0932304C0902004D090C5
:100F70002104E0902204F090230480911E049091BB
:100F80001F048F3F2FEF920729F0019690931F04C3
:100F900080931E0480914C04811116C01092200190
:100FA00080E090E0A0E0BFE380931C0190931D01DE
:100FB000A0931E01B0931F011092460410924704A3
:100FC000109248041092490420E034E244EF51E4C6
:100FD000C701B6010E94222D87FF08C046EFC42E2C
:100FE00048E2D42E44EFE42E41E4F42E20E030E039
:100FF00040E051E4C701B6010E947F2E9B01AC0185
:1010000060E074E284E79BE40E94272D6B017C0181
:101010000E94992D709397006093960020911C0177
:1010200030911D0140911E0150911F01C701B60171
:101030000E947F2E0E94992D7093990060939800D2
:101040008091AB05882309F45AC1C0909C05D090CB
:101050009D05E0909E05F0909F0520E030E0A901FD
:10106000C701B6010E947A2E18160CF052C080916A
:101070001E0490911F048F3F2FEF920729F00196D5
:1010800090931F0480931E0480914C04811116C01C
:101090001092200180E090E0A0E0BFE380931C016B
:1010A00090931D01A0931E01B0931F01109246045E
:1010B00010924704109248041092490420E030E056
:1010C00040E051E4C701B6010E947F2E9B01AC01B4
:1010D00060E074E284E79BE40E94272D6B017C01B1
:1010E0000E94992D709397006093960020911C01A7
:1010F00030911D0140911E0150911F01C701B601A1
:101100000E947F2E0E94992D709399006093980001
:1011100008C01092970010929600109299001092B9
:10112000980060919605709197056F5F7F4F70935F
:10113000970560939605209196003091970080E086
:1011400090E0232B71F120911D0421112AC0C09140
:101150009600D09197000E94C82D6B017C01BE01C2
:1011600080E090E00E94C82D9B01AC016091980541
:101170007091990580919A0590919B050E94272D69
:1011800020E03FEF4FE757E40E947F2E20E030E061
:1011900040E85FE30E94B52C9B01AC01C701B6019A
:1011A0000AC00E94C82D2091980530919905409160
:1011B0009A0550919B050E947A2E87FDA0C08091D0
:1011C000A0059091A10501969093A1058093A0059B
:1011D0002091A7053091A80582179307B0F0809160
:1011E000A605882329F01092A1051092A0050DC034
:1011F000809171008D7F80937100809190008F733A
:10120000809390001092AB0582C020911D048091C4
:10121000A0059091A105E091A905F091AA052111E1
:101220003FC021E020931D049C01215031093093DF
:10123000A1052093A00533E0880F991F3A95E1F7A7
:10124000E80FF91FDF011897CD90DD90ED90FC902D
:101250002081318142815381C701B6010E94222D34
:10126000811109C010929C0510929D0510929E0557
:1012700010929F0508C0C0929C05D0929D05E092F7
:101280009E05F0929F0580E090E0A0E8BFE3809388
:10129000980590939905A0939A05B0939B052BC050
:1012A00010921D0410921F0410921E0423E0880F58
:1012B000991F2A95E1F7E80FF91F80819181A2819A
:1012C000B38180939C0590939D05A0939E05B09358
:1012D0009F0520E030E040E85EE36481758186810F
:1012E00097810E947F2E6093980570939905809353
:1012F0009A0590939B051092970510929605809100
:10130000AD0580FD04C01092AB051092AC05FF91B5
:10131000EF91DF91CF91BF91AF919F918F917F918D
:101320006F915F914F913F912F91FF90EF90DF90E0
:10133000CF90BF90AF909F908F907F906F905F9075
:101340004F900F900FBE0F901F9018950E94321C67
:10135000811102C00E943D1C87E090E00E940A2C8F
:101360008093AD058091AE05811129C03E9A809190
:1013700071008D7F8093710082E0809390008AE1FC
:101380008093910081EC91E1909397008093960077
:1013900023EA3BE04EE855E460911C0170911D0189
:1013A00080911E0190911F010E947F2E0E94992D15
:1013B000709399006093980081E08093AE058091CE
:1013C000AD0580FF06C063E070E084E091E00C941E
:1013D000DD2408958091AE05811102C00E94A60906
:1013E00010924B0410924A04809171008D7F80937B
:1013F0007100809190008F73809390001092AB05E4
:101400001092AC0510922004109221041092220434
:1014100010922304E4E2F4E0ADE0B4E01192119202
:10142000119211921D921D9284E0E434F807B1F7F5
:1014300008958091650481110C94EA0908950E9431
:10144000190A1092650468E070E081E891E00C945C
:10145000DD2462E070E081E391E00E94DD242FEF63
:1014600081EE94E0215080409040E1F700C0000000
:101470000E94EA096091AD056E7F6093AD0587E03B
:1014800090E00C941E2CCF92DF92EF92FF920F937C
:101490001F93CF93DF93682F70E065547109072E77
:1014A000000C880B990B0E94CA2D20E030E040E42C
:1014B00051E40E94272D9B01AC0160E070E080E0C8
:1014C00090E40E94EC2E6B017C018091AC05882396
:1014D00009F488C08091AE05811102C00E94A6095E
:1014E00020E030E04CED53E4C701B6010E947F2EAE
:1014F0006B017C0104E414E0C7E0D0E0A701960191
:10150000F80192918291729162918F010E94222D35
:10151000811131C0FE01EE0FFF1FEE0FFF1FEC5DCA
:10152000FB4F1082118212821382DE01AA0FBB1FB1
:10153000A35FBB4F11961C921E92C730D105E9F0F4
:1015400021964481558166817781408351836283EE
:101550007383148215821682178212968D919C9144
:10156000139711969C938E9313961C921E9212972A
:1015700034961296E2CF219708F680914A04909112
:101580004B04019797FD05C090934B0480934A0448
:1015900004C010924B0410924A0480914A04909126
:1015A0004B0420914404309145042817390724F056
:1015B0001092450410924404892BA1F4809171008B
:1015C0008D7F80937100809190008F738093900045
:1015D00010922004109221041092220410922304ED
:1015E0001092AC05DF91CF911F910F91FF90EF907A
:1015F000DF90CF900895CF92DF92EF92FF92682F05
:1016000070E065547109072E000C880B990B0E943D
:10161000CA2D20E030E040E451E40E94272D9B01D8
:10162000AC0160E070E080E090E40E94EC2E6B0181
:101630007C018091AE05811102C00E94A6098091B3
:10164000AD0580FF52C080914A0490914B040897E9
:101650000CF04BC0809171008D7F80937100809160
:10166000AB0581110E94EA0920E030E04CED53E423
:10167000C701B6010E947F2E6B017C0181E080933F
:10168000AC0510921F0410921E0420E030E0A90166
:10169000C701B6010E947A2E1816ECF480914A0414
:1016A00090914B04FC01EE0FFF1FEE0FFF1FEC5D4E
:1016B000FB4FC082D182E282F382FC01EE0FFF1F5A
:1016C000E35FFB4F2FE030E031832083019690935E
:1016D0004B0480934A048091710082608093710072
:1016E00080919000806880939000FF90EF90DF9051
:1016F000CF90089580910C04811112C08091D80080
:1017000080618093D8008AE18A95F1F700C08091CA
:10171000D90080FD02C082E001C081E080930C040A
:1017200081E090910C04913009F080E00895CF930E
:10173000DF9320E3829FC0011124FC0136E0739FF8
:10174000E00DF11D1124E60FF11DEE0FFF1FE15515
:10175000FD4FC591D491CE01C238D10569F1B0F4E5
:10176000C133D10509F475C048F4C932D10509F473
:1017700069C0CA32D10509F473C079C0C533D10537
:1017800009F459C0C933D105B9F071C0C33ED105C0
:1017900071F138F4C03ED105B1F0C23ED10511F16E
:1017A00066C0C63ED105B9F1C73ED105C9F1C43EF8
:1017B000D10509F05CC024C02091840420FD3CC107
:1017C00021FD3AC154C02091840420FD2FC12091F5
:1017D000850420FF36C18091840484FD24C183EEFA
:1017E00090E02FC12091840422FF2BC1F4CF80917F
:1017F000840482FD1EC18091850480FD1DC1EBCF54
:101800002091850421FF1DC18091840484FD0BC1BA
:1018100087EE90E016C12091840423FF12C1F4CF1B
:101820008091840483FD0BC18091850481FFECCFFE
:1018300084EE90E006C12091840425FF02C189E274
:1018400090E0FFC02091840425FFFBC085E390E079
:10185000F8C02091840426FFF4C08AE290E0F1C031
:101860002091840426FFEDC081E390E0EAC0C11519
:1018700043E5D407A0F5C11552E5D50708F09CC093
:10188000C11520E2D207C0F4C11531E0D30708F03A
:10189000D8C0C53AD10540F4C430D10508F0D1C054
:1018A000219709F4CEC0BFC09E01205E31092830C7
:1018B000310508F0B8C0C5C0C11541E5D40708F02E
:1018C00076C0C11550E5D50708F051C0C11580E4B8
:1018D000D80708F4A8C0CE019F70906AB2C0C115A5
:1018E00026E5D20700F5C11535E5D30708F07FC01E
:1018F000C11544E5D40708F075C09E012370332755
:1019000081E090E0AC0102C0440F551F2A95E2F738
:101910002C2F2695269530E2239FC0011124842B7D
:10192000952B9A688EC0C1155AE5D50778F4C11574
:1019300089E5D80708F064C0C11528E5D20708F486
:1019400072C09C2F8827806F906A7BC0CE01905612
:101950008115904208F067C08D2F8F710E9442035D
:101960009E01332730628F71A901582B5AC0CE01D6
:10197000F4E096958795FA95E1F7282F23703C2F90
:10198000337081E090E002C0880F991F3A95E2F72A
:101990009C68AC01522B8C2F8F70282F2695269592
:1019A00030E2239FC0011124842B952B4AC09C2F29
:1019B0008827816F906A45C09E012370332781E09C
:1019C00090E0AC0102C0440F551F2A95E2F72C2F7E
:1019D0002695269530E2239FC0011124842B952B58
:1019E0009C682FC09C2F8827846F906A2AC08C2FF8
:1019F0000E9442038F7190E0982F8827906221C047
:101A00008C2F8F700E9442039E0194E0369527959B
:101A10009A95E1F72F7030E0322F22273069A90123
:101A2000482BCA010EC080E090E00BC089E390E033
:101A300008C082EE90E005C080EE90E002C086EE25
:101A400090E0DF91CF910895E9EAF4E080818E7F04
:101A500080830E94BB24EBE9F4E082818160828371
:101A60002FEF80E792E0215080409040E1F700C0E6
:101A700000000C9485039091A90490FF3BC09170E5
:101A8000811102C0926006C08B3210F0946502C0D2
:101A9000880F982B9093A90480919D048160809376
:101AA0009D04662351F06091A9047091AA0480916D
:101AB000AB049091AC040E943A046091A90466952D
:101AC00070E04BE050E08CE993E00E94C830892B35
:101AD00019F00E94BB2402C00E94C22481E08093BE
:101AE000980420E04091AC046091AB048091AA047A
:101AF0000C94350508958091A9048695815009F4C8
:101B00008AE261E00C943B0D8091A90486958F5F79
:101B10008B3208F081E061E00C943B0D6F927F9274
:101B20008F929F92AF92BF92CF92DF92EF92FF92ED
:101B30000F931F93CF93DF9369EF73E006E714E0F1
:101B40002AE7E22E24E0F22E3801C0E0AA24A39472
:101B5000B12CDB018D91BD01E82FE295EF70F0E033
:101B600021A18F70A50102C0440F551F8A95E2F78D
:101B7000CA01242B21A322A1942E9094292122A3CF
:101B800050EA5A95F1F791E0C92E94E0D92E20E061
:101B900030E0D0E0D6018D906D01482D42954F7018
:101BA00050E0DA0190964C9150E0B82DBF7002C021
:101BB00055954795BA95E2F740FD07C04A2D022E8C
:101BC00001C0440F0A94EAF701C040E0D42B2F5F14
:101BD0003F4F26303105F1F691A1992291A292A1B1
:101BE000892B82A3F3018081D81719F0D08381E07B
:101BF00001C080E0C82BFFEF6F1A7F0AE614F704DC
:101C000009F0A7CFD0907F04CC2349F081E08093E6
:101C10000A040E94C51B90930904809308048091D4
:101C20000A048823A9F080910804909109040E9475
:101C3000B61B069768F0ED2DF0E0E657FB4FD80194
:101C40008D918D018193EA16FB06C9F710920A0463
:101C50000E947A0B8823D1F110917E0480919D041B
:101C60008823E9F085E0E9EAF4E0A8E6B4E0019031
:101C70000D928A95E1F780919B0490919C04A0912C
:101C80009D0480936D0490936E04A0936F0481E093
:101C900090E00E942B2B892B11F410929D0480E080
:101CA00090E00E942B2B892B09F060C0E12FF0E01F
:101CB000E657FB4F80E090E0DC01AF58BB4F2C9122
:101CC0002193019684309105B9F7AAC0E0917F0471
:101CD0000E2F10E0809170048830C9F580916F0458
:101CE00080FF12C08091680480FF0CC08091A9041D
:101CF00081608093A9048091680460E086950E94C9
:101D00003B0D02C00E94240D80916F0481FF09C029
:101D100020E040916B0460916A04809169040E9404
:101D2000350580916F0482FF09C080916E0488237D
:101D300019F00E94C22402C00E94BB2480916F044B
:101D400083FF03C081E08093980410927004F8012F
:101D5000E657FB4F80E090E02191DC01AF58BB4F8C
:101D60002C93019684309105B9F75DC080910B04E6
:101D70008F5F80930B04863008F048C08091610427
:101D8000882309F450C080915D0490915E0400970F
:101D900081F40E94C51B90935E0480935D042091A2
:101DA0005F0430E02115310571F48091600490E00A
:101DB0000BC00E94B61B2091020330910303281729
:101DC000390738F330C0C9010197F901E35BFB4FD4
:101DD000D08120916504222331F0FC01E35BFB4FAD
:101DE00080810E94430A80916504882319F08D2F19
:101DF0000E94FB0A80915F0490E00196609160046C
:101E000070E00E949F3080935F040DC0E0917E04DB
:101E1000F0E0E657FB4F1082118212821382AECFA0
:101E200010920B04ABCF8C2FDF91CF911F910F91AC
:101E3000FF90EF90DF90CF90BF90AF909F908F90EA
:101E40007F906F9008958F929F92AF92BF92CF92A2
:101E5000DF92EF92FF920F931F93CF93DF93CDB753
:101E6000DEB7AD970FB6F894DEBF0FBECDBFFC0155
:101E70000081D18083819481892B39F01FEFD112A9
:101E800006C091E00F3F19F403C091E001C090E05B
:101E900090FDE5C67F0185E0DE01999601900D92E7
:101EA0008A95E1F7D70112962C9189A59AA522234C
:101EB00049F00E94D31C182F682F89A59AA50E946B
:101EC0004D1D03C00E94201D182FB0E31B9FF00181
:101ED000112416E0D19EE00DF11D1124E00FF11D3B
:101EE000EE0FFF1FE155FD4F059114910D312CE5CB
:101EF000120749F4D70112968C91882309F459C02E
:101F00000E942B062DC60E31BCE51B0741F4F701DC
:101F10008281882309F44DC00E94290A21C60F310D
:101F2000FCE51F0759F4D70112968C91882309F418
:101F300040C08091AD0580FDEFCFE2CFC8018A524D
:101F40009C45029758F4F7018281882391F1109201
:101F50004C0464E070E081E092E023C006322CE59E
:101F6000120711F10732BCE51B0709F4FDC0083266
:101F7000FCE51F0709F4EBC00C32BCE51B0709F4B4
:101F8000FBC00D32FCE51F0709F0FEC0D701129619
:101F90008C91882371F01092640468E070E081E213
:101FA00092E00E94DD24DCC5D70112968C9181114C
:101FB000D8C020916504211105C080916404882354
:101FC00009F411C1F7013281332309F44BC0003EFB
:101FD000110561F40E94190A81E080936304109254
:101FE00062041092610410926004BAC5023E1105A9
:101FF00071F40E94190A80916304882319F081E02A
:10200000809362041092630410926104A9C5033E98
:10201000110591F480916204882321F10E94190A2C
:102020001092630481E08093610410925F04109227
:102030005E0410925D0494C50235110531F480915F
:102040000203909103030A9708C00135110551F46A
:1020500080910203909103030A9690930303809367
:1020600002037EC58091010381110DC0D701119635
:102070004C91119788E090E0841B91094C91405F4E
:10208000D42EBCE01DC0813069F4F701418188E0A5
:1020900090E0841B9109D82EDD0CDD0CD80E8081D8
:1020A0008D5C31C0823081F4D70111964C9111972B
:1020B00088E090E0841B91094C914D5CD42EB7E0F0
:1020C0008B9FD00C112423C08330F9F483E2EBEA18
:1020D000F3E0DE01119601900D928A95E1F7F70188
:1020E0008081FE01E80FF11DD70111964C9188E027
:1020F00090E0841B9109D084BCE08B9FD00C11240C
:102100008D2D59E0D52ED80E02C04CE0D42E3323AD
:10211000A1F0222319F08D2D0E94FB0A8091630407
:10212000882381F080916004E82FF0E0E35BFB4FAF
:10213000D0828F5F8093600405C0222319F08D2D1B
:102140000E94430A0F3F110508F04DC009C5D70191
:1021500012968C91882309F42CCF8091650481110B
:1021600008C00E942206FCC4F7018281882309F47A
:1021700020CF0E941F0AF4C4F7018281882309F44A
:1021800018CF0E941906ECC40E32BCE51B0751F4AF
:10219000F7018281882309F40CCF809164048111B6
:1021A000FACEEFCF0932FCE51F0709F002CFD701C5
:1021B00012968C91882309F4FCCE0E94190A209172
:1021C000010330E02F5F3F4F23703327209301033B
:1021D00048E2429FC001439F900D112465E070E0EA
:1021E0008F599D4FDECE033F3CE5130749F406E2CD
:1021F00021EE40EE63EF7CE5C7010E942924B0C4C4
:10220000043F4CE5140708F073C1083D5CE5150771
:1022100031F407E225EE45EE68ED7CE5EDCF093DB2
:102220008CE5180731F408E221E045EE69ED7CE524
:10223000E3CF073D9CE5190731F406E221EE41EEBC
:1022400067ED7CE5D9CFF7019281992309F485C127
:10225000109266040230FCE51F0708F468C10631DD
:102260002CE5120738F098012A5F3C4529303105EA
:1022700008F05DC10E94211C909385048093840422
:1022800000313CE5130709F4CAC008F042C0083029
:102290005CE5150709F4A0C0F0F404309CE51907CB
:1022A00009F486C068F40230BCE51B0709F47CC061
:1022B00003301C4509F00CC18091840482607BC00E
:1022C0000630FCE51F0709F47FC008F081C080914B
:1022D0008404886070C00C303CE5130709F48BC09F
:1022E00068F40A305CE5150709F47AC008F07FC08D
:1022F0000E94C5288091840480685DC00E309CE5F2
:10230000190709F47CC008F086C0809184048B7F93
:1023100052C00B3FBCE51B0709F450C020F5033148
:10232000FCE51F0709F483C078F401313CE513078D
:1023300009F479C002311C4509F0CAC00E94C528C1
:10234000809184048F7737C005315CE5150709F467
:102350007CC008F4ACC00A3F1C4509F0B9C08091AC
:10236000850481602EC00F3FACE51A0709F466C0F2
:1023700070F40D3FECE51E0709F449C008F443C0B2
:1023800080918504826081608093850484C00130DF
:102390002DE5120709F497C008F470C002301D45FE
:1023A00009F096C060E090C080918404816003C011
:1023B000809184048460809384048AC08091850421
:1023C00082608093850484C0809184048061F3CF0F
:1023D000809184048062EFCF809184048064EBCF8D
:1023E0008091840488608460809384043DC08091DF
:1023F00084048E7FE0CF809184048D7FDCCF809138
:102400008404877FD8CF809185048E7FDACF809136
:1024100085048D7FD6CF809184048F7ECCCF809130
:1024200084048F7DC8CF809184048F7BC4CF80913A
:102430008404877F8B7F809384041BC080918504F4
:102440008D7F8E7F809385042BC08091840482FBD6
:10245000222720F991E0922790FB82F990FB83F9E3
:1024600080938404992329F064E070E084E493E08D
:102470001BC062E070E084E193E016C080918504A7
:10248000982F909591708E7F892B90FB81F9809386
:102490008504992329F064E070E084E293E004C0AD
:1024A00062E070E084E093E00E94DD2411C00E94AD
:1024B000C5288091840487FB222720F991E0922788
:1024C00090FB87F978CF61E08EE090E00E941E2CAF
:1024D000609184041091850484E090E00E941E2C99
:1024E000612F81E290E00E941E2C0E94C52838C313
:1024F000053FACE51A0731F406E221EE42EE65EF46
:102500007CE57ACE053FBCE51B0730F407E225EEFB
:1025100044EE64EF7CE570CE063FECE51E0709F063
:1025200092CE07E225EE46EE66EF7CE565CE0631FB
:10253000FCE51F0719F5809111058A7A91E009F4ED
:1025400090E090936704882311F065E301C069E28D
:1025500080EB94E00E94071C0EC00631BCE51B070F
:10256000A9F580916704882309F41AC365E380EB19
:1025700094E00E94FA1B0E94A61CF2C20115ACE571
:102580001A0731F00E3D1C4559F50E943D1CE8C26A
:102590000E94C5280E94190A0E94C51B8C0163E095
:1025A00070E084E693E00E94DD24C8010E94B61B1F
:1025B0008A3F910538F4EFE9FFE03197F1F700C069
:1025C0000000F3CF0E94EA090E946C1B8091110564
:1025D0008272F801E25CFC45E431F10508F4E2C2E4
:1025E000D7010D911C91992349F0C8010E94D31C79
:1025F000D82E682FC8010E944D1D04C0C8010E943A
:10260000201DD82EB8018D2D0E94970B8C01982E7D
:10261000F701B580B2942FE0B222A280A1101092EF
:10262000100580910E05877099F0AA2089F0812FFE
:10263000807F803421F080E2800F883048F082E093
:102640000E94C01D80910E058770DD24D3948111F6
:10265000D12CC12EC2949FE0C9228C2D90E08C30E9
:10266000910508F01CC2FC01EA5AFF4F0C94B330EC
:10267000812F807F1F70882311F01295107FAA2070
:10268000B9F0112309F4F6C180E2800F883010F010
:10269000911006C080911105182B1093110505C0EB
:1026A00080911005182B109310050E94A61CE2C102
:1026B000802F0E94E928112309F4F1C1005E1095D2
:1026C000083010F0911006C0809111051823109366
:1026D000110505C0809110051823109310050E9464
:1026E000A61CDDC1812F807F1F70803211F01295F2
:1026F000107F992021F0F1E09F16E1F02AC0AA2076
:1027000081F080911205BB2051F001E0B01207C0AA
:10271000182B181709F4C3C110931205C0C1812BDF
:1027200010C0BB2021F021E0B21609F4B8C10E940C
:10273000A01C2AC0AA2041F035E03B1508F4AFC127
:10274000812F0E94DF28ABC144E04B1508F4A7C1DC
:102750001BC0AA2061F0BB2099F3D70115968C917C
:10276000159780FF87C18F7015968C93E9CFBB209A
:1027700059F0093309F090C1BFEFE7EEF3E0B15033
:10278000E040F040E1F786C1812F0E94D42887C144
:10279000812F837009F069C0A11085C1902F929597
:1027A00096959770990F990F802F8F70882E912C86
:1027B000A12CB12C092E04C0880C991CAA1CBB1C8E
:1027C0000A94D2F704FF12C04FE050E060E070E0DE
:1027D00004C0440F551F661F771F9A95D2F7DB017F
:1027E000CA0180959095A095B09503C080E090E0D7
:1027F000DC0116951695412F4370423019F1C8F44B
:1028000000911305109114052091150530911605BE
:10281000413059F088299929AA29BB29BC01CD0149
:1028200060237123822393230AC0802A912AA22A3B
:10283000B32ABC01CD01682979298A299B290E94E4
:10284000FA1D31C188299929AA29BB2900911305AC
:10285000109114052091150530911605BC01CD018C
:102860006027712782279327EACFAA2019F0812FAA
:10287000817001C08695882309F415C1902F929527
:1028800096959770990F990F802F8F70882E912CA5
:10289000A12CB12C092E04C0880C991CAA1CBB1CAD
:1028A0000A94D2F704FF12C04FE050E060E070E0FD
:1028B00004C0440F551F661F771F9A95D2F7DB019E
:1028C000CA0180959095A095B09503C080E090E0F6
:1028D000DC0116951695412F43704230D9F068F50A
:1028E000009180041091810420918204309183042E
:1028F000413059F088299929AA29BB29BC01CD0169
:1029000060237123822393231EC0802A912AA22A46
:10291000B32A13C088299929AA29BB2900918004C8
:10292000109181042091820430918304BC01CD0177
:10293000602771278227932706C0BC01CD01682933
:1029400079298A299B290E94791DADC01F70AA2070
:1029500039F0812F0E94D91D802F0E94DF28A3C04B
:10296000802F0E94D428812F0E949B1D9CC0802F05
:1029700022EF921609F440C0291538F030EF931673
:1029800061F041EF941699F170C053EF9516D9F1AB
:1029900094EF991609F44EC068C0AA2019F1A4E07A
:1029A000AB1508F47CC01F7181E090E0A0E0B0E0BE
:1029B000AC01BD0104C0440F551F661F771F1A9557
:1029C000D2F78091800490918104A0918204B0910B
:1029D00083048A019B01082719272A273B27C9015D
:1029E000B80121C025E02B1508F459C0DCCFAA207E
:1029F00029F0812F8F712CC0AA20D9F3812F8F71DC
:102A00000E949B1D4CC0AA2089F01F7181E090E0BC
:102A1000A0E0B0E0BC01CD0104C0660F771F881FA5
:102A2000991F1A95D2F70E94791D39C060E070E0B5
:102A3000CB01F9CFAA2079F01F71812F0E94D91DF7
:102A400038E0139FC0011124836080930E05812F0D
:102A50000E94D91D24C081E00E94C01D41E04B1599
:102A6000F0F482E00E94C01D1AC0AA2039F0BB20F9
:102A700009F4BFCF802F0E94672911C0BB2009F441
:102A8000BDCF893349F45FEF87EE93E0515080402A
:102A90009040E1F700C00000802F0E94E92888EFF5
:102AA0008C0D843010F40E941D24DD20B1F0809143
:102AB0000E0580FD12C0D70112961C928595859552
:102AC00085950E94D91DC7010E94230F80910E0594
:102AD0008595859585950E949B1D85E0F701DE0112
:102AE000949601900D928A95E1F78CA19DA10E9488
:102AF000201D9DA1B0E38B9FF001112406E0909F63
:102B0000E00DF11D11248CA1E80FF11DEE0FFF1F48
:102B1000E155FD4F85919491A2C08091A90480FF59
:102B200045C08E7F8093A9046091A9047091AA0486
:102B30008091AB049091AC040E943A040E94BB24A3
:102B400080919D04816080939D045FEF80E792E017
:102B5000515080409040E1F700C000000E94850382
:102B600080910E05877009F47AC0D70112968C9176
:102B7000882309F474C082E0AD960FB6F894DEBFE6
:102B80000FBECDBFDF91CF911F910F91FF90EF90BE
:102B9000DF90CF90BF90AF909F908F900C94C01D0E
:102BA00069E2E5CCEE59FF4F0C94B330816080931D
:102BB000A90461E0869550C04BE75DE064E87DE0E4
:102BC0002CC044E85DE06BE77DE027C047E056E0BD
:102BD00060E176E022C040E156E067E076E01DC0AB
:102BE0004FEE55E06BEF75E018C04BEF55E06FEE20
:102BF00075E013C047ED55E063EE75E00EC043EE9F
:102C000055E067ED75E009C04CE454E06DE574E013
:102C100004C04DE554E06CE474E00E94B524A0CFFC
:102C200061E081E019C065E082E011C068E086E003
:102C30000EC06EE089E00BC064E18FE008C067E180
:102C400085E105C061E088E107C062E289E10E9498
:102C5000A32486CF61E083E20E943B0D81CFAD9635
:102C60000FB6F894DEBF0FBECDBFDF91CF911F919D
:102C70000F91FF90EF90DF90CF90BF90AF909F901B
:102C80008F900895E8EDF0E080818E7F8083109230
:102C9000E2001092DA001092E100A0EEB0E08C9118
:102CA00081608C9380818F77808319BCA7EDB0E021
:102CB0008C918E7F8C9380818F7E80831092A8046C
:102CC0000895089508950895CF92DF92EF92FF92AC
:102CD0000F931F93CF93DF93C8EDD0E088818F7E51
:102CE0008883E7EDF0E080818160808384E082BFAB
:102CF00081E08093A80488818E7F888302EE10E0B3
:102D0000F80110821092DA0081EEC82ED12CF60163
:102D1000108288818F778883888180688883888102
:102D20008F7D888319BC10928C0510928D051092AE
:102D30008B0510928A0590EEE92EF12CF701808127
:102D40008B7F808388818160888360E080E00E943F
:102D50006725F60180818E7F8083F8018081816004
:102D60008083808188608083F70180818E7F80836B
:102D7000888180618883DF91CF911F910F91FF90AF
:102D8000EF90DF90CF900895CF93DF9321E02093D1
:102D9000E9002FEF3091E800215035FD06C035EDF8
:102DA0003A95F1F700002111F5CF2091E80025FFB9
:102DB00014C0EC0140E050E068E070E00E94412562
:102DC0008091E8008E778093E80088E0FE01A2E819
:102DD000B5E001900D928A95E1F7DF91CF910895CA
:102DE0001F920F920FB60F9211242F933F934F9380
:102DF0005F936F937F938F939F93AF93BF93EF9363
:102E0000FF938091E10082FF09C08091E20082FF80
:102E100005C08091E1008B7F8093E1008091DA0012
:102E200080FF2AC08091D80080FF26C08091DA0000
:102E30008E7F8093DA008091D90080FF18C080E1F6
:102E400089BD82E189BD09B400FEFDCF81E0809398
:102E50008C058091A80481110FC00E9442160E9427
:102E600064168091E20084608093E20005C019BC82
:102E700010928C051092A8048091E10080FF17C089
:102E80008091E20080FF13C08091E2008E7F8093EA
:102E9000E2008091E20080618093E2008091D8009E
:102EA00080628093D80019BC85E080938C05809166
:102EB000E10084FF43C08091E20084FF3FC080E1D5
:102EC00089BD82E189BD09B400FEFDCF8091D800A3
:102ED0008F7D8093D8008091E1008F7E8093E10008
:102EE0008091E2008F7E8093E2008091E200816019
:102EF0008093E20080918D05882311F084E007C063
:102F00008091E30087FD02C081E001C083E08093EF
:102F10008C050E94C5280E941D241092AF04809148
:102F2000AE04882349F08091A90481608093A904AC
:102F300060E086950E943B0D0E94C2248091E100D2
:102F400083FF26C08091E20083FF22C08091E100D0
:102F5000877F8093E10082E080938C0510928D053D
:102F60008091E1008E7F8093E1008091E2008E7F6E
:102F70008093E2008091E20080618093E20060E053
:102F800080E00E9467258091F00088608093F000C7
:102F9000FF91EF91BF91AF919F918F917F916F9131
:102FA0005F914F913F912F910F900FBE0F901F9007
:102FB00018952091E4003091E50095E64091EC00F1
:102FC000842F817040FF23C08091E80080FD1DC0E8
:102FD00080918C05882399F0853099F08091EB00E1
:102FE00085FD11C04091E4005091E500241735079C
:102FF00029F3915011F09A01E1CF84E0089582E025
:10300000089583E0089581E0089580E00895409157
:10301000E80042FFDDCF089580918E0587FF11C043
:103020008091E80082FD05C080918C058111F8CF68
:1030300011C08091E8008B770BC080918C058823AC
:1030400049F08091E80080FFF8CF8091E8008E770A
:103050008093E800089520919405309195052617F6
:10306000370748F06115710539F42091E8002E7793
:103070002093E80001C0B901FC0120E06115710551
:1030800079F180918C058823F1F18530F1F18091FF
:10309000E80083FD3CC08091E80082FD2EC0809155
:1030A000E80080FFEBCF2091F3008091F20090E0E8
:1030B000922B6115710551F08830910538F42191FA
:1030C0002093F100615071090196F3CF21E0089738
:1030D00009F020E08091E8008E778093E800CECF61
:1030E0002111CFCF0AC080918C05882361F08530F3
:1030F00061F08091E80083FD0AC08091E80082FFC2
:10310000F2CF80E0089582E0089583E0089581E0A1
:103110000895CF93DF93CDB7DEB72A970FB6F89413
:10312000DEBF0FBECDBF84B7877F84BF0FB6F894D4
:10313000A895809160008861809360001092600083
:103140000FBE90E080E80FB6F894809361009093F2
:1031500061000FBE85B7806885BF85B7806885BF71
:103160000E9442160E9464168091E200846080935F
:10317000E200789480918C058823A1F01091E900F9
:103180001F709091EC00892F817090FD80E8182BC2
:103190001092E9008091E80083FD0E949C251F7039
:1031A0001093E90082E084BD93E095BD9AEF97BD4E
:1031B00080936E000E947A0B80939103809191031B
:1031C000882321F010927C0386E003C086E0809380
:1031D0007C0380937D030E947A0B882331F062E0A8
:1031E00070E081E893E00E94492A809191038091E8
:1031F0009103811102C094E001C090E090937F049C
:1032000084E0891B80937E04A9EFB3E041E050E0A5
:103210008D91E82FE295EF70F0E021A18F708A0187
:1032200002C0000F111F8A95E2F7C801902F9095F8
:10323000922391A392A1892B82A313E0AD3FB10702
:1032400039F7A1E0B4E047E054E061E070E08D912F
:10325000E82FE295EF70F0E021A18F708B0102C0A2
:10326000000F111F8A95E2F7C801902F90959223C5
:1032700091A392A1892B82A34A175B0741F7E6E746
:10328000F4E08EE794E0AAE8B4E011921D928E1764
:103290009F07D9F70E948E0D8FE39CE90197F1F704
:1032A00000C000000E948E0D80918A0480FF08C03B
:1032B0006FEF7FEF80E090E00E943C2C0E946C1B3F
:1032C0000E94321C811102C00E943D1C0E94A6096E
:1032D0000E947A0B811106C062E070E081E893E001
:1032E0000E94522A0E94321C811102C00E943D1C81
:1032F00082E090E00E940A2C80939F040E94211C8F
:10330000909385048093840483E090E00E940A2CCB
:10331000682F70E080E090E00E94FA1D80918604A2
:10332000811138C00E94321C811104C00E943D1CD2
:103330000E946E0488E090E00E94122C6093A90421
:103340007093AA048093AB049093AC0480919D0485
:10335000836080939D046E7F71F40E946E0488E008
:1033600090E00E94122C6093A9047093AA048093A9
:10337000AB049093AC040E9427040E94BB2480916C
:10338000A90480FF04C060E086950E943B0D81E0A7
:103390008093860482E993E0909388048093870465
:1033A000A2E3EA2EA4E0FA2E80918C05853009F084
:1033B0004BC080918C05843009F434C0109289048C
:1033C00020E488E190E00FB6F894A895809360001F
:1033D0000FBE209360000E94BB248091AF04811136
:1033E0000AC081E08093AF048091A904817080932A
:1033F000AE040E94240D83B7817F846083BF83B7AE
:10340000816083BF7894889583B78E7F83BF0FB622
:10341000F894A89580916000886180936000109274
:1034200060000FBE80918B05882309F4BDCF0E94F8
:103430008E0D82E994E0EAE8F4E02191211133C194
:103440008E179F07D1F7B0CF0E948E0D0E947A0B86
:103450008823A1F1E0EAF4E0AAE8B4E000E010E09B
:10346000302F2D919191922721F180E0DD24D3948A
:103470004D2D4923D1F089833A832D2181E009F430
:1034800080E08B830E94C51B8160782F9D838C8395
:1034900049815A816B818D810E948123F801E05618
:1034A000FB4F8081D826D08219C08F5FDD0C86301B
:1034B000F9F60F5F1F4F0830110591F68FEF8E83DD
:1034C0008F8318860E94C51B8160782F9A87898711
:1034D0004E815F8168858A850E94812380919C044A
:1034E000882309F4D4C080919B04E091A904E69557
:1034F000E81BE0939704823059F4F0E0E05CFB4F66
:10350000E4910E2F10E0FDE6CF2EF3E2DF2E6AC02D
:10351000863059F4F0E0E35CFB4FE4910E2F10E0AD
:10352000EDE5CE2EE3E2DE2E5DC0893061F4E69556
:10353000F0E0E65CFB4FE4910E2F10E072EEC72E38
:1035400072E2D72E4FC08F3061F4E695F0E0E95C6F
:10355000FB4FE4910E2F10E065E4C62E62E2D62EFA
:1035600041C0853159F4F0E0EC5CFB4FE4910E2F43
:1035700010E05FEBC52E51E2D52E34C08831F1F05A
:10358000833241F4F701059114914DE1C42E43E2D9
:10359000D42E28C08432C9F08532F1F48E2F63E036
:1035A0000E947130E92FF0E0E15DFB4FE4910E2FB6
:1035B00010E03EE2C32E30E2D32E14C008E210E049
:1035C0002CE2C22E21E2D22E0DC004EF11E09DEEBE
:1035D000C92E90E2D92E06C000ED17E08DE2C82E6C
:1035E00080E2D82E80919804882389F01092980464
:1035F0000E94C51B980120953095820F931F9093D0
:1036000096048093950410929A04109299048091E4
:103610009504909196040E94B61B80179107B8F10B
:10362000809194048823B1F01092940480919204C4
:10363000909193040E94B61B8033954758F00E94E6
:10364000C51B909393048093920480919D0488609D
:1036500080939D04A0909904B0909A04E091950401
:10366000F09196040E0F1F1F10939604009395047B
:1036700085E994E0F60109958091990490919A0466
:10368000892B29F4AB2819F081E0809394040E94DF
:103690001D2490919E04891709F486CE0E941D2452
:1036A00080939E0481CE80E189BD82E189BD09B409
:1036B00000FEFDCF8091D8008F7D8093D80080914F
:1036C000E00082608093E0008091E00081FDFCCF0B
:1036D0006BCE80918105089581E08093E00080E2C7
:1036E0008093D8001092C9008FE19EE40197F1F712
:1036F00000C0000087E090EBDC018093B60590935A
:10370000B705A093B805B093B9059CE088E10FB662
:10371000F894A895809360000FBE90936000FFCF4F
:1037200078941F920F920FB60F9211248F939F934C
:10373000AF93BF938091170590911805A09119053B
:10374000B0911A050196A11DB11D809317059093A4
:103750001805A0931905B0931A05BF91AF919F91D9
:103760008F910F900FBE0F901F9018959C014FB72F
:10377000F8948091170590911805A0911905B091C2
:103780001A054FBF821B930B08952FB7F8948091B1
:10379000170590911805A0911905B0911A052FBF32
:1037A00008951F920F920FB60F9211248F939F933B
:1037B000AF93BF9380918904811113C08091170545
:1037C00090911805A0911905B0911A054196A11D77
:1037D000B11D8093170590931805A0931905B09318
:1037E0001A05BF91AF919F918F910F900FBE0F90CF
:1037F0001F9018959C012A5F3F4FFC0142814613A0
:1038000001C01282019682179307B9F708959C01AF
:10381000FC0132969FEF80E04191461789F09F3F6F
:1038200019F4411101C0982F8F5F8630A9F79F3F8F
:1038300039F0F901E90FF11D97FDFA9562830895BA
:103840000895CF9384E090E00E940A2CC82F81E273
:1038500090E00E940A2C2C2F30E0A901582BCA01BD
:10386000CF91089580E090E00E94182C21E08C3EDA
:103870009E4F09F020E0822F08956CEE7EEF80E0ED
:1038800090E00E943C2C60E082E090E00E941E2CC0
:1038900060E083E090E00E941E2C109213051092CD
:1038A0001405109215051092160560E084E090E072
:1038B0000E941E2C60E081E290E00E941E2C60E0DD
:1038C00085E090E00E941E2C60E086E090E00E947F
:1038D0001E2C6FEF87E090E00E941E2C40E050E02D
:1038E000BA0188E090E00E94302C60E08DE090E02A
:1038F0000E941E2C40E050E0BA0188E190E00E9456
:10390000302C60E087E190E00E941E2C40E050E007
:10391000BA018CE190E00E94302C60E080E290E0FF
:103920000E941E2C40E050E0BA018FE090E00E941F
:10393000302C40E050E0BA0183E190E00C94302C50
:103940008091120581111092120508959091110530
:1039500080911005892B20910F05982F922B909321
:10396000B00480911205882389F0892B8093B004DC
:10397000E2EBF4E097E080E0915029F021912223DE
:10398000D9F38F5FF9CF81110E94A01CE0918704C9
:10399000F0918804309731F00280F381E02D80EBC4
:1039A00094E009940895BF92CF92DF92EF92FF9234
:1039B0000F931F93CF93DF938C01C0908004D0901E
:1039C0008104E0908204F09083048091130590912B
:1039D0001405A0911505B0911605C82AD92AEA2A1E
:1039E000FB2ACFE1D0E0D701C6010C2E04C0B6956A
:1039F000A795979587950A94D2F780FD04C02197E3
:103A000090F7B12C07C0BC2EB8018C2F0E94970BE9
:103A10000197A9F38B2DDF91CF911F910F91FF900B
:103A2000EF90DF90CF90BF900895CF93DF93EC019C
:103A30000E94D31CBE010E94970BDF91CF91089585
:103A4000292F220F920F990F890F682F669566957F
:103A50006695982F977085E0689FB001112440E02B
:103A600050E080E0FB01E40FF51FE051FB4F2081A7
:103A700030E0092E02C0369527950A94E2F72170AE
:103A80003327042E01C0220F0A94EAF7822B4F5FDE
:103A90005F4F4530510531F70895292F220F920FBE
:103AA000990F890FE82FE695E695E695877051E026
:103AB00001C0550F8A95EAF785E0E89FF0011124CF
:103AC000E051FB4F20E030E070E04081CB01022E5E
:103AD00002C0969587950A94E2F7817081958427B4
:103AE0008523842781932F5F3F4F2530310569F768
:103AF00008950F931F938B019C01067011272227B5
:103B00003327DC01CB01063011052105310511F405
:103B1000886001C0877F8093800490938104A09384
:103B20008204B09383041092100510920F051F9128
:103B30000F910C94A61C0F931F9341E050E060E09E
:103B400070E004C0440F551F661F771F8A95D2F797
:103B50004095509560957095809180049091810476
:103B6000A0918204B09183048A019B010823192348
:103B70002A233B23C901B8011F910F910C94791D91
:103B800020910E058095822380930E05982F9770C3
:103B900079F430E0482F082E000C550B2417350718
:103BA00039F08595859585950E949B1D10920E058F
:103BB00008950F931F9341E050E060E070E004C06F
:103BC000440F551F661F771F8A95D2F78091800496
:103BD00090918104A0918204B09183048A019B0199
:103BE000082B192B2A2B3B2BC901B8011F910F91D0
:103BF0000C94791D6093130570931405809315053B
:103C0000909316051092100510920F050C94A61CA7
:103C10008091EF049091BE04891719F08F5F87702F
:103C2000FBCF08950F931F93CF93DF938091BD0433
:103C300082958F7009F05DC08091BA04882309F4E1
:103C400058C08091EF041091BE046091B804709147
:103C5000B904C091BB04D091BC0491E06F3F09F05E
:103C600090E0292F06E0811709F443C0209721F046
:103C70007F3F21F030E003C031E001C0322F90E0FF
:103C800030FD34C0089FF001099FF00D1124DF01C1
:103C9000A154BB4F11963C911197371327C03C910B
:103CA000361324C012963C91129731111FC01396FF
:103CB0004D915C9114974C1B5D0B483C5105B0F441
:103CC0008091BD048F7080618093BD04EC53FB4FE5
:103CD00080818F708061808388EB94E00E94230F45
:103CE000DF91CF911F910F910C94081E0196877060
:103CF000BACFDF91CF911F910F9108959F92AF920C
:103D0000BF92CF92DF92EF92FF920F931F93CF93C8
:103D1000DF93CDB7DEB761970FB6F894DEBF0FBE65
:103D2000CDBF8C0185E0F801DE011D9601900D925A
:103D30008A95E1F7F80190818181E2803091B804A1
:103D40006091B9044091BB045091BC0441155105E8
:103D500031F06F3F31F421E03F3F19F403C021E01F
:103D600001C020E0F22FF1709F2E20FD23C1F80149
:103D7000C380D48028EBA22E24E0B22EF090BA04A7
:103D8000F601E41BF50BFF2009F4CEC02091BD0421
:103D9000E83CF10508F099C0422F407F09F051C07E
:103DA000681311C039130FC0FE2CE1100CC02F7026
:103DB00020612093BD04C5010E94230F8091BD04A2
:103DC000F801858337C1CD2831F08F3F31F421E0F0
:103DD0009F3F19F403C021E001C020E020FD03C093
:103DE00021E02E2502C020E030E0F22FF170FF2EFE
:103DF00020FF1DC02091EF044091BE0456E024171F
:103E000009F4F6C030E0529FF001539FF00D1124E9
:103E1000E154FB4F6181861306C06081961303C095
:103E20006281E61204C02F5F3F4F2770E8CFFE2C5F
:103E3000EE2009F4FFC08091BD0481608093BD0431
:103E400050C0681307C0391305C0E11003C0F80162
:103E500025838DC09D878E878D859E850E949C2899
:103E6000882369F1EE2059F12091BD04822F8295BB
:103E70008F7090E0029774F08091B8049091B9042B
:103E800098878F831986DB86CA862C87CE01079692
:103E90000E94230F86E0F801A8EBB4E001900D9298
:103EA0008A95E1F70E94121E0DC06817E1F09D8708
:103EB0008E878D859E850E949C2881111EC0C80119
:103EC0000E94230FFF24F394B5C0422F407F69F76F
:103ED00088EB94E00E94230F86E0F50111928A9509
:103EE000E9F7F12CA7C03913E2CFE110E0CFF801D8
:103EF0002583C8010E94230F57C0EE2001F32091B3
:103F0000BD04822F82958F7090E002971CF2809101
:103F1000B8049091B9049A8389831B82DD82CC8294
:103F20002E83CE010196B4CFE83CF105E8F5FE2CD6
:103F3000EE2029F2681327C0391325C02091BD0453
:103F400020FD18C0822F82958F70482F50E04115B8
:103F5000510581F0F80125834F30510541F08F5F05
:103F6000982F9295907F822F8F70892B8583C8011F
:103F70000E94230F86E0F801A8EBB4E001900D92B7
:103F80008A95E1F757C09D878E878D859E850E9413
:103F90009C2881117FCF8091BD0481608093BD04F6
:103FA000C8010E94230F46C086E0F50111928A9550
:103FB000E9F740C0EE2009F482CF9D878E878D857A
:103FC0009E850E949C28F82E882309F478CF86E0ED
:103FD000F801A8EBB4E001900D928A95E1F7809189
:103FE000B8049091B9040E94151D0E94121E22C0AF
:103FF0009D878E878D859E850E94151D292F229570
:104000002F70223028F49F7039F0811105C00BC049
:10401000243028F49F7049F4805E883020F0C80175
:104020000E94230F9F2CF92C05C0F8019581907FE9
:1040300099F7F9CF8F2D61960FB6F894DEBF0FBEBA
:10404000CDBFDF91CF911F910F91FF90EF90DF9047
:10405000CF90BF90AF909F90089508958F929F92B8
:10406000AF92BF92CF92DF92EF92FF920F931F9386
:10407000CF93DF93FC01B280948081E0848300E0E1
:1040800015E05BE4A52E88248394EE24EA94F12CB9
:104090007BE4C72ED12C80918003081708F08FC0D5
:1040A000C02FD0E01C9FF0011D9FF00D1124EE5B8E
:1040B000FA4F911003C01382128267C0238122231A
:1040C00089F1215023833481332319F09A2D921BD7
:1040D00001C0922F8091AC041C9FF0011D9FF00D38
:1040E0001124EE5BFA4F899FC0011124B6010E9492
:1040F0008B306283211104C0332311F01482A38218
:1041000022E02B1508F441C01C9FF0011D9FF00D0B
:104110001124EE5BFA4F8091AA0480838091AB0456
:10412000818333C00E94FA2B8230914074F582E083
:104130008B1530F40E94FA2BB7010E949F3002C009
:104140008091AA041C9FF0011D9FF00D1124EE5BCD
:10415000FA4F808322E02B1558F40E94FA2B20910D
:10416000AB042695622F70E00E949F30820F02C040
:104170008091AB041C9FF0011D9FF00D1124EE5B9C
:10418000FA4F81831282A382848280917E039E01F2
:10419000280F311DC901880F991F280F391F225E72
:1041A0003A4F1C9FF0011D9FF00D1124EE5BFA4F5A
:1041B0004281618180810E9485040F5F6CCFDF9115
:1041C000CF911F910F91FF90EF90DF90CF90BF9014
:1041D000AF909F908F900C9485030F931F93CF9374
:1041E000DF93EC0100E010E080918003282F30E0A5
:1041F0000217130724F590917E039801290F311DB2
:10420000A901440F551F240F351F225E3A4F869592
:1042100090E04C81081719071CF4442331F002C0C8
:10422000411103C04091AC0401C040E06091AB0477
:104230008091AA040E9485040F5F1F4FD5CF0E9472
:1042400085038C8190E00196817099278C83DF91A2
:10425000CF911F910F9108958F929F92AF92BF922D
:10426000CF92DF92EF92FF920F931F93CF93DF9342
:104270008C01FC014481C42FD0E09E01DE010E942C
:10428000A62C9B01AC010E94712C6B017C01E0E229
:10429000F0E0EC1BFD0BA5E5B0E09B01AC010E943A
:1042A000712C4B015C019F01DF010E94B9309B0121
:1042B000AC010E947C2C9B01AC012C0D3D1D4E1DC0
:1042C0005F1DC501B4010E94842CC22FD22F2A3257
:1042D00028F4F3E02F9F900111240DC025E530E074
:1042E0002C1B3109C901880F991F280F391F37FF6F
:1042F00002C02F5F3F4F35952795C22FC095F12CF7
:1043000085E5E82EED1A80918003F816C8F4F1FCDB
:1043100002C08E2D01C08D2F90917E032F2D30E095
:10432000290F311DA901440F551F240F351F225E8F
:104330003A4F4C2F6091AB040E948504F394E3CF75
:104340000E948503F8018481811102C091E003C0BD
:10435000803219F49FEF9093A9039091A903890FDC
:10436000F8018483DF91CF911F910F91FF90EF901F
:10437000DF90CF90BF90AF909F908F9008951F9344
:10438000CF93DF93EC018C81811109C081E08C8394
:1043900010921C0592E09093A8038093A70380914C
:1043A0007E0390917F03891770F4E82FF0E09F015E
:1043B000220F331FE20FF31FE25EFA4F11821082C9
:1043C00012828F5FF0CF10E0609180031617C0F566
:1043D000E12FF0E070E0CF010E949F3020917E033A
:1043E000820F20911C05022E000C330B90E0E21787
:1043F000F307CCF02091A803022E000C330B2E17EC
:104400003F078CF09C01220F331F820F931F9C01EA
:10441000225E3A4F4091AC046091AB048091AA04B3
:104420000E9485040BC0FC01EE0FFF1F8E0F9F1F23
:10443000FC01E25EFA4F1182108212821F5FC4CF2C
:104440000E9485038091A70320911C05280F2093CB
:104450001C059091A803980F9093A80319165CF47B
:10446000022E000C330B4091800350E04150510963
:104470002417350734F081958093A703813009F420
:104480001C82DF91CF911F9108958F929F92AF92DE
:10449000BF92CF92DF92EF92FF920F931F93CF9331
:1044A000DF93EC018A8180FF03C0BB24BA9402C071
:1044B000BB24B3948C8181110DC081E0B81206C079
:1044C00080918003815080931B0502C010921B05D0
:1044D00081E08C83A12C4CE0942E80918003A8165F
:1044E00008F044C080917E03CA2CD12C8601080FAD
:1044F000111DC801880F991F080F191F025E1A4F5E
:10450000F80111821082128234E0E32EF12C812C0A
:1045100080911B05880D8D302CF0692D0E947D3017
:10452000892F05C087FF03C090918003890F082E53
:10453000000C990BC816D90691F48091AC048E9D9D
:10454000A0018F9D500D1124559547955595479580
:1045500098016091AB048091AA040E9485048B0CA1
:10456000F1E0EF1AF108A1F6A394B7CF0E948503FA
:1045700080911B0591E0B9120EC0811107C0809196
:104580008003815080931B051C820FC08150809353
:104590001B05BC820AC090E001966091800370E028
:1045A0000E949F3080931B058C83DF91CF911F91D8
:1045B0000F91FF90EF90DF90CF90BF90AF909F90C2
:1045C0008F900895FF920F931F93CF93DF93EC0189
:1045D000F12C0FEF10E060918003F616F0F480915B
:1045E0007E032F2D30E0280F311DC901880F991F40
:1045F000280F391F225E3A4F70E0C8010E949F3099
:10460000962F8C814091AC046091AB04F99E800D93
:1046100011240E948504F394DECF0E9485039A81C1
:104620008C8190FF02C08F5F01C081508C83DF912D
:10463000CF911F910F91FF9008950F931F93CF93E8
:10464000DF9300D01F92CDB7DEB78C0180911D059E
:1046500081110AC09E012F5F3F4F4FEF6FEF0E9405
:1046600085048A8180931D05F8018481813051F091
:1046700028F0823061F440911D050AC080911D052B
:1046800040E007C060911D0540E080E003C040E0CD
:1046900080E060E00E940C04F801848190E00196C3
:1046A00063E070E00E949F3084830F900F900F9022
:1046B000DF91CF911F910F910895CF93DF93EC017C
:1046C000E9EAF4E0438162818C810E941B058C81C0
:1046D0008F5F8C83DF91CF910895CF93DF93EC01AF
:1046E000EC81F0E0EC5BFB4F4491E9EAF4E062819D
:1046F00081810E941B058C818F5F8C83DF91CF911C
:1047000008951F93CF93DF93CDB7DEB767970FB6AA
:10471000F894DEBF0FBECDBF4B8B5C8B6D8B7E8B59
:104720008F8B86E09E01235F3F4FD901E82F1D92BA
:10473000EA95E9F795E0FE017396D90101900D9293
:104740009A95E1F7F901DE01179601900D928A958D
:10475000E1F7CE0107960E947E1E81113EC086E0E1
:10476000FE013796DE01119601900D928A95E1F7D0
:10477000FF81E8856A857B856115710531F0EF3F22
:1047800031F481E0FF3F19F403C081E001C080E013
:1047900080FD23C02091BE0430E0C90101968770DE
:1047A00099274091EF0450E08417950779F1F98338
:1047B000EA837D836C8396E0929FD001939FB00D36
:1047C0001124A154BB4FFE01319601900D929A9590
:1047D000E1F78093BE040E94081E16E08091EF046A
:1047E0009091BE048917F9F0189FC00111248154DB
:1047F0009B4F0E947E1E8823B1F08091EF0490E0D1
:104800000196877099278093EF04E8CF0E94C5280E
:104810001092BE041092EF04E8EBF4E086E0DF01B2
:104820001D928A95E9F767960FB6F894DEBF0FBE22
:10483000CDBFDF91CF911F910895E0918704F09152
:104840008804309721F00190F081E02D099480E0F8
:1048500008950F931F93CF93DF93C42FD22FFC01A2
:1048600082818823C9F0409366040E94C51B9093FF
:104870007F0580937E0580E28C0F883008F05EC053
:10488000C77081E001C0880FCA95EAF7DF91CF9128
:104890001F910F910C94DF288091660448133EC04D
:1048A00080917E0590917F050E94B61B883C910502
:1048B000A8F510E21D0FCD17B9F080E28C0F8830FB
:1048C00040F4C77081E001C0880FCA95EAF70E94E2
:1048D000D428183048F481E09D2F977001C0880FCC
:1048E0009A95EAF70E94DF28802F0E9467290933F2
:1048F00049F4FFEF27EE83E0F15020408040E1F7DC
:1049000000C00000802F0E94E9281830B8F4D7704A
:1049100081E001C0880FDA95EAF70AC080E28C0FC7
:10492000883060F4C77081E001C0880FCA95EAF74B
:10493000DF91CF911F910F910C94D428DF91CF91EB
:104940001F910F9108959091A90490FF04C096952E
:10495000981740F003C0811105C090E0961710F43D
:104960000C94840D61E00C943B0D882311F0FA0146
:1049700001C0FB010994EBE9F4E0118282818460BB
:10498000828308956091A904669570E04BE050E041
:104990008CE993E00E94C830892B19F481E0809360
:1049A0009C040E94C51B909396048093950480916B
:1049B0009D04846080939D0408950F931F93CF936B
:1049C000DF93EC018B018091AE05811102C00E9442
:1049D000A6098091AD0580FF4FC0809171008D7F49
:1049E000809371008091AC0581110E94EA0981E0F9
:1049F0008093AB05D093AA05C093A9051093A80591
:104A00000093A7051092A6051092A2051092A30587
:104A10001092A4051092A5051092A1051092A00570
:104A200088819981AA81BB8180939C0590939D0583
:104A3000A0939E05B0939F0520E030E040E85EE340
:104A40006C817D818E819F810E947F2E609398056D
:104A50007093990580939A0590939B051092970502
:104A60001092960580917100826080937100809110
:104A70009000806880939000DF91CF911F910F91FB
:104A800008950F931F93CF93DF938C010E94D91742
:104A9000811118C0E80108E010E08091E80085FD70
:104AA0000AC08091E8008E778093E8000E94D917B1
:104AB000882399F307C089918093F100015011096F
:104AC00061F780E0DF91CF911F910F910895982FAA
:104AD000973068F59093E900981739F05091EC0001
:104AE0002091ED004091F00003C0562F40E022E0FD
:104AF00021FD02C09F5FECCF3091EB003E7F3093F1
:104B0000EB003091ED003D7F3093ED003091EB00F4
:104B100031603093EB005093EC002093ED00409314
:104B2000F0002091EE0027FDE5CF80E008958F7022
:104B30008093E90081E008951F93CF93DF93CDB771
:104B4000DEB7AA970FB6F894DEBF0FBECDBFEEE872
:104B5000F5E08091F100819325E0E639F207C9F78D
:104B600080918F05833009F460C030F4813071F09A
:104B7000823009F49AC0B1C08A3009F486C08B3003
:104B800009F46BC0893009F0A8C020C080918E055F
:104B9000813A09F0A2C08091E800877F8093E80005
:104BA0008091920590919305892B21F468E082E829
:104BB00095E003C060E080E090E070E00E942B1878
:104BC0008091E8008B778093E80087C080918E0504
:104BD000813209F082C08091920590919305892BD2
:104BE00009F07BC08091E800877F8093E800809186
:104BF000E80082FD05C080918C058111F8CF6DC061
:104C00002091F3008091F20090E0922B029729F41A
:104C10008091F1008B7F813021F48091F1008093AD
:104C200081058091E8008B7754C080918E05813A90
:104C300009F053C08091920590919305892B09F05A
:104C40004CC08091E800877F8093E8008091E80065
:104C500080FFFCCF8091AA0337C080918E058132FE
:104C6000E1F58091920590919305892BB1F58091A2
:104C7000E800877F8093E8000E940C1880919005DF
:104C80008093AA030E94C52828C080918E05813296
:104C900021F58091E800877F8093E8000E940C183E
:104CA000809191058093800518C080918E05813A8E
:104CB000A1F48091E800877F8093E8008091E8006C
:104CC00080FFFCCF809180058093F1008091E80007
:104CD0008E778093E8000E940C188091E80083FF93
:104CE000BFC180918E0590918F05492F50E04A30C9
:104CF000510508F0B5C1FA01EA58FF4F0C94B330E2
:104D0000803821F0823809F0ABC108C080918A0553
:104D100090918B05992389F082600FC08091920554
:104D20008F70873008F09CC18093E9008091EB0080
:104D300085FB882780F91092E9009091E800977F21
:104D40009093E8008093F1001092F1005EC1282F4B
:104D50002D7F09F085C1882319F0823061F080C170
:104D600080919005813009F07BC1933009F080E09B
:104D700080938B052EC08091900581112AC080916F
:104D800092058F702FEF280F263008F069C18093AD
:104D9000E9002091EB0020FF1CC0933021F48091AA
:104DA000EB00806214C09091EB0090619093EB0057
:104DB00021E030E0A90102C0440F551F8A95E2F7B7
:104DC0004093EA001092EA008091EB0088608093A3
:104DD000EB001092E9008091E800877F19C18111F2
:104DE0003FC1109190051F778091E3008078812B5F
:104DF0008093E3008091E800877F8093E8000E9421
:104E00000C188091E80080FFFCCF8091E30080685F
:104E10008093E300111102C082E001C083E080931F
:104E20008C051EC18058823008F01AC1809190050F
:104E3000909191058C3D53E0950779F583E08A8345
:104E40008AE289834FB7F894DE01139620E03EE0B2
:104E500051E2E32FF0E050935700E49120FF03C0AC
:104E6000E295EF703F5FEF708E2F90E0EA3010F028
:104E7000C79601C0C0968D939D932F5F243149F74B
:104E80004FBF8091E800877F8093E8006AE270E07E
:104E9000CE0101960E942B18A7C040919205509117
:104EA0009305292F332723303105A9F068F42130E9
:104EB000310509F4E4C02230310509F0D1C082E2A5
:104EC00090E0E4E8F5E03DC02132310579F122328D
:104ED000310581F1C5C0992781309105B9F070F095
:104EE00082309105D9F0039709F0BAC0E8EBF5E0FC
:104EF000E4918E2F90E0E8EBF5E020C0EEEEF5E0D7
:104F0000E4918E2F90E0EEEEF5E018C0EAEDF5E0CA
:104F1000E4918E2F90E0EAEDF5E010C0EEEBF5E0C5
:104F2000E4918E2F90E0EEEBF5E008C0452B09F4FC
:104F3000ABC096C0452B09F4ACC092C0009709F4F1
:104F40008FC02091E800277F2093E80020919405EE
:104F5000309195058217930708F49C0140E02115D4
:104F6000310589F180918C05882309F43DC0853095
:104F7000D9F18091E80083FD37C08091E80082FD7F
:104F80002FC08091E80080FFEACF4091F30080912C
:104F9000F20090E0942B2115310559F088309105ED
:104FA00040F444914093F10031962150310901962B
:104FB000F2CF41E0089709F040E08091E8008E7759
:104FC0008093E800CCCF4111CDCF0AC080918C05F1
:104FD000882351F0853041F08091E80083FD04C0C2
:104FE0008091E80082FFF2CF8091E8008B77809378
:104FF000E80036C08038A1F58091E800877F809373
:10500000E80080918D058093F1008091E8008E7713
:105010008093E8000E940C1823C0811121C0809168
:1050200090059091910599270297D4F48091E8001A
:10503000877F8093E8001091900510938D050E9462
:105040000C18111106C08091E30087FD02C081E0B9
:1050500001C084E080938C0561EC81E00E946725AB
:105060008091E80083FF1AC08091E800877F8093D9
:10507000E8008091EB0080628093EB000FC082E13A
:1050800090E0E6EAF5E05DCF89E090E0E6E9F5E062
:1050900058CF80E490E0E4E4F5E053CFAA960FB651
:1050A000F894DEBF0FBECDBFDF91CF911F91089561
:1050B0001F920F920FB60F9211242F933F934F938D
:1050C0005F936F937F938F939F93AF93BF93CF9390
:1050D000DF93EF93FF93C091E900CF708091EC00D4
:1050E000D82FD17080FDD0E81092E9008091F000B7
:1050F000877F8093F00078940E949C251092E900AD
:105100008091F00088608093F000CD2BCF70C09329
:10511000E900FF91EF91DF91CF91BF91AF919F9106
:105120008F917F916F915F914F913F912F910F9050
:105130000FBE0F901F9018950E94151D292F2F70DC
:10514000E92FE295EF704E2F50E0FA013297EE30E2
:10515000F105B8F4E058FF4F0C94B330803F99F05C
:1051600018F4883E70F40FC0843F59F40CC0883E98
:1051700050F0813F31F407C0822F86958695869541
:10518000089580E0089581E008951092110586E069
:10519000E2EBF4E0DF011D928A95E9F71092100529
:1051A00010920F050C94A61C882341F080959091D5
:1051B00011058923809311050C94A61C089588235A
:1051C00039F090911105892B809311050C94A61C40
:1051D0000895882309F47AC0682F823869F40E9400
:1051E0001D2481FF73C069E380EB94E00E94071CDB
:1051F0000E94A61C69E30EC0833891F40E941D240E
:1052000080FF64C063E580EB94E00E94071C0E946D
:10521000A61C63E580EB94E00E94FA1B0C94A61C8C
:10522000843869F40E941D2482FF50C067E480EB3B
:1052300094E00E94071C0E94A61C67E4EBCF8CEF51
:10524000860F813A38F380E2860F883070F46770F9
:1052500081E090E001C0880F6A95EAF7809590910F
:105260001105892380931105D9CF8BE5860F8330F3
:10527000A0F48091AF059091B005892B39F110927F
:10528000B0051092AF05E0918704F0918804309743
:10529000E9F00680F781E02D16C0685A6731B0F456
:1052A0008091B1059091B205892B81F01092B205E1
:1052B0001092B105E0918704F0918804309731F0A5
:1052C0000084F185E02D80E090E009940895CF936B
:1052D000882309F47CC0C82F8238B1F40E941D24B1
:1052E00081FD75C069E380EB94E00E94071C0E9479
:1052F000A61C2FEF81EE94E0215080409040E1F712
:1053000000C0000069E317C08338D1F40E941D2457
:1053100080FD5DC063E580EB94E00E94071C0E9465
:10532000A61C2FEF81EE94E0215080409040E1F7E1
:1053300000C0000063E580EB94E00E94FA1B3CC0D3
:105340008438B1F40E941D2482FD41C067E480EBE3
:1053500094E00E94071C0E94A61C2FEF81EE94E0AF
:10536000215080409040E1F700C0000067E4E3CFA7
:105370008CEF8C0F813A80F4E2EBF4E088EB94E060
:105380002191C217E1F08E179F07D1F76C2F80EBA8
:1053900094E00E94071C10C080E28C0F8830B8F4A3
:1053A000C77081E090E001C0880FCA95EAF790913C
:1053B0001105892B80931105CF910C94A61C6C2F9D
:1053C00080EB94E00E94FA1B0E94A61CDFCFCF91D5
:1053D00008958EE14A9B02C08150E1F74A9BFECFBF
:1053E00008955A9880E28A95F1F75A9A0895FC0137
:1053F0002AE02A95F1F790E020E080E031E02617DE
:1054000079F040E14A95F1F7880F4A9B02C081602C
:10541000932700C0000040E14A95F1F72F5FEFCFDE
:1054200020E12A95F1F729B100C0000030E13A955A
:10543000F1F722FB222720F992272081920F9083F7
:105440000895EF92FF920F931F93CF93DF931F92D4
:10545000CDB7DEB719828C017C01E60EF11C0E156A
:105460001F0559F00E94E92968E0CE0101960E94CB
:10547000F729F80181938F01F2CF81E09981911191
:1054800080E00F90DF91CF911F910F91FF90EF90EF
:1054900008959093B5058093B4056093B305529A2F
:1054A0005A9A08959093B5058093B4056093B30517
:1054B00052985A9AEA9AE9E6F0E080818F7C8083DC
:1054C0000895615091E001C0990F6A95EAF720E0D4
:1054D00031E0992361F0492F482319F05A9A232784
:1054E00001C05A9840E24A95F1F79695F2CF2223EF
:1054F00011F05A9A01C05A9880E28A95F1F75A98A9
:105500000895FF920F931F93CF93DF93EC018C01CB
:10551000060F111DC017D10741F0F9900E94F12923
:1055200068E08F2D0E94612AF5CFDF91CF911F9106
:105530000F91FF9008951F920F920FB60F921124B2
:105540000F931F932F933F934F935F936F937F938B
:105550008F939F93AF93BF93EF93FF93CF93DF937B
:105560001F92CDB7DEB719820E94E92967E0CE010C
:1055700001960E94F729382F369536953695932F48
:1055800096959570232F2570920F292F237096954D
:1055900096958770920F891348C08981811145C003
:1055A0008091B305831708F440C080E18A95F1F734
:1055B0005A9A529AA2E0AA95F1F700C00091B40558
:1055C0001091B505B8E03B9F000D111D11245A98AC
:1055D000F8016581662321F0868197810E94812AE6
:1055E0000E94F129F0E1FA95F1F75A9852985A9AE7
:1055F00080E18A95F1F7D80112966C911297662393
:1056000069F013968D919C9114970E94212AD801DC
:10561000ED91FC91811105C082E004C0D801ED91AB
:10562000FC9188E080830E94E9290F90DF91CF915F
:10563000FF91EF91BF91AF919F918F917F916F916A
:105640005F914F913F912F911F910F910F900FBE3E
:105650000F901F9018950F931F93CF93DF93209176
:10566000B30530E0281739070CF471C09C0193E0B2
:10567000220F331F9A95E1F7C091B405D091B5057B
:10568000C20FD31FF894529A5A9845E04A95F1F701
:105690000000982F969595708570890F982F9370BC
:1056A00086958695890F8901082B0E94F12984E04F
:1056B0008A95F1F700C067E0802F0E94612A40E1DF
:1056C0004A95F1F752985A9A4A9902C000C0FCCF05
:1056D00087E090E04A9B0EC0019751F4529A5A9A83
:1056E000E881F98181E08083789481E090E031C0A5
:1056F00000C0F0CF6D81662381F08E819F810E9472
:10570000212A81110AC0529A5A9AE881F98182E0CD
:105710008083789482E090E01CC00E94E92980E2B6
:105720008A95F1F75A98529A40E14A95F1F76A81C1
:10573000662321F08B819C810E94812A0E94F1299D
:10574000E881F9811082789480E090E002C084E0E2
:1057500090E0DF91CF911F910F9108958F929F92CA
:10576000AF92BF92CF92DF92EF92FF92CF93DF93EF
:10577000EC01688179818A819B81611571058105C0
:10578000910521F464E279ED8BE597E02DE133EFAB
:1057900041E050E00E94522C49015A019B01AC01AA
:1057A000A7EAB1E40E94712C6B017C01ACEEB4EF6E
:1057B000A50194010E947F2CDC01CB018C0D9D1D65
:1057C000AE1DBF1DB7FF03C00197A109B048888374
:1057D0009983AA83BB839F77DF91CF91FF90EF904E
:1057E000DF90CF90BF90AF909F908F9008950E94D0
:1057F000AE2B089580E091E00E94AE2B0895A0E0CA
:10580000B0E08093000190930101A0930201B09356
:1058100003010895F999FECF92BD81BDF89A9927A9
:1058200080B50895A6E1B0E044E050E00C94442C2B
:10583000A8E1B0E042E050E00C94442C262FF99906
:10584000FECF92BD81BDF89A019700B4021639F0DF
:105850001FBA20BD0FB6F894FA9AF99A0FBE0895B0
:105860000396272F0E941F2C0E941E2C252F0E947A
:105870001F2C242F0C941F2C0196272F0E941F2CC5
:105880000C941E2CDC01CB01FC01F999FECF06C063
:10589000F2BDE1BDF89A319600B40D9241505040EE
:1058A000B8F70895052E97FB1EF400940E94692C0A
:1058B00057FD07D00E94842C07FC03D04EF40C94B3
:1058C000692C50954095309521953F4F4F4F5F4F34
:1058D000089590958095709561957F4F8F4F9F4F5C
:1058E00008950E94A62CA59F900DB49F900DA49F93
:1058F000800D911D11240895B7FF0C94712C0E9406
:10590000712C821B930B0895A1E21A2EAA1BBB1BBC
:10591000FD010DC0AA1FBB1FEE1FFF1FA217B3077B
:10592000E407F50720F0A21BB30BE40BF50B661F91
:10593000771F881F991F1A9469F760957095809555
:1059400090959B01AC01BD01CF010895A29FB001CC
:10595000B39FC001A39F700D811D1124911DB29FA3
:10596000700D811D1124911D08955058BB27AA2741
:105970000E94CD2C0C94402E0E94322E38F00E94B2
:10598000392E20F039F49F3F19F426F40C942F2E71
:105990000EF4E095E7FB0C94292EE92F0E94512E7E
:1059A00058F3BA17620773078407950720F079F454
:1059B000A6F50C94732E0EF4E0950B2EBA2FA02DA5
:1059C0000B01B90190010C01CA01A0011124FF27AC
:1059D000591B99F0593F50F4503E68F11A16F040A7
:1059E000A22F232F342F4427585FF3CF46953795A6
:1059F0002795A795F0405395C9F77EF41F16BA0B6B
:105A0000620B730B840BBAF09150A1F0FF0FBB1F18
:105A1000661F771F881FC2F70EC0BA0F621F731F61
:105A2000841F48F4879577956795B795F7959E3FBE
:105A300008F0B0CF9395880F08F09927EE0F97954F
:105A4000879508950E94052E08F481E008950E942C
:105A50003B2D0C94402E0E94392E58F00E94322E7D
:105A600040F029F45F3F29F00C94292E51110C9439
:105A7000742E0C942F2E0E94512E68F39923B1F3AB
:105A8000552391F3951B550BBB27AA276217730764
:105A9000840738F09F5F5F4F220F331F441FAA1FF8
:105AA000A9F335D00E2E3AF0E0E832D091505040B4
:105AB000E695001CCAF72BD0FE2F29D0660F771F62
:105AC000881FBB1F261737074807AB07B0E809F048
:105AD000BB0B802DBF01FF2793585F4F3AF09E3FCD
