:100000000C9437060C947E060C947E060C94102EED
:100010000C947E060C947E060C947E060C947E0650
:100020000C947E060C947E060C940F1E0C944B1DB3
:100030000C9459200C947E060C947E060C947E063B
:100040000C947E060C947E060C947E060C947E0620
:100050000C947E060C940C200C947E060C947E0668
:100060000C947E060C947E060C947E060C947E0600
:100070000C947E060C947E060C947E060C947E06F0
:100080000C947E060C947E060C947E060C947E06E0
:100090000C947E060C947E060C947E060C947E06D0
:1000A0000C947E060C947E060C947E06530B560B25
:1000B000720B7F0B860BA60BA90BDD0BFF0B9D0CA8
:1000C000A70C0A0C0C0C100C340C550C580C5B0CC7
:1000D0007E0C5A105A1094109410E7108A128A124B
:1000E0008A120311E111F211F211CA12F412F9127B
:1000F000FE12031308130D13121317131C132113ED
:1001000028132B132E133113341337133A133D13C3
:100110004213531B7A1B2D1D7A1B2D1DC61BE91B79
:100120002D1DEA1CFA1C772A772A8A2A8A2A802A15
:100130008A2A8A2A8A2A772A772A852A8A2A8A2A4A
:10014000852A00DA0281FFD9F1DB20A4A62EAF00B8
:10015000A0C000A1C800AED580A81FD300408D1458
:10016000200032190A00047F3F1F643214643214E5
:10017000783C1E1E140A054C617965723A20556E52
:10018000646566696E6564004C617965723A204CFD
:100190006F776572004C617965723A2052616973BC
:1001A00065004C617965723A2044656661756C74CE
:1001B000004C756E616B6579204D696E690000AE0B
:1001C000000000000000000000000000000000002F
:1001D000000000007E0F00D4FFFFFFC70000007882
:1001E00000000000000000002A2B28000000000092
:1001F00000000000000000000000002900000000D6
:100200002C1E3420212224342627252E362D373843
:10021000271E1F202122232425263333362E37384C
:100220001F0405060708090A0B0C0D0E0F1011120A
:10023000131415161718191A1B1C1D2F3130232DD6
:10024000350405060708090A0B0C0D0E0F101112D4
:10025000131415161718191A1B1C1D2F3130354C85
:100260000001010101010101010102020202020279
:10027000020202030303030303030304040404044C
:100280000404050505050506060606060707070713
:100290000708080808090909090A0A0A0B0B0B0CC8
:1002A0000C0C0D0D0D0E0E0E0F0F0F101011111165
:1002B00012121313141415151616171718181919E6
:1002C0001A1A1B1B1C1D1D1E1E1F2020212222234B
:1002D0002424252626272829292A2B2C2D2D2E2F8C
:1002E00030313232333435363738393A3B3C3D3EA3
:1002F0003F404142434445464748494A4C4D4E4F92
:1003000050515354555658595A5B5D5E5F61626453
:10031000656668696B6C6D6F7072737577787A7BE0
:100320007D7E8082838587888A8C8E8F9193959637
:10033000989A9C9EA0A2A3A5A7A9ABADAFB1B3B557
:10034000B7BABCBEC0C2C4C6C9CBCDCFD1D4D6D833
:10035000DBDDDFE2E4E7E9EBEEF0F3F5F8FAFDFFD1
:10036000FFAA7F55400001020304050B0A09080794
:100370000605010980A101850319012AB7001501AD
:1003800026B700950175108100C0050C0901A10177
:10039000850419012AA002150126A00295017510F5
:1003A0008100C00660FF0961A1010962150026FFF6
:1003B000009520750881020963150026FF0095202D
:1003C00075089102C005010906A101050719E02978
:1003D000E7150025019508750181029501750881D1
:1003E000010507190029FF150026FF00950675086D
:1003F00081000508190129059505750191029501EE
:1004000075039101C009025B00030100A0FA090411
:100410000000010301010009211101000122400037
:100420000705810308000A09040100020300000017
:100430000921110100012222000705820320000189
:100440000705030320000109040200010300000066
:100450000921110100012232000705840320000A4E
:1004600012011001000000085459010001000102AE
:1004700003010403300000001A034C0075006E00F5
:1004800061006B006500790020004D0069006E007E
:1004900069000000120379006F00690063006800C2
:1004A000690072006F0000000403090400000000EE
:1004B00000003E5B4F5B3E003E6B4F6B3E001C3EC0
:1004C0007C3E1C00183C7E3C18001C577D571C00CD
:1004D0001C5E7F5E1C0000183C180000FFE7C3E7AD
:1004E000FF00001824180000FFE7DBE7FF0030489A
:1004F0003A060E00262979292600407F05050700C7
:10050000407F05253F005A3CE73C5A007F3E1C1CBB
:100510000800081C1C3E7F0014227F2214005F5F2D
:10052000005F5F0006097F017F00006689956A0011
:1005300060606060600094A2FFA2940008047E04E2
:10054000080010207E20100008082A1C0800081C43
:100550002A0808001E10101010000C1E0C1E0C00A3
:1005600030383E383000060E3E0E06000000000017
:10057000000000005F000000000700070000147F7B
:10058000147F1400242A7F2A1200231308646200B7
:10059000364956205000000807030000001C224185
:1005A00000000041221C00002A1C7F1C2A000808B1
:1005B0003E080800008070300000080808080800A5
:1005C0000000606000002010080402003E51494510
:1005D0003E0000427F4000007249494946002141E7
:1005E000494D33001814127F100027454545390046
:1005F0003C4A49493100412111090700364949491E
:100600003600464949291E00000014000000004041
:1006100034000000000814224100141414141400C3
:100620000041221408000201590906003E415D59AB
:100630004E007C1211127C007F49494936003E4130
:10064000414122007F4141413E007F4949494100EB
:100650007F09090901003E41415173007F080808E4
:100660007F0000417F4100002040413F01007F08A2
:10067000142241007F40404040007F021C027F0066
:100680007F0408107F003E4141413E007F09090977
:1006900006003E4151215E007F0919294600264986
:1006A0004949320003017F0103003F4040403F00C1
:1006B0001F2040201F003F4038403F0063140814B3
:1006C00063000304780403006159494D4300007F2F
:1006D00041414100020408102000004141417F00D7
:1006E00004020102040040404040400000030708AB
:1006F00000002054547840007F2844443800384497
:1007000044442800384444287F0038545454180086
:1007100000087E09020018A4A49C78007F08040445
:10072000780000447D4000002040403D00007F10E4
:100730002844000000417F4000007C0478047800D9
:100740007C0804047800384444443800FC1824240D
:10075000180018242418FC007C08040408004854DD
:100760005454240004043F4424003C4040207C00B6
:100770001C2040201C003C4030403C0044281028F5
:1007800044004C9090907C004464544C4400000819
:1007900036410000000077000000004136080000EC
:1007A0000201020402003C2623263C000000000057
:1007B0000000404040F0F8F8FF38FFF8F83FF8F844
:1007C000FF38FFF8F8F040404000000000000080D3
:1007D000C0C0C0800000C0C08000000080C0C00059
:1007E000C0C0000080C0C00000000000C0C0C0C089
:1007F000C000C0C0000000000000000000000000B9
:1008000000000000000000000000000000000000E8
:1008100000000000000000000000000000000000D8
:100820000000000000000000000000C0F0F8FC3EE6
:100830001E06010000007F4141417F007F41414190
:100840007F000080C0E07E5B4F5BFEC00000C00008
:10085000DCD7DEDEDED7DC00C000000000000000D8
:100860000000000000000000000000000000000088
:100870000000494949FFFFFFFFE0DFBFBF00BFBFE6
:10088000DFE0FFFFFFFF49494900000000001F3F74
:100890006060E0BF1F007F7F071E381E077F7F005C
:1008A0007F7F0E1F3B716000000000007F7F0C0CFB
:1008B0000C007E7E007F7E0303007F7E03037E7E2E
:1008C00003037F7E000F3E703C063C703E0F0032FB
:1008D0007B49493F7E007F7E0303001E3F69696FAD
:1008E0002600000000000000000000030F1F3F3C36
:1008F0007870600000007F4141417F007F414141AD
:100900007F00307B7F7830202030787F3B000300F1
:100910000F7F0F0F0F7F0F0003000000000000008B
:1009200000000000000000000000000000000000C7
:100930000000010101070F0F7F0F7F0F0F7E0F0FC8
:100940007F0F7F0F0F070101010000000000000072
:100950000000000101000000000000000000000095
:100960000000000000000000000000000000000087
:100970000000000000000000000000000000000077
:100980000000000000000000000000000000000067
:100990000000000000000000000000000000000057
:1009A0000000000000000000000000000000000047
:1009B0000000000000000000000000000000000037
:1009C0000000000000000000000000000000000027
:1009D0000000000000000000000000000000000017
:1009E0000000000000000000000000002223252677
:1009F00028292A2C2D2F3032333536383A3B3D3ECC
:100A00004042434547494A4C4E5051535557595A15
:100A10005C5E6062646668696B6D6F71737577792F
:100A20007B7D7F81838587898A8C8E90929496982E
:100A30009A9C9E9FA1A3A5A7A8AAACAEAFB1B3B440
:100A4000B6B8B9BBBCBEBFC1C2C3C5C6C7C9CACB95
:100A5000CCCDCED0D1D2D2D3D4D5D6D7D7D8D9D960
:100A6000DADADBDBDBDCDCDCDCDCDDDDDDDDDCDCC9
:100A7000DCDCDCDBDBDBDADAD9D9D8D7D7D6D5D4E6
:100A8000D3D2D2D1D0CECDCCCBCAC9C7C6C5C3C2B2
:100A9000C1BFBEBCBBB9B8B6B4B3B1AFAEACAAA807
:100AA000A7A5A3A19F9E9C9A98969492908E8C8ABB
:100AB00089878583817F7D7B79777573716F6D6B96
:100AC0006968666462605E5C5A5957555351504E6E
:100AD0004C4A4947454342403E3D3B3A3836353320
:100AE00032302F2D2C2A2928262523222B001400D2
:100AF0001A00080015001700E000040016000700A7
:100B000009000A00E1001D001B0006001900050095
:100B100000000000E300E20001512C002A00130055
:100B200012000C0018001C00340033000F000E00EF
:100B30000D000B00E50038003700360010001100F2
:100B400000000000E700E6000251280029001E0016
:100B50001F00200021002200E00001000100010030
:100B600001000100E100010001000100010001009D
:100B700000000000E300E20001512C002A002700E1
:100B80002600250024002300010001004F00520030
:100B900051005000010001000100010001000100AE
:100BA00000000000E700E6000251280029001E02B4
:100BB0001F02200221022202E000010001000100C8
:100BC00001000100E1003502010001000100010007
:100BD00000000000E300E20001512C002A0027027F
:100BE00026022502240223023500310230022F02A0
:100BF0002E002D003502310030002F002E022D0274
:100C000000000000E700E60002512800005C01003F
:100C10000100010001000100C35CC65CC85CCA5C45
:100C200001000100C45CC75CC95CCB5C0100010031
:100C300000000000E300E20001512C003F003E00F4
:100C40003D003C003B003A004500440043004200A8
:100C5000410040000100010001000100010001000D
:100C600000000000E700E6000251280000AF112458
:100C70001FBECFEFDAE0DEBFCDBF04B603FE27C054
:100C800080912B0590912C05A0912D05B0912E05FA
:100C90008730904BA740B04BD1F410922B051092A7
:100CA0002C0510922D0510922E0514BE84B7877F57
:100CB00084BF0FB6F894A8958091600088618093F6
:100CC0006000109260000FBEE0E0F8E3099525E0B7
:100CD000ACEBB1E001C01D92AB32B207E1F711E01D
:100CE000A0E0B1E0EAE5F1E602C005900D92AC3B70
:100CF000B107D9F70E9480060C94AB300C94000029
:100D0000CF93DF93CDB7DEB7AE970FB6F894DEBFC3
:100D10000FBECDBF84B7877F84BF0FB6F894A89568
:100D200080916000886180936000109260000FBE27
:100D300090E080E80FB6F894809361009093610092
:100D40000FBE85B7806885BF85B7806885BF0E9464
:100D50008F1D0E94AE1D8091E20084608093E200AE
:100D60007894809144028823A1F01091E9001F70CB
:100D70009091EC00892F817090FD80E8182B1092E3
:100D8000E9008091E80083FD0E946D1A1F701093A6
:100D9000E90082E084BD93E095BD9AEF97BD809312
:100DA0006E000E94341680931901809119018823E6
:100DB00021F01092040186E003C086E080930401D4
:100DC000809305010E943416882331F062E070E0C0
:100DD00089E091E00E94BE2D809119018091190156
:100DE000882311F090E001C094E09093D30184E057
:100DF000891B8093D20184E90E94511687E90E94E1
:100E0000511686EC0E94511684E30E94511602E4AA
:100E100011E038E4E32E31E0F32ED8018D918D01FD
:100E20000E945116E016F106C1F7EAECF1E0A8E1E4
:100E3000B2E011921D9221E0E23DF207D1F70E944B
:100E40004E188FE39CE90197F1F700C000000E9463
:100E50004E188091180280FF0AC080E00E949A29F3
:100E60006FEF7FEF80E090E00E94BA2F7DC580E0B9
:100E700090E00E94962F8C3E9E4F11F00E94BA2067
:100E80000E943416811106C062E070E089E091E0B2
:100E90000E94C72D82E290E00E94882F803281F468
:100EA00083E290E00E94882F823151F484E290E046
:100EB0000E94882F91E0853009F090E0892F01C0D1
:100EC00080E080FF78C51092060280E88093490296
:100ED0000E94792C6DE070E085E591E00E94441A53
:100EE000892B09F043C08091060263E070E081FD28
:100EF0003AC082E591E00E94441A892BB9F56DE071
:100F000070E082E491E00E94441A892B79F50E94F6
:100F10004120DC01CB01805A9541AF4FBF4F8093F8
:100F2000080290930902A0930A02B0930B02ECE42A
:100F3000F2E080E092E0DF019C011D922150304000
:100F4000E1F7F0935304E09352048FEF9FEF9093F7
:100F50004B0280934A0281E080930D0280930C0241
:100F60001092070203C08FE491E0C5CF80E090E0CB
:100F70000E94962F8C3E9E4F11F00E94BA2082E074
:100F800090E00E94882F80930F020E94A9209093E6
:100F9000D5018093D40183E090E00E94882F682FD0
:100FA00070E080E090E00E947A228091D601811169
:100FB0003BC080E090E00E94962F8C3E9E4F21F037
:100FC0000E94BA200E94891488E090E00E94902F2D
:100FD000609328027093290280932A0290932B0237
:100FE0008091E50183608093E5016E7F71F40E943A
:100FF000891488E090E00E94902F609328027093FB
:10100000290280932A0290932B020E9442140E948C
:10101000D0298091280280FF04C060E086950E945C
:10102000FB1781E08093D60181E291E09093D80193
:101030008093D701FE0131967F019E01255F3F4FCE
:101040003CA72BA722242394312C80914402853085
:1010500009F04BC080914402843009F434C01092EE
:10106000D90120E488E190E00FB6F894A895809328
:1010700060000FBE209360000E94D02980912E0254
:1010800081110AC081E080932E0280912802817034
:1010900080932D020E94E41783B7817F846083BF11
:1010A00083B7816083BF7894889583B78E7F83BF31
:1010B0000FB6F894A89580916000886180936000D5
:1010C000109260000FBE80913A02882309F4BDCFD0
:1010D0000E944E1880E292E0E8E1F2E021912111B5
:1010E0004BC48E179F07D1F7B0CF0E944E18B82E71
:1010F0000E9434168823A1F1E0E1F2E0A8E1B2E019
:1011000000E010E0302F2D919191922721F180E0A5
:10111000DD24D3944D2D4923D1F089A33AA32D2169
:1011200081E009F480E08BA30E944D208160782F3C
:101130009DA38CA349A15AA16BA18DA10E94FD275B
:10114000F801E05FFD4F8081D826D08219C08F5F03
:10115000DD0C8630F9F60F5F1F4F0830110591F650
:101160008FEF8EA38FA318A60E944D208160782F49
:101170009AA789A74EA15FA168A58AA50E94FD270D
:101180008091E401882309F4C6C08091E301E091D5
:101190002802E695E81BE093DF01823049F4F0E095
:1011A000ED58FE4FE4918E2E912C09EE17E25EC0B1
:1011B000863049F4F0E0E059FE4FE4918E2E912CF8
:1011C00009ED17E253C0893051F4E695F0E0E35998
:1011D000FE4FE4918E2E912C0EE517E247C08F3022
:1011E00051F4E695F0E0E659FE4FE4918E2E912CF5
:1011F00001EC16E23BC0853149F4F0E0E959FE4FBD
:10120000E4918E2E912C0BE316E230C08831D9F098
:10121000833239F4E5E6F1E08590949009E917E22C
:1012200025C08432B1F08532D9F48E2F63E00E945C
:101230003330E92FF0E0EE59FE4FE4918E2E912CE1
:101240000AEA14E213C098E2892E912C08EA15E20A
:101250000DC084EF882E9924939409E615E206C008
:1012600000ED802E07E0902E09EA14E28091E00163
:10127000882389F01092E0010E944D20940120956E
:101280003095820F931F9093DE018093DD011092C1
:10129000E2011092E1018091DD019091DE010E9456
:1012A000322088159905B8F18091DC018823B1F0CE
:1012B0001092DC018091DA019091DB010E943220D2
:1012C0008033954758F00E944D209093DB01809326
:1012D000DA018091E50188608093E501C090E10129
:1012E000D090E201E091DD01F091DE018E0E9F1EB3
:1012F0009092DE018092DD018DED91E0F80109957B
:101300008091E1019091E201892B29F4CD2819F017
:1013100081E08093DC0180910D02882309F46EC185
:101320002CE432E030935304209352040E9434168C
:10133000882309F45DC08091450290914602A091F6
:101340004702B0914802AD01662777274115510544
:101350006105710521F4AC01BD0180E001C080E1AF
:10136000052F162F272F33270115110521053105CC
:1013700019F0885FB901A8018A019B01A4E03695A4
:10138000279517950795AA95D1F701151105210500
:10139000310519F08C5FB901A8018A019B01F2E0C7
:1013A0003695279517950795FA95D1F701151105EB
:1013B0002105310519F08E5FB901A8017695679571
:1013C00057954795452B462B472B09F08F5F81306A
:1013D00049F028F0823049F485E991E00BC082EAB7
:1013E00091E008C088E891E005C087E791E002C07D
:1013F00081EB91E00E94161A20914A0230914B0233
:101400002115310509F4D7C0809107028111D3C09D
:10141000482E512C6101082E02C0CC0CDD1C0A9410
:10142000E2F7A9014C215D21452B11F48F5FF0CF2C
:1014300090910602920175E0220F331F7A95E1F731
:1014400090FD12C08295880F807680931C01220F38
:10145000232F221F330B319520931F01815E809330
:101460001D011092200112C055E0369527955A951E
:10147000E1F7220F220F220F20931C0110921F016F
:10148000295F20931D0183E08093200124E630E052
:1014900047E050E06AE171E088E70E94062D892B61
:1014A00009F089C08091060280FD23C0C20145E099
:1014B000880F991F4A95E1F7AC01445B5D4F04E644
:1014C00010E020E230E060E488E70E942D2D892BB7
:1014D00009F071C00E94D128C094D09480914A0232
:1014E00090914B02C822D922D0924B02C0924A025C
:1014F00062C080E2A6EEB1E01D928A95E9F735E080
:10150000440C551C3A95E1F7ECE4F1E0FEA7EDA799
:1015100068E471E0ADA5BEA58D91BEA7ADA7FB01A6
:101520009191BF01A201490F511D445B5D4F90E0B5
:101530008A519E4FFC0127E0922E9F01281B390BF8
:10154000722C01C0770C2A95EAF78A01812CD80108
:10155000AD908D01A720292D28192770622E022E0B
:10156000000C330BBA2D01C0BB0F6A94EAF76B2E47
:101570003195219531092770332701C0A6942A950A
:10158000EAF76A28A0806A286082839428E08212A1
:10159000DECF9A9431963FEF9312CFCF8DA59EA5C3
:1015A0008055914009F0B6CF04E610E020E230E02B
:1015B00046EE51E088CF80910C028823F9F00E941A
:1015C0004120009108021091090220910A023091F5
:1015D0000B02DC01CB01801B910BA20BB30B8F3FE5
:1015E0009F4FAF4FBF4750F462E070E08EEB91E049
:1015F0000E94441A892B11F410920C02B1100E941F
:10160000D1280E94C52890910E02891721F00E94CE
:10161000C52880930E0280914402843009F015CDD4
:1016200083E08093E9008091E80082FF0ECD8091F5
:10163000E80085FF22C00E94F91E81111CC000E253
:1016400010E09E012F5F3F4F690108C08091F100BB
:10165000D6018D936D010150110969F08091E80068
:1016600085FDF4CF8091E8008B778093E8000E949D
:10167000F91E882399F391E001C090E08091E80081
:101680008B778093E800992309F4DFCCE9818E2FD2
:1016900090E0FC013197E331F10508F067C1EA5AA7
:1016A000FF4F0C9475301A8289E0A2C08A81823083
:1016B00009F478C1833051F0813009F057C10E949C
:1016C00041209B838C837D836E8352C1FE013396C0
:1016D000A8E1B2E08D9181932BA53CA5E217F30719
:1016E000C9F746C18A81823009F040C16B817C8193
:1016F0008D819E810E947B3085E290E024C04C81E8
:101700006B818A810E9467299D8353C1CD80DE80D1
:10171000DC24CD24DC248C810B819A813CE0039F66
:1017200080011124A0E69A9F000D111D1124080FBD
:10173000111D080F111D6D2DC80186960E949C2F4A
:101740006C2DC80187960E949C2F12C10E943329DC
:101750000FC18A818138B1F050F4803809F008C196
:1017600020E04B8160912A028091290223C08238B7
:10177000E9F0833809F0FCC020E040912B026C8135
:101780008B8118C060E08B810E94FB178B818111D7
:1017900003C00E94E417ECC080912802816080930E
:1017A000280260E086950E94FB17E2C08B8180933F
:1017B0002C02DEC00E945015DBC08A81813899F06E
:1017C00030F4803809F0D4C080912B0211C08238E7
:1017D00099F0833809F0CCC0809129028B838091E5
:1017E0002A028C83C5C08091280280FF03C08695A1
:1017F0008B83BEC080E0FCCF80912C02F9CF60913A
:1018000028027091290280912A0290912B020E9455
:101810005514AEC080E14DC082E08A838AE5E8CFEE
:101820000A811B81102701271027AC80B12C67018A
:10183000C8018A559E4F96012E193F092A153B056E
:1018400008F096C00A35B2E01B0728F40E94882FE2
:10185000F601848303C0D60114961C920F5F1F4FBC
:10186000BFEFCB1ADB0AE4CF0A811B8110270127C7
:101870001027AC80B12C6701C8018A559E4F960194
:101880002E193F092A153B0508F072C00A35E2E01F
:101890001E0728F4D60114966C910E949C2F0F5FAE
:1018A0001F4FBFEFCB1ADB0AE7CF0E94232960C08E
:1018B00084E08A835DC00A811B81102701271027DD
:1018C000AC80B12C6701C801869696012E193F099C
:1018D0002A153B0508F04CC00038E1E01E0730F443
:1018E0000E94882FD60114968C9302C0F6011482B0
:1018F0000F5F1F4FFFEFCF1ADF0AE5CF0A811B8171
:10190000102701271027AC80B12C6701C8018696EB
:1019100096012E193F092A153B0550F5003821E0A4
:10192000120728F4D60114966C910E949C2F0F5F29
:101930001F4FBFEFCB1ADB0AE9CF80E00E949A2944
:101940006FEF7FEF80E090E00E94BA2F11C0CE01D0
:1019500001960E94581FEFEFF1EE24E0E150F040B5
:101960002040E1F700C000000E94E81F8FEF89834C
:10197000C7010E94581F69CB80E189BD82E189BD02
:1019800009B400FEFDCF8091D8008F7D8093D800F0
:101990008091E00082608093E0008091E00081FD12
:1019A000FCCF53CB85E290E00E94882F1B821C82E3
:1019B0001D828E83DDCF60E085E290E00E949C2F47
:1019C0000E9433290E94232981E00E949A297BCA20
:1019D0005F926F927F928F929F92AF92BF92CF92BF
:1019E000DF92EF92FF920F931F93CF93DF93CDB7C8
:1019F000DEB729970FB6F894DEBF0FBECDBFFC014E
:101A00008081918123813481232B31F09F3F31F4F8
:101A100091E08F3F19F403C091E001C090E090FD88
:101A200036C67F0185E0DE01119601900D928A9500
:101A3000E1F7F701228189819A81222349F00E94EE
:101A40005721182F682F89819A810E94D12103C0C4
:101A50000E94A421182F69817A81812F0E948D29EB
:101A60008C01F7019281992309F4DFC0980122517A
:101A70003F452031310508F004C18FEF93E00E940B
:101A8000882F8111DCC0025136EA832E9924939469
:101A9000002379F08114F4E09F0609F4D0C0C4015A
:101AA0000E94882F811101C001501FEF811A910AF5
:101AB000EFCF1E821F8218861986662463942AE05F
:101AC000522E84010F5F1F4FC4010E94882F8E8306
:101AD0001F82882309F4B3C09FEF980F933060F4FE
:101AE0008F836E8222E0820E911CC8010E94882F93
:101AF0008887811102C0A3C048018E010A5F1F4F71
:101B0000F80120812223E9F2213009F04CC08181C3
:101B1000813049F46801F2E0CF0ED11CF8018281D6
:101B20000E94B42B0AC0823051F46801F2E0CF0E5B
:101B3000D11CF80182810E94182B860173C083306A
:101B400049F46801F2E0CF0ED11CF80182810E94B5
:101B5000BC2AF3CF843019F00F5F1F4F63C0F80128
:101B600022810E5F1F4F80E090E030E0205331096A
:101B70002A30310568F4589EA001599E500D112459
:101B8000C901840F951F0F5F1F4FF8012081EDCF12
:101B9000009709F447C0EFE9FFE03197F1F700C083
:101BA00000000197F5CFE22FF0E0E052FE4F749075
:101BB000822F86958695869590E0FC01E053FE4F36
:101BC000A4902770B12C022E02C0B594A7940A9459
:101BD000E2F7F1E0AF22BB24FC01E054FE4FC490D9
:101BE000D12C02C0D594C7942A95E2F721E0C222F5
:101BF000DD24A114B10419F081EE0E94182BC11448
:101C0000D10419F086EE0E94182B872D0E94B42B68
:101C1000CD2819F086EE0E94BC2AAB2819F081EE7F
:101C20000E94BC2A0F5F1F4F6BCF00313FE51307A7
:101C300009F0A3C481E00E941B220E94261A809111
:101C4000B204877009F423C5F7018281882309F45F
:101C50001EC582E029960FB6F894DEBF0FBECDBF39
:101C6000DF91CF911F910F91FF90EF90DF90CF9078
:101C7000BF90AF909F908F907F906F905F900C94EB
:101C800040220031FFE51F0711F481E005C001315A
:101C90002FE5120721F482E00E945922CECF043FA3
:101CA000FCE51F0749F406E221EE40EE64EF7CE517
:101CB000C7010E94D729C3CF053F2CE5120708F0C2
:101CC0004AC1093D3CE5130731F407E225EE45EE34
:101CD00069ED7CE5EDCF0A3D8CE5180731F408E2AB
:101CE00021E045EE6AED7CE5E3CF083DECE51E071B
:101CF00031F406E221EE41EE68ED7CE5D9CF99237F
:101D000009F45EC11092200202303CE5130708F48A
:101D100041C106318CE5180738F098012B5F3C452E
:101D20002930310508F036C10E94A9209093D501D1
:101D30008093D40100319CE5190709F4C3C008F071
:101D400041C00830FCE51F0709F49AC0F0F40430E4
:101D50003CE5130709F487C068F402309CE51907D5
:101D600009F477C003301C4509F0E5C08091D40127
:101D7000826076C00630FCE51F0709F46EC008F0EB
:101D80007BC08091D40188606BC00C303CE51307A8
:101D900009F485C068F40A309CE5190709F474C099
:101DA00008F079C00E949C2A8091D401806858C0B4
:101DB0000E30FCE51F0709F476C008F07FC0809163
:101DC000D4018BC00C3F3CE5130709F44FC018F554
:101DD00003319CE5190709F47DC078F40131FCE575
:101DE0001F0709F473C002311C4509F0A4C00E940A
:101DF0009C2A8091D4018F7733C005313CE51307CD
:101E000009F472C008F486C00B3F1C4509F093C06A
:101E10008091D5013EC00115EDE51E0709F45FC0B4
:101E200058F40E3F2CE5120709F444C008F43FC0F3
:101E30008091D50182602DC002308DE5180709F42C
:101E400075C008F45DC003301D4509F074C060E042
:101E50006EC08091D401816003C08091D401806103
:101E60008093D40168C08091D40111C08091D501C4
:101E700082608093D5015FC08091D4018062F0CFF1
:101E80008091D4018064ECCF8091D401886084601B
:101E9000E7CF8160EECF8091D4018E7FE1CF80913A
:101EA000D4018D7FDDCF8091D401877FD9CF809100
:101EB000D50118C08091D5018D7FDBCF8091D401F1
:101EC0008F7ECECF8091D4018F7DCACF8091D401F7
:101ED0008F7BC6CF8091D401877F8B7FC1CF8091CC
:101EE000D5018D7F8E7FC5CF8091D40182FB2227C3
:101EF00020F991E0922790FB82F990FB83F9B0CF13
:101F00008091D501982F909591708E7F892B90FBB1
:101F100081F9AFCF0E949C2A8091D40187FB2227B0
:101F200020F991E0922790FB87F99ACF61E08EE04B
:101F300090E00E949C2F6091D4011091D50184E023
:101F400090E00E949C2F612F81E290E00E949C2FE4
:101F50000E949C2A74CE063FFCE51F0731F406E27E
:101F600021EE42EE66EF7CE5A3CE063F2CE512079C
:101F700030F407E225EE44EE65EF7CE599CE073FAD
:101F80003CE5130709F0BBCE07E225EE46EE67EF0E
:101F90007CE58ECE06318CE5180719F58091B504E5
:101FA0008A7A91E009F490E090932102882311F05D
:101FB00065E301C069E284E594E00E948F200EC0D1
:101FC0000631ECE51E0721F580912102882309F4F2
:101FD000DBC265E384E594E00E9482200E942A210E
:101FE0002ECE01152CE5120731F00F3D1C45D1F422
:101FF0000E94BA2024CE0E949C2A8FEF94E3ECE04A
:1020000081509040E040E1F700C000000E94E81FCE
:102010008091B5048272F801E35CFC45E431F1057E
:1020200008F4B4C2F70100811181992349F0C80175
:102030000E945721D82E682FC8010E94D12104C0C8
:10204000C8010E94A421D82EB8018D2D0E946816C7
:102050008C01982EF701A580A2949FE0A922D2803E
:10206000D1101092B4048091B204877099F0DD20F1
:1020700089F0812F807F803421F080E2800F8830CA
:1020800048F082E00E9440228091B2048770CC2404
:10209000C3948111C12CB12EB2948FE0B8228B2D44
:1020A00090E08C30910508F035C2FC01E759FF4FF4
:1020B0000C947530812F807F1F70882311F012954A
:1020C000107FDD20B9F0112309F40FC280E2800FE8
:1020D000883010F0911006C08091B504182B109331
:1020E000B50405C08091B404182B1093B4040E9469
:1020F0002A21FBC1802F0E94BC2A112309F40AC2A5
:10210000005E1095083010F0911006C08091B50463
:1021100018231093B50405C08091B40418231093BC
:10212000B4040E942A21F6C1812F807F1F70803263
:1021300011F01295107F992021F0F1E09F16E1F047
:102140002AC0DD2081F08091B604AA2051F001E080
:10215000A01207C0182B181709F4DCC11093B6049D
:10216000D9C1812B10C0AA2021F021E0A21609F4C8
:10217000D1C10E94242127C0DD2041F035E03A156D
:1021800008F4C8C1812F0E94B22AC4C184E08A1514
:1021900008F4C0C118C0DD2049F0AA2099F3F70166
:1021A000858180FFA2C18F708583ECCFAA2059F072
:1021B000093309F0ACC1FFEF17EE23E0F1501040F6
:1021C0002040E1F7A2C1812F0E94A72AA3C1812F3D
:1021D00086958695837019F0813059F09BC1DD207A
:1021E00019F0C801937002C080E090E00E94AF280F
:1021F00097C1DD2019F0C801937002C080E090E023
:102200000E9499288DC1812F837009F069C0D11077
:1022100085C1902F929596959770990F990F802F61
:102220008F70882E912CA12CB12C092E04C0880C03
:10223000991CAA1CBB1C0A94D2F704FF12C04FE0E1
:1022400050E060E070E004C0440F551F661F771F28
:102250009A95D2F7DB01CA0180959095A095B0952B
:1022600003C080E090E0DC0116951695412F437085
:10227000423019F1C8F40091B7041091B8042091CC
:10228000B9043091BA04413059F088299929AA2912
:10229000BB29BC01CD0160237123822393230AC093
:1022A000802A912AA22AB32ABC01CD016829792962
:1022B0008A299B290E947A2231C188299929AA2931
:1022C000BB290091B7041091B8042091B904309152
:1022D000BA04BC01CD016027712782279327EACF7A
:1022E000DD2019F0812F817001C08695882309F4C3
:1022F00015C1902F929596959770990F990F802FF1
:102300008F70882E912CA12CB12C092E04C0880C22
:10231000991CAA1CBB1C0A94D2F704FF12C04FE000
:1023200050E060E070E004C0440F551F661F771F47
:102330009A95D2F7DB01CA0180959095A095B0954A
:1023400003C080E090E0DC0116951695412F4370A4
:102350004230D9F068F50091450210914602209173
:10236000470230914802413059F088299929AA2919
:10237000BB29BC01CD0160237123822393231EC09E
:10238000802A912AA22AB32A13C088299929AA2926
:10239000BB290091450210914602209147023091DD
:1023A0004802BC01CD01602771278227932706C010
:1023B000BC01CD01682979298A299B290E94FD2128
:1023C000ADC01F70DD2039F0812F0E945922802F6F
:1023D0000E94B22AA3C0802F0E94A72A812F0E94A8
:1023E0001B229CC0802F32EF931609F440C0391590
:1023F00038F090EF991661F0E1EF9E1699F170C0F8
:10240000F3EF9F16D9F124EF921609F44EC068C07D
:10241000DD2019F134E03A1508F47CC01F7181E029
:1024200090E0A0E0B0E0AC01BD0104C0440F551F36
:10243000661F771F1A95D2F7809145029091460248
:10244000A0914702B09148028A019B0108271927F1
:102450002A273B27C901B80125C025E02A1508F421
:1024600059C0DCCFDD2029F0812F8F712CC0DD20F9
:10247000D9F3812F8F710E941B224CC0DD2079F08F
:102480001F7181E090E0A0E0B0E0BC01CD0104C08C
:10249000660F771F881F991F1A95D2F703C060E057
:1024A00070E0CB010E94FD2135C0DD2079F01F7165
:1024B000812F0E94592238E0139FC00111248360AC
:1024C0008093B204812F0E94592224C081E00E948F
:1024D000402281E08A15F0F482E00E9440221AC076
:1024E000DD2039F0AA2009F4BFCF802F0E94182BDD
:1024F00011C0AA2009F4BDCF893349F49FEFE7EE5C
:10250000F3E09150E040F040E1F700C00000802F80
:102510000E94BC2A88EF8B0D843010F40E94C528DD
:10252000CC2009F4B4C08091B20480FDB0C0F701A2
:1025300012828595859585950E945922C7010E9432
:10254000E80C8091B20485958595859529960FB6FE
:10255000F894DEBF0FBECDBFDF91CF911F910F91D9
:10256000FF90EF90DF90CF90BF90AF909F908F90B3
:102570007F906F905F900C941B2201318FE51807BC
:1025800009F08DCB82E057CB69E224CDEB58FF4FA9
:102590000C9475308091280280FF20C08E7F80933C
:1025A0002802609128027091290280912A0290915C
:1025B0002B020E9455140E94D0298091E501816070
:1025C0008093E501FFEF00E712E0F150004010407A
:1025D000E1F700C000000E94A01331CB816080931E
:1025E000280261E0869550C04BE358E164E478E14D
:1025F0002CC044E458E16BE378E127C042E256E1A5
:102600006BE276E122C04BE256E162E276E11DC068
:102610004AE056E166E176E118C046E156E16AE03B
:1026200076E113C042EF55E16EEF75E10EC04EEF5B
:1026300055E162EF75E109C047E654E168E774E1EE
:1026400004C048E754E167E674E10E94CA29F7CA6A
:1026500061E081E019C065E082E011C068E086E0D9
:102660000EC06EE089E00BC064E18FE008C067E156
:1026700085E105C061E088E107C062E289E10E946E
:10268000B829DDCA61E083E20E94FB17D8CA299607
:102690000FB6F894DEBF0FBECDBFDF91CF911F9173
:1026A0000F91FF90EF90DF90CF90BF90AF909F90F1
:1026B0008F907F906F905F9008959091D40192FFDA
:1026C0000DC0282F2871283019F4877F846006C038
:1026D000282F2471243011F48B7F886093FF0DC064
:1026E000282F2871283119F4877E846106C0282F8D
:1026F0002471243111F48B7E88612091D50120FF53
:102700000DC0382F3871383019F4877F816006C0CA
:10271000382F3171313011F48E7F886021FF0DC068
:10272000282F2871283119F4877E816106C0282F4F
:102730002171213111F48E7E886194FD877E089588
:10274000CF92DF92EF920F931F93CF93DF93CDB78A
:10275000DEB7A4970FB6F894DEBF0FBECDBF609171
:1027600005018091280280FF0AC0E5E6F3E0AE0192
:102770004F5F5F4F8E010B5D1F4FCA0114C08091E8
:10278000060190910701891780F7E82FF0E09F017B
:10279000220F331FE20FF31FEE53FB4F1182108203
:1027A00012828F5FF0CF249130E0D901AA0FBB1FB6
:1027B0002A0F3B1FD901AE53BB4FCD90DD90EC905B
:1027C000DA01CD92DD92ED92AD013196A017B107FD
:1027D00051F720910401FC01B3E02B9FE00DF11DA6
:1027E0001124539A8BB1877F9BB198602FB7F894CF
:1027F000AF0133E0639F400D511D1124E417F5072D
:1028000089F0319168E09BB9000000C037FF8BB9B7
:10281000330F000000C000C000C08BB900C06A9533
:1028200091F7ECCF2FBF8FE594E00197F1F700C04F
:102830000000A4960FB6F894DEBF0FBECDBFDF91A7
:10284000CF911F910F91EF90DF90CF9008959091CD
:10285000280290FF16C0909106012091070192175F
:1028600070F4E92FF0E0DF01AA0FBB1FEA0FFB1F96
:10287000EE53FB4F8183608342839F5FF0CF0C94C4
:10288000A013089580912802282F269530E0211565
:10289000310519F48170826005C02B32310524F0B6
:1028A00081708465809328020895CF92DF92EF9221
:1028B000FF926B017C010E944214B701A60188E0DF
:1028C00090E0FF90EF90DF90CF900C94AE2F80912E
:1028D0002C02882319F0815080932C0260912802E9
:1028E0007091290280912A0290912B020C94551428
:1028F00080912C02833018F48F5F80932C026091BA
:1029000028027091290280912A0290912B020C9446
:102910005514E8E2F2E083E0808311828FEF828336
:1029200083831482A3EEB1E012968C911297836098
:1029300012968C9360817181828193810C945514DD
:10294000AF92BF92CF92DF92EF92FF920F931F93BD
:10295000CF93DF93E82EF62EE901E42FF0E061112A
:1029600006C0E05AFD4FE4914E2F2E2F71C0062F66
:1029700010E0E05AFD4F4491F42FC42ED12C26E0F4
:10298000829FC00111242FEF30E0B9010E944D3029
:102990005BEA5603C001579F900D11248E0D911DC7
:1029A0008E0D911D582F550F580FD901A01BB10B3B
:1029B000AC9DC001AD9D900DBC9D900D1124E92FE3
:1029C000F59ED0011124AB2FBB277901EA1AFB0A2F
:1029D000EC9CD001ED9CB00DFC9CB00D1124590174
:1029E000A51AB108A09E7001A19EF00CB09EF00C3B
:1029F0001124EF2CFF242E193F092C9D80012D9DC1
:102A0000100D3C9D100D1124212F6230710591F0A5
:102A100048F461157105E1F061307105B9F4242FB6
:102A20004B2F16C06430710569F040F066307105B7
:102A300079F00CC0242F492FE12F0AC0492FEF2F26
:102A40002B2F06C0292FE42F412F02C0292FEB2F57
:102A500049832883EA83DF91CF911F910F91FF90E3
:102A6000EF90DF90CF90BF90AF900895CF93DF931A
:102A700000D01F92CDB7DEB79091280290FF0AC018
:102A80009E012F5F3F4F0E94A0144B8169818A8174
:102A90000E9427140F900F900F90DF91CF9108950F
:102AA000AF92BF92CF92DF92EF92FF920F931F935C
:102AB000CF93DF9300D01F92CDB7DEB7182FF62E3D
:102AC000042FE22E9091280290FF7EC0E92FE69518
:102AD000AE2FB0E0A05BBE4F8C918093E3019E7F50
:102AE000923061F49E012F5F3F4F812F0E94A0140E
:102AF0004B8169818A810E94271443C0823019F476
:102B000000912B023EC0863019F41091290239C081
:102B10008930D9F38931A9F5E9518E2F8170D82EEA
:102B2000E695F0E0E05AFC4FA590B490C12CBB2490
:102B300060910801C61618F52C2D30E0A29EC00148
:102B4000A39E900DB29E900D112470E00E944D3016
:102B5000812FD11002C0860F01C0861B9091060103
:102B6000290F311DA901440F551F240F351F2E5366
:102B70003B4F402F6F2D0E94A014C394D9CF0E94C9
:102B8000A01380912902181308C080912A02F8121C
:102B900004C080912B02081729F08091E501826022
:102BA0008093E50110932902F0922A0200932B02F0
:102BB000EE2051F0609128027091290280912A0242
:102BC00090912B020E9455140F900F900F90DF915F
:102BD000CF911F910F91FF90EF90DF90CF90BF901A
:102BE000AF900895E8E2F2E0438128E0421B08F448
:102BF00040E021E0628181810C945015E8E2F2E02E
:102C0000438128E0420F08F44FEF21E06281818187
:102C10000C945015E8E2F2E0628128E0621B08F4AF
:102C200060E021E0438181810C945015E8E2F2E0FC
:102C3000628128E0620F08F46FEF21E04381818117
:102C40000C945015E8E2F2E0818121E04381628139
:102C500088500C945015E8E2F2E0818121E0438134
:102C60006281885F0C94501580912602811112C0F8
:102C70008091D80080618093D8008AE18A95F1F72D
:102C800000C08091D90080FD02C082E001C081E0D7
:102C90008093260281E090912602913009F080E035
:102CA0000895F894E82FE295EF70F0E031A1282F15
:102CB0002F7081E090E001C0880F2A95EAF7982FE5
:102CC0009095932391A392A1892B82A37894089540
:102CD000CF93DF930E948D29EC018238910559F141
:102CE000A0F48133910509F473C040F48932910551
:102CF00009F467C08A9709F472C084C085339105CE
:102D000009F458C0C997B9F07DC0833E910571F1AF
:102D100038F4803E9105B1F0823E910511F172C008
:102D2000863E9105B9F1873E9105C9F1843E910532
:102D300009F068C024C08091D40180FD5DC081FD90
:102D40005BC060C08091D40180FD50C08091D501EE
:102D500080FF36C18091D40184FD30C1C3EED0E044
:102D60002FC18091D40182FF2BC1F4CF8091D40177
:102D700082FD3FC08091D50180FD3EC0EBCF8091A8
:102D8000D50181FF1DC18091D40184FD17C1C7EE1B
:102D9000D0E016C18091D40183FF12C1F4CF80919D
:102DA000D40183FD2CC08091D50181FFECCFC4EE0E
:102DB000D0E006C18091D40185FF02C1C9E2D0E014
:102DC000FFC08091D40185FFFBC0C5E3D0E0F8C00F
:102DD0008091D40186FFF4C0CAE2D0E0F1C08091B6
:102DE000D40186FFEDC0C1E3D0E0EAC0C9E3D0E082
:102DF000E7C0C2EED0E0E4C0C0EED0E0E1C0C6EE75
:102E0000D0E0DEC0C11582E5D80708F066C0C11564
:102E100091E5D90728F0DC2FCC27C16FD06AD0C04C
:102E2000C83ED10560F5C03ED10508F0C9C0C83A1A
:102E3000D105B0F4C53AD10540F0C55AD0E0C65727
:102E4000DE4FC881D0E0D064BBC0C130D10509F4E9
:102E5000B7C008F4B3C0C430D10508F4AFC0B0C0E7
:102E6000CF3BD10508F0AAC0C85AD0E0CC0FDD1F77
:102E7000C357DE4F0990D881C02DD464A1C0C115BD
:102E800020E5D207E0F0CE0174E0969587957A951B
:102E9000E1F783709C2F937021E030E002C0220F95
:102EA000331F9A95E2F73C68382BCF70C695C695CC
:102EB00080E2C89FE0011124C22BD32B81C0C11531
:102EC00080E4D80718F0DF70D06A7AC0CE019A95F6
:102ED00081159F4108F474C071C0C11586E5D807FB
:102EE000F0F5C11595E5D90750F08C2F0E945D13C0
:102EF0008F71C82FD0E0DC2FCC27D06261C0C11504
:102F000024E5D20728F0DC2FCC27C46FD06A58C044
:102F10009E01237033278C2F86958695C115D34546
:102F200078F4C1E0D0E002C0CC0FDD1F2A95E2F7B3
:102F300020E2829FC0011124C82BD92BDC6840C03D
:102F4000C1E0D0E002C0CC0FDD1F2A95E2F720E2FD
:102F5000829FC0011124C82BD92BDA6831C0C1155A
:102F60002AE5D207E8F4C11589E5D80780F08C2F4F
:102F70008F700E945D1394E0D695C7959A95E1F7FE
:102F8000CF70D0E0DC2FCC27D069C82B19C0C11579
:102F900098E5D90798F0DC2FCC27C06FD06A10C015
:102FA000CE0190568115904248F48D2F8F710E946A
:102FB0005D13DD27D0628F71D82B02C0C0E0D0E056
:102FC000CE01DF91CF910895E8E2F2E080818E7F1B
:102FD00080830E94D029E3EEF1E0828181608283C8
:102FE0002FEF80E792E0215080409040E1F700C051
:102FF00000000C94A0139091280290FF3BC09170A8
:10300000811102C0926006C08B3210F0946502C03C
:10301000880F982B909328028091E501816080931E
:10302000E501662351F06091280270912902809198
:103030002A0290912B020E945514609128026695F5
:1030400070E04BE050E08CE291E00E949130892BDF
:1030500019F00E94D02902C00E944A2A81E0809380
:10306000E00120E040912B0260912A028091290228
:103070000C9450150895809128028695815009F48A
:103080008AE261E00C94FB178091280286958F5F9D
:103090008B3208F081E061E00C94FB178F929F92D5
:1030A000AF92BF92CF92DF92EF92FF920F931F9356
:1030B000CF93DF930AE311E08AECE82E81E0F82E4B
:1030C0009EE3892E91E0992E6701D0E0AA24A39473
:1030D000B12CB801D8018C91F894E82FE295EF70EB
:1030E000F0E021A18F70A50102C0440F551F8A9501
:1030F000E2F7CA01922F982B91A392A18095892380
:1031000082A3789450EA5A95F1F7E2E4F1E020E0E6
:1031100030E0C0E04191842F82958F7090E0DC0117
:1031200090968C9190E04F7002C0959587954A9546
:10313000E2F780FD07C08A2D022E01C0880F0A9495
:10314000EAF701C080E0C82B2F5F3F4F26303105E2
:1031500009F70F5F1F4FFB0180810E945116D601B6
:103160008C91C81719F0CC9381E001C080E0D82B76
:10317000BFEFCB1ADB0A8016910609F0AACFC091E7
:10318000D301DD2349F081E0809324020E944D2089
:103190009093230280932202809124028823B9F025
:1031A00080912202909123020E943220069778F0AB
:1031B000EC2FF0E0E85EFD4FD7018D917D0181930A
:1031C000BEECEB16B1E0FB06B9F7109224020E94A8
:1031D00034168823D1F1C091D2018091E501882372
:1031E000E9F085E0E8E2F2E0ACEBB1E001900D92AD
:1031F0008A95E1F78091E3019091E401A091E501C6
:103200008093C1019093C201A093C30181E090E03B
:103210000E94A02E892B11F41092E50180E090E02D
:103220000E94A02E892B09F063C0EC2FF0E0E85E2D
:10323000FD4F80E090E0DC01AB53BE4F2C91219319
:10324000019684309105B9F750C0E091D3010E2F5B
:1032500010E08091C4018830C9F58091C30180FFDE
:1032600012C08091BC0180FF0CC080912802816057
:10327000809328028091BC0160E086950E94FB1734
:1032800002C00E94E4178091C30181FF09C020E0C1
:103290004091BF016091BE018091BD010E94501517
:1032A0008091C30182FF09C08091C201882319F077
:1032B0000E944A2A02C00E94D0298091C30183FF44
:1032C00003C081E08093E0011092C401F801E85E40
:1032D000FD4F80E090E02191DC01AB53BE4F2C9379
:1032E000019684309105B9F713C01092250210C0E1
:1032F000809125028F5F80932502863048F0E0910F
:10330000D201F0E0E85EFD4F10821182128213823A
:103310008D2FDF91CF911F910F91FF90EF90DF9054
:10332000CF90BF90AF909F908F900895CF93DF93F1
:103330008A3011F481E003C08D3029F480E0DF9100
:10334000CF910C94F328682F8091520490915304EC
:1033500026E0FC01ACE4B4E001900D922A95E1F77F
:10336000603E30F026E0FC0111922A95E9F70AC090
:10337000F6E06F9FB001112464557B4F46E050E0AA
:103380000E947F2FC0915204D091530446E050E038
:10339000BE018CE494E00E949E30892B49F19E018D
:1033A0002C543240A90185E0569547958A95E1F75E
:1033B00081E090E0BC0102C0660F771F4A95E2F7FA
:1033C00040914A0250914B02462B572B2B5F3F4FA7
:1033D00065E0369527956A95E1F702C0880F991F39
:1033E0002A95E2F7842B952B90934B0280934A0207
:1033F0009E012654324040914902642F70E0C90179
:103400000E944D30481B463010F4240F311D211509
:1034100082E0380710F020E030E0245B3D4F30932D
:10342000530420935204DF91CF910895CF93DF93FB
:10343000EC01FE018491882321F00E9496192196C7
:10344000F8CF81E0DF91CF910C94F3280F931F9375
:103450008091450290914602A0914702B0914802A6
:103460008C019D010670112722273327BC01CD0155
:10347000063011052105310511F4686001C0677F30
:103480001F910F910C94FD21EF92FF920F931F93C8
:10349000CF93DF93EC017B0164E670E088E70E9444
:1034A0007F2C8C01EC0EFD1ECE15DF0561F017FDA3
:1034B0000AC0FE01849164E670E00E94D62C8C0163
:1034C0002196892B89F30E945A2DC801DF91CF9153
:1034D0001F910F91FF90EF9008951F93CF93DF936B
:1034E000CDB7DEB7AA970FB6F894DEBF0FBECDBF3B
:1034F000ECE3F2E08091F100819342E0E434F407E0
:10350000C9F780913D02833009F462C030F4813004
:1035100071F0823009F49CC0B3C08A3009F488C0CD
:103520008B3009F46DC0893009F0AAC020C08091A9
:103530003C02813A09F0A4C08091E800877F809323
:10354000E8008091400290914102892B21F468E0CB
:1035500081E392E003C060E080E090E070E00E94D0
:103560001B2C8091E8008B778093E80089C08091C4
:103570003C02813209F084C0809140029091410266
:10358000009719F0029709F07BC08091E800877FCF
:103590008093E8008091E80082FD05C0809144029C
:1035A0008111F8CF6DC02091F3008091F20090E07E
:1035B000922B029729F48091F1008B7F813021F4C6
:1035C0008091F100809330028091E8008B7754C0A5
:1035D00080913C02813A09F053C080914002909161
:1035E0004102892B09F04CC08091E800877F8093CD
:1035F000E8008091E80080FFFCCF80912B0137C06C
:1036000080913C028132E1F580914002909141022B
:10361000892BB1F58091E800877F8093E8000E94B4
:10362000C72B80913E0280932B010E949C2A28C0C8
:1036300080913C02813221F58091E800877F809360
:10364000E8000E94C72B80913F0280932F0218C090
:1036500080913C02813AA1F48091E800877F8093B9
:10366000E8008091E80080FFFCCF80912F028093DA
:10367000F1008091E8008E778093E8000E94C72BCC
:103680008091E80083FFE9C180913C0290913D0266
:10369000492F50E04A30510508F0DFC1FA01E757E1
:1036A000FF4F0C947530803821F0823809F0D5C175
:1036B00008C08091390290913A02992389F0826082
:1036C0000FC0809140028F70873008F0C6C1809390
:1036D000E9008091EB0085FB882780F91092E900D2
:1036E0009091E800977F9093E8008093F10010920A
:1036F000F1007CC1282F2D7F09F0AFC1882319F07C
:10370000823061F0AAC180913E02813009F0A5C1EA
:10371000933009F080E080933A022EC080913E02FF
:1037200081112AC0809140028F702FEF280F263020
:1037300008F093C18093E9002091EB0020FF1CC0AA
:10374000933021F48091EB00806214C09091EB00E3
:1037500090619093EB0021E030E0A90102C0440F9A
:10376000551F8A95E2F74093EA001092EA00809193
:10377000EB0088608093EB001092E9008091E800F4
:10378000877F8093E8000E94C72B67C1811165C1C4
:1037900010913E021F778091E3008078812B809307
:1037A000E3008091E800877F8093E8000E94C72BA8
:1037B0008091E80080FFFCCF8091E30080688093D7
:1037C000E300111102C082E001C083E08093440253
:1037D00044C18058823008F040C120913E023091AF
:1037E0003F022C3D53E0350779F583E08A838AE276
:1037F00089834FB7F894DE01139620E03EE051E252
:10380000E32FF0E050935700E49120FF03C0E295CE
:10381000EF703F5FEF708E2F90E0EA3010F0C796A8
:1038200001C0C0968D939D932F5F243149F74FBF00
:103830008091E800877F8093E8006AE270E0CE0123
:1038400001960E941B2CC0C08091400290914102C1
:10385000432F552743305105B1F068F441305105ED
:1038600009F40AC14230510509F0F7C08BE590E038
:10387000E5E0F4E057C04132510589F1423251058B
:1038800009F43CC0EAC0C901992781309105B9F01B
:1038900070F082309105D9F0039709F0DEC0E2E7BD
:1038A000F4E0E4918E2F90E0E2E7F4E038C0E8EA3B
:1038B000F4E0E4918E2F90E0E8EAF4E030C0E4E92F
:1038C000F4E0E4918E2F90E0E4E9F4E028C0E8E72A
:1038D000F4E0E4918E2F90E0E8E7F4E020C083303C
:1038E000910508F0BAC0880F991FFC01EC57FE4FF4
:1038F0000190F081E02D89E090E014C083309105C3
:1039000008F0ABC0FC01EE0FFF1FE258FE4F019024
:10391000F081E02DDC01A558BE4F8C9190E000971E
:1039200009F49BC02091E800277F2093E8002091B4
:103930004202309143022817390708F4C90140E0D8
:10394000009789F120914402222309F43DC02530DB
:10395000D9F12091E80023FD37C02091E80022FD35
:103960002FC02091E80020FFEBCF4091F300209181
:10397000F20030E0342B009759F02830310540F444
:1039800044914093F100319601972F5F3F4FF3CF61
:1039900041E02830310509F040E02091E8002E7721
:1039A0002093E800CDCF4111CDCF0AC080914402D1
:1039B000882351F0853041F08091E80083FD04C0F8
:1039C0008091E80082FFF2CF8091E8008B778093AE
:1039D000E80043C0803809F040C08091E800877F4C
:1039E0008093E80080913B028093F1008091E80091
:1039F0008E77C7CE811131C080913E0290913F02F7
:103A00009927029754F58091E800877F8093E8001A
:103A100010913E0210933B020E94C72B111106C069
:103A20008091E30087FD02C081E001C084E08093C3
:103A3000440242E061EC81E00E94E62B42E261EC4C
:103A400084E00E94E62B42E261EC82E00E94E62BD9
:103A500042E260EC83E00E94E62B8091E80083FF65
:103A600010C08091E800877F8093E8008091EB0090
:103A700080628093EB0005C082E190E0E0E6F4E034
:103A800051CFAA960FB6F894DEBF0FBECDBFDF911F
:103A9000CF911F9108951F920F920FB60F9211248C
:103AA0002F933F934F935F936F937F938F939F9346
:103AB000AF93BF93CF93DF93EF93FF93C091E90050
:103AC000CF708091EC00D82FD17080FDD0E810929B
:103AD000E9008091F000877F8093F00078940E9445
:103AE0006D1A1092E9008091F00088608093F000D8
:103AF000CD2BCF70C093E900FF91EF91DF91CF9173
:103B0000BF91AF919F918F917F916F915F914F91F5
:103B10003F912F910F900FBE0F901F901895E8EDD9
:103B2000F0E080818E7F80831092E2001092DA00B4
:103B30001092E100A0EEB0E08C9181608C938081C6
:103B40008F77808319BCA7EDB0E08C918E7F8C932A
:103B500080818F7E8083109227020895CF92DF921A
:103B6000EF92FF920F931F93CF93DF93C8EDD0E0B6
:103B700088818F7E8883E7EDF0E08081816080839B
:103B800084E082BF81E08093270288818E7F8883D2
:103B900002EE10E0F80110821092DA0081EEC82ED9
:103BA000D12CF601108288818F7788838881806884
:103BB000888388818F7D888319BC1092440210927B
:103BC0003B0210923A021092390290EEE92EF12C4B
:103BD000F70180818B7F808388818160888342E0C8
:103BE00060E080E00E94E62BF60180818E7F80837A
:103BF000F801808181608083808188608083F70103
:103C000080818E7F8083888180618883DF91CF91DE
:103C10001F910F91FF90EF90DF90CF9008951F922A
:103C20000F920FB60F9211242F933F934F935F93F0
:103C30006F937F938F939F93AF93BF93EF93FF9374
:103C40008091E10082FF09C08091E20082FF05C0FF
:103C50008091E1008B7F8093E1008091DA0080FF0A
:103C60002AC08091D80080FF26C08091DA008E7F24
:103C70008093DA008091D90080FF18C080E189BD6F
:103C800082E189BD09B400FEFDCF81E0809344024A
:103C90008091270281110FC00E948F1D0E94AE1DCE
:103CA0008091E20084608093E20005C019BC10920C
:103CB0004402109227028091E10080FF17C080919A
:103CC000E20080FF13C08091E2008E7F8093E200CB
:103CD0008091E20080618093E2008091D800806250
:103CE0008093D80019BC85E0809344028091E10064
:103CF00084FF43C08091E20084FF3FC080E189BD22
:103D000082E189BD09B400FEFDCF8091D8008F7D8E
:103D10008093D8008091E1008F7E8093E1008091B4
:103D2000E2008F7E8093E2008091E20081608093C8
:103D3000E20080913B02882311F084E007C080916B
:103D4000E30087FD02C081E001C083E0809344026C
:103D50000E949C2A0E94C52810922E0280912D025A
:103D6000882349F08091280281608093280260E0D6
:103D700086950E94FB170E944A2A8091E10083FFEA
:103D800027C08091E20083FF23C08091E100877FFC
:103D90008093E10082E08093440210923B02809184
:103DA000E1008E7F8093E1008091E2008E7F80931E
:103DB000E2008091E20080618093E20042E060E0F6
:103DC00080E00E94E62B8091F00088608093F000F4
:103DD000FF91EF91BF91AF919F918F917F916F91E3
:103DE0005F914F913F912F910F900FBE0F901F90B9
:103DF00018952091E4003091E50095E64091EC00A3
:103E0000842F817040FF23C08091E80080FD1DC099
:103E100080914402882399F0853099F08091EB00DD
:103E200085FD11C04091E4005091E500241735074D
:103E300029F3915011F09A01E1CF84E0089582E0D6
:103E4000089583E0089581E0089580E00895409109
:103E5000E80042FFDDCF0895EF92FF920F931F938A
:103E6000CF93DF937C018B010E94F91E811119C051
:103E7000E70101151105A1F08091E80085FD0AC058
:103E80008091E8008E778093E8000E94F91E8823D5
:103E900081F307C089918093F10001501109E9CFA6
:103EA00080E0DF91CF911F910F91FF90EF900895E7
:103EB000CF93209144022430F9F4C091E900CF70EF
:103EC0003091EC00232F217030FD20E8C22B22E03E
:103ED0002093E9002091E80020FF0BC040E050E073
:103EE00060E270E00E942C1F8091E8008E77809342
:103EF000E800CF70C093E900CF91089508958091B4
:103F000030020895CF93DF9300D01F92CDB7DEB774
:103F100090914402943011F589837B836A83909356
:103F2000E9008FEF9091E800815095FD06C095ED76
:103F30009A95F1F700008111F5CF8091E80085FF97
:103F40000DC040E050E063E070E0CE0101960E94B9
:103F50002C1F8091E8008E778093E8000F900F90DF
:103F60000F90DF91CF910895BC0184E00C94821FE3
:103F7000BC0183E00C94821FCF93DF9321E0209358
:103F8000E9002FEF3091E800215035FD06C035EDF6
:103F90003A95F1F700002111F5CF2091E80025FFB7
:103FA00014C0EC0140E050E068E070E00E942C1F7B
:103FB0008091E8008E778093E80088E0FE01A1E31D
:103FC000B2E001900D928A95E1F7DF91CF910895CB
:103FD00081E08093E00080E28093D8001092C900D5
:103FE0008FE19EE40197F1F700C0000087E090EBBD
:103FF000DC0180932B0590932C05A0932D05B093A5
:104000002E059CE088E10FB6F894A8958093600097
:104010000FBE90936000FFCF78941F920F920FB65F
:104020000F9211248F939F93AF93BF938091BB0402
:104030009091BC04A091BD04B091BE040196A11D55
:10404000B11D8093BB049093BC04A093BD04B093B6
:10405000BE04BF91AF919F918F910F900FBE0F90B3
:104060001F9018959C014FB7F8948091BB049091D4
:10407000BC04A091BD04B091BE044FBF821B930B42
:1040800008952FB7F8946091BB047091BC0480919F
:10409000BD049091BE042FBF08952FB7F89480916E
:1040A000BB049091BC04A091BD04B091BE042FBF8D
:1040B00008951F920F920FB60F9211248F939F9322
:1040C000AF93BF938091D901811113C08091BB043C
:1040D0009091BC04A091BD04B091BE044196A11D75
:1040E000B11D8093BB049093BC04A093BD04B09316
:1040F000BE04BF91AF919F918F910F900FBE0F9013
:104100001F9018959C012A5F3F4FFC014281461386
:1041100001C01282019682179307B9F708959C0196
:10412000FC0132969FEF80E04191461789F09F3F56
:1041300019F4411101C0982F8F5F8630A9F79F3F76
:1041400039F0F901E90FF11D97FDFA9562830895A1
:104150000895CF9384E090E00E94882FC82F81E2D9
:1041600090E00E94882F2C2F30E0A901582BCA0123
:10417000CF9108956CEE7EEF80E090E00E94BA2F20
:1041800060E082E090E00E949C2F60E083E090E09D
:104190000E949C2F1092B7041092B8041092B90498
:1041A0001092BA0460E084E090E00E949C2F60E0EE
:1041B00081E290E00E949C2F60E085E090E00E9408
:1041C0009C2F60E086E090E00E949C2F6FEF87E0DC
:1041D00090E00E949C2F40E050E0BA0188E090E01F
:1041E0000E94AE2F60E08DE090E00E949C2F40E0A6
:1041F00050E0BA0188E190E00E94AE2F60E087E1D4
:1042000090E00E949C2F40E050E0BA018CE190E0E9
:104210000E94AE2F60E080E290E00E949C2F40E080
:1042200050E0BA0188E190E00E94AE2F40E050E0FB
:10423000BA018FE090E00E94AE2F40E050E0BA015A
:1042400083E190E00C94AE2F8091B604811110921E
:10425000B60408959091B5048091B404892B2091FF
:10426000B304982F922B909354048091B604882322
:1042700089F0892B80935404E6E5F4E097E080E030
:10428000915029F021912223D9F38F5FF9CF811129
:104290000E942421E091D701F091D801309731F0AC
:1042A0000280F381E02D84E594E009940895BF92A3
:1042B000CF92DF92EF92FF920F931F93CF93DF93F2
:1042C0008C01C0904502D0904602E0904702F090E9
:1042D00048028091B7049091B804A091B904B091BC
:1042E000BA04C82AD92AEA2AFB2ACFE1D0E0D701AA
:1042F000C6010C2E04C0B695A795979587950A948C
:10430000D2F780FD04C0219790F7B12C07C0BC2ED6
:10431000B8018C2F0E9468160197A9F38B2DDF91AD
:10432000CF911F910F91FF90EF90DF90CF90BF90B2
:104330000895CF93DF93EC010E945721BE010E94A4
:104340006816DF91CF910895292F220F920F990FB0
:10435000890F682F669566956695982F977085E00A
:10436000689FB001112440E050E080E0FB01E40FC1
:10437000F51FEC56FB4F208130E0092E02C0369528
:1043800027950A94E2F721703327042E01C0220FEB
:104390000A94EAF7822B4F5F5F4F4530510531F7A2
:1043A0000895292F220F920F990F890FE82FE69574
:1043B000E695E695877051E001C0550F8A95EAF7BA
:1043C00085E0E89FF0011124EC56FB4F20E030E03F
:1043D00070E04081CB01022E02C0969587950A9429
:1043E000E2F78170819584278523842781932F5F4D
:1043F0003F4F2530310569F708950F931F938B01C7
:104400009C010670112722273327DC01CB010630DF
:1044100011052105310511F4886001C0877F809363
:10442000450290934602A0934702B09348021F9121
:104430000F910C948E2A0F931F9341E050E060E09F
:1044400070E004C0440F551F661F771F8A95D2F78E
:1044500040955095609570958091450290914602E7
:10446000A0914702B09148028A019B0108231923B9
:104470002A233B23C901B8011F910F910C94FD2100
:104480002091B204809582238093B204982F977074
:1044900079F430E0482F082E000C550B241735070F
:1044A00039F08595859585950E941B221092B2045E
:1044B00008950F931F9341E050E060E070E004C066
:1044C000440F551F661F771F8A95D2F780914502CA
:1044D00090914602A0914702B09148028A019B0147
:1044E000082B192B2A2B3B2BC901B8011F910F91C7
:1044F0000C94FD216093B7047093B8048093B904C1
:104500009093BA040C948E2A809193049091620443
:10451000891719F08F5F8770FBCF08950F931F9352
:10452000CF93DF938091610482958F7009F05DC015
:1045300080915E04882309F458C0809193041091FF
:10454000620460915C0470915D04C0915F04D0913D
:10455000600491E06F3F09F090E0292F06E0811799
:1045600009F443C0209721F07F3F21F030E003C0E1
:1045700031E001C0322F90E030FD34C0089FF001DF
:10458000099FF00D1124DF01AD59BB4F11963C91ED
:104590001197371327C03C91361324C012963C91D3
:1045A000129731111FC013964D915C9114974C1BBB
:1045B0005D0B483C5105B0F4809161048F708061BF
:1045C00080936104E859FB4F80818F708061808304
:1045D0008CE594E00E94E80CDF91CF911F910F9140
:1045E0000C94842201968770BACFDF91CF911F91EE
:1045F0000F9108959F92AF92BF92CF92DF92EF9268
:10460000FF920F931F93CF93DF93CDB7DEB76197E0
:104610000FB6F894DEBF0FBECDBF8C0185E0F80168
:10462000DE011D9601900D928A95E1F7F8019081C7
:104630008181E28030915C0460915D0440915F046F
:10464000509160044115510531F06F3F31F421E084
:104650003F3F19F403C021E001C020E0F22FF170C8
:104660009F2E20FD23C1F801C380D4802CE5A22E0B
:1046700024E0B22EF0905E04F601E41BF50BFF205F
:1046800009F4CEC020916104E83CF10508F099C01E
:10469000422F407F09F051C0681311C039130FC079
:1046A000FE2CE1100CC02F70206120936104C50125
:1046B0000E94E80C80916104F801858337C1CD2800
:1046C00031F08F3F31F421E09F3F19F403C021E026
:1046D00001C020E020FD03C021E02E2502C020E023
:1046E00030E0F22FF170FF2E20FF1DC020919304C7
:1046F0004091620456E0241709F4F6C030E0529F5E
:10470000F001539FF00D1124ED59FB4F6181861389
:1047100006C06081961303C06281E61204C02F5F59
:104720003F4F2770E8CFFE2CEE2009F4FFC08091A8
:10473000610481608093610450C0681307C039131D
:1047400005C0E11003C0F80125838DC09D878E87C9
:104750008D859E850E94652A882369F1EE2059F196
:1047600020916104822F82958F7090E0029774F0FF
:1047700080915C0490915D0498878F831986DB8615
:10478000CA862C87CE0107960E94E80C86E0F801C5
:10479000ACE5B4E001900D928A95E1F70E948E227B
:1047A0000DC06817E1F09D878E878D859E850E94DC
:1047B000652A81111EC0C8010E94E80CFF24F394F1
:1047C000B5C0422F407F69F78CE594E00E94E80C69
:1047D00086E0F50111928A95E9F7F12CA7C039130B
:1047E000E2CFE110E0CFF8012583C8010E94E80C78
:1047F00057C0EE2001F320916104822F82958F70C3
:1048000090E002971CF280915C0490915D049A8381
:1048100089831B82DD82CC822E83CE010196B4CFA8
:10482000E83CF105E8F5FE2CEE2029F2681327C0DC
:10483000391325C02091610420FD18C0822F829574
:104840008F70482F50E04115510581F0F801258304
:104850004F30510541F08F5F982F9295907F822FB6
:104860008F70892B8583C8010E94E80C86E0F801CF
:10487000ACE5B4E001900D928A95E1F757C09D87B1
:104880008E878D859E850E94652A81117FCF8091BC
:104890006104816080936104C8010E94E80C46C0F5
:1048A00086E0F50111928A95E9F740C0EE2009F4FF
:1048B00082CF9D878E878D859E850E94652AF82EE2
:1048C000882309F478CF86E0F801ACE5B4E00190E4
:1048D0000D928A95E1F780915C0490915D040E94AD
:1048E00099210E948E2222C09D878E878D859E856C
:1048F0000E949921292F22952F70223028F49F7031
:1049000039F0811105C00BC0243028F49F7049F4A0
:10491000805E883020F0C8010E94E80C9F2CF92CA2
:1049200005C0F8019581907F99F7F9CF8F2D619699
:104930000FB6F894DEBF0FBECDBFDF91CF911F91B0
:104940000F91FF90EF90DF90CF90BF90AF909F902E
:10495000089508958F929F92AF92BF92CF92DF9267
:10496000EF92FF920F931F93CF93DF93FC01B280DE
:10497000948081E0848300E015E05BE4A52E882428
:104980008394EE24EA94F12C7BE4C72ED12C809101
:104990000801081708F08FC0C02FD0E01C9FF0015D
:1049A0001D9FF00D1124EA51FB4F911003C013829B
:1049B000128267C02381222389F12150238334810D
:1049C000332319F09A2D921B01C0922F80912B0254
:1049D0001C9FF0011D9FF00D1124EA51FB4F899F90
:1049E000C0011124B6010E944D306283211104C020
:1049F000332311F01482A38222E02B1508F441C066
:104A00001C9FF0011D9FF00D1124EA51FB4F809176
:104A10002902808380912A02818333C00E946F2FF4
:104A20008230914074F582E08B1530F40E946F2F34
:104A3000B7010E94613002C0809129021C9FF001E1
:104A40001D9FF00D1124EA51FB4F808322E02B15AE
:104A500058F40E946F2F20912A022695622F70E051
:104A60000E946130820F02C080912A021C9FF001D7
:104A70001D9FF00D1124EA51FB4F81831282A38206
:104A80008482809106019E01280F311DC901880F83
:104A9000991F280F391F2E533B4F1C9FF0011D9F5C
:104AA000F00D1124EA51FB4F4281618180810E9407
:104AB000A0140F5F6CCFDF91CF911F910F91FF90EA
:104AC000EF90DF90CF90BF90AF909F908F900C941D
:104AD000A0130F931F93CF93DF93EC0100E010E03E
:104AE00080910801282F30E00217130724F59091D8
:104AF00006019801290F311DA901440F551F240FEC
:104B0000351F2E533B4F869590E04C8108171907AF
:104B10001CF4442331F002C0411103C040912B0228
:104B200001C040E060912A02809129020E94A014F5
:104B30000F5F1F4FD5CF0E94A0138C8190E001968C
:104B4000817099278C83DF91CF911F910F910895E8
:104B50008F929F92AF92BF92CF92DF92EF92FF928D
:104B60000F931F93CF93DF938C01FC014481C42FDB
:104B7000D0E09E01DE010E9424309B01AC010E9426
:104B8000EF2F6B017C01E0E2F0E0EC1BFD0BA5E5F3
:104B9000B0E09B01AC010E94EF2F4B015C019F0133
:104BA000DF010E9482309B01AC010E94FA2F9B0121
:104BB000AC012C0D3D1D4E1D5F1DC501B4010E94B1
:104BC0000230C22FD22F2A3228F4F3E02F9F900117
:104BD00011240DC025E530E02C1B3109C901880FD7
:104BE000991F280F391F37FF02C02F5F3F4F3595A0
:104BF0002795C22FC095F12C85E5E82EED1A8091FE
:104C00000801F816C8F4F1FC02C08E2D01C08D2FEA
:104C1000909106012F2D30E0290F311DA901440F7D
:104C2000551F240F351F2E533B4F4C2F60912A02E6
:104C30000E94A014F394E3CF0E94A013F801848192
:104C4000811102C091E003C0803219F49FEF90936C
:104C5000390190913901890FF8018483DF91CF9157
:104C60001F910F91FF90EF90DF90CF90BF90AF908A
:104C70009F908F9008951F93CF93DF93EC018C81C9
:104C8000811109C081E08C831092C00492E090935E
:104C900038018093370180910601909107018917AF
:104CA00070F4E82FF0E09F01220F331FE20FF31F93
:104CB000EE53FB4F1182108212828F5FF0CF10E013
:104CC000609108011617C0F5E12FF0E070E0CF0108
:104CD0000E94613020910601820F2091C004022EB3
:104CE000000C330B90E0E217F307CCF02091380171
:104CF000022E000C330B2E173F078CF09C01220F65
:104D0000331F820F931F9C012E533B4F40912B0268
:104D100060912A02809129020E94A0140BC0FC011C
:104D2000EE0FFF1F8E0F9F1FFC01EE53FB4F1182F2
:104D3000108212821F5FC4CF0E94A013809137019E
:104D40002091C004280F2093C00490913801980F3F
:104D50009093380119165CF4022E000C330B40912D
:104D6000080150E0415051092417350734F081956E
:104D700080933701813009F41C82DF91CF911F911C
:104D800008958F929F92AF92BF92CF92DF92EF924F
:104D9000FF920F931F93CF93DF93EC018A8180FFE3
:104DA00003C0BB24BA9402C0BB24B3948C8181118C
:104DB0000DC081E0B81206C0809108018150809337
:104DC000BF0402C01092BF0481E08C83A12C4CE090
:104DD000942E80910801A81608F044C08091060125
:104DE000CA2CD12C8601080F111DC801880F991FEC
:104DF000080F191F0E531B4FF801118210821282E7
:104E000034E0E32EF12C812C8091BF04880D8D308D
:104E10002CF0692D0E943F30892F05C087FF03C009
:104E200090910801890F082E000C990BC816D9061D
:104E300091F480912B028E9DA0018F9D500D112425
:104E40005595479555954795980160912A0280910F
:104E500029020E94A0148B0CF1E0EF1AF108A1F6D0
:104E6000A394B7CF0E94A0138091BF0491E0B91220
:104E70000EC0811107C08091080181508093BF044A
:104E80001C820FC081508093BF04BC820AC090E096
:104E900001966091080170E00E9461308093BF0428
:104EA0008C83DF91CF911F910F91FF90EF90DF9056
:104EB000CF90BF90AF909F908F900895FF920F93E7
:104EC0001F93CF93DF93EC01F12C0FEF10E0609173
:104ED0000801F616F0F4809106012F2D30E0280F1E
:104EE000311DC901880F991F280F391F2E533B4FC1
:104EF00070E0C8010E946130962F8C8140912B0296
:104F000060912A02F99E800D11240E94A014F3944E
:104F1000DECF0E94A0139A818C8190FF02C08F5F28
:104F200001C081508C83DF91CF911F910F91FF9031
:104F300008950F931F93CF93DF9300D01F92CDB7A7
:104F4000DEB78C018091C10481110AC09E012F5FE0
:104F50003F4F4FEF6FEF0E94A0148A818093C104EE
:104F6000F8018481813051F028F0823061F4409161
:104F7000C1040AC08091C10440E007C06091C1042F
:104F800040E080E003C040E080E060E00E94271441
:104F9000F801848190E0019663E070E00E94613046
:104FA00084830F900F900F90DF91CF911F910F91FD
:104FB0000895CF93DF93EC01E8E2F2E04381628150
:104FC0008C810E9436158C818F5F8C83DF91CF910D
:104FD0000895CF93DF93EC01EC81F0E0E451F64FBC
:104FE0004491E8E2F2E0628181810E9436158C8171
:104FF0008F5F8C83DF91CF9108951F93CF93DF93C1
:10500000CDB7DEB767970FB6F894DEBF0FBECDBF42
:105010004B8B5C8B6D8B7E8B8F8B86E09E01235F31
:105020003F4FD901E82F1D92EA95E9F795E0FE017F
:105030007396D90101900D929A95E1F7F901DE017D
:10504000179601900D928A95E1F7CE0107960E947E
:10505000FA2281113EC086E0FE013796DE011196EC
:1050600001900D928A95E1F7FF81E8856A857B853D
:105070006115710531F0EF3F31F481E0FF3F19F424
:1050800003C081E001C080E080FD23C02091620464
:1050900030E0C9010196877099274091930450E050
:1050A0008417950779F1F983EA837D836C8396E011
:1050B000929FD001939FB00D1124AD59BB4FFE01BB
:1050C000319601900D929A95E1F7809362040E94C7
:1050D000842216E080919304909162048917F9F07C
:1050E000189FC00111248D599B4F0E94FA228823DA
:1050F000B1F08091930490E0019687709927809396
:105100009304E8CF0E949C2A1092620410929304A8
:10511000ECE5F4E086E0DF011D928A95E9F76796F9
:105120000FB6F894DEBF0FBECDBFDF91CF911F91B8
:10513000089520912605309127052817390771F029
:105140009093270580932605E091D701F091D8012F
:10515000309721F00084F185E02D09940895209185
:105160002405309125052817390771F090932505FE
:1051700080932405E091D701F091D801309721F078
:105180000680F781E02D09940895E091D701F09110
:10519000D801309721F00190F081E02D099480E052
:1051A00008950E944120DC01CB01805A9541AF4F08
:1051B000BF4F8093080290930902A0930A02B09314
:1051C0000B0280910C0281110BC062E070E08CE652
:1051D0009CE00E94441A892B19F481E080930C0210
:1051E00080910C020895CF93E82F209152043091C2
:1051F00053042C54324040914902642F70E0C9019D
:105200000E944D30481B842FEE2351F066E00E942F
:105210003330C82FC150A8F080E20E949619FACF0F
:10522000A901480F511D4115524018F080E020E0BF
:1052300030E0280F311D245B3D4F30935304209301
:105240005204CF910895CF93DF93C6EAD1E060E096
:10525000CE010E949C2F2196C11584E0D807B9F792
:10526000DF91CF910895CF92DF92EF92FF920F934B
:105270001F93CF93DF93C0E0D0E08E01005A1F4F01
:105280006E018CE0C80ED11CFE01E451F54FE59093
:10529000F4906F2DCE0186960E949C2F6E2DCE012C
:1052A00087960E949C2F2296CC15DD0569F70C1776
:1052B0001D0731F7E80100381140F9F6DF91CF9171
:1052C0001F910F91FF90EF90DF90CF9008950F9373
:1052D0001F93CF93DF93C42FD0E0CC0FDD1F2CE0C2
:1052E000629FC00DD11D112430E6839FC00DD11DDA
:1052F0001124CE0186960E94882F082F10E0102FCF
:105300000027CE0187960E94882F9801282BC9017B
:10531000DF91CF911F910F910895462F843038F47B
:10532000783028F4663018F4672F0C94672980E0F1
:1053300090E00895CF93C82F811102C06FEF01C094
:1053400060E282E290E00E949C2FC11102C06FEFE8
:1053500001C062E183E290E00E949C2FC11102C073
:105360006FEF01C065E084E290E0CF910C949C2F38
:105370009091280290FF04C09695981740F003C0C2
:10538000811105C090E0961710F40C94441861E068
:105390000C94FB17882311F0FA0101C0FB0109945A
:1053A000E3EEF1E0118282818460828308950F939D
:1053B0001F93CF93DF93C42FD22FFC0182818823C8
:1053C000C9F0409320020E944D20909323058093C2
:1053D000220580E28C0F883008F057C0C77081E04A
:1053E00001C0880FCA95EAF7DF91CF911F910F9105
:1053F0000C94B22A80912002481330C0809122057B
:10540000909123050E943220883C910538F510E2E6
:105410001D0FCD17B9F080E28C0F883040F4C770B3
:1054200081E001C0880FCA95EAF70E94A72A1830C8
:1054300028F581E09D2F977001C0880F9A95EAF7B3
:105440000E94B22A802F0E94B42B1830F0F4D7703B
:1054500081E001C0880FDA95EAF70AC080E28C0F7C
:10546000883098F4C77081E001C0880FCA95EAF7C8
:10547000DF91CF911F910F910C94A72A802FDF917C
:10548000CF911F910F910C94B42BDF91CF911F916D
:105490000F91089560912802669570E04BE050E00E
:1054A0008CE291E00E949130892B19F481E0809385
:1054B000E4010E944D209093DE018093DD018091F4
:1054C000E50184608093E50108950E949921292FC8
:1054D0002F70E92FE295EF704E2F50E0FA013297CE
:1054E000EE30F105B8F4ED56FF4F0C947530803F67
:1054F00099F018F4883E70F40FC0843F59F40CC042
:10550000883E50F0813F31F407C0822F8695869502
:105510008695089580E0089581E008951092B4047E
:105520001092B3040E942A2180E090E00E94AF28EC
:1055300080E090E00C9499281092B50486E0E6E5AE
:10554000F4E0DF011D928A95E9F70C948E2A8823F6
:1055500041F080959091B50489238093B5040C9413
:105560002A210895882339F09091B504892B8093DE
:10557000B5040C942A210895882309F458C0682F93
:10558000823869F40E94C52881FF51C069E384E52F
:1055900094E00E948F200E942A2169E30EC0833884
:1055A00091F40E94C52880FF42C063E584E594E041
:1055B0000E948F200E942A2163E584E594E00E94E6
:1055C00082200C942A21843869F40E94C52882FF25
:1055D0002EC067E484E594E00E948F200E942A2177
:1055E00067E4EBCF8CEF860F813A38F380E2860FC9
:1055F000883070F4677081E090E001C0880F6A9590
:10560000EAF780959091B50489238093B504D9CFAA
:105610008BE5860F833020F480E090E00C94AF2877
:10562000685A673120F480E090E00C94992808953E
:10563000CF93882309F496C0C82F8238B1F40E9412
:10564000C52881FD8FC069E384E594E00E948F2026
:105650000E942A212FEF81EE94E02150804090405B
:10566000E1F700C0000069E317C08338E1F40E944D
:10567000C52880FD77C063E584E594E00E948F2013
:105680000E942A212FEF81EE94E02150804090402B
:10569000E1F700C0000063E584E594E00E94822009
:1056A000CF910C942A218438B1F40E94C52882FD40
:1056B00059C067E484E594E00E948F200E942A216B
:1056C0002FEF81EE94E0215080409040E1F700C040
:1056D000000067E4E1CF8CEF8C0F813A80F4E6E5BF
:1056E000F4E08CE594E02191C217A1F18E179F0799
:1056F000D1F76C2F84E594E00E948F20D1CF80E217
:105700008C0F883068F4C77081E090E001C0880F8A
:10571000CA95EAF79091B504892B8093B504C0CF60
:10572000EBE5EC0FE33040F4F0E0E657FE4F80810C
:1057300090E0CF910C94AF28C85AC73198F4EC2F61
:10574000F0E0EE0FFF1FE357FE4F80819181CF9174
:105750000C9499286C2F84E594E00E9482200E948A
:105760002A21C7CFCF910895CF93C82F0E94182B1D
:10577000C93349F42FEF87EE93E0215080409040E9
:10578000E1F700C000008C2FCF910C94BC2A8091CF
:105790003C0287FF11C08091E80082FD05C0809126
:1057A00044028111F8CF11C08091E8008B770BC0C3
:1057B00080914402882349F08091E80080FFF8CF6F
:1057C0008091E8008E778093E8000895982F9730B5
:1057D00068F59093E900981739F07091EC002091EA
:1057E000ED005091F00003C0242F762F50E021FDF2
:1057F00002C09F5FECCF3091EB003E7F3093EB0017
:105800003091ED003D7F3093ED003091EB00316041
:105810003093EB007093EC002093ED005093F00078
:105820002091EE0027FDE5CF80E008958F708093F2
:10583000E90081E008952091420230914302261749
:10584000370748F06115710539F42091E8002E778B
:105850002093E80001C0B901FC0120E06115710549
:1058600079F1809144028823F1F18530F1F1809142
:10587000E80083FD3CC08091E80082FD2EC080914D
:10588000E80080FFEBCF2091F3008091F20090E0E0
:10589000922B6115710551F08830910538F42191F2
:1058A0002093F100615071090196F3CF21E0089730
:1058B00009F020E08091E8008E778093E800CECF59
:1058C0002111CFCF0AC080914402882361F0853036
:1058D00061F08091E80083FD0AC08091E80082FFBA
:1058E000F2CF80E0089582E0089583E0089581E09A
:1058F00008951092B9008CE08093B8000895EF925B
:10590000FF920F931F93CF93DF93182FEB01109209
:10591000BC0084EA8093BC000E944D207C018091F1
:10592000BC0087FD0EC0CF3F8FEFD807C1F30E94A8
:105930004D208E199F098C179D0788F38EEF9FEFDE
:105940002EC08091B900887F883041F08091B900E5
:10595000887F803119F08FEF9FEF21C01093BB003B
:1059600084E88093BC000E944D208C018091BC0093
:1059700087FD0CC0CF3F8FEFD807C1F30E944D20A9
:10598000801B910B8C179D0788F3D8CF8091B900AD
:10599000887F883111F08034F1F680E090E0DF916B
:1059A000CF911F910F91FF90EF9008950F931F9348
:1059B000CF93DF93EB018093BB0084E88093BC001E
:1059C0000E944D208C018091BC0087FD0EC0CF3F0E
:1059D0008FEFD807C1F30E944D20801B910B8C17CD
:1059E0009D0788F38EEF9FEF0CC02091B900287FB0
:1059F00081E090E0283211F480E090E0919581956B
:105A00009109DF91CF911F910F910895CF92DF926D
:105A1000EF92FF920F931F93CF93DF936B018A0155
:105A20007901B9010E947F2CE6010C0D1D1DC017E4
:105A3000D10761F424E92093BC00DF91CF911F913D
:105A40000F91FF90EF90DF90CF90089597FDF2CFE8
:105A5000B70189910E94D62CEACFCF92DF92EF92C4
:105A6000FF920F931F93CF93DF93C62F6A017901A3
:105A7000B8010E947F2C97FD11C0B8018C2F0E94A5
:105A8000D62CE601EC0CFD1CCE15DF0539F097FD98
:105A900005C0B80189910E94D62CF6CF24E9209345
:105AA000BC00DF91CF911F910F91FF90EF90DF909D
:105AB000CF90089584E98093BC0008958EE14A9BBD
:105AC00002C08150E1F74A9BFECF08955A9880E2C8
:105AD0008A95F1F75A9A0895FC012AE02A95F1F780
