:100000000C94E4010C942B020C942B020C945A23B4
:100010000C942B020C942B020C942B020C942B02AC
:100020000C942B020C942B020C940B130C9439207F
:100030000C9444180C942B020C942B020C942B025D
:100040000C942B020C942B020C942B020C942B027C
:100050000C942B020C94F7170C942B020C942B028B
:100060000C942B020C942B020C942B020C942B025C
:100070000C942B020C942B020C942B020C942B024C
:100080000C94F3090C942B020C942B020C942B026D
:100090000C942B020C942B020C942B020C942B022C
:1000A0000C942B020C942B020C942B025B065B0627
:1000B000950695067208720872087208EB06C90761
:1000C000DA07DA07611E881E1120881E1120D01E53
:1000D000F31E1120DB1FEE1F8F208F20A220A220F5
:1000E0009820A220A220A2208F208F209D20A22035
:1000F000A2209D2007634236B79BD8A71A396856BD
:1001000018AEBAAB558C1D3CB7CC5763BD6DEDFD39
:10011000753EF6177231BF000000803F08000000F6
:10012000BE922449123EABAAAA2ABECDCCCC4C3EEC
:1001300000000080BEABAAAAAA3E00000000BF00DB
:100140000000803F0000000000084178D3BB4387D7
:10015000D1133D190E3CC3BD4282AD2B3E68EC82EB
:1001600076BED98FE1A93E4C80EFFFBE01C4FF7F70
:100170003F00000000002B0014001A0008001500CA
:100180001700E00004001600070009000A00E10063
:100190001D001B0006001900050000000000E30020
:1001A000E20001512C002A00130012000C0018007C
:1001B0001C00340033000F000E000D000B00E500A2
:1001C0003800370036001000110000000000E70082
:1001D000E6000251280029001E001F002000210017
:1001E0002200E00001000100010001000100E10027
:1001F0000100010001000100010000000000E30017
:10020000E20001512C002A002700260025002400CE
:100210002300010001004F00520051005000010076
:100220000100010001000100010000000000E700E2
:10023000E6000251280029001E021F0220022102AE
:100240002202E00001000100010001000100E100C4
:100250003502010001000100010000000000E30080
:10026000E20001512C002A00270226022502240266
:1002700023023500310230022F022E002D003502FC
:10028000310030002F002E022D0200000000E70098
:10029000E60002512800005C01000100010001009D
:1002A0000100C25CC55CC75CC95C01000100C35CA5
:1002B000C65CC85CCA5C0100010000000000E300ED
:1002C000E20001512C003F003E003D003C003B009D
:1002D0003A00450044004300420041004000010054
:1002E0000100010001000100010000000000E70022
:1002F000E6000251280000AF00DA0281FFD9F1DBED
:1003000020A4A62EAF00A0C000A1C800AED580A832
:100310001FD300408D14200000AE05010906A10185
:10032000050719E029E715002501950875018102E7
:100330009501750881010507190029FF150026FFA1
:1003400000950675088100050819012905950575B0
:10035000019102950175039101C00902220001017A
:1003600000A0FA09040000010301010009211101A4
:1003700000012240000705810308000A1201100154
:1003800000000008545901000100010203010403A8
:10039000300000001A034C0075006E0061006B0015
:1003A0006500790020004D0069006E0069000000C2
:1003B000120379006F006900630068006900720031
:1003C0006F0000000403090411241FBECFEFDAE020
:1003D000DEBFCDBF04B603FE27C0809124079091F5
:1003E0002507A0912607B09127078730904BA7409B
:1003F000B04BD1F4109224071092250710922607D3
:100400001092270714BE84B7877F84BF0FB6F89475
:10041000A8958091600088618093600010926000D0
:100420000FBEE0E0F8E3099527E0ACECB3E001C0D3
:100430001D92A432B207E1F713E0A0E0B1E0ECE4D2
:10044000F0E502C005900D92AC3CB107D9F70E94CF
:1004500093140C9424280C9400008F929F92AF92D6
:10046000BF92CF92DF92EF92FF920F931F93CF93A1
:10047000DF93CDB7DEB7AD970FB6F894DEBF0FBEF2
:10048000CDBFFC010081D18083819481892B39F01B
:100490001FEFD11206C091E00F3F19F403C091E0A5
:1004A00001C090E090FD5EC67F0185E0DE01999677
:1004B00001900D928A95E1F7D70112962C9189A5AA
:1004C0009AA5222349F00E943B19182F682F89A56D
:1004D0009AA50E94B51903C00E948819182FB0E38D
:1004E0001B9FF001112416E0D19EE00DF11D112497
:1004F000E00FF11DEE0FFF1FEA58FE4F059114911A
:100500000D312CE5120749F4D70112968C918823FE
:1005100009F459C00E94E40964C30E31BCE51B070D
:1005200041F4F7018281882309F44DC00E94E50D52
:1005300058C30F31FCE51F0759F4D70112968C916F
:10054000882309F440C080911C0780FDEFCFE2CFE3
:10055000C8018A529C45029758F4F701828188238A
:1005600091F11092CC0364E070E080E091E023C050
:1005700006322CE5120711F10732BCE51B0709F41E
:10058000FDC00832FCE51F0709F4EBC00C32BCE5E6
:100590001B0709F4FBC00D32FCE51F0709F0FEC084
:1005A000D70112968C91882371F01092E40368E0D1
:1005B00070E080E291E00E94951C13C3D70112966F
:1005C0008C918111D8C02091E503211105C0809143
:1005D000E403882309F411C1F7013281332309F4BC
:1005E0004BC0003E110561F40E94D50D81E080935F
:1005F000E3031092E2031092E1031092E003F1C2D0
:10060000023E110571F40E94D50D8091E303882309
:1006100019F081E08093E2031092E3031092E1036A
:10062000E0C2033E110591F48091E203882321F199
:100630000E94D50D1092E30381E08093E1031092B4
:10064000DF031092DE031092DD03CBC202351105E9
:1006500031F480910102909102020A9708C001359D
:10066000110551F480910102909102020A96909333
:10067000020280930102B5C28091000281110DC077
:10068000D70111964C91119788E090E0841B910955
:100690004C91405FD42EBCE01DC0813069F4F7015D
:1006A000418188E090E0841B9109D82EDD0CDD0C9F
:1006B000D80E80818D5C31C0823081F4D7011196D3
:1006C0004C91119788E090E0841B91094C914D5C0E
:1006D000D42EB7E08B9FD00C112423C08330F9F4C3
:1006E00083E2E3E9F3E0DE01119601900D928A9531
:1006F000E1F7F7018081FE01E80FF11DD7011196A6
:100700004C9188E090E0841B9109D084BCE08B9FE1
:10071000D00C11248D2D59E0D52ED80E02C04CE0FE
:10072000D42E3323A1F0222319F08D2D0E94B70E71
:100730008091E303882381F08091E003E82FF0E0CB
:10074000E353FC4FD0828F5F8093E00305C02223E8
:1007500019F08D2D0E94FF0D0F3F110508F04DC0BF
:1007600040C2D70112968C91882309F42CCF809136
:10077000E503811108C00E94DB0933C2F7018281C1
:10078000882309F420CF0E94DB0D2BC2F701828160
:10079000882309F418CF0E94D20923C20E32BCE587
:1007A0001B0751F4F7018281882309F40CCF809153
:1007B000E4038111FACEEFCF0932FCE51F0709F0FF
:1007C00002CFD70112968C91882309F4FCCE0E94A7
:1007D000D50D2091000230E02F5F3F4F237033276B
:1007E0002093000248E2429FC001439F900D1124D4
:1007F00065E070E0805A9E4FDECE033F3CE5130774
:1008000099F406E221EE40EE63EF7CE509C0073D76
:100810009CE5190711F506E221EE41EE67ED7CE556
:10082000C7010E94E010DDC1043F4CE5140708F049
:1008300069C1083D5CE5150731F407E225EE45EE98
:1008400068ED7CE5EDCF093D8CE5180701F708E27E
:1008500021E045EE69ED7CE5E3CFF7018281882355
:1008600009F485C11092E6030230FCE51F0708F485
:1008700068C106312CE5120738F098012A5F3C4523
:100880002930310508F05DC10E949418909342040C
:100890008093410400313CE5130709F4CAC008F015
:1008A00042C008305CE5150709F4A0C0F0F404303C
:1008B0009CE5190709F486C068F40230BCE51B0703
:1008C00009F47CC003301C4509F00CC1809141043F
:1008D00082607BC00630FCE51F0709F47FC008F08A
:1008E00081C080914104886070C00C303CE51307E2
:1008F00009F48BC068F40A305CE5150709F47AC086
:1009000008F07FC00E94A6208091410480685DC0ED
:100910000E309CE5190709F47CC008F086C0809170
:1009200041048B7F52C00B3FBCE51B0709F450C04C
:1009300020F50331FCE51F0709F483C078F4013189
:100940003CE5130709F479C002311C4509F0CAC01F
:100950000E94A620809141048F7737C005315CE565
:10096000150709F47CC008F4ACC00A3F1C4509F027
:10097000B9C08091420481602EC00F3FACE51A07D8
:1009800009F466C070F40D3FECE51E0709F449C098
:1009900008F443C0809142048260816080934204E5
:1009A00084C001302DE5120709F497C008F470C027
:1009B00002301D4509F096C060E090C0809141046E
:1009C000816003C0809141048460809341048AC0A7
:1009D0008091420482608093420484C080914104EB
:1009E0008061F3CF809141048062EFCF8091410418
:1009F0008064EBCF809141048860846080934104DF
:100A00003DC0809141048E7FE0CF809141048D7F75
:100A1000DCCF80914104877FD8CF809142048E7FC4
:100A2000DACF809142048D7FD6CF809141048F7EB2
:100A3000CCCF809141048F7DC8CF809141048F7BC2
:100A4000C4CF80914104877F8B7F809341041BC07A
:100A5000809142048D7F8E7F809342042BC08091D1
:100A6000410482FB222720F991E0922790FB82F932
:100A700090FB83F980934104992329F064E070E0AE
:100A800083E492E01BC062E070E083E192E016C074
:100A900080914204982F909591708E7F892B90FBC6
:100AA00081F980934204992329F064E070E083E2A5
:100AB00092E004C062E070E083E092E00E94951C46
:100AC00011C00E94A6208091410487FB222720F9B3
:100AD00091E0922790FB87F978CF61E08EE090E07B
:100AE0000E940624609141041091420484E090E049
:100AF0000E940624612F81E290E00E9406240E9459
:100B0000A6206FC0053FACE51A0731F406E221EEDE
:100B100042EE65EF7CE584CE053FBCE51B0730F473
:100B200007E225EE44EE64EF7CE57ACE063FECE585
:100B30001E0709F092CE07E225EE46EE66EF7CE551
:100B40006FCE0631FCE51F0719F58091E5068A7A1C
:100B500091E009F490E09093E703882311F065E3B6
:100B600001C069E284E896E00E947A180EC006315E
:100B70001C4509F055C08091E703882309F4F0C2B1
:100B800065E384E896E00E946D180E940E1929C062
:100B900001155CE5150739F00E3D1C4509F040C014
:100BA0000E94A5181EC00E94A6200E94D50D0E947A
:100BB00038188C0163E070E083E692E00E94951C97
:100BC000C8010E941D188A3F910538F4AFE9BFE0C3
:100BD0001197F1F700C00000F3CF0E94A60D0E940C
:100BE000D3178091E206877009F4BCC2F7018281B5
:100BF000882309F4B7C282E0AD960FB6F894DEBF41
:100C00000FBECDBFDF91CF911F910F91FF90EF905D
:100C1000DF90CF90BF90AF909F908F900C94281A48
:100C2000D7010D911C91882349F0C8010E943B19FE
:100C3000D82E682FC8010E94B51904C0C8010E94AF
:100C40008819D82EB8018D2D0E94530F8C01982E33
:100C5000D7011596BC901597B2942FE0B222129648
:100C6000AC90A1101092E4068091E206877099F092
:100C7000AA2089F0812F807F803421F080E2800FCC
:100C8000883048F082E00E94281A8091E20687703E
:100C9000DD24D3948111D12CC12EC2949FE0C922AE
:100CA0008C2D90E08C30910508F01CC2FC01EA5AB2
:100CB000FF4F0C940A28812F807F1F70882311F02A
:100CC0001295107FAA20B9F0112309F4F6C180E231
:100CD000800F883010F0911006C08091E506182B27
:100CE0001093E50605C08091E406182B1093E406E6
:100CF0000E940E19E2C1802F0E94CA20112309F41C
:100D0000F1C1005E1095083010F0911006C080917E
:100D1000E50618231093E50605C08091E406182324
:100D20001093E4060E940E19DDC1812F807F1F7091
:100D3000803211F01295107F992021F0B1E09B16BE
:100D4000E1F02AC0AA2081F08091E606BB2051F094
:100D5000E1E0BE1207C0182B181709F4C3C11093A5
:100D6000E606C0C1812B10C0BB2021F0F1E0BF1608
:100D700009F4B8C10E9408192AC0AA2041F005E070
:100D80000B1508F4AFC1812F0E94C020ABC124E035
:100D90002B1508F4A7C11BC0AA2061F0BB2099F352
:100DA000D70115968C91159780FF87C18F70159686
:100DB0008C93E9CFBB2059F0093309F090C1BFEF04
:100DC000E7EEF3E0B150E040F040E1F786C1812F5B
:100DD0000E94B52087C1812F837009F069C0A110DE
:100DE00085C1902F929596959770990F990F802FA6
:100DF0008F70882E912CA12CB12C092E04C0880C48
:100E0000991CAA1CBB1C0A94D2F704FF12C04FE025
:100E100050E060E070E004C0440F551F661F771F6C
:100E20009A95D2F7DB01CA0180959095A095B0956F
:100E300003C080E090E0DC0116951695412F4370C9
:100E4000423019F1C8F40091E7061091E8062091AC
:100E5000E9063091EA06413059F088299929AA29F2
:100E6000BB29BC01CD0160237123822393230AC0D7
:100E7000802A912AA22AB32ABC01CD0168297929A6
:100E80008A299B290E94621A31C188299929AA2995
:100E9000BB290091E7061091E8062091E906309100
:100EA000EA06BC01CD016027712782279327EACF8C
:100EB000AA2019F0812F817001C08695882309F43A
:100EC00015C1902F929596959770990F990F802F35
:100ED0008F70882E912CA12CB12C092E04C0880C67
:100EE000991CAA1CBB1C0A94D2F704FF12C04FE045
:100EF00050E060E070E004C0440F551F661F771F8C
:100F00009A95D2F7DB01CA0180959095A095B0958E
:100F100003C080E090E0DC0116951695412F4370E8
:100F20004230D9F068F500913D0410913E042091C3
:100F30003F0430914004413059F088299929AA2969
:100F4000BB29BC01CD0160237123822393231EC0E2
:100F5000802A912AA22AB32A13C088299929AA296A
:100F6000BB2900913D0410913E0420913F04309133
:100F70004004BC01CD01602771278227932706C05A
:100F8000BC01CD01682979298A299B290E94E11990
:100F9000ADC01F70AA2039F0812F0E94411A802F06
:100FA0000E94C020A3C0802F0E94B520812F0E94E4
:100FB000031A9CC0802F22EF921609F440C0291515
:100FC00038F030EF931661F041EF941699F170C04C
:100FD00053EF9516D9F194EF991609F44EC068C0F5
:100FE000AA2019F1A4E0AB1508F47CC01F7181E0C0
:100FF00090E0A0E0B0E0AC01BD0104C0440F551F7B
:10100000661F771F1A95D2F780913D0490913E0498
:10101000A0913F04B09140048A019B010827192741
:101020002A273B27C901B80121C025E02B1508F468
:1010300059C0DCCFAA2029F0812F8F712CC0AA20A3
:10104000D9F3812F8F710E94031A4CC0AA2089F016
:101050001F7181E090E0A0E0B0E0BC01CD0104C0D0
:10106000660F771F881F991F1A95D2F70E94E11902
:1010700039C060E070E0CB01F9CFAA2079F01F7190
:10108000812F0E94411A38E0139FC0011124836010
:101090008093E206812F0E94411A24C081E00E94C1
:1010A000281A41E04B15F0F482E00E94281A1AC079
:1010B000AA2039F0BB2009F4BFCF802F0E9448211D
:1010C00011C0BB2009F4BDCF893349F45FEF87EE2F
:1010D00093E0515080409040E1F700C00000802F25
:1010E0000E94CA2088EF8C0D843010F40E94A4095D
:1010F000DD20B1F08091E20680FD12C0D70112968A
:101100001C928595859585950E94411AC7010E947C
:101110002D028091E2068595859585950E94031A9A
:1011200085E0F701DE01949601900D928A95E1F732
:101130008CA19DA10E9488199DA1B0E38B9FF00115
:10114000112406E0909FE00DF11D11248CA1E80F01
:10115000F11DEE0FFF1FEA58FE4F8591949102C0DA
:1011600069E20FCDAD960FB6F894DEBF0FBECDBFCE
:10117000DF91CF911F910F91FF90EF90DF90CF9073
:10118000BF90AF909F908F9008959091410492FFEF
:101190000DC0282F2871283019F4877F846006C07D
:1011A000282F2471243011F48B7F886093FF0DC0A9
:1011B000282F2871283119F4877E846106C0282FD2
:1011C0002471243111F48B7E88612091420420FF28
:1011D0000DC0382F3871383019F4877F816006C010
:1011E000382F3171313011F48E7F886021FF0DC0AE
:1011F000282F2871283119F4877E816106C0282F95
:101200002171213111F48E7E886194FD877E0895CD
:101210001F93CF93DF93CDB7DEB767970FB6F894E0
:10122000DEBF0FBECDBF4B8B5C8B6D8B7E8B8F8BF0
:1012300086E09E01235F3F4FD901E82F1D92EA957A
:10124000E9F795E0FE017396D90101900D929A9508
:10125000E1F7F901DE01179601900D928A95E1F709
:10126000CE0107960E94E61A81113EC086E0FE017B
:101270003796DE01119601900D928A95E1F7FF8174
:10128000E8856A857B856115710531F0EF3F31F4A2
:1012900081E0FF3F19F403C081E001C080E080FDE0
:1012A00023C02091920630E0C901019687709927EA
:1012B0004091C30650E08417950779F1F983EA83DA
:1012C0007D836C8396E0929FD001939FB00D112493
:1012D000AD56B94FFE01319601900D929A95E1F706
:1012E000809392060E94701A16E08091C306909136
:1012F00092068917F9F0189FC00111248D56994F55
:101300000E94E61A8823B1F08091C30690E001960E
:10131000877099278093C306E8CF0E94A620109279
:1013200092061092C306ECE8F6E086E0DF011D921B
:101330008A95E9F767960FB6F894DEBF0FBECDBF6A
:10134000DF91CF911F910895E0914304F0914404FF
:10135000309721F00190F081E02D099480E008950C
:101360000E942C18DC01CB01805A9541AF4FBF4F32
:101370008093730690937406A0937506B0937606D7
:101380008091770681110BC062E070E086EF92E0F9
:101390000E94F91C892B19F481E0809377068091D3
:1013A0007706089581E08093E40368E070E088E3C5
:1013B00093E00C94951C81E08093E50368E070E075
:1013C00088EB92E00C94951C60911C07616060931F
:1013D0001C0787E090E00E94062462E070E088E944
:1013E00092E00C94951C1F920F920FB60F9211244D
:1013F0004F925F926F927F928F929F92AF92BF9225
:10140000CF92DF92EF92FF922F933F934F935F9390
:101410006F937F938F939F93AF93BF93CF93DF93FC
:10142000EF93FF9380911B07882309F4C2C1C091F9
:101430002A04D0912B041C161D060CF0BAC1409052
:10144000260450902704609028047090290420E01E
:1014500030E0A901C301B2010E94FF2518160CF06B
:1014600065C0C130D10509F452C080912404909127
:101470002504BE010E94F6277C01909325048093E9
:1014800024048090110790901207A0901307B09049
:10149000140720E030E040E85FE3C501B4010E949A
:1014A0003B24609311077093120780931307909366
:1014B0001407F701EE0FFF1FEE0FFF1FEC5FFB4F4E
:1014C000A301920160817181828193810E94AC2489
:1014D00020E030E040E05EE30E9404269B01AC0186
:1014E000C501B4010E94FF2518168CF4C7010196AE
:1014F000BE010E94F6279093250480932404109245
:101500001107109212071092130710921407E0911E
:101510002404F0912504EE0FFF1FEE0FFF1FEC5F78
:10152000FB4FC080D180E280F380E0C080919702C1
:101530002197882309F4BFC0C0900004D090010413
:10154000E0900204F090030420E030E0A901C7011C
:10155000B6010E94A724882309F4A2C0FE01EE0F61
:10156000FF1FEE0FFF1FEC5FFB4F80809180A2807A
:10157000B380A5019401C701B6010E94A72487FF8B
:1015800031C0A501940160E070E08CED93EC0E9405
:10159000AC2420E030E040E451E40E94AC2420E0A0
:1015A00030E040E05FE30E9404269B01AC0160E074
:1015B00070E080E090E40E9471269B01AC01C501BF
:1015C000B4010E9404269B01AC01C701B6010E9430
:1015D000A72487FF07C0A701960160E070E08CEDAB
:1015E00093E439C0A5019401C701B6010E94FF250B
:1015F00018160CF055C0A501940160E070E08CED68
:1016000093E40E94AC2420E030E040E451E40E94E6
:10161000AC2420E030E040E05FE30E9404269B0120
:10162000AC0160E070E080E090E40E9471269B01D4
:10163000AC01C501B4010E9404269B01AC01C701A5
:10164000B6010E94FF2518165CF5A701960160E01F
:1016500070E08CED93EC0E94AC2420E030E040E49C
:1016600051E40E94AC2420E030E040E05FE30E94BF
:1016700004269B01AC0160E070E080E090E40E94F1
:1016800071269B01AC01C701B6010E94042660933C
:1016900000047093010480930204909303041EC01D
:1016A000CC0FDD1FCC0FDD1FCC5FDB4F8881998114
:1016B000AA81BB810BC0FE01EE0FFF1FEE0FFF1FC3
:1016C000EC5FFB4F80819181A281B3818093000404
:1016D00090930104A0930204B0930304C09000040B
:1016E000D0900104E0900204F09003048091FE0386
:1016F0009091FF038F3F2FEF920729F0019690936F
:10170000FF038093FE038091CC03811116C01092D9
:10171000970280E090E0A0E0BFE380939302909373
:101720009402A0939502B093960210922604109210
:101730002704109228041092290420E034E244EF98
:1017400051E4C701B6010E94A72487FF08C046EFF5
:10175000C42E48E2D42E44EFE42E41E4F42E20E0DF
:1017600030E040E051E4C701B6010E9404269B012D
:10177000AC0160E074E284E79BE40E94AC246B015E
:101780007C010E941E257093970060939600209123
:101790009302309194024091950250919602C701B4
:1017A000B6010E9404260E941E2570939900609342
:1017B000980080911A07882309F45AC1C0900B073A
:1017C000D0900C07E0900D07F0900E0720E030E07D
:1017D000A901C701B6010E94FF2518160CF052C0DE
:1017E0008091FE039091FF038F3F2FEF920729F026
:1017F00001969093FF038093FE038091CC038111A7
:1018000016C01092970280E090E0A0E0BFE38093C2
:10181000930290939402A0939502B0939602109233
:10182000260410922704109228041092290420E024
:1018300030E040E051E4C701B6010E9404269B015C
:10184000AC0160E074E284E79BE40E94AC246B018D
:101850007C010E941E257093970060939600209152
:101860009302309194024091950250919602C701E3
:10187000B6010E9404260E941E2570939900609371
:10188000980008C01092970010929600109299004C
:101890001092980060910507709106076F5F7F4F67
:1018A000709306076093050720919600309197008A
:1018B00080E090E0232B71F12091FD0321112AC0DB
:1018C000C0919600D09197000E944D256B017C013C
:1018D000BE0180E090E00E944D259B01AC0160912B
:1018E0000707709108078091090790910A070E94E5
:1018F000AC2420E03FEF4FE757E40E94042620E0AD
:1019000030E040E85FE30E943A249B01AC01C7014C
:10191000B6010AC00E944D252091070730910807A3
:101920004091090750910A070E94FF2587FDA0C03A
:1019300080910F0790911007019690931007809364
:101940000F07209116073091170782179307B0F001
:1019500080911507882329F01092100710920F0725
:101960000DC0809171008D7F8093710080919000F7
:101970008F738093900010921A0782C02091FD030C
:1019800080910F0790911007E0911807F0911907C7
:1019900021113FC021E02093FD039C01215031091A
:1019A0003093100720930F0733E0880F991F3A9563
:1019B000E1F7E80FF91FDF011897CD90DD90ED906A
:1019C000FC902081318142815381C701B6010E9480
:1019D000A724811109C010920B0710920C071092D6
:1019E0000D0710920E0708C0C0920B07D0920C078B
:1019F000E0920D07F0920E0780E090E0A0E8BFE3D0
:101A00008093070790930807A0930907B0930A07EC
:101A10002BC01092FD031092FF031092FE0323E0EF
:101A2000880F991F2A95E1F7E80FF91F80819181AE
:101A3000A281B38180930B0790930C07A0930D07AD
:101A4000B0930E0720E030E040E85EE364817581EA
:101A5000868197810E940426609307077093080788
:101A60008093090790930A071092060710920507C2
:101A700080911C0780FD04C010921A0710921B076A
:101A8000FF91EF91DF91CF91BF91AF919F918F9196
:101A90007F916F915F914F913F912F91FF90EF90C8
:101AA000DF90CF90BF90AF909F908F907F906F907E
:101AB0005F904F900F900FBE0F901F90189580E091
:101AC00090E00E9400248C3E9E4F11F00E94A518C9
:101AD00087E090E00E94F82380931C0780911D0707
:101AE000811129C03E9A809171008D7F8093710091
:101AF00082E0809390008AE18093910081EC91E1F3
:101B0000909397008093960023EA3BE04EE855E4DB
:101B10006091930270919402809195029091960247
:101B20000E9404260E941E257093990060939800DD
:101B300081E080931D0780911C0780FF06C063E051
:101B400070E08BE792E00C94951C089580911D073E
:101B5000811102C00E945F0D10922B0410922A0482
:101B6000809171008D7F80937100809190008F73C0
:101B70008093900010921A0710921B071092000495
:101B8000109201041092020410920304E4E0F4E0C5
:101B9000ADEEB3E011921192119211921D921D922D
:101BA00084E0E432F807B1F708958091E5038111EC
:101BB0000C94A60D08950E94D50D1092E50368E0DF
:101BC00070E088EF92E00C94951C62E070E088EA87
:101BD00092E00E94951C2FEF81EE94E0215080400E
:101BE0009040E1F700C000000E94A60D60911C0724
:101BF0006E7F60931C0787E090E00C940624CF92E0
:101C0000DF92EF92FF920F931F93CF93DF93682F92
:101C100070E065547109072E000C880B990B0E9427
:101C20004F2520E030E040E451E40E94AC249B01C9
:101C3000AC0160E070E080E090E40E9471266B01EE
:101C40007C0180911B07882309F488C080911D07BF
:101C5000811102C00E945F0D20E030E04CED53E4A2
:101C6000C701B6010E9404266B017C0104E214E066
:101C7000C7E0D0E0A7019601F8019291829172919C
:101C800062918F010E94A724811131C0FE01EE0FE5
:101C9000FF1FEE0FFF1FEC5FFB4F108211821282BD
:101CA0001382DE01AA0FBB1FA351BC4F11961C92D9
:101CB0001E92C730D105E9F0219644815581668195
:101CC00077814083518362837383148215821682E5
:101CD000178212968D919C91139711969C938E93D7
:101CE00013961C921E92129734961296E2CF219769
:101CF00008F680912A0490912B04019797FD05C066
:101D000090932B0480932A0404C010922B04109209
:101D10002A0480912A0490912B042091240430916C
:101D200025042817390724F0109225041092240462
:101D3000892BA1F4809171008D7F80937100809137
:101D400090008F7380939000109200041092010411
:101D5000109202041092030410921B07DF91CF919E
:101D60001F910F91FF90EF90DF90CF900895CF9249
:101D7000DF92EF92FF92682F70E065547109072E91
:101D8000000C880B990B0E944F2520E030E040E4C6
:101D900051E40E94AC249B01AC0160E070E080E063
:101DA00090E40E9471266B017C0180911D078111D6
:101DB00002C00E945F0D80911C0780FF52C080917D
:101DC0002A0490912B0408970CF04BC0809171006D
:101DD0008D7F8093710080911A0781110E94A60D5A
:101DE00020E030E04CED53E4C701B6010E94042628
:101DF0006B017C0181E080931B071092FF0310921E
:101E0000FE0320E030E0A901C701B6010E94FF25D2
:101E10001816ECF480912A0490912B04FC01EE0F2B
:101E2000FF1FEE0FFF1FEC5FFB4FC082D182E282EB
:101E3000F382FC01EE0FFF1FE351FC4F2FE030E077
:101E400031832083019690932B0480932A04809100
:101E5000710082608093710080919000806880930F
:101E60009000FF90EF90DF90CF9008958091EC0369
:101E7000811112C08091D80080618093D8008AE1DE
:101E80008A95F1F700C08091D90080FD02C082E000
:101E900001C081E08093EC0381E09091EC039130EC
:101EA00009F080E00895CF93DF9320E3829FC00183
:101EB0001124FC0136E0739FE00DF11D1124E60FA3
:101EC000F11DEE0FFF1FEA58FE4FC591D491CE01D0
:101ED000C238D10569F1B0F4C133D10509F475C038
:101EE00048F4C932D10509F469C0CA32D10509F4F0
:101EF00073C079C0C533D10509F459C0C933D105C0
:101F0000B9F071C0C33ED10571F138F4C03ED105BE
:101F1000B1F0C23ED10511F166C0C63ED105B9F19E
:101F2000C73ED105C9F1C43ED10509F05CC024C04B
:101F30002091410420FD3CC121FD3AC154C02091B3
:101F4000410420FD2FC12091420420FF36C1809121
:101F5000410484FD24C183EE90E02FC1209141040F
:101F600022FF2BC1F4CF8091410482FD1EC18091DC
:101F7000420480FD1DC1EBCF2091420421FF1DC111
:101F80008091410484FD0BC187EE90E016C1209141
:101F9000410423FF12C1F4CF8091410483FD0BC1A2
:101FA0008091420481FFECCF84EE90E006C1209145
:101FB000410425FF02C189E290E0FFC02091410465
:101FC00025FFFBC085E390E0F8C02091410426FF87
:101FD000F4C08AE290E0F1C02091410426FFEDC0F8
:101FE00081E390E0EAC0C11543E5D407A0F5C1152F
:101FF00052E5D50708F09CC0C11520E2D207C0F415
:10200000C11531E0D30708F0D8C0C53AD10540F476
:10201000C430D10508F0D1C0219709F4CEC0BFC0AB
:102020009E01205E31092830310508F0B8C0C5C0D6
:10203000C11541E5D40708F076C0C11550E5D507B4
:1020400008F051C0C11580E4D80708F4A8C0CE013B
:102050009F70906AB2C0C11526E5D20700F5C11580
:1020600035E5D30708F07FC0C11544E5D40708F073
:1020700075C09E012370332781E090E0AC0102C05F
:10208000440F551F2A95E2F72C2F2695269530E20E
:10209000239FC0011124842B952B9A688EC0C115F3
:1020A0005AE5D50778F4C11589E5D80708F064C06A
:1020B000C11528E5D20708F472C09C2F8827806FCD
:1020C000906A7BC0CE0190568115904208F067C09F
:1020D0008D2F8F710E94C5089E01332730628F714A
:1020E000A901582B5AC0CE01F4E096958795FA9530
:1020F000E1F7282F23703C2F337081E090E002C07D
:10210000880F991F3A95E2F79C68AC01522B8C2FEF
:102110008F70282F2695269530E2239FC001112429
:10212000842B952B4AC09C2F8827816F906A45C0CD
:102130009E012370332781E090E0AC0102C0440F80
:10214000551F2A95E2F72C2F2695269530E2239FDE
:10215000C0011124842B952B9C682FC09C2F8827AD
:10216000846F906A2AC08C2F0E94C5088F7190E0FE
:10217000982F8827906221C08C2F8F700E94C508ED
:102180009E0194E0369527959A95E1F72F7030E0FF
:10219000322F22273069A901482BCA010EC080E0E6
:1021A00090E00BC089E390E008C082EE90E005C0AB
:1021B00080EE90E002C086EE90E0DF91CF9108952E
:1021C0000F931F93CF93DF93C42FD22FFC018281F3
:1021D0008823C9F04093E6030E94381890932D0499
:1021E00080932C0480E28C0F883008F05EC0C770AA
:1021F00081E001C0880FCA95EAF7DF91CF911F9166
:102200000F910C94C0208091E60348133EC080914A
:102210002C0490912D040E941D18883C9105A8F56E
:1022200010E21D0FCD17B9F080E28C0F883040F41A
:10223000C77081E001C0880FCA95EAF70E94B520F7
:10224000183048F481E09D2F977001C0880F9A954F
:10225000EAF70E94C020802F0E944821093349F4E8
:10226000FFEF27EE83E0F15020408040E1F700C00F
:102270000000802F0E94CA201830B8F4D77081E087
:1022800001C0880FDA95EAF70AC080E28C0F883027
:1022900060F4C77081E001C0880FCA95EAF7DF914A
:1022A000CF911F910F910C94B520DF91CF911F9189
:1022B0000F9108956F927F928F929F92AF92BF92EB
:1022C000CF92DF92EF92FF920F931F93CF93DF9302
:1022D00066EB73E003E314E027E3E22E24E0F22E42
:1022E0003801C0E0AA24A394B12CDB018D91BD017B
:1022F000E82FE295EF70F0E021A18F70A50102C0F8
:10230000440F551F8A95E2F7CA01242B21A322A16D
:10231000942E9094292122A350EA5A95F1F79EEB2E
:10232000C92E93E0D92E20E030E0D0E0D6018D9088
:102330006D01482D42954F7050E0DA0190964C9116
:1023400050E0B82DBF7002C055954795BA95E2F799
:1023500040FD07C04A2D022E01C0440F0A94EAF73F
:1023600001C040E0D42B2F5F3F4F26303105F1F6FE
:1023700091A1992291A292A1892B82A3F30180813C
:10238000D81719F0D08381E001C080E0C82BFFEF9F
:102390006F1A7F0AE614F70409F0A7CFD0903C0427
:1023A000CC2349F081E08093EA030E94381890938F
:1023B000E9038093E8038091EA038823A9F08091E0
:1023C000E8039091E9030E941D18069768F0ED2D2F
:1023D000F0E0EA5BFB4FD8018D918D018193EA1605
:1023E000FB06C9F71092EA030E94360F8823B9F062
:1023F00010913B040E94AB23892B09F06BC0E12FA5
:10240000F0E0EA5BFB4F80E090E0DC01A25DBB4FB7
:102410002C912193019684309105B9F711C0E09178
:102420003C04F0E0EA5BFB4F80E090E02191DC01AE
:10243000A25DBB4F2C93019684309105B9F75CC027
:102440001092EB038091E103882309F455C0809139
:10245000DD039091DE03009781F40E943818909379
:10246000DE038093DD032091DF0330E02115310589
:1024700071F48091E00390E00BC00E941D18209140
:102480000102309102022817390738F335C0C9011B
:102490000197F901E353FC4FD0812091E5032223FA
:1024A00031F0FC01E353FC4F80810E94FF0D8091CD
:1024B000E503882319F08D2F0E94B70E8091DF036A
:1024C00090E001966091E00370E00E94F62780930F
:1024D000DF0312C08091EB038F5F8093EB038630A4
:1024E00008F4B0CFE0913B04F0E0EA5BFB4F1082D0
:1024F000118212821382A6CF8C2FDF91CF911F9170
:102500000F91FF90EF90DF90CF90BF90AF909F9092
:102510008F907F906F900895E8EDF0E080818E7F3E
:1025200080831092E2001092DA001092E100A0EE97
:10253000B0E08C9181608C9380818F77808319BC0F
:10254000A7EDB0E08C918E7F8C9380818F7E80830D
:10255000109283060895CF92DF92EF92FF920F932D
:102560001F93CF93DF93C8EDD0E088818F7E88835F
:10257000E7EDF0E080818160808384E082BF81E0CC
:102580008093830688818E7F888302EE10E0F801B5
:1025900010821092DA0081EEC82ED12CF601108242
:1025A00088818F77888388818068888388818F7D00
:1025B000888319BC1092FB061092FC061092FA0652
:1025C0001092F90690EEE92EF12CF70180818B7FB5
:1025D000808388818160888360E080E00E94481D5C
:1025E000F60180818E7F8083F80180818160808305
:1025F000808188608083F70180818E7F80838881DD
:1026000080618883DF91CF911F910F91FF90EF90B0
:10261000DF90CF9008951F920F920FB60F92112462
:102620002F933F934F935F936F937F938F939F93DA
:10263000AF93BF93EF93FF938091E10082FF09C0B6
:102640008091E20082FF05C08091E1008B7F809342
:10265000E1008091DA0080FF2AC08091D80080FFDD
:1026600026C08091DA008E7F8093DA008091D900B5
:1026700080FF18C080E189BD82E189BD09B400FEF8
:10268000FDCF81E08093FB068091830681110FC00E
:102690000E948C120E94AB128091E20084608093B1
:1026A000E20005C019BC1092FB06109283068091CF
:1026B000E10080FF17C08091E20080FF13C080918D
:1026C000E2008E7F8093E2008091E200806180933F
:1026D000E2008091D80080628093D80019BC85E028
:1026E0008093FB068091E10084FF32C08091E2007C
:1026F00084FF2EC080E189BD82E189BD09B400FE5E
:10270000FDCF8091D8008F7D8093D8008091E1002B
:102710008F7E8093E1008091E2008F7E8093E200C3
:102720008091E20081608093E2008091FC06882322
:1027300011F084E007C08091E30087FD02C081E0D2
:1027400001C083E08093FB060E94A6200E94A4099A
:102750008091E10083FF26C08091E20083FF22C0C8
:102760008091E100877F8093E10082E08093FB0607
:102770001092FC068091E1008E7F8093E1008091B1
:10278000E2008E7F8093E2008091E200806180937E
:10279000E20060E080E00E94481D8091F0008860C7
:1027A0008093F000FF91EF91BF91AF919F918F9136
:1027B0007F916F915F914F913F912F910F900FBE3D
:1027C0000F901F9018952091E4003091E50095E658
:1027D0004091EC00842F817040FF23C08091E8007D
:1027E00080FD1DC08091FB06882399F0853099F00B
:1027F0008091EB0085FD11C04091E4005091E5000F
:102800002417350729F3915011F09A01E1CF84E0A4
:10281000089582E0089583E0089581E0089580E0BE
:1028200008954091E80042FFDDCF08958091FD06B4
:1028300087FF11C08091E80082FD05C08091FB06F2
:102840008111F8CF11C08091E8008B770BC0809187
:10285000FB06882349F08091E80080FFF8CF809143
:10286000E8008E778093E800089520910307309167
:1028700004072617370748F06115710539F42091D0
:10288000E8002E772093E80001C0B901FC0120E0A8
:102890006115710579F18091FB068823F1F185308E
:1028A000F1F18091E80083FD3CC08091E80082FD59
:1028B0002EC08091E80080FFEBCF2091F300809143
:1028C000F20090E0922B6115710551F0883091056E
:1028D00038F421912093F100615071090196F3CFF2
:1028E00021E0089709F020E08091E8008E7780933E
:1028F000E800CECF2111CFCF0AC08091FB068823FC
:1029000061F0853061F08091E80083FD0AC080911C
:10291000E80082FFF2CF80E0089582E0089583E02E
:10292000089581E00895CF93DF93CDB7DEB72C975C
:102930000FB6F894DEBF0FBECDBF84B7877F84BFCC
:102940000FB6F894A895809160008861809360002C
:10295000109260000FBE90E080E80FB6F89480936C
:102960006100909361000FBE85B7806885BF85B711
:10297000806885BF0E948C120E94AB128091E20099
:1029800084608093E20078948091FB068823A1F014
:102990001091E9001F709091EC00892F817090FDDB
:1029A00080E8182B1092E9008091E80083FD0E94D6
:1029B0007D1D1F701093E90082E084BD93E095BDFA
:1029C0009AEF97BD80936E000E94360F809380032C
:1029D0000E94360F882331F061E070E088E793E0D1
:1029E0000E940C238091800380918003811102C09A
:1029F00094E001C090E090933C0484E0891B8093B4
:102A00003B04A6EBB3E04AEB53E061E070E08D914C
:102A1000E82FE295EF70F0E021A18F708B0102C0EA
:102A2000000F111F8A95E2F7C801902F909592230D
:102A300091A392A1892B82A34A175B0741F7AEEBC2
:102A4000B3E044EC53E061E070E08D91E82FE29553
:102A5000EF70F0E021A18F708B0102C0000F111FF9
:102A60008A95E2F7C801902F9095922391A392A1A5
:102A7000892B82A34A175B0741F7E3E3F4E08BE37A
:102A800094E0A6E4B4E011921D928E179F07D9F747
:102A90000E945A118FE39CE90197F1F700C00000F2
:102AA0000E945A118091460480FF08C06FEF7FEFAB
:102AB00080E090E00E9424240E94D31780E090E000
:102AC0000E9400248C3E9E4F11F00E94A5180E9487
:102AD0005F0D0E94360F811106C061E070E088E74B
:102AE00093E00E94132310926F0680E880934E04B7
:102AF0000E94CA216DE070E08BE093E00E94F91C17
:102B0000892B09F03FC080916F0663E070E081FD82
:102B100036C088E093E00E94F91C892B99F56DE09E
:102B200070E088EF92E00E94F91C892B59F50E9411
:102B30002C18DC01CB01805A9541AF4FBF4F8093D9
:102B4000730690937406A0937506B093760680E0A2
:102B500092E0EFE6F4E0DF018C011D92015010409D
:102B6000E1F78FEF9FEF909372068093710681E0FB
:102B700080937806809377061092700603C085E0F4
:102B800093E0C9CF80E090E00E9400248C3E9E4FED
:102B900011F00E94A51882E090E00E94F823809333
:102BA0007A060E949418909342048093410483E033
:102BB00090E00E94F823682F70E080E090E00E948F
:102BC000621A88E893E0909344048093430422249B
:102BD0002394312CF3E06F2EDD24DA948091FB06F0
:102BE000853009F03AC08091FB06843021F11092C3
:102BF000450480E428E130E00FB6F894A8952093CE
:102C000060000FBE8093600083B7817F846083BFC4
:102C100083B7816083BF7894889583B78E7F83BFA5
:102C20000FB6F894A8958091600088618093600049
:102C3000109260000FBE8091FA06882309F4CECF6F
:102C40000E945A11E6E4F4E08191811164C18EE49E
:102C500094E08E179F07C1F7C1CF0E945A11C82E6A
:102C60000E94360F8823A1F1EBE7F6E0A6E4B4E07A
:102C700000E010E0302F2D919191922721F180E01A
:102C8000FF24F3944F2D4923D1F089833A832F21D8
:102C900081E009F480E08B830E9438188160782FEE
:102CA0009D838C8349815A816B818D810E940809A3
:102CB000F801E558F94F8081F826F08218C08F5F3F
:102CC000FF0C8630F9F60F5F1F4F0830110591F6A3
:102CD000DE82DF8218860E9438188160782F9A87FA
:102CE00089874E815F8168858A850E940809809165
:102CF0007806882309F400C120917106309172068C
:102D00002115310509F4D8C0809170068111D4C015
:102D1000482E512C7101082E02C0EE0CFF1C0A94A3
:102D2000E2F7A9014E215F21452B11F48F5FF0CF0F
:102D300090916F06920175E0220F331F7A95E1F7AB
:102D400090FD12C08295880F807680938303220FB6
:102D5000232F221F330B319520938603815E8093AE
:102D600084031092870311C055E0369527955A9534
:102D7000E1F7220F220F220F209383031092860384
:102D8000295F209384036092870324E630E047E0C4
:102D900050E061E873E088E70E945722892B09F030
:102DA0008BC080916F0680FD23C0C20145E0880F73
:102DB000991F4A95E1F7AC0141595B4F04E610E0D9
:102DC00020E230E060E488E70E947E22892B09F04F
:102DD00073C00E94B009E094F094809171069091C4
:102DE0007206E822F922F0927206E092710664C03F
:102DF000AFE4B4E0E0E21D92EA95E9F735E0440C77
:102E0000551C3A95E1F708EC13E01C870B8764EC3E
:102E100073E0AB85BC858D91BC87AB87FB0191913D
:102E2000BF01A201490F511D41595B4F90E0815BE9
:102E30009B4FFC0127E0A22E9F01281B390B822CFF
:102E400001C0880C2A95EAF78A01912CD801BD901F
:102E50008D01B8202A2D29192770722E022E000C00
:102E6000330BBB2D01C0BB0F7A94EAF77B2E319553
:102E7000219531092770332701C0B6942A95EAF7C6
:102E80007B28B0807B287082939428E09212DECF5A
:102E9000AA9431963FEFA312CFCF8CEC93E0AB8591
:102EA000BC858A179B0709F0B4CF04E610E020E246
:102EB00030E04FE454E086CF809177068823E1F03C
:102EC0000E942C18009173061091740620917506CB
:102ED00030917606DC01CB01801B910BA20BB30B6A
:102EE000B7FD0AC062E070E088E193E00E94F91C3F
:102EF000892B11F410927706C1100E94B0090E942C
:102F0000A40990917906891709F468CE0E94A40952
:102F10008093790663CEB0E1B9BDE2E1E9BD09B4C1
:102F200000FEFDCF8091D8008F7D8093D8008091E6
:102F3000E00082608093E0008091E00081FDFCCFA2
:102F40004DCE0895089508958091F0060895CF9389
:102F5000DF9321E02093E9002FEF3091E80021502A
:102F600035FD06C035ED3A95F1F700002111F5CF9A
:102F70002091E80025FF14C0EC0140E050E068E03B
:102F800070E00E94221D8091E8008E778093E80017
:102F900088E0FE01A1EFB6E001900D928A95E1F77D
:102FA000DF91CF91089581E08093E00080E28093EB
:102FB000D8001092C9008FE19EE40197F1F700C09C
:102FC000000087E090EBDC018093240790932507B5
:102FD000A0932607B09327079CE088E10FB6F894EA
:102FE000A895809360000FBE90936000FFCF789407
:102FF0001F920F920FB60F9211248F939F93AF934E
:10300000BF938091EB069091EC06A091ED06B091F4
:10301000EE060196A11DB11D8093EB069093EC0680
:10302000A093ED06B093EE06BF91AF919F918F9163
:103030000F900FBE0F901F9018959C014FB7F894FA
:103040008091EB069091EC06A091ED06B091EE0612
:103050004FBF821B930B08952FB7F8946091EB0636
:103060007091EC068091ED069091EE062FBF0895C9
:103070002FB7F8948091EB069091EC06A091ED06A5
:10308000B091EE062FBF08951F920F920FB60F92C8
:1030900011248F939F93AF93BF9380914504811127
:1030A00013C08091EB069091EC06A091ED06B091D3
:1030B000EE064196A11DB11D8093EB069093EC06A0
:1030C000A093ED06B093EE06BF91AF919F918F91C3
:1030D0000F900FBE0F901F9018959C012A5F3F4FD5
:1030E000FC014281461301C01282019682179307A8
:1030F000B9F708959C01FC0132969FEF80E0419161
:10310000461789F09F3F19F4411101C0982F8F5F36
:103110008630A9F79F3F39F0F901E90FF11D97FDBE
:10312000FA95628308950895CF9384E090E00E9419
:10313000F823C82F81E290E00E94F8232C2F30E082
:10314000A901582BCA01CF9108956CEE7EEF80E063
:1031500090E00E94242460E082E090E00E94062437
:1031600060E083E090E00E9406241092E70610924F
:10317000E8061092E9061092EA0660E084E090E02A
:103180000E94062460E081E290E00E94062460E054
:1031900085E090E00E94062460E086E090E00E94D6
:1031A00006246FEF87E090E00E94062440E050E0A4
:1031B000BA0188E090E00E94182460E08DE090E081
:1031C0000E94062440E050E0BA0188E190E00E94AD
:1031D000182460E087E190E00E94062440E050E07F
:1031E000BA018CE190E00E94182460E080E290E057
:1031F0000E94062440E050E0BA018FE090E00E9477
:10320000182440E050E0BA0183E190E00C941824C7
:103210008091E60681111092E60608959091E506E8
:103220008091E406892B2091E306982F922B9093AE
:1032300084068091E606882389F0892B8093840692
:10324000E6E8F6E097E080E0915029F02191222312
:10325000D9F38F5FF9CF81110E940819E0914304DF
:10326000F0914404309731F00280F381E02D84E83E
:1032700096E009940895BF92CF92DF92EF92FF9269
:103280000F931F93CF93DF938C01C0903D04D09098
:103290003E04E0903F04F09040048091E706909156
:1032A000E806A091E906B091EA06C82AD92AEA2AD6
:1032B000FB2ACFE1D0E0D701C6010C2E04C0B695A1
:1032C000A795979587950A94D2F780FD04C021971A
:1032D00090F7B12C07C0BC2EB8018C2F0E94530F61
:1032E0000197A9F38B2DDF91CF911F910F91FF9043
:1032F000EF90DF90CF90BF900895CF93DF93EC01D4
:103300000E943B19BE010E94530FDF91CF91089597
:10331000292F220F920F990F890F682F66956695B6
:103320006695982F977085E0689FB001112440E062
:1033300050E080E0FB01E40FF51FEC53F94F2081D2
:1033400030E0092E02C0369527950A94E2F72170E5
:103350003327042E01C0220F0A94EAF7822B4F5F15
:103360005F4F4530510531F70895292F220F920FF5
:10337000990F890FE82FE695E695E695877051E05D
:1033800001C0550F8A95EAF785E0E89FF001112406
:10339000EC53F94F20E030E070E04081CB01022E89
:1033A00002C0969587950A94E2F7817081958427EB
:1033B0008523842781932F5F3F4F2530310569F79F
:1033C00008950F931F938B019C01067011272227EC
:1033D0003327DC01CB01063011052105310511F43D
:1033E000886001C0877F80933D0490933E04A09342
:1033F0003F04B09340041092E4061092E3061F913C
:103400000F910C940E190F931F9341E050E060E070
:1034100070E004C0440F551F661F771F8A95D2F7CE
:10342000409550956095709580913D0490913E0433
:10343000A0913F04B09140048A019B010823192305
:103440002A233B23C901B8011F910F910C94E11964
:103450002091E206809582238093E206982F977050
:1034600079F430E0482F082E000C550B241735074F
:1034700039F08595859585950E94031A1092E2068C
:1034800008950F931F9341E050E060E070E004C0A6
:10349000440F551F661F771F8A95D2F780913D0410
:1034A00090913E04A0913F04B09140048A019B0199
:1034B000082B192B2A2B3B2BC901B8011F910F9107
:1034C0000C94E1196093E7067093E8068093E9068F
:1034D0009093EA061092E4061092E3060C940E19FB
:1034E0008091C30690919206891719F08F5F8770BB
:1034F000FBCF08950F931F93CF93DF938091910695
:1035000082958F7009F05DC080918E06882309F442
:1035100058C08091C3061091920660918C067091FC
:103520008D06C0918F06D091900691E06F3F09F013
:1035300090E0292F06E0811709F443C0209721F07D
:103540007F3F21F030E003C031E001C0322F90E036
:1035500030FD34C0089FF001099FF00D1124DF01F8
:10356000AD56B94F11963C911197371327C03C9136
:10357000361324C012963C91129731111FC0139636
:103580004D915C9114974C1B5D0B483C5105B0F478
:10359000809191068F70806180939106E856F94F73
:1035A00080818F70806180838CE896E00E942D027C
:1035B000DF91CF911F910F910C94701A0196877033
:1035C000BACFDF91CF911F910F9108959F92AF9243
:1035D000BF92CF92DF92EF92FF920F931F93CF9300
:1035E000DF93CDB7DEB761970FB6F894DEBF0FBE9D
:1035F000CDBF8C0185E0F801DE011D9601900D9292
:103600008A95E1F7F80190818181E28030918C0602
:1036100060918D0640918F0650919006411551059D
:1036200031F06F3F31F421E03F3F19F403C021E056
:1036300001C020E0F22FF1709F2E20FD23C1F80180
:10364000C380D4802CE8A22E26E0B22EF0908E0605
:10365000F601E41BF50BFF2009F4CEC02091910682
:10366000E83CF10508F099C0422F407F09F051C0B5
:10367000681311C039130FC0FE2CE1100CC02F705D
:10368000206120939106C5010E942D028091910630
:10369000F801858337C1CD2831F08F3F31F421E027
:1036A0009F3F19F403C021E001C020E020FD03C0CA
:1036B00021E02E2502C020E030E0F22FF170FF2E35
:1036C00020FF1DC02091C3064091920656E02417AA
:1036D00009F4F6C030E0529FF001539FF00D112421
:1036E000ED56F94F6181861306C06081961303C0C1
:1036F0006281E61204C02F5F3F4F2770E8CFFE2C97
:10370000EE2009F4FFC080919106816080939106BC
:1037100050C0681307C0391305C0E11003C0F80199
:1037200025838DC09D878E878D859E850E947D20F7
:10373000882369F1EE2059F120919106822F82951C
:103740008F7090E0029774F080918C0690918D06B6
:1037500098878F831986DB86CA862C87CE010796C9
:103760000E942D0286E0F801ACE8B6E001900D92CF
:103770008A95E1F70E947A1A0DC06817E1F09D87DB
:103780008E878D859E850E947D2081111EC0C80177
:103790000E942D02FF24F394B5C0422F407F69F7A9
:1037A0008CE896E00E942D0286E0F50111928A9540
:1037B000E9F7F12CA7C03913E2CFE110E0CFF8010F
:1037C0002583C8010E942D0257C0EE2001F32091ED
:1037D0009106822F82958F7090E002971CF2809163
:1037E0008C0690918D069A8389831B82DD82CC8220
:1037F0002E83CE010196B4CFE83CF105E8F5FE2C0E
:10380000EE2029F2681327C0391325C020919106B4
:1038100020FD18C0822F82958F70482F50E04115EF
:10382000510581F0F80125834F30510541F08F5F3C
:10383000982F9295907F822F8F70892B8583C80156
:103840000E942D0286E0F801ACE8B6E001900D92EE
:103850008A95E1F757C09D878E878D859E850E944A
:103860007D2081117FCF80919106816080939106A8
:10387000C8010E942D0246C086E0F50111928A958A
:10388000E9F740C0EE2009F482CF9D878E878D85B1
:103890009E850E947D20F82E882309F478CF86E04B
:1038A000F801ACE8B6E001900D928A95E1F78091BD
:1038B0008C0690918D060E947D190E947A1A22C072
:1038C0009D878E878D859E850E947D19292F229543
:1038D0002F70223028F49F7039F0811105C00BC081
:1038E000243028F49F7049F4805E883020F0C801AD
:1038F0000E942D029F2CF92C05C0F8019581907F24
:1039000099F7F9CF8F2D61960FB6F894DEBF0FBEF1
:10391000CDBFDF91CF911F910F91FF90EF90DF907E
:10392000CF90BF90AF909F9008950F931F93CF9328
:10393000DF93EC018B0180911D07811102C00E9471
:103940005F0D80911C0780FF4FC0809171008D7FBB
:103950008093710080911B0781110E94A60D81E068
:1039600080931A07D0931907C0931807109317076D
:103970000093160710921507109211071092120764
:1039800010921307109214071092100710920F074D
:1039900088819981AA81BB8180930B0790930C0742
:1039A000A0930D07B0930E0720E030E040E85EE3FF
:1039B0006C817D818E819F810E9404266093070720
:1039C000709308078093090790930A0710920607DF
:1039D0001092050780917100826080937100809140
:1039E0009000806880939000DF91CF911F910F919C
:1039F0000895EF92FF920F931F93CF93DF93EC0103
:103A00007B0164E670E088E70E94D0218C01EC0E17
:103A1000FD1ECE15DF0561F017FD0AC0FE01849181
:103A200064E670E00E9427228C012196892B89F39D
:103A30000E94AB22C801DF91CF911F910F91FF909F
:103A4000EF9008950F931F93CF93DF938C010E9403
:103A5000E313811118C0E80108E010E08091E8004C
:103A600085FD0AC08091E8008E778093E8000E946F
:103A7000E313882399F307C089918093F1000150E3
:103A8000110961F780E0DF91CF911F910F910895A7
:103A9000982F973068F59093E900981739F0509176
:103AA000EC002091ED004091F00003C0562F40E063
:103AB00022E021FD02C09F5FECCF3091EB003E7F02
:103AC0003093EB003091ED003D7F3093ED0030916D
:103AD000EB0031603093EB005093EC002093ED004D
:103AE0004093F0002091EE0027FDE5CF80E008959F
:103AF0008F708093E90081E008951F93CF93DF9347
:103B0000CDB7DEB7AA970FB6F894DEBF0FBECDBF14
:103B1000EDEFF6E08091F100819327E0E530F207C8
:103B2000C9F78091FE06833009F460C030F481301B
:103B300071F0823009F49AC0B1C08A3009F486C0AD
:103B40008B3009F46BC0893009F0A8C020C0809187
:103B5000FD06813A09F0A2C08091E800877F80933A
:103B6000E8008091010790910207892B21F468E019
:103B700081EF96E003C060E080E090E070E00E949A
:103B800035148091E8008B778093E80087C080919E
:103B9000FD06813209F082C08091010790910207F1
:103BA000892B09F07BC08091E800877F8093E80033
:103BB0008091E80082FD05C08091FB068111F8CF5D
:103BC0006DC02091F3008091F20090E0922B02975B
:103BD00029F48091F1008B7F813021F48091F100F4
:103BE0008093F0068091E8008B7754C08091FD06A9
:103BF000813A09F053C08091010790910207892B07
:103C000009F04CC08091E800877F8093E8008091A4
:103C1000E80080FFFCCF8091920337C08091FD06C1
:103C20008132E1F58091010790910207892BB1F56E
:103C30008091E800877F8093E8000E9416148091AD
:103C4000FF06809392030E94A62028C08091FD0663
:103C5000813221F58091E800877F8093E8000E94FF
:103C60001614809100078093EF0618C08091FD061E
:103C7000813AA1F48091E800877F8093E8008091E9
:103C8000E80080FFFCCF8091EF068093F1008091E7
:103C9000E8008E778093E8000E9416148091E80077
:103CA00083FFBFC18091FD069091FE06492F50E031
:103CB0004A30510508F0B5C1FA01EE59FF4F0C9496
:103CC0000A28803821F0823809F0ABC108C0809101
:103CD000F9069091FA06992389F082600FC08091CD
:103CE00001078F70873008F09CC18093E9008091B4
:103CF000EB0085FB882780F91092E9009091E8009D
:103D0000977F9093E8008093F1001092F1005EC1DC
:103D1000282F2D7F09F085C1882319F0823061F0AA
:103D200080C18091FF06813009F07BC1933009F09A
:103D300080E08093FA062EC08091FF0681112AC090
:103D4000809101078F702FEF280F263008F069C18E
:103D50008093E9002091EB0020FF1CC0933021F4F8
:103D60008091EB00806214C09091EB009061909381
:103D7000EB0021E030E0A90102C0440F551F8A95F5
:103D8000E2F74093EA001092EA008091EB0088602D
:103D90008093EB001092E9008091E800877F19C1C1
:103DA00081113FC11091FF061F778091E300807859
:103DB000812B8093E3008091E800877F8093E80067
:103DC0000E9416148091E80080FFFCCF8091E300F0
:103DD00080688093E300111102C082E001C083E09B
:103DE0008093FB061EC18058823008F01AC1809172
:103DF000FF06909100078C3D53E0950779F583E02D
:103E00008A838AE289834FB7F894DE01139620E013
:103E10003EE051E2E32FF0E050935700E49120FFA1
:103E200003C0E295EF703F5FEF708E2F90E0EA30B5
:103E300010F0C79601C0C0968D939D932F5F2431DB
:103E400049F74FBF8091E800877F8093E8006AE2DE
:103E500070E0CE0101960E943514A7C04091010781
:103E600050910207292F332723303105A9F068F438
:103E70002130310509F4E4C02230310509F0D1C008
:103E800082E290E0EAE5F3E03DC02132310579F1CC
:103E90002232310581F1C5C0992781309105B9F0F1
:103EA00070F082309105D9F0039709F0BAC0EEE8BE
:103EB000F3E0E4918E2F90E0EEE8F3E020C0E4EC34
:103EC000F3E0E4918E2F90E0E4ECF3E018C0E0EB37
:103ED000F3E0E4918E2F90E0E0EBF3E010C0E4E932
:103EE000F3E0E4918E2F90E0E4E9F3E008C0452B85
:103EF00009F4ABC096C0452B09F4ACC092C0009742
:103F000009F48FC02091E800277F2093E8002091DA
:103F10000307309104078217930708F49C0140E0DF
:103F20002115310589F18091FB06882309F43DC0F4
:103F30008530D9F18091E80083FD37C08091E80099
:103F400082FD2FC08091E80080FFEACF4091F3000E
:103F50008091F20090E0942B2115310559F08830C2
:103F6000910540F444914093F1003196215031097C
:103F70000196F2CF41E0089709F040E08091E80017
:103F80008E778093E800CCCF4111CDCF0AC08091CD
:103F9000FB06882351F0853041F08091E80083FDD5
:103FA00004C08091E80082FFF2CF8091E8008B7717
:103FB0008093E80036C08038A1F58091E800877FC3
:103FC0008093E8008091FC068093F1008091E800E6
:103FD0008E778093E8000E94161423C0811121C0BF
:103FE0008091FF069091000799270297D4F4809161
:103FF000E800877F8093E8001091FF061093FC068D
:104000000E941614111106C08091E30087FD02C0C2
:1040100081E001C084E08093FB0661EC81E00E94B6
:10402000481D8091E80083FF1AC08091E800877FD7
:104030008093E8008091EB0080628093EB000FC0DA
:1040400082E190E0ECE7F3E05DCF89E090E0ECE620
:10405000F3E058CF80E490E0EAE1F3E053CFAA9692
:104060000FB6F894DEBF0FBECDBFDF91CF911F9189
:1040700008951F920F920FB60F9211242F933F9322
:104080004F935F936F937F938F939F93AF93BF9360
:10409000CF93DF93EF93FF93C091E900CF708091AE
:1040A000EC00D82FD17080FDD0E81092E90080910B
:1040B000F000877F8093F00078940E947D1D10921D
:1040C000E9008091F00088608093F000CD2BCF70E4
:1040D000C093E900FF91EF91DF91CF91BF91AF9134
:1040E0009F918F917F916F915F914F913F912F9110
:1040F0000F900FBE0F901F9018950E947D19292FC9
:104100002F70E92FE295EF704E2F50E0FA013297B1
:10411000EE30F105B8F4E459FF4F0C940A28803FC3
:1041200099F018F4883E70F40FC0843F59F40CC025
:10413000883E50F0813F31F407C0822F86958695E6
:104140008695089580E0089581E008951092E5062F
:1041500086E0E6E8F6E0DF011D928A95E9F7109225
:10416000E4061092E3060C940E19882341F0809522
:104170009091E50689238093E5060C940E19089525
:10418000882339F09091E506892B8093E5060C94FD
:104190000E190895882309F47AC0682F823869F4CB
:1041A0000E94A40981FF73C069E384E896E00E943D
:1041B0007A180E940E1969E30EC0833891F40E94A8
:1041C000A40980FF64C063E584E896E00E947A1841
:1041D0000E940E1963E584E896E00E946D180C9425
:1041E0000E19843869F40E94A40982FF50C067E464
:1041F00084E896E00E947A180E940E1967E4EBCFDB
:104200008CEF860F813A38F380E2860F883070F4A5
:10421000677081E090E001C0880F6A95EAF78095A9
:104220009091E50689238093E506D9CF8BE5860F2B
:104230008330A0F480911E0790911F07892B39F1DC
:1042400010921F0710921E07E0914304F09144045E
:104250003097E9F00680F781E02D16C0685A673183
:10426000B0F48091200790912107892B81F0109262
:10427000210710922007E0914304F0914404309705
:1042800031F00084F185E02D80E090E009940895FC
:10429000CF93882309F47CC0C82F8238B1F40E94E0
:1042A000A40981FD75C069E384E896E00E947A184C
:1042B0000E940E192FEF81EE94E021508040904033
:1042C000E1F700C0000069E317C08338D1F40E9411
:1042D000A40980FD5DC063E584E896E00E947A1839
:1042E0000E940E192FEF81EE94E021508040904003
:1042F000E1F700C0000063E584E896E00E946D18D5
:104300003CC08438B1F40E94A40982FD41C067E436
:1043100084E896E00E947A180E940E192FEF81EE31
:1043200094E0215080409040E1F700C0000067E435
:10433000E3CF8CEF8C0F813A80F4E6E8F6E08CE86E
:1043400096E02191C217E1F08E179F07D1F76C2FED
:1043500084E896E00E947A1810C080E28C0F8830C2
:10436000B8F4C77081E090E001C0880FCA95EAF701
:104370009091E506892B8093E506CF910C940E1958
:104380006C2F84E896E00E946D180E940E19DFCF12
:10439000CF9108951092B9008CE08093B8000895F1
:1043A000EF92FF920F931F93CF93DF93182FEB01A0
:1043B0001092BC0084EA8093BC000E9438187C01F3
:1043C0008091BC0087FD0EC0CF3F8FEFD807C1F3AF
:1043D0000E9438188E199F098C179D0788F38EEF5D
:1043E0009FEF2EC08091B900887F883041F0809186
:1043F000B900887F803119F08FEF9FEF21C01093B3
:10440000BB0084E88093BC000E9438188C01809126
:10441000BC0087FD0CC0CF3F8FEFD807C1F30E94CF
:104420003818801B910B8C179D0788F3D8CF80918B
:10443000B900887F883111F08034F1F680E090E097
:10444000DF91CF911F910F91FF90EF9008950F93FF
:104450001F93CF93DF93EB018093BB0084E880939D
:10446000BC000E9438188C018091BC0087FD0EC0F2
:10447000CF3F8FEFD807C1F30E943818801B910BF4
:104480008C179D0788F38EEF9FEF0CC02091B90029
:10449000287F81E090E0283211F480E090E091954F
:1044A00081959109DF91CF911F910F910895CF923E
:1044B000DF92EF92FF920F931F93CF93DF936B01E5
:1044C0008A017901B9010E94D021E6010C0D1D1D60
:1044D000C017D10761F424E92093BC00DF91CF918C
:1044E0001F910F91FF90EF90DF90CF90089597FD6F
:1044F000F2CFB70189910E942722EACFCF92DF92B3
:10450000EF92FF920F931F93CF93DF93C62F6A0111
:104510007901B8010E94D02197FD11C0B8018C2FFC
:104520000E942722E601EC0CFD1CCE15DF0539F0B8
:1045300097FD05C0B80189910E942722F6CF24E992
:104540002093BC00DF91CF911F910F91FF90EF90CE
:10455000DF90CF90089584E98093BC0008958EE1A8
:104560004A9B02C08150E1F74A9BFECF08955A98BA
:1045700080E28A95F1F75A9A0895FC012AE02A957B
:10458000F1F728E090E080E031E040E14A95F1F772
:10459000880F4A9B02C08160932700C0000040E161
:1045A0004A95F1F7215089F720E12A95F1F729B1D1
:1045B00000C0000030E13A95F1F722FB222720F9F4
:1045C00092272081920F90830895EF92FF920F938C
:1045D0001F93CF93DF931F92CDB7DEB719828C0163
:1045E0007C01E60EF11C0E151F0551F00E94AF2252
:1045F000CE0101960E94BD22F80181938F01F3CF75
:1046000081E09981911180E00F90DF91CF911F910E
:104610000F91FF90EF9008959093230780932207C6
:10462000529A5A9A0895909323078093220752989A
:104630005A9AEA9AE9E6F0E080818F7C80830895B7
:10464000615091E001C0990F6A95EAF720E031E0EE
:10465000992361F0492F482319F05A9A232701C062
:104660005A9840E24A95F1F79695F2CF222311F03D
:104670005A9A01C05A9880E28A95F1F75A9808959B
:10468000FF920F931F93CF93DF93EC018C01060FE2
:10469000111DC017D10741F0F9900E94B72268E0C0
:1046A0008F2D0E942023F5CFDF91CF911F910F9185
:1046B000FF9008951F920F920FB60F9211242F931F
:1046C0003F934F935F936F937F938F939F93AF939A
:1046D000BF93CF93DF93EF93FF935A98529AC09171
:1046E0002207D09123076D81662321F08E819F815F
:1046F0000E9440230E94B72280E18A95F1F75A98E0
:1047000052985A9A80E18A95F1F76A81662351F0AE
:104710008B819C810E94E522E881F981811104C08E
:1047200082E003C0E881F98188E080830E94AF22A3
:10473000FF91EF91DF91CF91BF91AF919F918F91B9
:104740007F916F915F914F913F912F910F900FBE8D
:104750000F901F901895CF93DF93C0912207D091AF
:104760002307F894529A5A9885E08A95F1F7000049
:1047700052985A9A80E28A95F1F74A9B0AC0529A57
:104780005A9AE881F98181E08083789481E090E011
:104790002CC06D81662381F08E819F810E94E5226D
:1047A00081110AC0529A5A9AE881F98182E0808385
:1047B000789482E090E019C00E94AF2280E28A954E
:1047C000F1F75A98529A80E18A95F1F76A81662347
:1047D00021F08B819C810E9440230E94B722E881B6
:1047E000F9811082789480E090E0DF91CF91089574
:1047F000F999FECF92BD81BDF89A992780B50895A9
:10480000A8E1B0E042E050E00C942C24262FF99966
:10481000FECF92BD81BDF89A019700B4021639F01F
:104820001FBA20BD0FB6F894FA9AF99A0FBE0895F0
:104830000396272F0E9407240E940624252F0E94FA
:104840000724242F0C9407240196272F0E94072465
:104850000C940624DC01CB01FC01F999FECF06C0C3
:10486000F2BDE1BDF89A319600B40D92415050402E
:10487000B8F708955058BB27AA270E9452240C94D9
:10488000C5250E94B72538F00E94BE2520F039F4D6
:104890009F3F19F426F40C94B4250EF4E095E7FB41
:1048A0000C94AE25E92F0E94D62558F3BA1762075B
:1048B00073078407950720F079F4A6F50C94F82582
:1048C0000EF4E0950B2EBA2FA02D0B01B90190012B
:1048D0000C01CA01A0011124FF27591B99F0593F6F
:1048E00050F4503E68F11A16F040A22F232F342FB7
:1048F0004427585FF3CF469537952795A795F04005
:104900005395C9F77EF41F16BA0B620B730B840B19
:10491000BAF09150A1F0FF0FBB1F661F771F881FD1
:10492000C2F70EC0BA0F621F731F841F48F4879529
:1049300077956795B795F7959E3F08F0B0CF93951B
:10494000880F08F09927EE0F9795879508950E9494
:104950008A2508F481E008950E94C0240C94C5259E
:104960000E94BE2558F00E94B72540F029F45F3F11
:1049700029F00C94AE2551110C94F9250C94B42512
:104980000E94D62568F39923B1F3552391F3951B23
:10499000550BBB27AA2762177307840738F09F5F60
:1049A0005F4F220F331F441FAA1FA9F335D00E2ECD
:1049B0003AF0E0E832D091505040E695001CCAF73A
:1049C0002BD0FE2F29D0660F771F881FBB1F2617FD
:1049D00037074807AB07B0E809F0BB0B802DBF01D4
:1049E000FF2793585F4F3AF09E3F510578F00C94A3
:1049F000AE250C94F9255F3FE4F3983ED4F38695F9
:104A000077956795B795F7959F5FC9F7880F911DC3
:104A10009695879597F90895E1E0660F771F881FAF
:104A2000BB1F621773078407BA0720F0621B730B62
:104A3000840BBA0BEE1F88F7E09508950E94DE25DF
:104A400088F09F5798F0B92F9927B751B0F0E1F04F
:104A5000660F771F881F991F1AF0BA95C9F714C0FF
:104A6000B13091F00E94F825B1E008950C94F8253A
:104A7000672F782F8827B85F39F0B93FCCF3869538
:104A800077956795B395D9F73EF490958095709595
:104A900061957F4F8F4F9F4F0895E89409C097FB12
:104AA0003EF490958095709561957F4F8F4F9F4F05
:104AB0009923A9F0F92F96E9BB279395F695879549
:104AC00077956795B795F111F8CFFAF4BB0F11F40C
:104AD00060FF1BC06F5F7F4F8F4F9F4F16C08823B3
:104AE00011F096E911C0772321F09EE8872F762FE9
:104AF00005C0662371F096E8862F70E060E02AF02A
:104B00009A95660F771F881FDAF7880F9695879515
:104B100097F90895990F0008550FAA0BE0E8FEEFEA
:104B200016161706E807F907C0F012161306E40771
:104B3000F50798F0621B730B840B950B39F40A266A
:104B400061F0232B242B252B21F408950A2609F448
:104B5000A140A6958FEF811D811D089597F99F674C
:104B600080E870E060E008959FEF80EC08950024F5
:104B70000A941616170618060906089500240A94C2
:104B800012161306140605060895092E0394000C48
:104B900011F4882352F0BB0F40F4BF2B11F460FFD7
:104BA00004C06F5F7F4F8F4F9F4F089557FD905800
:104BB000440F551F59F05F3F71F04795880F97FBE1
:104BC000991F61F09F3F79F087950895121613069B
:104BD0001406551FF2CF4695F1DF08C016161706CA
:104BE0001806991FF1CF86957105610508940895FF
:104BF000E894BB2766277727CB0197F908950E9491
:104C00008A2508F48FEF08950E9417260C94C52575
:104C10000E94B72538F00E94BE2520F0952311F0A0
:104C20000C94AE250C94B42511240C94F9250E9403
:104C3000D62570F3959FC1F3950F50E0551F629FE5
:104C4000F001729FBB27F00DB11D639FAA27F00DE5
:104C5000B11DAA1F649F6627B00DA11D661F829F0C
:104C60002227B00DA11D621F739FB00DA11D621FF1
:104C7000839FA00D611D221F749F3327A00D611D0E
:104C8000231F849F600D211D822F762F6A2F1124F0
:104C90009F5750409AF0F1F088234AF0EE0FFF1F23
:104CA000BB1F661F771F881F91505040A9F79E3F7A
:104CB000510580F00C94AE250C94F9255F3FE4F388
:104CC000983ED4F3869577956795B795F795E795D0
:104CD0009F5FC1F7FE2B880F911D9695879597F9D9
:104CE0000895FA01EE0FFF1F309621053105A1F15D
:104CF0006115710561F48038BFE39B0749F1689441
:104D00009038810561F08038BFEF9B0741F099230F
:104D10004AF5FF3FE1053105210519F1E8940894B2
:104D2000E795D901AA2329F4AB2FBE2FF85FD0F362
:104D300010C0FF5F70F4A695E0F7F73950F019F056
:104D4000FF3A38F49F779F930DD00F9007FC90584F
:104D5000089546F00C94B42560E070E080E89FE38D
:104D600008954FE79F775F934F933F932F930E9450
:104D70006C272F913F914F915F910E9404260C94D4
:104D8000C92629F416F00C94AE250C94F8250C9441
:104D9000B4250E94DE25A8F39638A0F707F80F92F5
:104DA000E8942BE33AEA48EB5FE70E941A260F9259
:104DB0000F920F924DB75EB70F920E94B427E4EFA7
:104DC000F0E00E94FB264F915F91EF91FF91E595F6
:104DD000EE1FFF1F49F0FE57E0684427EE0F441F07
:104DE000FA95E1F74195550B0E942E270F9007FE8B
:104DF0000C9422270895DF93CF931F930F93FF9274
:104E0000EF92DF927B018C01689406C0DA2EEF01ED
:104E10000E941726FE01E894A591259135914591B0
:104E20005591A6F3EF010E945224FE019701A801BB
:104E3000DA9469F7DF90EF90FF900F911F91CF9177
:104E4000DF9108959B01AC0160E070E080E89FE392
:104E50000C94AC240C94AE250C94E8270E94DE251B
:104E6000D8F39923C9F3940F511DA3F391505040E7
:104E700094F059F0882332F0660F771F881F915005
:104E80005040C1F79E3F51052CF7880F911D969514
:104E9000879597F908955F3FACF0983E9CF0BB274B
:104EA000869577956795B79508F4B1609395C1F7A6
:104EB000BB0F58F711F460FFE8CF6F5F7F4F8F4F44
:104EC0009F4FE3CF0C94F92516F00C94E8270C942F
:104ED000B42568940C94AE250E94DE25A8F399238E
:104EE000C1F3AEF3DF93CF931F930F93FF92C92FBC
:104EF000DD2788232AF02197660F771F881FDAF7AE
:104F000020E030E040E85FEB9FE3883920F0803E0E
:104F100038F021968F770E943B24ECE1F1E004C049
:104F20000E943B24E9E4F1E00E94FB268B01BE01D4
:104F3000EC01FB2E6F5771097595771F880B990B44
:104F40000E944F2528E132E741E35FE30E941726E4
:104F5000AF2D9801AE01FF900F911F91CF91DF917E
:104F60000E9452240C94C525FA01DC01AA0FBB1F34
:104F70009B01AC01BF5728F42227332744275078E0
:104F800020C0B75190F4AB2F002446953795279554
:104F9000011CA395D2F3002071F0220F331F441F90
:104FA000B395DAF30ED00C943A2461307105A0E881
:104FB0008A07B94630F49B01AC016627772788271A
:104FC0009078309621F02083318342835383089573
:104FD0009F3F31F0915020F4879577956795B7956D
:104FE000880F911D9695879597F9089597FB072E41
:104FF00016F4009407D077FD09D00E94102807FC12
:1050000005D03EF4909581959F4F089570956195D8
:105010007F4F0895EE0FFF1F0590F491E02D099446
:10502000AA1BBB1B51E107C0AA1FBB1FA617B707CE
:1050300010F0A61BB70B881F991F5A95A9F78095EA
:0C5040009095BC01CD010895F894FFCFBD
:10504C0000005C44000080415C978A440000804171
:10505C0052D0A444000080410000DC440000804198
:10506C000000DC44000000410AA7CF4400000041CE
:10507C005CFFB8440000004152D0A4440000004141
:10508C001FD59244000000415C978A440000004107
:10509C0048F176440000004100005C4400000041EF
:1050AC0000005C44000080411F15694400008041F1
:1050BC0048F176440000804100D0824400008041D9
:1050CC005C978A4400008041A4D0244400008041B5
:1050DC0000005C44000080411FD5924400008041D8
:1050EC005CFFC34400008041000000000000000091
:1050FC005CFF4344000080411FD592440000804176
:10510C000000DC440000804152D024450000804166
:10511C00000000000000000000005C440000804122
:10512C0048F17644000080415C978A44000080413D
:10513C001FD592440000804152D0A444000080410D
:10514C0003640000005C440000004100005C44006B
:10515C0000004100005C440000004100005C440081
:10516C0000004148F176440000C04000005C44005F
:10517C0000C04048F176440000C04000005C440090
:10518C0000C04048F176440000C04000005C440080
:10519C0000C04048F176440000C04000005C440070
:1051AC0000C04052D02445000000410000DC440007
:1051BC0000004152D0A4440000404152D0A444000D
:1051CC000000410000DC440000004152D0244500A6
:1051DC000040410000003F0100005C440000004121
:1051EC000000DC44000000410000DC4400000041F1
:1051FC0000005C440000004100005C4400000041E1
:10520C0048F17644000000415C978A44000000415C
:10521C001FD592440000004152D0A444000000412C
:10522C005CFFB844000000410AA7CF4400000041D5
:10523C000000DC44000000410000DC4400000041A0
:10524C000AA7CF44000000415CFFB84400000041B5
:10525C0052D0A444000000411FD5924400000041EC
:10526C005C978A440000004148F1764400000041FC
:10527C0000005C440000004100005C440000004160
:10528C0048F17644000000415C978A4400000041DC
:10529C001FD592440000004152D0A44400000041AC
:1052AC005CFFB844000000410AA7CF440000004155
:1052BC000000DC44000000413204003204042E04DF
:1052CC00010021007F220003A417A717A317A11721
:1052DC00A217010002040507090B0C0E101113157F
:1052EC0017181A1C1D1F2123242628292B2D2F307B
:1052FC0032343537393B9497C63400000000F4F54E
:0C530C00F6F731330008101818100800E4
:00000001FF
