:100000000C9491010C94D8010C94D8010C94A21872
:100010000C94D8010C94D8010C94D8010C94D801FC
:100020000C94D8010C94D8010C946C0B0C946616AB
:100030000C94FE0E0C94D8010C94D8010C94D801A9
:100040000C94D8010C94D8010C94D8010C94D801CC
:100050000C94D8010C94CC0E0C94D8010C94D801BB
:100060000C94D8010C94D8010C94D8010C94D801AC
:100070000C94D8010C94D8010C94D8010C94D8019C
:100080000C94D8010C94D8010C94D8010C94D8018C
:100090000C94D8010C94D8010C94D8010C94D8017C
:1000A0000C94D8010C94D8010C94D801550855082B
:1000B0008F088F08690A690A690A690AE208C00993
:1000C000D109D1098E14B5143E16B5143E16FD148F
:1000D00020153E1608161B16BC16BC16CF16CF16DA
:1000E000C516CF16CF16CF16BC16BC16CA16CF161D
:1000F000CF16CA162B0014001A00080015001700AE
:10010000E00004001600070009000A00E1001D00DD
:100110001B0006001900050000000000E300E200DB
:1001200001512C002A00130012000C0018001C00C2
:10013000340033000F000E000D000B00E500380006
:10014000370036001000110000000000E700E60054
:100150000251280029001E001F002000210022005B
:10016000E00001000100010001000100E1000100C8
:10017000010001000100010000000000E300E200B6
:1001800001512C002A00270026002500240023000E
:10019000010001004F005200510050000100010019
:1001A000010001000100010000000000E700E6007E
:1001B0000251280029001E021F02200221022202F1
:1001C000E00001000100010001000100E100350232
:1001D000010001000100010000000000E300E20056
:1001E00001512C002A0027022602250224022302A4
:1001F0003500310230022F022E002D003502310071
:1002000030002F002E022D0200000000E700E60063
:1002100002512800005C0100010001000100010002
:10022000C25CC55CC75CC95C01000100C35CC65C04
:10023000C85CCA5C0100010000000000E300E200AD
:1002400001512C003F003E003D003C003B003A00C5
:10025000450044004300420041004000010001000D
:10026000010001000100010000000000E700E600BD
:100270000251280005010906A101050719E029E737
:100280001500250195087501810295017508810108
:100290000507190029FF150026FF0095067508813E
:1002A000000508190129059505750191029501754B
:1002B000039101C009022200010100A0FA09040013
:1002C0000001030101000921110100012240000782
:1002D00005810308000A12011001000000085459AA
:1002E00001000100010203010403300000001A03B1
:1002F0004C0075006E0061006B0065007900200005
:100300004D0069006E0069000000120379006F0063
:10031000690063006800690072006F000000040358
:10032000090411241FBECFEFDAE0DEBFCDBF04B653
:1003300003FE27C08091DD019091DE01A091DF01D5
:10034000B091E0018730904BA740B04BD1F41092B0
:10035000DD011092DE011092DF011092E00114BE67
:1003600084B7877F84BF0FB6F894A895809160000A
:10037000886180936000109260000FBEE0E0F8E3B7
:10038000099521E0A2E2B1E001C01D92AD3DB207A6
:10039000E1F711E0A0E0B1E0E4E1F3E302C0059091
:1003A0000D92A232B107D9F70E94F40C0C9488196F
:1003B0000C94000090913E0192FF0DC0282F2871EF
:1003C000283019F4877F846006C0282F24712430D8
:1003D00011F48B7F886093FF0DC0282F287128317E
:1003E00019F4877E846106C0282F2471243111F40A
:1003F0008B7E886120913F0120FF0DC0382F38711E
:10040000383019F4877F816006C0382F3171313060
:1004100011F48E7F886021FF0DC0282F28712831AC
:1004200019F4877E816106C0282F2171213111F4D2
:100430008E7E886194FD877E08950F931F93CF93DE
:10044000DF93C42F122FFC0182818823C9F04093CF
:1004500029010E94F20E909328018093270180E2E7
:100460008C0F883008F06AC0C77081E001C0880F27
:10047000CA95EAF7DF91CF911F910F910C94ED1679
:100480008091290148134AC0209127013091280109
:100490004FB7F8948091BD019091BE01A091BF012A
:1004A000B091C0014FBF821B930B883C9105B0F502
:1004B000D0E2D10FC117B9F080E28C0F883040F440
:1004C000C77081E001C0880FCA95EAF70E94E21662
:1004D000D83048F481E0912F977001C0880F9A9529
:1004E000EAF70E94ED16802F0E947517093349F430
:1004F000FFEF27EE83E0F15020408040E1F700C09D
:100500000000802F0E94F716D830C0F4212F2770EA
:1005100081E001C0880F2A95EAF70AC080E28C0FBB
:10052000883060F4C77081E001C0880FCA95EAF78F
:10053000DF91CF911F910F910C94E216DF91CF9133
:100540001F910F9108951F93CF93DF93CDB7DEB71F
:1005500067970FB6F894DEBF0FBECDBF4B8B5C8B99
:100560006D8B7E8B8F8B86E09E01235F3F4FD90181
:10057000E82F1D92EA95E9F795E0FE017396D901FF
:1005800001900D929A95E1F7F901DE01179601901D
:100590000D928A95E1F7CE0107960E94A011811174
:1005A0003EC086E0FE013796DE01119601900D9265
:1005B0008A95E1F7FF81E8856A857B85611571057C
:1005C00031F0EF3F31F481E0FF3F19F403C081E0E7
:1005D00001C080E080FD23C02091640130E0C901AA
:1005E0000196877099274091950150E084179507EF
:1005F00079F1F983EA837D836C8396E0929FD00141
:10060000939FB00D1124AB59BE4FFE01319601905E
:100610000D929A95E1F7809364010E942A1116E0E9
:1006200080919501909164018917F9F0189FC0019C
:1006300011248B599E4F0E94A0118823B1F0809104
:10064000950190E001968770992780939501E8CFF6
:100650000E94D3161092640110929501EEE5F1E02C
:1006600086E0DF011D928A95E9F767960FB6F89448
:10067000DEBF0FBECDBFDF91CF911F910895E091F6
:100680004001F0914101309721F00190F081E02D7F
:10069000099480E0089580912601811112C0809113
:1006A000D80080618093D8008AE18A95F1F700C074
:1006B0008091D90080FD02C082E001C081E080937A
:1006C000260181E090912601913009F080E00895A3
:1006D0006F927F928F929F92AF92BF92CF92DF9252
:1006E000EF92FF920F931F93CF93DF9364E171E03A
:1006F00000E311E024E3E22E21E0F22E3801C0E015
:10070000AA24A394B12CDB018D91BD01E82FE295C1
:10071000EF70F0E021A18F70A50102C0440F551FBA
:100720008A95E2F7CA01242B21A322A1942E90944A
:10073000292122A350EA5A95F1F79CE1C92E91E0B4
:10074000D92E20E030E0D0E0D6018D906D01482D0B
:1007500042954F7050E0DA0190964C9150E0B82DE0
:10076000BF7002C055954795BA95E2F740FD07C0A6
:100770004A2D022E01C0440F0A94EAF701C040E05E
:10078000D42B2F5F3F4F26303105F1F691A19922EE
:1007900091A292A1892B82A3F3018081D81719F02D
:1007A000D08381E001C080E0C82BFFEF6F1A7F0A81
:1007B000E614F70409F0A7CFE0913901CE2ED12C31
:1007C000CC2349F081E0809324010E94F20E9093A3
:1007D000230180932201809124018823F9F0209144
:1007E0002201309123014FB7F8948091BD0190917F
:1007F000BE01A091BF01B091C0014FBF821B930BFE
:10080000069760F0F601ED5BFE4FD8018D918D01EA
:100810008193EA16FB06C9F7109224010E944B034C
:100820008823B1F0109138010E94F318892B09F543
:10083000E12FF0E0ED5BFE4F80E090E0DC01A55D94
:10084000BE4F2C912193019684309105B9F722C0B7
:10085000E0913901F0E0ED5BFE4F80E090E0219106
:10086000DC01A55DBE4F2C93019684309105B9F74C
:1008700013C0809125018F5F80932501863060F041
:10088000E0913801F0E0ED5BFE4F108211821282A0
:10089000138202C0109225018C2FDF91CF911F91FE
:1008A0000F91FF90EF90DF90CF90BF90AF909F900F
:1008B0008F907F906F900895CF93DF9320E3829F76
:1008C000C0011124FC0136E0739FE00DF11D1124DD
:1008D000E60FF11DEE0FFF1FEC50FF4FC591D491B5
:1008E000CE01C238D10569F1B0F4C133D10509F4A4
:1008F00075C048F4C932D10509F469C0CA32D105BE
:1009000009F473C079C0C533D10509F459C0C9339E
:10091000D105B9F071C0C33ED10571F138F4C03EC4
:10092000D105B1F0C23ED10511F166C0C63ED10578
:10093000B9F1C73ED105C9F1C43ED10509F05CC08B
:1009400024C020913E0120FD3CC121FD3AC154C08C
:1009500020913E0120FD2FC120913F0120FF36C193
:1009600080913E0184FD24C183EE90E02FC120914F
:100970003E0122FF2BC1F4CF80913E0182FD1EC1BA
:1009800080913F0180FD1DC1EBCF20913F0121FFF0
:100990001DC180913E0184FD0BC187EE90E016C120
:1009A00020913E0123FF12C1F4CF80913E0183FDCF
:1009B0000BC180913F0181FFECCF84EE90E006C136
:1009C00020913E0125FF02C189E290E0FFC0209105
:1009D0003E0125FFFBC085E390E0F8C020913E0179
:1009E00026FFF4C08AE290E0F1C020913E0126FF8C
:1009F000EDC081E390E0EAC0C11543E5D407A0F55E
:100A0000C11552E5D50708F09CC0C11520E2D207F8
:100A1000C0F4C11531E0D30708F0D8C0C53AD105FC
:100A200040F4C430D10508F0D1C0219709F4CEC0FC
:100A3000BFC09E01205E31092830310508F0B8C0E2
:100A4000C5C0C11541E5D40708F076C0C11550E511
:100A5000D50708F051C0C11580E4D80708F4A8C034
:100A6000CE019F70906AB2C0C11526E5D20700F58D
:100A7000C11535E5D30708F07FC0C11544E5D4079B
:100A800008F075C09E012370332781E090E0AC012F
:100A900002C0440F551F2A95E2F72C2F2695269564
:100AA00030E2239FC0011124842B952B9A688EC0BD
:100AB000C1155AE5D50778F4C11589E5D80708F0BE
:100AC00064C0C11528E5D20708F472C09C2F88279E
:100AD000806F906A7BC0CE0190568115904208F0DD
:100AE00067C08D2F8F710E94DA019E01332730621B
:100AF0008F71A901582B5AC0CE01F4E096958795C5
:100B0000FA95E1F7282F23703C2F337081E090E0B5
:100B100002C0880F991F3A95E2F79C68AC01522BEE
:100B20008C2F8F70282F2695269530E2239FC001A9
:100B30001124842B952B4AC09C2F8827816F906AA3
:100B400045C09E012370332781E090E0AC0102C0D4
:100B5000440F551F2A95E2F72C2F2695269530E253
:100B6000239FC0011124842B952B9C682FC09C2FA0
:100B70008827846F906A2AC08C2F0E94DA018F71B7
:100B800090E0982F8827906221C08C2F8F700E9450
:100B9000DA019E0194E0369527959A95E1F72F703A
:100BA00030E0322F22273069A901482BCA010EC03C
:100BB00080E090E00BC089E390E008C082EE90E016
:100BC00005C080EE90E002C086EE90E0DF91CF910C
:100BD00008958F929F92AF92BF92CF92DF92EF9241
:100BE000FF920F931F93CF93DF93CDB7DEB72A9772
:100BF0000FB6F894DEBF0FBECDBFFC010081D180DF
:100C000083819481892B39F01FEFD11206C091E0C6
:100C10000F3F19F403C091E001C090E090FD98C42B
:100C20007F0185E0DE01169601900D928A95E1F72D
:100C3000F70122818E819F81222349F00E94F50FC6
:100C4000182F682F8E819F810E946F1003C00E9411
:100C50004210182F20E3129FF001112436E0D39E9A
:100C6000E00DF11D1124E00FF11DEE0FFF1FEC5000
:100C7000FF4F05911491033F8CE5180741F190F463
:100C8000083DECE51E07E9F0093DFCE51F0789F189
:100C9000073D2CE51207B1F506E221EE41EE67EDC6
:100CA0007CE52CC0053F3CE51307E9F0B0F0063FBA
:100CB0009CE5190739F507E225EE46EE66EF7CE57F
:100CC0001DC007E225EE45EE68ED7CE517C006E2A3
:100CD00021EE40EE63EF7CE511C007E225EE44EE25
:100CE00064EF7CE50BC006E221EE42EE65EF7CE5A9
:100CF00005C008E221E045EE69ED7CE5C7010E94F0
:100D00001D026CC1F7018281882309F43FC1109252
:100D100029010230FCE51F0708F422C106312CE549
:100D2000120738F098012A5F3C452930310508F058
:100D300017C10E944E0F90933F0180933E010031F6
:100D40003CE5130709F4C3C008F041C008309CE536
:100D5000190709F49AC0F0F40430FCE51F0709F400
:100D600087C068F402303CE5130709F477C003300C
:100D70001C4509F0E5C080913E01826076C00630D6
:100D80009CE5190709F46EC008F07BC080913E0114
:100D900088606BC00C30FCE51F0709F485C068F45F
:100DA0000A303CE5130709F474C008F079C00E94CA
:100DB000D31680913E01806858C00E309CE519071B
:100DC00009F476C008F07FC080913E018BC00B3FD4
:100DD000FCE51F0709F44FC018F503313CE5130784
:100DE00009F47DC078F401319CE5190709F473C05A
:100DF00002311C4509F0A4C00E94D31680913E0127
:100E00008F7733C00531FCE51F0709F472C008F481
:100E100086C00A3F1C4509F093C080913F013EC047
:100E20000F3F8CE5180709F45FC058F40D3FECE55F
:100E30001E0709F444C008F43FC080913F0182605E
:100E40002DC001302DE5120709F475C008F45DC00E
:100E500002301D4509F074C060E06EC080913E0113
:100E6000816003C080913E01806180933E0168C033
:100E700080913E0111C080913F01826080933F01CB
:100E80005FC080913E018062F0CF80913E0180641E
:100E9000ECCF80913E0188608460E7CF8160EECF27
:100EA00080913E018E7FE1CF80913E018D7FDDCF2D
:100EB00080913E01877FD9CF80913F0118C08091FA
:100EC0003F018D7FDBCF80913E018F7ECECF809121
:100ED0003E018F7DCACF80913E018F7BC6CF80912E
:100EE0003E01877F8B7FC1CF80913F018D7F8E7FB9
:100EF000C5CF80913E0182FB222720F991E0922705
:100F000090FB82F990FB83F9B0CF80913F01982F3D
:100F1000909591708E7F892B90FB81F9AFCF0E94C5
:100F2000D31680913E0187FB222720F991E092277A
:100F300090FB87F99ACF61E08EE090E00E944E1915
:100F400060913E0110913F0184E090E00E944E19B3
:100F5000612F81E290E00E944E190E94D3163EC09C
:100F600006312CE5120719F58091B7018A7A91E0D4
:100F700009F490E090932A01882311F065E301C001
:100F800069E286E591E00E94340F0EC006311C45EF
:100F900009F043C080912A01882309F4D7C265E390
:100FA00086E591E00E94270F0E94C80F17C0011527
:100FB0009CE5190731F00E3D1C4579F50E945F0F45
:100FC0000DC00E94D316FFEF04E31CE0F150004077
:100FD0001040E1F700C000000E94A80E8091B4010B
:100FE000877009F4B5C2F7018281882309F4B0C281
:100FF00082E02A960FB6F894DEBF0FBECDBFDF9118
:10100000CF911F910F91FF90EF90DF90CF90BF9005
:10101000AF909F908F900C94E210F70100811181A6
:10102000882349F0C8010E94F50FD82E682FC80107
:101030000E946F1004C0C8010E944210D82EB8014F
:101040008D2D0E945C048C01982EF701B580B2941E
:101050002FE0B222A280A1101092B6018091B401BB
:10106000877099F0AA2089F0812F807F803421F049
:1010700080E2800F883048F082E00E94E210809188
:10108000B4018770DD24D3948111D12CC12EC29478
:101090009FE0C9228C2D90E08C30910508F019C298
:1010A000FC01EA5AFF4F0C948219812F807F1F7038
:1010B000882311F01295107FAA20B9F0112309F4AA
:1010C000F3C180E2800F883010F0911006C080914B
:1010D000B701182B1093B70105C08091B601182BEA
:1010E0001093B6010E94C80FDFC1802F0E94F7162F
:1010F000112309F4EEC1005E1095083010F0911034
:1011000006C08091B70118231093B70105C08091E4
:10111000B60118231093B6010E94C80FDAC1812FBF
:10112000807F1F70803211F01295107F992021F07E
:10113000F1E09F16E1F02AC0AA2081F08091B80169
:10114000BB2051F001E0B01207C0182B181709F4AA
:10115000C0C11093B801BDC1812B10C0BB2021F0CC
:1011600021E0B21609F4B5C10E94C20F27C0AA201F
:1011700041F035E03B1508F4ACC1812F0E94ED161B
:10118000A8C184E08B1508F4A4C118C0AA2049F0B6
:10119000BB2099F3F701858180FF86C18F7085831D
:1011A000ECCFBB2059F0093309F090C1FFEF17EEE7
:1011B00023E0F15010402040E1F786C1812F0E94CA
:1011C000E21687C1812F837009F069C0A11085C123
:1011D000902F929596959770990F990F802F8F70F9
:1011E000882E912CA12CB12C092E04C0880C991C9E
:1011F000AA1CBB1C0A94D2F704FF12C04FE050E0B7
:1012000060E070E004C0440F551F661F771F9A9579
:10121000D2F7DB01CA0180959095A095B09503C0E7
:1012200080E090E0DC0116951695412F4370423026
:1012300019F1C8F40091B9011091BA012091BB01D4
:101240003091BC01413059F088299929AA29BB293C
:10125000BC01CD0160237123822393230AC0802A1D
:10126000912AA22AB32ABC01CD01682979298A29A9
:101270009B290E941C1131C188299929AA29BB29BF
:101280000091B9011091BA012091BB013091BC01CC
:10129000BC01CD016027712782279327EACFAA20BE
:1012A00019F0812F817001C08695882309F415C13A
:1012B000902F929596959770990F990F802F8F7018
:1012C000882E912CA12CB12C092E04C0880C991CBD
:1012D000AA1CBB1C0A94D2F704FF12C04FE050E0D6
:1012E00060E070E004C0440F551F661F771F9A9599
:1012F000D2F7DB01CA0180959095A095B09503C007
:1013000080E090E0DC0116951695412F4370423045
:10131000D9F068F500913A0110913B0120913C0110
:1013200030913D01413059F088299929AA29BB29DA
:10133000BC01CD0160237123822393231EC0802A28
:10134000912AA22AB32A13C088299929AA29BB293C
:1013500000913A0110913B0120913C0130913D01F7
:10136000BC01CD01602771278227932706C0BC01ED
:10137000CD01682979298A299B290E949B10ADC03B
:101380001F70AA2039F0812F0E94FB10802F0E942D
:10139000ED16A3C0802F0E94E216812F0E94BD107F
:1013A0009CC0802F32EF931609F440C0391538F0F5
:1013B00090EF991661F0E1EF9E1699F170C0F3EF8E
:1013C0009F16D9F124EF921609F44EC068C0AA20E6
:1013D00019F134E03B1508F47CC01F7181E090E006
:1013E000A0E0B0E0AC01BD0104C0440F551F661F72
:1013F000771F1A95D2F780913A0190913B01A09105
:101400003C01B0913D018A019B01082719272A2739
:101410003B27C901B80121C025E02B1508F459C0AC
:10142000DCCFAA2029F0812F8F712CC0AA20D9F3FC
:10143000812F8F710E94BD104CC0AA2089F01F71AE
:1014400081E090E0A0E0B0E0BC01CD0104C0660FF7
:10145000771F881F991F1A95D2F70E949B1039C0D9
:1014600060E070E0CB01F9CFAA2079F01F71812FE5
:101470000E94FB1038E0139FC00111248360809309
:10148000B401812F0E94FB1024C081E00E94E21071
:1014900081E08B15F0F482E00E94E2101AC0AA20CD
:1014A00039F0BB2009F4BFCF802F0E94751711C0FF
:1014B000BB2009F4BDCF893349F49FEFE7EEF3E099
:1014C0009150E040F040E1F700C00000802F0E9402
:1014D000F71688EF8C0D843010F40E943F03DD2056
:1014E000A9F08091B40180FD11C0F70112828595A9
:1014F000859585950E94FB10C7010E94E9058091A2
:10150000B4018595859585950E94BD1085E0F7010C
:10151000DE01119601900D928A95E1F789819A81F9
:101520000E9442109A8100E3809FF001112416E08E
:10153000919FE00DF11D11248981E80FF11DEE0F3F
:10154000FF1FEC50FF4F8591949102C069E228CDB6
:101550002A960FB6F894DEBF0FBECDBFDF91CF91B4
:101560001F910F91FF90EF90DF90CF90BF90AF90C1
:101570009F908F900895E8EDF0E080818E7F8083CA
:101580001092E2001092DA001092E100A0EEB0E0BA
:101590008C9181608C9380818F77808319BCA7EDBB
:1015A000B0E08C918E7F8C9380818F7E80831092AF
:1015B000550108950895089508958091C2010895F0
:1015C000CF92DF92EF92FF920F931F93CF93DF930F
:1015D000C8EDD0E088818F7E8883E7EDF0E08081E0
:1015E0008160808384E082BF81E08093550188819F
:1015F0008E7F888302EE10E0F80110821092DA00EC
:1016000081EEC82ED12CF601108288818F778883D5
:1016100088818068888388818F7D888319BC109237
:10162000CD011092CE011092CC011092CB0190EE20
:10163000E92EF12CF70180818B7F80838881816086
:10164000888360E080E00E947513F60180818E7FC0
:101650008083F801808181608083808188608083BD
:10166000F70180818E7F8083888180618883DF910C
:10167000CF911F910F91FF90EF90DF90CF90089541
:10168000CF93DF9321E02093E9002FEF3091E80022
:10169000215035FD06C035ED3A95F1F700002111D6
:1016A000F5CF2091E80025FF14C0EC0140E050E0A8
:1016B00068E070E00E944F138091E8008E7780937D
:1016C000E80088E0FE01A3ECB1E001900D928A955C
:1016D000E1F7DF91CF9108951F920F920FB60F920D
:1016E00011242F933F934F935F936F937F938F9327
:1016F0009F93AF93BF93EF93FF938091E10082FF9D
:1017000009C08091E20082FF05C08091E1008B7FDB
:101710008093E1008091DA0080FF2AC08091D80098
:1017200080FF26C08091DA008E7F8093DA0080915E
:10173000D90080FF18C080E189BD82E189BD09B46C
:1017400000FEFDCF81E08093CD0180915501811194
:101750000FC00E94BB0A0E94E00A8091E2008460F0
:101760008093E20005C019BC1092CD011092550182
:101770008091E10080FF17C08091E20080FF13C0DC
:101780008091E2008E7F8093E2008091E200806190
:101790008093E2008091D80080628093D80019BCC9
:1017A00085E08093CD018091E10084FF32C080917B
:1017B000E20084FF2EC080E189BD82E189BD09B4C9
:1017C00000FEFDCF8091D8008F7D8093D80080915E
:1017D000E1008F7E8093E1008091E2008F7E809314
:1017E000E2008091E20081608093E2008091CE016E
:1017F000882311F084E007C08091E30087FD02C0D8
:1018000081E001C083E08093CD010E94D3160E9445
:101810003F038091E10083FF26C08091E20083FFB7
:1018200022C08091E100877F8093E10082E0809375
:10183000CD011092CE018091E1008E7F8093E10076
:101840008091E2008E7F8093E2008091E2008061CF
:101850008093E20060E080E00E9475138091F000C8
:1018600088608093F000FF91EF91BF91AF919F91BD
:101870008F917F916F915F914F913F912F910F9039
:101880000FBE0F901F9018952091E4003091E50055
:1018900095E64091EC00842F817040FF23C0809139
:1018A000E80080FD1DC08091CD01882399F085302E
:1018B00099F08091EB0085FD11C04091E4005091BA
:1018C000E5002417350729F3915011F09A01E1CF73
:1018D00084E0089582E0089583E0089581E008950A
:1018E00080E008954091E80042FFDDCF08958091A7
:1018F000CF0187FF11C08091E80082FD05C0809173
:10190000CD018111F8CF11C08091E8008B770BC019
:101910008091CD01882349F08091E80080FFF8CFC5
:101920008091E8008E778093E80008952091D5019A
:101930003091D6012617370748F06115710539F443
:101940002091E8002E772093E80001C0B901FC0146
:1019500020E06115710579F18091CD018823F1F1C5
:101960008530F1F18091E80083FD3CC08091E80072
:1019700082FD2EC08091E80080FFEBCF2091F30024
:101980008091F20090E0922B6115710551F0883042
:10199000910538F421912093F1006150710901966D
:1019A000F3CF21E0089709F020E08091E8008E77DE
:1019B0008093E800CECF2111CFCF0AC08091CD0116
:1019C000882361F0853061F08091E80083FD0AC0D2
:1019D0008091E80082FFF2CF80E0089582E00895D0
:1019E00083E0089581E00895CF93DF93CDB7DEB70C
:1019F0002A970FB6F894DEBF0FBECDBF84B7877F9E
:101A000084BF0FB6F894A895809160008861809398
:101A10006000109260000FBE90E080E80FB6F8946E
:101A200080936100909361000FBE85B7806885BF89
:101A300085B7806885BF0E94BB0A0E94E00A80913A
:101A4000E20084608093E20078948091CD01882345
:101A5000A1F01091E9001F709091EC00892F817026
:101A600090FD80E8182B1092E9008091E80083FD3A
:101A70000E94AA131F701093E90082E084BD93E0D6
:101A800095BD9AEF97BD80936E000E944B038093A3
:101A900008010E944B03882331F061E070E080E090
:101AA00091E00E94541880910801809108018111F1
:101AB00002C094E001C090E09093390184E0891B5A
:101AC00080933801A4E1B1E048E151E061E070E0C9
:101AD0008D91E82FE295EF70F0E021A18F708B01DE
:101AE00002C0000F111F8A95E2F7C801902F909550
:101AF000922391A392A1892B82A34A175B0741F7F6
:101B0000ACE1B1E042E251E061E070E08D91E82F9C
:101B1000E295EF70F0E021A18F708B0102C0000F01
:101B2000111F8A95E2F7C801902F9095922391A3F7
:101B300092A1892B82A34A175B0741F7E0E3F1E00A
:101B400088E391E0A3E4B1E011921D928E179F0704
:101B5000D9F70E9468038FE39CE90197F1F700C071
:101B600000000E9468038091430180FF08C06FEF6E
:101B70007FEF80E090E00E946C190E94A80E80E048
:101B800090E00E9448198C3E9E4F11F00E945F0F1A
:101B90000E944B03811106C061E070E080E091E09B
:101BA0000E945B1880E090E00E9448198C3E9E4F96
:101BB00011F00E945F0F82E090E00E944019809334
:101BC0004C010E944E0F90933F0180933E0183E0B1
:101BD00090E00E944019682F70E080E090E00E9441
:101BE0001C1189E091E09093410180934001EE2423
:101BF000EA948BE4C82E81E0D82E90E1892E22E170
:101C0000922E38E1A32EB12C40E4742E8091CD01A8
:101C1000853009F034C08091CD01843009F11092F3
:101C200042010FB6F894A895A09260000FBE709282
:101C3000600083B7817F846083BF83B7816083BF87
:101C40007894889583B78E7F83BF0FB6F894A89554
:101C500080916000886180936000109260000FBEE8
:101C60008091CC01882391F20E946803E3E4F1E0C3
:101C70008191811159C0CE16DF06D1F7C7CF0E94DE
:101C800068030E944B038823A1F1EDE4F1E0A3E493
:101C9000B1E000E010E0302F2D919191922721F1D9
:101CA00080E0FF24F394492F4F21D1F089833A83B8
:101CB0002F2181E009F480E08B830E94F20E816085
:101CC000782F9D838C8349815A816B818D810E94FD
:101CD000A302F801E35BFE4F8081F826F08218C072
:101CE0008F5FFF0C8630F9F60F5F1F4F083011052C
:101CF00091F6EE82EF8218860E94F20E8160782FB4
:101D00009A8789874E815F8168858A850E94A302B0
:101D10000E943F0390914B01891709F477CF0E94ED
:101D20003F0380934B0172CF89BC99BC09B400FE7C
:101D3000FDCF8091D8008F7D8093D8008091E00006
:101D400082608093E0008091E00081FDFCCF5ECF57
:101D500081E08093E00080E28093D8001092C90077
:101D60008FE19EE40197F1F700C0000087E090EB5F
:101D7000DC018093DD019093DE01A093DF01B0933D
:101D8000E0019CE088E10FB6F894A895809360008C
:101D90000FBE90936000FFCF78941F920F920FB602
:101DA0000F9211248F939F93AF93BF938091BD01A6
:101DB0009091BE01A091BF01B091C0010196A11DFB
:101DC000B11D8093BD019093BE01A093BF01B0935C
:101DD000C001BF91AF919F918F910F900FBE0F9057
:101DE0001F9018952FB7F8948091BD019091BE0176
:101DF000A091BF01B091C0012FBF08951F920F9213
:101E00000FB60F9211248F939F93AF93BF9380913E
:101E10004201811113C08091BD019091BE01A0913A
:101E2000BF01B091C0014196A11DB11D8093BD01BC
:101E30009093BE01A093BF01B093C001BF91AF9139
:101E40009F918F910F900FBE0F901F9018959C013E
:101E50002A5F3F4FFC014281461301C01282019666
:101E600082179307B9F708959C01FC0132969FEF02
:101E700080E04191461789F09F3F19F4411101C05C
:101E8000982F8F5F8630A9F79F3F39F0F901E90F4E
:101E9000F11D97FDFA95628308950895CF9384E02C
:101EA00090E00E944019C82F81E290E00E94401902
:101EB0002C2F30E0A901582BCA01CF9108956CEE68
:101EC0007EEF80E090E00E946C1960E082E090E09C
:101ED0000E944E1960E083E090E00E944E1910923B
:101EE000B9011092BA011092BB011092BC0160E0DE
:101EF00084E090E00E944E1960E081E290E00E9450
:101F00004E1960E085E090E00E944E1960E086E0A6
:101F100090E00E944E196FEF87E090E00E944E190A
:101F200040E050E0BA0188E090E00E94601960E073
:101F30008DE090E00E944E1940E050E0BA0188E147
:101F400090E00E94601960E087E190E00E944E19E5
:101F500040E050E0BA018CE190E00E94601960E03E
:101F600080E290E00E944E1940E050E0BA018FE01C
:101F700090E00E94601940E050E0BA0183E190E0F7
:101F80000C9460198091B80181111092B8010895E4
:101F90009091B7018091B601892B2091B501982FBE
:101FA000922B909356018091B801882389F0892B58
:101FB00080935601E8E5F1E097E080E0915029F048
:101FC00021912223D9F38F5FF9CF81110E94C20F93
:101FD000E0914001F0914101309731F00280F381AE
:101FE000E02D86E591E009940895BF92CF92DF92AB
:101FF000EF92FF920F931F93CF93DF938C01C090CA
:102000003A01D0903B01E0903C01F0903D0180917D
:10201000B9019091BA01A091BB01B091BC01C82A4D
:10202000D92AEA2AFB2ACFE1D0E0D701C6010C2E3B
:1020300004C0B695A795979587950A94D2F780FD29
:1020400004C0219790F7B12C07C0BC2EB8018C2F8B
:102050000E945C040197A9F38B2DDF91CF911F9112
:102060000F91FF90EF90DF90CF90BF900895CF93A6
:10207000DF93EC010E94F50FBE010E945C04DF912A
:10208000CF910895292F220F920F990F890F682F52
:10209000669566956695982F977085E0689FB00164
:1020A000112440E050E080E0FB01E40FF51FEA5608
:1020B000FE4F208130E0092E02C0369527950A9404
:1020C000E2F721703327042E01C0220F0A94EAF7A9
:1020D000822B4F5F5F4F4530510531F70895292F0F
:1020E000220F920F990F890FE82FE695E695E69556
:1020F000877051E001C0550F8A95EAF785E0E89FA7
:10210000F0011124EA56FE4F20E030E070E04081FB
:10211000CB01022E02C0969587950A94E2F7817052
:10212000819584278523842781932F5F3F4F253016
:10213000310569F708950F931F938B019C01067079
:10214000112722273327DC01CB0106301105210599
:10215000310511F4886001C0877F80933A01909324
:102160003B01A0933C01B0933D011092B601109247
:10217000B5011F910F910C94C80F0F931F9341E06D
:1021800050E060E070E004C0440F551F661F771FE9
:102190008A95D2F7409550956095709580913A0157
:1021A00090913B01A0913C01B0913D018A019B01BE
:1021B000082319232A233B23C901B8011F910F913A
:1021C0000C949B102091B401809582238093B401DC
:1021D000982F977079F430E0482F082E000C550B9B
:1021E0002417350739F08595859585950E94BD1092
:1021F0001092B40108950F931F9341E050E060E006
:1022000070E004C0440F551F661F771F8A95D2F7F0
:1022100080913A0190913B01A0913C01B0913D0128
:102220008A019B01082B192B2A2B3B2BC901B801D2
:102230001F910F910C949B106093B9017093BA0198
:102240008093BB019093BC011092B6011092B5012E
:102250000C94C80F8091950190916401891719F031
:102260008F5F8770FBCF08950F931F93CF93DF93FA
:102270008091630182958F7009F05DC0809160014B
:10228000882309F458C080919501109164016091F0
:102290005E0170915F01C0916101D091620191E096
:1022A0006F3F09F090E0292F06E0811709F443C041
:1022B000209721F07F3F21F030E003C031E001C0E2
:1022C000322F90E030FD34C0089FF001099FF00DDF
:1022D0001124DF01AB59BE4F11963C911197371372
:1022E00027C03C91361324C012963C9112973111AD
:1022F0001FC013964D915C9114974C1B5D0B483C8D
:102300005105B0F4809163018F7080618093630107
:10231000E659FE4F80818F70806180838EE591E069
:102320000E94E905DF91CF911F910F910C942A1122
:1023300001968770BACFDF91CF911F910F910895C9
:102340009F92AF92BF92CF92DF92EF92FF920F9344
:102350001F93CF93DF93CDB7DEB761970FB6F89495
:10236000DEBF0FBECDBF8C0185E0F801DE011D96FA
:1023700001900D928A95E1F7F80190818181E280C8
:1023800030915E0160915F01409161015091620165
:102390004115510531F06F3F31F421E03F3F19F411
:1023A00003C021E001C020E0F22FF1709F2E20FD3C
:1023B00023C1F801C380D4802EE5A22E21E0B22EE5
:1023C000F0906001F601E41BF50BFF2009F4CEC08C
:1023D00020916301E83CF10508F099C0422F407F4D
:1023E00009F051C0681311C039130FC0FE2CE11061
:1023F0000CC02F70206120936301C5010E94E90584
:1024000080916301F801858337C1CD2831F08F3F7A
:1024100031F421E09F3F19F403C021E001C020E026
:1024200020FD03C021E02E2502C020E030E0F22F85
:10243000F170FF2E20FF1DC0209195014091640195
:1024400056E0241709F4F6C030E0529FF001539F84
:10245000F00D1124EB59FE4F6181861306C0608197
:10246000961303C06281E61204C02F5F3F4F2770AE
:10247000E8CFFE2CEE2009F4FFC08091630181605B
:102480008093630150C0681307C0391305C0E11081
:1024900003C0F80125838DC09D878E878D859E851D
:1024A0000E94AA16882369F1EE2059F12091630158
:1024B000822F82958F7090E0029774F080915E0178
:1024C00090915F0198878F831986DB86CA862C8757
:1024D000CE0107960E94E90586E0F801AEE5B1E07D
:1024E00001900D928A95E1F70E9434110DC0681792
:1024F000E1F09D878E878D859E850E94AA168111A9
:102500001EC0C8010E94E905FF24F394B5C0422F04
:10251000407F69F78EE591E00E94E90586E0F501CC
:1025200011928A95E9F7F12CA7C03913E2CFE11097
:10253000E0CFF8012583C8010E94E90557C0EE20CD
:1025400001F320916301822F82958F7090E00297B2
:102550001CF280915E0190915F019A8389831B82B6
:10256000DD82CC822E83CE010196B4CFE83CF1050A
:10257000E8F5FE2CEE2029F2681327C0391325C098
:102580002091630120FD18C0822F82958F70482F03
:1025900050E04115510581F0F80125834F30510578
:1025A00041F08F5F982F9295907F822F8F70892BAB
:1025B0008583C8010E94E90586E0F801AEE5B1E037
:1025C00001900D928A95E1F757C09D878E878D8582
:1025D0009E850E94AA1681117FCF80916301816040
:1025E00080936301C8010E94E90546C086E0F501B9
:1025F00011928A95E9F740C0EE2009F482CF9D87B9
:102600008E878D859E850E94AA16F82E882309F450
:1026100078CF86E0F801AEE5B1E001900D928A95A1
:10262000E1F780915E0190915F010E9437100E9456
:10263000341122C09D878E878D859E850E9437101C
:10264000292F22952F70223028F49F7039F08111A4
:1026500005C00BC0243028F49F7049F4805E883098
:1026600020F0C8010E94E9059F2CF92C05C0F80153
:102670009581907F99F7F9CF8F2D61960FB6F894D9
:10268000DEBF0FBECDBFDF91CF911F910F91FF90A5
:10269000EF90DF90CF90BF90AF909F9008950F93F1
:1026A0001F93CF93DF938C010E94440C811118C0BB
:1026B000E80108E010E08091E80085FD0AC0809103
:1026C000E8008E778093E8000E94440C882399F3F9
:1026D00007C089918093F1000150110961F780E0F2
:1026E000DF91CF911F910F910895982F973068F542
:1026F0009093E900981739F05091EC002091ED008B
:102700004091F00003C0562F40E022E021FD02C0BE
:102710009F5FECCF3091EB003E7F3093EB00309128
:10272000ED003D7F3093ED003091EB003160309350
:10273000EB005093EC002093ED004093F0002091CB
:10274000EE0027FDE5CF80E008958F708093E900CB
:1027500081E008951F93CF93DF93CDB7DEB7AA979B
:102760000FB6F894DEBF0FBECDBFEFECF1E0809165
:10277000F100819321E0E73DF207C9F78091D00194
:10278000833009F460C030F4813071F0823009F494
:102790009AC0B1C08A3009F486C08B3009F46BC08E
:1027A000893009F0A8C020C08091CF01813A09F09A
:1027B000A2C08091E800877F8093E8008091D301D8
:1027C0009091D401892B21F468E083EC91E003C05F
:1027D00060E080E090E070E00E94960C8091E8005C
:1027E0008B778093E80087C08091CF01813209F018
:1027F00082C08091D3019091D401892B09F07BC0D4
:102800008091E800877F8093E8008091E80082FD56
:1028100005C08091CD018111F8CF6DC02091F300EA
:102820008091F20090E0922B029729F48091F100C0
:102830008B7F813021F48091F1008093C2018091DF
:10284000E8008B7754C08091CF01813A09F053C0E2
:102850008091D3019091D401892B09F04CC08091D3
:10286000E800877F8093E8008091E80080FFFCCF3C
:102870008091130137C08091CF018132E1F58091C1
:10288000D3019091D401892BB1F58091E800877F25
:102890008093E8000E94770C8091D101809313010E
:1028A0000E94D31628C08091CF01813221F58091FA
:1028B000E800877F8093E8000E94770C8091D20126
:1028C0008093C10118C08091CF01813AA1F4809119
:1028D000E800877F8093E8008091E80080FFFCCFCC
:1028E0008091C1018093F1008091E8008E77809300
:1028F000E8000E94770C8091E80083FFBFC18091BF
:10290000CF019091D001492F50E04A30510508F095
:10291000B5C1FA01EE59FF4F0C948219803821F0AD
:10292000823809F0ABC108C08091CB019091CC01F5
:10293000992389F082600FC08091D3018F70873016
:1029400008F09CC18093E9008091EB0085FB88270B
:1029500080F91092E9009091E800977F9093E80049
:102960008093F1001092F1005EC1282F2D7F09F0B5
:1029700085C1882319F0823061F080C18091D10136
:10298000813009F07BC1933009F080E08093CC0165
:102990002EC08091D10181112AC08091D3018F7006
:1029A0002FEF280F263008F069C18093E9002091AD
:1029B000EB0020FF1CC0933021F48091EB0080627B
:1029C00014C09091EB0090619093EB0021E030E017
:1029D000A90102C0440F551F8A95E2F74093EA000F
:1029E0001092EA008091EB0088608093EB001092D7
:1029F000E9008091E800877F19C181113FC11091E2
:102A0000D1011F778091E3008078812B8093E300D0
:102A10008091E800877F8093E8000E94770C809186
:102A2000E80080FFFCCF8091E30080688093E300A2
:102A3000111102C082E001C083E08093CD011EC16C
:102A40008058823008F01AC18091D1019091D20152
:102A50008C3D53E0950779F583E08A838AE2898388
:102A60004FB7F894DE01139620E03EE051E2E32FE9
:102A7000F0E050935700E49120FF03C0E295EF701F
:102A80003F5FEF708E2F90E0EA3010F0C79601C0E4
:102A9000C0968D939D932F5F243149F74FBF80914E
:102AA000E800877F8093E8006AE270E0CE0101963B
:102AB0000E94960CA7C04091D3015091D401292FB8
:102AC000332723303105A9F068F42130310509F4AA
:102AD000E4C02230310509F0D1C082E290E0E4EB9D
:102AE000F2E03DC02132310579F12232310581F128
:102AF000C5C0992781309105B9F070F082309105F9
:102B0000D9F0039709F0BAC0E8EEF2E0E4918E2F15
:102B100090E0E8EEF2E020C0EEE1F3E0E4918E2FE9
:102B200090E0EEE1F3E018C0EAE0F3E0E4918E2FEC
:102B300090E0EAE0F3E010C0EEEEF2E0E4918E2FD8
:102B400090E0EEEEF2E008C0452B09F4ABC096C071
:102B5000452B09F4ACC092C0009709F48FC02091B6
:102B6000E800277F2093E8002091D5013091D6011D
:102B70008217930708F49C0140E02115310589F183
:102B80008091CD01882309F43DC08530D9F1809131
:102B9000E80083FD37C08091E80082FD2FC080915E
:102BA000E80080FFEACF4091F3008091F20090E0CE
:102BB000942B2115310559F08830910540F444914A
:102BC0004093F1003196215031090196F2CF41E056
:102BD000089709F040E08091E8008E778093E80044
:102BE000CCCF4111CDCF0AC08091CD01882351F0C7
:102BF000853041F08091E80083FD04C08091E800B9
:102C000082FFF2CF8091E8008B778093E80036C096
:102C10008038A1F58091E800877F8093E80080915B
:102C2000CE018093F1008091E8008E778093E800D8
:102C30000E94770C23C0811121C08091D101909115
:102C4000D20199270297D4F48091E800877F80937E
:102C5000E8001091D1011093CE010E94770C111160
:102C600006C08091E30087FD02C081E001C084E0DE
:102C70008093CD0161EC81E00E9475138091E800A2
:102C800083FF1AC08091E800877F8093E8008091DD
:102C9000EB0080628093EB000FC082E190E0E6EDF4
:102CA000F2E05DCF89E090E0E6ECF2E058CF80E41E
:102CB00090E0E4E7F2E053CFAA960FB6F894DEBFB7
:102CC0000FBECDBFDF91CF911F9108951F920F923C
:102CD0000FB60F9211242F933F934F935F936F93EF
:102CE0007F938F939F93AF93BF93CF93DF93EF9394
:102CF000FF93C091E900CF708091EC00D82FD17084
:102D000080FDD0E81092E9008091F000877F8093E9
:102D1000F00078940E94AA131092E9008091F000CC
:102D200088608093F000CD2BCF70C093E900FF91B5
:102D3000EF91DF91CF91BF91AF919F918F917F9153
:102D40006F915F914F913F912F910F900FBE0F9018
:102D50001F9018950E943710292F2F70E92FE295A8
:102D6000EF704E2F50E0FA013297EE30F105B8F4D3
:102D7000E459FF4F0C948219803F99F018F4883E73
:102D800070F40FC0843F59F40CC0883E50F0813F6E
:102D900031F407C0822F869586958695089580E048
:102DA000089581E008951092B70186E0E8E5F1E02A
:102DB000DF011D928A95E9F71092B6011092B501D4
:102DC0000C94C80F882341F080959091B701892316
:102DD0008093B7010C94C80F0895882339F090911F
:102DE000B701892B8093B7010C94C80F08958823ED
:102DF00009F47AC0682F823869F40E943F0381FF8A
:102E000073C069E386E591E00E94340F0E94C80F09
:102E100069E30EC0833891F40E943F0380FF64C0D1
:102E200063E586E591E00E94340F0E94C80F63E5D8
:102E300086E591E00E94270F0C94C80F843869F44E
:102E40000E943F0382FF50C067E486E591E00E9444
:102E5000340F0E94C80F67E4EBCF8CEF860F813AE6
:102E600038F380E2860F883070F4677081E090E07C
:102E700001C0880F6A95EAF780959091B701892380
:102E80008093B701D9CF8BE5860F8330A0F4809172
:102E9000D7019091D801892B39F11092D801109265
:102EA000D701E0914001F09141013097E9F00680AF
:102EB000F781E02D16C0685A6731B0F48091D901CE
:102EC0009091DA01892B81F01092DA011092D901E8
:102ED000E0914001F0914101309731F00084F1859B
:102EE000E02D80E090E009940895CF93882309F4C1
:102EF0007CC0C82F8238B1F40E943F0381FD75C0A9
:102F000069E386E591E00E94340F0E94C80F2FEF1D
:102F100081EE94E0215080409040E1F700C0000035
:102F200069E317C08338D1F40E943F0380FD5DC080
:102F300063E586E591E00E94340F0E94C80F2FEFF1
:102F400081EE94E0215080409040E1F700C0000005
:102F500063E586E591E00E94270F3CC08438B1F418
:102F60000E943F0382FD41C067E486E591E00E9434
:102F7000340F0E94C80F2FEF81EE94E02150804063
:102F80009040E1F700C0000067E4E3CF8CEF8C0FC6
:102F9000813A80F4E8E5F1E08EE591E02191C217F5
:102FA000E1F08E179F07D1F76C2F86E591E00E9424
:102FB000340F10C080E28C0F8830B8F4C77081E005
:102FC00090E001C0880FCA95EAF79091B701892B6C
:102FD0008093B701CF910C94C80F6C2F86E591E0D8
:102FE0000E94270F0E94C80FDFCFCF9108958EE176
:102FF0004A9B02C08150E1F74A9BFECF08955A9840
:1030000080E28A95F1F75A9A0895FC012AE02A9500
:10301000F1F728E090E080E031E040E14A95F1F7F7
:10302000880F4A9B02C08160932700C0000040E1E6
:103030004A95F1F7215089F720E12A95F1F729B156
:1030400000C0000030E13A95F1F722FB222720F979
:1030500092272081920F90830895EF92FF920F9311
:103060001F93CF93DF931F92CDB7DEB719828C01E8
:103070007C01E60EF11C0E151F0551F00E94F7179A
:10308000CE0101960E940518F80181938F01F3CFBC
:1030900081E09981911180E00F90DF91CF911F9194
:1030A0000F91FF90EF9008959093DC018093DB01E6
:1030B000529A5A9A08959093DC018093DB015298BA
:1030C0005A9AEA9AE9E6F0E080818F7C808308953D
:1030D000615091E001C0990F6A95EAF720E031E074
:1030E000992361F0492F482319F05A9A232701C0E8
:1030F0005A9840E24A95F1F79695F2CF222311F0C3
:103100005A9A01C05A9880E28A95F1F75A98089520
:10311000FF920F931F93CF93DF93EC018C01060F67
:10312000111DC017D10741F0F9900E94FF1768E008
:103130008F2D0E946818F5CFDF91CF911F910F91CD
:10314000FF9008951F920F920FB60F9211242F93A4
:103150003F934F935F936F937F938F939F93AF931F
:10316000BF93CF93DF93EF93FF935A98529AC091F6
:10317000DB01D091DC016D81662321F08E819F817E
:103180000E9488180E94FF1780E18A95F1F75A98EB
:1031900052985A9A80E18A95F1F76A81662351F034
:1031A0008B819C810E942D18E881F981811104C0D6
:1031B00082E003C0E881F98188E080830E94F717EC
:1031C000FF91EF91DF91CF91BF91AF919F918F913F
:1031D0007F916F915F914F913F912F910F900FBE13
:1031E0000F901F901895CF93DF93C091DB01D09182
:1031F000DC01F894529A5A9885E08A95F1F700001C
:1032000052985A9A80E28A95F1F74A9B0AC0529ADC
:103210005A9AE881F98181E08083789481E090E096
:103220002CC06D81662381F08E819F810E942D18B4
:1032300081110AC0529A5A9AE881F98182E080830A
:10324000789482E090E019C00E94F71780E28A9596
:10325000F1F75A98529A80E18A95F1F76A816623CC
:1032600021F08B819C810E9488180E94FF17E881C1
:10327000F9811082789480E090E0DF91CF910895F9
:10328000F999FECF92BD81BDF89A992780B508952E
:10329000A8E1B0E042E050E00C947419262FF999AF
:1032A000FECF92BD81BDF89A019700B4021639F0A5
:1032B0001FBA20BD0FB6F894FA9AF99A0FBE089576
:1032C0000396272F0E944F190E944E19252F0E9406
:1032D0004F19242F0C944F190196272F0E944F1934
:1032E0000C944E19DC01CB01FC01F999FECF06C00C
:1032F000F2BDE1BDF89A319600B40D9241505040B4
:10330000B8F70895EE0FFF1F0590F491E02D099492
:04331000F894FFCF5F
:103314002F01002F01042B0101DD0A400BDC0ADA26
:103324000ADB0A019497C63400000000F4F5F6F7AE
:02333400313333
:00000001FF
