:100000000C94A3010C94EA010C94EA010C94481B93
:100010000C94EA010C94EA010C94EA010C94EA01B4
:100020000C94EA010C94EA010C946E0B0C942718C2
:100030000C9496100C94EA010C94EA010C94EA01D9
:100040000C94EA010C94EA010C94EA010C94EA0184
:100050000C94EA010C9458100C94EA010C94EA01F7
:100060000C94EA010C94EA010C94EA010C94EA0164
:100070000C94EA010C94EA010C94EA010C94EA0154
:100080000C94EA010C94EA010C94EA010C94EA0144
:100090000C94EA010C94EA010C94EA010C94EA0134
:1000A0000C94EA010C94EA010C94EA019507950777
:1000B000CF07CF07A909A909A909A9092208000999
:1000C000110911094F167616FF177616FF17BE167F
:1000D000E116FF17C917DC177D187D1890189018C6
:1000E00086189018901890187D187D188B18901805
:1000F00090188B1800AF2B0014001A000800150090
:100100001700E00004001600070009000A00E100E3
:100110001D001B0006001900050000000000E300A0
:10012000E20001512C002A00130012000C001800FC
:100130001C00340033000F000E000D000B00E50022
:100140003800370036001000110000000000E70002
:10015000E6000251280029001E001F002000210097
:100160002200E00001000100010001000100E100A7
:100170000100010001000100010000000000E30097
:10018000E20001512C002A0027002600250024004F
:100190002300010001004F005200510050000100F7
:1001A0000100010001000100010000000000E70063
:1001B000E6000251280029001E021F02200221022F
:1001C0002202E00001000100010001000100E10045
:1001D0003502010001000100010000000000E30001
:1001E000E20001512C002A002702260225022402E7
:1001F00023023500310230022F022E002D0035027D
:10020000310030002F002E022D0200000000E70018
:10021000E60002512800005C01000100010001001D
:100220000100C25CC55CC75CC95C01000100C35C25
:10023000C65CC85CCA5C0100010000000000E3006D
:10024000E20001512C003F003E003D003C003B001D
:100250003A004500440043004200410040000100D4
:100260000100010001000100010000000000E700A2
:10027000E6000251280000DA0281FFD9F1DB20A458
:10028000A62EAF00A0C000A1C800AED580A81FD385
:1002900000408D14200000AE05010906A1010507EC
:1002A00019E029E7150025019508750181029501DE
:1002B000750881010507190029FF150026FF009523
:1002C0000675088100050819012905950575019134
:1002D00002950175039101C009022200010100A0ED
:1002E000FA090400000103010100092111010001C4
:1002F0002240000705810308000A120110010000D6
:1003000000085459010001000102030104033000F8
:1003100000001A034C0075006E0061006B00650060
:10032000790020004D0069006E0069000000120392
:1003300079006F00690063006800690072006F0057
:1003400000000403090411241FBECFEFDAE0DEBF72
:10035000CDBF04B603FE27C0809118049091190404
:10036000A0911A04B0911B048730904BA740B04B6A
:10037000D1F4109218041092190410921A041092D9
:100380001B0414BE84B7877F84BF0FB6F894A8956A
:1003900080916000886180936000109260000FBEC1
:1003A000E0E0F8E3099524E0A2E3B1E001C01D928A
:1003B000A831B207E1F711E0A0E0B1E0E0E6F8E330
:1003C00002C005900D92A233B107D9F70E94F60C36
:1003D0000C942E1C0C94000090914E0192FF0DC0C5
:1003E000282F2871283019F4877F846006C0282FB1
:1003F0002471243011F48B7F886093FF0DC0282F67
:100400002871283119F4877E846106C0282F247151
:10041000243111F48B7E886120914F0120FF0DC0A3
:10042000382F3871383019F4877F816006C0382F33
:100430003171313011F48E7F886021FF0DC0282F7B
:100440002871283119F4877E816106C0282F217117
:10045000213111F48E7E886194FD877E08951F936B
:10046000CF93DF93CDB7DEB767970FB6F894DEBFB3
:100470000FBECDBF4B8B5C8B6D8B7E8B8F8B86E0E5
:100480009E01235F3F4FD901E82F1D92EA95E9F7BE
:1004900095E0FE017396D90101900D929A95E1F7CE
:1004A000F901DE01179601900D928A95E1F7CE01D0
:1004B00007960E94381381113EC086E0FE013796F0
:1004C000DE01119601900D928A95E1F7FF81E88592
:1004D0006A857B856115710531F0EF3F31F481E06C
:1004E000FF3F19F403C081E001C080E080FD23C01C
:1004F00020919F0330E0C9010196877099274091B0
:10050000D00350E08417950779F1F983EA837D835E
:100510006C8396E0929FD001939FB00D1124A0565A
:10052000BC4FFE01319601900D929A95E1F78093B0
:100530009F030E94C21216E08091D00390919F0306
:100540008917F9F0189FC001112480569C4F0E9412
:1005500038138823B1F08091D00390E00196877022
:1005600099278093D003E8CF0E94941810929F039C
:100570001092D003E9E9F3E086E0DF011D928A954D
:10058000E9F767960FB6F894DEBF0FBECDBFDF91D7
:10059000CF911F910895E0915001F0915101309752
:1005A00021F00190F081E02D099480E008950E94EF
:1005B0007E10DC01CB01805A9541AF4FBF4F809335
:1005C000800390938103A0938203B093830380916F
:1005D000840381110BC062E070E084EF90E00E9420
:1005E000E714892B19F481E08093840380918403BC
:1005F000089580913601811112C08091D8008061E8
:100600008093D8008AE18A95F1F700C08091D900E3
:1006100080FD02C082E001C081E08093360181E06C
:1006200090913601913009F080E00895CF93DF93E7
:1006300020E3829FC0011124FC0136E0739FE00D8E
:10064000F11D1124E60FF11DEE0FFF1FEA50FF4FC1
:10065000C591D491CE01C238D10569F1B0F4C1334E
:10066000D10509F475C048F4C932D10509F469C04F
:10067000CA32D10509F473C079C0C533D10509F474
:1006800059C0C933D105B9F071C0C33ED10571F16C
:1006900038F4C03ED105B1F0C23ED10511F166C0BB
:1006A000C63ED105B9F1C73ED105C9F1C43ED10559
:1006B00009F05CC024C020914E0120FD3CC121FD09
:1006C0003AC154C020914E0120FD2FC120914F010D
:1006D00020FF36C180914E0184FD24C183EE90E05D
:1006E0002FC120914E0122FF2BC1F4CF80914E01EA
:1006F00082FD1EC180914F0180FD1DC1EBCF209175
:100700004F0121FF1DC180914E0184FD0BC187EE79
:1007100090E016C120914E0123FF12C1F4CF8091C9
:100720004E0183FD0BC180914F0181FFECCF84EE20
:1007300090E006C120914E0125FF02C189E290E0C0
:10074000FFC020914E0125FFFBC085E390E0F8C07B
:1007500020914E0126FFF4C08AE290E0F1C0209182
:100760004E0126FFEDC081E390E0EAC0C11543E5EC
:10077000D407A0F5C11552E5D50708F09CC0C115F6
:1007800020E2D207C0F4C11531E0D30708F0D8C089
:10079000C53AD10540F4C430D10508F0D1C0219745
:1007A00009F4CEC0BFC09E01205E3109283031055A
:1007B00008F0B8C0C5C0C11541E5D40708F076C03F
:1007C000C11550E5D50708F051C0C11580E4D80720
:1007D00008F4A8C0CE019F70906AB2C0C11526E58A
:1007E000D20700F5C11535E5D30708F07FC0C11564
:1007F00044E5D40708F075C09E012370332781E0DB
:1008000090E0AC0102C0440F551F2A95E2F72C2F4F
:100810002695269530E2239FC0011124842B952B29
:100820009A688EC0C1155AE5D50778F4C11589E5D7
:10083000D80708F064C0C11528E5D20708F472C0D3
:100840009C2F8827806F906A7BC0CE0190568115BF
:10085000904208F067C08D2F8F710E94EC019E01BD
:10086000332730628F71A901582B5AC0CE01F4E0B2
:1008700096958795FA95E1F7282F23703C2F3370D2
:1008800081E090E002C0880F991F3A95E2F79C68DA
:10089000AC01522B8C2F8F70282F2695269530E295
:1008A000239FC0011124842B952B4AC09C2F88279D
:1008B000816F906A45C09E012370332781E090E0EC
:1008C000AC0102C0440F551F2A95E2F72C2F269544
:1008D000269530E2239FC0011124842B952B9C6820
:1008E0002FC09C2F8827846F906A2AC08C2F0E946B
:1008F000EC018F7190E0982F8827906221C08C2F97
:100900008F700E94EC019E0194E0369527959A9590
:10091000E1F72F7030E0322F22273069A901482BF0
:10092000CA010EC080E090E00BC089E390E008C0EF
:1009300082EE90E005C080EE90E002C086EE90E08E
:10094000DF91CF9108950F931F93CF93DF93C42F1F
:10095000122FFC0182818823C9F0409339010E9443
:100960008A10909338018093370180E28C0F883091
:1009700008F06AC0C77081E001C0880FCA95EAF725
:10098000DF91CF911F910F910C94AE188091390196
:1009900048134AC020913701309138014FB7F8947D
:1009A0008091F8039091F903A091FA03B091FB03B1
:1009B0004FBF821B930B883C9105B0F5D0E2D10F5D
:1009C000C117B9F080E28C0F883040F4C77081E025
:1009D00001C0880FCA95EAF70E94A318D83048F4DE
:1009E00081E0912F977001C0880F9A95EAF70E94D5
:1009F000AE18802F0E943619093349F4FFEF27EE15
:100A000083E0F15020408040E1F700C00000802FDB
:100A10000E94B818D830C0F4212F277081E001C09F
:100A2000880F2A95EAF70AC080E28C0F883060F4BC
:100A3000C77081E001C0880FCA95EAF7DF91CF91B6
:100A40001F910F910C94A318DF91CF911F910F91DB
:100A500008958F929F92AF92BF92CF92DF92EF92C2
:100A6000FF920F931F93CF93DF93CDB7DEB72A97F3
:100A70000FB6F894DEBF0FBECDBFFC010081D18060
:100A800083819481892B39F01FEFD11206C091E048
:100A90000F3F19F403C091E001C090E090FD98C4AD
:100AA0007F0185E0DE01169601900D928A95E1F7AF
:100AB000F70122818E819F81222349F00E948D11AE
:100AC000182F682F8E819F810E94071203C00E94F9
:100AD000DA11182F20E3129FF001112436E0D39E83
:100AE000E00DF11D1124E00FF11DEE0FFF1FEA5084
:100AF000FF4F05911491033F8CE5180741F190F4E5
:100B0000083DECE51E07E9F0093DFCE51F0789F10A
:100B1000073D2CE51207B1F506E221EE41EE67ED47
:100B20007CE52CC0053F3CE51307E9F0B0F0063F3B
:100B30009CE5190739F507E225EE46EE66EF7CE500
:100B40001DC007E225EE45EE68ED7CE517C006E224
:100B500021EE40EE63EF7CE511C007E225EE44EEA6
:100B600064EF7CE50BC006E221EE42EE65EF7CE52A
:100B700005C008E221E045EE69ED7CE5C7010E9471
:100B8000A3046CC1F7018281882309F43FC110924C
:100B900039010230FCE51F0708F422C106312CE5BB
:100BA000120738F098012A5F3C452930310508F0DA
:100BB00017C10E94E61090934F0180934E010031BF
:100BC0003CE5130709F4C3C008F041C008309CE5B8
:100BD000190709F49AC0F0F40430FCE51F0709F482
:100BE00087C068F402303CE5130709F477C003308E
:100BF0001C4509F0E5C080914E01826076C0063048
:100C00009CE5190709F46EC008F07BC080914E0185
:100C100088606BC00C30FCE51F0709F485C068F4E0
:100C20000A303CE5130709F474C008F079C00E944B
:100C3000941880914E01806858C00E309CE51907C9
:100C400009F476C008F07FC080914E018BC00B3F45
:100C5000FCE51F0709F44FC018F503313CE5130705
:100C600009F47DC078F401319CE5190709F473C0DB
:100C700002311C4509F0A4C00E94941880914E01D5
:100C80008F7733C00531FCE51F0709F472C008F403
:100C900086C00A3F1C4509F093C080914F013EC0B9
:100CA0000F3F8CE5180709F45FC058F40D3FECE5E1
:100CB0001E0709F444C008F43FC080914F018260D0
:100CC0002DC001302DE5120709F475C008F45DC090
:100CD00002301D4509F074C060E06EC080914E0185
:100CE000816003C080914E01806180934E0168C095
:100CF00080914E0111C080914F01826080934F011D
:100D00005FC080914E018062F0CF80914E0180647F
:100D1000ECCF80914E0188608460E7CF8160EECF98
:100D200080914E018E7FE1CF80914E018D7FDDCF8E
:100D300080914E01877FD9CF80914F0118C080915B
:100D40004F018D7FDBCF80914E018F7ECECF809182
:100D50004E018F7DCACF80914E018F7BC6CF80918F
:100D60004E01877F8B7FC1CF80914F018D7F8E7F1A
:100D7000C5CF80914E0182FB222720F991E0922776
:100D800090FB82F990FB83F9B0CF80914F01982FAF
:100D9000909591708E7F892B90FB81F9AFCF0E9447
:100DA000941880914E0187FB222720F991E0922729
:100DB00090FB87F99ACF61E08EE090E00E94F41BEF
:100DC00060914E0110914F0184E090E00E94F41B6D
:100DD000612F81E290E00E94F41B0E9494183EC0B3
:100DE00006312CE5120719F58091F2038A7A91E019
:100DF00009F490E090933A01882311F065E301C073
:100E000069E281E993E00E94CC100EC006311C45D6
:100E100009F043C080913A01882309F4D7C265E301
:100E200081E993E00E94BF100E94601117C0011574
:100E30009CE5190731F00E3D1C4579F50E94F7102D
:100E40000DC00E949418FFEF04E31CE0F150004035
:100E50001040E1F700C000000E9434108091EF03C1
:100E6000877009F4B5C2F7018281882309F4B0C202
:100E700082E02A960FB6F894DEBF0FBECDBFDF9199
:100E8000CF911F910F91FF90EF90DF90CF90BF9087
:100E9000AF909F908F900C947A12F701008111818E
:100EA000882349F0C8010E948D11D82E682FC801EF
:100EB0000E94071204C0C8010E94DA11D82EB8019E
:100EC0008D2D0E9416038C01982EF701B580B294E7
:100ED0002FE0B222A280A1101092F1038091EF03C3
:100EE000877099F0AA2089F0812F807F803421F0CB
:100EF00080E2800F883048F082E00E947A12809170
:100F0000EF038770DD24D3948111D12CC12EC294BC
:100F10009FE0C9228C2D90E08C30910508F019C219
:100F2000FC01EA5AFF4F0C94281C812F807F1F7010
:100F3000882311F01295107FAA20B9F0112309F42B
:100F4000F3C180E2800F883010F0911006C08091CC
:100F5000F203182B1093F20305C08091F103182BB4
:100F60001093F1030E946011DFC1802F0E94B81816
:100F7000112309F4EEC1005E1095083010F09110B5
:100F800006C08091F20318231093F20305C08091EC
:100F9000F10318231093F1030E946011DAC1812F2D
:100FA000807F1F70803211F01295107F992021F000
:100FB000F1E09F16E1F02AC0AA2081F08091F303AE
:100FC000BB2051F001E0B01207C0182B181709F42C
:100FD000C0C11093F303BDC1812B10C0BB2021F011
:100FE00021E0B21609F4B5C10E945A1127C0AA2007
:100FF00041F035E03B1508F4ACC1812F0E94AE18DA
:10100000A8C184E08B1508F4A4C118C0AA2049F037
:10101000BB2099F3F701858180FF86C18F7085839E
:10102000ECCFBB2059F0093309F090C1FFEF17EE68
:1010300023E0F15010402040E1F786C1812F0E944B
:10104000A31887C1812F837009F069C0A11085C1E1
:10105000902F929596959770990F990F802F8F707A
:10106000882E912CA12CB12C092E04C0880C991C1F
:10107000AA1CBB1C0A94D2F704FF12C04FE050E038
:1010800060E070E004C0440F551F661F771F9A95FB
:10109000D2F7DB01CA0180959095A095B09503C069
:1010A00080E090E0DC0116951695412F43704230A8
:1010B00019F1C8F40091F4031091F5032091F6039F
:1010C0003091F703413059F088299929AA29BB2981
:1010D000BC01CD0160237123822393230AC0802A9F
:1010E000912AA22AB32ABC01CD01682979298A292B
:1010F0009B290E94B41231C188299929AA29BB29A8
:101100000091F4031091F5032091F6033091F70359
:10111000BC01CD016027712782279327EACFAA203F
:1011200019F0812F817001C08695882309F415C1BB
:10113000902F929596959770990F990F802F8F7099
:10114000882E912CA12CB12C092E04C0880C991C3E
:10115000AA1CBB1C0A94D2F704FF12C04FE050E057
:1011600060E070E004C0440F551F661F771F9A951A
:10117000D2F7DB01CA0180959095A095B09503C088
:1011800080E090E0DC0116951695412F43704230C7
:10119000D9F068F500914A0110914B0120914C0162
:1011A00030914D01413059F088299929AA29BB294C
:1011B000BC01CD0160237123822393231EC0802AAA
:1011C000912AA22AB32A13C088299929AA29BB29BE
:1011D00000914A0110914B0120914C0130914D0139
:1011E000BC01CD01602771278227932706C0BC016F
:1011F000CD01682979298A299B290E943312ADC023
:101200001F70AA2039F0812F0E949312802F0E9414
:10121000AE18A3C0802F0E94A318812F0E945512E0
:101220009CC0802F32EF931609F440C0391538F076
:1012300090EF991661F0E1EF9E1699F170C0F3EF0F
:101240009F16D9F124EF921609F44EC068C0AA2067
:1012500019F134E03B1508F47CC01F7181E090E087
:10126000A0E0B0E0AC01BD0104C0440F551F661FF3
:10127000771F1A95D2F780914A0190914B01A09166
:101280004C01B0914D018A019B01082719272A279B
:101290003B27C901B80121C025E02B1508F459C02E
:1012A000DCCFAA2029F0812F8F712CC0AA20D9F37E
:1012B000812F8F710E9455124CC0AA2089F01F7196
:1012C00081E090E0A0E0B0E0BC01CD0104C0660F79
:1012D000771F881F991F1A95D2F70E94331239C0C1
:1012E00060E070E0CB01F9CFAA2079F01F71812F67
:1012F0000E94931238E0139FC001112483608093F1
:10130000EF03812F0E94931224C081E00E947A1281
:1013100081E08B15F0F482E00E947A121AC0AA20B4
:1013200039F0BB2009F4BFCF802F0E94361911C0BD
:10133000BB2009F4BDCF893349F49FEFE7EEF3E01A
:101340009150E040F040E1F700C00000802F0E9483
:10135000B81888EF8C0D843010F40E94CB02DD2089
:10136000A9F08091EF0380FD11C0F70112828595ED
:10137000859585950E949312C7010E942905809149
:10138000EF038595859585950E94551285E0F701B7
:10139000DE01119601900D928A95E1F789819A817B
:1013A0000E94DA119A8100E3809FF001112416E077
:1013B000919FE00DF11D11248981E80FF11DEE0FC1
:1013C000FF1FEA50FF4F8591949102C069E228CD3A
:1013D0002A960FB6F894DEBF0FBECDBFDF91CF9136
:1013E0001F910F91FF90EF90DF90CF90BF90AF9043
:1013F0009F908F9008956F927F928F929F92AF925D
:10140000BF92CF92DF92EF92FF920F931F93CF93F1
:10141000DF936BE171E000E411E024E4E22E21E0CF
:10142000F22E3801C0E0AA24A394B12CDB018D91E7
:10143000BD01E82FE295EF70F0E021A18F70A501CA
:1014400002C0440F551F8A95E2F7CA01242B21A33D
:1014500022A1942E9094292122A350EA5A95F1F7C3
:1014600093E2C92E91E0D92E20E030E0D0E0D60101
:101470008D906D01482D42954F7050E0DA019096A5
:101480004C9150E0B82DBF7002C055954795BA9564
:10149000E2F740FD07C04A2D022E01C0440F0A9416
:1014A000EAF701C040E0D42B2F5F3F4F26303105D3
:1014B000F1F691A1992291A292A1892B82A3F30125
:1014C0008081D81719F0D08381E001C080E0C82B5B
:1014D000FFEF6F1A7F0AE614F70409F0A7CFE09137
:1014E0004901CE2ED12CCC2349F081E080933401E8
:1014F0000E948A10909333018093320180913401CD
:101500008823F9F020913201309133014FB7F894DC
:101510008091F8039091F903A091FA03B091FB0335
:101520004FBF821B930B069760F0F601ED5AFE4FFA
:10153000D8018D918D018193EA16FB06C9F71092AF
:1015400034010E94F9028823B1F0109148010E94F1
:10155000991B892B09F5E12FF0E0ED5AFE4F80E051
:1015600090E0DC01A55CBE4F2C9121930196843064
:101570009105B9F722C0E0914901F0E0ED5AFE4F24
:1015800080E090E02191DC01A55CBE4F2C93019698
:1015900084309105B9F713C0809135018F5F809336
:1015A0003501863060F0E0914801F0E0ED5AFE4FE1
:1015B000108211821282138202C0109235018C2F88
:1015C000DF91CF911F910F91FF90EF90DF90CF901F
:1015D000BF90AF909F908F907F906F900895E8EDAF
:1015E000F0E080818E7F80831092E2001092DA001A
:1015F0001092E100A0EEB0E08C9181608C9380812C
:101600008F77808319BCA7EDB0E08C918E7F8C938F
:1016100080818F7E8083109290030895CF92DF9215
:10162000EF92FF920F931F93CF93DF93C8EDD0E01B
:1016300088818F7E8883E7EDF0E080818160808300
:1016400084E082BF81E08093900388818E7F8883CD
:1016500002EE10E0F80110821092DA0081EEC82E3E
:10166000D12CF601108288818F77888388818068E9
:10167000888388818F7D888319BC1092080410921A
:101680000904109207041092060490EEE92EF12C42
:10169000F70180818B7F808388818160888360E00F
:1016A00080E00E943615F60180818E7F8083F801EC
:1016B000808181608083808188608083F701808160
:1016C0008E7F8083888180618883DF91CF911F9195
:1016D0000F91FF90EF90DF90CF9008951F920F929F
:1016E0000FB60F9211242F933F934F935F936F93F5
:1016F0007F938F939F93AF93BF93EF93FF938091CB
:10170000E10082FF09C08091E20082FF05C0809164
:10171000E1008B7F8093E1008091DA0080FF2AC096
:101720008091D80080FF26C08091DA008E7F809360
:10173000DA008091D90080FF18C080E189BD82E184
:1017400089BD09B400FEFDCF81E08093080480913B
:10175000900381110FC00E94EF0A0E940E0B80912E
:10176000E20084608093E20005C019BC1092080476
:10177000109290038091E10080FF17C08091E200F9
:1017800080FF13C08091E2008E7F8093E200809101
:10179000E20080618093E2008091D80080628093B3
:1017A000D80019BC85E0809308048091E10084FF93
:1017B00032C08091E20084FF2EC080E189BD82E1C9
:1017C00089BD09B400FEFDCF8091D8008F7D809344
:1017D000D8008091E1008F7E8093E1008091E2004B
:1017E0008F7E8093E2008091E20081608093E2002E
:1017F00080910904882311F084E007C08091E30000
:1018000087FD02C081E001C083E0809308040E944C
:1018100094180E94CB028091E10083FF26C0809142
:10182000E20083FF22C08091E100877F8093E10086
:1018300082E080930804109209048091E1008E7F79
:101840008093E1008091E2008E7F8093E20080919E
:10185000E20080618093E20060E080E00E94361543
:101860008091F00088608093F000FF91EF91BF912C
:10187000AF919F918F917F916F915F914F913F9128
:101880002F910F900FBE0F901F9018952091E4009C
:101890003091E50095E64091EC00842F817040FF87
:1018A00023C08091E80080FD1DC08091080488233A
:1018B00099F0853099F08091EB0085FD11C0409141
:1018C000E4005091E5002417350729F3915011F0F9
:1018D0009A01E1CF84E0089582E0089583E00895BD
:1018E00081E0089580E008954091E80042FFDDCF57
:1018F000089580910A0487FF11C08091E80082FD5D
:1019000005C0809108048111F8CF11C08091E800D2
:101910008B770BC080910804882349F08091E80000
:1019200080FFF8CF8091E8008E778093E8000895DB
:1019300020911004309111042617370748F06115E3
:10194000710539F42091E8002E772093E80001C05A
:10195000B901FC0120E06115710579F1809108045D
:101960008823F1F18530F1F18091E80083FD3CC0DE
:101970008091E80082FD2EC08091E80080FFEBCFCF
:101980002091F3008091F20090E0922B6115710597
:1019900051F08830910538F421912093F100615085
:1019A00071090196F3CF21E0089709F020E08091BA
:1019B000E8008E778093E800CECF2111CFCF0AC008
:1019C00080910804882361F0853061F08091E800FF
:1019D00083FD0AC08091E80082FFF2CF80E0089585
:1019E00082E0089583E0089581E00895CF93DF9326
:1019F000CDB7DEB72C970FB6F894DEBF0FBECDBFC4
:101A000084B7877F84BF0FB6F894A8958091600053
:101A1000886180936000109260000FBE90E080E8C3
:101A20000FB6F89480936100909361000FBE85B764
:101A3000806885BF85B7806885BF0E94EF0A0E94D5
:101A40000E0B8091E20084608093E2007894809194
:101A500008048823A1F01091E9001F709091EC0018
:101A6000892F817090FD80E8182B1092E9008091F9
:101A7000E80083FD0E946B151F701093E90082E05F
:101A800084BD93E095BD9AEF97BD80936E000E9450
:101A9000F902809308010E94F902882331F061E085
:101AA00070E080E091E00E94FA1A80910801809134
:101AB0000801811102C094E001C090E090934901B7
:101AC00084E0891B80934801ABE1B1E04FE151E034
:101AD00061E070E08D91E82FE295EF70F0E021A1D8
:101AE0008F708B0102C0000F111F8A95E2F7C801A9
:101AF000902F9095922391A392A1892B82A34A17AC
:101B00005B0741F7A3E2B1E049E251E061E070E038
:101B10008D91E82FE295EF70F0E021A18F708B019D
:101B200002C0000F111F8A95E2F7C801902F90950F
:101B3000922391A392A1892B82A34A175B0741F7B5
:101B4000E0E4F1E088E491E0A3E5B1E011921D92B8
:101B50008E179F07D9F70E94FB098FE39CE9019735
:101B6000F1F700C000000E94FB098091530180FF43
:101B700008C06FEF7FEF80E090E00E94121C0E948F
:101B8000341080E090E00E94EE1B8C3E9E4F11F0DE
:101B90000E94F7100E94F902811106C061E070E016
:101BA00080E091E00E94011B10927C0380E880930A
:101BB0005B010E94B8196DE070E089E892E00E9434
:101BC000E714892B09F03FC080917C0363E070E04B
:101BD00081FD36C086E892E00E94E714892B99F5D2
:101BE0006DE070E086E792E00E94E714892B59F5DA
:101BF0000E947E10DC01CB01805A9541AF4FBF4F50
:101C00008093800390938103A0938203B093830316
:101C100080E092E0ECE7F1E0DF018C011D920150E1
:101C20001040E1F78FEF9FEF90937F0380937E0347
:101C300081E0809385038093840310927D0303C029
:101C400083E892E0C9CF80E090E00E94EE1B8C3EDA
:101C50009E4F11F00E94F71082E090E00E94E61B78
:101C6000809387030E94E61090934F0180934E016A
:101C700083E090E00E94E61B682F70E080E090E037
:101C80000E94B41280E191E0909351018093500141
:101C900022242394312CF3E06F2EDD24DA948091FA
:101CA0000804853009F03AC080910804843021F19D
:101CB0001092520180E428E130E00FB6F894A89524
:101CC000209360000FBE8093600083B7817F8460A3
:101CD00083BF83B7816083BF7894889583B78E7FF5
:101CE00083BF0FB6F894A8958091600088618093B7
:101CF0006000109260000FBE80910704882309F4F1
:101D0000CECF0E94FB09E3E5F1E08191811164C12E
:101D10008BE591E08E179F07C1F7C1CF0E94FB09A9
:101D2000C82E0E94F9028823A1F1E8E8F3E0A3E5B8
:101D3000B1E000E010E0302F2D919191922721F138
:101D400080E0FF24F3944F2D4923D1F089833A8317
:101D50002F2181E009F480E08B830E948A1081604A
:101D6000782F9D838C8349815A816B818D810E945C
:101D70002F02F801E857FC4F8081F826F08218C046
:101D80008F5FFF0C8630F9F60F5F1F4F083011058B
:101D900091F6DE82DF8218860E948A108160782F99
:101DA0009A8789874E815F8168858A850E942F0284
:101DB00080918503882309F400C120917E0330912E
:101DC0007F032115310509F4D8C080917D0381116D
:101DD000D4C0482E512C7101082E02C0EE0CFF1CFD
:101DE0000A94E2F7A9014E215F21452B11F48F5F80
:101DF000F0CF90917C03920175E0220F331F7A950A
:101E0000E1F790FD12C08295880F807680930B01D8
:101E1000220F232F221F330B319520930E01815E59
:101E200080930C0110920F0111C055E03695279553
:101E30005A95E1F7220F220F220F20930B011092E7
:101E40000E01295F20930C0160920F0124E630E01F
:101E500047E050E069E071E088E70E94451A892B6D
:101E600009F08BC080917C0380FD23C0C20145E056
:101E7000880F991F4A95E1F7AC0144585E4F04E67C
:101E800010E020E230E060E488E70E946C1A892BC1
:101E900009F073C00E94D702E094F09480917E0311
:101EA00090917F03E822F922F0927F03E0927E0373
:101EB00064C0ACE5B1E0E0E21D92EA95E9F735E0F7
:101EC000440C551C3A95E1F70DE211E01C870B8795
:101ED00069E271E0AB85BC858D91BC87AB87FB0166
:101EE0009191BF01A201490F511D44585E4F90E0EE
:101EF000845A9E4FFC0127E0A22E9F01281B390B1C
:101F0000822C01C0880C2A95EAF78A01912CD8010D
:101F1000BD908D01B8202A2D29192770722E022E0E
:101F2000000C330BBB2D01C0BB0F7A94EAF77B2E5C
:101F30003195219531092770332701C0B6942A9530
:101F4000EAF77B28B0807B287082939428E0921275
:101F5000DECFAA9431963FEFA312CFCF81E391E079
:101F6000AB85BC858A179B0709F0B4CF04E610E067
:101F700020E230E04CE551E086CF80918403882355
:101F8000E1F00E947E100091800310918103209166
:101F9000820330918303DC01CB01801B910BA20BE8
:101FA000B30BB7FD0AC062E070E086E992E00E94E0
:101FB000E714892B11F410928403C1100E94D702F8
:101FC0000E94CB0290918603891709F468CE0E9483
:101FD000CB028093860363CEB0E1B9BDE2E1E9BDF7
:101FE00009B400FEFDCF8091D8008F7D8093D8008A
:101FF0008091E00082608093E0008091E00081FDAC
:10200000FCCF4DCE0895089508958091FD03089565
:10201000CF93DF9321E02093E9002FEF3091E80088
:10202000215035FD06C035ED3A95F1F7000021113C
:10203000F5CF2091E80025FF14C0EC0140E050E00E
:1020400068E070E00E9410158091E8008E77809320
:10205000E80088E0FE01AEEFB3E001900D928A95B2
:10206000E1F7DF91CF91089581E08093E00080E275
:102070008093D8001092C9008FE19EE40197F1F798
:1020800000C0000087E090EBDC018093180490937F
:102090001904A0931A04B0931B049CE088E10FB6C6
:1020A000F894A895809360000FBE90936000FFCFD6
:1020B00078941F920F920FB60F9211248F939F93D3
:1020C000AF93BF938091F8039091F903A091FA0325
:1020D000B091FB030196A11DB11D8093F80390936D
:1020E000F903A093FA03B093FB03BF91AF919F91C3
:1020F0008F910F900FBE0F901F9018952FB7F894E7
:102100006091F8037091F9038091FA039091FB03B9
:102110002FBF08952FB7F8948091F8039091F90399
:10212000A091FA03B091FB032FBF08951F920F9265
:102130000FB60F9211248F939F93AF93BF9380910B
:102140005201811113C08091F8039091F903A0917D
:10215000FA03B091FB034196A11DB11D8093F803D2
:102160009093F903A093FA03B093FB03BF91AF914F
:102170009F918F910F900FBE0F901F9018959C010B
:102180002A5F3F4FFC014281461301C01282019633
:1021900082179307B9F708959C01FC0132969FEFCF
:1021A00080E04191461789F09F3F19F4411101C029
:1021B000982F8F5F8630A9F79F3F39F0F901E90F1B
:1021C000F11D97FDFA95628308950895CF9384E0F9
:1021D00090E00E94E61BC82F81E290E00E94E61B7F
:1021E0002C2F30E0A901582BCA01CF9108956CEE35
:1021F0007EEF80E090E00E94121C60E082E090E0C0
:102200000E94F41B60E083E090E00E94F41B1092B7
:10221000F4031092F5031092F6031092F70360E0B6
:1022200084E090E00E94F41B60E081E290E00E9474
:10223000F41B60E085E090E00E94F41B60E086E023
:1022400090E00E94F41B6FEF87E090E00E94F41B87
:1022500040E050E0BA0188E090E00E94061C60E097
:102260008DE090E00E94F41B40E050E0BA0188E16C
:1022700090E00E94061C60E087E190E00E94F41B61
:1022800040E050E0BA018CE190E00E94061C60E062
:1022900080E290E00E94F41B40E050E0BA018FE041
:1022A00090E00E94061C40E050E0BA0183E190E01B
:1022B0000C94061C8091F30381111092F30308958E
:1022C0009091F2038091F103892B2091F003982FD4
:1022D000922B909391038091F303882389F0892BAB
:1022E00080939103E3E9F3E097E080E0915029F0D7
:1022F00021912223D9F38F5FF9CF81110E945A11C6
:10230000E0915001F0915101309731F00280F3815A
:10231000E02D81E993E009940895BF92CF92DF9276
:10232000EF92FF920F931F93CF93DF938C01C09096
:102330004A01D0904B01E0904C01F0904D0180910A
:10234000F4039091F503A091F603B091F703C82A26
:10235000D92AEA2AFB2ACFE1D0E0D701C6010C2E08
:1023600004C0B695A795979587950A94D2F780FDF6
:1023700004C0219790F7B12C07C0BC2EB8018C2F58
:102380000E9416030197A9F38B2DDF91CF911F9126
:102390000F91FF90EF90DF90CF90BF900895CF9373
:1023A000DF93EC010E948D11BE010E941603DF91A4
:1023B000CF910895292F220F920F990F890F682F1F
:1023C000669566956695982F977085E0689FB00131
:1023D000112440E050E080E0FB01E40FF51FEF52D4
:1023E000FC4F208130E0092E02C0369527950A94D3
:1023F000E2F721703327042E01C0220F0A94EAF776
:10240000822B4F5F5F4F4530510531F70895292FDB
:10241000220F920F990F890FE82FE695E695E69522
:10242000877051E001C0550F8A95EAF785E0E89F73
:10243000F0011124EF52FC4F20E030E070E04081C9
:10244000CB01022E02C0969587950A94E2F781701F
:10245000819584278523842781932F5F3F4F2530E3
:10246000310569F708950F931F938B019C01067046
:10247000112722273327DC01CB0106301105210566
:10248000310511F4886001C0877F80934A019093E1
:102490004B01A0934C01B0934D011092F1031092A7
:1024A000F0031F910F910C9460110F931F9341E063
:1024B00050E060E070E004C0440F551F661F771FB6
:1024C0008A95D2F7409550956095709580914A0114
:1024D00090914B01A0914C01B0914D018A019B015B
:1024E000082319232A233B23C901B8011F910F9107
:1024F0000C9433122091EF03809582238093EF0395
:10250000982F977079F430E0482F082E000C550B67
:102510002417350739F08595859585950E945512C4
:102520001092EF0308950F931F9341E050E060E095
:1025300070E004C0440F551F661F771F8A95D2F7BD
:1025400080914A0190914B01A0914C01B0914D01B5
:102550008A019B01082B192B2A2B3B2BC901B8019F
:102560001F910F910C9433126093F4037093F50351
:102570008093F6039093F7031092F1031092F00307
:102580000C9460118091D00390919F03891719F0EA
:102590008F5F8770FBCF08950F931F93CF93DF93C7
:1025A00080919E0382958F7009F05DC080919B039E
:1025B000882309F458C08091D00310919F03609143
:1025C000990370919A03C0919C03D0919D0391E06F
:1025D0006F3F09F090E0292F06E0811709F443C00E
:1025E000209721F07F3F21F030E003C031E001C0AF
:1025F000322F90E030FD34C0089FF001099FF00DAC
:102600001124DF01A056BC4F11963C91119737134E
:1026100027C03C91361324C012963C911297311179
:102620001FC013964D915C9114974C1B5D0B483C59
:102630005105B0F480919E038F70806180939E035A
:10264000EB55FC4F80818F708061808389E993E036
:102650000E942905DF91CF911F910F910C94C21216
:1026600001968770BACFDF91CF911F910F91089596
:102670009F92AF92BF92CF92DF92EF92FF920F9311
:102680001F93CF93DF93CDB7DEB761970FB6F89462
:10269000DEBF0FBECDBF8C0185E0F801DE011D96C7
:1026A00001900D928A95E1F7F80190818181E28095
:1026B0003091990360919A0340919C0350919D033E
:1026C0004115510531F06F3F31F421E03F3F19F4DE
:1026D00003C021E001C020E0F22FF1709F2E20FD09
:1026E00023C1F801C380D48029E9A22E23E0B22EB1
:1026F000F0909B03F601E41BF50BFF2009F4CEC01C
:1027000020919E03E83CF10508F099C0422F407FDC
:1027100009F051C0681311C039130FC0FE2CE1102D
:102720000CC02F70206120939E03C5010E942905D3
:1027300080919E03F801858337C1CD2831F08F3F0A
:1027400031F421E09F3F19F403C021E001C020E0F3
:1027500020FD03C021E02E2502C020E030E0F22F52
:10276000F170FF2E20FF1DC02091D00340919F03E8
:1027700056E0241709F4F6C030E0529FF001539F51
:10278000F00D1124E056FC4F6181861306C0608174
:10279000961303C06281E61204C02F5F3F4F27707B
:1027A000E8CFFE2CEE2009F4FFC080919E038160EB
:1027B00080939E0350C0681307C0391305C0E11011
:1027C00003C0F80125838DC09D878E878D859E85EA
:1027D0000E946B18882369F1EE2059F120919E0325
:1027E000822F82958F7090E0029774F08091990308
:1027F00090919A0398878F831986DB86CA862C87E7
:10280000CE0107960E94290586E0F801A9E9B3E008
:1028100001900D928A95E1F70E94CC120DC06817C5
:10282000E1F09D878E878D859E850E946B188111B2
:102830001EC0C8010E942905FF24F394B5C0422F91
:10284000407F69F789E993E00E94290586E0F50158
:1028500011928A95E9F7F12CA7C03913E2CFE11064
:10286000E0CFF8012583C8010E94290557C0EE205A
:1028700001F320919E03822F82958F7090E0029742
:102880001CF28091990390919A039A8389831B8209
:10289000DD82CC822E83CE010196B4CFE83CF105D7
:1028A000E8F5FE2CEE2029F2681327C0391325C065
:1028B00020919E0320FD18C0822F82958F70482F93
:1028C00050E04115510581F0F80125834F30510545
:1028D00041F08F5F982F9295907F822F8F70892B78
:1028E0008583C8010E94290586E0F801A9E9B3E0C3
:1028F00001900D928A95E1F757C09D878E878D854F
:102900009E850E946B1881117FCF80919E0381600C
:1029100080939E03C8010E94290546C086E0F50108
:1029200011928A95E9F740C0EE2009F482CF9D8785
:102930008E878D859E850E946B18F82E882309F45A
:1029400078CF86E0F801A9E9B3E001900D928A956D
:10295000E1F78091990390919A030E94CF110E9410
:10296000CC1222C09D878E878D859E850E94CF11B7
:10297000292F22952F70223028F49F7039F0811171
:1029800005C00BC0243028F49F7049F4805E883065
:1029900020F0C8010E9429059F2CF92C05C0F801E0
:1029A0009581907F99F7F9CF8F2D61960FB6F894A6
:1029B000DEBF0FBECDBFDF91CF911F910F91FF9072
:1029C000EF90DF90CF90BF90AF909F900895EF92DF
:1029D000FF920F931F93CF93DF93EC017B0164E68B
:1029E00070E088E70E94BE198C01EC0EFD1ECE152A
:1029F000DF0561F017FD0AC0FE01849164E670E016
:102A00000E94151A8C012196892B89F30E94991A2C
:102A1000C801DF91CF911F910F91FF90EF90089522
:102A20000F931F93CF93DF938C010E94460C81116B
:102A300018C0E80108E010E08091E80085FD0AC0B8
:102A40008091E8008E778093E8000E94460C8823EE
:102A500099F307C089918093F1000150110961F742
:102A600080E0DF91CF911F910F910895982F9730BB
:102A700068F59093E900981739F05091EC00209197
:102A8000ED004091F00003C0562F40E022E021FD10
:102A900002C09F5FECCF3091EB003E7F3093EB00A4
:102AA0003091ED003D7F3093ED003091EB003160CF
:102AB0003093EB005093EC002093ED004093F00036
:102AC0002091EE0027FDE5CF80E008958F70809380
:102AD000E90081E008951F93CF93DF93CDB7DEB770
:102AE000AA970FB6F894DEBF0FBECDBFEAE0F4E0C0
:102AF0008091F100819324E0E231F207C9F78091DF
:102B00000B04833009F460C030F4813071F08230FE
:102B100009F49AC0B1C08A3009F486C08B3009F438
:102B20006BC0893009F0A8C020C080910A04813AA6
:102B300009F0A2C08091E800877F8093E80080912F
:102B40000E0490910F04892B21F468E08EEF93E03E
:102B500003C060E080E090E070E00E94980C8091FB
:102B6000E8008B778093E80087C080910A04813267
:102B700009F082C080910E0490910F04892B09F016
:102B80007BC08091E800877F8093E8008091E80017
:102B900082FD05C0809108048111F8CF6DC020919D
:102BA000F3008091F20090E0922B029729F480913B
:102BB000F1008B7F813021F48091F1008093FD033F
:102BC0008091E8008B7754C080910A04813A09F023
:102BD00053C080910E0490910F04892B09F04CC0D2
:102BE0008091E800877F8093E8008091E80080FF73
:102BF000FCCF80911A0137C080910A048132E1F53F
:102C000080910E0490910F04892BB1F58091E8001A
:102C1000877F8093E8000E94790C80910C04809358
:102C20001A010E94941828C080910A04813221F56B
:102C30008091E800877F8093E8000E94790C809162
:102C40000D048093FC0318C080910A04813AA1F41A
:102C50008091E800877F8093E8008091E80080FF02
:102C6000FCCF8091FC038093F1008091E8008E7787
:102C70008093E8000E94790C8091E80083FFBFC137
:102C800080910A0490910B04492F50E04A3051057D
:102C900008F0B5C1FA01EE59FF4F0C94281C80389A
:102CA00021F0823809F0ABC108C0809106049091F0
:102CB0000704992389F082600FC080910E048F7001
:102CC000873008F09CC18093E9008091EB0085FB80
:102CD000882780F91092E9009091E800977F9093FF
:102CE000E8008093F1001092F1005EC1282F2D7F43
:102CF00009F085C1882319F0823061F080C180918C
:102D00000C04813009F07BC1933009F080E080939E
:102D100007042EC080910C0481112AC080910E04FA
:102D20008F702FEF280F263008F069C18093E900DB
:102D30002091EB0020FF1CC0933021F48091EB0028
:102D4000806214C09091EB0090619093EB0021E0C1
:102D500030E0A90102C0440F551F8A95E2F7409365
:102D6000EA001092EA008091EB0088608093EB000B
:102D70001092E9008091E800877F19C181113FC15D
:102D800010910C041F778091E3008078812B809351
:102D9000E3008091E800877F8093E8000E94790C2F
:102DA0008091E80080FFFCCF8091E30080688093F1
:102DB000E300111102C082E001C083E080930804A7
:102DC0001EC18058823008F01AC180910C04909185
:102DD0000D048C3D53E0950779F583E08A838AE200
:102DE00089834FB7F894DE01139620E03EE051E26C
:102DF000E32FF0E050935700E49120FF03C0E295E9
:102E0000EF703F5FEF708E2F90E0EA3010F0C796C2
:102E100001C0C0968D939D932F5F243149F74FBF1A
:102E20008091E800877F8093E8006AE270E0CE013D
:102E300001960E94980CA7C040910E0450910F0477
:102E4000292F332723303105A9F068F421303105CB
:102E500009F4E4C02230310509F0D1C082E290E0EB
:102E6000E8EDF2E03DC02132310579F12232310541
:102E700081F1C5C0992781309105B9F070F0823099
:102E80009105D9F0039709F0BAC0ECE0F3E0E491C2
:102E90008E2F90E0ECE0F3E020C0E2E4F3E0E49178
:102EA0008E2F90E0E2E4F3E018C0EEE2F3E0E4916C
:102EB0008E2F90E0EEE2F3E010C0E2E1F3E0E49167
:102EC0008E2F90E0E2E1F3E008C0452B09F4ABC09F
:102ED00096C0452B09F4ACC092C0009709F48FC08E
:102EE0002091E800277F2093E80020911004309182
:102EF00011048217930708F49C0140E02115310565
:102F000089F180910804882309F43DC08530D9F106
:102F10008091E80083FD37C08091E80082FD2FC0DA
:102F20008091E80080FFEACF4091F3008091F200A9
:102F300090E0942B2115310559F08830910540F42B
:102F400044914093F1003196215031090196F2CF1E
:102F500041E0089709F040E08091E8008E77809387
:102F6000E800CCCF4111CDCF0AC08091080488235E
:102F700051F0853041F08091E80083FD04C08091DC
:102F8000E80082FFF2CF8091E8008B778093E80021
:102F900036C08038A1F58091E800877F8093E800F3
:102FA000809109048093F1008091E8008E778093EE
:102FB000E8000E94790C23C0811121C080910C048B
:102FC00090910D0499270297D4F48091E800877FAF
:102FD0008093E80010910C04109309040E94790C6E
:102FE000111106C08091E30087FD02C081E001C09D
:102FF00084E08093080461EC81E00E9436158091A2
:10300000E80083FF1AC08091E800877F8093E80082
:103010008091EB0080628093EB000FC082E190E032
:10302000EAEFF2E05DCF89E090E0EAEEF2E058CF1F
:1030300080E490E0E8E9F2E053CFAA960FB6F89466
:10304000DEBF0FBECDBFDF91CF911F9108951F92BC
:103050000F920FB60F9211242F933F934F935F93CC
:103060006F937F938F939F93AF93BF93CF93DF9390
:10307000EF93FF93C091E900CF708091EC00D82FBF
:10308000D17080FDD0E81092E9008091F000877F38
:103090008093F00078940E946B151092E900809163
:1030A000F00088608093F000CD2BCF70C093E900D2
:1030B000FF91EF91DF91CF91BF91AF919F918F9150
:1030C0007F916F915F914F913F912F910F900FBE24
:1030D0000F901F9018950E94CF11292F2F70E92F64
:1030E000E295EF704E2F50E0FA013297EE30F10585
:1030F000B8F4E459FF4F0C94281C803F99F018F461
:10310000883E70F40FC0843F59F40CC0883E50F0E4
:10311000813F31F407C0822F869586958695089564
:1031200080E0089581E008951092F20386E0E3E9DB
:10313000F3E0DF011D928A95E9F71092F1031092F6
:10314000F0030C946011882341F080959091F20374
:1031500089238093F2030C9460110895882339F039
:103160009091F203892B8093F2030C9460110895DF
:10317000882309F47AC0682F823869F40E94CB0250
:1031800081FF73C069E381E993E00E94CC100E9443
:10319000601169E30EC0833891F40E94CB0280FF76
:1031A00064C063E581E993E00E94CC100E94601145
:1031B00063E581E993E00E94BF100C9460118438AC
:1031C00069F40E94CB0282FF50C067E481E993E07A
:1031D0000E94CC100E94601167E4EBCF8CEF860F49
:1031E000813A38F380E2860F883070F4677081E0AE
:1031F00090E001C0880F6A95EAF780959091F203FC
:1032000089238093F203D9CF8BE5860F8330A0F416
:103210008091120490911304892B39F110921304B8
:1032200010921204E0915001F09151013097E9F0B1
:103230000680F781E02D16C0685A6731B0F480919E
:10324000140490911504892B81F0109215041092AA
:103250001404E0915001F0915101309731F0008455
:10326000F185E02D80E090E009940895CF938823C4
:1032700009F47CC0C82F8238B1F40E94CB0281FDD2
:1032800075C069E381E993E00E94CC100E9460114F
:103290002FEF81EE94E0215080409040E1F700C094
:1032A000000069E317C08338D1F40E94CB0280FD8F
:1032B0005DC063E581E993E00E94CC100E9460113B
:1032C0002FEF81EE94E0215080409040E1F700C064
:1032D000000063E581E993E00E94BF103CC08438A0
:1032E000B1F40E94CB0282FD41C067E481E993E022
:1032F0000E94CC100E9460112FEF81EE94E02150CB
:1033000080409040E1F700C0000067E4E3CF8CEF1D
:103310008C0F813A80F4E3E9F3E089E993E02191AD
:10332000C217E1F08E179F07D1F76C2F81E993E068
:103330000E94CC1010C080E28C0F8830B8F4C770A7
:1033400081E090E001C0880FCA95EAF79091F203FE
:10335000892B8093F203CF910C9460116C2F81E93B
:1033600093E00E94BF100E946011DFCFCF910895BB
:103370001092B9008CE08093B8000895EF92FF920C
:103380000F931F93CF93DF93182FEB011092BC0084
:1033900084EA8093BC000E948A107C018091BC006A
:1033A00087FD0EC0CF3F8FEFD807C1F30E948A1070
:1033B0008E199F098C179D0788F38EEF9FEF2EC003
:1033C0008091B900887F883041F08091B900887F72
:1033D000803119F08FEF9FEF21C01093BB0084E87C
:1033E0008093BC000E948A108C018091BC0087FDF4
:1033F0000CC0CF3F8FEFD807C1F30E948A10801B0B
:10340000910B8C179D0788F3D8CF8091B900887FE6
:10341000883111F08034F1F680E090E0DF91CF91B7
:103420001F910F91FF90EF9008950F931F93CF93EB
:10343000DF93EB018093BB0084E88093BC000E9483
:103440008A108C018091BC0087FD0EC0CF3F8FEFAA
:10345000D807C1F30E948A10801B910B8C179D071F
:1034600088F38EEF9FEF0CC02091B900287F81E098
:1034700090E0283211F480E090E0919581959109D7
:10348000DF91CF911F910F910895CF92DF92EF922C
:10349000FF920F931F93CF93DF936B018A01790102
:1034A000B9010E94BE19E6010C0D1D1DC017D10700
:1034B00061F424E92093BC00DF91CF911F910F911B
:1034C000FF90EF90DF90CF90089597FDF2CFB70176
:1034D00089910E94151AEACFCF92DF92EF92FF9264
:1034E0000F931F93CF93DF93C62F6A017901B80121
:1034F0000E94BE1997FD11C0B8018C2F0E94151AA9
:10350000E601EC0CFD1CCE15DF0539F097FD05C07A
:10351000B80189910E94151AF6CF24E92093BC00C6
:10352000DF91CF911F910F91FF90EF90DF90CF909F
:10353000089584E98093BC0008958EE14A9B02C0FF
:103540008150E1F74A9BFECF08955A9880E28A9510
:10355000F1F75A9A0895FC012AE02A95F1F728E03C
:1035600090E080E031E040E14A95F1F7880F4A9B16
:1035700002C08160932700C0000040E14A95F1F746
:10358000215089F720E12A95F1F729B100C0000008
:1035900030E13A95F1F722FB222720F9922720818A
:1035A000920F90830895EF92FF920F931F93CF9302
:1035B000DF931F92CDB7DEB719828C017C01E60E36
:1035C000F11C0E151F0551F00E949D1ACE010196A7
:1035D0000E94AB1AF80181938F01F3CF81E09981AA
:1035E000911180E00F90DF91CF911F910F91FF908B
:1035F000EF9008959093170480931604529A5A9A64
:103600000895909317048093160452985A9AEA9A50
:10361000E9E6F0E080818F7C80830895615091E03D
:1036200001C0990F6A95EAF720E031E0992361F033
:10363000492F482319F05A9A232701C05A9840E28B
:103640004A95F1F79695F2CF222311F05A9A01C0CC
:103650005A9880E28A95F1F75A980895FF920F934D
:103660001F93CF93DF93EC018C01060F111DC01740
:10367000D10741F0F9900E94A51A68E08F2D0E94B1
:103680000E1BF5CFDF91CF911F910F91FF90089501
:103690001F920F920FB60F9211242F933F934F93C7
:1036A0005F936F937F938F939F93AF93BF93CF93CA
:1036B000DF93EF93FF935A98529AC0911604D091DA
:1036C00017046D81662321F08E819F810E942E1B3D
:1036D0000E94A51A80E18A95F1F75A9852985A9A51
:1036E00080E18A95F1F76A81662351F08B819C8194
:1036F0000E94D31AE881F981811104C082E003C0DD
:10370000E881F98188E080830E949D1AFF91EF9102
:10371000DF91CF91BF91AF919F918F917F916F91E9
:103720005F914F913F912F910F900FBE0F901F907F
:103730001895CF93DF93C0911604D0911704F89495
:10374000529A5A9885E08A95F1F7000052985A9A51
:1037500080E28A95F1F74A9B0AC0529A5A9AE88108
:10376000F98181E08083789481E090E02CC06D81C4
:10377000662381F08E819F810E94D31A81110AC035
:10378000529A5A9AE881F98182E08083789482E0A3
:1037900090E019C00E949D1A80E28A95F1F75A982C
:1037A000529A80E18A95F1F76A81662321F08B8134
:1037B0009C810E942E1B0E94A51AE881F98110822B
:1037C000789480E090E0DF91CF910895F999FECF51
:1037D00092BD81BDF89A992780B50895A8E1B0E01F
:1037E00042E050E00C941A1C262FF999FECF92BDAE
:1037F00081BDF89A019700B4021639F01FBA20BDB6
:103800000FB6F894FA9AF99A0FBE08950396272FE7
:103810000E94F51B0E94F41B252F0E94F51B242FEC
:103820000C94F51B0196272F0E94F51B0C94F41B9A
:10383000DC01CB01FC01F999FECF06C0F2BDE1BD70
:10384000F89A319600B40D9241505040B8F708955F
:10385000EE0FFF1F0590F491E02D0994F894FFCF2F
:103860003F01003F01043B01010021007F220003D2
:1038700005100810041002100310019497C63400BC
:10388000000000F4F5F6F73133000810181810089E
:02389000000036
:00000001FF
