:100000000C94CA020C9411030C9411030C9418253F
:100010000C9411030C9411030C9411030C94110310
:100020000C9411030C9411030C94E8210C94D81F28
:100030000C9447180C9411030C9411030C941103A5
:100040000C9411030C9411030C9411030C941103E0
:100050000C9411030C94FA170C9411030C941103D3
:100060000C9411030C9411030C9411030C941103C0
:100070000C9411030C9411030C9411030C941103B0
:100080000C9411030C9411030C9411030C941103A0
:100090000C9411030C9411030C9411030C94110390
:1000A0000C9411030C9411030C9411036A106A1040
:1000B000A410A4107E127E127E127E12F710D511AB
:1000C000E611E611BB1209130E13131318131D13B7
:1000D000221327132C13311336133D1340134313EC
:1000E000461349134C134F1352135713001E271E68
:1000F000B01F271EB01F6F1E921EB01F7A1F8D1FCC
:100100002E202E2041204120372041204120412017
:100110002E202E203C20412041203C2000010101C6
:1001200001010101010102020202020202020203B4
:100130000303030303030304040404040404050584
:100140000505050606060606070707070708080847
:1001500008090909090A0A0A0B0B0B0C0C0C0D0DF6
:100160000D0E0E0E0F0F0F1010111111121213138E
:100170001414151516161717181819191A1A1B1B07
:100180001C1D1D1E1E1F2020212222232424252663
:1001900026272829292A2B2C2D2D2E2F303132329B
:1001A000333435363738393A3B3C3D3E3F404142A7
:1001B000434445464748494A4C4D4E4F505153548D
:1001C000555658595A5B5D5E5F6162646566686941
:1001D0006B6C6D6F7072737577787A7B7D7E8082C1
:1001E000838587888A8C8E8F91939596989A9C9E0A
:1001F000A0A2A3A5A7A9ABADAFB1B3B5B7BABCBE1A
:10020000C0C2C4C6C9CBCDCFD1D4D6D8DBDDDFE2E6
:10021000E4E7E9EBEEF0F3F5F8FAFDFFFFAA7F550E
:10022000400001020304050B0A09080706222325E2
:100230002628292A2C2D2F3032333536383A3B3DAB
:100240003E4042434547494A4C4E505153555759F9
:100250005A5C5E6062646668696B6D6F7173757716
:10026000797B7D7F81838587898A8C8E9092949615
:10027000989A9C9E9FA1A3A5A7A8AAACAEAFB1B324
:10028000B4B6B8B9BBBCBEBFC1C2C3C5C6C7C9CA74
:10029000CBCCCDCED0D1D2D2D3D4D5D6D7D7D8D936
:1002A000D9DADADBDBDBDCDCDCDCDCDDDDDDDDDC94
:1002B000DCDCDCDCDBDBDBDADAD9D9D8D7D7D6D5A6
:1002C000D4D3D2D2D1D0CECDCCCBCAC9C7C6C5C368
:1002D000C2C1BFBEBCBBB9B8B6B4B3B1AFAEACAAB5
:1002E000A8A7A5A3A19F9E9C9A98969492908E8C65
:1002F0008A89878583817F7D7B79777573716F6D3F
:100300006B6968666462605E5C5A59575553515018
:100310004E4C4A4947454342403E3D3B3A383635CC
:100320003332302F2D2C2A29282625232200AF2BCB
:100330000014001A00080015001700E00004001661
:1003400000070009000A00E1001D001B000600195B
:1003500000050000000000E300E20001512C002A2B
:1003600000130012000C0018001C00340033000FB2
:10037000000E000D000B00E50038003700360010BD
:1003800000110000000000E700E6000251280029EB
:10039000001E001F00200021002200E000010001DB
:1003A00000010001000100E1000100010001000165
:1003B00000010000000000E300E20001512C002ACF
:1003C0000027002600250024002300010001004F23
:1003D0000052005100500001000100010001000125
:1003E00000010000000000E700E60002512800299B
:1003F000001E021F02200221022202E00001000171
:1004000000010001000100E10035020100010001CE
:1004100000010000000000E300E20001512C002A6E
:100420000027022602250224022302350031023071
:10043000022F022E002D003502310030002F002E39
:10044000022D0200000000E700E600025128000033
:100450005C01000100010001000100C25CC55CC735
:100460005CC95C01000100C35CC65CC85CCA5C017D
:1004700000010000000000E300E20001512C003FF9
:10048000003E003D003C003B003A00450044004374
:100490000042004100400001000100010001000194
:1004A00000010000000000E700E600025128000003
:1004B000DA0281FFD9F1DB20A4A62EAF00A0C00094
:1004C000A1C800AED580A81FD300408D14200032F3
:1004D000190A00047F3F1F643214643214783C1EF2
:1004E0001E140A0500AE05010906A101050719E061
:1004F00029E7150025019508750181029501750808
:1005000081010507190029FF150026FF00950675D2
:1005100008810005081901290595057501910295C5
:100520000175039101C009022200010100A0FA092E
:100530000400000103010100092111010001224012
:10054000000705810308000A1201100100000008DD
:1005500054590100010001020301040330000000AE
:100560001A034C0075006E0061006B006500790095
:1005700020004D0069006E00690000001203790040
:100580006F00690063006800690072006F0000007E
:100590000403090411241FBECFEFDAE0DEBFCDBF94
:1005A00004B603FE27C08091E3049091E404A09177
:1005B000E504B091E6048730904BA740B04BD1F4EE
:1005C0001092E3041092E4041092E5041092E60401
:1005D00014BE84B7877F84BF0FB6F894A895809126
:1005E0006000886180936000109260000FBEE0E0C0
:1005F000F8E3099524E0ACE7B1E001C01D92A33E09
:10060000B207E1F711E0A0E0B1E0E0E3FFE402C0EF
:1006100005900D92AC37B107D9F70E94A1130C9445
:1006200096270C9400000895AF92BF92CF92DF926C
:10063000EF92FF920F931F93CF93DF93E82EF62E46
:10064000E901E42FF0E0611106C0E45EFE4FE491A1
:100650004E2F2E2F71C0062F10E0E45EFE4F449106
:10066000F42FC42ED12C26E0829FC00111242FEF3D
:1006700030E0B9010E944C275BEA5603C001579F46
:10068000900D11248E0D911D8E0D911D582F550F1B
:10069000580FD901A01BB10BAC9DC001AD9D900DB1
:1006A000BC9D900D1124E92FF59ED0011124AB2F94
:1006B000BB277901EA1AFB0AEC9CD001ED9CB00D36
:1006C000FC9CB00D11245901A51AB108A09E70011F
:1006D000A19EF00CB09EF00C1124EF2CFF242E19DB
:1006E0003F092C9D80012D9D100D3C9D100D112466
:1006F000212F6230710591F048F461157105E1F028
:1007000061307105B9F4242F4B2F16C06430710588
:1007100069F040F06630710579F00CC0242F492F44
:10072000E12F0AC0492FEF2F2B2F06C0292FE42FCE
:10073000412F02C0292FEB2F49832883EA83DF91C1
:10074000CF911F910F91FF90EF90DF90CF90BF90CE
:10075000AF9008959091040292FF0DC0282F287148
:10076000283019F4877F846006C0282F2471243034
:1007700011F48B7F886093FF0DC0282F28712831DA
:1007800019F4877E846106C0282F2471243111F466
:100790008B7E88612091050220FF0DC0382F3871B3
:1007A000383019F4877F816006C0382F31713130BD
:1007B00011F48E7F886021FF0DC0282F2871283109
:1007C00019F4877E816106C0282F2171213111F42F
:1007D0008E7E886194FD877E08951F93CF93DF936B
:1007E000CDB7DEB767970FB6F894DEBF0FBECDBFAB
:1007F0004B8B5C8B6D8B7E8B8F8B86E09E01235F9A
:100800003F4FD901E82F1D92EA95E9F795E0FE01E7
:100810007396D90101900D929A95E1F7F901DE01E5
:10082000179601900D928A95E1F7CE0107960E94E6
:10083000E91A81113EC086E0FE013796DE0111966D
:1008400001900D928A95E1F7FF81E8856A857B85A5
:100850006115710531F0EF3F31F481E0FF3F19F48C
:1008600003C081E001C080E080FD23C020916104CD
:1008700030E0C9010196877099274091920450E0B9
:100880008417950779F1F983EA837D836C8396E079
:10089000929FD001939FB00D1124AE59BB4FFE0122
:1008A000319601900D929A95E1F7809361040E9430
:1008B000731A16E080919204909161048917F9F0FF
:1008C000189FC00111248E599B4F0E94E91A88235A
:1008D000B1F08091920490E00196877099278093FF
:1008E0009204E8CF0E944520109261041092920475
:1008F000EBE5F4E086E0DF011D928A95E9F7679663
:100900000FB6F894DEBF0FBECDBFDF91CF911F9120
:100910000895E0910702F0910802309721F00190CC
:10092000F081E02D099480E008950E942F18DC01E9
:10093000CB01805A9541AF4FBF4F809343049093B2
:100940004404A0934504B093460480914704811168
:100950000BC062E070E08DE293E00E94981C892B4E
:1009600019F481E080934704809147040895882317
:1009700011F0FA0101C0FB010994EBE1F2E01182F0
:100980008281846082830895CF92DF92EF920F93E9
:100990001F93CF93DF93CDB7DEB7A4970FB6F8942C
:1009A000DEBF0FBECDBF609113018091D90480FFDF
:1009B0000AC0E1E2F2E0AE014F5F5F4F8E010B5DD6
:1009C0001F4FCA0114C0809114019091150189171D
:1009D00080F7E82FF0E09F01220F331FE20FF31F93
:1009E000EC57FE4F1182108212828F5FF0CF24915C
:1009F00030E0D901AA0FBB1F2A0F3B1FD901AC570A
:100A0000BE4FCD90DD90EC90DA01CD92DD92ED926B
:100A1000AD013196A017B10751F720911201FC01E9
:100A2000B3E02B9FE00DF11D1124539A8BB1877F0A
:100A30009BB198602FB7F894AF0133E0639F400DEE
:100A4000511D1124E417F50789F0319168E09BB935
:100A5000000000C037FF8BB9330F000000C000C09A
:100A600000C08BB900C06A9591F7ECCF2FBF8FE51E
:100A700094E00197F1F700C00000A4960FB6F89437
:100A8000DEBF0FBECDBFDF91CF911F910F91EF90D1
:100A9000DF90CF9008958F929F92AF92BF92CF92A6
:100AA000DF92EF92FF920F931F93CF93DF93FC019E
:100AB000B280948081E0848300E015E05BE4A52EA1
:100AC00088248394EE24EA94F12C7BE4C72ED12C65
:100AD00080911601081708F08FC0C02FD0E01C9F2E
:100AE000F0011D9FF00D1124E855FE4F911003C039
:100AF0001382128267C02381222389F1215023832C
:100B00003481332319F09A2D921B01C0922F8091CA
:100B1000DC041C9FF0011D9FF00D1124E855FE4FD1
:100B2000899FC0011124B6010E944C2762832111C4
:100B300004C0332311F01482A38222E02B1508F4A1
:100B400041C01C9FF0011D9FF00D1124E855FE4F80
:100B50008091DA0480838091DB04818333C00E941A
:100B600077268230914074F582E08B1530F40E9434
:100B70007726B7010E94602702C08091DA041C9F8B
:100B8000F0011D9FF00D1124E855FE4F808322E0F7
:100B90002B1558F40E9477262091DB042695622FAE
:100BA00070E00E946027820F02C08091DB041C9FCE
:100BB000F0011D9FF00D1124E855FE4F8183128234
:100BC000A3828482809114019E01280F311DC901E6
:100BD000880F991F280F391F2C573E4F1C9FF0017B
:100BE0001D9FF00D1124E855FE4F428161818081E7
:100BF0000E9414030F5F6CCFDF91CF911F910F9173
:100C0000FF90EF90DF90CF90BF90AF909F908F902C
:100C10000C94C4040F931F93CF93DF93EC0100E077
:100C200010E080911601282F30E00217130724F5F9
:100C3000909114019801290F311DA901440F551FEE
:100C4000240F351F2C573E4F869590E04C81081796
:100C500019071CF4442331F002C0411103C0409134
:100C6000DC0401C040E06091DB048091DA040E9462
:100C700014030F5F1F4FD5CF0E94C4048C8190E0F6
:100C80000196817099278C83DF91CF911F910F91ED
:100C900008958F929F92AF92BF92CF92DF92EF9280
:100CA000FF920F931F93CF93DF938C01FC0144813C
:100CB000C42FD0E09E01DE010E9423279B01AC01DE
:100CC0000E94EE266B017C01E0E2F0E0EC1BFD0BE4
:100CD000A5E5B0E09B01AC010E94EE264B015C0152
:100CE0009F01DF010E947A279B01AC010E94F92637
:100CF0009B01AC012C0D3D1D4E1D5F1DC501B401B6
:100D00000E940127C22FD22F2A3228F4F3E02F9F0E
:100D1000900111240DC025E530E02C1B3109C901DB
:100D2000880F991F280F391F37FF02C02F5F3F4FD1
:100D300035952795C22FC095F12C85E5E82EED1A43
:100D400080911601F816C8F4F1FC02C08E2D01C086
:100D50008D2F909114012F2D30E0290F311DA90105
:100D6000440F551F240F351F2C573E4F4C2F6091B9
:100D7000DB040E941403F394E3CF0E94C404F8013F
:100D80008481811102C091E003C0803219F49FEF89
:100D90009093110190911101890FF8018483DF91E3
:100DA000CF911F910F91FF90EF90DF90CF90BF9068
:100DB000AF909F908F9008951F93CF93DF93EC0196
:100DC0008C81811109C081E08C831092820192E0B4
:100DD0009093100180930F0180911401909115015F
:100DE000891770F4E82FF0E09F01220F331FE20F04
:100DF000F31FEC57FE4F1182108212828F5FF0CFEB
:100E000010E0609116011617C0F5E12FF0E070E0D8
:100E1000CF010E94602720911401820F209182014E
:100E2000022E000C330B90E0E217F307CCF0209178
:100E30001001022E000C330B2E173F078CF09C0183
:100E4000220F331F820F931F9C012C573E4F40915E
:100E5000DC046091DB048091DA040E9414030BC06F
:100E6000FC01EE0FFF1F8E0F9F1FFC01EC57FE4F82
:100E70001182108212821F5FC4CF0E94C40480912D
:100E80000F0120918201280F20938201909110017F
:100E9000980F9093100119165CF4022E000C330B7E
:100EA0004091160150E0415051092417350734F0A4
:100EB000819580930F01813009F41C82DF91CF91DD
:100EC0001F9108958F929F92AF92BF92CF92DF921F
:100ED000EF92FF920F931F93CF93DF93EC018A81E0
:100EE00080FF03C0BB24BA9402C0BB24B3948C819E
:100EF00081110DC081E0B81206C0809116018150A9
:100F00008093810102C01092810181E08C83A12C29
:100F10004CE0942E80911601A81608F044C08091F0
:100F20001401CA2CD12C8601080F111DC801880F8D
:100F3000991F080F191F0C571E4FF80111821082BC
:100F4000128234E0E32EF12C812C80918101880DF6
:100F50008D302CF0692D0E943E27892F05C087FF18
:100F600003C090911601890F082E000C990BC8162A
:100F7000D90691F48091DC048E9DA0018F9D500DC7
:100F80001124559547955595479598016091DB0437
:100F90008091DA040E9414038B0CF1E0EF1AF1083F
:100FA000A1F6A394B7CF0E94C4048091810191E07F
:100FB000B9120EC0811107C0809116018150809333
:100FC00081011C820FC0815080938101BC820AC0C4
:100FD00090E001966091160170E00E946027809376
:100FE00081018C83DF91CF911F910F91FF90EF9042
:100FF000DF90CF90BF90AF909F908F900895FF9219
:101000000F931F93CF93DF93EC01F12C0FEF10E0C0
:1010100060911601F616F0F4809114012F2D30E046
:10102000280F311DC901880F991F280F391F2C5710
:101030003E4F70E0C8010E946027962F8C8140913E
:10104000DC046091DB04F99E800D11240E941403DE
:10105000F394DECF0E94C4049A818C8190FF02C079
:101060008F5F01C081508C83DF91CF911F910F91D1
:10107000FF9008959091D90490FF16C090911401AB
:1010800020911501921770F4E92FF0E0DF01AA0F0B
:10109000BB1FEA0FFB1FEC57FE4F81836083428327
:1010A0009F5FF0CF0C94C40408950F931F93CF93C8
:1010B000DF9300D01F92CDB7DEB78C018091830102
:1010C00081110AC09E012F5F3F4F4FEF6FEF0E94CB
:1010D00014038A8180938301F8018481813051F067
:1010E00028F0823061F4409183010AC0809183012D
:1010F00040E007C06091830140E080E003C040E031
:1011000080E060E00E943A08F801848190E0019656
:1011100063E070E00E94602784830F900F900F902F
:10112000DF91CF911F910F910895CF93DF9300D05E
:101130001F92CDB7DEB79091D90490FF0AC09E01EF
:101140002F5F3F4F0E9414034B8169818A810E9467
:101150003A080F900F900F90DF91CF910895CF93A1
:10116000DF93EC01E9EDF4E0438162818C810E9420
:1011700095088C818F5F8C83DF91CF910895CF93F9
:10118000DF93EC01EC81F0E0E35DFD4F4491E9ED8C
:10119000F4E0628181810E9495088C818F5F8C834D
:1011A000DF91CF910895E9EDF4E080818E7F808317
:1011B0000E94BD04EBE1F2E08281816082832FEF27
:1011C00080E792E0215080409040E1F700C00000AD
:1011D0000C94C4048091D904282F269530E0211561
:1011E000310519F48170826005C02B32310524F07D
:1011F000817084658093D9040895CF92DF92EF9235
:10120000FF926B017C010E94EA08B701A60188E009
:1012100090E0FF90EF90DF90CF900C94AD26AF92CE
:10122000BF92CF92DF92EF92FF920F931F93CF93D3
:10123000DF9300D01F92CDB7DEB7182FF62E042F04
:10124000E22E9091D90490FF7EC0E92FE695AE2F53
:10125000B0E0A65CBE4F8C9180931B029E7F9230C3
:1012600061F49E012F5F3F4F812F0E9414034B8139
:1012700069818A810E943A0843C0823019F4009142
:10128000DC043EC0863019F41091DA0439C089308C
:10129000D9F38931A9F5E9518E2F8170D82EE695C1
:1012A000F0E0E45EFD4FA590B490C12CBB246091AA
:1012B0001601C61618F52C2D30E0A29EC001A39E83
:1012C000900DB29E900D112470E00E944C27812F4A
:1012D000D11002C0860F01C0861B90911401290F06
:1012E000311DA901440F551F240F351F2C573E4FA8
:1012F000402F6F2D0E941403C394D9CF0E94C404C1
:101300008091DA04181308C08091DB04F81204C03D
:101310008091DC04081729F080911D02826080937F
:101320001D021093DA04F092DB040093DC04EE203B
:1013300051F06091D9047091DA048091DB049091AE
:10134000DC040E94FD080F900F900F90DF91CF9169
:101350001F910F91FF90EF90DF90CF90BF90AF90D3
:101360000895E9EDF4E0438128E0421B08F440E0F1
:1013700021E0628181810C940F09E9EDF4E0438161
:1013800028E0420F08F44FEF21E0628181810C9444
:101390000F09E9EDF4E0628128E0621B08F460E0E7
:1013A00021E0438181810C940F09E9EDF4E0628131
:1013B00028E0620F08F46FEF21E0438181810C94F3
:1013C0000F09E9EDF4E0818121E0438162818850D9
:1013D0000C940F09E9EDF4E0818121E04381628101
:1013E000885F0C940F098091DD04882319F08150E7
:1013F0008093DD046091D9047091DA048091DB045C
:101400009091DC040C94FD088091DD04833018F485
:101410008F5F8093DD046091D9047091DA0480912C
:10142000DB049091DC040C94FD08E9EDF4E083E02A
:10143000808311828FEF828383831482ABE1B2E0D9
:1014400012968C911297836012968C9360817181B1
:10145000828193810C94FD0880918001811112C0DA
:101460008091D80080618093D8008AE18A95F1F755
:1014700000C08091D90080FD02C082E001C081E0FF
:101480008093800181E090918001913009F080E0AB
:101490000895CF93DF9320E3829FC0011124FC01C4
:1014A00036E0739FE00DF11D1124E60FF11DEE0FE4
:1014B000FF1FE15DFC4FC591D491CE01C238D1052B
:1014C00069F1B0F4C133D10509F475C048F4C932EB
:1014D000D10509F469C0CA32D10509F473C079C0D5
:1014E000C533D10509F459C0C933D105B9F071C06C
:1014F000C33ED10571F138F4C03ED105B1F0C23E12
:10150000D10511F166C0C63ED105B9F1C73ED1057E
:10151000C9F1C43ED10509F05CC024C02091040289
:1015200020FD3CC121FD3AC154C02091040220FDA0
:101530002FC12091050220FF36C18091040284FD55
:1015400024C183EE90E02FC12091040222FF2BC121
:10155000F4CF8091040282FD1EC18091050280FDBE
:101560001DC1EBCF2091050221FF1DC18091040216
:1015700084FD0BC187EE90E016C12091040223FF89
:1015800012C1F4CF8091040283FD0BC1809105024A
:1015900081FFECCF84EE90E006C12091040225FF8C
:1015A00002C189E290E0FFC02091040225FFFBC048
:1015B00085E390E0F8C02091040226FFF4C08AE29F
:1015C00090E0F1C02091040226FFEDC081E390E09D
:1015D000EAC0C11543E5D407A0F5C11552E5D5070A
:1015E00008F09CC0C11520E2D207C0F4C11531E05B
:1015F000D30708F0D8C0C53AD10540F4C430D105AE
:1016000008F0D1C0219709F4CEC0BFC09E01205E72
:1016100031092830310508F0B8C0C5C0C11541E511
:10162000D40708F076C0C11550E5D50708F051C0C1
:10163000C11580E4D80708F4A8C0CE019F70906A55
:10164000B2C0C11526E5D20700F5C11535E5D307AF
:1016500008F07FC0C11544E5D40708F075C09E01AD
:101660002370332781E090E0AC0102C0440F551F86
:101670002A95E2F72C2F2695269530E2239FC0016C
:101680001124842B952B9A688EC0C1155AE5D50775
:1016900078F4C11589E5D80708F064C0C11528E5BC
:1016A000D20708F472C09C2F8827806F906A7BC095
:1016B000CE0190568115904208F067C08D2F8F7132
:1016C0000E94AA039E01332730628F71A901582B13
:1016D0005AC0CE01F4E096958795FA95E1F7282F48
:1016E00023703C2F337081E090E002C0880F991F77
:1016F0003A95E2F79C68AC01522B8C2F8F70282F03
:101700002695269530E2239FC0011124842B952B2A
:101710004AC09C2F8827816F906A45C09E01237024
:10172000332781E090E0AC0102C0440F551F2A9599
:10173000E2F72C2F2695269530E2239FC001112435
:10174000842B952B9C682FC09C2F8827846F906AD0
:101750002AC08C2F0E94AA038F7190E0982F8827AF
:10176000906221C08C2F8F700E94AA039E0194E08A
:10177000369527959A95E1F72F7030E0322F222782
:101780003069A901482BCA010EC080E090E00BC06F
:1017900089E390E008C082EE90E005C080EE90E022
:1017A00002C086EE90E0DF91CF9108950F931F93D2
:1017B000CF93DF93C42FD22FFC0182818823C9F0FD
:1017C0004093E6010E943B189093E5018093E40169
:1017D00080E28C0F883008F05EC0C77081E001C0E5
:1017E000880FCA95EAF7DF91CF911F910F910C9462
:1017F0005F208091E60148133EC08091E401909102
:10180000E5010E942018883C9105A8F510E21D0F03
:10181000CD17B9F080E28C0F883040F4C77081E0BA
:1018200001C0880FCA95EAF70E945420183048F486
:1018300081E09D2F977001C0880F9A95EAF70E946A
:101840005F20802F0E94E720093349F4FFEF27EE45
:1018500083E0F15020408040E1F700C00000802F7D
:101860000E9469201830B8F4D77081E001C0880F59
:10187000DA95EAF70AC080E28C0F883060F4C7700E
:1018800081E001C0880FCA95EAF7DF91CF911F91DF
:101890000F910C945420DF91CF911F910F910895D7
:1018A0006091D904669570E04BE050E084E091E0EF
:1018B0000E948927892B19F481E080931C020E94E1
:1018C0003B18909316028093150280911D0284604C
:1018D00080931D0208959091D90490FF3BC09170B0
:1018E000811102C0926006C08B3210F0946502C074
:1018F000880F982B9093D90480911D02816080936A
:101900001D02662351F06091D9047091DA04809130
:10191000DB049091DC040E94FD086091D904669577
:1019200070E04BE050E084E091E00E948927892B31
:1019300019F00E94BD0402C00E94500C81E0809307
:10194000180220E04091DC046091DB048091DA040D
:101950000C940F0908958091D9048695815009F45B
:101960008AE261E00C946B0C8091D90486958F5FBC
:101970008B3208F081E061E00C946B0C9091D904FB
:1019800090FF04C09695981740F003C0811105C0E0
:1019900090E0961710F40C94B40C61E00C946B0C6E
:1019A0008F929F92AF92BF92CF92DF92EF92FF926F
:1019B0000F931F93CF93DF9325E6E22E21E0F22EC3
:1019C00006EF11E0D801912CCC24C394D12CE7016F
:1019D00089917E01E82FE295EF70F0E021A18F70F0
:1019E000A60102C0440F551F8A95E2F7CA01242BB5
:1019F00021A322A1342F3095232322A350EA5A9504
:101A0000F1F79DE6A92E91E0B92E60E070E020E0AC
:101A1000E50189905E01482D42954F7050E0EA0142
:101A200048A150E0C82DCF7002C055954795CA9582
:101A3000E2F740FD07C04C2D062E01C0440F0A946A
:101A4000EAF701C040E0242B6F5F7F4F66307105DD
:101A5000F9F691A1392331A392A1892B82A38C910C
:101A6000281719F02C9381E001C080E0982A119684
:101A7000D1E0AA3FBD0709F0AACFC091FF0199208C
:101A800049F081E080937E010E943B1890937D0194
:101A900080937C0180917E018823B1F080917C014C
:101AA00090917D010E942018069770F0EC2FF0E0D5
:101AB000E65FFD4FD8018D918D018193B1E00A3F22
:101AC0001B07C1F710927E010E942C0A8823D1F1D6
:101AD000C091FE0180911D028823E9F085E0E9EDC7
:101AE000F4E0A8EEB1E001900D928A95E1F78091C3
:101AF0001B0290911C02A0911D028093ED01909316
:101B0000EE01A093EF0181E090E00E94A825892BCF
:101B100011F410921D0280E090E00E94A825892B0C
:101B200009F060C0EC2FF0E0E65FFD4F80E090E050
:101B3000DC01AF50BE4F2C9121930196843091056A
:101B4000B9F761C0E091FF010E2F10E08091F00124
:101B50008830C9F58091EF0180FF12C08091E801C3
:101B600080FF0CC08091D90481608093D90480915A
:101B7000E80160E086950E946B0C02C00E94D308C9
:101B80008091EF0181FF09C020E04091EB0160915D
:101B9000EA018091E9010E940F098091EF0182FF23
:101BA00009C08091EE01882319F00E94500C02C0F8
:101BB0000E94BD048091EF0183FF03C081E0809308
:101BC00018021092F001F801E65FFD4F80E090E00E
:101BD0002191DC01AF50BE4F2C93019684309105CA
:101BE000B9F713C080917F018F5F80937F018630AA
:101BF00060F0E091FE01F0E0E65FFD4F108211829F
:101C00001282138202C010927F01892DDF91CF9141
:101C10001F910F91FF90EF90DF90CF90BF90AF900A
:101C20009F908F9008958F929F92AF92BF92CF9284
:101C3000DF92EF92FF920F931F93CF93DF93CDB775
:101C4000DEB72A970FB6F894DEBF0FBECDBFFC01FA
:101C50000081D18083819481892B39F01FEFD112CB
:101C600006C091E00F3F19F403C091E001C090E07D
:101C700090FD22C57F0185E0DE01169601900D9250
:101C80008A95E1F7F70122818E819F81222349F015
:101C90000E943E19182F682F8E819F810E94B819CB
:101CA00003C00E948B19182F20E3129FF00111240A
:101CB00036E0D39EE00DF11D1124E00FF11DEE0F73
:101CC000FF1FE15DFC4F05911491033F8CE5180760
:101CD00059F190F4083DECE51E07E9F0093DFCE5FB
:101CE0001F07A1F1073D2CE51207B1F506E221EE31
:101CF00041EE67ED7CE514C0053F3CE5130701F1BB
:101D0000C8F0063F9CE5190739F507E225EE46EED7
:101D100066EF7CE505C007E225EE45EE68ED7CE563
:101D2000C7010E94D60B4AC406E221EE40EE63EFE3
:101D30007CE5F6CF07E225EE44EE64EF7CE5F0CFDC
:101D400006E221EE42EE65EF7CE5EACF08E221E013
:101D500045EE69ED7CE5E4CFF7019281992309F422
:101D60003FC11092E6010230FCE51F0708F422C1D2
:101D700006312CE5120738F098012A5F3C452930DE
:101D8000310508F017C10E949718909305028093BF
:101D9000040200313CE5130709F4C3C008F041C058
:101DA00008309CE5190709F49AC0F0F40430FCE50A
:101DB0001F0709F487C068F402303CE5130709F4F3
:101DC00077C003301C4509F0E5C0809104028260B1
:101DD00076C006309CE5190709F46EC008F07BC098
:101DE0008091040288606BC00C30FCE51F0709F489
:101DF00085C068F40A303CE5130709F474C008F0A4
:101E000079C00E94452080910402806858C00E303D
:101E10009CE5190709F476C008F07FC080910402A0
:101E20008BC00B3FFCE51F0709F44FC018F50331C9
:101E30003CE5130709F47DC078F401319CE51907EE
:101E400009F473C002311C4509F0A4C00E9445206A
:101E5000809104028F7733C00531FCE51F0709F438
:101E600072C008F486C00A3F1C4509F093C08091F7
:101E700005023EC00F3F8CE5180709F45FC058F417
:101E80000D3FECE51E0709F444C008F43FC0809103
:101E9000050282602DC001302DE5120709F475C0DE
:101EA00008F45DC002301D4509F074C060E06EC0EA
:101EB00080910402816003C080910402806180935C
:101EC000040268C08091040211C080910502826002
:101ED000809305025FC0809104028062F0CF809100
:101EE00004028064ECCF8091040288608460E7CFB4
:101EF0008160EECF809104028E7FE1CF8091040259
:101F00008D7FDDCF80910402877FD9CF809105023C
:101F100018C0809105028D7FDBCF809104028F7EF7
:101F2000CECF809104028F7DCACF809104028F7B37
:101F3000C6CF80910402877F8B7FC1CF809105023D
:101F40008D7F8E7FC5CF8091040282FB222720F9EE
:101F500091E0922790FB82F990FB83F9B0CF8091BA
:101F60000502982F909591708E7F892B90FB81F9B7
:101F7000AFCF0E9445208091040287FB222720F9E1
:101F800091E0922790FB87F99ACF61E08EE090E094
:101F90000E949B26609104021091050284E090E06B
:101FA0000E949B26612F81E290E00E949B260E9466
:101FB000452004C306312CE5120719F58091B404BD
:101FC0008A7A91E009F490E09093E701882311F078
:101FD00065E301C069E283E594E00E947D180EC0CC
:101FE0000631FCE51F0721F58091E701882309F4FC
:101FF00004C365E383E594E00E9470180E94111900
:10200000DDC201152CE5120731F00E3D1C45D1F45F
:102010000E94A818D3C20E9445208FEF94E3ECE001
:1020200081509040E040E1F700C000000E94D617C8
:102030008091B4048272F801E25CFC45E431F10560
:1020400008F4DDC2F70100811181992349F0C8012C
:102050000E943E19D82E682FC8010E94B81904C0EA
:10206000C8010E948B19D82EB8018D2D0E94490AF3
:102070008C01982EF701B580B2942FE0B222A28095
:10208000A1101092B3048091B104877099F0AA2036
:1020900089F0812F807F803421F080E2800F8830AA
:1020A00048F082E00E942B1A8091B1048770DD24F1
:1020B000D3948111D12CC12EC2949FE0C9228C2DC2
:1020C00090E08C30910508F019C2FC01EA5AFF4FEC
:1020D0000C947427812F807F1F70882311F0129534
:1020E000107FAA20B9F0112309F4F3C180E2800F18
:1020F000883010F0911006C08091B404182B109312
:10210000B40405C08091B304182B1093B3040E944B
:102110001119DFC1802F0E946920112309F4EEC13B
:10212000005E1095083010F0911006C08091B40444
:1021300018231093B40405C08091B304182310939E
:10214000B3040E941119DAC1812F807F1F70803281
:1021500011F01295107F992021F0F1E09F16E1F027
:102160002AC0AA2081F08091B504BB2051F001E083
:10217000B01207C0182B181709F4C0C11093B5048A
:10218000BDC1812B10C0BB2021F021E0B21609F4A3
:10219000B5C10E940B1927C0AA2041F035E03B15BC
:1021A00008F4ACC1812F0E945F20A8C184E08B1588
:1021B00008F4A4C118C0AA2049F0BB2099F3F70184
:1021C000858180FF86C18F708583ECCFBB2059F05D
:1021D000093309F090C1FFEF17EE23E0F1501040F2
:1021E0002040E1F786C1812F0E94542087C1812FB2
:1021F000837009F069C0A11085C1902F92959695C2
:102200009770990F990F802F8F70882E912CA12C89
:10221000B12C092E04C0880C991CAA1CBB1C0A9462
:10222000D2F704FF12C04FE050E060E070E004C05D
:10223000440F551F661F771F9A95D2F7DB01CA011D
:1022400080959095A095B09503C080E090E0DC016A
:1022500016951695412F4370423019F1C8F400913C
:10226000B6041091B7042091B8043091B9044130FC
:1022700059F088299929AA29BB29BC01CD016023DD
:102280007123822393230AC0802A912AA22AB32A87
:10229000BC01CD01682979298A299B290E94651AE8
:1022A00031C188299929AA29BB290091B604109126
:1022B000B7042091B8043091B904BC01CD01602766
:1022C000712782279327EACFAA2019F0812F8170E6
:1022D00001C08695882309F415C1902F9295969593
:1022E0009770990F990F802F8F70882E912CA12CA9
:1022F000B12C092E04C0880C991CAA1CBB1C0A9482
:10230000D2F704FF12C04FE050E060E070E004C07C
:10231000440F551F661F771F9A95D2F7DB01CA013C
:1023200080959095A095B09503C080E090E0DC0189
:1023300016951695412F43704230D9F068F50091FB
:1023400000021091010220910202309103024130FB
:1023500059F088299929AA29BB29BC01CD016023FC
:102360007123822393231EC0802A912AA22AB32A92
:1023700013C088299929AA29BB290091000210912C
:1023800001022091020230910302BC01CD016027BD
:1023900071278227932706C0BC01CD0168297929BE
:1023A0008A299B290E94E419ADC01F70AA2039F028
:1023B000812F0E94441A802F0E945F20A3C0802F8B
:1023C0000E945420812F0E94061A9CC0802F32EF59
:1023D000931609F440C0391538F090EF991661F062
:1023E000E1EF9E1699F170C0F3EF9F16D9F124EF3B
:1023F000921609F44EC068C0AA2019F134E03B15CA
:1024000008F47CC01F7181E090E0A0E0B0E0AC0176
:10241000BD0104C0440F551F661F771F1A95D2F7E0
:102420008091000290910102A0910202B0910302FA
:102430008A019B01082719272A273B27C901B801D0
:1024400021C025E02B1508F459C0DCCFAA2029F0C3
:10245000812F8F712CC0AA20D9F3812F8F710E94F8
:10246000061A4CC0AA2089F01F7181E090E0A0E01C
:10247000B0E0BC01CD0104C0660F771F881F991F13
:102480001A95D2F70E94E41939C060E070E0CB01E0
:10249000F9CFAA2079F01F71812F0E94441A38E0E9
:1024A000139FC001112483608093B104812F0E9487
:1024B000441A24C081E00E942B1A81E08B15F0F4AD
:1024C00082E00E942B1A1AC0AA2039F0BB2009F41E
:1024D000BFCF802F0E94E72011C0BB2009F4BDCFE1
:1024E000893349F49FEFE7EEF3E09150E040F0408C
:1024F000E1F700C00000802F0E94692088EF8C0D5A
:10250000843010F40E948904DD20A9F08091B10488
:1025100080FD11C0F70112828595859585950E94F1
:10252000441AC7010E94130E8091B10485958595C8
:1025300085950E94061A85E0F701DE01119601904B
:102540000D928A95E1F789819A810E948B199A816F
:1025500000E3809FF001112416E0919FE00DF11D32
:1025600011248981E80FF11DEE0FFF1FE15DFC4F83
:1025700085919491A1C08091D90480FF44C08E7F41
:102580008093D9046091D9047091DA048091DB04BE
:102590009091DC040E94FD080E94BD0480911D0200
:1025A000816080931D029FEFE0E7F2E09150E040F0
:1025B000F040E1F700C000000E94C4048091B10423
:1025C000877009F479C0F7018281882309F474C007
:1025D00082E02A960FB6F894DEBF0FBECDBFDF9122
:1025E000CF911F910F91FF90EF90DF90CF90BF9010
:1025F000AF909F908F900C942B1A69E2FBCCEE5910
:10260000FF4F0C94742781608093D90461E0869514
:1026100050C04BEA5CE064EB7CE02CC044EB5CE037
:102620006BEA7CE027C041EE59E06AEE79E022C017
:102630004AEE59E061EE79E01DC049EC59E065EDE4
:1026400079E018C045ED59E069EC79E013C041EB41
:1026500059E06DEB79E00EC04DEB59E061EB79E0AC
:1026600009C043EF59E064E07AE004C044E05AE076
:1026700063EF79E00E94B704A1CF61E081E019C067
:1026800065E082E011C068E086E00EC06EE089E09F
:102690000BC064E18FE008C067E185E105C061E03F
:1026A00088E107C062E289E10E94BE0C87CF61E049
:1026B00083E20E946B0C82CF2A960FB6F894DEBF9D
:1026C0000FBECDBFDF91CF911F910F91FF90EF9083
:1026D000DF90CF90BF90AF909F908F900895089516
:1026E000089508958091BF040895CF93DF9321E06A
:1026F0002093E9002FEF3091E800215035FD06C00E
:1027000035ED3A95F1F700002111F5CF2091E80061
:1027100025FF14C0EC0140E050E068E070E00E944A
:10272000C11C8091E8008E778093E80088E0FE016C
:10273000A0ECB4E001900D928A95E1F7DF91CF9182
:102740000895CF93DF93CDB7DEB72C970FB6F894EB
:10275000DEBF0FBECDBF84B7877F84BF0FB6F894AE
:10276000A89580916000886180936000109260005D
:102770000FBE90E080E80FB6F894809361009093CC
:1027800061000FBE85B7806885BF85B7806885BF4B
:102790000E9469210E9488218091E20084608093D8
:1027A000E20078948091CA048823A1F01091E90096
:1027B0001F709091EC00892F817090FD80E8182B9C
:1027C0001092E9008091E80083FD0E941C1D1F709B
:1027D0001093E90082E084BD93E095BD9AEF97BD28
:1027E00080936E000E942C0A80932701809127011C
:1027F000882321F01092120186E003C086E08093C6
:102800001201809313010E942C0A882331F062E0A8
:1028100070E087E191E00E94C624809127018091B9
:102820002701811102C094E001C090E09093FF0164
:1028300084E0891B8093FE01A5E6B1E049E651E002
:1028400061E070E08D91E82FE295EF70F0E021A15A
:102850008F708B0102C0000F111F8A95E2F7C8012B
:10286000902F9095922391A392A1892B82A34A172E
:102870005B0741F7ADE6B1E043E751E061E070E0AE
:102880008D91E82FE295EF70F0E021A18F708B0120
:1028900002C0000F111F8A95E2F7C801902F909592
:1028A000922391A392A1892B82A34A175B0741F738
:1028B000E6EFF1E08EEF91E0AAE0B2E011921D9216
:1028C0008E179F07D9F70E94D00C8FE39CE90197E0
:1028D000F1F700C000000E94D00C80910A0280FF36
:1028E00008C06FEF7FEF80E090E00E94B9260E9461
:1028F000D61780E090E00E9495268C3E9E4F11F006
:102900000E94A8180E942C0A811106C062E070E0A3
:1029100087E191E00E94CF2410923F0480E88093E9
:102920001E020E9481236DE070E082EC94E00E9420
:10293000981C892B09F03FC080913F0463E070E050
:1029400081FD36C08FEB94E00E94981C892B99F58D
:102950006DE070E08FEA94E00E94981C892B59F595
:102960000E942F18DC01CB01805A9541AF4FBF4F19
:102970008093430490934404A0934504B093460489
:1029800080E092E0EFE3F2E0DF018C011D92015064
:102990001040E1F78FEF9FEF909342048093410442
:1029A00081E080934804809347041092400403C060
:1029B0008CEB94E0C9CF80E090E00E9495268C3E9D
:1029C0009E4F11F00E94A81882E090E00E94872696
:1029D00080934A040E949718909305028093040202
:1029E00083E090E00E948726682F70E080E090E00E
:1029F0000E94651A8091060281113BC080E090E040
:102A00000E9495268C3E9E4F21F00E94A8180E949D
:102A1000150A88E090E00E948F266093D904709395
:102A2000DA048093DB049093DC0480911D028360C0
:102A300080931D026E7F71F40E94150A88E090E079
:102A40000E948F266093D9047093DA048093DB048C
:102A50009093DC040E94EA080E94BD048091D9048E
:102A600080FF04C060E086950E946B0C81E080933B
:102A700006028FE291E090930802809307024424BB
:102A80004394512C82ED282E84E0382E8091CA0484
:102A9000853009F04BC08091CA04843009F434C0F9
:102AA0001092090220E488E190E00FB6F894A8950E
:102AB000809360000FBE209360000E94BD0480914F
:102AC000DF0481110AC081E08093DF048091D90482
:102AD00081708093DE040E94D30883B7817F846075
:102AE00083BF83B7816083BF7894889583B78E7FD7
:102AF00083BF0FB6F894A895809160008861809399
:102B00006000109260000FBE8091C904882309F410
:102B1000BDCF0E94D00C82E192E0EAE0F2E0219188
:102B200021112EC28E179F07D1F7B0CF0E94D00C73
:102B3000D82E0E942C0A8823A1F1EBE4F4E0AAE04D
:102B4000B2E000E010E0302F2D919191922721F119
:102B500080E0FF24F3944F2D4923D1F089833A83F9
:102B60002F2181E009F480E08B830E943B18816073
:102B7000782F9D838C8349815A816B818D810E943E
:102B8000ED03F801E55BFB4F8081F826F08219C068
:102B90008F5FFF0C8630F9F60F5F1F4F083011056D
:102BA00091F68FEF8E838F8318860E943B18816089
:102BB000782F9A8789874E815F8168858A850E94F0
:102BC000ED0380911C02882309F4C5C080911B028B
:102BD000E091D904E695E81BE0931702823049F4AE
:102BE000F0E0E052FB4FE491AE2EB12C0FEB18E079
:102BF0005DC0863049F4F0E0E352FB4FE491AE2E25
:102C0000B12C0FEA18E052C0893051F4E695F0E09B
:102C1000E652FB4FE491AE2EB12C0FEF17E046C009
:102C20008F3051F4E695F0E0E952FB4FE491AE2E7F
:102C3000B12C02E617E03AC0853149F4F0E0EC52DD
:102C4000FB4FE491AE2EB12C0CED16E02FC0883175
:102C5000D1F0833231F4F101A590B49005E518E08C
:102C600025C08432B1F08532D9F48E2F63E00E9402
:102C70003227E92FF0E0E153FB4FE491AE2EB12C67
:102C80000BE415E013C018E2A12EB12C09E416E004
:102C90000DC0B4EFAB2EBB24B3940AE016E006C01F
:102CA000A0EDAA2EA7E0BA2E03E113E0809118024E
:102CB000882389F0109218020E943B1895012095F4
:102CC0003095820F931F90931602809315021092F5
:102CD0001A021092190280911502909116020E9418
:102CE00020188A159B05B8F1809114028823B1F051
:102CF0001092140280911202909113020E942018E7
:102D00008033954758F00E943B18909313028093AC
:102D1000120280911D02886080931D02E0901902CA
:102D2000F0901A02E0911502F0911602AE0EBF1E4D
:102D3000B0921602A092150285E192E0F801099581
:102D40008091190290911A02892B29F4EF2819F029
:102D500081E08093140280914804882309F401C122
:102D600020914104309142042115310509F4D9C064
:102D7000809140048111D5C0082F10E07201082E07
:102D800002C0EE0CFF1C0A94E2F7A9014E215F215C
:102D9000452B11F48F5FF0CF90913F049801F5E03F
:102DA000220F331FFA95E1F790FD12C08295880F2C
:102DB000807680932A01220F232F221F330B319517
:102DC00020932D01815E80932B0110922E0112C061
:102DD00075E0369527957A95E1F7220F220F220F9D
:102DE00020932A0110922D01295F20932B0183E06B
:102DF00080932E0124E630E047E050E068E271E085
:102E000088E70E940E24892B09F08BC080913F0433
:102E100080FD22C0A80165E0440F551F6A95E1F7C7
:102E2000415C5D4F04E610E020E230E060E488E7BA
:102E30000E943524892B09F074C00E949504E09407
:102E4000F0948091410490914204E822F922F0929A
:102E50004204E092410465C080E2AFE1B2E01D921D
:102E60008A95E9F7A80135E0440F551F3A95E1F737
:102E7000E7E7F1E0FC87EB8703E711E0AB85BC8572
:102E80008D91BC87AB87F80191918F01BA01690FD1
:102E9000711D615C7D4F90E0815E9D4FFC0127E0DC
:102EA000922E9F01281B390B742C01C0770C2A9598
:102EB000EAF75B01812CD501CD905D01C720292D5A
:102EC00028192770622E022E000C330BBC2D01C076
:102ED000BB0F6A94EAF76B2E319521953109277063
:102EE000332701C0C6942A95EAF76C28C0806C2865
:102EF0006082839428E08212DECF9A9431963FEF6D
:102F00009312CFCF8BE791E0AB85BC858A179B07E7
:102F100009F0B4CF04E610E020E230E04FE152E0E7
:102F200085CF809147048823E1F00E942F180091FB
:102F30004304109144042091450430914604DC017F
:102F4000CB01801B910BA20BB30BB7FD0AC062E053
:102F500070E084EE94E00E94981C892B11F410928A
:102F60004704D1100E9495040E948904909149045D
:102F7000891709F48BCD0E9489048093490486CD7A
:102F800080E189BD82E189BD09B400FEFDCF809159
:102F9000D8008F7D8093D8008091E000826080937C
:102FA000E0008091E00081FDFCCF70CD81E0809356
:102FB000E00080E28093D8001092C9008FE19EE487
:102FC0000197F1F700C0000087E090EBDC018093EF
:102FD000E3049093E404A093E504B093E6049CE03A
:102FE00088E10FB6F894A895809360000FBE909387
:102FF0006000FFCF78941F920F920FB60F921124AA
:103000008F939F93AF93BF938091BA049091BB0429
:10301000A091BC04B091BD040196A11DB11D809387
:10302000BA049093BB04A093BC04B093BD04BF91B9
:10303000AF919F918F910F900FBE0F901F90189599
:103040009C014FB7F8948091BA049091BB04A09171
:10305000BC04B091BD044FBF821B930B08952FB7E2
:10306000F8946091BA047091BB048091BC04909173
:10307000BD042FBF08952FB7F8948091BA049091A2
:10308000BB04A091BC04B091BD042FBF08951F9252
:103090000F920FB60F9211248F939F93AF93BF930C
:1030A00080910902811113C08091BA049091BB04F0
:1030B000A091BC04B091BD044196A11DB11D8093A7
:1030C000BA049093BB04A093BC04B093BD04BF9119
:1030D000AF919F918F910F900FBE0F901F901895F9
:1030E0009C012A5F3F4FFC014281461301C01282BE
:1030F000019682179307B9F708959C01FC01329657
:103100009FEF80E04191461789F09F3F19F44111EC
:1031100001C0982F8F5F8630A9F79F3F39F0F901E2
:10312000E90FF11D97FDFA95628308950895CF93F5
:1031300084E090E00E948726C82F81E290E00E9400
:1031400087262C2F30E0A901582BCA01CF91089572
:103150006CEE7EEF80E090E00E94B92660E082E0B5
:1031600090E00E949B2660E083E090E00E949B2616
:103170001092B6041092B7041092B8041092B904D9
:1031800060E084E090E00E949B2660E081E290E0B5
:103190000E949B2660E085E090E00E949B2660E014
:1031A00086E090E00E949B266FEF87E090E00E940F
:1031B0009B2640E050E0BA0188E090E00E94AD26F6
:1031C00060E08DE090E00E949B2640E050E0BA0174
:1031D00088E190E00E94AD2660E087E190E00E94E7
:1031E0009B2640E050E0BA018CE190E00E94AD26C1
:1031F00060E080E290E00E949B2640E050E0BA014F
:103200008FE090E00E94AD2640E050E0BA0183E1FB
:1032100090E00C94AD268091B50481111092B50414
:1032200008959091B4048091B304892B2091B20445
:10323000982F922B909353048091B504882389F0A2
:10324000892B80935304E5E5F4E097E080E091500A
:1032500029F021912223D9F38F5FF9CF81110E94A8
:103260000B19E0910702F0910802309731F00280CB
:10327000F381E02D83E594E009940895BF92CF9205
:10328000DF92EF92FF920F931F93CF93DF938C0106
:10329000C0900002D0900102E0900202F090030280
:1032A0008091B6049091B704A091B804B091B9048C
:1032B000C82AD92AEA2AFB2ACFE1D0E0D701C601E1
:1032C0000C2E04C0B695A795979587950A94D2F7CA
:1032D00080FD04C0219790F7B12C07C0BC2EB80127
:1032E0008C2F0E94490A0197A9F38B2DDF91CF9172
:1032F0001F910F91FF90EF90DF90CF90BF900895B6
:10330000CF93DF93EC010E943E19BE010E94490A4F
:10331000DF91CF910895292F220F920F990F890FD6
:10332000682F669566956695982F977085E0689FDB
:10333000B001112440E050E080E0FB01E40FF51FF4
:10334000ED56FB4F208130E0092E02C036952795BF
:103350000A94E2F721703327042E01C0220F0A9449
:10336000EAF7822B4F5F5F4F4530510531F70895E3
:10337000292F220F920F990F890FE82FE695E695D6
:10338000E695877051E001C0550F8A95EAF785E010
:10339000E89FF0011124ED56FB4F20E030E070E093
:1033A0004081CB01022E02C0969587950A94E2F7E0
:1033B0008170819584278523842781932F5F3F4FD8
:1033C0002530310569F708950F931F938B019C01F8
:1033D0000670112722273327DC01CB0106301105A7
:1033E0002105310511F4886001C0877F80930002B8
:1033F00090930102A0930202B09303021092B304CF
:103400001092B2041F910F910C9411190F931F93F6
:1034100041E050E060E070E004C0440F551F661FBB
:10342000771F8A95D2F74095509560957095809159
:10343000000290910102A0910202B09103028A0160
:103440009B01082319232A233B23C901B8011F919B
:103450000F910C94E4192091B104809582238093FC
:10346000B104982F977079F430E0482F082E000CA3
:10347000550B2417350739F08595859585950E945C
:10348000061A1092B10408950F931F9341E050E083
:1034900060E070E004C0440F551F661F771F8A95D7
:1034A000D2F78091000290910102A0910202B091A6
:1034B00003028A019B01082B192B2A2B3B2BC901E4
:1034C000B8011F910F910C94E4196093B6047093A6
:1034D000B7048093B8049093B9041092B304109287
:1034E000B2040C941119809192049091610489178F
:1034F00019F08F5F8770FBCF08950F931F93CF93C1
:10350000DF938091600482958F7009F05DC0809197
:103510005D04882309F458C08091920410916104DD
:1035200060915B0470915C04C0915E04D0915F0473
:1035300091E06F3F09F090E0292F06E0811709F430
:1035400043C0209721F07F3F21F030E003C031E0FD
:1035500001C0322F90E030FD34C0089FF001099F78
:10356000F00D1124DF01AE59BB4F11963C9111971C
:10357000371327C03C91361324C012963C91129702
:1035800031111FC013964D915C9114974C1B5D0B2C
:10359000483C5105B0F4809160048F708061809345
:1035A0006004E959FB4F80818F70806180838BE5D7
:1035B00094E00E94130EDF91CF911F910F910C9414
:1035C000731A01968770BACFDF91CF911F910F9137
:1035D00008959F92AF92BF92CF92DF92EF92FF92A7
:1035E0000F931F93CF93DF93CDB7DEB761970FB6DD
:1035F000F894DEBF0FBECDBF8C0185E0F801DE017F
:103600001D9601900D928A95E1F7F80190818181D4
:10361000E28030915B0460915C0440915E045091C3
:103620005F044115510531F06F3F31F421E03F3F18
:1036300019F403C021E001C020E0F22FF1709F2EA9
:1036400020FD23C1F801C380D4802BE5A22E24E005
:10365000B22EF0905D04F601E41BF50BFF2009F497
:10366000CEC020916004E83CF10508F099C0422FDB
:10367000407F09F051C0681311C039130FC0FE2CF0
:10368000E1100CC02F70206120936004C5010E94DE
:10369000130E80916004F801858337C1CD2831F085
:1036A0008F3F31F421E09F3F19F403C021E001C0B6
:1036B00020E020FD03C021E02E2502C020E030E004
:1036C000F22FF170FF2E20FF1DC020919204409137
:1036D000610456E0241709F4F6C030E0529FF0016F
:1036E000539FF00D1124EE59FB4F6181861306C0E4
:1036F0006081961303C06281E61204C02F5F3F4FC2
:103700002770E8CFFE2CEE2009F4FFC08091600402
:1037100081608093600450C0681307C0391305C0EE
:10372000E11003C0F80125838DC09D878E878D85AC
:103730009E850E941C20882369F1EE2059F120917A
:103740006004822F82958F7090E0029774F08091D0
:103750005B0490915C0498878F831986DB86CA8608
:103760002C87CE0107960E94130E86E0F801ABE588
:10377000B4E001900D928A95E1F70E947D1A0DC088
:103780006817E1F09D878E878D859E850E941C209D
:1037900081111EC0C8010E94130EFF24F394B5C00E
:1037A000422F407F69F78BE594E00E94130E86E07C
:1037B000F50111928A95E9F7F12CA7C03913E2CFF0
:1037C000E110E0CFF8012583C8010E94130E57C015
:1037D000EE2001F320916004822F82958F7090E09B
:1037E00002971CF280915B0490915C049A83898318
:1037F0001B82DD82CC822E83CE010196B4CFE83CC1
:10380000F105E8F5FE2CEE2029F2681327C03913E4
:1038100025C02091600420FD18C0822F82958F70F2
:10382000482F50E04115510581F0F80125834F30B4
:10383000510541F08F5F982F9295907F822F8F7066
:10384000892B8583C8010E94130E86E0F801ABE541
:10385000B4E001900D928A95E1F757C09D878E875D
:103860008D859E850E941C2081117FCF80916004F0
:10387000816080936004C8010E94130E46C086E0F8
:10388000F50111928A95E9F740C0EE2009F482CF44
:103890009D878E878D859E850E941C20F82E88230B
:1038A00009F478CF86E0F801ABE5B4E001900D9221
:1038B0008A95E1F780915B0490915C040E948019E5
:1038C0000E947D1A22C09D878E878D859E850E94CD
:1038D0008019292F22952F70223028F49F7039F0FB
:1038E000811105C00BC0243028F49F7049F4805E1C
:1038F000883020F0C8010E94130E9F2CF92C05C0BF
:10390000F8019581907F99F7F9CF8F2D61960FB6C9
:10391000F894DEBF0FBECDBFDF91CF911F910F9105
:10392000FF90EF90DF90CF90BF90AF909F90089561
:10393000EF92FF920F931F93CF93DF93EC017B01E4
:1039400064E670E088E70E9487238C01EC0EFD1E80
:10395000CE15DF0561F017FD0AC0FE01849164E613
:1039600070E00E94DE238C012196892B89F30E944E
:103970006224C801DF91CF911F910F91FF90EF90CA
:1039800008950F931F93CF93DF938C010E94D12250
:10399000811118C0E80108E010E08091E80085FD81
:1039A0000AC08091E8008E778093E8000E94D122BF
:1039B000882399F307C089918093F1000150110980
:1039C00061F780E0DF91CF911F910F910895982FBB
:1039D000973068F59093E900981739F05091EC0012
:1039E0002091ED004091F00003C0562F40E022E00E
:1039F00021FD02C09F5FECCF3091EB003E7F309302
:103A0000EB003091ED003D7F3093ED003091EB0005
:103A100031603093EB005093EC002093ED00409325
:103A2000F0002091EE0027FDE5CF80E008958F7033
:103A30008093E90081E008951F93CF93DF93CDB782
:103A4000DEB7AA970FB6F894DEBF0FBECDBFECEC81
:103A5000F4E08091F100819324E0E43DF207C9F79E
:103A60008091CD04833009F460C030F4813071F06E
:103A7000823009F49AC0B1C08A3009F486C08B3014
:103A800009F46BC0893009F0A8C020C08091CC0433
:103A9000813A09F0A2C08091E800877F8093E80016
:103AA0008091D0049091D104892B21F468E080ECBE
:103AB00094E003C060E080E090E070E00E94232387
:103AC0008091E8008B778093E80087C08091CC04D8
:103AD000813209F082C08091D0049091D104892B69
:103AE00009F07BC08091E800877F8093E800809197
:103AF000E80082FD05C08091CA048111F8CF6DC035
:103B00002091F3008091F20090E0922B029729F42B
:103B10008091F1008B7F813021F48091F1008093BE
:103B2000BF048091E8008B7754C08091CC04813A27
:103B300009F053C08091D0049091D104892B09F0F1
:103B40004CC08091E800877F8093E8008091E80076
:103B500080FFFCCF8091390137C08091CC04813245
:103B6000E1F58091D0049091D104892BB1F5809139
:103B7000E800877F8093E8000E9404238091CE04B0
:103B8000809339010E94452028C08091CC04813265
:103B900021F58091E800877F8093E8000E9404234C
:103BA0008091CF048093BE0418C08091CC04813AE8
:103BB000A1F48091E800877F8093E8008091E8007D
:103BC00080FFFCCF8091BE048093F1008091E800DB
:103BD0008E778093E8000E9404238091E80083FFA1
:103BE000BFC18091CC049091CD04492F50E04A3060
:103BF000510508F0B5C1FA01EA58FF4F0C9474273B
:103C0000803821F0823809F0ABC108C08091C80427
:103C10009091C904992389F082600FC08091D004EB
:103C20008F70873008F09CC18093E9008091EB0091
:103C300085FB882780F91092E9009091E800977F32
:103C40009093E8008093F1001092F1005EC1282F5C
:103C50002D7F09F085C1882319F0823061F080C181
:103C60008091CE04813009F07BC1933009F080E06F
:103C70008093C9042EC08091CE0481112AC0809106
:103C8000D0048F702FEF280F263008F069C1809381
:103C9000E9002091EB0020FF1CC0933021F48091BB
:103CA000EB00806214C09091EB0090619093EB0068
:103CB00021E030E0A90102C0440F551F8A95E2F7C8
:103CC0004093EA001092EA008091EB0088608093B4
:103CD000EB001092E9008091E800877F19C1811103
:103CE0003FC11091CE041F778091E3008078812B33
:103CF0008093E3008091E800877F8093E8000E9432
:103D000004238091E80080FFFCCF8091E30080686D
:103D10008093E300111102C082E001C083E0809330
:103D2000CA041EC18058823008F01AC18091CE04A6
:103D30009091CF048C3D53E0950779F583E08A8319
:103D40008AE289834FB7F894DE01139620E03EE0C3
:103D500051E2E32FF0E050935700E49120FF03C0BD
:103D6000E295EF703F5FEF708E2F90E0EA3010F039
:103D7000C79601C0C0968D939D932F5F243149F75C
:103D80004FBF8091E800877F8093E8006AE270E08F
:103D9000CE0101960E942323A7C04091D0045091E8
:103DA000D104292F332723303105A9F068F42130BD
:103DB000310509F4E4C02230310509F0D1C082E2B6
:103DC00090E0E6E2F5E03DC02132310579F12232A2
:103DD000310581F1C5C0992781309105B9F070F0A6
:103DE00082309105D9F0039709F0BAC0EAE5F5E011
:103DF000E4918E2F90E0EAE5F5E020C0E0E9F5E0FF
:103E0000E4918E2F90E0E0E9F5E018C0ECE7F5E0F2
:103E1000E4918E2F90E0ECE7F5E010C0E0E6F5E0ED
:103E2000E4918E2F90E0E0E6F5E008C0452B09F420
:103E3000ABC096C0452B09F4ACC092C0009709F402
:103E40008FC02091E800277F2093E8002091D204C2
:103E50003091D3048217930708F49C0140E02115A8
:103E6000310589F18091CA04882309F43DC0853069
:103E7000D9F18091E80083FD37C08091E80082FD90
:103E80002FC08091E80080FFEACF4091F30080913D
:103E9000F20090E0942B2115310559F088309105FE
:103EA00040F444914093F10031962150310901963C
:103EB000F2CF41E0089709F040E08091E8008E776A
:103EC0008093E800CCCF4111CDCF0AC08091CA04C5
:103ED000882351F0853041F08091E80083FD04C0D3
:103EE0008091E80082FFF2CF8091E8008B77809389
:103EF000E80036C08038A1F58091E800877F809384
:103F0000E8008091CB048093F1008091E8008E77E7
:103F10008093E8000E94042323C0811121C0809176
:103F2000CE049091CF0499270297D4F48091E800B1
:103F3000877F8093E8001091CE041093CB040E94F9
:103F40000423111106C08091E30087FD02C081E0C7
:103F500001C084E08093CA0461EC81E00E94E71C08
:103F60008091E80083FF1AC08091E800877F8093EA
:103F7000E8008091EB0080628093EB000FC082E14B
:103F800090E0E8E4F5E05DCF89E090E0E8E3F5E07B
:103F900058CF80E490E0E6EEF4E053CFAA960FB657
:103FA000F894DEBF0FBECDBFDF91CF911F91089572
:103FB0001F920F920FB60F9211242F933F934F939E
:103FC0005F936F937F938F939F93AF93BF93CF93A1
:103FD000DF93EF93FF93C091E900CF708091EC00E5
:103FE000D82FD17080FDD0E81092E9008091F000C8
:103FF000877F8093F00078940E941C1D1092E90046
:104000008091F00088608093F000CD2BCF70C0933A
:10401000E900FF91EF91DF91CF91BF91AF919F9117
:104020008F917F916F915F914F913F912F910F9061
:104030000FBE0F901F9018950E948019292F2F7086
:10404000E92FE295EF704E2F50E0FA013297EE30F3
:10405000F105B8F4E058FF4F0C947427803F99F0B5
:1040600018F4883E70F40FC0843F59F40CC0883EA9
:1040700050F0813F31F407C0822F86958695869552
:10408000089580E0089581E008951092B40486E0D8
:10409000E5E5F4E0DF011D928A95E9F71092B3049B
:1040A0001092B2040C941119882341F080959091DC
:1040B000B40489238093B4040C94111908958823BF
:1040C00039F09091B404892B8093B4040C941119A5
:1040D0000895882309F47AC0682F823869F40E9411
:1040E000890481FF73C069E383E594E00E947D1831
:1040F0000E94111969E30EC0833891F40E9489046B
:1041000080FF64C063E583E594E00E947D180E940F
:10411000111963E583E594E00E9470180C9411195D
:10412000843869F40E94890482FF50C067E483E503
:1041300094E00E947D180E94111967E4EBCF8CEF88
:10414000860F813A38F380E2860F883070F467700A
:1041500081E090E001C0880F6A95EAF78095909120
:10416000B40489238093B404D9CF8BE5860F8330C0
:10417000A0F48091D4049091D504892B39F1109248
:10418000D5041092D404E0910702F0910802309710
:10419000E9F00680F781E02D16C0685A6731B0F467
:1041A0008091D6049091D704892B81F01092D70486
:1041B0001092D604E0910702F0910802309731F096
:1041C0000084F185E02D80E090E009940895CF937C
:1041D000882309F47CC0C82F8238B1F40E94890476
:1041E00081FD75C069E383E594E00E947D180E941B
:1041F00011192FEF81EE94E0215080409040E1F7BB
:1042000000C0000069E317C08338D1F40E9489041C
:1042100080FD5DC063E583E594E00E947D180E9407
:1042200011192FEF81EE94E0215080409040E1F78A
:1042300000C0000063E583E594E00E9470183CC074
:104240008438B1F40E94890482FD41C067E483E5AB
:1042500094E00E947D180E9411192FEF81EE94E0E6
:10426000215080409040E1F700C0000067E4E3CFB8
:104270008CEF8C0F813A80F4E5E5F4E08BE594E077
:104280002191C217E1F08E179F07D1F76C2F83E5BC
:1042900094E00E947D1810C080E28C0F8830B8F442
:1042A000C77081E090E001C0880FCA95EAF790914D
:1042B000B404892B8093B404CF910C9411196C2F02
:1042C00083E594E00E9470180E941119DFCFCF910E
:1042D0000895E8EDF0E080818E7F80831092E20007
:1042E0001092DA001092E100A0EEB0E08C918160B3
:1042F0008C9380818F77808319BCA7EDB0E08C917F
:104300008E7F8C9380818F7E80831092D804089555
:10431000CF92DF92EF92FF920F931F93CF93DF9391
:10432000C8EDD0E088818F7E8883E7EDF0E0808162
:104330008160808384E082BF81E08093D80488819B
:104340008E7F888302EE10E0F80110821092DA006E
:1043500081EEC82ED12CF601108288818F77888358
:1043600088818068888388818F7D888319BC1092BA
:10437000CA041092CB041092C9041092C80490EEA3
:10438000E92EF12CF70180818B7F80838881816009
:10439000888360E080E00E94E71CF60180818E7FC8
:1043A0008083F80180818160808380818860808340
:1043B000F70180818E7F8083888180618883DF918F
:1043C000CF911F910F91FF90EF90DF90CF900895C4
:1043D0001F920F920FB60F9211242F933F934F937A
:1043E0005F936F937F938F939F93AF93BF93EF935D
:1043F000FF938091E10082FF09C08091E20082FF7B
:1044000005C08091E1008B7F8093E1008091DA000C
:1044100080FF2AC08091D80080FF26C08091DA00FA
:104420008E7F8093DA008091D90080FF18C080E1F0
:1044300089BD82E189BD09B400FEFDCF81E0809392
:10444000CA048091D80481110FC00E9469210E9482
:1044500088218091E20084608093E20005C019BC4D
:104460001092CA041092D8048091E10080FF17C016
:104470008091E20080FF13C08091E2008E7F8093E4
:10448000E2008091E20080618093E2008091D80098
:1044900080628093D80019BC85E08093CA04809123
:1044A000E10084FF43C08091E20084FF3FC080E1CF
:1044B00089BD82E189BD09B400FEFDCF8091D8009D
:1044C0008F7D8093D8008091E1008F7E8093E10002
:1044D0008091E2008F7E8093E2008091E200816013
:1044E0008093E2008091CB04882311F084E007C020
:1044F0008091E30087FD02C081E001C083E08093EA
:10450000CA040E9445200E9489041092DF04809111
:10451000DE04882349F08091D90481608093D90416
:1045200060E086950E946B0C0E94500C8091E10027
:1045300083FF26C08091E20083FF22C08091E100CA
:10454000877F8093E10082E08093CA041092CB04BD
:104550008091E1008E7F8093E1008091E2008E7F68
:104560008093E2008091E20080618093E20060E04D
:1045700080E00E94E71C8091F00088608093F0004A
:10458000FF91EF91BF91AF919F918F917F916F912B
:104590005F914F913F912F910F900FBE0F901F9001
:1045A00018952091E4003091E50095E64091EC00EB
:1045B000842F817040FF23C08091E80080FD1DC0E2
:1045C0008091CA04882399F0853099F08091EB009E
:1045D00085FD11C04091E4005091E5002417350796
:1045E00029F3915011F09A01E1CF84E0089582E01F
:1045F000089583E0089581E0089580E00895409152
:10460000E80042FFDDCF08958091CC0487FF11C000
:104610008091E80082FD05C08091CA048111F8CF25
:1046200011C08091E8008B770BC08091CA04882369
:1046300049F08091E80080FFF8CF8091E8008E7704
:104640008093E80008952091D2043091D304261776
:10465000370748F06115710539F42091E8002E778D
:104660002093E80001C0B901FC0120E0611571054B
:1046700079F18091CA048823F1F18530F1F18091BC
:10468000E80083FD3CC08091E80082FD2EC080914F
:10469000E80080FFEBCF2091F3008091F20090E0E2
:1046A000922B6115710551F08830910538F42191F4
:1046B0002093F100615071090196F3CF21E0089732
:1046C00009F020E08091E8008E778093E800CECF5B
:1046D0002111CFCF0AC08091CA04882361F08530B0
:1046E00061F08091E80083FD0AC08091E80082FFBC
:1046F000F2CF80E0089582E0089583E0089581E09C
:1047000008951092B9008CE08093B8000895EF925C
:10471000FF920F931F93CF93DF93182FEB0110920B
:10472000BC0084EA8093BC000E943B187C0180910D
:10473000BC0087FD0EC0CF3F8FEFD807C1F30E94AA
:104740003B188E199F098C179D0788F38EEF9FEFFA
:104750002EC08091B900887F883041F08091B900E7
:10476000887F803119F08FEF9FEF21C01093BB003D
:1047700084E88093BC000E943B188C018091BC00AF
:1047800087FD0CC0CF3F8FEFD807C1F30E943B18C5
:10479000801B910B8C179D0788F3D8CF8091B900AF
:1047A000887F883111F08034F1F680E090E0DF916D
:1047B000CF911F910F91FF90EF9008950F931F934A
:1047C000CF93DF93EB018093BB0084E88093BC0020
:1047D0000E943B188C018091BC0087FD0EC0CF3F2A
:1047E0008FEFD807C1F30E943B18801B910B8C17E9
:1047F0009D0788F38EEF9FEF0CC02091B900287FB2
:1048000081E090E0283211F480E090E0919581956C
:104810009109DF91CF911F910F910895CF92DF926F
:10482000EF92FF920F931F93CF93DF936B018A0157
:104830007901B9010E948723E6010C0D1D1DC017E7
:10484000D10761F424E92093BC00DF91CF911F913F
:104850000F91FF90EF90DF90CF90089597FDF2CFEA
:10486000B70189910E94DE23EACFCF92DF92EF92C7
:10487000FF920F931F93CF93DF93C62F6A017901A5
:10488000B8010E94872397FD11C0B8018C2F0E94A8
:10489000DE23E601EC0CFD1CCE15DF0539F097FD9B
:1048A00005C0B80189910E94DE23F6CF24E9209348
:1048B000BC00DF91CF911F910F91FF90EF90DF909F
:1048C000CF90089584E98093BC0008958EE14A9BBF
:1048D00002C08150E1F74A9BFECF08955A9880E2CA
:1048E0008A95F1F75A9A0895FC012AE02A95F1F782
:1048F00090E020E080E031E0261779F040E14A9531
:10490000F1F7880F4A9B02C08160932700C0000026
:1049100040E14A95F1F72F5FEFCF20E12A95F1F7BB
:1049200029B100C0000030E13A95F1F722FB2227BF
:1049300020F992272081920F90830895EF92FF92A1
:104940000F931F93CF93DF931F92CDB7DEB71982DA
:104950008C017C01E60EF11C0E151F0559F00E941A
:10496000662468E0CE0101960E947424F8018193C8
:104970008F01F2CF81E09981911180E00F90DF915A
:10498000CF911F910F91FF90EF9008959093E204C3
:104990008093E1046093E004529A5A9A08959093A8
:1049A000E2048093E1046093E00452985A9AEA9AF0
:1049B000E9E6F0E080818F7C80830895615091E08A
:1049C00001C0990F6A95EAF720E031E0992361F080
:1049D000492F482319F05A9A232701C05A9840E2D8
:1049E0004A95F1F79695F2CF222311F05A9A01C019
:1049F0005A9880E28A95F1F75A980895FF920F939A
:104A00001F93CF93DF93EC018C01060F111DC0178C
:104A1000D10741F0F9900E946E2468E08F2D0E942A
:104A2000DE24F5CFDF91CF911F910F91FF90089574
:104A30001F920F920FB60F9211240F931F932F9373
:104A40003F934F935F936F937F938F939F93AF9316
:104A5000BF93EF93FF93CF93DF931F92CDB7DEB752
:104A600019820E94662467E0CE0101960E94742498
:104A7000382F369536953695932F96959570232F2A
:104A80002570920F292F2370969596958770920F17
:104A9000891348C08981811145C08091E004831742
:104AA00008F440C080E18A95F1F75A9A529AA2E040
:104AB000AA95F1F700C00091E1041091E204B8E07A
:104AC0003B9F000D111D11245A98F8016581662342
:104AD00021F0868197810E94FE240E946E24F0E1DD
:104AE000FA95F1F75A9852985A9A80E18A95F1F717
:104AF000D80112966C911297662369F013968D91E6
:104B00009C9114970E949E24D801ED91FC918111F3
:104B100005C082E004C0D801ED91FC9188E080835B
:104B20000E9466240F90DF91CF91FF91EF91BF918A
:104B3000AF919F918F917F916F915F914F913F9135
:104B40002F911F910F910F900FBE0F901F901895EE
:104B50000F931F93CF93DF932091E00430E0281749
:104B600039070CF471C09C0193E0220F331F9A9512
:104B7000E1F7C091E104D091E204C20FD31FF89491
:104B8000529A5A9845E04A95F1F70000982F969569
:104B900095708570890F982F937086958695890FEB
:104BA0008901082B0E946E2484E08A95F1F700C0E9
:104BB00067E0802F0E94DE2440E14A95F1F7529889
:104BC0005A9A4A9902C000C0FCCF87E090E04A9B05
:104BD0000EC0019751F4529A5A9AE881F98181E006
:104BE0008083789481E090E031C000C0F0CF6D8187
:104BF000662381F08E819F810E949E2481110AC0CC
:104C0000529A5A9AE881F98182E08083789482E00E
:104C100090E01CC00E94662480E28A95F1F75A98C1
:104C2000529A40E14A95F1F76A81662321F08B811F
:104C30009C810E94FE240E946E24E881F9811082EA
:104C4000789480E090E002C084E090E0DF91CF9122
:104C50001F910F9108958F929F92AF92BF92CF9222
:104C6000DF92EF92FF92CF93DF93EC01688179811D
:104C70008A819B81611571058105910521F464E2AA
:104C800079ED8BE597E02DE133EF41E050E00E94B4
:104C9000CF2649015A019B01AC01A7EAB1E40E9469
:104CA000EE266B017C01ACEEB4EFA50194010E94ED
:104CB000FC26DC01CB018C0D9D1DAE1DBF1DB7FF79
:104CC00003C00197A109B04888839983AA83BB8355
:104CD0009F77DF91CF91FF90EF90DF90CF90BF90C3
:104CE000AF909F908F9008950E942B26089580E0AA
:104CF00091E00E942B260895A0E0B0E0809300018F
:104D000090930101A0930201B09303010895F999D2
:104D1000FECF92BD81BDF89A992780B50895A6E18E
:104D2000B0E044E050E00C94C126A8E1B0E042E0DD
:104D300050E00C94C126262FF999FECF92BD81BD7B
:104D4000F89A019700B4021639F01FBA20BD0FB6C9
:104D5000F894FA9AF99A0FBE08950396272F0E94A5
:104D60009C260E949B26252F0E949C26242F0C9473
:104D70009C260196272F0E949C260C949B26DC01E2
:104D8000CB01FC01F999FECF06C0F2BDE1BDF89A56
:104D9000319600B40D9241505040B8F70895052E59
:104DA00097FB1EF400940E94E62657FD07D00E9450
:104DB000012707FC03D04EF40C94E626509540954D
:104DC000309521953F4F4F4F5F4F089590958095B7
:104DD000709561957F4F8F4F9F4F08950E942327B5
:104DE000A59F900DB49F900DA49F800D911D11243F
:104DF0000895B7FF0C94EE260E94EE26821B930BBB
:104E00000895A1E21A2EAA1BBB1BFD010DC0AA1F0B
:104E1000BB1FEE1FFF1FA217B307E407F50720F023
:104E2000A21BB30BE40BF50B661F771F881F991F9E
:104E30001A9469F760957095809590959B01AC01E7
:104E4000BD01CF010895A29FB001B39FC001A39FF0
:104E5000700D811D1124911DB29F700D811D1124B3
:104E6000911D0895991B79E004C0991F961708F0C9
:104E7000961B881F7A95C9F78095089587FB082EA1
:104E8000062687FD819567FD61950E9432270EF405
:104E9000919507FC81950895AA1BBB1B51E107C0A2
:104EA000AA1FBB1FA617B70710F0A61BB70B881FBA
:104EB000991F5A95A9F780959095BC01CD01089549
:104EC00097FB072E16F4009407D077FD09D00E94B7
:104ED0004C2707FC05D03EF4909581959F4F08958F
:104EE000709561957F4F0895EE0FFF1F0590F49127
:104EF000E02D09940E942327332312F48A1B9B0B75
:104F00000C9484270E942327B7FF0895821B930BDC
:104F10000895FC014150504030F001900616D1F741
:104F20003197CF010895882799270895F894FFCFE6
:104F30000100000001191A1B1C1D1E1F2021220147
:104F40000201000C000C0CF50100F50104F101F068
:104F50000108E801000000010021007F2200037227
:104F600013751371136F1370130100010202020213
:104F70000606060909090909090F0F0F0F0F0F157A
:104F80001515181919191919191919191923242579
:104F900025252525259497C63400000000F4F5F654
:0C4FA000F731330008101818100800004A
:00000001FF
