:100000000C94A3030C94EA030C94EA030C947A2F47
:100010000C94EA030C94EA030C94EA030C94EA03AC
:100020000C94EA030C94EA030C94B1200C94ED1F99
:100030000C94EF220C94EA030C94EA030C94EA0368
:100040000C94EA030C94EA030C94EA030C94EA037C
:100050000C94EA030C94AE220C94EA030C94EA0389
:100060000C94EA030C94EA030C94EA030C94EA035C
:100070000C94EA030C94EA030C94EA030C94EA034C
:100080000C94E4060C94EA030C94EA030C94EA033F
:100090000C94EA030C94EA030C94EA030C94EA032C
:1000A0000C94EA030C94EA030C94EA03E114E114BF
:1000B0001B151B1571151417141714178D156B16B6
:1000C0007C167C1654177E17831788178D17921786
:1000D00097179C17A117A617AB17B217B517B81724
:1000E000BB17BE17C117C417C717CC17F71AFA1AD0
:1000F0001B1B281B2F1B4F1B521B861BA81B421CA4
:100100004C1CB31BB51BB91BDC1BFC1BFF1B021CCF
:10011000241CF51D1C1ECF1F1C1ECF1F681E8B1E0E
:10012000CF1F8C1F9C1FC62CC62CD92CD92CCF2C92
:10013000D92CD92CD92CC62CC62CD42CD92CD92CC2
:10014000D42C07634236B79BD8A71A39685618AE25
:10015000BAAB558C1D3CB7CC5763BD6DEDFD753EFC
:10016000F6177231BF000000803F08000000BE9209
:100170002449123EABAAAA2ABECDCCCC4C3E0000EC
:100180000080BEABAAAAAA3E00000000BF0000008B
:10019000803F0000000000084178D3BB4387D113A3
:1001A0003D190E3CC3BD4282AD2B3E68EC8276BE4B
:1001B000D98FE1A93E4C80EFFFBE01C4FF7F3F0015
:1001C0000000000000010101010101010101020222
:1001D00002020202020202030303030303030304F5
:1001E00004040404040405050505050606060606C0
:1001F000070707070708080808090909090A0A0A7A
:100200000B0B0B0C0C0C0D0D0D0E0E0E0F0F0F101B
:1002100010111111121213131414151516161717A5
:10022000181819191A1A1B1B1C1D1D1E1E1F202011
:10023000212222232424252626272829292A2B2C5B
:100240002D2D2E2F30313232333435363738393A7E
:100250003B3C3D3E3F404142434445464748494A76
:100260004C4D4E4F50515354555658595A5B5D5E44
:100270005F616264656668696B6C6D6F70727375DF
:1002800077787A7B7D7E8082838587888A8C8E8F43
:1002900091939596989A9C9EA0A2A3A5A7A9ABAD71
:1002A000AFB1B3B5B7BABCBEC0C2C4C6C9CBCDCF5F
:1002B000D1D4D6D8DBDDDFE2E4E7E9EBEEF0F3F50D
:1002C000F8FAFDFFFFAA7F55400001020304050B69
:1002D0000A090807060000000000000000000000F6
:1002E0000000000000000000007E0F00D4FFFFFFB0
:1002F000C70000007800000000000000002A2B2842
:1003000000000000000000000000000000000000ED
:1003100029000000002C1E34202122243426272509
:100320002E362D3738271E1F202122232425263341
:1003300033362E37381F0405060708090A0B0C0D43
:100340000E0F101112131415161718191A1B1C1D55
:100350002F3130232D350405060708090A0B0C0D33
:100360000E0F101112131415161718191A1B1C1D35
:100370002F3130354C32190A00047F3F1F6432148C
:10038000643214783C1E1E140A0505010980A1017F
:10039000850319012AB700150126B70095017510CC
:1003A0008100C0050C0901A101850419012AA002E0
:1003B000150126A002950175108100C00660FF0995
:1003C00061A1010962150026FF00952075088102D0
:1003D0000963150026FF00952075089102C00501EC
:1003E0000906A101050719E029E71500250195086F
:1003F000750181029501750881010507190029FF22
:10040000150026FF009506750881000508190129C9
:1004100005950575019102950175039101C00902C9
:100420005B00030100A0FA090400000103010100C0
:100430000921110100012240000705810308000A7B
:10044000090401000203000000092111010001223A
:100450002200070582032000010705030320000195
:10046000090402000103000000092111010001221A
:1004700032000705840320000A1201100100000069
:100480000854590100010001020301040330000077
:10049000001A034C0075006E0061006B0065007966
:1004A0000020004D0069006E006900000012037911
:1004B000006F00690063006800690072006F00004F
:1004C00000040309042223252628292A2C2D2F3055
:1004D00032333536383A3B3D3E4042434547494A40
:1004E0004C4E5051535557595A5C5E606264666871
:1004F000696B6D6F71737577797B7D7F818385877C
:10050000898A8C8E90929496989A9C9E9FA1A3A57E
:10051000A7A8AAACAEAFB1B3B4B6B8B9BBBCBEBFA6
:10052000C1C2C3C5C6C7C9CACBCCCDCED0D1D2D229
:10053000D3D4D5D6D7D7D8D9D9DADADBDBDBDCDC34
:10054000DCDCDCDDDDDDDDDCDCDCDCDCDBDBDBDAEC
:10055000DAD9D9D8D7D7D6D5D4D3D2D2D1D0CECD57
:10056000CCCBCAC9C7C6C5C3C2C1BFBEBCBBB9B864
:10057000B6B4B3B1AFAEACAAA8A7A5A3A19F9E9CE9
:100580009A98969492908E8C8A89878583817F7DB4
:100590007B79777573716F6D6B6968666462605E95
:1005A0005C5A5957555351504E4C4A49474543425E
:1005B000403E3D3B3A3836353332302F2D2C2A29F8
:1005C00028262523222B0014001A000800150017E6
:1005D00000E00004001600070009000A00E1001D09
:1005E000001B0006001900050000000000E300E207
:1005F0000001512C002A00130012000C0018001CEE
:1006000000340033000F000E000D000B00E5003831
:1006100000370036001000110000000000E700E67F
:10062000000251280029001E001F00200021002286
:1006300000E00001000100010001000100E10001F3
:1006400000010001000100010000000000E300E2E1
:100650000001512C002A0027002600250024002339
:1006600000010001004F0052005100500001000144
:1006700000010001000100010000000000E700E6A9
:10068000000251280029001E021F0220022102221E
:1006900002E00001000100010001000100E100355D
:1006A00002010001000100010000000000E300E27F
:1006B0000001512C002A00270226022502240223D1
:1006C000023500310230022F022E002D003502319A
:1006D0000030002F002E022D0200000000E700E68F
:1006E0000002512800005C0100010001000100012E
:1006F00000C35CC65CC85CCA5C01000100C45CC786
:100700005CC95CCB5C0100010000000000E300E27A
:100710000001512C003F003E003D003C003B003AF0
:100720000045004400430042004100400001000138
:1007300000010001000100010000000000E700E6E8
:1007400000025128000011241FBECFEFDAE0DEBF07
:10075000CDBF04B603FE27C08091F6059091F70542
:10076000A091F805B091F9058730904BA740B04BA8
:10077000D1F41092F6051092F7051092F805109238
:10078000F90514BE84B7877F84BF0FB6F894A89587
:1007900080916000886180936000109260000FBEBD
:1007A000E0E0F8E3099525E0A8E4B4E001C01D927B
:1007B000A63FB207E1F714E0A0E0B1E0EAE7FBE60C
:1007C00002C005900D92A834B107D9F70E94E7172F
:1007D0000C94BB350C9400009091C00492FF0DC0A6
:1007E000282F2871283019F4877F846006C0282FAD
:1007F0002471243011F48B7F886093FF0DC0282F63
:100800002871283119F4877E846106C0282F24714D
:10081000243111F48B7E88612091C10420FF0DC02A
:10082000382F3871383019F4877F816006C0382F2F
:100830003171313011F48E7F886021FF0DC0282F77
:100840002871283119F4877E816106C0282F217113
:10085000213111F48E7E886194FD877E0895CF92B8
:10086000DF92EF920F931F93CF93DF93CDB7DEB755
:10087000A4970FB6F894DEBF0FBECDBF60917D0385
:100880008091E90480FF0AC0E9ECF2E0AE014F5F1D
:100890005F4F8E010B5D1F4FCA0114C080917E0314
:1008A00090917F03891780F7E82FF0E09F01220FD6
:1008B000331FE20FF31FE357FA4F118210821282A7
:1008C0008F5FF0CF249130E0D901AA0FBB1F2A0F10
:1008D0003B1FD901A357BA4FCD90DD90EC90DA01C0
:1008E000CD92DD92ED92AD013196A017B10751F78F
:1008F00020917C03FC01B3E02B9FE00DF11D11243E
:10090000539A8BB1877F9BB198602FB7F894AF0152
:1009100033E0639F400D511D1124E417F50789F062
:10092000319168E09BB9000000C037FF8BB9330FED
:10093000000000C000C000C08BB900C06A9591F7EC
:10094000ECCF2FBF8FE594E00197F1F700C00000D6
:10095000A4960FB6F894DEBF0FBECDBFDF91CF9146
:100960001F910F91EF90DF90CF9008959091E9043F
:1009700090FF16C090917E0320917F03921770F430
:10098000E92FF0E0DF01AA0FBB1FEA0FFB1FE357BF
:10099000FA4F8183608342839F5FF0CF0C942F04D2
:1009A00008958091E904282F269530E0211531051E
:1009B00019F48170826005C02B32310524F08170FA
:1009C00084658093E9040895CF92DF92EF92FF92BD
:1009D0006B017C010E94D104B701A60188E090E080
:1009E000FF90EF90DF90CF900C940F318091ED0449
:1009F000882319F081508093ED046091E90470918F
:100A0000EA048091EB049091EC040C94E40480914E
:100A1000ED04833018F48F5F8093ED046091E90456
:100A20007091EA048091EB049091EC040C94E4043E
:100A3000E9EEF4E083E0808311828FEF8283838389
:100A40001482AFECB4E012968C91129783601296E8
:100A50008C9360817181828193810C94E404AF92C4
:100A6000BF92CF92DF92EF92FF920F931F93CF939B
:100A7000DF93E82EF62EE901E42FF0E0611106C0C5
:100A8000EC53FE4FE4914E2F2E2F71C0062F10E035
:100A9000EC53FE4F4491F42FC42ED12C26E0829FBC
:100AA000C00111242FEF30E0B9010E946A355BEAE2
:100AB0005603C001579F900D11248E0D911D8E0D70
:100AC000911D582F550F580FD901A01BB10BAC9D8C
:100AD000C001AD9D900DBC9D900D1124E92FF59E98
:100AE000D0011124AB2FBB277901EA1AFB0AEC9C39
:100AF000D001ED9CB00DFC9CB00D11245901A51A3C
:100B0000B108A09E7001A19EF00CB09EF00C1124C3
:100B1000EF2CFF242E193F092C9D80012D9D100DD7
:100B20003C9D100D1124212F6230710591F048F485
:100B300061157105E1F061307105B9F4242F4B2F77
:100B400016C06430710569F040F06630710579F0C7
:100B50000CC0242F492FE12F0AC0492FEF2F2B2F34
:100B600006C0292FE42F412F02C0292FEB2F4983E4
:100B70002883EA83DF91CF911F910F91FF90EF902F
:100B8000DF90CF90BF90AF900895CF93DF9300D0C8
:100B90001F92CDB7DEB79091E90490FF0AC09E0185
:100BA0002F5F3F4F0E942F054B8169818A810E94F0
:100BB000B6040F900F900F90DF91CF910895AF92F0
:100BC000BF92CF92DF92EF92FF920F931F93CF933A
:100BD000DF9300D01F92CDB7DEB7182FF62E042F6B
:100BE000E22E9091E90490FF7EC0E92FE695AE2FAA
:100BF000B0E0A253BC4F8C918093CF049E7F923083
:100C000061F49E012F5F3F4F812F0E942F054B8182
:100C100069818A810E94B60443C0823019F4009130
:100C2000EC043EC0863019F41091EA0439C08930D2
:100C3000D9F38931A9F5E9518E2F8170D82EE69527
:100C4000F0E0EC53FD4FA590B490C12CBB24609113
:100C50008003C61618F52C2D30E0A29EC001A39E7D
:100C6000900DB29E900D112470E00E946A35812F84
:100C7000D11002C0860F01C0861B90917E03290F00
:100C8000311DA901440F551F240F351F23573A4F1B
:100C9000402F6F2D0E942F05C394D9CF0E942F049F
:100CA0008091EA04181308C08091EB04F81204C084
:100CB0008091EC04081729F08091D1048260809320
:100CC000D1041093EA04F092EB040093EC04EE20BC
:100CD00051F06091E9047091EA048091EB049091E5
:100CE000EC040E94E4040F900F900F90DF91CF91DD
:100CF0001F910F91FF90EF90DF90CF90BF90AF903A
:100D00000895E9EEF4E0438128E0421B08F440E056
:100D100021E0628181810C94DF05E9EEF4E04381FA
:100D200028E0420F08F44FEF21E0628181810C94AA
:100D3000DF05E9EEF4E0628128E0621B08F460E080
:100D400021E0438181810C94DF05E9EEF4E06281CA
:100D500028E0620F08F46FEF21E0438181810C9459
:100D6000DF05E9EEF4E0818121E043816281885072
:100D70000C94DF05E9EEF4E0818121E0438162819A
:100D8000885F0C94DF0581E08093A40468E070E044
:100D900081EC91E00C94AB1C81E08093A50468E0A9
:100DA00070E081E491E00C94AB1C60911D056160E2
:100DB00060931D0587E090E00E94FD3062E070E0E6
:100DC00081E291E00C94AB1C1F920F920FB60F9230
:100DD00011244F925F926F927F928F929F92AF9267
:100DE000BF92CF92DF92EF92FF922F933F934F9358
:100DF0005F936F937F938F939F93AF93BF93CF93A3
:100E0000DF93EF93FF9380911C05882309F4C2C1FF
:100E1000C0918A04D0918B041C161D060CF0BAC137
:100E200040908604509087046090880470908904F4
:100E300020E030E0A901C301B2010E945933181625
:100E40000CF065C0C130D10509F452C08091840412
:100E500090918504BE010E947E357C0190938504AB
:100E6000809384048090120590901305A09014053F
:100E7000B090150520E030E040E85FE3C501B40123
:100E80000E949531609312057093130580931405A9
:100E900090931505F701EE0FFF1FEE0FFF1FEC59A2
:100EA000FB4FA301920160817181828193810E9435
:100EB000063220E030E040E05EE30E945E339B01BA
:100EC000AC01C501B4010E94593318168CF4C70156
:100ED0000196BE010E947E35909385048093840420
:100EE0001092120510921305109214051092150518
:100EF000E0918404F0918504EE0FFF1FEE0FFF1FB9
:100F0000EC59FB4FC080D180E280F380E0C080913B
:100F100020012197882309F4BFC0C0906004D090BD
:100F20006104E0906204F090630420E030E0A901E5
:100F3000C701B6010E940132882309F4A2C0FE0154
:100F4000EE0FFF1FEE0FFF1FEC59FB4F80809180CB
:100F5000A280B380A5019401C701B6010E940132AD
:100F600087FF31C0A501940160E070E08CED93EC47
:100F70000E94063220E030E040E451E40E94063254
:100F800020E030E040E05FE30E945E339B01AC0173
:100F900060E070E080E090E40E94CB339B01AC0104
:100FA000C501B4010E945E339B01AC01C701B601CB
:100FB0000E94013287FF07C0A701960160E070E040
:100FC0008CED93E439C0A5019401C701B6010E94DC
:100FD000593318160CF055C0A501940160E070E07B
:100FE0008CED93E40E94063220E030E040E451E4CE
:100FF0000E94063220E030E040E05FE30E945E3372
:101000009B01AC0160E070E080E090E40E94CB3393
:101010009B01AC01C501B4010E945E339B01AC0190
:10102000C701B6010E94593318165CF5A701960155
:1010300060E070E08CED93EC0E94063220E030E03E
:1010400040E451E40E94063220E030E040E05FE3FB
:101050000E945E339B01AC0160E070E080E090E4B0
:101060000E94CB339B01AC01C701B6010E945E33E5
:1010700060936004709361048093620490936304AE
:101080001EC0CC0FDD1FCC0FDD1FCC59DB4F88817C
:101090009981AA81BB810BC0FE01EE0FFF1FEE0FED
:1010A000FF1FEC59FB4F80819181A281B381809316
:1010B000600490936104A0936204B0936304C090B1
:1010C0006004D0906104E0906204F0906304809129
:1010D0005E0490915F048F3F2FEF920729F00196F5
:1010E00090935F0480935E0480918C04811116C0FC
:1010F0001092200180E090E0A0E0BFE380931C010B
:1011000090931D01A0931E01B0931F0110928604BD
:1011100010928704109288041092890420E034E22F
:1011200044EF51E4C701B6010E94013287FF08C0B5
:1011300046EFC42E48E2D42E44EFE42E41E4F42ED0
:1011400020E030E040E051E4C701B6010E945E3388
:101150009B01AC0160E074E284E79BE40E940632EC
:101160006B017C010E947832709397006093960027
:1011700020911C0130911D0140911E0150911F01D1
:10118000C701B6010E945E330E94783270939900C5
:101190006093980080911B05882309F45AC1C09080
:1011A0000C05D0900D05E0900E05F0900F0520E0A5
:1011B00030E0A901C701B6010E94593318160CF09E
:1011C00052C080915E0490915F048F3F2FEF920791
:1011D00029F0019690935F0480935E0480918C04C3
:1011E000811116C01092200180E090E0A0E0BFE3E2
:1011F00080931C0190931D01A0931E01B0931F01C9
:101200001092860410928704109288041092890428
:1012100020E030E040E051E4C701B6010E945E33B7
:101220009B01AC0160E074E284E79BE40E9406321B
:101230006B017C010E947832709397006093960056
:1012400020911C0130911D0140911E0150911F0100
:10125000C701B6010E945E330E94783270939900F4
:101260006093980008C01092970010929600109218
:1012700099001092980060910605709107056F5FC4
:101280007F4F70930705609306052091960030917B
:10129000970080E090E0232B71F120915D042111F3
:1012A0002AC0C0919600D09197000E94A7326B018E
:1012B0007C01BE0180E090E00E94A7329B01AC015E
:1012C000609108057091090580910A0590910B05C0
:1012D0000E94063220E03FEF4FE757E40E945E3362
:1012E00020E030E040E85FE30E9494319B01AC01D4
:1012F000C701B6010AC00E94A732209108053091AB
:10130000090540910A0550910B050E94593387FD4C
:10131000A0C0809110059091110501969093110540
:1013200080931005209117053091180582179307B7
:10133000B0F080911605882329F0109211051092C3
:1013400010050DC0809171008D7F80937100809198
:1013500090008F738093900010921B0582C02091A3
:101360005D048091100590911105E0911905F091AF
:101370001A0521113FC021E020935D049C012150FA
:101380003109309311052093100533E0880F991F20
:101390003A95E1F7E80FF91FDF011897CD90DD903E
:1013A000ED90FC902081318142815381C701B601CB
:1013B0000E940132811109C010920C0510920D0596
:1013C00010920E0510920F0508C0C0920C05D09225
:1013D0000D05E0920E05F0920F0580E090E0A0E888
:1013E000BFE38093080590930905A0930A05B09385
:1013F0000B052BC010925D0410925F0410925E04E6
:1014000023E0880F991F2A95E1F7E80FF91F8081E3
:101410009181A281B38180930C0590930D05A093D7
:101420000E05B0930F0520E030E040E85EE36481F4
:101430007581868197810E945E3360930805709361
:10144000090580930A0590930B05109207051092E9
:10145000060580911D0580FD04C010921B051092A9
:101460001C05FF91EF91DF91CF91BF91AF919F91BB
:101470008F917F916F915F914F913F912F91FF904D
:10148000EF90DF90CF90BF90AF909F908F907F9024
:101490006F905F904F900F900FBE0F901F90189518
:1014A0000E945023811102C00E945B2387E090E0DC
:1014B0000E94E93080931D0580911E05811129C08D
:1014C0003E9A809171008D7F8093710082E08093BD
:1014D00090008AE18093910081EC91E190939700D4
:1014E0008093960023EA3BE04EE855E460911C01AE
:1014F00070911D0180911E0190911F010E945E3329
:101500000E947832709399006093980081E08093F4
:101510001E0580911D0580FF06C063E070E084E039
:1015200091E00C94AB1C089580911E05811102C0BE
:101530000E94500A10928B0410928A0480917100CC
:101540008D7F80937100809190008F7380939000C5
:1015500010921B0510921C051092600410926104F9
:101560001092620410926304E4E6F4E0ADE4B4E0A7
:1015700011921192119211921D921D9284E0E43801
:10158000F807B1F708958091A50481110C94940A8D
:1015900008950E94C30A1092A50468E070E081E8F3
:1015A00091E00C94AB1C62E070E081E391E00E945A
:1015B000AB1C2FEF81EE94E0215080409040E1F78A
:1015C00000C000000E94940A60911D056E7F609328
:1015D0001D0587E090E00C94FD30CF92DF92EF92F2
:1015E000FF920F931F93CF93DF93682F70E06554A2
:1015F0007109072E000C880B990B0E94A93220E07C
:1016000030E040E451E40E9406329B01AC0160E00E
:1016100070E080E090E40E94CB336B017C0180910C
:101620001C05882309F488C080911E05811102C021
:101630000E94500A20E030E04CED53E4C701B601AF
:101640000E945E336B017C0104E814E0C7E0D0E047
:10165000A7019601F80192918291729162918F0196
:101660000E940132811131C0FE01EE0FFF1FEE0F0B
:10167000FF1FEC59FB4F1082118212821382DE0190
:10168000AA0FBB1FA35BBB4F11961C921E92C730C3
:10169000D105E9F0219644815581668177814083A7
:1016A0005183628373831482158216821782129685
:1016B0008D919C91139711969C938E9313961C92E7
:1016C0001E92129734961296E2CF219708F68091D7
:1016D0008A0490918B04019797FD05C090938B0429
:1016E00080938A0404C010928B0410928A04809123
:1016F0008A0490918B0420918404309185042817EA
:10170000390724F01092850410928404892BA1F4E7
:10171000809171008D7F80937100809190008F7314
:101720008093900010926004109261041092620401
:101730001092630410921C05DF91CF911F910F91BD
:10174000FF90EF90DF90CF900895CF92DF92EF92CD
:10175000FF92682F70E065547109072E000C880B0A
:10176000990B0E94A93220E030E040E451E40E944D
:1017700006329B01AC0160E070E080E090E40E94E2
:10178000CB336B017C0180911E05811102C00E9448
:10179000500A80911D0580FF52C080918A0490916B
:1017A0008B0408970CF04BC0809171008D7F809363
:1017B000710080911B0581110E94940A20E030E0A5
:1017C0004CED53E4C701B6010E945E336B017C010E
:1017D00081E080931C0510925F0410925E0420E06B
:1017E00030E0A901C701B6010E9459331816ECF484
:1017F00080918A0490918B04FC01EE0FFF1FEE0F85
:10180000FF1FEC59FB4FC082D182E282F382FC01C0
:10181000EE0FFF1FE35BFB4F2FE030E031832083AF
:10182000019690938B0480938A048091710082606A
:101830008093710080919000806880939000FF9069
:10184000EF90DF90CF90089580914C04811112C0E9
:101850008091D80080618093D8008AE18A95F1F761
:1018600000C08091D90080FD02C082E001C081E00B
:1018700080934C0481E090914C04913009F080E019
:101880000895F894E82FE295EF70F0E031A1282F49
:101890002F7081E090E001C0880F2A95EAF7982F19
:1018A0009095932391A392A1892B82A37894089574
:1018B000CF93DF930E944F2CEC018238910559F1B0
:1018C000A0F48133910509F473C040F48932910585
:1018D00009F467C08A9709F472C084C08533910502
:1018E00009F458C0C997B9F07DC0833E910571F1E4
:1018F00038F4803E9105B1F0823E910511F172C03D
:10190000863E9105B9F1873E9105C9F1843E910566
:1019100009F068C024C08091C00480FD5DC081FDD5
:101920005BC060C08091C00480FD50C08091C10444
:1019300080FF36C18091C00484FD30C1C3EED0E089
:101940002FC18091C00482FF2BC1F4CF8091C004CD
:1019500082FD3FC08091C10480FD3EC0EBCF8091ED
:10196000C10481FF1DC18091C00484FD17C1C7EE71
:10197000D0E016C18091C00483FF12C1F4CF8091E2
:10198000C00483FD2CC08091C10481FFECCFC4EE64
:10199000D0E006C18091C00485FF02C1C9E2D0E059
:1019A000FFC08091C00485FFFBC0C5E3D0E0F8C054
:1019B0008091C00486FFF4C0CAE2D0E0F1C08091FB
:1019C000C00486FFEDC0C1E3D0E0EAC0C9E3D0E0C7
:1019D000E7C0C2EED0E0E4C0C0EED0E0E1C0C6EEA9
:1019E000D0E0DEC0C11582E5D80708F066C0C11599
:1019F00091E5D90728F0DC2FCC27C16FD06AD0C081
:101A0000C83ED10560F5C03ED10508F0C9C0C83A4E
:101A1000D105B0F4C53AD10540F0C55AD0E0CA5E50
:101A2000DB4FC881D0E0D064BBC0C130D10509F420
:101A3000B7C008F4B3C0C430D10508F4AFC0B0C01B
:101A4000CF3BD10508F0AAC0C85AD0E0CC0FDD1FAB
:101A5000C75EDB4F0990D881C02DD464A1C0C115E9
:101A600020E5D207E0F0CE0174E0969587957A954F
:101A7000E1F783709C2F937021E030E002C0220FC9
:101A8000331F9A95E2F73C68382BCF70C695C69500
:101A900080E2C89FE0011124C22BD32B81C0C11565
:101AA00080E4D80718F0DF70D06A7AC0CE019A952A
:101AB00081159F4108F474C071C0C11586E5D8072F
:101AC000F0F5C11595E5D90750F08C2F0E94EC0375
:101AD0008F71C82FD0E0DC2FCC27D06261C0C11538
:101AE00024E5D20728F0DC2FCC27C46FD06A58C079
:101AF0009E01237033278C2F86958695C115D3457B
:101B000078F4C1E0D0E002C0CC0FDD1F2A95E2F7E7
:101B100020E2829FC0011124C82BD92BDC6840C071
:101B2000C1E0D0E002C0CC0FDD1F2A95E2F720E231
:101B3000829FC0011124C82BD92BDA6831C0C1158E
:101B40002AE5D207E8F4C11589E5D80780F08C2F83
:101B50008F700E94EC0394E0D695C7959A95E1F7B3
:101B6000CF70D0E0DC2FCC27D069C82B19C0C115AD
:101B700098E5D90798F0DC2FCC27C06FD06A10C049
:101B8000CE0190568115904248F48D2F8F710E949E
:101B9000EC03DD27D0628F71D82B02C0C0E0D0E00B
:101BA000CE01DF91CF910895E9EEF4E080818E7F40
:101BB00080830E94922CEFECF4E08281816082832A
:101BC0002FEF80E792E0215080409040E1F700C085
:101BD00000000C942F049091E90490FF3BC0917099
:101BE000811102C0926006C08B3210F0946502C071
:101BF000880F982B9093E9048091D10481608093A1
:101C0000D104662351F06091E9047091EA04809157
:101C1000EB049091EC040E94E4046091E904669561
:101C200070E04BE050E08DE993E00E94AE35892BE7
:101C300019F00E94922C02C00E94992C81E080939E
:101C4000CC0420E04091EC046091EB048091EA0424
:101C50000C94DF0508958091E9048695815009F47C
:101C60008AE261E00C94EB0D8091E90486958F5F28
:101C70008B3208F081E061E00C94EB0D8F929F9223
:101C8000AF92BF92CF92DF92EF92FF920F931F938A
:101C9000CF93DF9309EF13E086EBE82E84E0F82E74
:101CA0009DEF892E93E0992E6701C0E0AA24A394AA
:101CB000B12CB801D8018C91F894E82FE295EF701F
:101CC000F0E021A18F70A50102C0440F551F8A9535
:101CD000E2F7CA01922F982B91A392A180958923B4
:101CE00082A3789450EA5A95F1F7E1E0F4E020E01D
:101CF00030E0D0E04191842F82958F7090E0DC013C
:101D000090968C9190E04F7002C0959587954A957A
:101D1000E2F780FD07C08A2D022E01C0880F0A94C9
:101D2000EAF701C080E0D82B2F5F3F4F2630310506
:101D300009F70F5F1F4FFB0180810E94410CD60104
:101D40008C91D81719F0DC9381E001C080E0C82B9A
:101D5000BFEFCB1ADB0A8016910609F0AACFD0910B
:101D6000BF04CC2349F081E080934A040E94E3221F
:101D7000909349048093480480914A048823B9F0E1
:101D800080914804909149040E94D422069778F0EB
:101D9000ED2FF0E0E452FB4F8AEB94E0D7012D9158
:101DA0007D0121938A179B07C9F710924A040E946C
:101DB000240C8823D1F1D091BE048091D1048823D2
:101DC000E9F085E0E9EEF4E0A8EAB4E001900D92D4
:101DD0008A95E1F78091CF049091D004A091D1042D
:101DE0008093AD049093AE04A093AF0481E090E0A3
:101DF0000E940A30892B11F41092D10480E090E007
:101E00000E940A30892B09F0AAC0ED2FF0E0E452BD
:101E1000FB4F80E090E0DC01AF54BB4F2C9121934D
:101E2000019684309105B9F750C0E091BF040E2FA0
:101E300010E08091B0048830C9F58091AF0480FF34
:101E400012C08091A80480FF0CC08091E9048160D9
:101E50008093E9048091A80460E086950E94EB0DD0
:101E600002C00E94D40D8091AF0481FF09C020E020
:101E70004091AB046091AA048091A9040E94DF05FF
:101E80008091AF0482FF09C08091AE04882319F0CD
:101E90000E94992C02C00E94922C8091AF0483FF73
:101EA00003C081E08093CC041092B004F801E452A6
:101EB000FB4F80E090E02191DC01AF54BB4F2C93AD
:101EC000019684309105B9F75CC010924B04809163
:101ED000A104882309F455C080919D0490919E042B
:101EE000009781F40E94E32290939E0480939D04C6
:101EF00020919F0430E02115310571F48091A004F8
:101F000090E00BC00E94D422209102033091030381
:101F10002817390738F335C0C9010197F901E3578C
:101F2000FB4FD0812091A504222331F0FC01E3571F
:101F3000FB4F80810E94ED0A8091A504882319F04F
:101F40008D2F0E94A50B80919F0490E001966091D7
:101F5000A00470E00E947E3580939F0412C080919F
:101F60004B048F5F80934B04863008F4B0CFE09130
:101F7000BE04F0E0E452FB4F108211821282138201
:101F8000A6CF8C2FDF91CF911F910F91FF90EF90F3
:101F9000DF90CF90BF90AF909F908F9008955F9209
:101FA0006F927F928F929F92AF92BF92CF92DF9269
:101FB000EF92FF920F931F93CF93DF93CDB7DEB7CE
:101FC000A8970FB6F894DEBF0FBECDBFFC0180818D
:101FD000918123813481232B31F09F3F31F491E0B3
:101FE0008F3F19F403C091E001C090E090FDD9C784
:101FF0007F0185E0DE01949601900D928A95E1F7CC
:10200000D70112962C918CA19DA1222349F00E9408
:10201000F823182F682F8CA19DA10E94722403C061
:102020000E944524182F6CA17DA1812F0E944F2C66
:102030008C01F7019281992309F4E2C098012251A1
:102040003F452031310508F008C18FEF93E00E9431
:10205000E9308111DFC0025156EA852E992493940C
:10206000002379F08114F4E09F0609F4D3C0C40181
:102070000E94E930811101C001501FEF811A910ABD
:10208000EFCF19821A821B821C82662463944AE075
:10209000542E84010F5F1F4FC4010E94E9308983D1
:1020A0001A82882309F4B6C09FEF980F933060F42A
:1020B0008A83698222E0820E911CC8010E94E93065
:1020C0008B83811102C0A6C048018E010F5F1F4F94
:1020D000D8012C912223E9F2213009F04FC011964A
:1020E0008C91813049F46801B2E0CB0ED11CF8012B
:1020F00082810E94032E0BC0823059F46801F2E005
:10210000CF0ED11CD80112968C910E94672D8601AA
:1021100074C0833049F46801B2E0CB0ED11CF801E1
:1021200082810E940B2DF3CF843019F00F5F1F4F77
:1021300064C0D80112962C910E5F1F4F80E090E092
:1021400030E0205331092A30310568F4589EA0014F
:10215000599E500D1124C901840F951F0F5F1F4F09
:10216000F8012081EDCF009709F447C0AFE9BFE047
:102170001197F1F700C000000197F5CFE22FF0E0D2
:10218000EB50FD4F7490822F86958695869590E052
:10219000FC01EB51FD4FA4902770B12C022E02C020
:1021A000B594A7940A94E2F7B1E0AB22BB24FC01FA
:1021B000EB52FD4FC490D12C02C0D594C7942A9500
:1021C000E2F7E1E0CE22DD24A114B10419F081EEA2
:1021D0000E94672DC114D10419F086EE0E94672D6C
:1021E000872D0E94032ECD2819F086EE0E940B2D1C
:1021F000AB2819F081EE0E940B2D0F5F1F4F68CFA7
:102200000031FFE51F0709F042C681E00E94BC24AF
:102210000E948D1C80918105877009F4C2C6D70188
:1022200012968C91882309F4BCC682E0A8960FB65A
:10223000F894DEBF0FBECDBFDF91CF911F910F91FC
:10224000FF90EF90DF90CF90BF90AF909F908F90D6
:102250007F906F905F900C94E1240031BFE51B07E5
:1022600011F481E005C00131EFE51E0721F482E0A1
:102270000E94FA24CDCF0D31FCE51F0731F49923DC
:1022800009F44EC00E94D506C5CF0E31FCE51F07EC
:1022900031F4992309F444C00E94D30ABBCF0F3113
:1022A0002CE5120739F49923D9F180911D0580FDA1
:1022B000F3CFE8CF0A323CE5130749F4992381F1C3
:1022C00010928C0464E070E081E092E024C00B3254
:1022D0005CE5150799F306322CE51207F9F0073291
:1022E0008CE5180709F4F2C00832ACE51A0709F4C6
:1022F000E3C00C32BCE51B0709F4EEC00D32ECE57F
:102300001E0709F0EFC0992359F01092A40468E069
:1023100070E081E292E00E94AB1C7CCF9111D3C0AF
:102320004091A504411105C08091A404882309F4BB
:1023300003C1992309F44BC0003E110561F40E94CA
:10234000C30A81E08093A3041092A2041092A10416
:102350001092A0045FCF023E110571F40E94C30ADF
:102360008091A304882319F081E08093A204109245
:10237000A3041092A1044ECF033E110591F4809165
:10238000A204882321F10E94C30A1092A30481E0D1
:102390008093A10410929F0410929E0410929D04B9
:1023A00039CF0235110531F4809102039091030376
:1023B0000A9708C00135110551F4809102039091EC
:1023C00003030A96909303038093020323CF809123
:1023D000010381110DC0D70111968C91119728E04E
:1023E00030E0281B31098C91805FD82EBCE01DC0E5
:1023F000813069F4F701818128E030E0281B310940
:10240000D22EDD0CDD0CD20E80818D5C31C082308D
:1024100081F4D70111968C91119728E030E0281BA8
:1024200031098C918D5CD82EB7E02B9FD00C1124F4
:1024300023C08330F9F483E2EBEAF3E0DE01119686
:1024400001900D928A95E1F7F7018081FE01E80F76
:10245000F11DD70111968C9128E030E0281B31093D
:10246000D0848D2DBCE02B9F800D112439E0D32E1C
:10247000D80E02C02CE0D22E9923A1F0442319F0EB
:102480008D2D0E94A50B8091A304882381F080915B
:10249000A004E82FF0E0E357FB4FD0828F5F8093DA
:1024A000A00405C0442319F08D2D0E94ED0A0F3FB2
:1024B000110508F041C0AECE992309F431CF8091C7
:1024C000A504811106C00E94CC06A4CE992309F46C
:1024D00027CF0E94C90A9ECE992309F421CF0E94DA
:1024E000C30698CE0E32FCE51F0741F4992309F488
:1024F00017CF8091A404811108CFF1CF09322CE5C8
:10250000120709F00DCF992309F40ACF0E94C30ADC
:102510002091010330E02F5F3F4F2370332720933A
:10252000010348E2429FC001439F900D112465E0E2
:1025300070E08F599D4FEFCE043F3CE5130799F4AF
:1025400006E221EE40EE64EF7CE509C0083DACE513
:102550001A0711F506E221EE41EE68ED7CE5C701B0
:102560000E94722B57CE053F5CE5150708F069C144
:10257000093D8CE5180731F407E225EE45EE69EDDB
:102580007CE5EDCF0A3D9CE5190701F708E221E063
:1025900045EE6AED7CE5E3CFF7019281992309F4DA
:1025A00085C11092A6040230FCE51F0708F468C13B
:1025B00006312CE5120738F098012B5F3C45293095
:1025C000310508F05DC10E943F239093C1048093C0
:1025D000C00400313CE5130709F4CAC008F042C04A
:1025E00008308CE5180709F4A0C0F0F40430ACE51D
:1025F0001A0709F486C068F40230ECE51E0709F4F6
:102600007CC003301C4509F00CC18091C00482607D
:102610007BC006302CE5120709F47FC008F081C0AA
:102620008091C004886070C00C305CE5150709F427
:102630008BC068F40A309CE5190709F47AC008F0E9
:102640007FC00E94EB2C8091C00480685DC00E307A
:10265000BCE51B0709F47CC008F086C08091C0046B
:102660008B7F52C00C3FFCE51F0709F450C020F5DA
:1026700003313CE5130709F483C078F401318CE59C
:10268000180709F479C002311C4509F0CAC00E943C
:10269000EB2C8091C0048F7737C00531ACE51A0769
:1026A00009F47CC008F4ACC00B3F1C4509F0B9C06C
:1026B0008091C10481602EC00115FDE51F0709F45A
:1026C00066C070F40E3F3CE5130709F449C008F4F6
:1026D00043C08091C104826081608093C10484C042
:1026E00002308DE5180709F497C008F470C0033074
:1026F0001D4509F096C060E090C08091C0048160E3
:1027000003C08091C00484608093C0048AC080911B
:10271000C10482608093C10484C08091C004806140
:10272000F3CF8091C0048062EFCF8091C0048064B9
:10273000EBCF8091C004886084608093C0043DC06A
:102740008091C0048E7FE0CF8091C0048D7FDCCF6C
:102750008091C004877FD8CF8091C1048E7FDACF6B
:102760008091C1048D7FD6CF8091C0048F7ECCCF65
:102770008091C0048F7DC8CF8091C0048F7BC4CF6F
:102780008091C004877F8B7F8093C0041BC08091A1
:10279000C1048D7F8E7F8093C1042BC08091C004C3
:1027A00082FB222720F991E0922790FB82F990FB8F
:1027B00083F98093C004992329F064E070E084E4F5
:1027C00093E01BC062E070E084E193E016C080916A
:1027D000C104982F909591708E7F892B90FB81F981
:1027E0008093C104992329F064E070E084E293E0CF
:1027F00004C062E070E084E093E00E94AB1C11C072
:102800000E94EB2C8091C00487FB222720F991E0E5
:10281000922790FB87F978CF61E08EE090E00E94EC
:10282000FD306091C0041091C10484E090E00E94EA
:10283000FD30612F81E290E00E94FD300E94EB2C80
:10284000E9CC063FBCE51B0731F406E221EE42EE7F
:1028500066EF7CE584CE063FECE51E0730F407E228
:1028600025EE44EE65EF7CE57ACE073FFCE51F07D9
:1028700009F092CE07E225EE46EE67EF7CE56FCEDB
:1028800006312CE5120719F5809184058A7A91E0CA
:1028900009F490E09093A704882311F065E301C048
:1028A00069E283E295E00E9425230EC006313CE5F3
:1028B0001307A9F58091A704882309F4EFC265E303
:1028C00083E295E00E9418230E94CB23A3CC01153C
:1028D0002CE5120731F00F3D1C4559F50E945B2392
:1028E00099CC0E94EB2C0E94C30A0E94E3228C0127
:1028F00063E070E084E693E00E94AB1CC8010E9494
:10290000D4228A3F910538F48FE99FE00197F1F7CF
:1029100000C00000F3CF0E94940A0E948A22809196
:1029200084058272F801E35CFC45E431F10508F4AA
:10293000B7C2D7010D911C91992349F0C8010E949B
:10294000F823D82E682FC8010E94722404C0C80141
:102950000E944524D82EB8018D2D0E94580C8C0160
:10296000982EF701A580A2949FE0A922D280D110D1
:102970001092830580918105877099F0DD2089F0A0
:10298000812F807F803421F080E2800F883048F0F2
:1029900082E00E94E124809181058770CC24C39459
:1029A0008111C12CB12EB2948FE0B8228B2D90E012
:1029B0008C30910508F038C2FC01EA5AFF4F0C94A4
:1029C0009235812F807F1F70882311F01295107F20
:1029D000DD20B9F0112309F412C280E2800F8830A3
:1029E00010F0911006C080918405182B1093840577
:1029F00005C080918305182B109383050E94CB237B
:102A0000FEC1802F0E940B2D112309F40DC2005E20
:102A10001095083010F0911006C08091840518239D
:102A20001093840505C080918305182310938305B6
:102A30000E94CB23F9C1812F807F1F70803211F05B
:102A40001295107F992021F0F1E09F16E1F02AC045
:102A5000DD2081F080918505AA2051F001E0A012CF
:102A600007C0182B181709F4DFC110938505DCC1C6
:102A7000812B10C0AA2021F021E0A21609F4D4C1B4
:102A80000E94C5232AC0DD2041F035E03A1508F444
:102A9000CBC1812F0E94012DC7C154E05A1508F403
:102AA000C3C11BC0DD2061F0AA2099F3D7011596A0
:102AB0008C91159780FFA3C18F7015968C93E9CFE9
:102AC000AA2059F0093309F0ACC1BFEFE7EEF3E0FB
:102AD000B150E040F040E1F7A2C1812F0E94F62CF6
:102AE000A3C1812F86958695837019F0813059F0A6
:102AF0009BC1DD2019F0C801937002C080E090E016
:102B00000E94502B97C1DD2019F0C801937002C0BC
:102B100080E090E00E943A2B8DC1812F837009F0F4
:102B200069C0D11085C1902F929596959770990F95
:102B3000990F802F8F70882E912CA12CB12C092EEB
:102B400004C0880C991CAA1CBB1C0A94D2F704FF71
:102B500012C04FE050E060E070E004C0440F551F29
:102B6000661F771F9A95D2F7DB01CA018095909571
:102B7000A095B09503C080E090E0DC011695169515
:102B8000412F4370423019F1C8F40091860510912D
:102B900087052091880530918905413059F08829B1
:102BA0009929AA29BB29BC01CD0160237123822365
:102BB00093230AC0802A912AA22AB32ABC01CD01FC
:102BC000682979298A299B290E941B2531C18829D6
:102BD0009929AA29BB290091860510918705209182
:102BE000880530918905BC01CD01602771278227B6
:102BF0009327EACFDD2019F0812F817001C08695DF
:102C0000882309F415C1902F929596959770990F86
:102C1000990F802F8F70882E912CA12CB12C092E0A
:102C200004C0880C991CAA1CBB1C0A94D2F704FF90
:102C300012C04FE050E060E070E004C0440F551F48
:102C4000661F771F9A95D2F7DB01CA018095909590
:102C5000A095B09503C080E090E0DC011695169534
:102C6000412F43704230D9F068F500911F05109153
:102C700020052091210530912205413059F0882905
:102C80009929AA29BB29BC01CD0160237123822384
:102C900093231EC0802A912AA22AB32A13C088290E
:102CA0009929AA29BB2900911F051091200520917F
:102CB000210530912205BC01CD01602771278227B3
:102CC000932706C0BC01CD01682979298A299B294F
:102CD0000E949E24ADC01F70DD2039F0812F0E941C
:102CE000FA24802F0E94012DA3C0802F0E94F62C71
:102CF000812F0E94BC249CC0802F22EF921609F4E1
:102D000040C0291538F030EF931661F051EF951659
:102D100099F170C093EF9916D9F1A4EF9A1609F4BE
:102D20004EC068C0DD2019F1B4E0BA1508F47CC0CB
:102D30001F7181E090E0A0E0B0E0AC01BD0104C0F3
:102D4000440F551F661F771F1A95D2F780911F05F4
:102D500090912005A0912105B09122058A019B0147
:102D6000082719272A273B27C901B80125C025E0D4
:102D70002A1508F459C0DCCFDD2029F0812F8F718E
:102D80002CC0DD20D9F3812F8F710E94BC244CC050
:102D9000DD2079F01F7181E090E0A0E0B0E0BC019F
:102DA000CD0104C0660F771F881F991F1A95D2F7AF
:102DB00003C060E070E0CB010E949E2435C0DD209E
:102DC00079F01F71812F0E94FA2438E0139FC0010F
:102DD0001124836080938105812F0E94FA2424C0EE
:102DE00081E00E94E12451E05A15F0F482E00E9453
:102DF000E1241AC0DD2039F0AA2009F4BFCF802FCA
:102E00000E94672D11C0AA2009F4BDCF893349F46F
:102E10008FEF97EEA3E081509040A040E1F700C013
:102E20000000802F0E940B2D88EF8B0D843010F452
:102E30000E94662BCC2009F4B4C08091810580FDEE
:102E4000B0C0F70112828595859585950E94FA2478
:102E5000C7010E94CF0F8091810585958595859545
:102E6000A8960FB6F894DEBF0FBECDBFDF91CF910D
:102E70001F910F91FF90EF90DF90CF90BF90AF9098
:102E80009F908F907F906F905F900C94BC24013145
:102E90002FE5120709F0EFC982E0B8C969E210CD49
:102EA000EE59FF4F0C9492358091E90480FF20C0C9
:102EB0008E7F8093E9046091E9047091EA04809127
:102EC000EB049091EC040E94E4040E94922C809107
:102ED000D10481608093D104BFEFE0E7F2E0B1500C
:102EE000E040F040E1F700C000000E942F0492C9CA
:102EF00081608093E90461E0869550C04BE25EE01A
:102F000064E37EE02CC044E35EE06BE27EE027C039
:102F100041EB56E06AEB76E022C04AEB56E061EB0B
:102F200076E01DC049E956E065EA76E018C045EA5A
:102F300056E069E976E013C041E856E06DE876E0D6
:102F40000EC04DE856E061E876E009C046EF54E077
:102F500067E075E004C047E055E066EF74E00E946A
:102F60008C2C58C961E081E019C065E082E011C095
:102F700068E086E00EC06EE089E00BC064E18FE09F
:102F800008C067E185E105C061E088E107C062E251
:102F900089E10E947A2C3EC961E083E20E94EB0D38
:102FA00039C9A8960FB6F894DEBF0FBECDBFDF912A
:102FB000CF911F910F91FF90EF90DF90CF90BF9036
:102FC000AF909F908F907F906F905F900895CF9378
:102FD000DF93CDB7DEB7AA970FB6F894DEBF0FBE6A
:102FE000CDBF84B7877F84BF0FB6F894A895809132
:102FF0006000886180936000109260000FBE90E0D6
:1030000080E80FB6F89480936100909361000FBE42
:1030100085B7806885BF85B7806885BF0E943120ED
:103020000E9450208091E20084608093E2007894B6
:10303000809105058823A1F01091E9001F709091FF
:10304000EC00892F817090FD80E8182B1092E90028
:103050008091E80083FD0E940F1D1F701093E9000E
:1030600082E084BD93E095BD9AEF97BD80936E009A
:103070000E94240C8093910380919103882321F076
:1030800010927C0386E003C086E080937C038093EB
:103090007D030E94240C882331F062E070E081E817
:1030A00093E00E94282F80919103809191038823BF
:1030B00011F090E001C094E09093BF0484E0891B7C
:1030C0008093BE0484E90E94410C87E90E94410C70
:1030D00086EC0E94410C84E30E94410C01E014E064
:1030E000B7E0EB2EB4E0FB2EF80181918F010E9436
:1030F000410CE016F106C1F7E6EBF4E08EEB94E04C
:10310000ACEDB4E011921D928E179F07D9F70E9483
:103110003E0E8FE39CE90197F1F700C000000E948A
:103120003E0E8091DC0480FF0AC080E00E945C2C8F
:103130006FEF7FEF80E090E00E941B31BAC30E94E6
:103140005023811102C00E945B230E94500A0E94FA
:10315000240C811106C062E070E081E893E00E94D7
:10316000312F82E290E00E94E930803281F483E2E4
:1031700090E00E94E930823151F484E290E00E94B4
:10318000E93091E0843009F090E0892F01C080E0BF
:1031900080FFB6C30E945023811102C00E945B23AE
:1031A00082E090E00E94E9308093D3040E943F23A4
:1031B0009093C1048093C00483E090E00E94E930C2
:1031C000682F70E080E090E00E941B258091C2048F
:1031D000811138C00E945023811104C00E945B23DA
:1031E0000E94180588E090E00E94F1306093E904A5
:1031F0007093EA048093EB049093EC048091D104E3
:1032000083608093D1046E7F71F40E94180588E07A
:1032100090E00E94F1306093E9047093EA04809397
:10322000EB049093EC040E94D1040E94922C8091B4
:10323000E90480FF04C060E086950E94EB0D81E008
:103240008093C20482E993E09093C4048093C30402
:10325000FE0131966F013E01FBE06F0E711CA8E785
:10326000AA2EA3E0BA2E80910505853009F04BC047
:1032700080910505843009F434C01092C50420E41F
:1032800088E190E00FB6F894A895809360000FBE97
:10329000209360000E94922C8091EF0481110AC05B
:1032A00081E08093EF048091E90481708093EE04C3
:1032B0000E94D40D83B7817F846083BF83B7816010
:1032C00083BF7894889583B78E7F83BF0FB6F894B9
:1032D000A8958091600088618093600010926000E2
:1032E0000FBE8091FB04882309F4BDCF0E943E0EDF
:1032F00084EE94E0ECEDF4E021912111E2C28E170E
:103300009F07D1F7B0CF0E943E0E0E94240C882365
:10331000A1F1A4EDB4E0ECEDF4E000E010E0302F1A
:1033200021919D91922721F180E0FF24F394492F70
:103330004F21D1F089A33AA32F2181E009F480E045
:103340008BA30E94E3228160782F9DA38CA349A1C7
:103350005AA16BA18DA10E949E2AF801EC52FB4F4D
:103360008081F826F08219C08F5FFF0C8630F9F655
:103370000F5F1F4F0830110591F68FEF8EA38FA3BB
:1033800018A60E94E3228160782F9AA789A74EA1F0
:103390005FA168A58AA50E949E2A8091D0048823F7
:1033A00009F4D4C08091CF04E091E904E695E81BCC
:1033B000E093CB04823059F4F0E0EA57FC4FE491FB
:1033C0000E2F10E0FAE8EF2EFAE2FF2E6AC08630E8
:1033D00059F4F0E0ED57FC4FE4910E2F10E0EAE7CE
:1033E000EE2EEAE2FE2E5DC0893061F4E695F0E053
:1033F000E058FC4FE4910E2F10E07FEFE72E79E2CA
:10340000F72E4FC08F3061F4E695F0E0E358FC4FA3
:10341000E4910E2F10E062E6E62E69E2F62E41C03E
:10342000853159F4F0E0E658FC4FE4910E2F10E09E
:103430005CEDE52E58E2F52E34C08831F1F0833290
:1034400041F4F501059114914AE3E42E4AE2F42E89
:1034500028C08432C9F08532F1F48E2F63E00E94D7
:103460005035E92FF0E0EB58FC4FE4910E2F10E0BF
:103470003BE4E32E37E2F32E14C008E210E029E427
:10348000E22E28E2F22E0DC004EF11E09AE0E92EC0
:1034900098E2F92E06C000ED17E08AE4E82E87E2F4
:1034A000F82E8091CC04882389F01092CC040E94DD
:1034B000E322980120953095820F931F9093CA04C0
:1034C0008093C9041092CE041092CD048091C90457
:1034D0009091CA040E94D42280179107B8F180917C
:1034E000C8048823B1F01092C8048091C60490915A
:1034F000C7040E94D4228033954758F00E94E322EB
:103500009093C7048093C6048091D104886080930F
:10351000D1048090CD049090CE04E091C904F09144
:10352000CA040E0F1F1F1093CA040093C90489EC2C
:1035300094E0F70109958091CD049091CE04892BF8
:1035400029F4892819F081E08093C8040E94662B31
:103550009091D204891721F00E94662B8093D204A7
:1035600080910505843009F07ECE83E08093E900E8
:103570008091E80082FF77CE8091E80085FF21C02E
:103580000E949B2181111BC000E210E0CE01019638
:103590007C0108C08091F100F70181937F01015007
:1035A000110969F08091E80085FDF4CF8091E80071
:1035B0008B778093E8000E949B21882399F391E008
:1035C00001C090E08091E8008B778093E800992318
:1035D00009F449CEE9818E2F90E0FC013197E33167
:1035E000F10508F068C1EA58FF4F0C9492351A8231
:1035F00089E0A7C08A81823009F479C1833089F0DB
:10360000813009F058C12FB7F8948091E40490916B
:10361000E504A091E604B091E7042FBFBB83AC831F
:103620001CC0FE013396ACEDB4E08D918193E6159C
:10363000F705D9F742C18A81823009F03CC16B811C
:103640007C818D819E810E94983585E290E024C026
:103650004C816B818A810E94292C9D834FC1ED8012
:10366000FE80FE24EF24FE248C810B819A81FCE0F5
:103670000F9F8001112420E6929F000D111D11243F
:10368000080F111D080F111D6F2DC80186960E948D
:10369000FD306E2DC80187960E94FD300EC10E943C
:1036A000F52B0BC18A818138B1F050F4803809F0D4
:1036B00004C120E04B816091EB048091EA0423C0B7
:1036C0008238E9F0833809F0F8C020E04091EC043A
:1036D0006C818B8118C060E08B810E94EB0D8B8127
:1036E000811103C00E94D40DE8C08091E90481607B
:1036F0008093E90460E086950E94EB0DDEC08B812B
:103700008093ED04DAC00E94DF05D7C08A8181383A
:1037100099F030F4803809F0D0C08091EC0411C0E9
:10372000823899F0833809F0C8C08091EA048B830D
:103730008091EB048C83C1C08091E90480FF03C0B9
:1037400086958B83BAC080E0FCCF8091ED04F9CFE1
:103750006091E9047091EA048091EB049091EC048B
:103760000E94E404AAC080E14BC082E08A838AE51B
:10377000E8CF0A811B811027012710278C80912C0C
:103780007601C8018A559E4F97012C193D092815CD
:10379000390508F092C00A35E2E01E0728F40E94BD
:1037A000E930F701848302C0F70114820F5F1F4FD5
:1037B000FFEFEF1AFF0AE5CF0A811B8110270127CF
:1037C00010278C80912C7601C8018A559E4F970155
:1037D0002C193D092815390508F06FC00A3522E07B
:1037E000120720F4F70164810E94FD300F5F1F4F24
:1037F000FFEFEF1AFF0AE8CF0E94E52B5EC084E0DE
:103800008A835BC00A811B811027012710278C80C7
:10381000912C7601C801869697012C193D0928152F
:10382000390508F04AC0003821E0120728F40E9448
:10383000E930F701848302C0F70114820F5F1F4F44
:10384000FFEFEF1AFF0AE6CF0A811B81102701273D
:1038500010278C80912C7601C801869697012C192F
:103860003D092815390548F5003821E0120720F4F4
:10387000F70164810E94FD300F5F1F4FFFEFEF1AC9
:10388000FF0AEACF80E00E945C2C6FEF7FEF80E0C0
:1038900090E00E941B3111C0CE0101960E94FA21D6
:1038A0002FEF81EE94E0215080409040E1F700C07E
:1038B00000000E948A228FEF8983C6010E94FA21AC
:1038C000D2CC80E189BD82E189BD09B400FEFDCF83
:1038D0008091D8008F7D8093D8008091E000826035
:1038E0008093E0008091E00081FDFCCFBCCC85E2BC
:1038F00090E00E94E9301B821C821D828E83DDCF06
:1039000060E085E290E00E94FD300E94F52B0E946D
:10391000E52B81E00E945C2C3DCC0F931F9380919E
:103920001F0590912005A0912105B09122058C01E1
:103930009D010670112722273327BC01CD010630D7
:1039400011052105310511F4686001C0677F1F91E1
:103950000F910C949E240F931F93CF93DF93EC0150
:103960008B0180911E05811102C00E94500A809136
:103970001D0580FF4FC0809171008D7F8093710085
:1039800080911C0581110E94940A81E080931B059F
:10399000D0931A05C09319051093180500931705C5
:1039A000109216051092120510921305109214052C
:1039B00010921505109211051092100588819981B9
:1039C000AA81BB8180930C0590930D05A0930E05F1
:1039D000B0930F0520E030E040E85EE36C817D812C
:1039E0008E819F810E945E33609308057093090564
:1039F00080930A0590930B05109207051092060517
:103A00008091710082608093710080919000806845
:103A100080939000DF91CF911F910F9108951F9394
:103A2000CF93DF93CDB7DEB7AA970FB6F894DEBF7A
:103A30000FBECDBFEDEFF4E08091F100819345E042
:103A4000E530F407C9F78091FE04833009F462C0C1
:103A500030F4813071F0823009F49CC0B3C08A30F8
:103A600009F488C08B3009F46DC0893009F0AAC010
:103A700020C08091FD04813A09F0A4C08091E80043
:103A8000877F8093E8008091010590910205892B42
:103A900021F468E082EF94E003C060E080E090E011
:103AA00070E00E946A2E8091E8008B778093E80096
:103AB00089C08091FD04813209F084C080910105A4
:103AC00090910205009719F0029709F07BC0809150
:103AD000E800877F8093E8008091E80082FD05C0C0
:103AE000809105058111F8CF6DC02091F300809180
:103AF000F20090E0922B029729F48091F1008B7FE5
:103B0000813021F48091F1008093F1048091E800EC
:103B10008B7754C08091FD04813A09F053C08091A5
:103B2000010590910205892B09F04CC08091E800B5
:103B3000877F8093E8008091E80080FFFCCF809130
:103B40009C0337C08091FD048132E1F5809101052D
:103B500090910205892BB1F58091E800877F8093D1
:103B6000E8000E94162E8091FF0480939C030E941F
:103B7000EB2C28C08091FD04813221F58091E80072
:103B8000877F8093E8000E94162E80910005809325
:103B9000F00418C08091FD04813AA1F48091E800FE
:103BA000877F8093E8008091E80080FFFCCF8091C0
:103BB000F0048093F1008091E8008E778093E80014
:103BC0000E94162E8091E80083FFE9C18091FD04D8
:103BD0009091FE04492F50E04A30510508F0DFC1B2
:103BE000FA01E757FF4F0C949235803821F0823864
:103BF00009F0D5C108C08091FA049091FB04992383
:103C000089F082600FC0809101058F70873008F0C5
:103C1000C6C18093E9008091EB0085FB882780F97D
:103C20001092E9009091E800977F9093E8008093CC
:103C3000F1001092F1007CC1282F2D7F09F0AFC157
:103C4000882319F0823061F0AAC18091FF0481308D
:103C500009F0A5C1933009F080E08093FB042EC0E9
:103C60008091FF0481112AC0809101058F702FEF90
:103C7000280F263008F093C18093E9002091EB00D3
:103C800020FF1CC0933021F48091EB00806214C0AF
:103C90009091EB0090619093EB0021E030E0A9015E
:103CA00002C0440F551F8A95E2F74093EA00109234
:103CB000EA008091EB0088608093EB001092E900AD
:103CC0008091E800877F8093E8000E94162E67C1EC
:103CD000811165C11091FF041F778091E300807806
:103CE000812B8093E3008091E800877F8093E80038
:103CF0000E94162E8091E80080FFFCCF8091E300A7
:103D000080688093E300111102C082E001C083E06B
:103D10008093050544C18058823008F040C120914D
:103D2000FF04309100052C3D53E0350779F583E021
:103D30008A838AE289834FB7F894DE01139620E0E4
:103D40003EE051E2E32FF0E050935700E49120FF72
:103D500003C0E295EF703F5FEF708E2F90E0EA3086
:103D600010F0C79601C0C0968D939D932F5F2431AC
:103D700049F74FBF8091E800877F8093E8006AE2AF
:103D800070E0CE0101960E946A2EC0C080910105AC
:103D900090910205432F552743305105B1F068F447
:103DA0004130510509F40AC14230510509F0F7C00C
:103DB0008BE590E0EEE1F4E057C04132510589F126
:103DC0004232510509F43CC0EAC0C901992781304B
:103DD0009105B9F070F082309105D9F0039709F0A0
:103DE000DEC0EBE8F4E0E4918E2F90E0EBE8F4E045
:103DF00038C0E1ECF4E0E4918E2F90E0E1ECF4E0E7
:103E000030C0EDEAF4E0E4918E2F90E0EDEAF4E0CA
:103E100028C0E1E9F4E0E4918E2F90E0E1E9F4E0DC
:103E200020C08330910508F0BAC0880F991FFC01AB
:103E3000E05FFB4F0190F081E02D89E090E014C03D
:103E40008330910508F0ABC0FC01EE0FFF1FE65F69
:103E5000FB4F0190F081E02DDC01A95FBB4F8C91FD
:103E600090E0009709F49BC02091E800277F209301
:103E7000E80020910305309104052817390708F45C
:103E8000C90140E0009789F120910505222309F43A
:103E90003DC02530D9F12091E80023FD37C02091A5
:103EA000E80022FD2FC02091E80020FFEBCF4091D9
:103EB000F3002091F20030E0342B009759F02830C5
:103EC000310540F444914093F100319601972F5F02
:103ED0003F4FF3CF41E02830310509F040E0209119
:103EE000E8002E772093E800CDCF4111CDCF0AC056
:103EF00080910505882351F0853041F08091E800DC
:103F000083FD04C08091E80082FFF2CF8091E80039
:103F10008B778093E80043C0803809F040C08091DF
:103F2000E800877F8093E8008091FC048093F10093
:103F30008091E8008E77C7CE811131C08091FF0457
:103F4000909100059927029754F58091E800877FAA
:103F50008093E8001091FF041093FC040E94162E39
:103F6000111106C08091E30087FD02C081E001C00D
:103F700084E08093050542E061EC81E00E94352EEB
:103F800042E261EC84E00E94352E42E261EC82E084
:103F90000E94352E42E260EC83E00E94352E809133
:103FA000E80083FF10C08091E800877F8093E800DD
:103FB0008091EB0080628093EB0005C082E190E08D
:103FC000E9E7F4E051CFAA960FB6F894DEBF0FBE32
:103FD000CDBFDF91CF911F9108951F920F920FB621
:103FE0000F9211242F933F934F935F936F937F937F
:103FF0008F939F93AF93BF93CF93DF93EF93FF93F1
:10400000C091E900CF708091EC00D82FD17080FD75
:10401000D0E81092E9008091F000877F8093F00053
:1040200078940E940F1D1092E9008091F000886042
:104030008093F000CD2BCF70C093E900FF91EF91FA
:10404000DF91CF91BF91AF919F918F917F916F91B0
:104050005F914F913F912F910F900FBE0F901F9046
:104060001895E8EDF0E080818E7F80831092E20069
:104070001092DA001092E100A0EEB0E08C91816025
:104080008C9380818F77808319BCA7EDB0E08C91F1
:104090008E7F8C9380818F7E80831092E8040895B8
:1040A000CF92DF92EF92FF920F931F93CF93DF9304
:1040B000C8EDD0E088818F7E8883E7EDF0E08081D5
:1040C0008160808384E082BF81E08093E8048881FE
:1040D0008E7F888302EE10E0F80110821092DA00E1
:1040E00081EEC82ED12CF601108288818F778883CB
:1040F00088818068888388818F7D888319BC10922D
:1041000005051092FC041092FB041092FA0490EE44
:10411000E92EF12CF70180818B7F8083888181607B
:10412000888342E060E080E00E94352EF6018081C5
:104130008E7F8083F80180818160808380818860A8
:104140008083F70180818E7F80838881806188836E
:10415000DF91CF911F910F91FF90EF90DF90CF9063
:1041600008951F920F920FB60F9211242F933F9331
:104170004F935F936F937F938F939F93AF93BF936F
:10418000EF93FF938091E10082FF09C08091E200EC
:1041900082FF05C08091E1008B7F8093E1008091D8
:1041A000DA0080FF2AC08091D80080FF26C080916D
:1041B000DA008E7F8093DA008091D90080FF18C0EA
:1041C00080E189BD82E189BD09B400FEFDCF81E0B7
:1041D000809305058091E80481110FC00E94312071
:1041E0000E9450208091E20084608093E20005C02C
:1041F00019BC109205051092E8048091E10080FF3F
:1042000017C08091E20080FF13C08091E2008E7F92
:104210008093E2008091E20080618093E2008091CF
:10422000D80080628093D80019BC85E08093050592
:104230008091E10084FF43C08091E20084FF3FC091
:1042400080E189BD82E189BD09B400FEFDCF809186
:10425000D8008F7D8093D8008091E1008F7E80937D
:10426000E1008091E2008F7E8093E2008091E20085
:1042700081608093E2008091FC04882311F084E047
:1042800007C08091E30087FD02C081E001C083E0A8
:10429000809305050E94EB2C0E94662B1092EF0480
:1042A0008091EE04882349F08091E9048160809335
:1042B000E90460E086950E94EB0D0E94992C8091A4
:1042C000E10083FF27C08091E20083FF23C080913B
:1042D000E100877F8093E10082E0809305051092E2
:1042E000FC048091E1008E7F8093E1008091E200E8
:1042F0008E7F8093E2008091E20080618093E200F3
:1043000042E060E080E00E94352E8091F0008860FD
:104310008093F000FF91EF91BF91AF919F918F91AA
:104320007F916F915F914F913F912F910F900FBEB1
:104330000F901F9018952091E4003091E50095E6CC
:104340004091EC00842F817040FF23C08091E800F1
:1043500080FD1DC080910505882399F0853099F076
:104360008091EB0085FD11C04091E4005091E50083
:104370002417350729F3915011F09A01E1CF84E019
:10438000089582E0089583E0089581E0089580E033
:1043900008954091E80042FFDDCF0895EF92FF922B
:1043A0000F931F93CF93DF937C018B010E949B217E
:1043B000811119C0E70101151105A1F08091E800F4
:1043C00085FD0AC08091E8008E778093E8000E9406
:1043D0009B21882381F307C089918093F1000150CC
:1043E0001109E9CF80E0DF91CF911F910F91FF90EC
:1043F000EF900895CF93209105052430F9F4C091F2
:10440000E900CF703091EC00232F217030FD20E8BF
:10441000C22B22E02093E9002091E80020FF0BC08E
:1044200040E050E060E270E00E94CE218091E80020
:104430008E778093E800CF70C093E900CF91089504
:1044400008958091F1040895CF93DF9300D01F92D7
:10445000CDB7DEB790910505943011F589837B8344
:104460006A839093E9008FEF9091E800815095FD69
:1044700006C095ED9A95F1F700008111F5CF809176
:10448000E80085FF0DC040E050E063E070E0CE0141
:1044900001960E94CE218091E8008E778093E800FB
:1044A0000F900F900F90DF91CF910895BC0184E0A1
:1044B0000C942422BC0183E00C942422CF93DF933C
:1044C00021E02093E9002FEF3091E800215035FDE5
:1044D00006C035ED3A95F1F700002111F5CF209196
:1044E000E80025FF14C0EC0140E050E068E070E017
:1044F0000E94CE218091E8008E778093E80088E0CA
:10450000FE01A2EFB4E001900D928A95E1F7DF91F0
:10451000CF91089581E08093E00080E28093D800FD
:104520001092C9008FE19EE40197F1F700C00000EE
:1045300087E090EBDC018093F6059093F705A0935C
:10454000F805B093F9059CE088E10FB6F894A895BA
:10455000809360000FBE90936000FFCF78941F920D
:104560000F920FB60F9211248F939F93AF93BF9327
:104570008091E4049091E504A091E604B091E704F1
:104580000196A11DB11D8093E4049093E504A093CE
:10459000E604B093E704BF91AF919F918F910F9084
:1045A0000FBE0F901F9018959C014FB7F894809103
:1045B000E4049091E504A091E604B091E7044FBFB4
:1045C000821B930B08952FB7F8948091E404909187
:1045D000E504A091E604B091E7042FBF08951F926F
:1045E0000F920FB60F9211248F939F93AF93BF93A7
:1045F0008091C504811113C08091E4049091E50479
:10460000A091E604B091E7044196A11DB11D8093ED
:10461000E4049093E504A093E604B093E704BF910B
:10462000AF919F918F910F900FBE0F901F90189593
:104630009C012A5F3F4FFC014281461301C0128258
:10464000019682179307B9F708959C01FC013296F1
:104650009FEF80E04191461789F09F3F19F4411187
:1046600001C0982F8F5F8630A9F79F3F39F0F9017D
:10467000E90FF11D97FDFA95628308950895CF9390
:1046800084E090E00E94E930C82F81E290E00E942F
:10469000E9302C2F30E0A901582BCA01CF910895A1
:1046A00080E090E00E94F73021E08C3E9E4F09F0C0
:1046B00020E0822F08956CEE7EEF80E090E00E9473
:1046C0001B3160E082E090E00E94FD3060E083E01A
:1046D00090E00E94FD30109286051092870510929E
:1046E00088051092890560E084E090E00E94FD302A
:1046F00060E081E290E00E94FD3060E085E090E0C3
:104700000E94FD3060E086E090E00E94FD306FEF97
:1047100087E090E00E94FD3040E050E0BA0188E080
:1047200090E00E940F3160E08DE090E00E94FD304B
:1047300040E050E0BA0188E190E00E940F3160E073
:1047400087E190E00E94FD3040E050E0BA018CE14A
:1047500090E00E940F3160E080E290E00E94FD3026
:1047600040E050E0BA0188E190E00E940F3140E063
:1047700050E0BA018FE090E00E940F3140E050E03D
:10478000BA0183E190E00C940F318091850581118D
:104790001092850508959091840580918305892B59
:1047A00020918205982F922B909323058091850567
:1047B000882389F0892B80932305E5E2F5E097E0D3
:1047C00080E0915029F021912223D9F38F5FF9CF16
:1047D00081110E94C523E091C304F091C404309775
:1047E00031F00280F381E02D83E295E00994089591
:1047F000BF92CF92DF92EF92FF920F931F93CF93CE
:10480000DF938C01C0901F05D0902005E09021051A
:10481000F09022058091860590918705A0918805EA
:10482000B0918905C82AD92AEA2AFB2ACFE1D0E02B
:10483000D701C6010C2E04C0B695A795979587950C
:104840000A94D2F780FD04C0219790F7B12C07C0DD
:10485000BC2EB8018C2F0E94580C0197A9F38B2D08
:10486000DF91CF911F910F91FF90EF90DF90CF904C
:10487000BF900895CF93DF93EC010E94F823BE010F
:104880000E94580CDF91CF910895292F220F920F8B
:10489000990F890F682F669566956695982F977082
:1048A00085E0689FB001112440E050E080E0FB010A
:1048B000E40FF51FED59FA4F208130E0092E02C0B8
:1048C000369527950A94E2F721703327042E01C00C
:1048D000220F0A94EAF7822B4F5F5F4F4530510554
:1048E00031F70895292F220F920F990F890FE82F82
:1048F000E695E695E695877051E001C0550F8A95DB
:10490000EAF785E0E89FF0011124ED59FA4F20E025
:1049100030E070E04081CB01022E02C09695879571
:104920000A94E2F7817081958427852384278193F7
:104930002F5F3F4F2530310569F708950F931F937F
:104940008B019C010670112722273327DC01CB0144
:10495000063011052105310511F4886001C0877FFB
:1049600080931F0590932005A0932105B093220505
:104970001F910F910C94DD2C0F931F9341E050E099
:1049800060E070E004C0440F551F661F771F8A95D2
:10499000D2F7409550956095709580911F05909144
:1049A0002005A0912105B09122058A019B010823D1
:1049B00019232A233B23C901B8011F910F910C949D
:1049C0009E24209181058095822380938105982FD4
:1049D000977079F430E0482F082E000C550B2417FF
:1049E000350739F08595859585950E94BC241092F0
:1049F000810508950F931F9341E050E060E070E05F
:104A000004C0440F551F661F771F8A95D2F7809107
:104A10001F0590912005A0912105B09122058A01E2
:104A20009B01082B192B2A2B3B2BC901B8011F9185
:104A30000F910C949E246093860570938705809354
:104A40008805909389050C94DD2C809162059091E6
:104A50003105891719F08F5F8770FBCF08950F9389
:104A60001F93CF93DF938091300582958F7009F06B
:104A70005DC080912D05882309F458C0809162059E
:104A80001091310560912B0570912C05C0912E0578
:104A9000D0912F0591E06F3F09F090E0292F06E0BB
:104AA000811709F443C0209721F07F3F21F030E0C7
:104AB00003C031E001C0322F90E030FD34C0089FC8
:104AC000F001099FF00D1124DF01AE5CBA4F119681
:104AD0003C911197371327C03C91361324C012968E
:104AE0003C91129731111FC013964D915C91149710
:104AF0004C1B5D0B483C5105B0F4809130058F7024
:104B0000806180933005E95CFA4F80818F7080610D
:104B100080838BE295E00E94CF0FDF91CF911F91B0
:104B20000F910C94252501968770BACFDF91CF9114
:104B30001F910F9108959F92AF92BF92CF92DF92F3
:104B4000EF92FF920F931F93CF93DF93CDB7DEB712
:104B500061970FB6F894DEBF0FBECDBF8C0185E024
:104B6000F801DE011D9601900D928A95E1F7F8019A
:104B700090818181E28030912B0560912C054091DC
:104B80002E0550912F054115510531F06F3F31F43D
:104B900021E03F3F19F403C021E001C020E0F22FE3
:104BA000F1709F2E20FD23C1F801C380D4802BE239
:104BB000A22E25E0B22EF0902D05F601E41BF50B98
:104BC000FF2009F4CEC020913005E83CF10508F043
:104BD00099C0422F407F09F051C0681311C03913AA
:104BE0000FC0FE2CE1100CC02F7020612093300507
:104BF000C5010E94CF0F80913005F801858337C130
:104C0000CD2831F08F3F31F421E09F3F19F403C0EC
:104C100021E001C020E020FD03C021E02E2502C0DC
:104C200020E030E0F22FF170FF2E20FF1DC0209118
:104C300062054091310556E0241709F4F6C030E0D2
:104C4000529FF001539FF00D1124EE5CFA4F6181E9
:104C5000861306C06081961303C06281E61204C009
:104C60002F5F3F4F2770E8CFFE2CEE2009F4FFC0E6
:104C70008091300581608093300550C0681307C073
:104C8000391305C0E11003C0F80125838DC09D874D
:104C90008E878D859E850E94B42C882369F1EE2035
:104CA00059F120913005822F82958F7090E0029704
:104CB00074F080912B0590912C0598878F8319862D
:104CC000DB86CA862C87CE0107960E94CF0F86E02E
:104CD000F801ABE2B5E001900D928A95E1F70E94F0
:104CE0002F250DC06817E1F09D878E878D859E85E5
:104CF0000E94B42C81111EC0C8010E94CF0FFF2456
:104D0000F394B5C0422F407F69F78BE295E00E9493
:104D1000CF0F86E0F50111928A95E9F7F12CA7C033
:104D20003913E2CFE110E0CFF8012583C8010E94DA
:104D3000CF0F57C0EE2001F320913005822F8295CE
:104D40008F7090E002971CF280912B0590912C05BA
:104D50009A8389831B82DD82CC822E83CE010196C9
:104D6000B4CFE83CF105E8F5FE2CEE2029F26813FB
:104D700027C0391325C02091300520FD18C0822F8F
:104D800082958F70482F50E04115510581F0F80150
:104D900025834F30510541F08F5F982F9295907F7A
:104DA000822F8F70892B8583C8010E94CF0F86E0E8
:104DB000F801ABE2B5E001900D928A95E1F757C09A
:104DC0009D878E878D859E850E94B42C81117FCF13
:104DD00080913005816080933005C8010E94CF0F1B
:104DE00046C086E0F50111928A95E9F740C0EE20B1
:104DF00009F482CF9D878E878D859E850E94B42C75
:104E0000F82E882309F478CF86E0F801ABE2B5E00C
:104E100001900D928A95E1F780912B0590912C05D8
:104E20000E943A240E942F2522C09D878E878D855F
:104E30009E850E943A24292F22952F70223028F433
:104E40009F7039F0811105C00BC0243028F49F7089
:104E500049F4805E883020F0C8010E94CF0F9F2C5B
:104E6000F92C05C0F8019581907F99F7F9CF8F2D26
:104E700061960FB6F894DEBF0FBECDBFDF91CF9124
:104E80001F910F91FF90EF90DF90CF90BF90AF9068
:104E90009F90089508958F929F92AF92BF92CF9264
:104EA000DF92EF92FF920F931F93CF93DF93FC015A
:104EB000B280948081E0848300E015E05BE4A52E5D
:104EC00088248394EE24EA94F12C7BE4C72ED12C21
:104ED00080918003081708F08FC0C02FD0E01C9F7E
:104EE000F0011D9FF00D1124EF54FA4F911003C0F3
:104EF0001382128267C02381222389F121502383E8
:104F00003481332319F09A2D921B01C0922F809186
:104F1000EC041C9FF0011D9FF00D1124EF54FA4F7B
:104F2000899FC0011124B6010E946A356283211154
:104F300004C0332311F01482A38222E02B1508F45D
:104F400041C01C9FF0011D9FF00D1124EF54FA4F3A
:104F50008091EA0480838091EB04818333C00E94B6
:104F6000D9308230914074F582E08B1530F40E9484
:104F7000D930B7010E947E3502C08091EA041C9F9F
:104F8000F0011D9FF00D1124EF54FA4F808322E0B1
:104F90002B1558F40E94D9302091EB042695622FEE
:104FA00070E00E947E35820F02C08091EB041C9F4E
:104FB000F0011D9FF00D1124EF54FA4F81831282EE
:104FC000A382848280917E039E01280F311DC90136
:104FD000880F991F280F391F23573A4F1C9FF00144
:104FE0001D9FF00D1124EF54FA4F428161818081A1
:104FF0000E942F050F5F6CCFDF91CF911F910F9112
:10500000FF90EF90DF90CF90BF90AF909F908F90E8
:105010000C942F040F931F93CF93DF93EC0100E0C8
:1050200010E080918003282F30E00217130724F549
:1050300090917E039801290F311DA901440F551F3E
:10504000240F351F23573A4F869590E04C8108175F
:1050500019071CF4442331F002C0411103C04091F0
:10506000EC0401C040E06091EB048091EA040E94EE
:105070002F050F5F1F4FD5CF0E942F048C8190E02A
:105080000196817099278C83DF91CF911F910F91A9
:1050900008958F929F92AF92BF92CF92DF92EF923C
:1050A000FF920F931F93CF93DF938C01FC014481F8
:1050B000C42FD0E09E01DE010E9485319B01AC012E
:1050C0000E9450316B017C01E0E2F0E0EC1BFD0B33
:1050D000A5E5B0E09B01AC010E9450314B015C01A1
:1050E0009F01DF010E949F359B01AC010E945B3153
:1050F0009B01AC012C0D3D1D4E1D5F1DC501B40172
:105100000E946331C22FD22F2A3228F4F3E02F9F5E
:10511000900111240DC025E530E02C1B3109C90197
:10512000880F991F280F391F37FF02C02F5F3F4F8D
:1051300035952795C22FC095F12C85E5E82EED1AFF
:1051400080918003F816C8F4F1FC02C08E2D01C0D6
:105150008D2F90917E032F2D30E0290F311DA90155
:10516000440F551F240F351F23573A4F4C2F609182
:10517000EB040E942F05F394E3CF0E942F04F80163
:105180008481811102C091E003C0803219F49FEF45
:105190009093AA039091AA03890FF8018483DF9169
:1051A000CF911F910F91FF90EF90DF90CF90BF9024
:1051B000AF909F908F9008951F93CF93DF93EC0152
:1051C0008C81811109C081E08C8310928B0592E063
:1051D0009093A9038093A80380917E0390917F030D
:1051E000891770F4E82FF0E09F01220F331FE20FC0
:1051F000F31FE357FA4F1182108212828F5FF0CFB4
:1052000010E0609180031617C0F5E12FF0E070E028
:10521000CF010E947E3520917E03820F20918B0565
:10522000022E000C330B90E0E217F307CCF0209134
:10523000A903022E000C330B2E173F078CF09C01A4
:10524000220F331F820F931F9C0123573A4F409127
:10525000EC046091EB048091EA040E942F050BC0DE
:10526000FC01EE0FFF1F8E0F9F1FFC01E357FA4F4B
:105270001182108212821F5FC4CF0E942F0480917E
:10528000A80320918B05280F20938B059091A903EB
:10529000980F9093A90319165CF4022E000C330B9F
:1052A0004091800350E0415051092417350734F0F4
:1052B00081958093A803813009F41C82DF91CF91FE
:1052C0001F9108958F929F92AF92BF92CF92DF92DB
:1052D000EF92FF920F931F93CF93DF93EC018A819C
:1052E00080FF03C0BB24BA9402C0BB24B3948C815A
:1052F00081110DC081E0B81206C0809180038150F9
:1053000080938A0502C010928A0581E08C83A12CCB
:105310004CE0942E80918003A81608F044C0809140
:105320007E03CA2CD12C8601080F111DC801880FDD
:10533000991F080F191F03571A4FF8011182108285
:10534000128234E0E32EF12C812C80918A05880DA5
:105350008D302CF0692D0E945C35892F05C087FFA8
:1053600003C090918003890F082E000C990BC8167A
:10537000D90691F48091EC048E9DA0018F9D500D73
:105380001124559547955595479598016091EB04E3
:105390008091EA040E942F058B0CF1E0EF1AF108CE
:1053A000A1F6A394B7CF0E942F0480918A0591E0C3
:1053B000B9120EC0811107C0809180038150809383
:1053C0008A051C820FC0815080938A05BC820AC066
:1053D00090E001966091800370E00E947E3580939A
:1053E0008A058C83DF91CF911F910F91FF90EF90F1
:1053F000DF90CF90BF90AF909F908F900895FF92D5
:105400000F931F93CF93DF93EC01F12C0FEF10E07C
:1054100060918003F616F0F480917E032F2D30E02A
:10542000280F311DC901880F991F280F391F2357D5
:105430003A4F70E0C8010E947E35962F8C814091D2
:10544000EC046091EB04F99E800D11240E942F055D
:10545000F394DECF0E942F049A818C8190FF02C0CA
:105460008F5F01C081508C83DF91CF911F910F918D
:10547000FF9008950F931F93CF93DF9300D01F9257
:10548000CDB7DEB78C0180918C0581110AC09E01D9
:105490002F5F3F4F4FEF6FEF0E942F058A81809360
:1054A0008C05F8018481813051F028F0823061F45C
:1054B00040918C050AC080918C0540E007C0609146
:1054C0008C0540E080E003C040E080E060E00E94A6
:1054D000B604F801848190E0019663E070E00E94D8
:1054E0007E3584830F900F900F90DF91CF911F91A5
:1054F0000F910895CF93DF93EC01E9EEF4E043813F
:1055000062818C810E94C5058C818F5F8C83DF91C5
:10551000CF910895CF93DF93EC01EC81F0E0EB5352
:10552000FB4F4491E9EEF4E0628181810E94C50560
:105530008C818F5F8C83DF91CF9108951F93CF93E0
:10554000DF93CDB7DEB767970FB6F894DEBF0FBE17
:10555000CDBF4B8B5C8B6D8B7E8B8F8B86E09E01E2
:10556000235F3F4FD901E82F1D92EA95E9F795E0B7
:10557000FE017396D90101900D929A95E1F7F90118
:10558000DE01179601900D928A95E1F7CE010796FC
:105590000E949B2581113EC086E0FE013796DE0108
:1055A000119601900D928A95E1F7FF81E8856A8551
:1055B0007B856115710531F0EF3F31F481E0FF3FEC
:1055C00019F403C081E001C080E080FD23C0209178
:1055D000310530E0C9010196877099274091620535
:1055E00050E08417950779F1F983EA837D836C8312
:1055F00096E0929FD001939FB00D1124AE5CBA4FFC
:10560000FE01319601900D929A95E1F78093310554
:105610000E94252516E08091620590913105891739
:10562000F9F0189FC00111248E5C9A4F0E949B25AF
:105630008823B1F08091620590E0019687709927E8
:1056400080936205E8CF0E94EB2C109231051092F6
:105650006205EBE2F5E086E0DF011D928A95E9F74D
:1056600067960FB6F894DEBF0FBECDBFDF91CF9126
:105670001F9108952091F1053091F20528173907FF
:1056800071F09093F2058093F105E091C304F091DD
:10569000C404309721F00084F185E02D0994089529
:1056A0002091EF053091F0052817390771F090939C
:1056B000F0058093EF05E091C304F091C4043097A6
:1056C00021F00680F781E02D09940895E091C3044C
:1056D000F091C404309721F00190F081E02D0994FD
:1056E00080E008950F931F93CF93DF93C42FD22FA1
:1056F000FC0182818823C9F04093A6040E94E32222
:105700009093EE058093ED0580E28C0F883008F0D1
:1057100057C0C77081E001C0880FCA95EAF7DF91D2
:10572000CF911F910F910C94012D8091A6044813E5
:1057300030C08091ED059091EE050E94D422883C06
:10574000910538F510E21D0FCD17B9F080E28C0FEE
:10575000883040F4C77081E001C0880FCA95EAF72D
:105760000E94F62C183028F581E09D2F977001C01B
:10577000880F9A95EAF70E94012D802F0E94032E30
:105780001830F0F4D77081E001C0880FDA95EAF79D
:105790000AC080E28C0F883098F4C77081E001C0A5
:1057A000880FCA95EAF7DF91CF911F910F910C9462
:1057B000F62C802FDF91CF911F910F910C94032E27
:1057C000DF91CF911F910F910895CF93DF93C6EA98
:1057D000D1E060E0CE010E94FD302196C11584E049
:1057E000D807B9F7DF91CF910895CF92DF92EF926A
:1057F000FF920F931F93CF93DF93C0E0D0E08E0111
:10580000005A1F4F6E018CE0C80ED11CFE01EB53F5
:10581000FA4FE590F4906F2DCE0186960E94FD30F0
:105820006E2DCE0187960E94FD302296CC15DD05A7
:1058300069F70C171D0731F7E80100381140F9F638
:10584000DF91CF911F910F91FF90EF90DF90CF905C
:1058500008950F931F93CF93DF93C42FD0E0CC0F05
:10586000DD1F2CE0629FC00DD11D112430E6839F07
:10587000C00DD11D1124CE0186960E94E930082F5B
:1058800010E0102F0027CE0187960E94E930980182
:10589000282BC901DF91CF911F910F910895462FB9
:1058A000843038F4783028F4663018F4672F0C947C
:1058B000292C80E090E00895CF93C82F811102C079
:1058C0006FEF01C060E282E290E00E94FD30C11102
:1058D00002C06FEF01C062E183E290E00E94FD3000
:1058E000C11102C06FEF01C064E084E290E0CF918B
:1058F0000C94FD309091E90490FF04C096959817A0
:1059000040F003C0811105C090E0961710F40C948C
:10591000340E61E00C94EB0D882311F0FA0101C004
:10592000FB010994EFECF4E01182828184608283B0
:1059300008956091E904669570E04BE050E08DE9D0
:1059400093E00E94AE35892B19F481E08093D00456
:105950000E94E3229093CA048093C9048091D104E9
:1059600084608093D10408950E943A24292F2F70D7
:10597000E92FE295EF704E2F50E0FA013297EE30AA
:10598000F105B8F4ED56FF4F0C949235803F99F035
:1059900018F4883E70F40FC0843F59F40CC0883E60
:1059A00050F0813F31F407C0822F86958695869509
:1059B000089580E0089581E0089510928305109283
:1059C00082050E94CB2380E090E00E94502B80E073
:1059D00090E00C943A2B1092840586E0E5E2F5E025
:1059E000DF011D928A95E9F70C94DD2C882341F0A4
:1059F0008095909184058923809384050C94CB2312
:105A00000895882339F090918405892B809384052B
:105A10000C94CB230895882309F458C0682F82384A
:105A200069F40E94662B81FF51C069E383E295E02F
:105A30000E9425230E94CB2369E30EC0833891F492
:105A40000E94662B80FF42C063E583E295E00E94DE
:105A500025230E94CB2363E583E295E00E9418236F
:105A60000C94CB23843869F40E94662B82FF2EC0ED
:105A700067E483E295E00E9425230E94CB2367E43C
:105A8000EBCF8CEF860F813A38F380E2860F8830B7
:105A900070F4677081E090E001C0880F6A95EAF7C2
:105AA000809590918405892380938405D9CF8BE5D7
:105AB000860F833020F480E090E00C94502B685ADD
:105AC000673120F480E090E00C943A2B0895CF9356
:105AD000882309F496C0C82F8238B1F40E94662B3F
