:100000000C94D2010C9419020C9419020C94B42093
:100010000C9419020C9419020C9419020C941902F4
:100020000C9419020C9419020C9409130C94781E68
:100030000C94AC160C9419020C9419020C9419022D
:100040000C9419020C9419020C9419020C941902C4
:100050000C9419020C946B160C9419020C9419024E
:100060000C9419020C9419020C9419020C941902A4
:100070000C9419020C9419020C9419020C94190294
:100080000C94390A0C9419020C9419020C9419025C
:100090000C9419020C9419020C9419020C94190274
:1000A0000C9419020C9419020C9419024906490681
:1000B000830683066008600860086008D906B707F1
:1000C000C807C807A01CC71C501EC71C501E0F1D08
:1000D000321D501E1A1E2D1ECE1ECE1EE11EE11E0A
:1000E000D71EE11EE11EE11ECE1ECE1EDC1EE11E4D
:1000F000E11EDC1E07634236B79BD8A71A39685643
:1001000018AEBAAB558C1D3CB7CC5763BD6DEDFD39
:10011000753EF6177231BF000000803F08000000F6
:10012000BE922449123EABAAAA2ABECDCCCC4C3EEC
:1001300000000080BEABAAAAAA3E00000000BF00DB
:100140000000803F0000000000084178D3BB4387D7
:10015000D1133D190E3CC3BD4282AD2B3E68EC82EB
:1001600076BED98FE1A93E4C80EFFFBE01C4FF7F70
:100170003F00000000002B0014001A0008001500CA
:100180001700E00004001600070009000A00E10063
:100190001D001B0006001900050000000000E30020
:1001A000E20001512C002A00130012000C0018007C
:1001B0001C00340033000F000E000D000B00E500A2
:1001C0003800370036001000110000000000E70082
:1001D000E6000251280029001E001F002000210017
:1001E0002200E00001000100010001000100E10027
:1001F0000100010001000100010000000000E30017
:10020000E20001512C002A002700260025002400CE
:100210002300010001004F00520051005000010076
:100220000100010001000100010000000000E700E2
:10023000E6000251280029001E021F0220022102AE
:100240002202E00001000100010001000100E100C4
:100250003502010001000100010000000000E30080
:10026000E20001512C002A00270226022502240266
:1002700023023500310230022F022E002D003502FC
:10028000310030002F002E022D0200000000E70098
:10029000E60002512800005C01000100010001009D
:1002A0000100C25CC55CC75CC95C01000100C35CA5
:1002B000C65CC85CCA5C0100010000000000E300ED
:1002C000E20001512C003F003E003D003C003B009D
:1002D0003A00450044004300420041004000010054
:1002E0000100010001000100010000000000E70022
:1002F000E6000251280005010906A101050719E0E1
:1003000029E71500250195087501810295017508F9
:1003100081010507190029FF150026FF00950675C4
:1003200008810005081901290595057501910295B7
:100330000175039101C009022200010100A0FA0920
:100340000400000103010100092111010001224004
:10035000000705810308000A1201100100000008CF
:1003600054590100010001020301040330000000A0
:100370001A034C0075006E0061006B006500790087
:1003800020004D0069006E00690000001203790032
:100390006F00690063006800690072006F00000070
:1003A0000403090411241FBECFEFDAE0DEBFCDBF86
:1003B00004B603FE27C08091EB049091EC04A09159
:1003C000ED04B091EE048730904BA740B04BD1F4D0
:1003D0001092EB041092EC041092ED041092EE04D3
:1003E00014BE84B7877F84BF0FB6F894A895809118
:1003F0006000886180936000109260000FBEE0E0B2
:10040000F8E3099524E0AEEBB3E001C01D92AB3EEA
:10041000B207E1F713E0A0E0B1E0E0E0FBE402C0E6
:1004200005900D92AE3BB107D9F70E94B5140C941C
:100430007E250C9400008F929F92AF92BF92CF9234
:10044000DF92EF92FF920F931F93CF93DF93CDB77D
:10045000DEB7AD970FB6F894DEBF0FBECDBFFC017F
:100460000081D18083819481892B39F01FEFD112D3
:1004700006C091E00F3F19F403C091E001C090E085
:1004800090FD5EC67F0185E0DE01999601900D9298
:100490008A95E1F7D70112962C9189A59AA5222376
:1004A00049F00E94A317182F682F89A59AA50E94CA
:1004B0001D1803C00E94F017182FB0E31B9FF00116
:1004C000112416E0D19EE00DF11D1124E00FF11D65
:1004D000EE0FFF1FEA58FE4F059114910D312CE5E8
:1004E000120749F4D70112968C91882309F459C058
:1004F0000E942A0A64C30E31BCE51B0741F4F701D0
:100500008281882309F44DC00E942B0E58C30F31FD
:10051000FCE51F0759F4D70112968C91882309F442
:1005200040C08091E30480FDEFCFE2CFC8018A5242
:100530009C45029758F4F7018281882391F110922B
:10054000BE0364E070E080E091E023C006322CE559
:10055000120711F10732BCE51B0709F4FDC0083290
:10056000FCE51F0709F4EBC00C32BCE51B0709F4DE
:10057000FBC00D32FCE51F0709F0FEC0D701129643
:100580008C91882371F01092D60368E070E080E2CD
:1005900091E00E94FD1A13C3D70112968C9181112C
:1005A000D8C02091D703211105C08091D60388239C
:1005B00009F411C1F7013281332309F44BC0003E25
:1005C000110561F40E941B0E81E08093D503109207
:1005D000D4031092D3031092D203F1C2023E11054C
:1005E00071F40E941B0E8091D503882319F081E0DD
:1005F0008093D4031092D5031092D303E0C2033E3C
:10060000110591F48091D403882321F10E941B0EDF
:100610001092D50381E08093D3031092D1031092FE
:10062000D0031092CF03CBC20235110531F4809173
:100630000102909102020A9708C00135110551F498
:1006400080910102909102020A9690930202809397
:100650000102B5C28091000281110DC0D70111962F
:100660004C91119788E090E0841B91094C91405F78
:10067000D42EBCE01DC0813069F4F701418188E0CF
:1006800090E0841B9109D82EDD0CDD0CD80E808102
:100690008D5C31C0823081F4D70111964C91119755
:1006A00088E090E0841B91094C914D5CD42EB7E01A
:1006B0008B9FD00C112423C08330F9F483E2ECE843
:1006C000F3E0DE01119601900D928A95E1F7F701B2
:1006D0008081FE01E80FF11DD70111964C9188E051
:1006E00090E0841B9109D084BCE08B9FD00C112436
:1006F0008D2D59E0D52ED80E02C04CE0D42E3323D8
:10070000A1F0222319F08D2D0E94FD0E8091D503BA
:10071000882381F08091D203E82FF0E0E154FC4F70
:10072000D0828F5F8093D20305C0222319F08D2DD4
:100730000E94450E0F3F110508F04DC040C2D70181
:1007400012968C91882309F42CCF8091D7038111C4
:1007500008C00E94210A33C2F7018281882309F46C
:1007600020CF0E94210E2BC2F7018281882309F439
:1007700018CF0E94180A23C20E32BCE51B0751F4A1
:10078000F7018281882309F40CCF8091D60381116F
:10079000FACEEFCF0932FCE51F0709F002CFD701EF
:1007A00012968C91882309F4FCCE0E941B0E209196
:1007B000000230E02F5F3F4F237033272093000269
:1007C00048E2429FC001439F900D112465E070E014
:1007D000805A9E4FDECE033F3CE5130799F406E2B4
:1007E00021EE40EE63EF7CE509C0073D9CE519076B
:1007F00011F506E221EE41EE67ED7CE5C7010E94AE
:100800009E09DDC1043F4CE5140708F069C1083DAD
:100810005CE5150731F407E225EE45EE68ED7CE571
:10082000EDCF093D8CE5180701F708E221E045EE20
:1008300069ED7CE5E3CFF7018281882309F485C166
:100840001092D8030230FCE51F0708F468C1063196
:100850002CE5120738F098012A5F3C452930310514
:1008600008F05DC10E94FC16909338048093370411
:1008700000313CE5130709F4CAC008F042C0083053
:100880005CE5150709F4A0C0F0F404309CE51907F5
:1008900009F486C068F40230BCE51B0709F47CC08B
:1008A00003301C4509F00CC18091370482607BC085
:1008B0000630FCE51F0709F47FC008F081C0809175
:1008C0003704886070C00C303CE5130709F48BC016
:1008D00068F40A305CE5150709F47AC008F07FC0B7
:1008E0000E94E51E8091370480685DC00E309CE553
:1008F000190709F47CC008F086C0809137048B7F0B
:1009000052C00B3FBCE51B0709F450C020F5033172
:10091000FCE51F0709F483C078F401313CE51307B7
:1009200009F479C002311C4509F0CAC00E94E51ED5
:10093000809137048F7737C005315CE5150709F4DE
:100940007CC008F4ACC00A3F1C4509F0B9C08091D6
:10095000380481602EC00F3FACE51A0709F466C069
:1009600070F40D3FECE51E0709F449C008F443C0DC
:1009700080913804826081608093380484C00130A3
:100980002DE5120709F497C008F470C002301D4528
:1009900009F096C060E090C080913704816003C088
:1009A000809137048460809337048AC08091380432
:1009B00082608093380484C0809137048061F3CFD3
:1009C000809137048062EFCF809137048064EBCF51
:1009D0008091370488608460809337043DC08091A3
:1009E00037048E7FE0CF809137048D7FDCCF8091FC
:1009F0003704877FD8CF809138048E7FDACF8091FB
:100A000038048D7FD6CF809137048F7ECCCF8091F4
:100A100037048F7DC8CF809137048F7BC4CF8091FE
:100A20003704877F8B7F809337041BC08091380405
:100A30008D7F8E7F809338042BC08091370482FB9A
:100A4000222720F991E0922790FB82F990FB83F90D
:100A500080933704992329F064E070E083E492E006
:100A60001BC062E070E083E192E016C08091380420
:100A7000982F909591708E7F892B90FB81F98093B0
:100A80003804992329F064E070E083E292E004C026
:100A900062E070E083E092E00E94FD1A11C00E94C3
:100AA000E51E8091370487FB222720F991E09227E9
:100AB00090FB87F978CF61E08EE090E00E946021A2
:100AC000609137041091380484E090E00E94602126
:100AD000612F81E290E00E9460210E94E51E6FC0BC
:100AE000053FACE51A0731F406E221EE42EE65EF70
:100AF0007CE584CE053FBCE51B0730F407E225EE1C
:100B000044EE64EF7CE57ACE063FECE51E0709F083
:100B100092CE07E225EE46EE66EF7CE56FCE06311B
:100B2000FCE51F0719F58091B0048A7A91E009F479
:100B300090E09093D903882311F065E301C069E246
:100B40008FE494E00E94E2160EC006311C4509F0C5
:100B500055C08091D903882309F4F0C265E38FE47E
:100B600094E00E94D5160E94761729C001155CE515
:100B7000150739F00E3D1C4509F040C00E940D17C5
:100B80001EC00E94E51E0E941B0E0E94A0168C0132
:100B900063E070E083E692E00E94FD1AC8010E94C3
:100BA00091168A3F910538F4AFE9BFE01197F1F74C
:100BB00000C00000F3CF0E94EC0D0E9491148091C0
:100BC000AD04877009F4BCC2F7018281882309F45F
:100BD000B7C282E0AD960FB6F894DEBF0FBECDBFB0
:100BE000DF91CF911F910F91FF90EF90DF90CF9009
:100BF000BF90AF909F908F900C949018D7010D915B
:100C00001C91882349F0C8010E94A317D82E682F91
:100C1000C8010E941D1804C0C8010E94F017D82EF8
:100C2000B8018D2D0E94CB108C01982ED7011596FE
:100C3000BC901597B2942FE0B2221296AC90A110FE
:100C40001092AF048091AD04877099F0AA2089F0CA
:100C5000812F807F803421F080E2800F883048F03F
:100C600082E00E9490188091AD048770DD24D394B7
:100C70008111D12CC12EC2949FE0C9228C2D90E00D
:100C80008C30910508F01CC2FC01EA5AFF4F0C940D
:100C90006425812F807F1F70882311F01295107FAB
:100CA000AA20B9F0112309F4F6C180E2800F883040
:100CB00010F0911006C08091B004182B1093B0046E
:100CC00005C08091AF04182B1093AF040E947617D3
:100CD000E2C1802F0E94091F112309F4F1C1005EB7
:100CE0001095083010F0911006C08091B0041823C0
:100CF0001093B00405C08091AF0418231093AF0483
:100D00000E947617DDC1812F807F1F70803211F025
:100D10001295107F992021F0B1E09B16E1F02AC0D6
:100D2000AA2081F08091B104BB2051F0E1E0BE1215
:100D300007C0182B181709F4C3C11093B104C0C120
:100D4000812B10C0BB2021F0F1E0BF1609F4B8C11F
:100D50000E9470172AC0AA2041F005E00B1508F484
:100D6000AFC1812F0E94FF1EABC124E02B1508F4F8
:100D7000A7C11BC0AA2061F0BB2099F3D70115962B
:100D80008C91159780FF87C18F7015968C93E9CF52
:100D9000BB2059F0093309F090C1BFEFE7EEF3E053
:100DA000B150E040F040E1F786C1812F0E94F41E6F
:100DB00087C1812F837009F069C0A11085C1902F70
:100DC000929596959770990F990F802F8F70882E16
:100DD000912CA12CB12C092E04C0880C991CAA1CA2
:100DE000BB1C0A94D2F704FF12C04FE050E060E051
:100DF00070E004C0440F551F661F771F9A95D2F705
:100E0000DB01CA0180959095A095B09503C080E064
:100E100090E0DC0116951695412F4370423019F190
:100E2000C8F40091B2041091B3042091B40430913D
:100E3000B504413059F088299929AA29BB29BC0158
:100E4000CD0160237123822393230AC0802A912A33
:100E5000A22AB32ABC01CD01682979298A299B29B4
:100E60000E94CA1831C188299929AA29BB29009151
:100E7000B2041091B3042091B4043091B504BC01C4
:100E8000CD016027712782279327EACFAA2019F086
:100E9000812F817001C08695882309F415C1902F98
:100EA000929596959770990F990F802F8F70882E35
:100EB000912CA12CB12C092E04C0880C991CAA1CC1
:100EC000BB1C0A94D2F704FF12C04FE050E060E070
:100ED00070E004C0440F551F661F771F9A95D2F724
:100EE000DB01CA0180959095A095B09503C080E084
:100EF00090E0DC0116951695412F43704230D9F0F1
:100F000068F5009133041091340420913504309138
:100F10003604413059F088299929AA29BB29BC01F6
:100F2000CD0160237123822393231EC0802A912A3E
:100F3000A22AB32A13C088299929AA29BB2900917A
:100F40003304109134042091350430913604BC01EF
:100F5000CD01602771278227932706C0BC01CD01F0
:100F6000682979298A299B290E944918ADC01F70D8
:100F7000AA2039F0812F0E94A918802F0E94FF1EFD
:100F8000A3C0802F0E94F41E812F0E946B189CC06A
:100F9000802F22EF921609F440C0291538F030EF67
:100FA000931661F041EF941699F170C053EF9516C6
:100FB000D9F194EF991609F44EC068C0AA2019F12E
:100FC000A4E0AB1508F47CC01F7181E090E0A0E0C4
:100FD000B0E0AC01BD0104C0440F551F661F771F70
:100FE0001A95D2F78091330490913404A09135047E
:100FF000B09136048A019B01082719272A273B272D
:10100000C901B80121C025E02B1508F459C0DCCF77
:10101000AA2029F0812F8F712CC0AA20D9F3812F0B
:101020008F710E946B184CC0AA2089F01F7181E05B
:1010300090E0A0E0B0E0BC01CD0104C0660F771FD6
:10104000881F991F1A95D2F70E94491839C060E08D
:1010500070E0CB01F9CFAA2079F01F71812F0E9497
:10106000A91838E0139FC001112483608093AD0458
:10107000812F0E94A91824C081E00E94901841E0AD
:101080004B15F0F482E00E9490181AC0AA2039F0A3
:10109000BB2009F4BFCF802F0E94871F11C0BB2047
:1010A00009F4BDCF893349F45FEF87EE93E05150E7
:1010B00080409040E1F700C00000802F0E94091F8F
:1010C00088EF8C0D843010F40E949209DD20B1F07D
:1010D0008091AD0480FD12C0D70112961C928595B7
:1010E000859585950E94A918C7010E941B028091D1
:1010F000AD048595859585950E946B1885E0F7016F
:10110000DE01949601900D928A95E1F78CA19DA144
:101110000E94F0179DA1B0E38B9FF001112406E01F
:10112000909FE00DF11D11248CA1E80FF11DEE0F31
:10113000FF1FEA58FE4F8591949102C069E20FCDDE
:10114000AD960FB6F894DEBF0FBECDBFDF91CF9145
:101150001F910F91FF90EF90DF90CF90BF90AF90D5
:101160009F908F9008959091370492FF0DC0282F83
:101170002871283019F4877F846006C0282F2471D5
:10118000243011F48B7F886093FF0DC0282F2871C5
:10119000283119F4877E846106C0282F24712431F8
:1011A00011F48B7E88612091380420FF0DC0382F08
:1011B0003871383019F4877F816006C0382F31715B
:1011C000313011F48E7F886021FF0DC0282F2871E7
:1011D000283119F4877E816106C0282F21712131C1
:1011E00011F48E7E886194FD877E08951F93CF93BE
:1011F000DF93CDB7DEB767970FB6F894DEBF0FBEAB
:10120000CDBF4B8B5C8B6D8B7E8B8F8B86E09E0175
:10121000235F3F4FD901E82F1D92EA95E9F795E04A
:10122000FE017396D90101900D929A95E1F7F901AB
:10123000DE01179601900D928A95E1F7CE0107968F
:101240000E944E1981113EC086E0FE013796DE01F4
:10125000119601900D928A95E1F7FF81E8856A85E4
:101260007B856115710531F0EF3F31F481E0FF3F7F
:1012700019F403C081E001C080E080FD23C020910B
:101280005D0430E0C90101968770992740918E0472
:1012900050E08417950779F1F983EA837D836C83A5
:1012A00096E0929FD001939FB00D1124A25ABB4F9C
:1012B000FE01319601900D929A95E1F780935D04BD
:1012C0000E94D81816E080918E0490915D048917D1
:1012D000F9F0189FC0011124825A9B4F0E944E19A9
:1012E0008823B1F080918E0490E001968770992751
:1012F00080938E04E8CF0E94E51E10925D04109248
:101300008E04E7E5F4E086E0DF011D928A95E9F7B7
:1013100067960FB6F894DEBF0FBECDBFDF91CF91B9
:101320001F910895E0913904F0913A04309721F02B
:101330000190F081E02D099480E008950F931F93B0
:10134000CF93DF93C42FD22FFC0182818823C9F071
:101350004093D8030E94A01690931F0480931E040C
:1013600080E28C0F883008F05EC0C77081E001C059
:10137000880FCA95EAF7DF91CF911F910F910C94D6
:10138000FF1E8091D80348133EC080911E049091A7
:101390001F040E949116883C9105A8F510E21D0FCC
:1013A000CD17B9F080E28C0F883040F4C77081E02F
:1013B00001C0880FCA95EAF70E94F41E183048F45D
:1013C00081E09D2F977001C0880F9A95EAF70E94DF
:1013D000FF1E802F0E94871F093349F4FFEF27EE7D
:1013E00083E0F15020408040E1F700C00000802FF2
:1013F0000E94091F1830B8F4D77081E001C0880F2F
:10140000DA95EAF70AC080E28C0F883060F4C77082
:1014100081E001C0880FCA95EAF7DF91CF911F9153
:101420000F910C94F41EDF91CF911F910F910895AD
:1014300081E08093D60368E070E088E393E00C9449
:10144000FD1A81E08093D70368E070E088EB92E0BA
:101450000C94FD1A6091E30461606093E30487E0FB
:1014600090E00E94602162E070E088E992E00C94D4
:10147000FD1A1F920F920FB60F9211244F925F9296
:101480006F927F928F929F92AF92BF92CF92DF9294
:10149000EF92FF922F933F934F935F936F937F93BE
:1014A0008F939F93AF93BF93CF93DF93EF93FF936C
:1014B0008091E204882309F4C2C1C0911C04D09138
:1014C0001D041C161D060CF0BAC140901804509063
:1014D000190460901A0470901B0420E030E0A90108
:1014E000C301B2010E94592318160CF065C0C13027
:1014F000D10509F452C08091160490911704BE01E1
:101500000E9450257C0190931704809316048090CC
:10151000D8049090D904A090DA04B090DB0420E0C5
:1015200030E040E85FE3C501B4010E94952160937B
:10153000D8047093D9048093DA049093DB04F70104
:10154000EE0FFF1FEE0FFF1FEA50FC4FA3019201A9
:1015500060817181828193810E94062220E030E0C7
:1015600040E05EE30E945E239B01AC01C501B40133
:101570000E94592318168CF4C7010196BE010E94DF
:10158000502590931704809316041092D80410925B
:10159000D9041092DA041092DB04E0911604F09161
:1015A0001704EE0FFF1FEE0FFF1FEA50FC4FC08025
:1015B000D180E280F380E0C0809197022197882358
:1015C00009F4BFC0C090F203D090F303E090F4039D
:1015D000F090F50320E030E0A901C701B6010E94B8
:1015E0000122882309F4A2C0FE01EE0FFF1FEE0FB7
:1015F000FF1FEA50FC4F80809180A280B380A5013C
:101600009401C701B6010E94012287FF31C0A501E4
:10161000940160E070E08CED93EC0E94062220E0E3
:1016200030E040E451E40E94062220E030E040E057
:101630005FE30E945E239B01AC0160E070E080E00C
:1016400090E40E94CB239B01AC01C501B4010E9430
:101650005E239B01AC01C701B6010E94012287FFF6
:1016600007C0A701960160E070E08CED93E439C0FB
:10167000A5019401C701B6010E94592318160CF068
:1016800055C0A501940160E070E08CED93E40E94E8
:10169000062220E030E040E451E40E94062220E0EF
:1016A00030E040E05FE30E945E239B01AC0160E01C
:1016B00070E080E090E40E94CB239B01AC01C50167
:1016C000B4010E945E239B01AC01C701B6010E94D8
:1016D000592318165CF5A701960160E070E08CEDC7
:1016E00093EC0E94062220E030E040E451E40E94A6
:1016F000062220E030E040E05FE30E945E239B0191
:10170000AC0160E070E080E090E40E94CB239B019C
:10171000AC01C701B6010E945E236093F20370938F
:10172000F3038093F4039093F5031EC0CC0FDD1FE9
:10173000CC0FDD1FCA50DC4F88819981AA81BB8103
:101740000BC0FE01EE0FFF1FEE0FFF1FEA50FC4F14
:1017500080819181A281B3818093F2039093F303FE
:10176000A093F403B093F503C090F203D090F30379
:10177000E090F403F090F5038091F0039091F10371
:101780008F3F2FEF920729F001969093F1038093FA
:10179000F0038091BE03811116C01092970280E081
:1017A00090E0A0E0BFE38093930290939402A09313
:1017B0009502B09396021092180410921904109298
:1017C0001A0410921B0420E034E244EF51E4C701F4
:1017D000B6010E94012287FF08C046EFC42E48E2EE
:1017E000D42E44EFE42E41E4F42E20E030E040E03B
:1017F00051E4C701B6010E945E239B01AC0160E089
:1018000074E284E79BE40E9406226B017C010E9443
:101810007822709397006093960020919302309104
:1018200094024091950250919602C701B6010E9420
:101830005E230E94782270939900609398008091B3
:10184000E104882309F45AC1C090D204D090D30493
:10185000E090D404F090D50420E030E0A901C70165
:10186000B6010E94592318160CF052C08091F00363
:101870009091F1038F3F2FEF920729F001969093FB
:10188000F1038093F0038091BE03811116C0109282
:10189000970280E090E0A0E0BFE3809393029093F2
:1018A0009402A0939502B09396021092180410929D
:1018B000190410921A0410921B0420E030E040E05A
:1018C00051E4C701B6010E945E239B01AC0160E0B8
:1018D00074E284E79BE40E9406226B017C010E9473
:1018E0007822709397006093960020919302309134
:1018F00094024091950250919602C701B6010E9450
:101900005E230E947822709399006093980008C02B
:1019100010929700109296001092990010929800E1
:101920006091CC047091CD046F5F7F4F7093CD04B4
:101930006093CC04209196003091970080E090E075
:10194000232B71F12091EF0321112AC0C091960041
:10195000D09197000E94A7226B017C01BE0180E01C
:1019600090E00E94A7229B01AC016091CE0470918F
:10197000CF048091D0049091D1040E94062220E0EF
:101980003FEF4FE757E40E945E2320E030E040E85D
:101990005FE30E9494219B01AC01C701B6010AC01C
:1019A0000E94A7222091CE043091CF044091D00410
:1019B0005091D1040E94592387FDA0C08091D60484
:1019C0009091D70401969093D7048093D6042091E8
:1019D000DD043091DE0482179307B0F08091DC04BF
:1019E000882329F01092D7041092D6040DC080915C
:1019F00071008D7F80937100809190008F73809330
:101A000090001092E10482C02091EF038091D604EF
:101A10009091D704E091DF04F091E00421113FC0E0
:101A200021E02093EF039C01215031093093D7042A
:101A30002093D60433E0880F991F3A95E1F7E80F19
:101A4000F91FDF011897CD90DD90ED90FC9020817B
:101A5000318142815381C701B6010E940122811167
:101A600009C01092D2041092D3041092D4041092A0
:101A7000D50408C0C092D204D092D304E092D4041A
:101A8000F092D50480E090E0A0E8BFE38093CE041C
:101A90009093CF04A093D004B093D1042BC01092A4
:101AA000EF031092F1031092F00323E0880F991FC7
:101AB0002A95E1F7E80FF91F80819181A281B38116
:101AC0008093D2049093D304A093D404B093D5040C
:101AD00020E030E040E85EE3648175818681978193
:101AE0000E945E236093CE047093CF048093D00451
:101AF0009093D1041092CD041092CC048091E30411
:101B000080FD04C01092E1041092E204FF91EF9175
:101B1000DF91CF91BF91AF919F918F917F916F9105
:101B20005F914F913F912F91FF90EF90DF90CF9079
:101B3000BF90AF909F908F907F906F905F904F90ED
:101B40000F900FBE0F901F90189580E090E00E94BC
:101B50005A218C3E9E4F11F00E940D1787E090E0B5
:101B60000E9452218093E3048091E404811129C0F2
:101B70003E9A809171008D7F8093710082E0809306
:101B800090008AE18093910081EC91E1909397001D
:101B90008093960023EA3BE04EE855E4609193027F
:101BA0007091940280919502909196020E945E231A
:101BB0000E947822709399006093980081E080934E
:101BC000E4048091E30480FF06C063E070E08BE7EB
:101BD00092E00C94FD1A08958091E404811102C0F2
:101BE0000E94A50D10921D0410921C04809171009A
:101BF0008D7F80937100809190008F73809390000F
:101C00001092E1041092E2041092F2031092F30396
:101C10001092F4031092F503E6EFF3E0AFEDB3E0BA
:101C200011921192119211921D921D9284E0E6314F
:101C3000F807B1F708958091D70381110C94EC0D4A
:101C400008950E941B0E1092D70368E070E088EFA1
:101C500092E00C94FD1A62E070E088EA92E00E9443
:101C6000FD1A2FEF81EE94E0215080409040E1F783
:101C700000C000000E94EC0D6091E3046E7F609351
:101C8000E30487E090E00C946021CF92DF92EF9222
:101C9000FF920F931F93CF93DF93682F70E06554EB
:101CA0007109072E000C880B990B0E94A92220E0D5
:101CB00030E040E451E40E9406229B01AC0160E068
:101CC00070E080E090E40E94CB236B017C01809166
:101CD000E204882309F488C08091E404811102C0E1
:101CE0000E94A50D20E030E04CED53E4C701B601A1
:101CF0000E945E236B017C0106E114E0C7E0D0E0A6
:101D0000A7019601F80192918291729162918F01DF
:101D10000E940122811131C0FE01EE0FFF1FEE0F64
:101D2000FF1FEA50FC4F1082118212821382DE01E3
:101D3000AA0FBB1FA152BC4F11961C921E92C73016
:101D4000D105E9F0219644815581668177814083F0
:101D500051836283738314821582168217821296CE
:101D60008D919C91139711969C938E9313961C9230
:101D70001E92129734961296E2CF219708F6809120
:101D80001C0490911D04019797FD05C090931D04BC
:101D900080931C0404C010921D0410921C048091B6
:101DA0001C0490911D0420911604309117042817EB
:101DB000390724F01092170410921604892BA1F40D
:101DC000809171008D7F80937100809190008F735E
:101DD000809390001092F2031092F3031092F40398
:101DE0001092F5031092E204DF91CF911F910F91B1
:101DF000FF90EF90DF90CF900895CF92DF92EF9217
:101E0000FF92682F70E065547109072E000C880B53
:101E1000990B0E94A92220E030E040E451E40E94A6
:101E200006229B01AC0160E070E080E090E40E943B
:101E3000CB236B017C018091E404811102C00E94DC
:101E4000A50D8091E30480FF52C080911C04909105
:101E50001D0408970CF04BC0809171008D7F80931A
:101E600071008091E10481110E94EC0D20E030E0CE
:101E70004CED53E4C701B6010E945E236B017C0167
:101E800081E08093E2041092F1031092F00320E0CD
:101E900030E0A901C701B6010E9459231816ECF4DD
:101EA00080911C0490911D04FC01EE0FFF1FEE0FAA
:101EB000FF1FEA50FC4FC082D182E282F382FC0114
:101EC000EE0FFF1FE152FC4F2FE030E03183208303
:101ED000019690931D0480931C0480917100826090
:101EE0008093710080919000806880939000FF90B3
:101EF000EF90DF90CF9008958091DE03811112C0A2
:101F00008091D80080618093D8008AE18A95F1F7AA
:101F100000C08091D90080FD02C082E001C081E054
:101F20008093DE0381E09091DE03913009F080E040
:101F300008956F927F928F929F92AF92BF92CF92AD
:101F4000DF92EF92FF920F931F93CF93DF936FEA8D
:101F500073E009E214E02DE2E22E24E0F22E3801D3
:101F6000C0E0AA24A394B12CDB018D91BD01E82F20
:101F7000E295EF70F0E021A18F70A50102C0440F3F
:101F8000551F8A95E2F7CA01242B21A322A1942E82
:101F90009094292122A350EA5A95F1F797EBC92E84
:101FA00093E0D92E20E030E0D0E0D6018D906D0195
:101FB000482D42954F7050E0DA0190964C9150E0D8
:101FC000B82DBF7002C055954795BA95E2F740FD10
:101FD00007C04A2D022E01C0440F0A94EAF701C03F
:101FE00040E0D42B2F5F3F4F26303105F1F691A111
:101FF000992291A292A1892B82A3F3018081D81703
:1020000019F0D08381E001C080E0C82BFFEF6F1A88
:102010007F0AE614F70409F0A7CFD0903204CC234E
:1020200049F081E08093DC030E94A0169093DB03CB
:102030008093DA038091DC038823A9F08091DA038E
:102040009091DB030E949116069768F0ED2DF0E069
:10205000E45CFB4FD8018D918D018193EA16FB065C
:10206000C9F71092DC030E947C0F8823B9F010910D
:1020700031040E940521892B09F06BC0E12FF0E0AB
:10208000E45CFB4F80E090E0DC01A05EBB4F2C9154
:102090002193019684309105B9F711C0E091320483
:1020A000F0E0E45CFB4F80E090E02191DC01A05E79
:1020B000BB4F2C93019684309105B9F75CC0109208
:1020C000DD038091D303882309F455C08091CF03A9
:1020D0009091D003009781F40E94A0169093D003B2
:1020E0008093CF032091D10330E02115310571F4A5
:1020F0008091D20390E00BC00E94911620910102C2
:10210000309102022817390738F335C0C901019709
:10211000F901E154FC4FD0812091D703222331F003
:10212000FC01E154FC4F80810E94450E8091D70351
:10213000882319F08D2F0E94FD0E8091D10390E02D
:1021400001966091D20370E00E9450258093D103E4
:1021500012C08091DD038F5F8093DD03863008F429
:10216000B0CFE0913104F0E0E45CFB4F10821182CB
:1021700012821382A6CF8C2FDF91CF911F910F91E6
:10218000FF90EF90DF90CF90BF90AF909F908F9097
:102190007F906F900895CF93DF9320E3829FC001DB
:1021A0001124FC0136E0739FE00DF11D1124E60FB0
:1021B000F11DEE0FFF1FEA58FE4FC591D491CE01DD
:1021C000C238D10569F1B0F4C133D10509F475C045
:1021D00048F4C932D10509F469C0CA32D10509F4FD
:1021E00073C079C0C533D10509F459C0C933D105CD
:1021F000B9F071C0C33ED10571F138F4C03ED105CC
:10220000B1F0C23ED10511F166C0C63ED105B9F1AB
:10221000C73ED105C9F1C43ED10509F05CC024C058
:102220002091370420FD3CC121FD3AC154C02091CA
:10223000370420FD2FC12091380420FF36C1809142
:10224000370484FD24C183EE90E02FC12091370430
:1022500022FF2BC1F4CF8091370482FD1EC18091F3
:10226000380480FD1DC1EBCF2091380421FF1DC132
:102270008091370484FD0BC187EE90E016C1209158
:10228000370423FF12C1F4CF8091370483FD0BC1C3
:102290008091380481FFECCF84EE90E006C120915C
:1022A000370425FF02C189E290E0FFC02091370486
:1022B00025FFFBC085E390E0F8C02091370426FF9E
:1022C000F4C08AE290E0F1C02091370426FFEDC00F
:1022D00081E390E0EAC0C11543E5D407A0F5C1153C
:1022E00052E5D50708F09CC0C11520E2D207C0F422
:1022F000C11531E0D30708F0D8C0C53AD10540F484
:10230000C430D10508F0D1C0219709F4CEC0BFC0B8
:102310009E01205E31092830310508F0B8C0C5C0E3
:10232000C11541E5D40708F076C0C11550E5D507C1
:1023300008F051C0C11580E4D80708F4A8C0CE0148
:102340009F70906AB2C0C11526E5D20700F5C1158D
:1023500035E5D30708F07FC0C11544E5D40708F080
:1023600075C09E012370332781E090E0AC0102C06C
:10237000440F551F2A95E2F72C2F2695269530E21B
:10238000239FC0011124842B952B9A688EC0C11500
:102390005AE5D50778F4C11589E5D80708F064C077
:1023A000C11528E5D20708F472C09C2F8827806FDA
:1023B000906A7BC0CE0190568115904208F067C0AC
:1023C0008D2F8F710E94B3089E01332730628F7169
:1023D000A901582B5AC0CE01F4E096958795FA953D
:1023E000E1F7282F23703C2F337081E090E002C08A
:1023F000880F991F3A95E2F79C68AC01522B8C2FFD
:102400008F70282F2695269530E2239FC001112436
:10241000842B952B4AC09C2F8827816F906A45C0DA
:102420009E012370332781E090E0AC0102C0440F8D
:10243000551F2A95E2F72C2F2695269530E2239FEB
:10244000C0011124842B952B9C682FC09C2F8827BA
:10245000846F906A2AC08C2F0E94B3088F7190E01D
:10246000982F8827906221C08C2F8F700E94B3080C
:102470009E0194E0369527959A95E1F72F7030E00C
:10248000322F22273069A901482BCA010EC080E0F3
:1024900090E00BC089E390E008C082EE90E005C0B8
:1024A00080EE90E002C086EE90E0DF91CF9108953B
:1024B000E8EDF0E080818E7F80831092E200109240
:1024C000DA001092E100A0EEB0E08C9181608C9374
:1024D00080818F77808319BCA7EDB0E08C918E7FCF
:1024E0008C9380818F7E808310924E04089508958E
:1024F000089508958091B7040895CF92DF92EF92E6
:10250000FF920F931F93CF93DF93C8EDD0E08881A4
:102510008F7E8883E7EDF0E080818160808384E0B6
:1025200082BF81E080934E0488818E7F888302EE93
:1025300010E0F80110821092DA0081EEC82ED12C42
:10254000F601108288818F778883888180688883EC
:1025500088818F7D888319BC1092C2041092C304B5
:102560001092C1041092C00490EEE92EF12CF701F4
:1025700080818B7F808388818160888360E080E0B8
:102580000E94871BF60180818E7F8083F801808105
:1025900081608083808188608083F70180818E7F65
:1025A0008083888180618883DF91CF911F910F9113
:1025B000FF90EF90DF90CF900895CF93DF9321E0CD
:1025C0002093E9002FEF3091E800215035FD06C03F
:1025D00035ED3A95F1F700002111F5CF2091E80093
:1025E00025FF14C0EC0140E050E068E070E00E947C
:1025F000611B8091E8008E778093E80088E0FE01FF
:10260000A8EBB4E001900D928A95E1F7DF91CF91AC
:1026100008951F920F920FB60F9211242F933F939C
:102620004F935F936F937F938F939F93AF93BF93DA
:10263000EF93FF938091E10082FF09C08091E20057
:1026400082FF05C08091E1008B7F8093E100809143
:10265000DA0080FF2AC08091D80080FF26C08091D8
:10266000DA008E7F8093DA008091D90080FF18C055
:1026700080E189BD82E189BD09B400FEFDCF81E022
:102680008093C20480914E0481110FC00E945812A1
:102690000E947D128091E20084608093E20005C078
:1026A00019BC1092C20410924E048091E10080FF88
:1026B00017C08091E20080FF13C08091E2008E7FFE
:1026C0008093E2008091E20080618093E20080913B
:1026D000D80080628093D80019BC85E08093C20442
:1026E0008091E10084FF32C08091E20084FF2EC01F
:1026F00080E189BD82E189BD09B400FEFDCF8091F2
:10270000D8008F7D8093D8008091E1008F7E8093E8
:10271000E1008091E2008F7E8093E2008091E200F0
:1027200081608093E2008091C304882311F084E0EB
:1027300007C08091E30087FD02C081E001C083E013
:102740008093C2040E94E51E0E9492098091E100DC
:1027500083FF26C08091E20083FF22C08091E100C8
:10276000877F8093E10082E08093C2041092C304CB
:102770008091E1008E7F8093E1008091E2008E7F66
:102780008093E2008091E20080618093E20060E04B
:1027900080E00E94871B8091F00088608093F000A9
:1027A000FF91EF91BF91AF919F918F917F916F9129
:1027B0005F914F913F912F910F900FBE0F901F90FF
:1027C00018952091E4003091E50095E64091EC00E9
:1027D000842F817040FF23C08091E80080FD1DC0E0
:1027E0008091C204882399F0853099F08091EB00A4
:1027F00085FD11C04091E4005091E5002417350794
:1028000029F3915011F09A01E1CF84E0089582E01C
:10281000089583E0089581E0089580E0089540914F
:10282000E80042FFDDCF08958091C40487FF11C006
:102830008091E80082FD05C08091C2048111F8CF2B
:1028400011C08091E8008B770BC08091C20488236F
:1028500049F08091E80080FFF8CF8091E8008E7702
:102860008093E80008952091CA043091CB04261784
:10287000370748F06115710539F42091E8002E778B
:102880002093E80001C0B901FC0120E06115710549
:1028900079F18091C2048823F1F18530F1F18091C2
:1028A000E80083FD3CC08091E80082FD2EC080914D
:1028B000E80080FFEBCF2091F3008091F20090E0E0
:1028C000922B6115710551F08830910538F42191F2
:1028D0002093F100615071090196F3CF21E0089730
:1028E00009F020E08091E8008E778093E800CECF59
:1028F0002111CFCF0AC08091C204882361F08530B6
:1029000061F08091E80083FD0AC08091E80082FFB9
:10291000F2CF80E0089582E0089583E0089581E099
:10292000089581E08093E00080E28093D8001092C7
:10293000C9008FE19EE40197F1F700C0000087E035
:1029400090EBDC018093EB049093EC04A093ED04F6
:10295000B093EE049CE088E10FB6F894A8958093BC
:1029600060000FBE90936000FFCFCF93DF93CDB791
:10297000DEB72A970FB6F894DEBF0FBECDBF84B77F
:10298000877F84BF0FB6F894A89580916000886116
:1029900080936000109260000FBE90E080E80FB658
:1029A000F89480936100909361000FBE85B78068B2
:1029B00085BF85B7806885BF0E9458120E947D122E
:1029C0008091E20084608093E20078948091C20458
:1029D0008823A1F01091E9001F709091EC00892FDD
:1029E000817090FD80E8182B1092E9008091E8003A
:1029F00083FD0E94BC1B1F701093E90082E084BD20
:102A000093E095BD9AEF97BD80936E000E947C0F76
:102A1000809380030E947C0F882331F061E070E096
:102A200088E793E00E946620809180038091800374
:102A3000811102C094E001C090E09093320484E0E0
:102A4000891B80933104AFEAB3E043EB53E061E0CC
:102A500070E08D91E82FE295EF70F0E021A18F708A
:102A60008B0102C0000F111F8A95E2F7C801902F59
:102A70009095922391A392A1892B82A34A175B0779
:102A800041F7A7EBB3E04DEB53E061E070E08D91CF
:102A9000E82FE295EF70F0E021A18F708B0102C06A
:102AA000000F111F8A95E2F7C801902F909592238D
:102AB00091A392A1892B82A34A175B0741F7E9E210
:102AC000F4E081E394E0ACE3B4E011921D928E1740
:102AD0009F07D9F70E94990F8FE39CE90197F1F7BF
:102AE00000C000000E94990F80913C0480FF08C044
:102AF0006FEF7FEF80E090E00E947E210E949114B2
:102B000080E090E00E945A218C3E9E4F11F00E947E
:102B10000D170E94A50D0E947C0F811106C061E077
:102B200070E088E793E00E946D2080E090E00E94D2
:102B30005A218C3E9E4F11F00E940D1782E090E0CA
:102B40000E945221809345040E94FC169093380401
:102B50008093370483E090E00E945221682F70E058
:102B600080E090E00E94CA1881E893E090933A04D4
:102B700080933904EE24EA9484E4C82E84E0D82EAD
:102B800090E1892E22E1922E38E1A32EB12C40E46F
:102B9000742E8091C204853009F034C08091C20443
:102BA000843009F110923B040FB6F894A895A092D6
:102BB00060000FBE7092600083B7817F846083BF26
:102BC00083B7816083BF7894889583B78E7F83BFF6
:102BD0000FB6F894A895809160008861809360009A
:102BE000109260000FBE8091C104882391F20E9470
:102BF000990FECE3F4E08191811159C0CE16DF0604
:102C0000D1F7C7CF0E94990F0E947C0F8823A1F1B2
:102C1000E6E4F4E0ACE3B4E000E010E0302F2D9106
:102C20009191922721F180E0FF24F394492F4F21C5
:102C3000D1F089833A832F2181E009F480E08B83EE
:102C40000E94A0168160782F9D838C8349815A81D0
:102C50006B818D810E94F608F801EA5BFB4F808151
:102C6000F826F08218C08F5FFF0C8630F9F60F5FF0
:102C70001F4F0830110591F6EE82EF8218860E94F0
:102C8000A0168160782F9A8789874E815F81688539
:102C90008A850E94F6080E9492099091440489173F
:102CA00009F477CF0E9492098093440472CF89BCC3
:102CB00099BC09B400FEFDCF8091D8008F7D809330
:102CC000D8008091E00082608093E0008091E00075
:102CD00081FDFCCF5ECF78941F920F920FB60F92BA
:102CE00011248F939F93AF93BF938091250490916C
:102CF0002604A0912704B09128040196A11DB11DBE
:102D00008093250490932604A0932704B09328046D
:102D1000BF91AF919F918F910F900FBE0F901F9019
:102D200018959C014FB7F894809125049091260442
:102D3000A0912704B09128044FBF821B930B0895E4
:102D40002FB7F8948091250490912604A091270430
:102D5000B09128042FBF08951F920F920FB60F92C3
:102D600011248F939F93AF93BF9380913B04811164
:102D700013C08091250490912604A0912704B0915E
:102D800028044196A11DB11D80932504909326042B
:102D9000A0932704B0932804BF91AF919F918F9186
:102DA0000F900FBE0F901F9018959C012A5F3F4F08
:102DB000FC014281461301C01282019682179307DB
:102DC000B9F708959C01FC0132969FEF80E0419194
:102DD000461789F09F3F19F4411101C0982F8F5F6A
:102DE0008630A9F79F3F39F0F901E90FF11D97FDF2
:102DF000FA95628308950895CF9384E090E00E944D
:102E00005221C82F81E290E00E9452212C2F30E005
:102E1000A901582BCA01CF9108956CEE7EEF80E096
:102E200090E00E947E2160E082E090E00E946021BC
:102E300060E083E090E00E9460211092B204109262
:102E4000B3041092B4041092B50460E084E090E002
:102E50000E94602160E081E290E00E94602160E0D9
:102E600085E090E00E94602160E086E090E00E94B2
:102E700060216FEF87E090E00E94602140E050E029
:102E8000BA0188E090E00E94722160E08DE090E05D
:102E90000E94602140E050E0BA0188E190E00E9489
:102EA000722160E087E190E00E94602140E050E004
:102EB000BA018CE190E00E94722160E080E290E033
:102EC0000E94602140E050E0BA018FE090E00E9453
:102ED000722140E050E0BA0183E190E00C9472214D
:102EE0008091B10481111092B10408959091B004C1
:102EF0008091AF04892B2091AE04982F922B909350
:102F00004F048091B104882389F0892B80934F046A
:102F1000E1E5F4E097E080E0915029F0219122234F
:102F2000D9F38F5FF9CF81110E947017E0913904B6
:102F3000F0913A04309731F00280F381E02D8FE474
:102F400094E009940895BF92CF92DF92EF92FF929E
:102F50000F931F93CF93DF938C01C0903304D090D5
:102F60003404E0903504F09036048091B2049091DE
:102F7000B304A091B404B091B504C82AD92AEA2AAE
:102F8000FB2ACFE1D0E0D701C6010C2E04C0B695D4
:102F9000A795979587950A94D2F780FD04C021974D
:102FA00090F7B12C07C0BC2EB8018C2F0E94CB101B
:102FB0000197A9F38B2DDF91CF911F910F91FF9076
:102FC000EF90DF90CF90BF900895CF93DF93EC0107
:102FD0000E94A317BE010E94CB10DF91CF910895EC
:102FE000292F220F920F990F890F682F66956695EA
:102FF0006695982F977085E0689FB001112440E096
:1030000050E080E0FB01E40FF51FE157FB4F20810A
:1030100030E0092E02C0369527950A94E2F7217018
:103020003327042E01C0220F0A94EAF7822B4F5F48
:103030005F4F4530510531F70895292F220F920F28
:10304000990F890FE82FE695E695E695877051E090
:1030500001C0550F8A95EAF785E0E89FF001112439
:10306000E157FB4F20E030E070E04081CB01022EC1
:1030700002C0969587950A94E2F78170819584271E
:103080008523842781932F5F3F4F2530310569F7D2
:1030900008950F931F938B019C010670112722271F
:1030A0003327DC01CB01063011052105310511F470
:1030B000886001C0877F8093330490933404A09389
:1030C0003504B09336041092AF041092AE041F91F1
:1030D0000F910C9476170F931F9341E050E060E03E
:1030E00070E004C0440F551F661F771F8A95D2F702
:1030F000409550956095709580913304909134047B
:10310000A0913504B09136048A019B01082319234C
:103110002A233B23C901B8011F910F910C94491830
:103120002091AD04809582238093AD04982F9770F1
:1031300079F430E0482F082E000C550B2417350782
:1031400039F08595859585950E946B181092AD0490
:1031500008950F931F9341E050E060E070E004C0D9
:10316000440F551F661F771F8A95D2F7809133044D
:1031700090913404A0913504B09136048A019B01EA
:10318000082B192B2A2B3B2BC901B8011F910F913A
:103190000C9449186093B2047093B3048093B40400
:1031A0009093B5041092AF041092AE040C9476176D
:1031B00080918E0490915D04891719F08F5F87705C
:1031C000FBCF08950F931F93CF93DF9380915C04FF
:1031D00082958F7009F05DC080915904882309F4AD
:1031E00058C080918E0410915D04609157047091D5
:1031F0005804C0915A04D0915B0491E06F3F09F0EC
:1032000090E0292F06E0811709F443C0209721F0B0
:103210007F3F21F030E003C031E001C0322F90E069
:1032200030FD34C0089FF001099FF00D1124DF012B
:10323000A25ABB4F11963C911197371327C03C916E
:10324000361324C012963C91129731111FC0139669
:103250004D915C9114974C1B5D0B483C5105B0F4AB
:1032600080915C048F70806180935C04ED59FB4F0A
:1032700080818F708061808387E594E00E941B02CB
:10328000DF91CF911F910F910C94D8180196877000
:10329000BACFDF91CF911F910F9108959F92AF9276
:1032A000BF92CF92DF92EF92FF920F931F93CF9333
:1032B000DF93CDB7DEB761970FB6F894DEBF0FBED0
:1032C000CDBF8C0185E0F801DE011D9601900D92C5
:1032D0008A95E1F7F80190818181E280309157046D
:1032E0006091580440915A0450915B044115510576
:1032F00031F06F3F31F421E03F3F19F403C021E08A
:1033000001C020E0F22FF1709F2E20FD23C1F801B3
:10331000C380D48027E5A22E24E0B22EF090590479
:10332000F601E41BF50BFF2009F4CEC020915C04EC
:10333000E83CF10508F099C0422F407F09F051C0E8
:10334000681311C039130FC0FE2CE1100CC02F7090
:10335000206120935C04C5010E941B0280915C04E3
:10336000F801858337C1CD2831F08F3F31F421E05A
:103370009F3F19F403C021E001C020E020FD03C0FD
:1033800021E02E2502C020E030E0F22FF170FF2E68
:1033900020FF1DC020918E0440915D0456E024174B
:1033A00009F4F6C030E0529FF001539FF00D112454
:1033B000E25AFB4F6181861306C06081961303C0F9
:1033C0006281E61204C02F5F3F4F2770E8CFFE2CCA
:1033D000EE2009F4FFC080915C04816080935C045E
:1033E00050C0681307C0391305C0E11003C0F801CD
:1033F00025838DC09D878E878D859E850E94BC1EEE
:10340000882369F1EE2059F120915C04822F829586
:103410008F7090E0029774F0809157049091580457
:1034200098878F831986DB86CA862C87CE010796FC
:103430000E941B0286E0F801A7E5B4E001900D921E
:103440008A95E1F70E94E2180DC06817E1F09D87A8
:103450008E878D859E850E94BC1E81111EC0C8016D
:103460000E941B02FF24F394B5C0422F407F69F7EE
:1034700087E594E00E941B0286E0F50111928A958F
:10348000E9F7F12CA7C03913E2CFE110E0CFF80142
:103490002583C8010E941B0257C0EE2001F3209132
:1034A0005C04822F82958F7090E002971CF28091CD
:1034B0005704909158049A8389831B82DD82CC82C1
:1034C0002E83CE010196B4CFE83CF105E8F5FE2C41
:1034D000EE2029F2681327C0391325C020915C041F
:1034E00020FD18C0822F82958F70482F50E0411523
:1034F000510581F0F80125834F30510541F08F5F70
:10350000982F9295907F822F8F70892B8583C80189
:103510000E941B0286E0F801A7E5B4E001900D923D
:103520008A95E1F757C09D878E878D859E850E947D
:10353000BC1E81117FCF80915C04816080935C040C
:10354000C8010E941B0246C086E0F50111928A95CF
:10355000E9F740C0EE2009F482CF9D878E878D85E4
:103560009E850E94BC1EF82E882309F478CF86E041
:10357000F801A7E5B4E001900D928A95E1F78091FA
:103580005704909158040E94E5170E94E21822C047
:103590009D878E878D859E850E94E517292F229510
:1035A0002F70223028F49F7039F0811105C00BC0B4
:1035B000243028F49F7049F4805E883020F0C801E0
:1035C0000E941B029F2CF92C05C0F8019581907F69
:1035D00099F7F9CF8F2D61960FB6F894DEBF0FBE25
:1035E000CDBFDF91CF911F910F91FF90EF90DF90B2
:1035F000CF90BF90AF909F9008950F931F93CF935C
:10360000DF93EC018B018091E404811102C00E94E0
:10361000A50D8091E30480FF4FC0809171008D7FE4
:10362000809371008091E20481110E94EC0D81E091
:103630008093E104D093E004C093DF041093DE0490
:103640000093DD041092DC041092D8041092D90487
:103650001092DA041092DB041092D7041092D60470
:1036600088819981AA81BB818093D2049093D304ED
:10367000A093D404B093D50420E030E040E85EE3AA
:103680006C817D818E819F810E945E236093CE0438
:103690007093CF048093D0049093D1041092CD0402
:1036A0001092CC04809171008260809371008091AF
:1036B0009000806880939000DF91CF911F910F91CF
:1036C00008950F931F93CF93DF938C010E94E11312
:1036D000811118C0E80108E010E08091E80085FD44
:1036E0000AC08091E8008E778093E8000E94E11381
:1036F000882399F307C089918093F1000150110943
:1037000061F780E0DF91CF911F910F910895982F7D
:10371000973068F59093E900981739F05091EC00D4
:103720002091ED004091F00003C0562F40E022E0D0
:1037300021FD02C09F5FECCF3091EB003E7F3093C4
:10374000EB003091ED003D7F3093ED003091EB00C8
:1037500031603093EB005093EC002093ED004093E8
:10376000F0002091EE0027FDE5CF80E008958F70F6
:103770008093E90081E008951F93CF93DF93CDB745
:10378000DEB7AA970FB6F894DEBF0FBECDBFE4EC4C
:10379000F4E08091F100819324E0EC3CF207C9F75A
:1037A0008091C504833009F460C030F4813071F039
:1037B000823009F49AC0B1C08A3009F486C08B30D7
:1037C00009F46BC0893009F0A8C020C08091C404FE
:1037D000813A09F0A2C08091E800877F8093E800D9
:1037E0008091C8049091C904892B21F468E088EB8A
:1037F00094E003C060E080E090E070E00E94331449
:103800008091E8008B778093E80087C08091C404A2
:10381000813209F082C08091C8049091C904892B3B
:1038200009F07BC08091E800877F8093E800809159
:10383000E80082FD05C08091C2048111F8CF6DC0FF
:103840002091F3008091F20090E0922B029729F4EE
:103850008091F1008B7F813021F48091F100809381
:10386000B7048091E8008B7754C08091C404813AFA
:1038700009F053C08091C8049091C904892B09F0C4
:103880004CC08091E800877F8093E8008091E80039
:1038900080FFFCCF80918B0337C08091C4048132BC
:1038A000E1F58091C8049091C904892BB1F580910C
:1038B000E800877F8093E8000E9414148091C6047A
:1038C00080938B030E94E51E28C08091C40481323E
:1038D00021F58091E800877F8093E8000E9414140E
:1038E0008091C7048093B60418C08091C404813AC3
:1038F000A1F48091E800877F8093E8008091E80040
:1039000080FFFCCF8091B6048093F1008091E800A5
:103910008E778093E8000E9414148091E80083FF62
:10392000BFC18091C4049091C504492F50E04A3032
:10393000510508F0B5C1FA01EE59FF4F0C9464250A
:10394000803821F0823809F0ABC108C08091C004F2
:103950009091C104992389F082600FC08091C804BE
:103960008F70873008F09CC18093E9008091EB0054
:1039700085FB882780F91092E9009091E800977FF5
:103980009093E8008093F1001092F1005EC1282F1F
:103990002D7F09F085C1882319F0823061F080C144
:1039A0008091C604813009F07BC1933009F080E03A
:1039B0008093C1042EC08091C60481112AC08091D9
:1039C000C8048F702FEF280F263008F069C180934C
:1039D000E9002091EB0020FF1CC0933021F480917E
:1039E000EB00806214C09091EB0090619093EB002B
:1039F00021E030E0A90102C0440F551F8A95E2F78B
:103A00004093EA001092EA008091EB008860809376
:103A1000EB001092E9008091E800877F19C18111C5
:103A20003FC11091C6041F778091E3008078812BFD
:103A30008093E3008091E800877F8093E8000E94F4
:103A400014148091E80080FFFCCF8091E30080682F
:103A50008093E300111102C082E001C083E08093F3
:103A6000C2041EC18058823008F01AC18091C60479
:103A70009091C7048C3D53E0950779F583E08A83E4
:103A80008AE289834FB7F894DE01139620E03EE086
:103A900051E2E32FF0E050935700E49120FF03C080
:103AA000E295EF703F5FEF708E2F90E0EA3010F0FC
:103AB000C79601C0C0968D939D932F5F243149F71F
:103AC0004FBF8091E800877F8093E8006AE270E052
:103AD000CE0101960E943314A7C04091C8045091B2
:103AE000C904292F332723303105A9F068F4213088
:103AF000310509F4E4C02230310509F0D1C082E279
:103B000090E0E6E3F3E03DC02132310579F1223265
:103B1000310581F1C5C0992781309105B9F070F068
:103B200082309105D9F0039709F0BAC0EAE6F3E0D4
:103B3000E4918E2F90E0EAE6F3E020C0E0EAF3E0C3
:103B4000E4918E2F90E0E0EAF3E018C0ECE8F3E0B7
:103B5000E4918E2F90E0ECE8F3E010C0E0E7F3E0B2
:103B6000E4918E2F90E0E0E7F3E008C0452B09F4E4
:103B7000ABC096C0452B09F4ACC092C0009709F4C5
:103B80008FC02091E800277F2093E8002091CA048D
:103B90003091CB048217930708F49C0140E0211573
:103BA000310589F18091C204882309F43DC0853034
:103BB000D9F18091E80083FD37C08091E80082FD53
:103BC0002FC08091E80080FFEACF4091F300809100
:103BD000F20090E0942B2115310559F088309105C1
:103BE00040F444914093F1003196215031090196FF
:103BF000F2CF41E0089709F040E08091E8008E772D
:103C00008093E800CCCF4111CDCF0AC08091C2048F
:103C1000882351F0853041F08091E80083FD04C095
:103C20008091E80082FFF2CF8091E8008B7780934B
:103C3000E80036C08038A1F58091E800877F809346
:103C4000E8008091C3048093F1008091E8008E77B2
:103C50008093E8000E94141423C0811121C0809138
:103C6000C6049091C70499270297D4F48091E80084
:103C7000877F8093E8001091C6041093C3040E94CC
:103C80001414111106C08091E30087FD02C081E089
:103C900001C084E08093C20461EC81E00E94871B34
:103CA0008091E80083FF1AC08091E800877F8093AD
:103CB000E8008091EB0080628093EB000FC082E10E
:103CC00090E0E8E5F3E05DCF89E090E0E8E4F3E040
:103CD00058CF80E490E0E6EFF2E053CFAA960FB61B
:103CE000F894DEBF0FBECDBFDF91CF911F91089535
:103CF0001F920F920FB60F9211242F933F934F9361
:103D00005F936F937F938F939F93AF93BF93CF9363
:103D1000DF93EF93FF93C091E900CF708091EC00A7
:103D2000D82FD17080FDD0E81092E9008091F0008A
:103D3000877F8093F00078940E94BC1B1092E9006A
:103D40008091F00088608093F000CD2BCF70C093FD
:103D5000E900FF91EF91DF91CF91BF91AF919F91DA
:103D60008F917F916F915F914F913F912F910F9024
:103D70000FBE0F901F9018950E94E517292F2F70E6
:103D8000E92FE295EF704E2F50E0FA013297EE30B6
:103D9000F105B8F4E459FF4F0C946425803F99F085
:103DA00018F4883E70F40FC0843F59F40CC0883E6C
:103DB00050F0813F31F407C0822F86958695869515
:103DC000089580E0089581E008951092B00486E09F
:103DD000E1E5F4E0DF011D928A95E9F71092AF0466
:103DE0001092AE040C947617882341F08095909140
:103DF000B00489238093B0040C9476170895882327
:103E000039F09091B004892B8093B0040C9476170C
:103E10000895882309F47AC0682F823869F40E94D3
:103E2000920981FF73C069E38FE494E00E94E21677
:103E30000E94761769E30EC0833891F40E949209BC
:103E400080FF64C063E58FE494E00E94E2160E9464
:103E5000761763E58FE494E00E94D5160C947617EC
:103E6000843869F40E94920982FF50C067E48FE4AD
:103E700094E00E94E2160E94761767E4EBCF8CEF85
:103E8000860F813A38F380E2860F883070F46770CD
:103E900081E090E001C0880F6A95EAF780959091E3
:103EA000B00489238093B004D9CF8BE5860F83308B
:103EB000A0F48091E5049091E604892B39F11092E9
:103EC000E6041092E504E0913904F0913A04309749
:103ED000E9F00680F781E02D16C0685A6731B0F42A
:103EE0008091E7049091E804892B81F01092E80416
:103EF0001092E704E0913904F0913A04309731F0E0
:103F00000084F185E02D80E090E009940895CF933E
:103F1000882309F47CC0C82F8238B1F40E9492092A
:103F200081FD75C069E38FE494E00E94E2160E946F
:103F300076172FEF81EE94E0215080409040E1F71A
:103F400000C0000069E317C08338D1F40E949209D1
:103F500080FD5DC063E58FE494E00E94E2160E945C
:103F600076172FEF81EE94E0215080409040E1F7EA
:103F700000C0000063E58FE494E00E94D5163CC0C9
:103F80008438B1F40E94920982FD41C067E48FE455
:103F900094E00E94E2160E9476172FEF81EE94E0E3
:103FA000215080409040E1F700C0000067E4E3CF7B
:103FB0008CEF8C0F813A80F4E1E5F4E087E594E042
:103FC0002191C217E1F08E179F07D1F76C2F8FE474
:103FD00094E00E94E21610C080E28C0F8830B8F4A2
:103FE000C77081E090E001C0880FCA95EAF7909110
:103FF000B004892B8093B004CF910C9476176C2F6A
:104000008FE494E00E94D5160E947617DFCFCF91FF
:1040100008958EE14A9B02C08150E1F74A9BFECF92
:1040200008955A9880E28A95F1F75A9A0895FC010A
:104030002AE02A95F1F728E090E080E031E040E1C5
:104040004A95F1F7880F4A9B02C08160932700C010
:10405000000040E14A95F1F7215089F720E12A95C7
:10406000F1F729B100C0000030E13A95F1F722FBE9
:10407000222720F992272081920F90830895EF92B2
:10408000FF920F931F93CF93DF931F92CDB7DEB7AD
:1040900019828C017C01E60EF11C0E151F0551F0F2
:1040A0000E940920CE0101960E941720F8018193F9
:1040B0008F01F3CF81E09981911180E00F90DF9122
:1040C000CF911F910F91FF90EF9008959093EA0484
:1040D0008093E904529A5A9A08959093EA0480933F
:1040E000E90452985A9AEA9AE9E6F0E080818F7CD6
:1040F00080830895615091E001C0990F6A95EAF7B5
:1041000020E031E0992361F0492F482319F05A9AB1
:10411000232701C05A9840E24A95F1F79695F2CFCD
:10412000222311F05A9A01C05A9880E28A95F1F739
:104130005A980895FF920F931F93CF93DF93EC014A
:104140008C01060F111DC017D10741F0F9900E9494
:10415000112068E08F2D0E947A20F5CFDF91CF915A
:104160001F910F91FF9008951F920F920FB60F921B
:1041700011242F933F934F935F936F937F938F936C
:104180009F93AF93BF93CF93DF93EF93FF935A988F
:10419000529AC091E904D091EA046D81662321F01E
:1041A0008E819F810E949A200E94112080E18A9531
:1041B000F1F75A9852985A9A80E18A95F1F76A81F4
:1041C000662351F08B819C810E943F20E881F98118
:1041D000811104C082E003C0E881F98188E0808316
:1041E0000E940920FF91EF91DF91CF91BF91AF9194
:1041F0009F918F917F916F915F914F913F912F91FF
:104200000F900FBE0F901F901895CF93DF93C09122
:10421000E904D091EA04F894529A5A9885E08A9574
:10422000F1F7000052985A9A80E28A95F1F74A9B7A
:104230000AC0529A5A9AE881F98181E08083789481
:1042400081E090E02CC06D81662381F08E819F819A
:104250000E943F2081110AC0529A5A9AE881F9813E
:1042600082E08083789482E090E019C00E94092067
:1042700080E28A95F1F75A98529A80E18A95F1F78F
:104280006A81662321F08B819C810E949A200E9482
:104290001120E881F9811082789480E090E0DF912C
:1042A000CF910895F999FECF92BD81BDF89A9927D3
:1042B00080B50895A8E1B0E042E050E00C9486217A
:1042C000262FF999FECF92BD81BDF89A019700B4CF
:1042D000021639F01FBA20BD0FB6F894FA9AF99A6F
:1042E0000FBE08950396272F0E9461210E9460212E
:1042F000252F0E946121242F0C9461210196272FE4
:104300000E9461210C946021DC01CB01FC01F99930
:10431000FECF06C0F2BDE1BDF89A319600B40D9211
:1043200041505040B8F708955058BB27AA270E9423
:10433000AC210C941F230E94112338F00E941823F3
:1043400020F039F49F3F19F426F40C940E230EF458
:10435000E095E7FB0C940823E92F0E94302358F3E3
:10436000BA17620773078407950720F079F4A6F55A
:104370000C9452230EF4E0950B2EBA2FA02D0B01B6
:10438000B90190010C01CA01A0011124FF27591B9A
:1043900099F0593F50F4503E68F11A16F040A22FA0
:1043A000232F342F4427585FF3CF46953795279511
:1043B000A795F0405395C9F77EF41F16BA0B620B10
:1043C000730B840BBAF09150A1F0FF0FBB1F661F57
:1043D000771F881FC2F70EC0BA0F621F731F841F9A
:1043E00048F4879577956795B795F7959E3F08F0C0
:1043F000B0CF9395880F08F09927EE0F9795879582
:1044000008950E94E42208F481E008950E941A228F
:104410000C941F230E94182358F00E94112340F08F
:1044200029F45F3F29F00C94082351110C94532375
:104430000C940E230E94302368F39923B1F3552383
:1044400091F3951B550BBB27AA27621773078407A7
:1044500038F09F5F5F4F220F331F441FAA1FA9F33D
:1044600035D00E2E3AF0E0E832D091505040E6952B
:10447000001CCAF72BD0FE2F29D0660F771F881F8C
:10448000BB1F261737074807AB07B0E809F0BB0B7F
:10449000802DBF01FF2793585F4F3AF09E3F510593
:1044A00078F00C9408230C9453235F3FE4F3983E78
:1044B000D4F3869577956795B795F7959F5FC9F77C
:1044C000880F911D9695879597F90895E1E0660FFD
:1044D000771F881FBB1F621773078407BA0720F076
:1044E000621B730B840BBA0BEE1F88F7E0950895DF
:1044F0000E94382388F09F5798F0B92F9927B75119
:10450000B0F0E1F0660F771F881F991F1AF0BA9577
:10451000C9F714C0B13091F00E945223B1E0089560
:104520000C945223672F782F8827B85F39F0B93F52
:10453000CCF3869577956795B395D9F73EF490952A
:104540008095709561957F4F8F4F9F4F0895E894A8
:1045500009C097FB3EF490958095709561957F4FCB
:104560008F4F9F4F9923A9F0F92F96E9BB27939579
:10457000F695879577956795B795F111F8CFFAF489
:10458000BB0F11F460FF1BC06F5F7F4F8F4F9F4FBA
:1045900016C0882311F096E911C0772321F09EE818
:1045A000872F762F05C0662371F096E8862F70E07E
:1045B00060E02AF09A95660F771F881FDAF7880F58
:1045C0009695879597F90895990F0008550FAA0BAE
:1045D000E0E8FEEF16161706E807F907C0F0121616
:1045E0001306E407F50798F0621B730B840B950B19
:1045F00039F40A2661F0232B242B252B21F408956E
:104600000A2609F4A140A6958FEF811D811D08950A
:1046100097F99F6780E870E060E008959FEF80EC75
:10462000089500240A941616170618060906089518
:1046300000240A9412161306140605060895092E7E
:104640000394000C11F4882352F0BB0F40F4BF2BED
:1046500011F460FF04C06F5F7F4F8F4F9F4F08952D
:1046600057FD9058440F551F59F05F3F71F0479523
:10467000880F97FB991F61F09F3F79F08795089508
:10468000121613061406551FF2CF4695F1DF08C027
:10469000161617061806991FF1CF86957105610544
:1046A00008940895E894BB2766277727CB0197F9EC
:1046B00008950E94E42208F48FEF08950E94712368
:1046C0000C941F230E94112338F00E94182320F01D
:1046D000952311F00C9408230C940E2311240C94B0
:1046E00053230E94302370F3959FC1F3950F50E040
:1046F000551F629FF001729FBB27F00DB11D639F94
:10470000AA27F00DB11DAA1F649F6627B00DA11D39
:10471000661F829F2227B00DA11D621F739FB00DDF
:10472000A11D621F839FA00D611D221F749F33274F
:10473000A00D611D231F849F600D211D822F762FE8
:104740006A2F11249F5750409AF0F1F088234AF0C5
:10475000EE0FFF1FBB1F661F771F881F9150504031
:10476000A9F79E3F510580F00C9408230C94532325
:104770005F3FE4F3983ED4F3869577956795B795B8
:10478000F795E7959F5FC1F7FE2B880F911D9695D2
:10479000879597F90895FA01EE0FFF1F30962105CE
:1047A0003105A1F16115710561F48038BFE39B0704
:1047B00049F168949038810561F08038BFEF9B071C
:1047C00041F099234AF5FF3FE1053105210519F133
:1047D000E8940894E795D901AA2329F4AB2FBE2FBA
:1047E000F85FD0F310C0FF5F70F4A695E0F7F739DB
:1047F00050F019F0FF3A38F49F779F930DD00F9047
:1048000007FC9058089546F00C940E2360E070E089
:1048100080E89FE308954FE79F775F934F933F931F
:104820002F930E94C6242F913F914F915F910E9438
:104830005E230C94232429F416F00C9408230C9482
:1048400052230C940E230E943823A8F39638A0F725
:1048500007F80F92E8942BE33AEA48EB5FE70E94EF
:1048600074230F920F920F924DB75EB70F920E9472
:104870000E25E4EFF0E00E9455244F915F91EF91F7
:10488000FF91E595EE1FFF1F49F0FE57E0684427B2
:10489000EE0F441FFA95E1F74195550B0E948824CD
:1048A0000F9007FE0C947C240895DF93CF931F9301
:1048B0000F93FF92EF92DF927B018C01689406C008
:1048C000DA2EEF010E947123FE01E894A591259153
:1048D000359145915591A6F3EF010E94AC21FE015F
:1048E0009701A801DA9469F7DF90EF90FF900F919C
:1048F0001F91CF91DF9108959B01AC0160E070E0C2
:1049000080E89FE30C9406220C9408230C94422523
:104910000E943823D8F39923C9F3940F511DA3F3B0
:104920009150504094F059F0882332F0660F771F71
:10493000881F91505040C1F79E3F51052CF7880FBA
:10494000911D9695879597F908955F3FACF0983E35
:104950009CF0BB27869577956795B79508F4B1606D
:104960009395C1F7BB0F58F711F460FFE8CF6F5F65
:104970007F4F8F4F9F4FE3CF0C94532316F00C942F
:1049800042250C940E2368940C9408230E9438232B
:10499000A8F39923C1F3AEF3DF93CF931F930F9343
:1049A000FF92C92FDD2788232AF02197660F771FF2
:1049B000881FDAF720E030E040E85FEB9FE38839BA
:1049C00020F0803E38F021968F770E949521ECE10F
:1049D000F1E004C00E949521E9E4F1E00E94552431
:1049E0008B01BE01EC01FB2E6F5771097595771F86
:1049F000880B990B0E94A92228E132E741E35FE38B
:104A00000E947123AF2D9801AE01FF900F911F916D
:104A1000CF91DF910E94AC210C941F23FA01DC019D
:104A2000AA0FBB1F9B01AC01BF5728F422273327D5
:104A30004427507820C0B75190F4AB2F00244695FE
:104A400037952795011CA395D2F3002071F0220F12
:104A5000331F441FB395DAF30ED00C9494216130C8
:104A60007105A0E88A07B94630F49B01AC016627BE
:104A7000772788279078309621F0208331834283EE
:104A8000538308959F3F31F0915020F48795779597
:104A90006795B795880F911D9695879597F9089515
:104AA00097FB072E16F4009407D077FD09D00E94DB
:104AB0006A2507FC05D03EF4909581959F4F089597
:104AC000709561957F4F0895EE0FFF1F0590F4914B
:104AD000E02D0994AA1BBB1B51E107C0AA1FBB1FF5
:104AE000A617B70710F0A61BB70B881F991F5A957A
:104AF000A9F780959095BC01CD010895F894FFCF5A
:104B000000005C44000080415C978A4400008041C2
:104B100052D0A444000080410000DC4400008041E9
:104B20000000DC44000000410AA7CF44000000411F
:104B30005CFFB8440000004152D0A4440000004192
:104B40001FD59244000000415C978A440000004158
:104B500048F176440000004100005C440000004140
:104B600000005C44000080411F1569440000804142
:104B700048F176440000804100D08244000080412A
:104B80005C978A4400008041A4D024440000804106
:104B900000005C44000080411FD592440000804129
:104BA0005CFFC344000080410000000000000000E2
:104BB0005CFF4344000080411FD5924400008041C7
:104BC0000000DC440000804152D0244500008041B8
:104BD000000000000000000000005C440000804174
:104BE00048F17644000080415C978A44000080418F
:104BF0001FD592440000804152D0A444000080415F
:104C000003640000005C440000004100005C4400BC
:104C100000004100005C440000004100005C4400D2
:104C200000004148F176440000C04000005C4400B0
:104C300000C04048F176440000C04000005C4400E1
:104C400000C04048F176440000C04000005C4400D1
:104C500000C04048F176440000C04000005C4400C1
:104C600000C04052D02445000000410000DC440058
:104C700000004152D0A4440000404152D0A444005E
:104C80000000410000DC440000004152D0244500F7
:104C90000040410000003F0100005C440000004172
:104CA0000000DC44000000410000DC440000004142
:104CB00000005C440000004100005C440000004132
:104CC00048F17644000000415C978A4400000041AE
:104CD0001FD592440000004152D0A444000000417E
:104CE0005CFFB844000000410AA7CF440000004127
:104CF0000000DC44000000410000DC4400000041F2
:104D00000AA7CF44000000415CFFB8440000004106
:104D100052D0A444000000411FD59244000000413D
:104D20005C978A440000004148F17644000000414D
:104D300000005C440000004100005C4400000041B1
:104D400048F17644000000415C978A44000000412D
:104D50001FD592440000004152D0A44400000041FD
:104D60005CFFB844000000410AA7CF4400000041A6
:104D70000000DC440000004124040024040420045A
:104D8000017A12DD127912771278120100020405FD
:104D900007090B0C0E1011131517181A1C1D1F21D3
:104DA00023242628292B2D2F3032343537393B94B4
:0E4DB00097C63400000000F4F5F6F73133002A
:00000001FF
