:100000000C940B030C9452030C9452030C94372D54
:100010000C9452030C9452030C9452030C9452030C
:100020000C9452030C9452030C94072A0C94F72757
:100030000C94251B0C9452030C9452030C94520301
:100040000C9452030C9452030C9452030C945203DC
:100050000C9452030C94D81A0C9452030C9452032F
:100060000C9452030C9452030C9452030C945203BC
:100070000C9452030C9452030C9452030C945203AC
:100080000C944C060C9452030C9452030C9452039F
:100090000C9452030C9452030C9452030C9452038C
:1000A0000C9452030C9452030C9452034A134A13B7
:1000B000841384136115611561156115DA13B81481
:1000C000C914C9149F15EE15F315F815FD15021680
:1000D00007160C16111616161B16221625162816AC
:1000E0002B162E163116341637163C161F264626AA
:1000F000CF274626CF278E26B126CF279927AC2794
:100100004D284D28602860285628602860286028DF
:100110004D284D285B28602860285B2807634236FD
:10012000B79BD8A71A39685618AEBAAB558C1D3C88
:10013000B7CC5763BD6DEDFD753EF6177231BF004C
:100140000000803F08000000BE922449123EABAA86
:10015000AA2ABECDCCCC4C3E00000080BEABAAAAE1
:10016000AA3E00000000BF000000803F0000000029
:1001700000084178D3BB4387D1133D190E3CC3BD62
:100180004282AD2B3E68EC8276BED98FE1A93E4C0F
:1001900080EFFFBE01C4FF7F3F00000000000001B0
:1001A0000101010101010101020202020202020237
:1001B0000203030303030303030404040404040409
:1001C00005050505050606060606070707070708CD
:1001D000080808090909090A0A0A0B0B0B0C0C0C80
:1001E0000D0D0D0E0E0E0F0F0F101011111112121A
:1001F00013131414151516161717181819191A1A97
:100200001B1B1C1D1D1E1E1F2020212222232424F7
:10021000252626272829292A2B2C2D2D2E2F303133
:100220003232333435363738393A3B3C3D3E3F4045
:100230004142434445464748494A4C4D4E4F505130
:100240005354555658595A5B5D5E5F6162646566EA
:1002500068696B6C6D6F7072737577787A7B7D7E71
:100260008082838587888A8C8E8F91939596989AC1
:100270009C9EA0A2A3A5A7A9ABADAFB1B3B5B7BAD9
:10028000BCBEC0C2C4C6C9CBCDCFD1D4D6D8DBDDAD
:10029000DFE2E4E7E9EBEEF0F3F5F8FAFDFFFFAAA1
:1002A0007F55400001020304050B0A090807062BCD
:1002B0000014001A00080015001700E000040016E2
:1002C00000070009000A00E1001D001B00060019DC
:1002D00000050000000000E300E20001512C002AAC
:1002E00000130012000C0018001C00340033000F33
:1002F000000E000D000B00E500380037003600103E
:1003000000110000000000E700E60002512800296B
:10031000001E001F00200021002200E0000100015B
:1003200000010001000100E10001000100010001E5
:1003300000010000000000E300E20001512C002A4F
:100340000027002600250024002300010001004FA3
:1003500000520051005000010001000100010001A5
:1003600000010000000000E700E60002512800291B
:10037000001E021F02200221022202E000010001F1
:1003800000010001000100E100350201000100014F
:1003900000010000000000E300E20001512C002AEF
:1003A00000270226022502240223023500310230F2
:1003B000022F022E002D003502310030002F002EBA
:1003C000022D0200000000E700E6000251280000B4
:1003D0005C01000100010001000100C25CC55CC7B6
:1003E0005CC95C01000100C35CC65CC85CCA5C01FE
:1003F00000010000000000E300E20001512C003F7A
:10040000003E003D003C003B003A004500440043F4
:100410000042004100400001000100010001000114
:1004200000010000000000E700E600025128000083
:10043000DA0281FFD9F1DB20A4A62EAF00A0C00014
:10044000A1C800AED580A81FD300408D1420003273
:10045000190A00047F3F1F643214643214783C1E72
:100460001E140A0500AE2223252628292A2C2D2F0A
:100470003032333536383A3B3D3E404243454749BA
:100480004A4C4E5051535557595A5C5E60626466EF
:1004900068696B6D6F71737577797B7D7F818385FB
:1004A00087898A8C8E90929496989A9C9E9FA1A3FD
:1004B000A5A7A8AAACAEAFB1B3B4B6B8B9BBBCBE21
:1004C000BFC1C2C3C5C6C7C9CACBCCCDCED0D1D29D
:1004D000D2D3D4D5D6D7D7D8D9D9DADADBDBDBDC9F
:1004E000DCDCDCDCDDDDDDDDDCDCDCDCDCDBDBDB4B
:1004F000DADAD9D9D8D7D7D6D5D4D3D2D2D1D0CEAB
:10050000CDCCCBCAC9C7C6C5C3C2C1BFBEBCBBB9AF
:10051000B8B6B4B3B1AFAEACAAA8A7A5A3A19F9E2D
:100520009C9A98969492908E8C8A89878583817FF5
:100530007D7B79777573716F6D6B696866646260D6
:100540005E5C5A5957555351504E4C4A49474543A2
:1005500042403E3D3B3A3836353332302F2D2C2A3F
:1005600029282625232200AF05010906A101050738
:1005700019E029E71500250195087501810295010B
:10058000750881010507190029FF150026FF009550
:100590000675088100050819012905950575019161
:1005A00002950175039101C009022200010100A01A
:1005B000FA090400000103010100092111010001F1
:1005C0002240000705810308000A12011001000003
:1005D0000008545901000100010203010403300026
:1005E00000001A034C0075006E0061006B0065008E
:1005F000790020004D0069006E00690000001203C0
:1006000079006F00690063006800690072006F0084
:1006100000000403090411241FBECFEFDAE0DEBF9F
:10062000CDBF04B603FE27C08091EF079091F0077D
:10063000A091F107B091F2078730904BA740B04BE3
:10064000D1F41092EF071092F0071092F107109278
:10065000F20714BE84B7877F84BF0FB6F894A895BD
:1006600080916000886180936000109260000FBEEE
:10067000E0E0F8E3099527E0A6E1B4E001C01D92AF
:10068000AF3EB207E1F714E0A0E0B1E0E6EEF6E637
:1006900002C005900D92A631B107D9F70E948616C7
:1006A0000C9471330C9400009091920492FF0DC051
:1006B000282F2871283019F4877F846006C0282FDE
:1006C0002471243011F48B7F886093FF0DC0282F94
:1006D0002871283119F4877E846106C0282F24717F
:1006E000243111F48B7E88612091930420FF0DC08A
:1006F000382F3871383019F4877F816006C0382F61
:100700003171313011F48E7F886021FF0DC0282FA8
:100710002871283119F4877E816106C0282F217144
:10072000213111F48E7E886194FD877E0895CF92E9
:10073000DF92EF920F931F93CF93DF93CDB7DEB786
:10074000A4970FB6F894DEBF0FBECDBF60917D03B6
:100750008091E50780FF0AC0E3EAF2E0AE014F5F57
:100760005F4F8E010B5D1F4FCA0114C080917E0345
:1007700090917F03891780F7E82FF0E09F01220F07
:10078000331FE20FF31FE15BF84F118210821282D8
:100790008F5FF0CF249130E0D901AA0FBB1F2A0F41
:1007A0003B1FD901A15BB84FCD90DD90EC90DA01F1
:1007B000CD92DD92ED92AD013196A017B10751F7C0
:1007C00020917C03FC01B3E02B9FE00DF11D11246F
:1007D000539A8BB1877F9BB198602FB7F894AF0184
:1007E00033E0639F400D511D1124E417F50789F094
:1007F000319168E09BB9000000C037FF8BB9330F1F
:10080000000000C000C000C08BB900C06A9591F71D
:10081000ECCF2FBF8FE594E00197F1F700C0000007
:10082000A4960FB6F894DEBF0FBECDBFDF91CF9177
:100830001F910F91EF90DF90CF9008959091E50771
:1008400090FF16C090917E0320917F03921770F461
:10085000E92FF0E0DF01AA0FBB1FEA0FFB1FE15BEE
:10086000F84F8183608342839F5FF0CF0C9497039E
:1008700008958091E507282F269530E02115310550
:1008800019F48170826005C02B32310524F081702B
:1008900084658093E5070895CF92DF92EF92FF92EF
:1008A0006B017C010E943904B701A60188E090E049
:1008B000FF90EF90DF90CF900C94CC2E8091E907C1
:1008C000882319F081508093E9076091E5077091C2
:1008D000E6078091E7079091E8070C944C0480911B
:1008E000E907833018F48F5F8093E9076091E5078B
:1008F0007091E6078091E7079091E8070C944C040B
:10090000E5EEF7E083E0808311828FEF82838383BB
:100910001482A9EAB4E012968C9112978360129621
:100920008C9360817181828193810C944C04AF928D
:10093000BF92CF92DF92EF92FF920F931F93CF93CC
:10094000DF93E82EF62EE901E42FF0E0611106C0F6
:10095000E256FE4FE4914E2F2E2F71C0062F10E06D
:10096000E256FE4F4491F42FC42ED12C26E0829FF4
:10097000C00111242FEF30E0B9010E9427335BEA58
:100980005603C001579F900D11248E0D911D8E0DA1
:10099000911D582F550F580FD901A01BB10BAC9DBD
:1009A000C001AD9D900DBC9D900D1124E92FF59EC9
:1009B000D0011124AB2FBB277901EA1AFB0AEC9C6A
:1009C000D001ED9CB00DFC9CB00D11245901A51A6D
:1009D000B108A09E7001A19EF00CB09EF00C1124F5
:1009E000EF2CFF242E193F092C9D80012D9D100D09
:1009F0003C9D100D1124212F6230710591F048F4B7
:100A000061157105E1F061307105B9F4242F4B2FA8
:100A100016C06430710569F040F06630710579F0F8
:100A20000CC0242F492FE12F0AC0492FEF2F2B2F65
:100A300006C0292FE42F412F02C0292FEB2F498315
:100A40002883EA83DF91CF911F910F91FF90EF9060
:100A5000DF90CF90BF90AF900895CF93DF9300D0F9
:100A60001F92CDB7DEB79091E50790FF0AC09E01B7
:100A70002F5F3F4F0E9497044B8169818A810E94BA
:100A80001E040F900F900F90DF91CF910895AF92B9
:100A9000BF92CF92DF92EF92FF920F931F93CF936B
:100AA000DF9300D01F92CDB7DEB7182FF62E042F9C
:100AB000E22E9091E50790FF7EC0E92FE695AE2FDC
:100AC000B0E0AB52BC4F8C918093A9049E7F9230D2
:100AD00061F49E012F5F3F4F812F0E9497044B814D
:100AE00069818A810E941E0443C0823019F40091FA
:100AF000E8073EC0863019F41091E60739C0893006
:100B0000D9F38931A9F5E9518E2F8170D82EE69558
:100B1000F0E0E256FD4FA590B490C12CBB2460914B
:100B20008003C61618F52C2D30E0A29EC001A39EAE
:100B3000900DB29E900D112470E00E942733812FFA
:100B4000D11002C0860F01C0861B90917E03290F31
:100B5000311DA901440F551F240F351F215B384F4C
:100B6000402F6F2D0E949704C394D9CF0E94970302
:100B70008091E607181308C08091E707F81204C0B7
:100B80008091E807081729F08091AB048260809378
:100B9000AB041093E607F092E7070093E807EE2016
:100BA00051F06091E5077091E6078091E707909119
:100BB000E8070E944C040F900F900F90DF91CF91A7
:100BC0001F910F91FF90EF90DF90CF90BF90AF906B
:100BD0000895E5EEF7E0438128E0421B08F440E089
:100BE00021E0628181810C944705E5EEF7E04381C5
:100BF00028E0420F08F44FEF21E0628181810C94DC
:100C00004705E5EEF7E0628128E0621B08F460E04A
:100C100021E0438181810C944705E5EEF7E0628194
:100C200028E0620F08F46FEF21E0438181810C948A
:100C30004705E5EEF7E0818121E04381628188503C
:100C40000C944705E5EEF7E0818121E04381628164
:100C5000885F0C94470581E08093720468E070E03F
:100C600081EC91E00C94532481E08093730468E05C
:100C700070E081E491E00C9453246091DE076160A0
:100C80006093DE0787E090E00E94BA2E62E070E099
:100C900081E291E00C9453241F920F920FB60F92B1
:100CA00011244F925F926F927F928F929F92AF9298
:100CB000BF92CF92DF92EF92FF922F933F934F9389
:100CC0005F936F937F938F939F93AF93BF93CF93D4
:100CD000DF93EF93FF938091DD07882309F4C2C16E
:100CE000C0915804D09159041C161D060CF0BAC1CD
:100CF00040905404509055046090560470905704EE
:100D000020E030E0A901C301B2010E94163118169B
:100D10000CF065C0C130D10509F452C08091520475
:100D200090915304BE010E943B337C019093530485
:100D3000809352048090D3079090D407A090D50759
:100D4000B090D60720E030E040E85FE3C501B40191
:100D50000E94522F6093D3077093D4078093D507D6
:100D60009093D607F701EE0FFF1FEE0FFF1FEE5C0B
:100D7000FB4FA301920160817181828193810E9466
:100D8000C32F20E030E040E05EE30E941B319B0176
:100D9000AC01C501B4010E94163118168CF4C701CC
:100DA0000196BE010E943B339093530480935204FA
:100DB0001092D3071092D4071092D5071092D6073D
:100DC000E0915204F0915304EE0FFF1FEE0FFF1F4E
:100DD000EE5CFB4FC080D180E280F380E0C0809168
:100DE00020012197882309F4BFC0C0902E04D09021
:100DF0002F04E0903004F090310420E030E0A901AD
:100E0000C701B6010E94BE2F882309F4A2C0FE01CB
:100E1000EE0FFF1FEE0FFF1FEE5CFB4F80809180F7
:100E2000A280B380A5019401C701B6010E94BE2F24
:100E300087FF31C0A501940160E070E08CED93EC78
:100E40000E94C32F20E030E040E451E40E94C32F11
:100E500020E030E040E05FE30E941B319B01AC01E9
:100E600060E070E080E090E40E9488319B01AC017A
:100E7000C501B4010E941B319B01AC01C701B60141
:100E80000E94BE2F87FF07C0A701960160E070E0B7
:100E90008CED93E439C0A5019401C701B6010E940D
:100EA000163118160CF055C0A501940160E070E0F1
:100EB0008CED93E40E94C32F20E030E040E451E445
:100EC0000E94C32F20E030E040E05FE30E941B312E
:100ED0009B01AC0160E070E080E090E40E9488310A
:100EE0009B01AC01C501B4010E941B319B01AC0107
:100EF000C701B6010E94163118165CF5A7019601CC
:100F000060E070E08CED93EC0E94C32F20E030E0B5
:100F100040E451E40E94C32F20E030E040E05FE372
:100F20000E941B319B01AC0160E070E080E090E426
:100F30000E9488319B01AC01C701B6010E941B31A0
:100F400060932E0470932F048093300490933104A7
:100F50001EC0CC0FDD1FCC0FDD1FCE5CDB4F8881A8
:100F60009981AA81BB810BC0FE01EE0FFF1FEE0F1E
:100F7000FF1FEE5CFB4F80819181A281B381809342
:100F80002E0490932F04A0933004B0933104C090AA
:100F90002E04D0902F04E0903004F0903104809122
:100FA0002C0490912D048F3F2FEF920729F001968A
:100FB00090932D0480932C0480915A04811116C0C3
:100FC0001092200180E090E0A0E0BFE380931C013C
:100FD00090931D01A0931E01B0931F011092540421
:100FE00010925504109256041092570420E034E2F7
:100FF00044EF51E4C701B6010E94BE2F87FF08C02D
:1010000046EFC42E48E2D42E44EFE42E41E4F42E01
:1010100020E030E040E051E4C701B6010E941B31FE
:101020009B01AC0160E074E284E79BE40E94C32F63
:101030006B017C010E94353070939700609396009D
:1010400020911C0130911D0140911E0150911F0102
:10105000C701B6010E941B310E9435307093990080
:10106000609398008091DC07882309F45AC1C090EE
:10107000CD07D090CE07E090CF07F090D00720E0CA
:1010800030E0A901C701B6010E94163118160CF014
:1010900052C080912C0490912D048F3F2FEF920726
:1010A00029F0019690932D0480932C0480915A048A
:1010B000811116C01092200180E090E0A0E0BFE313
:1010C00080931C0190931D01A0931E01B0931F01FA
:1010D0001092540410925504109256041092570422
:1010E00020E030E040E051E4C701B6010E941B312E
:1010F0009B01AC0160E074E284E79BE40E94C32F93
:101100006B017C010E9435307093970060939600CC
:1011100020911C0130911D0140911E0150911F0131
:10112000C701B6010E941B310E94353070939900AF
:101130006093980008C01092970010929600109249
:101140009900109298006091C7077091C8076F5F6F
:101150007F4F7093C8076093C70720919600309126
:10116000970080E090E0232B71F120912B04211156
:101170002AC0C0919600D09197000E9464306B0104
:101180007C01BE0180E090E00E9464309B01AC01D4
:101190006091C9077091CA078091CB079091CC07E5
:1011A0000E94C32F20E03FEF4FE757E40E941B311E
:1011B00020E030E040E85FE30E94512F9B01AC014A
:1011C000C701B6010AC00E9464302091C90730915E
:1011D000CA074091CB075091CC070E94163187FD7A
:1011E000A0C08091D1079091D20701969093D20729
:1011F0008093D1072091D8073091D90782179307A0
:10120000B0F08091D707882329F01092D20710926E
:10121000D1070DC0809171008D7F80937100809106
:1012200090008F73809390001092DC0782C0209111
:101230002B048091D1079091D207E091DA07F091C9
:10124000DB0721113FC021E020932B049C0121509A
:1012500031093093D2072093D10733E0880F991FCB
:101260003A95E1F7E80FF91FDF011897CD90DD906F
:10127000ED90FC902081318142815381C701B601FC
:101280000E94BE2F811109C01092CD071092CE0787
:101290001092CF071092D00708C0C092CD07D0920D
:1012A000CE07E092CF07F092D00780E090E0A0E870
:1012B000BFE38093C9079093CA07A093CB07B0936D
:1012C000CC072BC010922B0410922D0410922C04EA
:1012D00023E0880F991F2A95E1F7E80FF91F808115
:1012E0009181A281B3818093CD079093CE07A09383
:1012F000CF07B093D00720E030E040E85EE36481A0
:101300007581868197810E941B316093C907709314
:10131000CA078093CB079093CC071092C80710920E
:10132000C7078091DE0780FD04C01092DC07109291
:10133000DD07FF91EF91DF91CF91BF91AF919F9129
:101340008F917F916F915F914F913F912F91FF907E
:10135000EF90DF90CF90BF90AF909F908F907F9055
:101360006F905F904F900F900FBE0F901F90189549
:101370000E94861B811102C00E94911B87E090E0B1
:101380000E94A62E8093DE078091DF07811129C07D
:101390003E9A809171008D7F8093710082E08093EE
:1013A00090008AE18093910081EC91E19093970005
:1013B0008093960023EA3BE04EE855E460911C01DF
:1013C00070911D0180911E0190911F010E941B319F
:1013D0000E943530709399006093980081E080936B
:1013E000DF078091DE0780FF06C063E070E084E0E5
:1013F00091E00C94532408958091DF07811102C07D
:101400000E94B809109259041092580480917100FA
:101410008D7F80937100809190008F7380939000F6
:101420001092DC071092DD0710922E0410922F0408
:101430001092300410923104E2E3F4E0ABE1B4E046
:1014400011921192119211921D921D9284E0E23537
:10145000F807B1F708958091730481110C94FC0989
:1014600008950E942B0A1092730468E070E081E8EE
:1014700091E00C94532462E070E081E391E00E94DB
:1014800053242FEF81EE94E0215080409040E1F70B
:1014900000C000000E94FC096091DE076E7F60932F
:1014A000DE0787E090E00C94BA2ECF92DF92EF92A5
:1014B000FF920F931F93CF93DF93682F70E06554D3
:1014C0007109072E000C880B990B0E94663020E0F2
:1014D00030E040E451E40E94C32F9B01AC0160E086
:1014E00070E080E090E40E9488316B017C01809183
:1014F000DD07882309F488C08091DF07811102C0CD
:101500000E94B80920E030E04CED53E4C701B60179
:101510000E941B316B017C0102E514E0C7E0D0E0C2
:10152000A7019601F80192918291729162918F01C7
:101530000E94BE2F811131C0FE01EE0FFF1FEE0F82
:10154000FF1FEE5CFB4F1082118212821382DE01BC
:10155000AA0FBB1FA55EBB4F11961C921E92C730EF
:10156000D105E9F0219644815581668177814083D8
:1015700051836283738314821582168217821296B6
:101580008D919C91139711969C938E9313961C9218
:101590001E92129734961296E2CF219708F6809108
:1015A000580490915904019797FD05C090935904F0
:1015B0008093580404C010925904109258048091EA
:1015C00058049091590420915204309153042817E3
:1015D000390724F01092530410925204892BA1F47D
:1015E000809171008D7F80937100809190008F7346
:1015F0008093900010922E0410922F0410923004C9
:10160000109231041092DD07DF91CF911F910F915D
:10161000FF90EF90DF90CF900895CF92DF92EF92FE
:10162000FF92682F70E065547109072E000C880B3B
:10163000990B0E94663020E030E040E451E40E94C3
:10164000C32F9B01AC0160E070E080E090E40E9459
:1016500088316B017C018091DF07811102C00E94FB
:10166000B8098091DE0780FF52C0809158049091A4
:10167000590408970CF04BC0809171008D7F8093C6
:1016800071008091DC0781110E94FC0920E030E0AC
:101690004CED53E4C701B6010E941B316B017C0184
:1016A00081E08093DD0710922D0410922C0420E03D
:1016B00030E0A901C701B6010E9416311816ECF4FA
:1016C0008091580490915904FC01EE0FFF1FEE0F1A
:1016D000FF1FEE5CFB4FC082D182E282F382FC01ED
:1016E000EE0FFF1FE55EFB4F2FE030E031832083DC
:1016F0000196909359048093580480917100826000
:101700008093710080919000806880939000FF909A
:10171000EF90DF90CF90089580911A04811112C04C
:101720008091D80080618093D8008AE18A95F1F792
:1017300000C08091D90080FD02C082E001C081E03C
:1017400080931A0481E090911A04913009F080E0AE
:101750000895CF93DF9320E3829FC0011124FC0101
:1017600036E0739FE00DF11D1124E60FF11DEE0F21
:10177000FF1FE155FD4FC591D491CE01C238D1056F
:1017800069F1B0F4C133D10509F475C048F4C93228
:10179000D10509F469C0CA32D10509F473C079C012
:1017A000C533D10509F459C0C933D105B9F071C0A9
:1017B000C33ED10571F138F4C03ED105B1F0C23E4F
:1017C000D10511F166C0C63ED105B9F1C73ED105BC
:1017D000C9F1C43ED10509F05CC024C02091920437
:1017E00020FD3CC121FD3AC154C02091920420FD4E
:1017F0002FC12091930420FF36C18091920484FD73
:1018000024C183EE90E02FC12091920422FF2BC1CE
:10181000F4CF8091920482FD1EC18091930480FDDB
:101820001DC1EBCF2091930421FF1DC18091920433
:1018300084FD0BC187EE90E016C12091920423FF36
:1018400012C1F4CF8091920483FD0BC18091930467
:1018500081FFECCF84EE90E006C12091920425FF39
:1018600002C189E290E0FFC02091920425FFFBC0F5
:1018700085E390E0F8C02091920426FFF4C08AE24C
:1018800090E0F1C02091920426FFEDC081E390E04A
:10189000EAC0C11543E5D407A0F5C11552E5D50747
:1018A00008F09CC0C11520E2D207C0F4C11531E098
:1018B000D30708F0D8C0C53AD10540F4C430D105EB
:1018C00008F0D1C0219709F4CEC0BFC09E01205EB0
:1018D00031092830310508F0B8C0C5C0C11541E54F
:1018E000D40708F076C0C11550E5D50708F051C0FF
:1018F000C11580E4D80708F4A8C0CE019F70906A93
:10190000B2C0C11526E5D20700F5C11535E5D307EC
:1019100008F07FC0C11544E5D40708F075C09E01EA
:101920002370332781E090E0AC0102C0440F551FC3
:101930002A95E2F72C2F2695269530E2239FC001A9
:101940001124842B952B9A688EC0C1155AE5D507B2
:1019500078F4C11589E5D80708F064C0C11528E5F9
:10196000D20708F472C09C2F8827806F906A7BC0D2
:10197000CE0190568115904208F067C08D2F8F716F
:101980000E9454039E01332730628F71A901582BA6
:101990005AC0CE01F4E096958795FA95E1F7282F85
:1019A00023703C2F337081E090E002C0880F991FB4
:1019B0003A95E2F79C68AC01522B8C2F8F70282F40
:1019C0002695269530E2239FC0011124842B952B68
:1019D0004AC09C2F8827816F906A45C09E01237062
:1019E000332781E090E0AC0102C0440F551F2A95D7
:1019F000E2F72C2F2695269530E2239FC001112473
:101A0000842B952B9C682FC09C2F8827846F906A0D
:101A10002AC08C2F0E9454038F7190E0982F882742
:101A2000906221C08C2F8F700E9454039E0194E01D
:101A3000369527959A95E1F72F7030E0322F2227BF
:101A40003069A901482BCA010EC080E090E00BC0AC
:101A500089E390E008C082EE90E005C080EE90E05F
:101A600002C086EE90E0DF91CF910895E5EEF7E0B9
:101A700080818E7F80830E94B723E9EAF4E082812F
:101A8000816082832FEF80E792E021508040904078
:101A9000E1F700C000000C9497039091E50790FFD8
:101AA0003BC09170811102C0926006C08B3210F071
:101AB000946502C0880F982B9093E5078091AB0442
:101AC00081608093AB04662351F06091E5077091CB
:101AD000E6078091E7079091E8070E944C04609127
:101AE000E507669570E04BE050E083EA93E00E94E2
:101AF0006433892B19F00E94B72302C00E94382456
:101B000081E08093A60420E04091E8076091E70718
:101B10008091E6070C94470508958091E507869526
:101B2000815009F48AE261E00C944D0D8091E50743
:101B300086958F5F8B3208F081E061E00C944D0D4B
:101B40006F927F928F929F92AF92BF92CF92DF92CD
:101B5000EF92FF920F931F93CF93DF9360E074E0B7
:101B600004E814E028E8E22E24E0F22E3801C0E078
:101B7000AA24A394B12CDB018D91BD01E82FE2953D
:101B8000EF70F0E021A18F70A50102C0440F551F36
:101B90008A95E2F7CA01242B21A322A1942E9094C6
:101BA000292122A350EA5A95F1F798E0C92E94E032
:101BB000D92E20E030E0D0E0D6018D906D01482D87
:101BC00042954F7050E0DA0190964C9150E0B82D5C
:101BD000BF7002C055954795BA95E2F740FD07C022
:101BE0004A2D022E01C0440F0A94EAF701C040E0DA
:101BF000D42B2F5F3F4F26303105F1F691A199226A
:101C000091A292A1892B82A3F3018081D81719F0A8
:101C1000D08381E001C080E0C82BFFEF6F1A7F0AFC
:101C2000E614F70409F0A7CFD0908D04CC2349F037
:101C300081E0809318040E94191B909317048093ED
:101C40001604809118048823A9F0809116049091BD
:101C500017040E94FE1A069768F0ED2DF0E0E85692
:101C6000FB4FD8018D918D018193EA16FB06C9F7D0
:101C7000109218040E948C0B8823D1F110918C04CF
:101C80008091AB048823E9F085E0E5EEF7E0A6E774
:101C9000B4E001900D928A95E1F78091A9049091AA
:101CA000AA04A091AB0480937B0490937C04A0933E
:101CB0007D0481E090E00E94C72D892B11F41092E1
:101CC000AB0480E090E00E94C72D892B09F060C032
:101CD000E12FF0E0E856FB4F80E090E0DC01A158F6
:101CE000BB4F2C912193019684309105B9F7AAC07E
:101CF000E0918D040E2F10E080917E048830C9F5AC
:101D000080917D0480FF12C08091760480FF0CC01A
:101D10008091E50781608093E5078091760460E01B
:101D200086950E944D0D02C00E94360D80917D0463
:101D300081FF09C020E0409179046091780480918E
:101D400077040E94470580917D0482FF09C080913D
:101D50007C04882319F00E94382402C00E94B72313
:101D600080917D0483FF03C081E08093A6041092DC
:101D70007E04F801E856FB4F80E090E02191DC0101
:101D8000A158BB4F2C93019684309105B9F75DC0E3
:101D9000809119048F5F80931904863008F048C041
:101DA00080916F04882309F450C080916B04909156
:101DB0006C04009781F40E94191B90936C0480932B
:101DC0006B0420916D0430E02115310571F4809190
:101DD0006E0490E00BC00E94FE1A20910203309125
:101DE00003032817390738F330C0C9010197F901F7
:101DF000E55AFB4FD08120917304222331F0FC017E
:101E0000E55AFB4F80810E94550A80917304882314
:101E100019F08D2F0E940D0B80916D0490E00196BA
:101E200060916E0470E00E943B3380936D040DC09E
:101E3000E0918C04F0E0E856FB4F10821182128290
:101E40001382AECF10921904ABCF8C2FDF91CF91BC
:101E50001F910F91FF90EF90DF90CF90BF90AF90C8
:101E60009F908F907F906F9008958F929F92AF92E6
:101E7000BF92CF92DF92EF92FF920F931F93CF9377
:101E8000DF93CDB7DEB7AD970FB6F894DEBF0FBEC8
:101E9000CDBFFC010081D18083819481892B39F0F1
:101EA0001FEFD11206C091E00F3F19F403C091E07B
:101EB00001C090E090FDE5C67F0185E0DE019996C6
:101EC00001900D928A95E1F7D70112962C9189A580
:101ED0009AA5222349F00E94271C182F682F89A554
:101EE0009AA50E94A11C03C00E94741C182FB0E385
:101EF0001B9FF001112416E0D19EE00DF11D11246D
:101F0000E00FF11DEE0FFF1FE155FD4F05911491FC
:101F10000D312CE5120749F4D70112968C918823D4
:101F200009F459C00E943D062DC60E31BCE51B07C1
:101F300041F4F7018281882309F44DC00E943B0AD5
:101F400021C60F31FCE51F0759F4D70112968C9179
:101F5000882309F440C08091DE0780FDEFCFE2CFF7
:101F6000C8018A529C45029758F4F7018281882360
:101F700091F110925A0464E070E081E092E023C095
:101F800006322CE5120711F10732BCE51B0709F4F4
:101F9000FDC00832FCE51F0709F4EBC00C32BCE5BC
:101FA0001B0709F4FBC00D32FCE51F0709F0FEC05A
:101FB000D70112968C91882371F01092720468E018
:101FC00070E081E292E00E945324DCC5D7011296B2
:101FD0008C918111D8C020917304211105C080918A
:101FE0007204882309F411C1F7013281332309F403
:101FF0004BC0003E110561F40E942B0A81E08093E2
:1020000071041092700410926F0410926E04BAC59D
:10201000023E110571F40E942B0A809171048823FD
:1020200019F081E0809370041092710410926F0493
:10203000A9C5033E110591F480917004882321F114
:102040000E942B0A1092710481E080936F04109219
:102050006D0410926C0410926B0494C50235110546
:1020600031F480910203909103030A9708C001356F
:10207000110551F480910203909103030A96909305
:102080000303809302037EC58091010381110DC07B
:10209000D70111964C91119788E090E0841B91092B
:1020A0004C91405FD42EBCE01DC0813069F4F70133
:1020B000418188E090E0841B9109D82EDD0CDD0C75
:1020C000D80E80818D5C31C0823081F4D7011196A9
:1020D0004C91119788E090E0841B91094C914D5CE4
:1020E000D42EB7E08B9FD00C112423C08330F9F499
:1020F00083E2E2EBF3E0DE01119601900D928A9506
:10210000E1F7F7018081FE01E80FF11DD70111967B
:102110004C9188E090E0841B9109D084BCE08B9FB7
:10212000D00C11248D2D59E0D52ED80E02C04CE0D4
:10213000D42E3323A1F0222319F08D2D0E940D0BF4
:1021400080917104882381F080916E04E82FF0E083
:10215000E55AFB4FD0828F5F80936E0405C0222327
:1021600019F08D2D0E94550A0F3F110508F04DC042
:1021700009C5D70112968C91882309F42CCF809140
:102180007304811108C00E943406FCC4F7018281E7
:10219000882309F420CF0E94310AF4C4F701828118
:1021A000882309F418CF0E942B06ECC40E32BCE53C
:1021B0001B0751F4F7018281882309F40CCF809129
:1021C00072048111FACEEFCF0932FCE51F0709F046
:1021D00002CFD70112968C91882309F4FCCE0E947D
:1021E0002B0A2091010330E02F5F3F4F23703327EC
:1021F0002093010348E2429FC001439F900D1124A8
:1022000065E070E08F599D4FDECE033F3CE513073C
:1022100049F406E221EE40EE63EF7CE5C7010E943F
:10222000BE23B0C4043F4CE5140708F073C1083D59
:102230005CE5150731F407E225EE45EE68ED7CE537
:10224000EDCF093D8CE5180731F408E221E045EEB9
:1022500069ED7CE5E3CF073D9CE5190731F406E223
:1022600021EE41EE67ED7CE5D9CFF701928199230C
:1022700009F485C1109274040230FCE51F0708F4CC
:1022800068C106312CE5120738F098012A5F3C45F9
:102290002930310508F05DC10E94751B90939304AD
:1022A0008093920400313CE5130709F4CAC008F09A
:1022B00042C008305CE5150709F4A0C0F0F4043012
:1022C0009CE5190709F486C068F40230BCE51B07D9
:1022D00009F47CC003301C4509F00CC180919204C4
:1022E00082607BC00630FCE51F0709F47FC008F060
:1022F00081C080919204886070C00C303CE5130767
:1023000009F48BC068F40A305CE5150709F47AC05B
:1023100008F07FC00E9464288091920480685DC0AC
:102320000E309CE5190709F47CC008F086C0809146
:1023300092048B7F52C00B3FBCE51B0709F450C0D1
:1023400020F50331FCE51F0709F483C078F401315F
:102350003CE5130709F479C002311C4509F0CAC0F5
:102360000E946428809192048F7737C005315CE524
:10237000150709F47CC008F4ACC00A3F1C4509F0FD
:10238000B9C08091930481602EC00F3FACE51A075D
:1023900009F466C070F40D3FECE51E0709F449C06E
:1023A00008F443C080919304826081608093930419
:1023B00084C001302DE5120709F497C008F470C0FD
:1023C00002301D4509F096C060E090C080919204F3
:1023D000816003C0809192048460809392048AC0DB
:1023E0008091930482608093930484C080919204CE
:1023F0008061F3CF809192048062EFCF809192044C
:102400008064EBCF80919204886084608093920412
:102410003DC0809192048E7FE0CF809192048D7FA9
:10242000DCCF80919204877FD8CF809193048E7FF8
:10243000DACF809193048D7FD6CF809192048F7EE6
:10244000CCCF809192048F7DC8CF809192048F7BF6
:10245000C4CF80919204877F8B7F809392041BC0AE
:10246000809193048D7F8E7F809393042BC0809105
:10247000920482FB222720F991E0922790FB82F9B7
:1024800090FB83F980939204992329F064E070E033
:1024900084E493E01BC062E070E084E193E016C046
:1024A00080919304982F909591708E7F892B90FB4B
:1024B00081F980939304992329F064E070E084E229
:1024C00093E004C062E070E084E093E00E94532453
:1024D00011C00E9464288091920487FB222720F972
:1024E00091E0922790FB87F978CF61E08EE090E051
:1024F0000E94BA2E609192041091930484E090E0BF
:102500000E94BA2E612F81E290E00E94BA2E0E94B2
:10251000642838C3053FACE51A0731F406E221EE22
:1025200042EE65EF7CE57ACE053FBCE51B0730F453
:1025300007E225EE44EE64EF7CE570CE063FECE565
:102540001E0709F092CE07E225EE46EE66EF7CE527
:1025500065CE0631FCE51F0719F5809142078A7A9E
:1025600091E009F490E090937504882311F065E3FD
:1025700001C069E281EE96E00E945B1B0EC006314D
:10258000BCE51B07A9F580917504882309F41AC3DB
:1025900065E381EE96E00E944E1B0E94FA1BF2C298
:1025A0000115ACE51A0731F00E3D1C4559F50E94A6
:1025B000911BE8C20E9464280E942B0A0E94191BEA
:1025C0008C0163E070E084E693E00E945324C8012C
:1025D0000E94FE1A8A3F910538F4EFE9FFE0319737
:1025E000F1F700C00000F3CF0E94FC090E94B41A6A
:1025F000809142078272F801E25CFC45E431F1050A
:1026000008F4E2C2D7010D911C91992349F0C80149
:102610000E94271CD82E682FC8010E94A11C04C04C
:10262000C8010E94741CD82EB8018D2D0E94A90BE0
:102630008C01982EF701B580B2942FE0B222A280CF
:10264000A1101092410780913F07877099F0AA204E
:1026500089F0812F807F803421F080E2800F8830E4
:1026600048F082E00E94141D80913F078770DD24AE
:10267000D3948111D12CC12EC2949FE0C9228C2DFC
:1026800090E08C30910508F01CC2FC01EA5AFF4F23
:102690000C944F33812F807F1F70882311F0129587
:1026A000107FAA20B9F0112309F4F6C180E2800F4F
:1026B000883010F0911006C080914207182B1093BB
:1026C000420705C080914107182B109341070E94D3
:1026D000FA1BE2C1802F0E948828112309F4F1C15E
:1026E000005E1095083010F0911006C080914207EE
:1026F00018231093420705C08091410718231093B7
:1027000041070E94FA1BDDC1812F807F1F7080323C
:1027100011F01295107F992021F0F1E09F16E1F061
:102720002AC0AA2081F080914307BB2051F001E02C
:10273000B01207C0182B181709F4C3C11093430730
:10274000C0C1812B10C0BB2021F021E0B21609F4DA
:10275000B8C10E94F41B2AC0AA2041F035E03B1505
:1027600008F4AFC1812F0E947E28ABC144E04B1515
:1027700008F4A7C11BC0AA2061F0BB2099F3D701C0
:1027800015968C91159780FF87C18F7015968C9345
:10279000E9CFBB2059F0093309F090C1BFEFE7EE54
:1027A000F3E0B150E040F040E1F786C1812F0E9494
:1027B000732887C1812F837009F069C0A11085C17A
:1027C000902F929596959770990F990F802F8F70F3
:1027D000882E912CA12CB12C092E04C0880C991C98
:1027E000AA1CBB1C0A94D2F704FF12C04FE050E0B1
:1027F00060E070E004C0440F551F661F771F9A9574
:10280000D2F7DB01CA0180959095A095B09503C0E1
:1028100080E090E0DC0116951695412F4370423020
:1028200019F1C8F40091440710914507209146071B
:1028300030914707413059F088299929AA29BB29A5
:10284000BC01CD0160237123822393230AC0802A17
:10285000912AA22AB32ABC01CD01682979298A29A3
:102860009B290E944E1D31C188299929AA29BB297B
:102870000091440710914507209146073091470782
:10288000BC01CD016027712782279327EACFAA20B8
:1028900019F0812F817001C08695882309F415C134
:1028A000902F929596959770990F990F802F8F7012
:1028B000882E912CA12CB12C092E04C0880C991CB7
:1028C000AA1CBB1C0A94D2F704FF12C04FE050E0D0
:1028D00060E070E004C0440F551F661F771F9A9593
:1028E000D2F7DB01CA0180959095A095B09503C001
:1028F00080E090E0DC0116951695412F4370423040
:10290000D9F068F500918E0410918F042091900405
:1029100030919104413059F088299929AA29BB297D
:10292000BC01CD0160237123822393231EC0802A22
:10293000912AA22AB32A13C088299929AA29BB2936
:1029400000918E0410918F04209190043091910495
:10295000BC01CD01602771278227932706C0BC01E7
:10296000CD01682979298A299B290E94CD1CADC0F7
:102970001F70AA2039F0812F0E942D1D802F0E94E8
:102980007E28A3C0802F0E947328812F0E94EF1CF5
:102990009CC0802F22EF921609F440C0291538F010
:1029A00030EF931661F041EF941699F170C053EF38
:1029B0009516D9F194EF991609F44EC068C0AA2073
:1029C00019F1A4E0AB1508F47CC01F7181E090E020
:1029D000A0E0B0E0AC01BD0104C0440F551F661F6C
:1029E000771F1A95D2F780918E0490918F04A09151
:1029F0009004B09191048A019B01082719272A2786
:102A00003B27C901B80121C025E02B1508F459C0A6
:102A1000DCCFAA2029F0812F8F712CC0AA20D9F3F6
:102A2000812F8F710E94EF1C4CC0AA2089F01F716A
:102A300081E090E0A0E0B0E0BC01CD0104C0660FF1
:102A4000771F881F991F1A95D2F70E94CD1C39C095
:102A500060E070E0CB01F9CFAA2079F01F71812FDF
:102A60000E942D1D38E0139FC001112483608093C4
:102A70003F07812F0E942D1D24C081E00E94141D5C
:102A800041E04B15F0F482E00E94141D1AC0AA2008
:102A900039F0BB2009F4BFCF802F0E94062911C056
:102AA000BB2009F4BDCF893349F45FEF87EE93E093
:102AB000515080409040E1F700C00000802F0E94FC
:102AC000882888EF8C0D843010F40E947123DD205B
:102AD000B1F080913F0780FD12C0D70112961C9281
:102AE0008595859585950E942D1DC7010E94350FFE
:102AF00080913F078595859585950E94EF1C85E01F
:102B0000F701DE01949601900D928A95E1F78CA170
:102B10009DA10E94741C9DA1B0E38B9FF001112424
:102B200006E0909FE00DF11D11248CA1E80FF11D2E
:102B3000EE0FFF1FE155FD4F85919491A2C080914A
:102B4000E50780FF45C08E7F8093E5076091E5072C
:102B50007091E6078091E7079091E8070E944C0486
:102B60000E94B7238091AB0481608093AB045FEF38
:102B700080E792E0515080409040E1F700C00000B3
:102B80000E94970380913F07877009F47AC0D701AC
:102B900012968C91882309F474C082E0AD960FB62A
:102BA000F894DEBF0FBECDBFDF91CF911F910F9183
:102BB000FF90EF90DF90CF90BF90AF909F908F905D
:102BC0000C94141D69E2E5CCEE59FF4F0C944F3381
:102BD00081608093E50761E0869550C04DE85DE037
:102BE00066E97DE02CC046E95DE06DE87DE027C048
:102BF00049E156E062E276E022C042E256E069E155
:102C000076E01DC041E056E06DE076E018C04DE092
:102C100056E061E076E013C049EE55E065EF75E0FF
:102C20000EC045EF55E069EE75E009C04EE554E091
:102C30006FE674E004C04FE654E06EE574E00E9475
:102C4000B123A0CF61E081E019C065E082E011C04E
:102C500068E086E00EC06EE089E00BC064E18FE0C2
:102C600008C067E185E105C061E088E107C062E274
:102C700089E10E949F2386CF61E083E20E944D0D8F
:102C800081CFAD960FB6F894DEBF0FBECDBFDF91FA
:102C9000CF911F910F91FF90EF90DF90CF90BF9059
:102CA000AF909F908F900895089508950895809112
:102CB000B2070895CF93DF9321E02093E9002FEF2F
:102CC0003091E800215035FD06C035ED3A95F1F719
:102CD00000002111F5CF2091E80025FF14C0EC0180
:102CE00040E050E068E070E00E94E0248091E8005D
:102CF0008E778093E80088E0FE01A3EBB7E00190B7
:102D00000D928A95E1F7DF91CF910895CF93DF93EC
:102D1000CDB7DEB72C970FB6F894DEBF0FBECDBF90
:102D200084B7877F84BF0FB6F894A8958091600020
:102D3000886180936000109260000FBE90E080E890
:102D40000FB6F89480936100909361000FBE85B731
:102D5000806885BF85B7806885BF0E9488290E94EA
:102D6000A7298091E20084608093E20078948091AA
:102D7000BD078823A1F01091E9001F709091EC002D
:102D8000892F817090FD80E8182B1092E9008091C6
:102D9000E80083FD0E943B251F701093E90082E04C
:102DA00084BD93E095BD9AEF97BD80936E000E941D
:102DB0008C0B8093910380919103882321F01092D2
:102DC0007C0386E003C086E080937C0380937D03D0
:102DD0000E948C0B882331F062E070E081E893E080
:102DE0000E94E52C8091910380919103811102C092
:102DF00094E001C090E090938D0484E0891B80935F
:102E00008C04A0E0B4E044E054E061E070E08D9117
:102E1000E82FE295EF70F0E021A18F708B0102C0E6
:102E2000000F111F8A95E2F7C801902F9095922309
:102E300091A392A1892B82A34A175B0741F7A8E0CF
:102E4000B4E04EE054E061E070E08D91E82FE2954F
:102E5000EF70F0E021A18F708B0102C0000F111FF5
:102E60008A95E2F7C801902F9095922391A392A1A1
:102E7000892B82A34A175B0741F7E4E8F4E08CE86A
:102E800094E0A8E9B4E011921D928E179F07D9F73C
:102E90000E94A00D8FE39CE90197F1F700C00000AC
:102EA0000E94A00D8091980480FF08C06FEF7FEF13
:102EB00080E090E00E94D82E0E94B41A0E94861BE7
:102EC000811102C00E94911B0E94B8090E948C0BC4
:102ED000811106C062E070E081E893E00E94EE2C70
:102EE0001092CD0680E88093AC040E94A02B6DE088
:102EF00070E082E494E00E94B724892B09F03FC07F
:102F00008091CD0663E070E081FD36C08FE394E0F0
:102F10000E94B724892B99F56DE070E08FE294E070
:102F20000E94B724892B59F50E940D1BDC01CB01AF
:102F3000805A9541AF4FBF4F8093D1069093D206F0
:102F4000A093D306B093D40680E092E0EDECF4E0D9
:102F5000DF018C011D9201501040E1F78FEF9FEFD0
:102F60009093D0068093CF0681E08093D60680931D
:102F7000D5061092CE0603C08CE394E0C9CF0E9420
:102F8000861B811102C00E94911B82E090E00E948A
:102F9000A62E8093D8060E94751B9093930480936D
:102FA000920483E090E00E94A62E682F70E080E0FB
:102FB00090E00E944E1D80919404811138C00E94BF
:102FC000861B811104C00E94911B0E94800488E02E
:102FD00090E00E94AE2E6093E5077093E607809321
:102FE000E7079093E8078091AB0483608093AB047C
:102FF0006E7F71F40E94800488E090E00E94AE2E03
:103000006093E5077093E6078093E7079093E807DE
:103010000E9439040E94B7238091E50780FF04C015
:1030200060E086950E944D0D81E08093940489E9CB
:1030300093E0909396048093950444244394512CF8
:1030400082E5282E84E0382E8091BD07853009F076
:103050004BC08091BD07843009F434C010929704AE
:1030600020E488E190E00FB6F894A8958093600082
:103070000FBE209360000E94B7238091EB0781115F
:103080000AC081E08093EB078091E507817080930F
:10309000EA070E94360D83B7817F846083BF83B7C0
:1030A000816083BF7894889583B78E7F83BF0FB686
:1030B000F894A895809160008861809360001092D8
:1030C00060000FBE8091BC07882309F4BDCF0E9429
:1030D000A00D80EA94E0E8E9F4E0219121112EC2EC
:1030E0008E179F07D1F7B0CF0E94A00DD82E0E9457
:1030F0008C0B8823A1F1E9EDF6E0A8E9B4E000E04B
:1031000010E0302F2D919191922721F180E0FF2442
:10311000F3944F2D4923D1F089833A832F2181E005
:1031200009F480E08B830E94191B8160782F9D83B6
:103130008C8349815A816B818D810E94D522F8014F
:10314000E752F94F8081F826F08219C08F5FFF0C9B
:103150008630F9F60F5F1F4F0830110591F68FEF9B
:103160008E838F8318860E94191B8160782F9A871F
:1031700089874E815F8168858A850E94D5228091EA
:10318000AA04882309F4C5C08091A904E091E50749
:10319000E695E81BE093A504823049F4F0E0E05A9C
:1031A000FB4FE491AE2EB12C01EC12E25DC08630F3
:1031B00049F4F0E0E35AFB4FE491AE2EB12C01EB61
:1031C00012E252C0893051F4E695F0E0E65AFB4F26
:1031D000E491AE2EB12C06E312E246C08F3051F4DA
:1031E000E695F0E0E95AFB4FE491AE2EB12C09E9E7
:1031F00011E23AC0853149F4F0E0EC5AFB4FE4911A
:10320000AE2EB12C03E111E22FC08831D1F0833210
:1032100031F4F101A590B49001E712E225C08432A7
:10322000B1F08532D9F48E2F63E00E940D33E92F7F
:10323000F0E0E15BFB4FE491AE2EB12C02E81FE120
:1032400013C018E2A12EB12C00E810E20DC0B4EFBB
:10325000AB2EBB24B39401E410E206C0A0EDAA2E6D
:10326000A7E0BA2E01E81FE18091A604882389F027
:103270001092A6040E94191B950120953095820F8B
:10328000931F9093A4048093A3041092A804109217
:10329000A7048091A3049091A4040E94FE1A8A15A9
:1032A0009B05B8F18091A2048823B1F01092A2048A
:1032B0008091A0049091A1040E94FE1A803395474A
:1032C00058F00E94191B9093A1048093A004809150
:1032D000AB0488608093AB04E090A704F090A8044E
:1032E000E091A304F091A404AE0EBF1EB092A4041A
:1032F000A092A30483EA94E0F80109958091A704C1
:103300009091A804892B29F4EF2819F081E080938B
:10331000A2048091D606882309F401C12091CF062A
:103320003091D0062115310509F4D9C08091CE061F
:103330008111D5C0082F10E07201082E02C0EE0CDA
:10334000FF1C0A94E2F7A9014E215F21452B11F4DD
:103350008F5FF0CF9091CD069801F5E0220F331FDB
:10336000FA95E1F790FD12C08295880F80768093E0
:103370009403220F232F221F330B319520939703A1
:10338000815E809395031092980312C075E0369584
:1033900027957A95E1F7220F220F220F20939403AD
:1033A00010929703295F2093950383E080939803FD
:1033B00024E630E047E050E062E973E088E70E94ED
:1033C0002D2C892B09F08BC08091CD0680FD22C069
:1033D000A80165E0440F551F6A95E1F743535B4F21
:1033E00004E610E020E230E060E488E70E94542C1C
:1033F000892B09F074C00E947D23E094F0948091A1
:10340000CF069091D006E822F922F092D006E09201
:10341000CF0665C080E2ADEAB4E01D928A95E9F777
:10342000A80135E0440F551F3A95E1F7E2E1F4E0D9
:10343000FC87EB870EE014E0AB85BC858D91BC87E3
:10344000AB87F80191918F01BA01690F711D635328
:103450007B4F90E083559B4FFC0127E0922E9F010C
:10346000281B390B742C01C0770C2A95EAF75B01F5
:10347000812CD501CD905D01C720292D28192770F9
:10348000622E022E000C330BBC2D01C0BB0F6A94C0
:10349000EAF76B2E3195219531092770332701C04A
:1034A000C6942A95EAF76C28C0806C2860828394C1
:1034B00028E08212DECF9A9431963FEF9312CFCF5D
:1034C00086E194E0AB85BC858A179B0709F0B4CFF1
:1034D00004E610E020E230E04DEA54E085CF809130
:1034E000D5068823E1F00E940D1B0091D1061091B2
:1034F000D2062091D3063091D406DC01CB01801B8B
:10350000910BA20BB30BB7FD0AC062E070E084E63A
:1035100094E00E94B724892B11F41092D506D110A3
:103520000E947D230E9471239091D706891709F488
:103530008BCD0E9471238093D70686CD80E189BD13
:1035400082E189BD09B400FEFDCF8091D8008F7D56
:103550008093D8008091E00082608093E0008091A9
:10356000E00081FDFCCF70CD81E08093E00080E23F
:103570008093D8001092C9008FE19EE40197F1F783
:1035800000C0000087E090EBDC018093EF07909390
:10359000F007A093F107B093F2079CE088E10FB623
:1035A000F894A895809360000FBE90936000FFCFC1
:1035B00078941F920F920FB60F9211248F939F93BE
:1035C000AF93BF938091480790914907A0914A0714
:1035D000B0914B070196A11DB11D809348079093B0
:1035E0004907A0934A07B0934B07BF91AF919F91B2
:1035F0008F910F900FBE0F901F9018959C014FB7A1
:10360000F8948091480790914907A0914A07B0919A
:103610004B074FBF821B930B08952FB7F89460910F
:1036200048077091490780914A0790914B072FBF37
:1036300008952FB7F8948091480790914907A09179
:103640004A07B0914B072FBF08951F920F920FB6F4
:103650000F9211248F939F93AF93BF938091970400
:10366000811113C08091480790914907A0914A07A2
:10367000B0914B074196A11DB11D809348079093CF
:103680004907A0934A07B0934B07BF91AF919F9111
:103690008F910F900FBE0F901F9018959C012A5F7D
:1036A0003F4FFC014281461301C0128201968217EE
:1036B0009307B9F708959C01FC0132969FEF80E0D3
:1036C0004191461789F09F3F19F4411101C0982F8D
:1036D0008F5F8630A9F79F3F39F0F901E90FF11D9F
:1036E00097FDFA95628308950895CF9384E090E062
:1036F0000E94A62EC82F81E290E00E94A62E2C2FB9
:1037000030E0A901582BCA01CF91089580E090E0E4
:103710000E94B42E21E08C3E9E4F09F020E0822FC3
:1037200008956CEE7EEF80E090E00E94D82E60E07D
:1037300082E090E00E94BA2E60E083E090E00E9478
:10374000BA2E109244071092450710924607109225
:10375000470760E084E090E00E94BA2E60E081E2DA
:1037600090E00E94BA2E60E085E090E00E94BA2EC0
:1037700060E086E090E00E94BA2E6FEF87E090E074
:103780000E94BA2E40E050E0BA0188E090E00E942A
:10379000CC2E60E08DE090E00E94BA2E40E050E038
:1037A000BA0188E190E00E94CC2E60E087E190E0D1
:1037B0000E94BA2E40E050E0BA018CE190E00E94F5
:1037C000CC2E60E080E290E00E94BA2E40E050E013
:1037D000BA018FE090E00E94CC2E40E050E0BA01A8
:1037E00083E190E00C94CC2E8091430781111092DC
:1037F000430708959091420780914107892B2091BA
:103800004007982F922B9093E106809143078823DD
:1038100089F0892B8093E106E3EEF6E097E080E003
:10382000915029F021912223D9F38F5FF9CF811193
:103830000E94F41BE0919504F0919604309731F0CA
:103840000280F381E02D81EE96E009940895BF9205
:10385000CF92DF92EF92FF920F931F93CF93DF935C
:103860008C01C0908E04D0908F04E0909004F09072
:1038700091048091440790914507A0914607B0912B
:103880004707C82AD92AEA2AFB2ACFE1D0E0D70184
:10389000C6010C2E04C0B695A795979587950A94F6
:1038A000D2F780FD04C0219790F7B12C07C0BC2E41
:1038B000B8018C2F0E94A90B0197A9F38B2DDF91E2
:1038C000CF911F910F91FF90EF90DF90CF90BF901D
:1038D0000895CF93DF93EC010E94271CBE010E9444
:1038E000A90BDF91CF910895292F220F920F990FE5
:1038F000890F682F669566956695982F977085E075
:10390000689FB001112440E050E080E0FB01E40F2B
:10391000F51FEF5DF84F208130E0092E02C036958B
:1039200027950A94E2F721703327042E01C0220F55
:103930000A94EAF7822B4F5F5F4F4530510531F70C
:103940000895292F220F920F990F890FE82FE695DE
:10395000E695E695877051E001C0550F8A95EAF724
:1039600085E0E89FF0011124EF5DF84F20E030E0A2
:1039700070E04081CB01022E02C0969587950A9493
:10398000E2F78170819584278523842781932F5FB7
:103990003F4F2530310569F708950F931F938B0131
:1039A0009C010670112722273327DC01CB0106304A
:1039B00011052105310511F4886001C0877F8093CE
:1039C0008E0490938F04A0939004B093910410926E
:1039D0004107109240071F910F910C94FA1B0F930F
:1039E0001F9341E050E060E070E004C0440F551FB9
:1039F000661F771F8A95D2F7409550956095709510
:103A000080918E0490918F04A0919004B0919104C4
:103A10008A019B01082319232A233B23C901B801EA
:103A20001F910F910C94CD1C20913F07809582230C
:103A300080933F07982F977079F430E0482F082E35
:103A4000000C550B2417350739F08595859585951C
:103A50000E94EF1C10923F0708950F931F9341E0BF
:103A600050E060E070E004C0440F551F661F771FF0
:103A70008A95D2F780918E0490918F04A091900442
:103A8000B09191048A019B01082B192B2A2B3B2B07
:103A9000C901B8011F910F910C94CD1C609344078C
:103AA000709345078093460790934707109241070C
:103AB000109240070C94FA1B809120079091EF061A
:103AC000891719F08F5F8770FBCF08950F931F93AD
:103AD000CF93DF938091EE0682958F7009F05DC0E1
:103AE0008091EB06882309F458C08091200710913B
:103AF000EF066091E9067091EA06C091EC06D0915C
:103B0000ED0691E06F3F09F090E0292F06E0811764
:103B100009F443C0209721F07F3F21F030E003C03B
:103B200031E001C0322F90E030FD34C0089FF00139
:103B3000099FF00D1124DF01A051B94F11963C915E
:103B40001197371327C03C91361324C012963C912D
:103B5000129731111FC013964D915C9114974C1B15
:103B60005D0B483C5105B0F48091EE068F7080618A
:103B70008093EE06EB50F94F80818F7080618083D7
:103B800089EE96E00E94350FDF91CF911F910F9142
:103B90000C945C1D01968770BACFDF91CF911F9175
:103BA0000F9108959F92AF92BF92CF92DF92EF92C2
:103BB000FF920F931F93CF93DF93CDB7DEB761973B
:103BC0000FB6F894DEBF0FBECDBF8C0185E0F801C3
:103BD000DE011D9601900D928A95E1F7F801908122
:103BE0008181E2803091E9066091EA064091EC061D
:103BF0005091ED064115510531F06F3F31F421E050
:103C00003F3F19F403C021E001C020E0F22FF17022
:103C10009F2E20FD23C1F801C380D48029EEA22E5F
:103C200026E0B22EF090EB06F601E41BF50BFF2028
:103C300009F4CEC02091EE06E83CF10508F099C0E9
:103C4000422F407F09F051C0681311C039130FC0D3
:103C5000FE2CE1100CC02F7020612093EE06C501F0
:103C60000E94350F8091EE06F801858337C1CD287B
:103C700031F08F3F31F421E09F3F19F403C021E080
:103C800001C020E020FD03C021E02E2502C020E07D
:103C900030E0F22FF170FF2E20FF1DC02091200791
:103CA0004091EF0656E0241709F4F6C030E0529F29
:103CB000F001539FF00D1124E051F94F61818613FB
:103CC00006C06081961303C06281E61204C02F5FB4
:103CD0003F4F2770E8CFFE2CEE2009F4FFC0809103
:103CE000EE0681608093EE0650C0681307C039135A
:103CF00005C0E11003C0F80125838DC09D878E8724
:103D00008D859E850E943B28882369F1EE2059F11C
:103D10002091EE06822F82958F7090E0029774F0CA
:103D20008091E9069091EA0698878F831986DB8651
:103D3000CA862C87CE0107960E94350F86E0F801CF
:103D4000A9EEB6E001900D928A95E1F70E94661DFA
:103D50000DC06817E1F09D878E878D859E850E9436
:103D60003B2881111EC0C8010E94350FFF24F39427
:103D7000B5C0422F407F69F789EE96E00E94350F6B
:103D800086E0F50111928A95E9F7F12CA7C0391365
:103D9000E2CFE110E0CFF8012583C8010E94350F82
:103DA00057C0EE2001F32091EE06822F82958F708E
:103DB00090E002971CF28091E9069091EA069A83BE
:103DC00089831B82DD82CC822E83CE010196B4CF03
:103DD000E83CF105E8F5FE2CEE2029F2681327C037
:103DE000391325C02091EE0620FD18C0822F829540
:103DF0008F70482F50E04115510581F0F80125835F
:103E00004F30510541F08F5F982F9295907F822F10
:103E10008F70892B8583C8010E94350F86E0F801D9
:103E2000A9EEB6E001900D928A95E1F757C09D8703
:103E30008E878D859E850E943B2881117FCF809142
:103E4000EE0681608093EE06C8010E94350F46C0E1
:103E500086E0F50111928A95E9F740C0EE2009F459
:103E600082CF9D878E878D859E850E943B28F82E68
:103E7000882309F478CF86E0F801A9EEB6E0019036
:103E80000D928A95E1F78091E9069091EA060E94E9
:103E9000691C0E94661D22C09D878E878D859E8528
:103EA0000E94691C292F22952F70223028F49F70C0
:103EB00039F0811105C00BC0243028F49F7049F4FB
:103EC000805E883020F0C8010E94350F9F2CF92CAD
:103ED00005C0F8019581907F99F7F9CF8F2D6196F4
:103EE0000FB6F894DEBF0FBECDBFDF91CF911F910B
:103EF0000F91FF90EF90DF90CF90BF90AF909F9089
:103F0000089508958F929F92AF92BF92CF92DF92C1
:103F1000EF92FF920F931F93CF93DF93FC01B28038
:103F2000948081E0848300E015E05BE4A52E882482
:103F30008394EE24EA94F12C7BE4C72ED12C80915B
:103F40008003081708F08FC0C02FD0E01C9FF0013D
:103F50001D9FF00D1124ED58F84F911003C01382EE
:103F6000128267C02381222389F121502383348167
:103F7000332319F09A2D921B01C0922F8091E807EC
:103F80001C9FF0011D9FF00D1124ED58F84F899FE3
:103F9000C0011124B6010E9427336283211104C09D
:103FA000332311F01482A38222E02B1508F441C0C0
:103FB0001C9FF0011D9FF00D1124ED58F84F8091CA
:103FC000E60780838091E707818333C00E94962EA5
:103FD0008230914074F582E08B1530F40E94962E69
:103FE000B7010E943B3302C08091E6071C9FF0019D
:103FF0001D9FF00D1124ED58F84F808322E02B1502
:1040000058F40E94962E2091E7072695622F70E0C3
:104010000E943B33820F02C08091E7071C9FF00192
:104020001D9FF00D1124ED58F84F81831282A38259
:10403000848280917E039E01280F311DC901880F63
:10404000991F280F391F215B384F1C9FF0011D9FBE
:10405000F00D1124ED58F84F4281618180810E945A
:1040600097040F5F6CCFDF91CF911F910F91FF905D
:10407000EF90DF90CF90BF90AF909F908F900C9477
:1040800097030F931F93CF93DF93EC0100E010E0B1
:1040900080918003282F30E00217130724F59091B8
:1040A0007E039801290F311DA901440F551F240FCC
:1040B000351F215B384F869590E04C810817190712
:1040C0001CF4442331F002C0411103C04091E807C1
:1040D00001C040E06091E7078091E6070E949704E5
:1040E0000F5F1F4FD5CF0E9497038C8190E0019600
:1040F000817099278C83DF91CF911F910F91089543
:104100008F929F92AF92BF92CF92DF92EF92FF92E7
:104110000F931F93CF93DF938C01FC014481C42F35
:10412000D0E09E01DE010E94422F9B01AC010E9463
:104130000D2F6B017C01E0E2F0E0EC1BFD0BA5E52F
:10414000B0E09B01AC010E940D2F4B015C019F016F
:10415000DF010E9455339B01AC010E94182F9B0187
:10416000AC012C0D3D1D4E1D5F1DC501B4010E940B
:10417000202FC22FD22F2A3228F4F3E02F9F900154
:1041800011240DC025E530E02C1B3109C901880F31
:10419000991F280F391F37FF02C02F5F3F4F3595FA
:1041A0002795C22FC095F12C85E5E82EED1A809158
:1041B0008003F816C8F4F1FC02C08E2D01C08D2FCB
:1041C00090917E032F2D30E0290F311DA901440F5E
:1041D000551F240F351F215B384F4C2F6091E70787
:1041E0000E949704F394E3CF0E949703F80184811F
:1041F000811102C091E003C0803219F49FEF9093C7
:10420000B0039091B003890FF8018483DF91CF91BF
:104210001F910F91FF90EF90DF90CF90BF90AF90E4
:104220009F908F9008951F93CF93DF93EC018C8123
:10423000811109C081E08C8310924D0792E0909328
:10424000AF038093AE0380917E0390917F03891723
:1042500070F4E82FF0E09F01220F331FE20FF31FED
:10426000E15BF84F1182108212828F5FF0CF10E075
:10427000609180031617C0F5E12FF0E070E0CF01E8
:104280000E943B3320917E03820F20914D07022E26
:10429000000C330B90E0E217F307CCF02091AF0352
:1042A000022E000C330B2E173F078CF09C01220FBF
:1042B000331F820F931F9C01215B384F4091E80709
:1042C0006091E7078091E6070E9497040BC0FC010C
:1042D000EE0FFF1F8E0F9F1FFC01E15BF84F118255
:1042E000108212821F5FC4CF0E9497038091AE0399
:1042F00020914D07280F20934D079091AF03980F01
:104300009093AF0319165CF4022E000C330B40910E
:10431000800350E0415051092417350734F081954E
:104320008093AE03813009F41C82DF91CF911F91FD
:1043300008958F929F92AF92BF92CF92DF92EF92A9
:10434000FF920F931F93CF93DF93EC018A8180FF3D
:1043500003C0BB24BA9402C0BB24B3948C818111E6
:104360000DC081E0B81206C0809180038150809317
:104370004C0702C010924C0781E08C83A12C4CE0CA
:10438000942E80918003A81608F044C080917E038B
:10439000CA2CD12C8601080F111DC801880F991F46
:1043A000080F191F015B184FF80111821082128249
:1043B00034E0E32EF12C812C80914C07880D8D3058
:1043C0002CF0692D0E941933892F05C087FF03C087
:1043D00090918003890F082E000C990BC816D906FE
:1043E00091F48091E8078E9DA0018F9D500D1124BE
:1043F000559547955595479598016091E7078091A8
:10440000E6070E9497048B0CF1E0EF1AF108A1F681
:10441000A394B7CF0E94970380914C0791E0B91203
:104420000EC0811107C080918003815080934C079A
:104430001C820FC0815080934C07BC820AC090E060
:1044400001966091800370E00E943B3380934C079B
:104450008C83DF91CF911F910F91FF90EF90DF90B0
:10446000CF90BF90AF909F908F900895FF920F9341
:104470001F93CF93DF93EC01F12C0FEF10E06091CD
:104480008003F616F0F480917E032F2D30E0280F84
:10449000311DC901880F991F280F391F215B384F23
:1044A00070E0C8010E943B33962F8C814091E80751
:1044B0006091E707F99E800D11240E949704F39400
:1044C000DECF0E9497039A818C8190FF02C08F5F9C
:1044D00001C081508C83DF91CF911F910F91FF908C
:1044E00008950F931F93CF93DF9300D01F92CDB702
:1044F000DEB78C0180914E0781110AC09E012F5FAB
:104500003F4F4FEF6FEF0E9497048A8180934E07D1
:10451000F8018481813051F028F0823061F44091BB
:104520004E070AC080914E0740E007C060914E07D9
:1045300040E080E003C040E080E060E00E941E04B4
:10454000F801848190E0019663E070E00E943B33C3
:1045500084830F900F900F90DF91CF911F910F9157
:104560000895CF93DF93EC01E5EEF7E0438162819C
:104570008C810E942D058C818F5F8C83DF91CF9180
:104580000895CF93DF93EC01EC81F0E0EA59FB4F03
:104590004491E5EEF7E0628181810E942D058C81D6
:1045A0008F5F8C83DF91CF9108951F93CF93DF931B
:1045B000CDB7DEB767970FB6F894DEBF0FBECDBF9D
:1045C0004B8B5C8B6D8B7E8B8F8B86E09E01235F8C
:1045D0003F4FD901E82F1D92EA95E9F795E0FE01DA
:1045E0007396D90101900D929A95E1F7F901DE01D8
:1045F000179601900D928A95E1F7CE0107960E94D9
:10460000D21D81113EC086E0FE013796DE01119673
:1046100001900D928A95E1F7FF81E8856A857B8597
:104620006115710531F0EF3F31F481E0FF3F19F47E
:1046300003C081E001C080E080FD23C02091EF062F
:1046400030E0C9010196877099274091200750E01A
:104650008417950779F1F983EA837D836C8396E06B
:10466000929FD001939FB00D1124A051B94FFE012C
:10467000319601900D929A95E1F78093EF060E9492
:104680005C1D16E0809120079091EF068917F9F0E4
:10469000189FC00111248051994F0E94D21D882378
:1046A000B1F08091200790E0019687709927809360
:1046B0002007E8CF0E9464281092EF06109220078E
:1046C000E9EEF6E086E0DF011D928A95E9F767964C
:1046D0000FB6F894DEBF0FBECDBFDF91CF911F9113
:1046E0000895E0919504F0919604309721F001909F
:1046F000F081E02D099480E008950E940D1BDC01FB
:10470000CB01805A9541AF4FBF4F8093D106909314
:10471000D206A093D306B093D4068091D50681111A
:104720000BC062E070E086E695E00E94B724892B1A
:1047300019F481E08093D5068091D5060895909173
:10474000E50790FF04C09695981740F003C08111CB
:1047500005C090E0961710F40C94960D61E00C944F
:104760004D0D882311F0FA0101C0FB010994E9EA1B
:10477000F4E0118282818460828308950F931F93F5
:10478000CF93DF93C42FD22FFC0182818823C9F0FD
:10479000409374040E94191B9093B0078093AF0755
:1047A00080E28C0F883008F05EC0C77081E001C0E5
:1047B000880FCA95EAF7DF91CF911F910F910C9462
:1047C0007E288091740448133EC08091AF07909179
:1047D000B0070E94FE1A883C9105A8F510E21D0F53
:1047E000CD17B9F080E28C0F883040F4C77081E0BB
:1047F00001C0880FCA95EAF70E947328183048F460
:1048000081E09D2F977001C0880F9A95EAF70E946A
:104810007E28802F0E940629093349F4FFEF27EEF6
:1048200083E0F15020408040E1F700C00000802F7D
:104830000E9488281830B8F4D77081E001C0880F32
:10484000DA95EAF70AC080E28C0F883060F4C7700E
:1048500081E001C0880FCA95EAF7DF91CF911F91DF
:104860000F910C947328DF91CF911F910F910895B0
:104870006091E507669570E04BE050E083EA93E0D5
:104880000E946433892B19F481E08093AA040E946A
:10489000191B9093A4048093A3048091AB048460BB
:1048A0008093AB0408950F931F93CF93DF93EC0194
:1048B0008B018091DF07811102C00E94B8098091AD
:1048C000DE0780FF4FC0809171008D7F8093710063
:1048D0008091DD0781110E94FC0981E08093DC0753
:1048E000D093DB07C093DA071093D9070093D8075A
:1048F0001092D7071092D3071092D4071092D507C1
:104900001092D6071092D2071092D1078881998110
:10491000AA81BB818093CD079093CE07A093CF0748
:10492000B093D00720E030E040E85EE36C817D8109
:104930008E819F810E941B316093C9077093CA07C3
:104940008093CB079093CC071092C8071092C707AB
:1049500080917100826080937100809190008068E6
:1049600080939000DF91CF911F910F910895EF9266
:10497000FF920F931F93CF93DF93EC017B0164E6CB
:1049800070E088E70E94A62B8C01EC0EFD1ECE1570
:10499000DF0561F017FD0AC0FE01849164E670E056
:1049A0000E94FD2B8C012196892B89F30E94812C7A
:1049B000C801DF91CF911F910F91FF90EF90089563
:1049C0000F931F93CF93DF938C010E94F02A8111E4
:1049D00018C0E80108E010E08091E80085FD0AC0F9
:1049E0008091E8008E778093E8000E94F02A882367
:1049F00099F307C089918093F1000150110961F783
:104A000080E0DF91CF911F910F910895982F9730FB
:104A100068F59093E900981739F05091EC002091D7
:104A2000ED004091F00003C0562F40E022E021FD50
:104A300002C09F5FECCF3091EB003E7F3093EB00E4
:104A40003091ED003D7F3093ED003091EB0031600F
:104A50003093EB005093EC002093ED004093F00076
:104A60002091EE0027FDE5CF80E008958F708093C0
:104A7000E90081E008951F93CF93DF93CDB7DEB7B0
:104A8000AA970FB6F894DEBF0FBECDBFEFEBF7E0ED
:104A90008091F100819327E0E73CF207C9F780910C
:104AA000C007833009F460C030F4813071F0823087
:104AB00009F49AC0B1C08A3009F486C08B3009F479
:104AC0006BC0893009F0A8C020C08091BF07813A2F
:104AD00009F0A2C08091E800877F8093E800809170
:104AE000C3079091C407892B21F468E083EB97E01A
:104AF00003C060E080E090E070E00E94422B809173
:104B0000E8008B778093E80087C08091BF078132EF
:104B100009F082C08091C3079091C407892B09F0E6
:104B20007BC08091E800877F8093E8008091E80057
:104B300082FD05C08091BD078111F8CF6DC0209125
:104B4000F3008091F20090E0922B029729F480917B
:104B5000F1008B7F813021F48091F1008093B207C6
:104B60008091E8008B7754C08091BF07813A09F0AB
:104B700053C08091C3079091C407892B09F04CC0A2
:104B80008091E800877F8093E8008091E80080FFB3
:104B9000FCCF8091B10337C08091BF078132E1F52E
:104BA0008091C3079091C407892BB1F58091E800EB
:104BB000877F8093E8000E94232B8091C107809318
:104BC000B1030E94642828C08091BF07813221F57B
:104BD0008091E800877F8093E8000E94232B8091DA
:104BE000C2078093B10718C08091BF07813AA1F432
:104BF0008091E800877F8093E8008091E80080FF43
:104C0000FCCF8091B1078093F1008091E8008E770E
:104C10008093E8000E94232B8091E80083FFBFC1AE
:104C20008091BF079091C007492F50E04A3051054D
:104C300008F0B5C1FA01EA58FF4F0C944F338038A1
:104C400021F0823809F0ABC108C08091BB07909178
:104C5000BC07992389F082600FC08091C3078F70D1
:104C6000873008F09CC18093E9008091EB0085FBC0
:104C7000882780F91092E9009091E800977F90933F
:104C8000E8008093F1001092F1005EC1282F2D7F83
:104C900009F085C1882319F0823061F080C18091CC
:104CA000C107813009F07BC1933009F080E0809327
:104CB000BC072EC08091C10781112AC08091C30713
:104CC0008F702FEF280F263008F069C18093E9001C
:104CD0002091EB0020FF1CC0933021F48091EB0069
:104CE000806214C09091EB0090619093EB0021E002
:104CF00030E0A90102C0440F551F8A95E2F74093A6
:104D0000EA001092EA008091EB0088608093EB004B
:104D10001092E9008091E800877F19C181113FC19D
:104D20001091C1071F778091E3008078812B8093D9
:104D3000E3008091E800877F8093E8000E94232BA6
:104D40008091E80080FFFCCF8091E3008068809331
:104D5000E300111102C082E001C083E08093BD072F
:104D60001EC18058823008F01AC18091C10790910D
:104D7000C2078C3D53E0950779F583E08A838AE288
:104D800089834FB7F894DE01139620E03EE051E2AC
:104D9000E32FF0E050935700E49120FF03C0E29529
:104DA000EF703F5FEF708E2F90E0EA3010F0C79603
:104DB00001C0C0968D939D932F5F243149F74FBF5B
:104DC0008091E800877F8093E8006AE270E0CE017E
:104DD00001960E94422BA7C04091C3075091C4077F
:104DE000292F332723303105A9F068F4213031050C
:104DF00009F4E4C02230310509F0D1C082E290E02C
:104E0000E8EAF5E03DC02132310579F12232310581
:104E100081F1C5C0992781309105B9F070F08230D9
:104E20009105D9F0039709F0BAC0ECEDF5E0E491F3
:104E30008E2F90E0ECEDF5E020C0E2E1F6E0E491A9
:104E40008E2F90E0E2E1F6E018C0EEEFF5E0E4919D
:104E50008E2F90E0EEEFF5E010C0E2EEF5E0E49189
:104E60008E2F90E0E2EEF5E008C0452B09F4ABC0D0
:104E700096C0452B09F4ACC092C0009709F48FC0CE
:104E80002091E800277F2093E8002091C50730910A
:104E9000C6078217930708F49C0140E021153105ED
:104EA00089F18091BD07882309F43DC08530D9F18F
:104EB0008091E80083FD37C08091E80082FD2FC01B
:104EC0008091E80080FFEACF4091F3008091F200EA
:104ED00090E0942B2115310559F08830910540F46C
:104EE00044914093F1003196215031090196F2CF5F
:104EF00041E0089709F040E08091E8008E778093C8
:104F0000E800CCCF4111CDCF0AC08091BD078823E6
:104F100051F0853041F08091E80083FD04C080911C
:104F2000E80082FFF2CF8091E8008B778093E80061
:104F300036C08038A1F58091E800877F8093E80033
:104F40008091BE078093F1008091E8008E77809376
:104F5000E8000E94232B23C0811121C08091C1074A
:104F60009091C20799270297D4F48091E800877F37
:104F70008093E8001091C1071093BE070E94232B75
:104F8000111106C08091E30087FD02C081E001C0DD
:104F900084E08093BD0761EC81E00E94062580914A
:104FA000E80083FF1AC08091E800877F8093E800C3
:104FB0008091EB0080628093EB000FC082E190E073
:104FC000EAECF5E05DCF89E090E0EAEBF5E058CF60
:104FD00080E490E0E8E6F5E053CFAA960FB6F894A7
:104FE000DEBF0FBECDBFDF91CF911F9108951F92FD
:104FF0000F920FB60F9211242F933F934F935F930D
:105000006F937F938F939F93AF93BF93CF93DF93D0
:10501000EF93FF93C091E900CF708091EC00D82FFF
:10502000D17080FDD0E81092E9008091F000877F78
:105030008093F00078940E943B251092E9008091C3
:10504000F00088608093F000CD2BCF70C093E90012
:10505000FF91EF91DF91CF91BF91AF919F918F9190
:105060007F916F915F914F913F912F910F900FBE64
:105070000F901F9018950E94691C292F2F70E92FFF
:10508000E295EF704E2F50E0FA013297EE30F105C5
:10509000B8F4E058FF4F0C944F33803F99F018F468
:1050A000883E70F40FC0843F59F40CC0883E50F025
:1050B000813F31F407C0822F8695869586950895A5
:1050C00080E0089581E008951092420786E0E3EEC3
:1050D000F6E0DF011D928A95E9F7109241071092E0
:1050E00040070C94FA1B882341F080959091420769
:1050F0008923809342070C94FA1B0895882339F082
:1051000090914207892B809342070C94FA1B0895D3
:10511000882309F47AC0682F823869F40E947123C9
:1051200081FF73C069E381EE96E00E945B1B0E94E1
:10513000FA1B69E30EC0833891F40E94712380FF4B
:1051400064C063E581EE96E00E945B1B0E94FA1B3F
:1051500063E581EE96E00E944E1B0C94FA1B8438A6
:1051600069F40E94712382FF50C067E481EE96E0EB
:105170000E945B1B0E94FA1B67E4EBCF8CEF860F4B
:10518000813A38F380E2860F883070F4677081E0EE
:1051900090E001C0880F6A95EAF7809590914207E8
:1051A000892380934207D9CF8BE5860F8330A0F403
:1051B0008091E0079091E107892B39F11092E10786
:1051C0001092E007E0919504F09196043097E9F091
:1051D0000680F781E02D16C0685A6731B0F48091DF
:1051E000E2079091E307892B81F01092E307109278
:1051F000E207E0919504F0919604309731F0008435
:10520000F185E02D80E090E009940895CF93882304
:1052100009F47CC0C82F8238B1F40E94712381FD4B
:1052200075C069E381EE96E00E945B1B0E94FA1B49
:105230002FEF81EE94E0215080409040E1F700C0D4
:10524000000069E317C08338D1F40E94712380FD08
:105250005DC063E581EE96E00E945B1B0E94FA1B35
:105260002FEF81EE94E0215080409040E1F700C0A4
:10527000000063E581EE96E00E944E1B3CC084383E
:10528000B1F40E94712382FD41C067E481EE96E093
:105290000E945B1B0E94FA1B2FEF81EE94E02150CD
:1052A00080409040E1F700C0000067E4E3CF8CEF5E
:1052B0008C0F813A80F4E3EEF6E089EE96E02191DE
:1052C000C217E1F08E179F07D1F76C2F81EE96E0A1
:1052D0000E945B1B10C080E28C0F8830B8F4C7704E
:1052E00081E090E001C0880FCA95EAF790914207EB
:1052F000892B80934207CF910C94FA1B6C2F81EE7F
:1053000096E00E944E1B0E94FA1BDFCFCF910895BA
:10531000E8EDF0E080818E7F80831092E2001092B1
:10532000DA001092E100A0EEB0E08C9181608C93E5
:1053300080818F77808319BCA7EDB0E08C918E7F40
:105340008C9380818F7E80831092E4070895CF92A2
:10535000DF92EF92FF920F931F93CF93DF93C8EDED
:10536000D0E088818F7E8883E7EDF0E080818160E6
:10537000808384E082BF81E08093E40788818E7F10
:10538000888302EE10E0F80110821092DA0081EEBC
:10539000C82ED12CF601108288818F77888388816E
:1053A0008068888388818F7D888319BC1092BD07AF
:1053B0001092BE071092BC071092BB0790EEE92E28
:1053C000F12CF70180818B7F8083888181608883C5
:1053D00060E080E00E940625F60180818E7F808358
:1053E000F801808181608083808188608083F701FB
:1053F00080818E7F8083888180618883DF91CF91D7
:105400001F910F91FF90EF90DF90CF9008951F9222
:105410000F920FB60F9211242F933F934F935F93E8
:105420006F937F938F939F93AF93BF93EF93FF936C
:105430008091E10082FF09C08091E20082FF05C0F7
:105440008091E1008B7F8093E1008091DA0080FF02
:105450002AC08091D80080FF26C08091DA008E7F1C
:105460008093DA008091D90080FF18C080E189BD67
:1054700082E189BD09B400FEFDCF81E08093BD07C4
:105480008091E40781110FC00E9488290E94A729FA
:105490008091E20084608093E20005C019BC109204
:1054A000BD071092E4078091E10080FF17C0809152
:1054B000E20080FF13C08091E2008E7F8093E200C3
:1054C0008091E20080618093E2008091D800806248
:1054D0008093D80019BC85E08093BD078091E100DE
:1054E00084FF43C08091E20084FF3FC080E189BD1A
:1054F00082E189BD09B400FEFDCF8091D8008F7D87
:105500008093D8008091E1008F7E8093E1008091AC
:10551000E2008F7E8093E2008091E20081608093C0
:10552000E2008091BE07882311F084E007C08091DB
:10553000E30087FD02C081E001C083E08093BD07E6
:105540000E9464280E9471231092EB078091EA0761
:10555000882349F08091E50781608093E50760E04A
:1055600086950E944D0D0E9438248091E10083FFB2
:1055700026C08091E20083FF22C08091E100877FF6
:105580008093E10082E08093BD071092BE07809176
:10559000E1008E7F8093E1008091E2008E7F809316
:1055A000E2008091E20080618093E20060E080E0B0
:1055B0000E9406258091F00088608093F000FF91A2
:1055C000EF91BF91AF919F918F917F916F915F917B
:1055D0004F913F912F910F900FBE0F901F901895F4
:1055E0002091E4003091E50095E64091EC00842F95
:1055F000817040FF23C08091E80080FD1DC0809134
:10560000BD07882399F0853099F08091EB0085FDE6
:1056100011C04091E4005091E5002417350729F3AB
:10562000915011F09A01E1CF84E0089582E008954D
:1056300083E0089581E0089580E008954091E800B6
:1056400042FFDDCF08958091BF0787FF11C0809191
:10565000E80082FD05C08091BD078111F8CF11C01F
:105660008091E8008B770BC08091BD07882349F0BB
:105670008091E80080FFF8CF8091E8008E778093DA
:10568000E80008952091C5073091C607261737070F
:1056900048F06115710539F42091E8002E772093C8
:1056A000E80001C0B901FC0120E06115710579F144
:1056B0008091BD078823F1F18530F1F18091E800F8
:1056C00083FD3CC08091E80082FD2EC08091E800FF
:1056D00080FFEBCF2091F3008091F20090E0922BBD
:1056E0006115710551F08830910538F421912093AE
:1056F000F100615071090196F3CF21E0089709F09C
:1057000020E08091E8008E778093E800CECF2111D1
:10571000CFCF0AC08091BD07882361F0853061F04A
:105720008091E80083FD0AC08091E80082FFF2CFFB
:1057300080E0089582E0089583E0089581E008956F
:105740001092B9008CE08093B8000895EF92FF9218
:105750000F931F93CF93DF93182FEB011092BC0090
:1057600084EA8093BC000E94191B7C018091BC00DC
:1057700087FD0EC0CF3F8FEFD807C1F30E94191BE2
:105780008E199F098C179D0788F38EEF9FEF2EC00F
:105790008091B900887F883041F08091B900887F7E
:1057A000803119F08FEF9FEF21C01093BB0084E888
:1057B0008093BC000E94191B8C018091BC0087FD66
:1057C0000CC0CF3F8FEFD807C1F30E94191B801B7D
:1057D000910B8C179D0788F3D8CF8091B900887FF3
:1057E000883111F08034F1F680E090E0DF91CF91C4
:1057F0001F910F91FF90EF9008950F931F93CF93F8
:10580000DF93EB018093BB0084E88093BC000E948F
:10581000191B8C018091BC0087FD0EC0CF3F8FEF1C
:10582000D807C1F30E94191B801B910B8C179D0791
:1058300088F38EEF9FEF0CC02091B900287F81E0A4
:1058400090E0283211F480E090E0919581959109E3
:10585000DF91CF911F910F910895CF92DF92EF9238
:10586000FF920F931F93CF93DF936B018A0179010E
:10587000B9010E94A62BE6010C0D1D1DC017D10712
:1058800061F424E92093BC00DF91CF911F910F9127
:10589000FF90EF90DF90CF90089597FDF2CFB70182
:1058A00089910E94FD2BEACFCF92DF92EF92FF9277
:1058B0000F931F93CF93DF93C62F6A017901B8012D
:1058C0000E94A62B97FD11C0B8018C2F0E94FD2BC2
:1058D000E601EC0CFD1CCE15DF0539F097FD05C087
:1058E000B80189910E94FD2BF6CF24E92093BC00DA
:1058F000DF91CF911F910F91FF90EF90DF90CF90AC
:10590000089584E98093BC0008958EE14A9B02C00B
:105910008150E1F74A9BFECF08955A9880E28A951C
:10592000F1F75A9A0895FC012AE02A95F1F790E0E0
:1059300020E080E031E0261779F040E14A95F1F768
:10594000880F4A9B02C08160932700C0000040E19D
:105950004A95F1F72F5FEFCF20E12A95F1F729B1B2
:1059600000C0000030E13A95F1F722FB222720F930
:1059700092272081920F90830895EF92FF920F93C8
:105980001F93CF93DF931F92CDB7DEB719828C019F
:105990007C01E60EF11C0E151F0559F00E94852CA6
:1059A00068E0CE0101960E94932CF80181938F014B
:1059B000F2CF81E09981911180E00F90DF91CF913A
:1059C0001F910F91FF90EF9008959093EE078093B1
:1059D000ED076093EC07529A5A9A08959093EE0758
:1059E0008093ED076093EC0752985A9AEA9AE9E699
:1059F000F0E080818F7C80830895615091E001C048
:105A0000990F6A95EAF720E031E0992361F0492F78
:105A1000482319F05A9A232701C05A9840E24A9520
:105A2000F1F79695F2CF222311F05A9A01C05A98B5
:105A300080E28A95F1F75A980895FF920F931F9389
:105A4000CF93DF93EC018C01060F111DC017D10716
:105A500041F0F9900E948D2C68E08F2D0E94FD2C62
:105A6000F5CFDF91CF911F910F91FF9008951F9275
:105A70000F920FB60F9211240F931F932F933F9302
:105A80004F935F936F937F938F939F93AF93BF9346
:105A9000EF93FF93CF93DF931F92CDB7DEB71982B9
:105AA0000E94852C67E0CE0101960E94932C382F2E
:105AB000369536953695932F96959570232F2570AC
:105AC000920F292F2370969596958770920F8913C0
:105AD00048C08981811145C08091EC07831708F483
