:100000000C9478060C94BF060C94BF060C9405362D
:100010000C94BF060C94BF060C94BF060C94BF064C
:100020000C94BF060C94BF060C94F9250C9435254E
:100030000C9443280C94BF060C94BF060C94BF0686
:100040000C94BF060C94BF060C94BF060C94BF061C
:100050000C94BF060C94F6270C94BF060C94BF06B4
:100060000C94BF060C94BF060C94BF060C94BF06FC
:100070000C94BF060C94BF060C94BF060C94BF06EC
:100080000C94B9090C94BF060C94BF060C94BF06DF
:100090000C94BF060C94BF060C94BF060C94BF06CC
:1000A0000C94BF060C94BF060C94BF06B617B61787
:1000B000F017F0174618E919E919E91962184019FB
:1000C00051195119291A531A581A5D1A621A671AC6
:1000D0006C1A711A761A7B1A801A871A8A1A8D1A64
:1000E000901A931A961A991A9C1AA11A871F8A1F96
:1000F000A61FB31FBA1FDA1FDD1F11203320D12026
:10010000DB203E2040204420682089208C208F2046
:10011000B2203D236423172564231725B023D3235E
:100120001725D424E4246C326C327F327F3275324E
:100130007F327F327F326C326C327A327F327F3262
:100140007A3207634236B79BD8A71A39685618AE79
:10015000BAAB558C1D3CB7CC5763BD6DEDFD753EFC
:10016000F6177231BF000000803F08000000BE9209
:100170002449123EABAAAA2ABECDCCCC4C3E0000EC
:100180000080BEABAAAAAA3E00000000BF0000008B
:10019000803F0000000000084178D3BB4387D113A3
:1001A0003D190E3CC3BD4282AD2B3E68EC8276BE4B
:1001B000D98FE1A93E4C80EFFFBE01C4FF7F3F0015
:1001C0000000000000010101010101010101020222
:1001D00002020202020202030303030303030304F5
:1001E00004040404040405050505050606060606C0
:1001F000070707070708080808090909090A0A0A7A
:100200000B0B0B0C0C0C0D0D0D0E0E0E0F0F0F101B
:1002100010111111121213131414151516161717A5
:10022000181819191A1A1B1B1C1D1D1E1E1F202011
:10023000212222232424252626272829292A2B2C5B
:100240002D2D2E2F30313232333435363738393A7E
:100250003B3C3D3E3F404142434445464748494A76
:100260004C4D4E4F50515354555658595A5B5D5E44
:100270005F616264656668696B6C6D6F70727375DF
:1002800077787A7B7D7E8082838587888A8C8E8F43
:1002900091939596989A9C9EA0A2A3A5A7A9ABAD71
:1002A000AFB1B3B5B7BABCBEC0C2C4C6C9CBCDCF5F
:1002B000D1D4D6D8DBDDDFE2E4E7E9EBEEF0F3F50D
:1002C000F8FAFDFFFFAA7F55400001020304050B69
:1002D0000A090807060000000000000000000000F6
:1002E0000000000000000000007E0F00D4FFFFFFB0
:1002F000C70000007800000000000000002A2B2842
:1003000000000000000000000000000000000000ED
:1003100029000000002C1E34202122243426272509
:100320002E362D3738271E1F202122232425263341
:1003300033362E37381F0405060708090A0B0C0D43
:100340000E0F101112131415161718191A1B1C1D55
:100350002F3130232D350405060708090A0B0C0D33
:100360000E0F101112131415161718191A1B1C1D35
:100370002F3130354C00DA0281FFD9F1DB20A4A601
:100380002EAF00A0C000A1C800AED580A81FD3002A
:10039000408D14200032190A00047F3F1F6432147C
:1003A000643214783C1E1E140A054C617965723A59
:1003B00020556E646566696E6564004C617965728E
:1003C0003A204C6F776572004C617965723A205221
:1003D00061697365004C617965723A2044656661B4
:1003E000756C74004C756E616B6579204D696E6932
:1003F0000000AE05010980A101850319012AB7009B
:10040000150126B700950175108100C0050C090182
:10041000A101850419012AA002150126A002950157
:1004200075108100C00660FF0961A1010962150015
:1004300026FF009520750881020963150026FF003C
:10044000952075089102C005010906A1010507194B
:10045000E029E715002501950875018102950175D0
:100460000881010507190029FF150026FF009506E0
:100470007508810005081901290595057501910286
:10048000950175039101C009025B00030100A0FA08
:1004900009040000010301010009211101000122EA
:1004A00040000705810308000A0904010002030057
:1004B000000009211101000122220007058203200A
:1004C00000010705030320000109040200010300E5
:1004D00000000921110100012232000705840320D8
:1004E000000A120110010000000854590100010027
:1004F000010203010403300000001A034C007500E0
:100500006E0061006B006500790020004D006900FD
:100510006E0069000000120379006F00690063003B
:100520006800690072006F00000004030904000005
:10053000000000003E5B4F5B3E003E6B4F6B3E0099
:100540001C3E7C3E1C00183C7E3C18001C577D570E
:100550001C001C5E7F5E1C0000183C180000FFE7BA
:10056000C3E7FF00001824180000FFE7DBE7FF00E7
:1005700030483A060E00262979292600407F0505D5
:100580000700407F05253F005A3CE73C5A007F3E6C
:100590001C1C0800081C1C3E7F0014227F22140033
:1005A0005F5F005F5F0006097F017F00006689953D
:1005B0006A0060606060600094A2FFA2940008047A
:1005C0007E04080010207E20100008082A1C080065
:1005D000081C2A0808001E10101010000C1E0C1E0B
:1005E0000C0030383E383000060E3E0E060000008B
:1005F0000000000000005F0000000007000700008E
:10060000147F147F1400242A7F2A12002313086405
:100610006200364956205000000807030000001C05
:10062000224100000041221C00002A1C7F1C2A00DD
:1006300008083E080800008070300000080808081C
:1006400008000000606000002010080402003E5115
:1006500049453E0000427F4000007249494946003A
:100660002141494D33001814127F1000274545459C
:1006700039003C4A494931004121110907003649F6
:1006800049493600464949291E000000140000006F
:100690000040340000000008142241001414141417
:1006A00014000041221408000201590906003E41CD
:1006B0005D594E007C1211127C007F494949360079
:1006C0003E41414122007F4141413E007F4949492D
:1006D00041007F09090901003E41415173007F0833
:1006E00008087F0000417F4100002040413F010099
:1006F0007F08142241007F40404040007F021C02DE
:100700007F007F0408107F003E4141413E007F0989
:10071000090906003E4151215E007F091929460062
:1007200026494949320003017F0103003F40404010
:100730003F001F2040201F003F4038403F0063140F
:10074000081463000304780403006159494D430011
:10075000007F414141000204081020000041414156
:100760007F000402010204004040404040000003BA
:10077000070800002054547840007F284444380083
:10078000384444442800384444287F0038545454A2
:10079000180000087E09020018A4A49C78007F08B5
:1007A0000404780000447D4000002040403D0000EB
:1007B0007F102844000000417F4000007C04780442
:1007C00078007C0804047800384444443800FC185D
:1007D0002424180018242418FC007C0804040800B1
:1007E00048545454240004043F4424003C40402016
:1007F0007C001C2040201C003C4030403C00442831
:10080000102844004C9090907C004464544C440068
:100810000008364100000000770000000041360863
:1008200000000201020402003C2623263C000000D6
:1008300000000000404040F0F8F8FF38FFF8F83FB3
:10084000F8F8FF38FFF8F8F04040400000000000E2
:100850000080C0C0C0800000C0C08000000080C018
:10086000C000C0C0000080C0C00000000000C0C0C8
:10087000C0C0C000C0C000000000000000000000B8
:100880000000000000000000000000000000000068
:100890000000000000000000000000000000000058
:1008A00000000000000000000000000000C0F0F8A0
:1008B000FC3E1E06010000007F4141417F007F4158
:1008C00041417F000080C0E07E5B4F5BFEC00000C6
:1008D000C000DCD7DEDEDED7DC00C0000000000098
:1008E0000000000000000000000000000000000008
:1008F00000000000494949FFFFFFFFE0DFBFBF00E4
:10090000BFBFDFE0FFFFFFFF4949490000000000D3
:100910001F3F6060E0BF1F007F7F071E381E077FFC
:100920007F007F7F0E1F3B716000000000007F7F13
:100930000C0C0C007E7E007F7E0303007F7E030391
:100940007E7E03037F7E000F3E703C063C703E0FB0
:1009500000327B49493F7E007F7E0303001E3F69D2
:10096000696F2600000000000000000000030F1F58
:100970003F3C7870600000007F4141417F007F4133
:1009800041417F00307B7F7830202030787F3B00F2
:1009900003000F7F0F0F0F7F0F0003000000000008
:1009A0000000000000000000000000000000000047
:1009B00000000000010101070F0F7F0F7F0F0F7E66
:1009C0000F0F7F0F7F0F0F070101010000000000D4
:1009D0000000000000010100000000000000000015
:1009E0000000000000000000000000000000000007
:1009F00000000000000000000000000000000000F7
:100A000000000000000000000000000000000000E6
:100A100000000000000000000000000000000000D6
:100A200000000000000000000000000000000000C6
:100A300000000000000000000000000000000000B6
:100A400000000000000000000000000000000000A6
:100A50000000000000000000000000000000000096
:100A60000000000000000000000000000000222341
:100A7000252628292A2C2D2F3032333536383A3B7B
:100A80003D3E4042434547494A4C4E5051535557CD
:100A9000595A5C5E6062646668696B6D6F717375EC
:100AA00077797B7D7F81838587898A8C8E909294EC
:100AB00096989A9C9E9FA1A3A5A7A8AAACAEAFB1F9
:100AC000B3B4B6B8B9BBBCBEBFC1C2C3C5C6C7C943
:100AD000CACBCCCDCED0D1D2D2D3D4D5D6D7D7D8FD
:100AE000D9D9DADADBDBDBDCDCDCDCDCDDDDDDDD4F
:100AF000DCDCDCDCDCDBDBDBDADAD9D9D8D7D7D657
:100B0000D5D4D3D2D2D1D0CECDCCCBCAC9C7C6C50D
:100B1000C3C2C1BFBEBCBBB9B8B6B4B3B1AFAEAC53
:100B2000AAA8A7A5A3A19F9E9C9A98969492908EFE
:100B30008C8A89878583817F7D7B79777573716FD7
:100B40006D6B6968666462605E5C5A5957555351B3
:100B5000504E4C4A4947454342403E3D3B3A383669
:100B6000353332302F2D2C2A2928262523222B00FD
:100B700014001A00080015001700E0000400160019
:100B8000070009000A00E1001D001B000600190013
:100B9000050000000000E300E20001512C002A00E3
:100BA000130012000C0018001C00340033000F006A
:100BB0000E000D000B00E500380037003600100075
:100BC000110000000000E700E600025128002900A3
:100BD0001E001F00200021002200E0000100010093
:100BE000010001000100E10001000100010001001D
:100BF000010000000000E300E20001512C002A0087
:100C000027002600250024002300010001004F00DA
:100C100052005100500001000100010001000100DC
:100C2000010000000000E700E60002512800290052
:100C30001E021F02200221022202E0000100010028
:100C4000010001000100E100350201000100010086
:100C5000010000000000E300E20001512C002A0026
:100C60002702260225022402230235003102300227
:100C70002F022E002D003502310030002F002E02F1
:100C80002D0200000000E700E60002512800005C91
:100C900001000100010001000100C35CC65CC85CEA
:100CA000CA5C01000100C45CC75CC95CCB5C01008C
:100CB000010000000000E300E20001512C003F00B1
:100CC0003E003D003C003B003A004500440043002C
:100CD000420041004000010001000100010001004C
:100CE000010000000000E700E6000251280000AF0C
:100CF00011241FBECFEFDAE0DEBFCDBF04B603FE86
:100D000027C08091370890913808A0913908B09198
:100D10003A088730904BA740B04BD1F41092370877
:100D2000109238081092390810923A0814BE84B70D
:100D3000877F84BF0FB6F894A89580916000886182
:100D400080936000109260000FBEE0E0F8E3099528
:100D500028E0A6E5B4E001C01D92A733B207E1F791
:100D600014E0A0E0B1E0ECEBF8E702C005900D92D2
:100D7000A635B107D9F70E94BC1A0C945C3C0C94C0
:100D800000009091CE0492FF0DC0282F28712830CA
:100D900019F4877F846006C0282F2471243011F451
:100DA0008B7F886093FF0DC0282F2871283119F49C
:100DB000877E846106C0282F2471243111F48B7E34
:100DC00088612091CF0420FF0DC0382F3871383052
:100DD00019F4877F816006C0382F3171313011F4EA
:100DE0008E7F886021FF0DC0282F2871283119F4CB
:100DF000877E816106C0282F2171213111F48E7EFA
:100E0000886194FD877E0895CF92DF92EF920F93D1
:100E10001F93CF93DF93CDB7DEB7A4970FB6F894A7
:100E2000DEBF0FBECDBF60917D0380911B0580FFAB
:100E30000AC0E9ECF2E0AE014F5F5F4F8E010B5D3F
:100E40001F4FCA0114C080917E0390917F038917C0
:100E500080F7E82FF0E09F01220F331FE20FF31F0E
:100E6000E253F84F1182108212828F5FF0CF2491EB
:100E700030E0D901AA0FBB1F2A0F3B1FD901A25393
:100E8000B84FCD90DD90EC90DA01CD92DD92ED92ED
:100E9000AD013196A017B10751F720917C03FC01F9
:100EA000B3E02B9FE00DF11D1124539A8BB1877F86
:100EB0009BB198602FB7F894AF0133E0639F400D6A
:100EC000511D1124E417F50789F0319168E09BB9B1
:100ED000000000C037FF8BB9330F000000C000C016
:100EE00000C08BB900C06A9591F7ECCF2FBF8FE59A
:100EF00094E00197F1F700C00000A4960FB6F894B3
:100F0000DEBF0FBECDBFDF91CF911F910F91EF904C
:100F1000DF90CF90089590911B0590FF16C090919F
:100F20007E0320917F03921770F4E92FF0E0DF0138
:100F3000AA0FBB1FEA0FFB1FE253F84F81836083A8
:100F400042839F5FF0CF0C940407089580911B05A6
:100F5000282F269530E02115310519F48170826023
:100F600005C02B32310524F08170846580931B0508
:100F70000895CF92DF92EF92FF926B017C010E9465
:100F8000A607B701A60188E090E0FF90EF90DF9000
:100F9000CF900C94A33780911F05882319F08150BE
:100FA00080931F0560911B0570911C0580911D05A4
:100FB00090911E050C94B90780911F05833018F499
:100FC0008F5F80931F0560911B0570911C058091B8
:100FD0001D0590911E050C94B907EBE1F5E083E047
:100FE000808311828FEF828383831482ADEDB4E01E
:100FF00012968C911297836012968C936081718106
:10100000828193810C94B907AF92BF92CF92DF9205
:10101000EF92FF920F931F93CF93DF93E82EF62E5C
:10102000E901E42FF0E0611106C0EC53FE4FE491BA
:101030004E2F2E2F71C0062F10E0EC53FE4F44911F
:10104000F42FC42ED12C26E0829FC00111242FEF53
:1010500030E0B9010E94FE3B5BEA5603C001579F96
:10106000900D11248E0D911D8E0D911D582F550F31
:10107000580FD901A01BB10BAC9DC001AD9D900DC7
:10108000BC9D900D1124E92FF59ED0011124AB2FAA
:10109000BB277901EA1AFB0AEC9CD001ED9CB00D4C
:1010A000FC9CB00D11245901A51AB108A09E700135
:1010B000A19EF00CB09EF00C1124EF2CFF242E19F1
:1010C0003F092C9D80012D9D100D3C9D100D11247C
:1010D000212F6230710591F048F461157105E1F03E
:1010E00061307105B9F4242F4B2F16C0643071059F
:1010F00069F040F06630710579F00CC0242F492F5B
:10110000E12F0AC0492FEF2F2B2F06C0292FE42FE4
:10111000412F02C0292FEB2F49832883EA83DF91D7
:10112000CF911F910F91FF90EF90DF90CF90BF90E4
:10113000AF900895CF93DF9300D01F92CDB7DEB765
:1011400090911B0590FF0AC09E012F5F3F4F0E94A8
:1011500004084B8169818A810E948B070F900F9050
:101160000F90DF91CF910895AF92BF92CF92DF920F
:10117000EF92FF920F931F93CF93DF9300D01F92B4
:10118000CDB7DEB7182FF62E042FE22E90911B0557
:1011900090FF7EC0E92FE695AE2FB0E0AB52BC4F7A
:1011A0008C918093DD049E7F923061F49E012F5FCD
:1011B0003F4F812F0E9404084B8169818A810E94E0
:1011C0008B0743C0823019F400911E053EC0863063
:1011D00019F410911C0539C08930D9F38931A9F56A
:1011E000E9518E2F8170D82EE695F0E0EC53FD4F3B
:1011F000A590B490C12CBB2460918003C61618F54D
:101200002C2D30E0A29EC001A39E900DB29E900DA9
:10121000112470E00E94FE3B812FD11002C0860F86
:1012200001C0861B90917E03290F311DA901440F37
:10123000551F240F351F2253384F402F6F2D0E940A
:101240000408C394D9CF0E94040780911C05181389
:1012500008C080911D05F81204C080911E05081772
:1012600029F08091DF0482608093DF0410931C05D5
:10127000F0921D0500931E05EE2051F060911B05B4
:1012800070911C0580911D0590911E050E94B90763
:101290000F900F900F90DF91CF911F910F91FF90C2
:1012A000EF90DF90CF90BF90AF900895EBE1F5E025
:1012B000438128E0421B08F440E021E06281818103
:1012C0000C94B408EBE1F5E0438128E0420F08F408
:1012D0004FEF21E0628181810C94B408EBE1F5E0ED
:1012E000628128E0621B08F460E021E04381818193
:1012F0000C94B408EBE1F5E0628128E0620F08F499
:101300006FEF21E0438181810C94B408EBE1F5E0BB
:10131000818121E04381628188500C94B408EBE123
:10132000F5E0818121E043816281885F0C94B408FB
:1013300081E08093B20468E070E081EC91E00C946D
:10134000CA2181E08093B30468E070E081E491E019
:101350000C94CA2160914F05616060934F0587E04E
:1013600090E00E94913762E070E081E291E00C949D
:10137000CA211F920F920FB60F9211244F925F92C3
:101380006F927F928F929F92AF92BF92CF92DF9295
:10139000EF92FF922F933F934F935F936F937F93BF
:1013A0008F939F93AF93BF93CF93DF93EF93FF936D
:1013B00080914E05882309F4C2C1C0919804D09150
:1013C00099041C161D060CF0BAC14090940450906C
:1013D0009504609096047090970420E030E0A90195
:1013E000C301B2010E94ED3918160CF065C0C1307E
:1013F000D10509F452C08091920490919304BE01EA
:101400000E94123C7C0190939304809392048090FC
:10141000440590904505A0904605B090470520E012
:1014200030E040E85FE3C501B4010E9429386093D1
:101430004405709345058093460590934705F70151
:10144000EE0FFF1FEE0FFF1FEE58FB4FA30192019F
:1014500060817181828193810E949A3820E030E01E
:1014600040E05EE30E94F2399B01AC01C501B4018A
:101470000E94ED3918168CF4C7010196BE010E9436
:10148000123C90939304809392041092440510921E
:1014900045051092460510924705E0919204F0919F
:1014A0009304EE0FFF1FEE0FFF1FEE58FB4FC0809F
:1014B000D180E280F380E0C08091200121978823D1
:1014C00009F4BFC0C0906E04D0906F04E090700427
:1014D000F090710420E030E0A901C701B6010E943C
:1014E0009538882309F4A2C0FE01EE0FFF1FEE0F0E
:1014F000FF1FEE58FB4F80809180A280B380A50132
:101500009401C701B6010E94953887FF31C0A5013B
:10151000940160E070E08CED93EC0E949A3820E03A
:1015200030E040E451E40E949A3820E030E040E0AE
:101530005FE30E94F2399B01AC0160E070E080E063
:1015400090E40E945F3A9B01AC01C501B4010E9486
:10155000F2399B01AC01C701B6010E94953887FFA3
:1015600007C0A701960160E070E08CED93E439C0FC
:10157000A5019401C701B6010E94ED3918160CF0BF
:1015800055C0A501940160E070E08CED93E40E94E9
:101590009A3820E030E040E451E40E949A3820E09C
:1015A00030E040E05FE30E94F2399B01AC0160E073
:1015B00070E080E090E40E945F3A9B01AC01C501BD
:1015C000B4010E94F2399B01AC01C701B6010E942F
:1015D000ED3918165CF5A701960160E070E08CED1E
:1015E00093EC0E949A3820E030E040E451E40E94FD
:1015F0009A3820E030E040E05FE30E94F2399B013E
:10160000AC0160E070E080E090E40E945F3A9B01F2
:10161000AC01C701B6010E94F23960936E04709369
:101620006F0480937004909371041EC0CC0FDD1F73
:10163000CC0FDD1FCE58DB4F88819981AA81BB81F9
:101640000BC0FE01EE0FFF1FEE0FFF1FEE58FB4F0A
:1016500080819181A281B38180936E0490936F0405
:10166000A0937004B0937104C0906E04D0906F0486
:10167000E0907004F090710480916C0490916D047E
:101680008F3F2FEF920729F0019690936D0480937E
:101690006C0480919A04811116C01092200180E0A0
:1016A00090E0A0E0BFE380931C0190931D01A09304
:1016B0001E01B0931F011092940410929504109291
:1016C00096041092970420E034E244EF51E4C701FD
:1016D000B6010E94953887FF08C046EFC42E48E245
:1016E000D42E44EFE42E41E4F42E20E030E040E03C
:1016F00051E4C701B6010E94F2399B01AC0160E0E0
:1017000074E284E79BE40E949A386B017C010E949A
:101710000C39709397006093960020911C013091D2
:101720001D0140911E0150911F01C701B6010E9489
:10173000F2390E940C39709399006093980080915F
:101740004D05882309F45AC1C0903E05D0903F054D
:10175000E0904005F090410520E030E0A901C7018C
:10176000B6010E94ED3918160CF052C080916C043D
:1017700090916D048F3F2FEF920729F0019690937F
:101780006D0480936C0480919A04811116C01092AC
:10179000200180E090E0A0E0BFE380931C019093E3
:1017A0001D01A0931E01B0931F011092940410928A
:1017B0009504109296041092970420E030E040E0E7
:1017C00051E4C701B6010E94F2399B01AC0160E00F
:1017D00074E284E79BE40E949A386B017C010E94CA
:1017E0000C39709397006093960020911C01309102
:1017F0001D0140911E0150911F01C701B6010E94B9
:10180000F2390E940C39709399006093980008C0D7
:1018100010929700109296001092990010929800E2
:1018200060913805709139056F5F7F4F709339056E
:1018300060933805209196003091970080E090E009
:10184000232B71F120916B0421112AC0C0919600C5
:10185000D09197000E943B396B017C01BE0180E072
:1018600090E00E943B399B01AC0160913A05709178
:101870003B0580913C0590913D050E949A3820E0FF
:101880003FEF4FE757E40E94F23920E030E040E8B4
:101890005FE30E9428389B01AC01C701B6010AC072
:1018A0000E943B3920913A0530913B0540913C051F
:1018B00050913D050E94ED3987FDA0C08091420501
:1018C00090914305019690934305809342052091A2
:1018D000490530914A0582179307B0F08091480579
:1018E000882329F010924305109242050DC0809183
:1018F00071008D7F80937100809190008F73809331
:10190000900010924D0582C020916B048091420599
:1019100090914305E0914B05F0914C0521113FC09A
:1019200021E020936B049C01215031093093430541
:101930002093420533E0880F991F3A95E1F7E80FAD
:10194000F91FDF011897CD90DD90ED90FC9020817C
:10195000318142815381C701B6010E9495388111BE
:1019600009C010923E0510923F051092400510925A
:10197000410508C0C0923E05D0923F05E092400567
:10198000F092410580E090E0A0E8BFE380933A0543
:1019900090933B05A0933C05B0933D052BC010925E
:1019A0006B0410926D0410926C0423E0880F991F51
:1019B0002A95E1F7E80FF91F80819181A281B38117
:1019C00080933E0590933F05A0934005B093410559
:1019D00020E030E040E85EE3648175818681978194
:1019E0000E94F23960933A0570933B0580933C0561
:1019F00090933D05109239051092380580914F055E
:101A000080FD04C010924D0510924E05FF91EF919C
:101A1000DF91CF91BF91AF919F918F917F916F9106
:101A20005F914F913F912F91FF90EF90DF90CF907A
:101A3000BF90AF909F908F907F906F905F904F90EE
:101A40000F900FBE0F901F9018950E94A42881112F
:101A500002C00E94AF2887E090E00E947D3780930B
:101A60004F0580915005811129C03E9A80917100E7
:101A70008D7F8093710082E0809390008AE1809353
:101A8000910081EC91E1909397008093960023EA76
:101A90003BE04EE855E460911C0170911D0180917E
:101AA0001E0190911F010E94F2390E940C3970931F
:101AB00099006093980081E08093500580914F05D4
:101AC00080FF06C063E070E084E091E00C94CA21DE
:101AD000089580915005811102C00E94250D109239
:101AE000990410929804809171008D7F8093710009
:101AF000809190008F738093900010924D0510920A
:101B00004E0510926E0410926F04109270041092A1
:101B10007104E2E7F4E0ABE5B4E0119211921192A6
:101B200011921D921D9284E0E239F807B1F70895F1
:101B30008091B30481110C94690D08950E94980D51
:101B40001092B30468E070E081E891E00C94CA213F
:101B500062E070E081E391E00E94CA212FEF81EE04
:101B600094E0215080409040E1F700C000000E94C6
:101B7000690D60914F056E7F60934F0587E090E09F
:101B80000C949137CF92DF92EF92FF920F931F93B5
:101B9000CF93DF93682F70E065547109072E000C16
:101BA000880B990B0E943D3920E030E040E451E47D
:101BB0000E949A389B01AC0160E070E080E090E404
:101BC0000E945F3A6B017C0180914E05882309F4E5
:101BD00088C080915005811102C00E94250D20E02F
:101BE00030E04CED53E4C701B6010E94F2396B01BD
:101BF0007C0102E914E0C7E0D0E0A7019601F801FA
:101C000092918291729162918F010E949538811117
:101C100031C0FE01EE0FFF1FEE0FFF1FEE58FB4F0E
:101C20001082118212821382DE01AA0FBB1FA55AF5
:101C3000BB4F11961C921E92C730D105E9F0219638
:101C400044815581668177814083518362837383A8
:101C5000148215821682178212968D919C91139789
:101C600011969C938E9313961C921E921297349603
:101C70001296E2CF219708F68091980490919904EA
:101C8000019797FD05C0909399048093980404C030
:101C9000109299041092980480919804909199045C
:101CA00020919204309193042817390724F0109260
:101CB000930410929204892BA1F4809171008D7F7E
:101CC00080937100809190008F73809390001092A8
:101CD0006E0410926F0410927004109271041092AE
:101CE0004E05DF91CF911F910F91FF90EF90DF9004
:101CF000CF900895CF92DF92EF92FF92682F70E01D
:101D000065547109072E000C880B990B0E943D3910
:101D100020E030E040E451E40E949A389B01AC019D
:101D200060E070E080E090E40E945F3A6B017C012B
:101D300080915005811102C00E94250D80914F05B0
:101D400080FF52C0809198049091990408970CF0FC
:101D50004BC0809171008D7F8093710080914D0503
:101D600081110E94690D20E030E04CED53E4C70181
:101D7000B6010E94F2396B017C0181E080934E052F
:101D800010926D0410926C0420E030E0A901C701AC
:101D9000B6010E94ED391816ECF4809198049091E8
:101DA0009904FC01EE0FFF1FEE0FFF1FEE58FB4FD3
:101DB000C082D182E282F382FC01EE0FFF1FE55A5E
:101DC000FB4F2FE030E031832083019690939904FC
:101DD000809398048091710082608093710080915B
:101DE0009000806880939000FF90EF90DF90CF90FC
:101DF000089580915A04811112C08091D8008061A9
:101E00008093D8008AE18A95F1F700C08091D900CB
:101E100080FD02C082E001C081E080935A0481E02D
:101E200090915A04913009F080E00895F894E82FD9
:101E3000E295EF70F0E031A1282F2F7081E090E063
:101E400001C0880F2A95EAF7982F9095932391A3C4
:101E500092A1892B82A378940895CF93DF930E9457
:101E60008231EC018238910559F1A0F4813391055A
:101E700009F473C040F48932910509F467C08A9768
:101E800009F472C084C08533910509F458C0C9971C
:101E9000B9F07DC0833E910571F138F4803E910523
:101EA000B1F0823E910511F172C0863E9105B9F103
:101EB000873E9105C9F1843E910509F068C024C0B0
:101EC0008091CE0480FD5DC081FD5BC060C08091CB
:101ED000CE0480FD50C08091CF0480FF36C1809138
:101EE000CE0484FD30C1C3EED0E02FC18091CE047A
:101EF00082FF2BC1F4CF8091CE0482FD3FC0809140
:101F0000CF0480FD3EC0EBCF8091CF0481FF1DC187
:101F10008091CE0484FD17C1C7EED0E016C1809138
:101F2000CE0483FF12C1F4CF8091CE0483FD2CC078
:101F30008091CF0481FFECCFC4EED0E006C1809148
:101F4000CE0485FF02C1C9E2D0E0FFC08091CE047B
:101F500085FFFBC0C5E3D0E0F8C08091CE0486FFCA
:101F6000F4C0CAE2D0E0F1C08091CE0486FFEDC09B
:101F7000C1E3D0E0EAC0C9E3D0E0E7C0C2EED0E000
:101F8000E4C0C0EED0E0E1C0C6EED0E0DEC0C115D6
:101F900082E5D80708F066C0C11591E5D90728F099
:101FA000DC2FCC27C16FD06AD0C0C83ED10560F508
:101FB000C03ED10508F0C9C0C83AD105B0F4C53A51
:101FC000D10540F0C55AD0E0CB5DDB4FC881D0E0F1
:101FD000D064BBC0C130D10509F4B7C008F4B3C0A8
:101FE000C430D10508F4AFC0B0C0CF3BD10508F074
:101FF000AAC0C85AD0E0CC0FDD1FC85DDB4F0990E6
:10200000D881C02DD464A1C0C11520E5D207E0F06D
:10201000CE0174E0969587957A95E1F783709C2FB1
:10202000937021E030E002C0220F331F9A95E2F74F
:102030003C68382BCF70C695C69580E2C89FE001FA
:102040001124C22BD32B81C0C11580E4D80718F00E
:10205000DF70D06A7AC0CE019A9581159F4108F44D
:1020600074C071C0C11586E5D807F0F5C11595E5B6
:10207000D90750F08C2F0E94C1068F71C82FD0E075
:10208000DC2FCC27D06261C0C11524E5D20728F02F
:10209000DC2FCC27C46FD06A58C09E012370332731
:1020A0008C2F86958695C115D34578F4C1E0D0E094
:1020B00002C0CC0FDD1F2A95E2F720E2829FC0010B
:1020C0001124C82BD92BDC6840C0C1E0D0E002C08D
:1020D000CC0FDD1F2A95E2F720E2829FC001112478
:1020E000C82BD92BDA6831C0C1152AE5D207E8F42C
:1020F000C11589E5D80780F08C2F8F700E94C1062A
:1021000094E0D695C7959A95E1F7CF70D0E0DC2F93
:10211000CC27D069C82B19C0C11598E5D90798F00C
:10212000DC2FCC27C06FD06A10C0CE01905681152D
:10213000904248F48D2F8F710E94C106DD27D06236
:102140008F71D82B02C0C0E0D0E0CE01DF91CF91DB
:102150000895EBE1F5E080818E7F80830E94C53198
:10216000EDEDF4E08281816082832FEF80E792E0E1
:10217000215080409040E1F700C000000C9404071B
:1021800090911B0590FF3BC09170811102C092603D
:1021900006C08B3210F0946502C0880F982B909384
:1021A0001B058091DF0481608093DF04662351F07A
:1021B00060911B0570911C0580911D0590911E0575
:1021C0000E94B90760911B05669570E04BE050E0F6
:1021D00084EA93E00E94423C892B19F00E94C531A9
:1021E00002C00E943F3281E08093DA0420E04091F7
:1021F0001E0560911D0580911C050C94B40808957E
:1022000080911B058695815009F48AE261E00C9467
:10221000C01080911B0586958F5F8B3208F081E09E
:1022200061E00C94C0108F929F92AF92BF92CF92B8
:10223000DF92EF92FF920F931F93CF93DF9300E013
:1022400014E084ECE82E84E0F82E94E0892E94E0EB
:10225000992E6701C0E0AA24A394B12CB801D8013B
:102260008C91F894E82FE295EF70F0E021A18F7047
:10227000A50102C0440F551F8A95E2F7CA01922FAB
:10228000982B91A392A18095892382A3789450EAF8
:102290005A95F1F7E8E0F4E020E030E0D0E0419139
:1022A000842F82958F7090E0DC0190968C9190E065
:1022B0004F7002C0959587954A95E2F780FD07C05B
:1022C0008A2D022E01C0880F0A94EAF701C080E02F
:1022D000D82B2F5F3F4F2630310509F70F5F1F4F77
:1022E000FB0180810E94160FD6018C91D81719F03E
:1022F000DC9381E001C080E0C82BBFEFCB1ADB0A82
:102300008016910609F0AACFD091CD04CC2349F0D4
:1023100081E0809358040E9437289093570480935B
:102320005604809158048823B9F080915604909106
:1023300057040E941C28069778F0ED2FF0E0EE5E1F
:10234000FA4F88EC94E0D7012D917D0121938A17F3
:102350009B07C9F7109258040E94F90E8823D1F107
:10236000D091CC048091DF048823E9F085E0EBE193
:10237000F5E0A6EBB4E001900D928A95E1F780912B
:10238000DD049091DE04A091DF048093BB04909360
:10239000BC04A093BD0481E090E00E949536892B97
:1023A00011F41092DF0480E090E00E949536892BB2
:1023B00009F0AAC0ED2FF0E0EE5EFA4F80E090E069
:1023C000DC01A154BB4F2C912193019684309105DF
:1023D000B9F750C0E091CD040E2F10E08091BE04FB
:1023E0008830C9F58091BD0480FF12C08091B60489
:1023F00080FF0CC080911B05816080931B0580913C
:10240000B60460E086950E94C01002C00E94A91028
:102410008091BD0481FF09C020E04091B904609122
:10242000B8048091B7040E94B4088091BD0482FF73
:1024300009C08091BC04882319F00E943F3202C079
:102440000E94C5318091BD0483FF03C081E0809369
:10245000DA041092BE04F801EE5EFA4F80E090E0DC
:102460002191DC01A154BB4F2C930196843091053E
:10247000B9F75CC0109259048091AF04882309F425
:1024800055C08091AB049091AC04009781F40E94F8
:1024900037289093AC048093AB042091AD0430E0D6
:1024A0002115310571F48091AE0490E00BC00E94BB
:1024B0001C2820910203309103032817390738F3B1
:1024C00035C0C9010197F901E556FB4FD081209134
:1024D000B304222331F0FC01E556FB4F80810E94BA
:1024E000C20D8091B304882319F08D2F0E947A0EBB
:1024F0008091AD0490E001966091AE0470E00E947E
:10250000123C8093AD0412C0809159048F5F809378
:102510005904863008F4B0CFE091CC04F0E0EE5ED0
:10252000FA4F1082118212821382A6CF8C2FDF9174
:10253000CF911F910F91FF90EF90DF90CF90BF90C0
:10254000AF909F908F9008955F926F927F928F923D
:102550009F92AF92BF92CF92DF92EF92FF920F9332
:102560001F93CF93DF93CDB7DEB7A8970FB6F8943C
:10257000DEBF0FBECDBFFC018081918123813481FC
:10258000232B31F09F3F31F491E08F3F19F403C0CA
:1025900091E001C090E090FDD9C77F0185E0DE01A8
:1025A000949601900D928A95E1F7D70112962C919D
:1025B0008CA19DA1222349F00E944C29182F682F3D
:1025C0008CA19DA10E94C62903C00E949929182FA1
:1025D0006CA17DA1812F0E9482318C01F701928133
:1025E000992309F4E2C0980122513F452031310579
:1025F00008F008C18FEF93E00E947D378111DFC0A2
:10260000025156EA852E99249394002379F081147F
:10261000F4E09F0609F4D3C0C4010E947D37811104
:1026200001C001501FEF811A910AEFCF19821A825F
:102630001B821C82662463944AE0542E84010F5F3F
:102640001F4FC4010E947D3789831A82882309F4B1
:10265000B6C09FEF980F933060F48A83698222E0BE
:10266000820E911CC8010E947D378B83811102C0AC
:10267000A6C048018E010F5F1F4FD8012C91222365
:10268000E9F2213009F04FC011968C91813049F464
:102690006801B2E0CB0ED11CF80182810E94A933FF
:1026A0000BC0823059F46801F2E0CF0ED11CD80182
:1026B00012968C910E940D33860174C0833049F4C8
:1026C0006801B2E0CB0ED11CF80182810E94B132C8
:1026D000F3CF843019F00F5F1F4F64C0D8011296FA
:1026E0002C910E5F1F4F80E090E030E020533109C5
:1026F0002A30310568F4589EA001599E500D1124CE
:10270000C901840F951F0F5F1F4FF8012081EDCF86
:10271000009709F447C0AFE9BFE01197F1F700C097
:1027200000000197F5CFE22FF0E0EB50FD4F7490E1
:10273000822F86958695869590E0FC01EB51FD4FA2
:10274000A4902770B12C022E02C0B594A7940A94CD
:10275000E2F7B1E0AB22BB24FC01EB52FD4FC49089
:10276000D12C02C0D594C7942A95E2F7E1E0CE229D
:10277000DD24A114B10419F081EE0E940D33C114BF
:10278000D10419F086EE0E940D33872D0E94A933E3
:10279000CD2819F086EE0E94B132AB2819F081EEF7
:1027A0000E94B1320F5F1F4F68CF0031FFE51F0756
:1027B00009F042C681E00E94102A0E94AC2180915B
:1027C000BE07877009F4C2C6D70112968C91882380
:1027D00009F4BCC682E0A8960FB6F894DEBF0FBE1F
:1027E000CDBFDF91CF911F910F91FF90EF90DF90C0
:1027F000CF90BF90AF909F908F907F906F905F90A1
:102800000C94352A0031BFE51B0711F481E005C0A7
:102810000131EFE51E0721F482E00E944E2ACDCF60
:102820000D31FCE51F0731F4992309F44EC00E94D5
:10283000AA09C5CF0E31FCE51F0731F4992309F42D
:1028400044C00E94A80DBBCF0F312CE5120739F40C
:102850009923D9F180914F0580FDF3CFE8CF0A325B
:102860003CE5130749F4992381F110929A0464E03E
:1028700070E081E092E024C00B325CE5150799F32B
:1028800006322CE51207F9F007328CE5180709F437
:10289000F2C00832ACE51A0709F4E3C00C32BCE51B
:1028A0001B0709F4EEC00D32ECE51E0709F0EFC07E
:1028B000992359F01092B20468E070E081E292E04E
:1028C0000E94CA217CCF9111D3C04091B304411121
:1028D00005C08091B204882309F403C1992309F447
:1028E0004BC0003E110561F40E94980D81E0809379
:1028F000B1041092B0041092AF041092AE045FCFF6
:10290000023E110571F40E94980D8091B104882354
:1029100019F081E08093B0041092B1041092AF04DA
:102920004ECF033E110591F48091B004882321F12C
:102930000E94980D1092B10481E08093AF04109230
:10294000AD041092AC041092AB0439CF02351105DE
:1029500031F480910203909103030A9708C0013576
:10296000110551F480910203909103030A9690930C
:1029700003038093020323CF8091010381110DC0D3
:10298000D70111968C91119728E030E0281B31096E
:102990008C91805FD82EBCE01DC0813069F4F701B6
:1029A000818128E030E0281B3109D22EDD0CDD0CBE
:1029B000D20E80818D5C31C0823081F4D7011196B6
:1029C0008C91119728E030E0281B31098C918D5CA7
:1029D000D82EB7E02B9FD00C112423C08330F9F4FC
:1029E00083E2E2EBF3E0DE01119601900D928A950D
:1029F000E1F7F7018081FE01E80FF11DD701119683
:102A00008C9128E030E0281B3109D0848D2DBCE06A
:102A10002B9F800D112439E0D32ED80E02C02CE05C
:102A2000D22E9923A1F0442319F08D2D0E947A0E05
:102A30008091B104882381F08091AE04E82FF0E00A
:102A4000E556FB4FD0828F5F8093AE0405C04423D0
:102A500019F08D2D0E94C20D0F3F110508F041C0E5
:102A6000AECE992309F431CF8091B304811106C011
:102A70000E94A109A4CE992309F427CF0E949E0D9C
:102A80009ECE992309F421CF0E94980998CE0E3248
:102A9000FCE51F0741F4992309F417CF8091B20494
:102AA000811108CFF1CF09322CE5120709F00DCFC3
:102AB000992309F40ACF0E94980D2091010330E078
:102AC0002F5F3F4F237033272093010348E2429F3B
:102AD000C001439F900D112465E070E08F599D4F18
:102AE000EFCE043F3CE5130799F406E221EE40EEF9
:102AF00064EF7CE509C0083DACE51A0711F506E274
:102B000021EE41EE68ED7CE5C7010E94CC3157CE45
:102B1000053F5CE5150708F069C1093D8CE518071C
:102B200031F407E225EE45EE69ED7CE5EDCF0A3D97
:102B30009CE5190701F708E221E045EE6AED7CE526
:102B4000E3CFF7019281992309F485C11092B4046F
:102B50000230FCE51F0708F468C106312CE51207B6
:102B600038F098012B5F3C452930310508F05DC1F4
:102B70000E9493289093CF048093CE0400313CE5CB
:102B8000130709F4CAC008F042C008308CE51807E2
:102B900009F4A0C0F0F40430ACE51A0709F486C0CB
:102BA00068F40230ECE51E0709F47CC003301C45D4
:102BB00009F00CC18091CE0482607BC006302CE508
:102BC000120709F47FC008F081C08091CE048860AC
:102BD00070C00C305CE5150709F48BC068F40A304E
:102BE0009CE5190709F47AC008F07FC00E94913271
:102BF0008091CE0480685DC00E30BCE51B0709F4EF
:102C00007CC008F086C08091CE048B7F52C00C3F00
:102C1000FCE51F0709F450C020F503313CE513071C
:102C200009F483C078F401318CE5180709F479C000
:102C300002311C4509F0CAC00E9491328091CE0435
:102C40008F7737C00531ACE51A0709F47CC008F46A
:102C5000ACC00B3F1C4509F0B9C08091CF04816026
:102C60002EC00115FDE51F0709F466C070F40E3F84
:102C70003CE5130709F449C008F443C08091CF0430
:102C8000826081608093CF0484C002308DE5180794
:102C900009F497C008F470C003301D4509F096C0D0
:102CA00060E090C08091CE04816003C08091CE042A
:102CB00084608093CE048AC08091CF048260809328
:102CC000CF0484C08091CE048061F3CF8091CE0484
:102CD0008062EFCF8091CE048064EBCF8091CE04F0
:102CE000886084608093CE043DC08091CE048E7F46
:102CF000E0CF8091CE048D7FDCCF8091CE04877FA2
:102D0000D8CF8091CF048E7FDACF8091CF048D7F92
:102D1000D6CF8091CE048F7ECCCF8091CE048F7D94
:102D2000C8CF8091CE048F7BC4CF8091CE04877FA3
:102D30008B7F8093CE041BC08091CF048D7F8E7FCC
:102D40008093CF042BC08091CE0482FB222720F9F0
:102D500091E0922790FB82F990FB83F98093CE0457
:102D6000992329F064E070E084E493E01BC062E002
:102D700070E084E193E016C08091CF04982F909585
:102D800091708E7F892B90FB81F98093CF049923DA
:102D900029F064E070E084E293E004C062E070E057
:102DA00084E093E00E94CA2111C00E949132809178
:102DB000CE0487FB222720F991E0922790FB87F928
:102DC00078CF61E08EE090E00E9491376091CE0470
:102DD0001091CF0484E090E00E949137612F81E24E
:102DE00090E00E9491370E949132E9CC063FBCE509
:102DF0001B0731F406E221EE42EE66EF7CE584CE5D
:102E0000063FECE51E0730F407E225EE44EE65EFE1
:102E10007CE57ACE073FFCE51F0709F092CE07E27A
:102E200025EE46EE67EF7CE56FCE06312CE5120706
:102E300019F58091C1078A7A91E009F490E09093A6
:102E4000B504882311F065E301C069E280E697E0EC
:102E50000E9479280EC006313CE51307A9F5809140
:102E6000B504882309F4EFC265E380E697E00E9489
:102E70006C280E941F29A3CC01152CE5120731F004
:102E80000F3D1C4559F50E94AF2899CC0E94913204
:102E90000E94980D0E9437288C0163E070E084E660
:102EA00093E00E94CA21C8010E941C288A3F910514
:102EB00038F48FE99FE00197F1F700C00000F3CFED
:102EC0000E94690D0E94D2278091C1078272F80189
:102ED000E35CFC45E431F10508F4B7C2D7010D917C
:102EE0001C91992349F0C8010E944C29D82E682FC3
:102EF000C8010E94C62904C0C8010E949929D82E81
:102F0000B8018D2D0E942D0F8C01982EF701A58000
:102F1000A2949FE0A922D280D1101092C007809184
:102F2000BE07877099F0DD2089F0812F807F803483
:102F300021F080E2800F883048F082E00E94352A3C
:102F40008091BE078770CC24C3948111C12CB12E0F
:102F5000B2948FE0B8228B2D90E08C30910508F070
:102F600038C2FC01EA5AFF4F0C94263C812F807F27
:102F70001F70882311F01295107FDD20B9F0112306
:102F800009F412C280E2800F883010F0911006C060
:102F90008091C107182B1093C10705C08091C0070D
:102FA000182B1093C0070E941F29FEC1802F0E947A
:102FB000B132112309F40DC2005E1095083010F0F3
:102FC000911006C08091C10718231093C10705C056
:102FD0008091C00718231093C0070E941F29F9C1D0
:102FE000812F807F1F70803211F01295107F992001
:102FF00021F0F1E09F16E1F02AC0DD2081F0809100
:10300000C207AA2051F001E0A01207C0182B181720
:1030100009F4DFC11093C207DCC1812B10C0AA20C4
:1030200021F021E0A21609F4D4C10E9419292AC076
:10303000DD2041F035E03A1508F4CBC1812F0E9424
:10304000A732C7C154E05A1508F4C3C11BC0DD2024
:1030500061F0AA2099F3D70115968C91159780FFFE
:10306000A3C18F7015968C93E9CFAA2059F009332C
:1030700009F0ACC1BFEFE7EEF3E0B150E040F04043
:10308000E1F7A2C1812F0E949C32A3C1812F8695B6
:103090008695837019F0813059F09BC1DD2019F0BD
:1030A000C801937002C080E090E00E94A43097C1F4
:1030B000DD2019F0C801937002C080E090E00E940A
:1030C0008E308DC1812F837009F069C0D11085C108
:1030D000902F929596959770990F990F802F8F70DA
:1030E000882E912CA12CB12C092E04C0880C991C7F
:1030F000AA1CBB1C0A94D2F704FF12C04FE050E098
:1031000060E070E004C0440F551F661F771F9A955A
:10311000D2F7DB01CA0180959095A095B09503C0C8
:1031200080E090E0DC0116951695412F4370423007
:1031300019F1C8F40091C3071091C4072091C50785
:103140003091C607413059F088299929AA29BB290D
:10315000BC01CD0160237123822393230AC0802AFE
:10316000912AA22AB32ABC01CD01682979298A298A
:103170009B290E946F2A31C188299929AA29BB2934
:103180000091C3071091C4072091C5073091C6076D
:10319000BC01CD016027712782279327EACFDD206C
:1031A00019F0812F817001C08695882309F415C11B
:1031B000902F929596959770990F990F802F8F70F9
:1031C000882E912CA12CB12C092E04C0880C991C9E
:1031D000AA1CBB1C0A94D2F704FF12C04FE050E0B7
:1031E00060E070E004C0440F551F661F771F9A957A
:1031F000D2F7DB01CA0180959095A095B09503C0E8
:1032000080E090E0DC0116951695412F4370423026
:10321000D9F068F5009151051091520520915305A0
:1032200030915405413059F088299929AA29BB29A0
:10323000BC01CD0160237123822393231EC0802A09
:10324000912AA22AB32A13C088299929AA29BB291D
:10325000009151051091520520915305309154056C
:10326000BC01CD01602771278227932706C0BC01CE
:10327000CD01682979298A299B290E94F229ADC0AC
:103280001F70DD2039F0812F0E944E2A802F0E946E
:10329000A732A3C0802F0E949C32812F0E94102A47
:1032A0009CC0802F22EF921609F440C0291538F0F7
:1032B00030EF931661F051EF951699F170C093EFCE
:1032C0009916D9F1A4EF9A1609F44EC068C0DD2012
:1032D00019F1B4E0BA1508F47CC01F7181E090E0E8
:1032E000A0E0B0E0AC01BD0104C0440F551F661F53
:1032F000771F1A95D2F78091510590915205A091B0
:103300005305B09154058A019B01082719272A27E4
:103310003B27C901B80125C025E02A1508F459C08A
:10332000DCCFDD2029F0812F8F712CC0DD20D9F377
:10333000812F8F710E94102A4CC0DD2079F01F71FF
:1033400081E090E0A0E0B0E0BC01CD0104C0660FD8
:10335000771F881F991F1A95D2F703C060E070E0AD
:10336000CB010E94F22935C0DD2079F01F71812F39
:103370000E944E2A38E0139FC0011124836080937D
:10338000BE07812F0E944E2A24C081E00E94352A68
:1033900051E05A15F0F482E00E94352A1AC0DD206F
:1033A00039F0AA2009F4BFCF802F0E940D3311C03D
:1033B000AA2009F4BDCF893349F48FEF97EEA3E03B
:1033C00081509040A040E1F700C00000802F0E9493
:1033D000B13288EF8B0D843010F40E94BA30CC20CB
:1033E00009F4B4C08091BE0780FDB0C0F70112821D
:1033F0008595859585950E944E2AC7010E94A41245
:103400008091BE07859585958595A8960FB6F89409
:10341000DEBF0FBECDBFDF91CF911F910F91FF9007
:10342000EF90DF90CF90BF90AF909F908F907F9064
:103430006F905F900C94102A01312FE5120709F06C
:10344000EFC982E0B8C969E210CDEE59FF4F0C9484
:10345000263C80911B0580FF20C08E7F80931B053A
:1034600060911B0570911C0580911D0590911E05B2
:103470000E94B9070E94C5318091DF04816080936A
:10348000DF04BFEFE0E7F2E0B150E040F040E1F7E9
:1034900000C000000E94040792C9816080931B0550
:1034A00061E0869550C040E051E169E071E12CC0D7
:1034B00049E051E160E071E127C046E859E06FE87A
:1034C00079E022C04FE859E066E879E01DC04EE699
:1034D00059E06AE779E018C04AE759E06EE679E01A
:1034E00013C046E559E062E679E00EC042E659E0D5
:1034F00066E579E009C04BEC57E06CED77E004C07D
:103500004CED57E06BEC77E00E94BF3158C961E0A9
:1035100081E019C065E082E011C068E086E00EC07D
:103520006EE089E00BC064E18FE008C067E185E1EF
:1035300005C061E088E107C062E289E10E94AD3127
:103540003EC961E083E20E94C01039C9A8960FB657
:10355000F894DEBF0FBECDBFDF91CF911F910F91C9
:10356000FF90EF90DF90CF90BF90AF909F908F90A3
:103570007F906F905F900895CF93DF93CDB7DEB7C4
:10358000AE970FB6F894DEBF0FBECDBF84B7877F6E
:1035900084BF0FB6F894A8958091600088618093ED
:1035A0006000109260000FBE90E080E80FB6F894C3
:1035B00080936100909361000FBE85B7806885BFDE
:1035C00085B7806885BF0E9479250E9498258091E3
:1035D000E20084608093E20078948091370588232C
:1035E000A1F01091E9001F709091EC00892F81707B
:1035F00090FD80E8182B1092E9008091E80083FD8F
:103600000E9457221F701093E90082E084BD93E06E
:1036100095BD9AEF97BD80936E000E94F90E80933E
:10362000910380919103882321F010927C0386E01E
:1036300003C086E080937C0380937D030E94F90E93
:10364000882331F062E070E081E893E00E94B335B6
:103650008091910380919103882311F090E001C043
:1036600094E09093CD0484E0891B8093CC0484E99A
:103670000E94160F87E90E94160F86EC0E94160F13
:1036800084E30E94160F08E014E03EE0E32E34E0ED
:10369000F32ED8018D918D010E94160FE016F106D0
:1036A000C1F7E4ECF4E0A2E1B5E011921D9224E050
:1036B000EC3CF207D1F70E9413118FE39CE90197CC
:1036C000F1F700C000000E9413118091120580FFE5
:1036D0000AC080E00E948F316FEF7FEF80E090E0C2
:1036E0000E94AF3775C50E94A428811102C00E94B4
:1036F000AF280E94250D0E94F90E811106C062E0DC
:1037000070E081E893E00E94BC3582E290E00E9484
:103710007D37803281F483E290E00E947D378231F0
:1037200051F484E290E00E947D3791E0853009F009
:1037300090E0892F01C080E080FF71C510920005E4
:1037400080E8809355050E946E346DE070E088E853
:1037500093E00E942E22892B09F043C0809100053E
:1037600063E070E081FD3AC085E893E00E942E227C
:10377000892BB9F56DE070E085E793E00E942E2279
:10378000892B79F50E942B28DC01CB01805A9541C9
:10379000AF4FBF4F8093020590930305A09304059C
:1037A000B0930505E8E5F5E080E092E0DF019C01DB
:1037B0001D9221503040E1F7F0935F07E0935E07E0
:1037C0008FEF9FEF909357058093560581E080938C
:1037D0000705809306051092010503C082E893E077
:1037E000C5CF0E94A428811102C00E94AF2882E0A8
:1037F00090E00E947D37809309050E949328909362
:10380000CF048093CE0483E090E00E947D37682F40
:1038100070E080E090E00E946F2A8091D0048111D6
:1038200038C00E94A428811104C00E94AF280E94C1
:10383000ED0788E090E00E94853760931B05709348
:103840001C0580931D0590931E058091DF04836005
:103850008093DF046E7F71F40E94ED0788E090E0B2
:103860000E94853760931B0570931C0580931D058E
:1038700090931E050E94A6070E94C53180911B05EA
:1038800080FF04C060E086950E94C01081E08093B4
:10389000D00489E993E09093D2048093D104CE01BF
:1038A00001967C01DE011B96BCA7ABA722242394C2
:1038B000312C80913705853009F04BC08091370558
:1038C000843009F434C01092D30420E488E190E0FD
:1038D0000FB6F894A895809360000FBE2093600007
:1038E0000E94C5318091210581110AC081E0809339
:1038F000210580911B058170809320050E94A910ED
:1039000083B7817F846083BF83B7816083BF7894EE
:10391000889583B78E7F83BF0FB6F894A895809162
:103920006000886180936000109260000FBE8091FB
:103930002D05882309F4BDCF0E9413118AE195E07B
:10394000E2E1F5E0219121114BC48E179F07D1F7D9
:10395000B0CF0E941311B82E0E94F90E8823A1F156
:10396000EAE0F5E0A2E1B5E000E010E0302F2D91B3
:103970009191922721F180E0DD24D394492F4D21AC
:10398000D1F089A33AA32D2181E009F480E08BA333
:103990000E9437288160782F9DA38CA349A15AA14A
:1039A0006BA18DA10E94F22FF801E65FFA4F808192
:1039B000D826D08219C08F5FDD0C8630F9F60F5FF4
:1039C0001F4F0830110591F68FEF8EA38FA318A615
:1039D0000E9437288160782F9AA789A74EA15FA1FE
:1039E00068A58AA50E94F22F8091DE04882309F43D
:1039F000C6C08091DD04E0911B05E695E81BE093CD
:103A0000D904823049F4F0E0EA55FC4FE4918E2E5F
:103A1000912C0EED1FE25EC0863049F4F0E0ED55CA
:103A2000FC4FE4918E2E912C0EEC1FE253C0893096
:103A300051F4E695F0E0E056FC4FE4918E2E912C87
:103A400003E51FE247C08F3051F4E695F0E0E356FE
:103A5000FC4FE4918E2E912C06EB1EE23BC085318B
:103A600049F4F0E0E656FC4FE4918E2E912C00E3F1
:103A70001EE230C08831D9F0833239F4E8E9F3E04E
:103A8000859094900EE81FE225C08432B1F0853213
:103A9000D9F48E2F63E00E94E43BE92FF0E0EB566F
:103AA000FC4FE4918E2E912C0FE91CE213C098E29A
:103AB000892E912C0DE91DE20DC084EF882E9924EA
:103AC00093940EE51DE206C000ED802E07E0902ED7
:103AD0000EE91CE28091DA04882389F01092DA045E
:103AE0000E943728940120953095820F931F909360
:103AF000D8048093D7041092DC041092DB048091E8
:103B0000D7049091D8040E941C2888159905B8F113
:103B10008091D6048823B1F01092D6048091D40409
:103B20009091D5040E941C288033954758F00E943C
:103B300037289093D5048093D4048091DF04886063
:103B40008093DF04C090DB04D090DC04E091D704C4
:103B5000F091D8048E0E9F1E9092D8048092D704C4
:103B600087ED94E0F80109958091DB049091DC04E5
:103B7000892B29F4CD2819F081E08093D604809117
:103B80000705882309F46EC128E535E030935F0707
:103B900020935E070E94F90E882309F45DC080918E
:103BA000510590915205A0915305B0915405AD0176
:103BB00066277727411551056105710521F4AC0190
:103BC000BD0180E001C080E1052F162F272F33278C
:103BD000011511052105310519F0885FB901A8010A
:103BE0008A019B01A4E03695279517950795AA951C
:103BF000D1F7011511052105310519F08C5FB901C7
:103C0000A8018A019B01F2E0369527951795079543
:103C1000FA95D1F7011511052105310519F08E5FCF
:103C2000B901A8017695679557954795452B462B81
:103C3000472B09F08F5F813049F028F0823049F43A
:103C400088EC93E00BC085ED93E008C08BEB93E02C
:103C500005C08AEA93E002C084EE93E00E949C21B2
:103C600020915605309157052115310509F4D7C02B
:103C7000809101058111D3C0482E512C6101082E7D
:103C800002C0CC0CDD1C0A94E2F7A9014C215D2195
:103C9000452B11F48F5FF0CF90910005920175E0F4
:103CA000220F331F7A95E1F790FD12C08295880F9D
:103CB000807680939403220F232F221F330B31959C
:103CC00020939703815E809395031092980312C00E
:103CD00055E0369527955A95E1F7220F220F220FCE
:103CE0002093940310929703295F2093950383E018
:103CF0008093980324E630E047E050E062E973E007
:103D000088E70E94FB34892B09F089C08091000567
:103D100080FD23C0C20145E0880F991F4A95E1F755
:103D2000AC01485A5A4F04E610E020E230E060E46B
:103D300088E70E942235892B09F071C00E94C630A5
:103D4000C094D0948091560590915705C822D922ED
:103D5000D0925705C092560562C080E2A0EEB4E052
:103D60001D928A95E9F735E0440C551C3A95E1F728
:103D7000E2E1F4E0FEA7EDA76EE074E0ADA5BEA51C
:103D80008D91BEA7ADA7FB019191BF01A201490F83
:103D9000511D485A5A4F90E080529B4FFC0127E03A
:103DA000922E9F01281B390B722C01C0770C2A958B
:103DB000EAF78A01812CD801AD908D01A720292D29
:103DC00028192770622E022E000C330BBA2D01C069
:103DD000BB0F6A94EAF76B2E319521953109277054
:103DE000332701C0A6942A95EAF76A28A0806A289A
:103DF0006082839428E08212DECF9A9431963FEF5E
:103E00009312CFCF8DA59EA58651944009F0B6CFD1
:103E100004E610E020E230E040EE54E088CF8091EC
:103E200006058823F9F00E942B28009102051091C5
:103E300003052091040530910505DC01CB01801BB1
:103E4000910BA20BB30B8F3F9F4FAF4FBF4750F467
:103E500062E070E081EF93E00E942E22892B11F442
:103E600010920605B1100E94C6300E94BA3090919F
:103E70000805891721F00E94BA30809308058091C7
:103E80003705843009F015CD83E08093E9008091F7
:103E9000E80082FF0ECD8091E80085FF22C00E94DD
:103EA000E32681111CC000E210E09E012F5F3F4F0E
:103EB000690108C08091F100D6018D936D01015018
:103EC000110969F08091E80085FDF4CF8091E80048
:103ED0008B778093E8000E94E326882399F391E092
:103EE00001C090E08091E8008B778093E8009923EF
:103EF00009F4DFCCE9818E2F90E0FC013197E331AA
:103F0000F10508F067C1EA58FF4F0C94263C1A826D
:103F100089E0A2C08A81823009F478C1833051F0EF
:103F2000813009F057C10E942B289B838C837D83AD
:103F30006E8352C1FE013396A2E1B5E08D9181936B
:103F40002BA53CA5E217F307C9F746C18A81823049
:103F500009F040C16B817C818D819E810E942C3C47
:103F600085E290E024C04C816B818A810E945C31A3
:103F70009D8353C1CD80DE80DC24CD24DC248C8164
:103F80000B819A813CE0039F80011124A0E69A9F57
:103F9000000D111D1124080F111D080F111D6D2D8D
:103FA000C80186960E9491376C2DC80187960E94A1
:103FB000913712C10E9428310FC18A818138B1F036
:103FC00050F4803809F008C120E04B8160911D0554
:103FD00080911C0523C08238E9F0833809F0FCC0C9
:103FE00020E040911E056C818B8118C060E08B81C0
:103FF0000E94C0108B81811103C00E94A910ECC0E7
:1040000080911B05816080931B0560E086950E946E
:10401000C010E2C08B8180931F05DEC00E94B408EF
:10402000DBC08A81813899F030F4803809F0D4C03F
:1040300080911E0511C0823899F0833809F0CCC0F8
:1040400080911C058B8380911D058C83C5C0809158
:104050001B0580FF03C086958B83BEC080E0FCCF2C
:1040600080911F05F9CF60911B0570911C0580910F
:104070001D0590911E050E94B907AEC080E14DC09C
:1040800082E08A838AE5E8CF0A811B811027012715
:104090001027AC80B12C6701C8018A559E4F96014C
:1040A0002E193F092A153B0508F096C00A35B2E0E3
:1040B0001B0728F40E947D37F601848303C0D601D4
:1040C00014961C920F5F1F4FBFEFCB1ADB0AE4CF91
:1040D0000A811B81102701271027AC80B12C6701B2
:1040E000C8018A559E4F96012E193F092A153B0596
:1040F00008F072C00A35E2E01E0728F4D6011496D3
:104100006C910E9491370F5F1F4FBFEFCB1ADB0AF4
:10411000E7CF0E94183160C084E08A835DC00A81C5
:104120001B81102701271027AC80B12C6701C80123
:10413000869696012E193F092A153B0508F04CC0BA
:104140000038E1E01E0730F40E947D37D601149656
:104150008C9302C0F60114820F5F1F4FFFEFCF1A3E
:10416000DF0AE5CF0A811B81102701271027AC80C9
:10417000B12C6701C801869696012E193F092A15B0
:104180003B0550F5003821E0120728F4D6011496BB
:104190006C910E9491370F5F1F4FBFEFCB1ADB0A64
:1041A000E9CF80E00E948F316FEF7FEF80E090E0F9
:1041B0000E94AF3711C0CE0101960E944227EFEF57
:1041C000F1EE24E0E150F0402040E1F700C00000B3
:1041D0000E94D2278FEF8983C7010E94422769CBB3
:1041E00080E189BD82E189BD09B400FEFDCF8091E7
:1041F000D8008F7D8093D8008091E000826080930A
:10420000E0008091E00081FDFCCF53CB85E290E09F
:104210000E947D371B821C821D828E83DDCF60E071
:1042200085E290E00E9491370E9428310E94183167
:1042300081E00E948F3182CACF93DF938A3011F4DC
:1042400081E003C08D3029F480E0DF91CF910C94A0
:10425000E830682F80915E0790915F0726E0FC01AF
:10426000A8E5B7E001900D922A95E1F7603E30F0A5
:1042700026E0FC0111922A95E9F70AC0F6E06F9F4B
:10428000B0011124625D7A4F46E050E00E9474371D
:10429000C0915E07D0915F0746E050E0BE0188E51F
:1042A00097E00E944F3C892B49F19E0128553540EB
:1042B000A90185E0569547958A95E1F781E090E060
:1042C000BC0102C0660F771F4A95E2F74091560580
:1042D00050915705462B572B2B5F3F4F65E0369586
:1042E00027956A95E1F702C0880F991F2A95E2F792
:1042F000842B952B90935705809356059E0122554C
:10430000354040915505642F70E0C9010E94FE3B85
:10431000481B463010F4240F311D211582E0380768
:1043200010F020E030E0285A3A4F30935F07209396
:104330005E07DF91CF910895CF93DF93EC01FE01EB
:104340008491882321F00E941C212196F8CF81E0DE
:10435000DF91CF910C94E8300F931F93809151051A
:1043600090915205A0915305B09154058C019D0187
:104370000670112722273327BC01CD010630110515
:104380002105310511F4686001C0677F1F910F910D
:104390000C94F2290F931F93CF93DF93EC018B01C1
:1043A00080915005811102C00E94250D80914F051A
:1043B00080FF4FC0809171008D7F8093710080914C
:1043C0004E0581110E94690D81E080934D05D093C7
:1043D0004C05C0934B0510934A0500934905109274
:1043E000480510924405109245051092460510921A
:1043F0004705109243051092420588819981AA8150
:10440000BB8180933E0590933F05A0934005B093F8
:10441000410520E030E040E85EE36C817D818E81E3
:104420009F810E94F23960933A0570933B05809317
:104430003C0590933D051092390510923805809106
:1044400071008260809371008091900080688093F9
:104450009000DF91CF911F910F910895EF92FF92FD
:104460000F931F93CF93DF93EC017B0164E670E021
:1044700088E70E9474348C01EC0EFD1ECE15DF051A
:1044800061F017FD0AC0FE01849164E670E00E94AD
:10449000CB348C012196892B89F30E944F35C801BA
:1044A000DF91CF911F910F91FF90EF9008951F938F
:1044B000CF93DF93CDB7DEB7AA970FB6F894DEBFE0
:1044C0000FBECDBFEFE2F5E08091F100819345E0B2
:1044D000E733F407C9F780913005833009F462C0EF
:1044E00030F4813071F0823009F49CC0B3C08A305E
:1044F00009F488C08B3009F46DC0893009F0AAC076
:1045000020C080912F05813A09F0A4C08091E80075
:10451000877F8093E8008091330590913405892B43
:1045200021F468E084E295E003C060E080E090E080
:1045300070E00E9410348091E8008B778093E8004F
:1045400089C080912F05813209F084C080913305A4
:1045500090913405009719F0029709F07BC0809183
:10456000E800877F8093E8008091E80082FD05C025
:10457000809137058111F8CF6DC02091F3008091B3
:10458000F20090E0922B029729F48091F1008B7F4A
:10459000813021F48091F100809323058091E8001F
:1045A0008B7754C080912F05813A09F053C08091D8
:1045B000330590913405892B09F04CC08091E800B7
:1045C000877F8093E8008091E80080FFFCCF809196
:1045D000A30337C080912F058132E1F58091330527
:1045E00090913405892BB1F58091E800877F809305
:1045F000E8000E94BC33809131058093A3030E94A0
:10460000913228C080912F05813221F58091E800F8
:10461000877F8093E8000E94BC33809132058093AD
:10462000220518C080912F05813AA1F48091E800FD
:10463000877F8093E8008091E80080FFFCCF809125
:1046400022058093F1008091E8008E778093E80046
:104650000E94BC338091E80083FFE9C180912F055F
:1046600090913005492F50E04A30510508F0DFC1E4
:10467000FA01E757FF4F0C94263C803821F082382E
:1046800009F0D5C108C080912C0590912D05992382
:1046900089F082600FC0809133058F70873008F0F9
:1046A000C6C18093E9008091EB0085FB882780F9E3
:1046B0001092E9009091E800977F9093E800809332
:1046C000F1001092F1007CC1282F2D7F09F0AFC1BD
:1046D000882319F0823061F0AAC1809131058130C0
:1046E00009F0A5C1933009F080E080932D052EC01C
:1046F0008091310581112AC0809133058F702FEF91
:10470000280F263008F093C18093E9002091EB0038
:1047100020FF1CC0933021F48091EB00806214C014
:104720009091EB0090619093EB0021E030E0A901C3
:1047300002C0440F551F8A95E2F74093EA00109299
:10474000EA008091EB0088608093EB001092E90012
:104750008091E800877F8093E8000E94BC3367C1A6
:10476000811165C1109131051F778091E300807838
:10477000812B8093E3008091E800877F8093E8009D
:104780000E94BC338091E80080FFFCCF8091E30061
:1047900080688093E300111102C082E001C083E0D1
:1047A0008093370544C18058823008F040C1209181
:1047B0003105309132052C3D53E0350779F583E022
:1047C0008A838AE289834FB7F894DE01139620E04A
:1047D0003EE051E2E32FF0E050935700E49120FFD8
:1047E00003C0E295EF703F5FEF708E2F90E0EA30EC
:1047F00010F0C79601C0C0968D939D932F5F243112
:1048000049F74FBF8091E800877F8093E8006AE214
:1048100070E0CE0101960E941034C0C08091330533
:1048200090913405432F552743305105B1F068F47A
:104830004130510509F40AC14230510509F0F7C071
:104840008BE590E0E7E8F4E057C04132510589F18B
:104850004232510509F43CC0EAC0C90199278130B0
:104860009105B9F070F082309105D9F0039709F005
:10487000DEC0E4EFF4E0E4918E2F90E0E4EFF4E0AA
:1048800038C0EAE2F5E0E4918E2F90E0EAE2F5E04C
:1048900030C0E6E1F5E0E4918E2F90E0E6E1F5E04E
:1048A00028C0EAEFF4E0E4918E2F90E0EAEFF4E024
:1048B00020C08330910508F0BAC0880F991FFC0111
:1048C000E15EFB4F0190F081E02D89E090E014C0A3
:1048D0008330910508F0ABC0FC01EE0FFF1FE75ECF
:1048E000FB4F0190F081E02DDC01AA5EBB4F8C9163
:1048F00090E0009709F49BC02091E800277F209367
:10490000E80020913505309136052817390708F45D
:10491000C90140E0009789F120913705222309F46D
:104920003DC02530D9F12091E80023FD37C020910A
:10493000E80022FD2FC02091E80020FFEBCF40913E
:10494000F3002091F20030E0342B009759F028302A
:10495000310540F444914093F100319601972F5F67
:104960003F4FF3CF41E02830310509F040E020917E
:10497000E8002E772093E800CDCF4111CDCF0AC0BB
:1049800080913705882351F0853041F08091E8000F
:1049900083FD04C08091E80082FFF2CF8091E8009F
:1049A0008B778093E80043C0803809F040C0809145
:1049B000E800877F8093E80080912E058093F100C6
:1049C0008091E8008E77C7CE811131C0809131058A
:1049D000909132059927029754F58091E800877FDE
:1049E0008093E8001091310510932E050E94BC338E
:1049F000111106C08091E30087FD02C081E001C073
:104A000084E08093370542E061EC81E00E94DB3373
:104A100042E261EC84E00E94DB3342E261EC82E03E
:104A20000E94DB3342E260EC83E00E94DB33809142
:104A3000E80083FF10C08091E800877F8093E80042
:104A40008091EB0080628093EB0005C082E190E0F2
:104A5000E2EEF4E051CFAA960FB6F894DEBF0FBE97
:104A6000CDBFDF91CF911F9108951F920F920FB686
:104A70000F9211242F933F934F935F936F937F93E4
:104A80008F939F93AF93BF93CF93DF93EF93FF9356
:104A9000C091E900CF708091EC00D82FD17080FDDB
:104AA000D0E81092E9008091F000877F8093F000B9
:104AB00078940E9457221092E9008091F00088605B
:104AC0008093F000CD2BCF70C093E900FF91EF9160
:104AD000DF91CF91BF91AF919F918F917F916F9116
:104AE0005F914F913F912F910F900FBE0F901F90AC
:104AF0001895E8EDF0E080818E7F80831092E200CF
:104B00001092DA001092E100A0EEB0E08C9181608A
:104B10008C9380818F77808319BCA7EDB0E08C9156
:104B20008E7F8C9380818F7E808310921A050895EA
:104B3000CF92DF92EF92FF920F931F93CF93DF9369
:104B4000C8EDD0E088818F7E8883E7EDF0E080813A
:104B50008160808384E082BF81E080931A05888130
:104B60008E7F888302EE10E0F80110821092DA0046
:104B700081EEC82ED12CF601108288818F77888330
:104B800088818068888388818F7D888319BC109292
:104B9000370510922E0510922D0510922C0590EEDF
:104BA000E92EF12CF70180818B7F808388818160E1
:104BB000888342E060E080E00E94DB33F601808180
:104BC0008E7F8083F801808181608083808188600E
:104BD0008083F70180818E7F8083888180618883D4
:104BE000DF91CF911F910F91FF90EF90DF90CF90C9
:104BF00008951F920F920FB60F9211242F933F9397
:104C00004F935F936F937F938F939F93AF93BF93D4
:104C1000EF93FF938091E10082FF09C08091E20051
:104C200082FF05C08091E1008B7F8093E10080913D
:104C3000DA0080FF2AC08091D80080FF26C08091D2
:104C4000DA008E7F8093DA008091D90080FF18C04F
:104C500080E189BD82E189BD09B400FEFDCF81E01C
:104C60008093370580911A0581110FC00E94792524
:104C70000E9498258091E20084608093E20005C044
:104C800019BC1092370510921A058091E10080FF3F
:104C900017C08091E20080FF13C08091E2008E7FF8
:104CA0008093E2008091E20080618093E200809135
:104CB000D80080628093D80019BC85E080933705C6
:104CC0008091E10084FF43C08091E20084FF3FC0F7
:104CD00080E189BD82E189BD09B400FEFDCF8091EC
:104CE000D8008F7D8093D8008091E1008F7E8093E3
:104CF000E1008091E2008F7E8093E2008091E200EB
:104D000081608093E20080912E05882311F084E079
:104D100007C08091E30087FD02C081E001C083E00D
:104D2000809337050E9491320E94BA30109221057B
:104D300080912005882349F080911B058160809334
:104D40001B0560E086950E94C0100E943F32809152
:104D5000E10083FF27C08091E20083FF23C08091A0
:104D6000E100877F8093E10082E080933705109215
:104D70002E058091E1008E7F8093E1008091E2001A
:104D80008E7F8093E2008091E20080618093E20058
:104D900042E060E080E00E94DB338091F0008860B8
:104DA0008093F000FF91EF91BF91AF919F918F9110
:104DB0007F916F915F914F913F912F910F900FBE17
:104DC0000F901F9018952091E4003091E50095E632
:104DD0004091EC00842F817040FF23C08091E80057
:104DE00080FD1DC080913705882399F0853099F0AA
:104DF0008091EB0085FD11C04091E4005091E500E9
:104E00002417350729F3915011F09A01E1CF84E07E
:104E1000089582E0089583E0089581E0089580E098
:104E200008954091E80042FFDDCF0895EF92FF9290
:104E30000F931F93CF93DF937C018B010E94E32696
:104E4000811119C0E70101151105A1F08091E80059
:104E500085FD0AC08091E8008E778093E8000E946B
:104E6000E326882381F307C089918093F1000150E4
:104E70001109E9CF80E0DF91CF911F910F91FF9051
:104E8000EF900895CF93209137052430F9F4C09125
:104E9000E900CF703091EC00232F217030FD20E825
:104EA000C22B22E02093E9002091E80020FF0BC0F4
:104EB00040E050E060E270E00E9416278091E80038
:104EC0008E778093E800CF70C093E900CF9108956A
:104ED0000895809123050895CF93DF9300D01F920A
:104EE000CDB7DEB790913705943011F589837B8378
:104EF0006A839093E9008FEF9091E800815095FDCF
:104F000006C095ED9A95F1F700008111F5CF8091DB
:104F1000E80085FF0DC040E050E063E070E0CE01A6
:104F200001960E9416278091E8008E778093E80012
:104F30000F900F900F90DF91CF910895BC0184E006
:104F40000C946C27BC0183E00C946C27CF93DF9307
:104F500021E02093E9002FEF3091E800215035FD4A
:104F600006C035ED3A95F1F700002111F5CF2091FB
:104F7000E80025FF14C0EC0140E050E068E070E07C
:104F80000E9416278091E8008E778093E80088E0E1
:104F9000FE01A4E2B5E001900D928A95E1F7DF9160
:104FA000CF91089581E08093E00080E28093D80063
:104FB0001092C9008FE19EE40197F1F700C0000054
:104FC00087E090EBDC018093370890933808A0933A
:104FD0003908B0933A089CE088E10FB6F894A89598
:104FE000809360000FBE90936000FFCF78941F9273
:104FF0000F920FB60F9211248F939F93AF93BF938D
:105000008091C7079091C807A091C907B091CA07BE
:105010000196A11DB11D8093C7079093C807A09367
:10502000C907B093CA07BF91AF919F918F910F901D
:105030000FBE0F901F9018959C014FB7F894809168
:10504000C7079091C807A091C907B091CA074FBF81
:10505000821B930B08952FB7F8946091C707709146
:10506000C8078091C9079091CA072FBF08952FB72D
:10507000F8948091C7079091C807A091C907B09193
:10508000CA072FBF08951F920F920FB60F921124D7
:105090008F939F93AF93BF938091D304811113C0DB
:1050A0008091C7079091C807A091C907B091CA071E
:1050B0004196A11DB11D8093C7079093C807A09387
:1050C000C907B093CA07BF91AF919F918F910F907D
:1050D0000FBE0F901F9018959C012A5F3F4FFC0157
:1050E0004281461301C01282019682179307B9F7D5
:1050F00008959C01FC0132969FEF80E04191461794
:1051000089F09F3F19F4411101C0982F8F5F8630BD
:10511000A9F79F3F39F0F901E90FF11D97FDFA95C5
:10512000628308950895CF9384E090E00E947D37D4
:10513000C82F81E290E00E947D372C2F30E0A9013A
:10514000582BCA01CF91089580E090E00E948B37E0
:1051500021E08C3E9E4F09F020E0822F08956CEEF6
:105160007EEF80E090E00E94AF3760E082E090E068
:105170000E94913760E083E090E00E9491371092A6
:10518000C3071092C4071092C5071092C60760E0CB
:1051900084E090E00E94913760E081E290E00E941C
:1051A000913760E085E090E00E94913760E086E012
:1051B00090E00E9491376FEF87E090E00E94913776
:1051C00040E050E0BA0188E090E00E94A33760E040
:1051D0008DE090E00E94913740E050E0BA0188E114
:1051E00090E00E94A33760E087E190E00E94913751
:1051F00040E050E0BA018CE190E00E94A33760E00B
:1052000080E290E00E94913740E050E0BA0188E1EE
:1052100090E00E94A33740E050E0BA018FE090E0B8
:105220000E94A33740E050E0BA0183E190E00C9483
:10523000A3378091C20781111092C20708959091FF
:10524000C1078091C007892B2091BF07982F922B0F
:10525000909360078091C207882389F0892B8093FF
:105260006007E2E6F7E097E080E0915029F02191B5
:105270002223D9F38F5FF9CF81110E941929E09180
:10528000D104F091D204309731F00280F381E02D07
:1052900080E697E009940895BF92CF92DF92EF9253
:1052A000FF920F931F93CF93DF938C01C090510512
:1052B000D0905205E0905305F09054058091C307BB
:1052C0009091C407A091C507B091C607C82AD92AF2
:1052D000EA2AFB2ACFE1D0E0D701C6010C2E04C098
:1052E000B695A795979587950A94D2F780FD04C047
:1052F000219790F7B12C07C0BC2EB8018C2F0E94CB
:105300002D0F0197A9F38B2DDF91CF911F910F9155
:10531000FF90EF90DF90CF90BF900895CF93DF93F1
:10532000EC010E944C29BE010E942D0FDF91CF910C
:105330000895292F220F920F990F890F682F6695D4
:1053400066956695982F977085E0689FB001112447
:1053500040E050E080E0FB01E40FF51FE056F84F1D
:10536000208130E0092E02C0369527950A94E2F795
:1053700021703327042E01C0220F0A94EAF7822BF2
:105380004F5F5F4F4530510531F70895292F220FA8
:10539000920F990F890FE82FE695E695E6958770AD
:1053A00051E001C0550F8A95EAF785E0E89FF001CA
:1053B0001124E056F84F20E030E070E04081CB014E
:1053C000022E02C0969587950A94E2F78170819526
:1053D00084278523842781932F5F3F4F2530310514
:1053E00069F708950F931F938B019C010670112795
:1053F00022273327DC01CB010630110521053105B9
:1054000011F4886001C0877F809351059093520505
:10541000A0935305B09354051F910F910C948332C0
:105420000F931F9341E050E060E070E004C0440F30
:10543000551F661F771F8A95D2F740955095609546
:1054400070958091510590915205A0915305B091AE
:1054500054058A019B01082319232A233B23C901F0
:10546000B8011F910F910C94F2292091BE078095ED
:1054700082238093BE07982F977079F430E0482FED
:10548000082E000C550B2417350739F085958595A6
:1054900085950E94102A1092BE0708950F931F93BE
:1054A00041E050E060E070E004C0440F551F661F0B
:1054B000771F8A95D2F78091510590915205A0915E
:1054C0005305B09154058A019B01082B192B2A2BF7
:1054D0003B2BC901B8011F910F910C94F2296093E5
:1054E000C3077093C4078093C5079093C6070C94B5
:1054F000833280919F0790916E07891719F08F5F13
:105500008770FBCF08950F931F93CF93DF93809104
:105510006D0782958F7009F05DC080916A078823BE
:1055200009F458C080919F0710916E076091680739
:1055300070916907C0916B07D0916C0791E06F3F44
:1055400009F090E0292F06E0811709F443C0209765
:1055500021F07F3F21F030E003C031E001C0322F65
:1055600090E030FD34C0089FF001099FF00D112438
:10557000DF01A159B84F11963C911197371327C0FD
:105580003C91361324C012963C91129731111FC0E2
:1055900013964D915C9114974C1B5D0B483C510543
:1055A000B0F480916D078F70806180936D07EC5827
:1055B000F84F80818F708061808388E697E00E9439
:1055C000A412DF91CF911F910F910C94792A01962B
:1055D0008770BACFDF91CF911F910F9108959F925D
:1055E000AF92BF92CF92DF92EF92FF920F931F93F1
:1055F000CF93DF93CDB7DEB761970FB6F894DEBFD8
:105600000FBECDBF8C0185E0F801DE011D96019033
:105610000D928A95E1F7F80190818181E2803091C5
:1056200068076091690740916B0750916C074115BD
:10563000510531F06F3F31F421E03F3F19F403C0D1
:1056400021E001C020E0F22FF1709F2E20FD23C148
:10565000F801C380D48028E6A22E27E0B22EF09075
:105660006A07F601E41BF50BFF2009F4CEC0209178
:105670006D07E83CF10508F099C0422F407F09F022
:1056800051C0681311C039130FC0FE2CE1100CC0BB
:105690002F70206120936D07C5010E94A412809194
:1056A0006D07F801858337C1CD2831F08F3F31F484
:1056B00021E09F3F19F403C021E001C020E020FD5C
:1056C00003C021E02E2502C020E030E0F22FF1706F
:1056D000FF2E20FF1DC020919F0740916E0756E0CE
:1056E000241709F4F6C030E0529FF001539FF00DEB
:1056F0001124E159F84F6181861306C06081961329
:1057000003C06281E61204C02F5F3F4F2770E8CFCD
:10571000FE2CEE2009F4FFC080916D07816080931C
:105720006D0750C0681307C0391305C0E11003C0EE
:10573000F80125838DC09D878E878D859E850E946B
:105740005A32882369F1EE2059F120916D07822F9A
:1057500082958F7090E0029774F080916807909125
:10576000690798878F831986DB86CA862C87CE01C6
:1057700007960E94A41286E0F801A8E6B7E001901F
:105780000D928A95E1F70E94832A0DC06817E1F017
:105790009D878E878D859E850E945A3281111EC0FD
:1057A000C8010E94A412FF24F394B5C0422F407F89
:1057B00069F788E697E00E94A41286E0F50111924D
:1057C0008A95E9F7F12CA7C03913E2CFE110E0CFB9
:1057D000F8012583C8010E94A41257C0EE2001F3EE
:1057E00020916D07822F82958F7090E002971CF2B6
:1057F00080916807909169079A8389831B82DD8273
:10580000CC822E83CE010196B4CFE83CF105E8F5B9
:10581000FE2CEE2029F2681327C0391325C02091F1
:105820006D0720FD18C0822F82958F70482F50E0A1
:105830004115510581F0F80125834F30510541F0A4
:105840008F5F982F9295907F822F8F70892B858301
:10585000C8010E94A41286E0F801A8E6B7E0019012
:105860000D928A95E1F757C09D878E878D859E851D
:105870000E945A3281117FCF80916D0781608093A1
:105880006D07C8010E94A41246C086E0F50111927E
:105890008A95E9F740C0EE2009F482CF9D878E8774
:1058A0008D859E850E945A32F82E882309F478CF80
:1058B00086E0F801A8E6B7E001900D928A95E1F73D
:1058C00080916807909169070E948E290E94832A1F
:1058D00022C09D878E878D859E850E948E29292FC7
:1058E00022952F70223028F49F7039F0811105C065
:1058F0000BC0243028F49F7049F4805E883020F07B
:10590000C8010E94A4129F2CF92C05C0F8019581B2
:10591000907F99F7F9CF8F2D61960FB6F894DEBF7F
:105920000FBECDBFDF91CF911F910F91FF90EF90F0
:10593000DF90CF90BF90AF909F90089508958F9281
:105940009F92AF92BF92CF92DF92EF92FF920F930E
:105950001F93CF93DF93FC01B280948081E0848316
:1059600000E015E05BE4A52E88248394EE24EA94FD
:10597000F12C7BE4C72ED12C80918003081708F00E
:105980008FC0C02FD0E01C9FF0011D9FF00D11248F
:10599000EE50F84F911003C01382128267C023812A
:1059A000222389F1215023833481332319F09A2D46
:1059B000921B01C0922F80911E051C9FF0011D9F1C
:1059C000F00D1124EE50F84F899FC0011124B6014B
:1059D0000E94FE3B6283211104C0332311F0148224
:1059E000A38222E02B1508F441C01C9FF0011D9FEB
:1059F000F00D1124EE50F84F80911C0580838091AA
:105A00001D05818333C00E9464378230914074F554
:105A100082E08B1530F40E946437B7010E94123C7B
:105A200002C080911C051C9FF0011D9FF00D1124E8
:105A3000EE50F84F808322E02B1558F40E94643713
:105A400020911D052695622F70E00E94123C820F66
:105A500002C080911D051C9FF0011D9FF00D1124B7
:105A6000EE50F84F81831282A382848280917E035C
:105A70009E01280F311DC901880F991F280F391F5A
:105A80002253384F1C9FF0011D9FF00D1124EE5042
:105A9000F84F4281618180810E9404080F5F6CCFC2
:105AA000DF91CF911F910F91FF90EF90DF90CF90FA
:105AB000BF90AF909F908F900C9404070F931F930B
:105AC000CF93DF93EC0100E010E080918003282F5A
:105AD00030E00217130724F590917E039801290FF7
