:100000000C94B8020C94FF020C94FF020C947C2216
:100010000C94FF020C94FF020C94FF020C94FF025C
:100020000C94FF020C94FF020C94941F0C94311F4B
:100030000C94C9170C94FF020C94FF020C94FF025D
:100040000C94FF020C94FF020C94FF020C94FF022C
:100050000C94FF020C9488170C94FF020C94FF027E
:100060000C94FF020C94FF020C94FF020C94FF020C
:100070000C94FF020C94FF020C94FF020C94FF02FC
:100080000C94FF020C94FF020C94FF020C94FF02EC
:100090000C94FF020C94FF020C94FF020C94FF02DC
:1000A0000C94FF020C94FF020C94FF0236103610E1
:1000B000701070104A124A124A124A12C310A1114B
:1000C000B211B2118712D512DA12DF12E412E9125C
:1000D000EE12F312F812FD12021309130C130F1390
:1000E0001213151318131B131E132313591D801DF0
:1000F000091F801D091FC81DEB1D091FD31EE61E09
:100100008F208F20A220A2209820A220A220A2200F
:100110008F208F209D20A220A2209D200001010180
:1001200001010101010102020202020202020203B4
:100130000303030303030304040404040404050584
:100140000505050606060606070707070708080847
:1001500008090909090A0A0A0B0B0B0C0C0C0D0DF6
:100160000D0E0E0E0F0F0F1010111111121213138E
:100170001414151516161717181819191A1A1B1B07
:100180001C1D1D1E1E1F2020212222232424252663
:1001900026272829292A2B2C2D2D2E2F303132329B
:1001A000333435363738393A3B3C3D3E3F404142A7
:1001B000434445464748494A4C4D4E4F505153548D
:1001C000555658595A5B5D5E5F6162646566686941
:1001D0006B6C6D6F7072737577787A7B7D7E8082C1
:1001E000838587888A8C8E8F91939596989A9C9E0A
:1001F000A0A2A3A5A7A9ABADAFB1B3B5B7BABCBE1A
:10020000C0C2C4C6C9CBCDCFD1D4D6D8DBDDDFE2E6
:10021000E4E7E9EBEEF0F3F5F8FAFDFFFFAA7F550E
:10022000400001020304050B0A09080706222325E2
:100230002628292A2C2D2F3032333536383A3B3DAB
:100240003E4042434547494A4C4E505153555759F9
:100250005A5C5E6062646668696B6D6F7173757716
:10026000797B7D7F81838587898A8C8E9092949615
:10027000989A9C9E9FA1A3A5A7A8AAACAEAFB1B324
:10028000B4B6B8B9BBBCBEBFC1C2C3C5C6C7C9CA74
:10029000CBCCCDCED0D1D2D2D3D4D5D6D7D7D8D936
:1002A000D9DADADBDBDBDCDCDCDCDCDDDDDDDDDC94
:1002B000DCDCDCDCDBDBDBDADAD9D9D8D7D7D6D5A6
:1002C000D4D3D2D2D1D0CECDCCCBCAC9C7C6C5C368
:1002D000C2C1BFBEBCBBB9B8B6B4B3B1AFAEACAAB5
:1002E000A8A7A5A3A19F9E9C9A98969492908E8C65
:1002F0008A89878583817F7D7B79777573716F6D3F
:100300006B6968666462605E5C5A59575553515018
:100310004E4C4A4947454342403E3D3B3A383635CC
:100320003332302F2D2C2A2928262523222B001466
:10033000001A00080015001700E00004001600076E
:100340000009000A00E1001D001B0006001900055D
:100350000000000000E300E20001512C002A00131D
:100360000012000C0018001C00340033000F000EB7
:10037000000D000B00E500380037003600100011BA
:100380000000000000E700E6000251280029001EDE
:10039000001F00200021002200E0000100010001F8
:1003A0000001000100E10001000100010001000165
:1003B0000000000000E300E20001512C002A0027A9
:1003C000002600250024002300010001004F0052F8
:1003D0000051005000010001000100010001000176
:1003E0000000000000E700E6000251280029001E7E
:1003F000021F02200221022202E00001000100018E
:100400000001000100E100350201000100010001CE
:100410000000000000E300E20001512C002A002748
:100420000226022502240223023500310230022F67
:10043000022E002D003502310030002F002E022D3B
:100440000200000000E700E60002512800005C0105
:10045000000100010001000100C25CC55CC75CC96D
:100460005C01000100C35CC65CC85CCA5C010001A1
:100470000000000000E300E20001512C003F003EBC
:10048000003D003C003B003A004500440043004270
:1004900000410040000100010001000100010001D5
:1004A0000000000000E700E6000251280032190AAF
:1004B00000047F3F1F643214643214783C1E1E1403
:1004C0000A0505010906A101050719E029E715003C
:1004D00025019508750181029501750881010507BF
:1004E000190029FF150026FF0095067508810005F3
:1004F000081901290595057501910295017503916A
:1005000001C009022200010100A0FA090400000153
:1005100003010100092111010001224000070581AA
:100520000308000A120110010000000854590100DC
:100530000100010203010403300000001A034C0013
:1005400075006E0061006B006500790020004D00B1
:1005500069006E0069000000120379006F006900F5
:1005600063006800690072006F0000000403090462
:1005700011241FBECFEFDAE0DEBFCDBF04B603FE0D
:1005800027C08091A8029091A902A091AA02B091DF
:10059000AB028730904BA740B04BD1F41092A80229
:1005A0001092A9021092AA021092AB0214BE84B754
:1005B000877F84BF0FB6F894A8958091600088610A
:1005C00080936000109260000FBEE0E0F8E30995B0
:1005D00022E0ACE6B1E001C01D92A83AB207E1F713
:1005E00011E0A0E0B1E0E8EFF9E402C005900D925F
:1005F000AC36B107D9F70E947D140C94FA240C9400
:1006000000000895AF92BF92CF92DF92EF92FF92D7
:100610000F931F93CF93DF93E82EF62EE901E42F7B
:10062000F0E0611106C0E45EFE4FE4914E2F2E2FE4
:1006300071C0062F10E0E45EFE4F4491F42FC42EEB
:10064000D12C26E0829FC00111242FEF30E0B901A8
:100650000E94B0245BEA5603C001579F900D1124FD
:100660008E0D911D8E0D911D582F550F580FD901CC
:10067000A01BB10BAC9DC001AD9D900DBC9D900D1C
:100680001124E92FF59ED0011124AB2FBB2779014E
:10069000EA1AFB0AEC9CD001ED9CB00DFC9CB00D5D
:1006A00011245901A51AB108A09E7001A19EF00C59
:1006B000B09EF00C1124EF2CFF242E193F092C9D25
:1006C00080012D9D100D3C9D100D1124212F6230B5
:1006D000710591F048F461157105E1F06130710523
:1006E000B9F4242F4B2F16C06430710569F040F027
:1006F0006630710579F00CC0242F492FE12F0AC014
:10070000492FEF2F2B2F06C0292FE42F412F02C096
:10071000292FEB2F49832883EA83DF91CF911F9103
:100720000F91FF90EF90DF90CF90BF90AF90089522
:100730009091F40192FF0DC0282F2871283019F4F0
:10074000877F846006C0282F2471243011F48B7FAA
:10075000886093FF0DC0282F2871283119F4877EF7
:10076000846106C0282F2471243111F48B7E8861A6
:100770002091F50120FF0DC0382F3871383019F461
:10078000877F816006C0382F3171313011F48E7F40
:10079000886021FF0DC0282F2871283119F4877E29
:1007A000816106C0282F2171213111F48E7E88616C
:1007B00094FD877E08951F93CF93DF93CDB7DEB767
:1007C00067970FB6F894DEBF0FBECDBF4B8B5C8B27
:1007D0006D8B7E8B8F8B86E09E01235F3F4FD9010F
:1007E000E82F1D92EA95E9F795E0FE017396D9018D
:1007F00001900D929A95E1F7F901DE0117960190AB
:100800000D928A95E1F7CE0107960E946B1A81112D
:100810003EC086E0FE013796DE01119601900D92F2
:100820008A95E1F7FF81E8856A857B856115710509
:1008300031F0EF3F31F481E0FF3F19F403C081E074
:1008400001C080E080FD23C02091260230E0C90174
:100850000196877099274091570250E084179507B9
:1008600079F1F983EA837D836C8396E0929FD001CE
:10087000939FB00D1124A95DBD4FFE0131960190EB
:100880000D929A95E1F7809326020E94F51916E0E1
:1008900080915702909126028917F9F0189FC001A4
:1008A0001124895D9D4F0E946B1A8823B1F08091BD
:1008B000570290E001968770992780935702E8CFFE
:1008C0000E94A6201092260210925702E0E2F2E067
:1008D00086E0DF011D928A95E9F767960FB6F894D6
:1008E000DEBF0FBECDBFDF91CF911F910895E09184
:1008F000F701F091F801309721F00190F081E02D9F
:10090000099480E008950F931F93CF93DF93C42F32
:10091000D22FFC0182818823C9F04093D6010E9426
:10092000BD179093D5018093D40180E28C0F88305D
:1009300008F05EC0C77081E001C0880FCA95EAF771
:10094000DF91CF911F910F910C94C0208091D6011F
:1009500048133EC08091D4019091D5010E94AE17FA
:10096000883C9105A8F510E21D0FCD17B9F080E283
:100970008C0F883040F4C77081E001C0880FCA95A1
:10098000EAF70E94B520183048F481E09D2F977057
:1009900001C0880F9A95EAF70E94C020802F0E941C
:1009A0004821093349F4FFEF27EE83E0F15020405E
:1009B0008040E1F700C00000802F0E94CA2018305C
:1009C000B8F4D77081E001C0880FDA95EAF70AC061
:1009D00080E28C0F883060F4C77081E001C0880F1E
:1009E000CA95EAF7DF91CF911F910F910C94B52032
:1009F000DF91CF911F910F910895882311F0FA0193
:100A000001C0FB010994EBE0F2E011828281846075
:100A10008283089560918402669570E04BE050E017
:100A200084E091E00E94ED24892B19F481E0809309
:100A30000C020E94BD1790930602809305028091DC
:100A40000D02846080930D020895CF92DF92EF92A1
:100A50000F931F93CF93DF93CDB7DEB7A4970FB655
:100A6000F894DEBF0FBECDBF609113018091840268
:100A700080FF0AC0E1E2F2E0AE014F5F5F4F8E01FE
:100A80000B5D1F4FCA0114C0809114019091150194
:100A9000891780F7E82FF0E09F01220F331FE20F44
:100AA000F31FEC58FE4F1182108212828F5FF0CF3D
:100AB000249130E0D901AA0FBB1F2A0F3B1FD90197
:100AC000AC58BE4FCD90DD90EC90DA01CD92DD9226
:100AD000ED92AD013196A017B10751F720911201A7
:100AE000FC01B3E02B9FE00DF11D1124539A8BB153
:100AF000877F9BB198602FB7F894AF0133E0639F75
:100B0000400D511D1124E417F50789F0319168E07B
:100B10009BB9000000C037FF8BB9330F000000C045
:100B200000C000C08BB900C06A9591F7ECCF2FBF11
:100B30008FE594E00197F1F700C00000A4960FB68E
:100B4000F894DEBF0FBECDBFDF91CF911F910F9103
:100B5000EF90DF90CF9008958F929F92AF92BF92C7
:100B6000CF92DF92EF92FF920F931F93CF93DF9379
:100B7000FC01B280948081E0848300E015E05BE4B6
:100B8000A52E88248394EE24EA94F12C7BE4C72ECE
:100B9000D12C80911601081708F08FC0C02FD0E02B
:100BA0001C9FF0011D9FF00D1124E856FE4F91107F
:100BB00003C01382128267C02381222389F121504E
:100BC00023833481332319F09A2D921B01C0922F75
:100BD000809187021C9FF0011D9FF00D1124E856A3
:100BE000FE4F899FC0011124B6010E94B024628388
:100BF000211104C0332311F01482A38222E02B15AB
:100C000008F441C01C9FF0011D9FF00D1124E8560F
:100C1000FE4F80918502808380918602818333C05C
:100C20000E94DB238230914074F582E08B1530F412
:100C30000E94DB23B7010E94C42402C08091850278
:100C40001C9FF0011D9FF00D1124E856FE4F80837C
:100C500022E02B1558F40E94DB2320918602269572
:100C6000622F70E00E94C424820F02C0809186022D
:100C70001C9FF0011D9FF00D1124E856FE4F81834B
:100C80001282A3828482809114019E01280F311D5B
:100C9000C901880F991F280F391F2C583E4F1C9FE0
:100CA000F0011D9FF00D1124E856FE4F4281618135
:100CB00080810E9402030F5F6CCFDF91CF911F9163
:100CC0000F91FF90EF90DF90CF90BF90AF909F90EB
:100CD0008F900C9425050F931F93CF93DF93EC0116
:100CE00000E010E080911601282F30E00217130772
:100CF00024F5909114019801290F311DA901440F89
:100D0000551F240F351F2C583E4F869590E04C817F
:100D1000081719071CF4442331F002C0411103C025
:100D20004091870201C040E0609186028091850277
:100D30000E9402030F5F1F4FD5CF0E9425058C81B3
:100D400090E00196817099278C83DF91CF911F915C
:100D50000F9108958F929F92AF92BF92CF92DF92A0
:100D6000EF92FF920F931F93CF93DF938C01FC01BF
:100D70004481C42FD0E09E01DE010E9487249B01A4
:100D8000AC010E9452246B017C01E0E2F0E0EC1B1C
:100D9000FD0BA5E5B0E09B01AC010E9452244B0184
:100DA0005C019F01DF010E94DE249B01AC010E94D7
:100DB0005D249B01AC012C0D3D1D4E1D5F1DC50129
:100DC000B4010E946524C22FD22F2A3228F4F3E006
:100DD0002F9F900111240DC025E530E02C1B310917
:100DE000C901880F991F280F391F37FF02C02F5FD5
:100DF0003F4F35952795C22FC095F12C85E5E82EFC
:100E0000ED1A80911601F816C8F4F1FC02C08E2D7F
:100E100001C08D2F909114012F2D30E0290F311D2D
:100E2000A901440F551F240F351F2C583E4F4C2F3E
:100E3000609186020E940203F394E3CF0E9425058D
:100E4000F8018481811102C091E003C0803219F45D
:100E50009FEF9093110190911101890FF801848304
:100E6000DF91CF911F910F91FF90EF90DF90CF9086
:100E7000BF90AF909F908F9008951F93CF93DF9373
:100E8000EC018C81811109C081E08C831092720188
:100E900092E09093100180930F0180911401909142
:100EA0001501891770F4E82FF0E09F01220F331F1E
:100EB000E20FF31FEC58FE4F1182108212828F5FF7
:100EC000F0CF10E0609116011617C0F5E12FF0E0A9
:100ED00070E0CF010E94C42420911401820F209160
:100EE0007201022E000C330B90E0E217F307CCF0F6
:100EF00020911001022E000C330B2E173F078CF0AF
:100F00009C01220F331F820F931F9C012C583E4FD0
:100F10004091870260918602809185020E940203BF
:100F20000BC0FC01EE0FFF1F8E0F9F1FFC01EC5842
:100F3000FE4F1182108212821F5FC4CF0E942505CE
:100F400080910F0120917201280F209372019091DE
:100F50001001980F9093100119165CF4022E000CEA
:100F6000330B4091160150E04150510924173507C9
:100F700034F0819580930F01813009F41C82DF9158
:100F8000CF911F9108958F929F92AF92BF92CF926F
:100F9000DF92EF92FF920F931F93CF93DF93EC01B9
:100FA0008A8180FF03C0BB24BA9402C0BB24B394DF
:100FB0008C8181110DC081E0B81206C080911601AC
:100FC00081508093710102C01092710181E08C8385
:100FD000A12C4CE0942E80911601A81608F044C074
:100FE00080911401CA2CD12C8601080F111DC80153
:100FF000880F991F080F191F0C581E4FF8011182F6
:101000001082128234E0E32EF12C812C8091710148
:10101000880D8D302CF0692D0E94A224892F05C0E7
:1010200087FF03C090911601890F082E000C990BC1
:10103000C816D90691F4809187028E9DA0018F9DDC
:10104000500D1124559547955595479598016091F8
:101050008602809185020E9402038B0CF1E0EF1A58
:10106000F108A1F6A394B7CF0E94250580917101E4
:1010700091E0B9120EC0811107C080911601815014
:10108000809371011C820FC0815080937101BC82DA
:101090000AC090E001966091160170E00E94C4249D
:1010A000809371018C83DF91CF911F910F91FF90FD
:1010B000EF90DF90CF90BF90AF909F908F9008956A
:1010C000FF920F931F93CF93DF93EC01F12C0FEF5F
:1010D00010E060911601F616F0F4809114012F2DA6
:1010E00030E0280F311DC901880F991F280F391FC3
:1010F0002C583E4F70E0C8010E94C424962F8C816A
:101100004091870260918602F99E800D11240E9411
:101110000203F394DECF0E9425059A818C8190FF13
:1011200002C08F5F01C081508C83DF91CF911F91EE
:101130000F91FF9008959091840290FF16C09091B6
:10114000140120911501921770F4E92FF0E0DF01EE
:10115000AA0FBB1FEA0FFB1FEC58FE4F8183608371
:1011600042839F5FF0CF0C94250508950F931F9342
:10117000CF93DF9300D01F92CDB7DEB78C01809163
:10118000730181110AC09E012F5F3F4F4FEF6FEF38
:101190000E9402038A8180937301F8018481813067
:1011A00051F028F0823061F4409173010AC08091BF
:1011B000730140E007C06091730140E080E003C02C
:1011C00040E080E060E00E949B08F801848190E0AC
:1011D000019663E070E00E94C42484830F900F9016
:1011E0000F90DF91CF911F910F910895CF93DF93CF
:1011F00000D01F92CDB7DEB79091840290FF0AC055
:101200009E012F5F3F4F0E9402034B8169818A81BB
:101210000E949B080F900F900F90DF91CF9108953F
:10122000CF93DF93EC01E4E8F2E0438162818C81AB
:101230000E94F6088C818F5F8C83DF91CF91089597
:10124000CF93DF93EC01EC81F0E0E35DFD4F44913F
:10125000E4E8F2E0628181810E94F6088C818F5F70
:101260008C83DF91CF910895E4E8F2E080818E7F56
:1012700080830E940305EBE0F2E08281816082833B
:101280002FEF80E792E0215080409040E1F700C0CE
:1012900000000C94250580918402282F269530E0CB
:1012A0002115310519F48170826005C02B3231059A
:1012B00024F081708465809384020895CF92DF9238
:1012C000EF92FF926B017C010E944B09B701A601CE
:1012D00088E090E0FF90EF90DF90CF900C94112485
:1012E000AF92BF92CF92DF92EF92FF920F931F9334
:1012F000CF93DF9300D01F92CDB7DEB7182FF62E15
:10130000042FE22E9091840290FF7EC0E92FE69593
:10131000AE2FB0E0AD5CBE4F8C9180930B029E7FF0
:10132000923061F49E012F5F3F4F812F0E94020394
:101330004B8169818A810E949B0843C0823019F4E5
:10134000009187023EC0863019F41091850239C0A1
:101350008930D9F38931A9F5E9518E2F8170D82EC2
:10136000E695F0E0E45EFD4FA590B490C12CBB245F
:1013700060911601C61618F52C2D30E0A29EC00112
:10138000A39E900DB29E900D112470E00E94B02497
:10139000812FD11002C0860F01C0861B90911401CD
:1013A000290F311DA901440F551F240F351F2C583B
:1013B0003E4F402F6F2D0E940203C394D9CF0E944D
:1013C000250580918502181308C080918602F812C5
:1013D00004C080918702081729F080910D02826075
:1013E00080930D0210938502F0928602009387028B
:1013F000EE2051F060918402709185028091860206
:10140000909187020E945E090F900F900F90DF91DC
:10141000CF911F910F91FF90EF90DF90CF90BF90F1
:10142000AF900895E4E8F2E0438128E0421B08F41D
:1014300040E021E0628181810C947009E4E8F2E0EF
:10144000438128E0420F08F44FEF21E0628181815F
:101450000C947009E4E8F2E0628128E0621B08F471
:1014600060E021E0438181810C947009E4E8F2E0BE
:10147000628128E0620F08F46FEF21E043818181EF
:101480000C947009E4E8F2E0818121E043816281FB
:1014900088500C947009E4E8F2E0818121E04381F6
:1014A0006281885F0C94700980918802882319F00A
:1014B00081508093880260918402709185028091AE
:1014C0008602909187020C945E0980918802833095
:1014D00018F48F5F80938802609184027091850276
:1014E00080918602909187020C945E09909184020B
:1014F00090FF3BC09170811102C0926006C08B3298
:1015000010F0946502C0880F982B9093840280910C
:101510000D02816080930D02662351F06091840278
:101520007091850280918602909187020E945E09E7
:1015300060918402669570E04BE050E084E091E0B9
:101540000E94ED24892B19F00E94030502C00E941D
:101550000A0581E08093080220E0409187026091B3
:101560008602809185020C9470090895809184020E
:101570008695815009F48AE261E00C94760A8091A4
:10158000840286958F5F8B3208F081E061E00C94D5
:10159000760A9091840290FF04C09695981740F0C7
:1015A00003C0811105C090E0961710F40C94BF0A97
:1015B00061E00C94760AE4E8F2E083E08083118233
:1015C0008FEF828383831482ABE0B2E012968C911A
:1015D0001297836012968C936081718182819381CE
:1015E0000C945E0980917001811112C08091D80025
:1015F00080618093D8008AE18A95F1F700C08091DC
:10160000D90080FD02C082E001C081E080937001BA
:1016100081E090917001913009F080E008958F92FF
:101620009F92AF92BF92CF92DF92EF92FF920F9371
:101630001F93CF93DF932EE5E22E21E0F22E06EEEC
:1016400011E0D801912CCC24C394D12CE7018991CD
:101650007E01E82FE295EF70F0E021A18F70A601E6
:1016600002C0440F551F8A95E2F7CA01242B21A31B
:1016700022A1342F3095232322A350EA5A95F1F763
:1016800096E6A92E91E0B92E60E070E020E0E50139
:1016900089905E01482D42954F7050E0EA0148A1C3
:1016A00050E0C82DCF7002C055954795CA95E2F716
:1016B00040FD07C04C2D062E01C0440F0A94EAF7E6
:1016C00001C040E0242B6F5F7F4F66307105F9F653
:1016D00091A1392331A392A1892B82A38C91281740
:1016E00019F02C9381E001C080E0982A1196D1E096
:1016F000AA3EBD0709F0AACFC091EF01992049F099
:1017000081E080936E010E94BD1790936D018093DC
:101710006C0180916E018823B1F080916C019091F1
:101720006D010E94AE17069770F0EC2FF0E0E650C6
:10173000FE4FD8018D918D018193B1E00A3E1B07C8
:10174000C1F710926E010E94F20A8823D1F1C09174
:10175000EE0180910D028823E9F085E0E4E8F2E0F3
:10176000A8EDB1E001900D928A95E1F780910B020E
:1017700090910C02A0910D028093DD019093DE0107
:10178000A093DF0181E090E00E940C23892B11F4EB
:1017900010920D0280E090E00E940C23892B09F04A
:1017A00060C0EC2FF0E0E650FE4F80E090E0DC01FE
:1017B000AF51BE4F2C912193019684309105B9F71A
:1017C00061C0E091EF010E2F10E08091E0018830C0
:1017D000C9F58091DF0180FF12C08091D80180FFA0
:1017E0000CC0809184028160809384028091D80132
:1017F00060E086950E94760A02C00E9434098091BA
:10180000DF0181FF09C020E04091DB016091DA0136
:101810008091D9010E9470098091DF0182FF09C087
:101820008091DE01882319F00E940A0502C00E94FF
:1018300003058091DF0183FF03C081E080930802EC
:101840001092E001F801E650FE4F80E090E0219117
:10185000DC01AF51BE4F2C93019684309105B9F74E
:1018600013C080916F018F5F80936F01863060F0AD
:10187000E091EE01F0E0E650FE4F108211821282FC
:10188000138202C010926F01892DDF91CF911F91B9
:101890000F91FF90EF90DF90CF90BF90AF909F900F
:1018A0008F900895CF93DF9320E3829FC00111248E
:1018B000FC0136E0739FE00DF11D1124E60FF11DD0
:1018C000EE0FFF1FE35DFC4FC591D491CE01C238EE
:1018D000D10569F1B0F4C133D10509F475C048F4FC
:1018E000C932D10509F469C0CA32D10509F473C0FF
:1018F00079C0C533D10509F459C0C933D105B9F050
:1019000071C0C33ED10571F138F4C03ED105B1F0CC
:10191000C23ED10511F166C0C63ED105B9F1C73E40
:10192000D105C9F1C43ED10509F05CC024C02091A5
:10193000F40120FD3CC121FD3AC154C02091F401C5
:1019400020FD2FC12091F50120FF36C18091F401C7
:1019500084FD24C183EE90E02FC12091F40122FF89
:101960002BC1F4CF8091F40182FD1EC18091F5015D
:1019700080FD1DC1EBCF2091F50121FF1DC180919C
:10198000F40184FD0BC187EE90E016C12091F401B3
:1019900023FF12C1F4CF8091F40183FD0BC180912C
:1019A000F50181FFECCF84EE90E006C12091F401B7
:1019B00025FF02C189E290E0FFC02091F40125FFDC
:1019C000FBC085E390E0F8C02091F40126FFF4C04D
:1019D0008AE290E0F1C02091F40126FFEDC081E39E
:1019E00090E0EAC0C11543E5D407A0F5C11552E562
:1019F000D50708F09CC0C11520E2D207C0F4C1157C
:101A000031E0D30708F0D8C0C53AD10540F4C4305E
:101A1000D10508F0D1C0219709F4CEC0BFC09E0106
:101A2000205E31092830310508F0B8C0C5C0C115A5
:101A300041E5D40708F076C0C11550E5D50708F098
:101A400051C0C11580E4D80708F4A8C0CE019F702A
:101A5000906AB2C0C11526E5D20700F5C11535E57B
:101A6000D30708F07FC0C11544E5D40708F075C05E
:101A70009E012370332781E090E0AC0102C0440F47
:101A8000551F2A95E2F72C2F2695269530E2239FA5
:101A9000C0011124842B952B9A688EC0C1155AE57C
:101AA000D50778F4C11589E5D80708F064C0C115D9
:101AB00028E5D20708F472C09C2F8827806F906AAF
:101AC0007BC0CE0190568115904208F067C08D2FE3
:101AD0008F710E9498039E01332730628F71A90194
:101AE000582B5AC0CE01F4E096958795FA95E1F708
:101AF000282F23703C2F337081E090E002C0880FC4
:101B0000991F3A95E2F79C68AC01522B8C2F8F708D
:101B1000282F2695269530E2239FC0011124842B7F
:101B2000952B4AC09C2F8827816F906A45C09E01E3
:101B30002370332781E090E0AC0102C0440F551FB1
:101B40002A95E2F72C2F2695269530E2239FC00197
:101B50001124842B952B9C682FC09C2F8827846F81
:101B6000906A2AC08C2F0E9498038F7190E0982F62
:101B70008827906221C08C2F8F700E9498039E014D
:101B800094E0369527959A95E1F72F7030E0322F43
:101B900022273069A901482BCA010EC080E090E0DD
:101BA0000BC089E390E008C082EE90E005C080EEB3
:101BB00090E002C086EE90E0DF91CF9108958F9281
:101BC0009F92AF92BF92CF92DF92EF92FF920F93CC
:101BD0001F93CF93DF93CDB7DEB72A970FB6F89454
:101BE000DEBF0FBECDBFFC010081D1808381948117
:101BF000892B39F01FEFD11206C091E00F3F19F485
:101C000003C091E001C090E090FD22C57F0185E016
:101C1000DE01169601900D928A95E1F7F701228177
:101C20008E819F81222349F00E94C018182F682FAF
:101C30008E819F810E943A1903C00E940D19182FAE
:101C400020E3129FF001112436E0D39EE00DF11D38
:101C50001124E00FF11DEE0FFF1FE35DFC4F059116
:101C60001491033F8CE5180759F190F4083DECE519
:101C70001E07E9F0093DFCE51F07A1F1073D2CE532
:101C80001207B1F506E221EE41EE67ED7CE514C0E6
:101C9000053F3CE5130701F1C8F0063F9CE5190735
:101CA00039F507E225EE46EE66EF7CE505C007E272
:101CB00025EE45EE68ED7CE5C7010E9483044AC429
:101CC00006E221EE40EE63EF7CE5F6CF07E225EE7B
:101CD00044EE64EF7CE5F0CF06E221EE42EE65EFE4
:101CE0007CE5EACF08E221E045EE69ED7CE5E4CF52
:101CF000F7019281992309F43FC11092D601023075
:101D0000FCE51F0708F422C106312CE5120738F064
:101D100098012A5F3C452930310508F017C10E941F
:101D200019189093F5018093F40100313CE51307F5
:101D300009F4C3C008F041C008309CE5190709F454
:101D40009AC0F0F40430FCE51F0709F487C068F47A
:101D500002303CE5130709F477C003301C4509F055
:101D6000E5C08091F401826076C006309CE51907D9
:101D700009F46EC008F07BC08091F40188606BC0EC
:101D80000C30FCE51F0709F485C068F40A303CE517
:101D9000130709F474C008F079C00E94A62080914E
:101DA000F401806858C00E309CE5190709F476C02C
:101DB00008F07FC08091F4018BC00B3FFCE51F074A
:101DC00009F44FC018F503313CE5130709F47DC051
:101DD00078F401319CE5190709F473C002311C4500
:101DE00009F0A4C00E94A6208091F4018F7733C02F
:101DF0000531FCE51F0709F472C008F486C00A3FEC
:101E00001C4509F093C08091F5013EC00F3F8CE561
:101E1000180709F45FC058F40D3FECE51E0709F4FC
:101E200044C008F43FC08091F50182602DC00130AC
:101E30002DE5120709F475C008F45DC002301D4598
:101E400009F074C060E06EC08091F401816003C04D
:101E50008091F40180618093F40168C08091F40165
:101E600011C08091F50182608093F5015FC080917F
:101E7000F4018062F0CF8091F4018064ECCF809116
:101E8000F40188608460E7CF8160EECF8091F40137
:101E90008E7FE1CF8091F4018D7FDDCF8091F401C1
:101EA000877FD9CF8091F50118C08091F5018D7F92
:101EB000DBCF8091F4018F7ECECF8091F4018F7DB6
:101EC000CACF8091F4018F7BC6CF8091F401877FC8
:101ED0008B7FC1CF8091F5018D7F8E7FC5CF8091A3
:101EE000F40182FB222720F991E0922790FB82F9EE
:101EF00090FB83F9B0CF8091F501982F9095917068
:101F00008E7F892B90FB81F9AFCF0E94A620809114
:101F1000F40187FB222720F991E0922790FB87F9B3
:101F20009ACF61E08EE090E00E94FF236091F4017F
:101F30001091F50184E090E00E94FF23612F81E27F
:101F400090E00E94FF230E94A62004C306312CE5E6
:101F5000120719F5809179028A7A91E009F490E0EC
:101F60009093D701882311F065E301C069E288E10D
:101F700092E00E94FF170EC00631FCE51F0721F515
:101F80008091D701882309F404C365E388E192E0D6
:101F90000E94F2170E949318DDC201152CE512076A
:101FA00031F00E3D1C45D1F40E942A18D3C20E9484
:101FB000A6208FEF94E3ECE081509040E040E1F701
:101FC00000C000000E946417809179028272F801BB
:101FD000E25CFC45E431F10508F4DDC2F701008163
:101FE0001181992349F0C8010E94C018D82E682F8A
:101FF000C8010E943A1904C0C8010E940D19D82EC8
:10200000B8018D2D0E94520C8C01982EF701B580DD
:10201000B2942FE0B222A280A11010927802809197
:102020007602877099F0AA2089F0812F807F803412
:1020300021F080E2800F883048F082E00E94AD19E4
:10204000809176028770DD24D3948111D12CC12E2A
:10205000C2949FE0C9228C2D90E08C30910508F04D
:1020600019C2FC01EA5AFF4F0C94D824812F807FBB
:102070001F70882311F01295107FAA20B9F0112348
:1020800009F4F3C180E2800F883010F0911006C08F
:1020900080917902182B1093790205C08091780203
:1020A000182B109378020E949318DFC1802F0E9492
:1020B000CA20112309F4EEC1005E1095083010F01B
:1020C000911006C08091790218231093790205C0FF
:1020D000809178021823109378020E949318DAC135
:1020E000812F807F1F70803211F01295107F992010
:1020F00021F0F1E09F16E1F02AC0AA2081F0809142
:102100007A02BB2051F001E0B01207C0182B18175B
:1021100009F4C0C110937A02BDC1812B10C0BB204D
:1021200021F021E0B21609F4B5C10E948D1827C034
:10213000AA2041F035E03B1508F4ACC1812F0E9484
:10214000C020A8C184E08B1508F4A4C118C0AA203F
:1021500049F0BB2099F3F701858180FF86C18F701C
:102160008583ECCFBB2059F0093309F090C1FFEF14
:1021700017EE23E0F15010402040E1F786C1812F97
:102180000E94B52087C1812F837009F069C0A1101A
:1021900085C1902F929596959770990F990F802FE2
:1021A0008F70882E912CA12CB12C092E04C0880C84
:1021B000991CAA1CBB1C0A94D2F704FF12C04FE062
:1021C00050E060E070E004C0440F551F661F771FA9
:1021D0009A95D2F7DB01CA0180959095A095B095AC
:1021E00003C080E090E0DC0116951695412F437006
:1021F000423019F1C8F400917B0210917C022091C9
:102200007D0230917E02413059F088299929AA290E
:10221000BB29BC01CD0160237123822393230AC013
:10222000802A912AA22AB32ABC01CD0168297929E2
:102230008A299B290E94E71931C188299929AA294D
:10224000BB2900917B0210917C0220917D0230918C
:102250007E02BC01CD016027712782279327EACF38
:10226000AA2019F0812F817001C08695882309F476
:1022700015C1902F929596959770990F990F802F71
:102280008F70882E912CA12CB12C092E04C0880CA3
:10229000991CAA1CBB1C0A94D2F704FF12C04FE081
:1022A00050E060E070E004C0440F551F661F771FC8
:1022B0009A95D2F7DB01CA0180959095A095B095CB
:1022C00003C080E090E0DC0116951695412F437025
:1022D0004230D9F068F50091F0011091F1012091A0
:1022E000F2013091F301413059F088299929AA2946
:1022F000BB29BC01CD0160237123822393231EC01F
:10230000802A912AA22AB32A13C088299929AA29A6
:10231000BB290091F0011091F1012091F20130915F
:10232000F301BC01CD01602771278227932706C0E6
:10233000BC01CD01682979298A299B290E94661947
:10234000ADC01F70AA2039F0812F0E94C619802FBE
:102350000E94C020A3C0802F0E94B520812F0E9420
:1023600088199CC0802F32EF931609F440C03915AC
:1023700038F090EF991661F0E1EF9E1699F170C078
:10238000F3EF9F16D9F124EF921609F44EC068C0FE
:10239000AA2019F134E03B1508F47CC01F7181E0DC
:1023A00090E0A0E0B0E0AC01BD0104C0440F551FB7
:1023B000661F771F1A95D2F78091F0019091F10175
:1023C000A091F201B091F3018A019B01082719271E
:1023D0002A273B27C901B80121C025E02B1508F4A5
:1023E00059C0DCCFAA2029F0812F8F712CC0AA20E0
:1023F000D9F3812F8F710E9488194CC0AA2089F0CF
:102400001F7181E090E0A0E0B0E0BC01CD0104C00C
:10241000660F771F881F991F1A95D2F70E946619B9
:1024200039C060E070E0CB01F9CFAA2079F01F71CC
:10243000812F0E94C61938E0139FC00111248360C8
:1024400080937602812F0E94C61924C081E00E94E9
:10245000AD1981E08B15F0F482E00E94AD191AC02D
:10246000AA2039F0BB2009F4BFCF802F0E94482159
:1024700011C0BB2009F4BDCF893349F49FEFE7EECB
:10248000F3E09150E040F040E1F700C00000802F01
:102490000E94CA2088EF8C0D843010F40E947704CB
:1024A000DD20A9F08091760280FD11C0F701128233
:1024B0008595859585950E94C619C7010E94DF0DF7
:1024C000809176028595859585950E94881985E08D
:1024D000F701DE01119601900D928A95E1F789814D
:1024E0009A810E940D199A8100E3809FF0011124C6
:1024F00016E0919FE00DF11D11248981E80FF11D77
:10250000EE0FFF1FE35DFC4F85919491A1C0809178
:10251000840280FF44C08E7F809384026091840295
:102520007091850280918602909187020E945E09D7
:102530000E94030580910D02816080930D029FEF40
:10254000E0E7F2E09150E040F040E1F700C0000029
:102550000E94250580917602877009F479C0F70101
:102560008281882309F474C082E02A960FB6F89419
:10257000DEBF0FBECDBFDF91CF911F910F91FF90B6
:10258000EF90DF90CF90BF90AF909F908F900C9482
:10259000AD1969E2FBCCEE59FF4F0C94D824816051
:1025A0008093840261E0869550C046EB5AE06FEB61
:1025B0007AE02CC04FEB5AE066EB7AE027C042E4A9
:1025C0005AE06BE47AE022C04BE45AE062E47AE03D
:1025D0001DC04AE25AE066E37AE018C046E35AE0DA
:1025E0006AE27AE013C042E15AE06EE17AE00EC09E
:1025F0004EE15AE062E17AE009C044E55AE065E65E
:102600007AE004C045E65AE064E57AE00E94FD0401
:10261000A1CF61E081E019C065E082E011C068E00F
:1026200086E00EC06EE089E00BC064E18FE008C078
:1026300067E185E105C061E088E107C062E289E108
:102640000E94C90A87CF61E083E20E94760A82CFA6
:102650002A960FB6F894DEBF0FBECDBFDF91CF91A3
:102660001F910F91FF90EF90DF90CF90BF90AF90B0
:102670009F908F90089508950895089580918C02F9
:102680000895CF93DF9321E02093E9002FEF30915D
:10269000E800215035FD06C035ED3A95F1F7000010
:1026A0002111F5CF2091E80025FF14C0EC0140E096
:1026B00050E068E070E00E941A1C8091E8008E777C
:1026C0008093E80088E0FE01ADE8B2E001900D9251
:1026D0008A95E1F7DF91CF910895CF92DF92EF9243
:1026E000FF920F931F93CF93DF93C8EDD0E08881C3
:1026F0008F7E8883E7EDF0E080818160808384E0D5
:1027000082BF81E08093830288818E7F888302EE7E
:1027100010E0F80110821092DA0081EEC82ED12C60
:10272000F601108288818F7788838881806888830A
:1027300088818F7D888319BC10929702109298022D
:10274000109296021092950290EEE92EF12CF7016C
:1027500080818B7F808388818160888360E080E0D6
:102760000E94401CF60180818E7F8083F801808169
:1027700081608083808188608083F70180818E7F83
:102780008083888180618883DF91CF911F910F9131
:10279000FF90EF90DF90CF9008952091E40030916A
:1027A000E50095E64091EC00842F817040FF23C046
:1027B0008091E80080FD1DC080919702882399F0E8
:1027C000853099F08091EB0085FD11C04091E400C7
:1027D0005091E5002417350729F3915011F09A0123
:1027E000E1CF84E0089582E0089583E0089581E0D8
:1027F000089580E008954091E80042FFDDCF0895FC
:102800008091990287FF11C08091E80082FD05C088
:10281000809197028111F8CF11C08091E8008B77E9
:102820000BC080919702882349F08091E80080FFD7
:10283000F8CF8091E8008E778093E800089520918A
:102840009F023091A0022617370748F061157105E5
:1028500039F42091E8002E772093E80001C0B901F7
:10286000FC0120E06115710579F1809197028823C0
:10287000F1F18530F1F18091E80083FD3CC0809159
:10288000E80082FD2EC08091E80080FFEBCF209110
:10289000F3008091F20090E0922B6115710551F0E8
:1028A0008830910538F421912093F100615071092D
:1028B0000196F3CF21E0089709F020E08091E8002D
:1028C0008E778093E800CECF2111CFCF0AC08091C0
:1028D0009702882361F0853061F08091E80083FDE4
:1028E0000AC08091E80082FFF2CF80E0089582E084
:1028F000089583E0089581E00895CF93DF93CDB7E5
:10290000DEB72A970FB6F894DEBF0FBECDBF84B7EF
:10291000877F84BF0FB6F894A89580916000886186
:1029200080936000109260000FBE90E080E80FB6C8
:10293000F89480936100909361000FBE85B7806822
:1029400085BF85B7806885BF0E94751F0E946D1383
:102950008091E20084608093E200789480919702F5
:102960008823A1F01091E9001F709091EC00892F4D
:10297000817090FD80E8182B1092E9008091E800AA
:1029800083FD0E94751C1F701093E90082E084BDD6
:1029900093E095BD9AEF97BD80936E000E94F20A76
:1029A0008093270180912701882321F01092120142
:1029B00086E003C086E080931201809313010E9499
:1029C000F20A882331F062E070E087E191E00E9432
:1029D0002A228091270180912701811102C094E071
:1029E00001C090E09093EF0184E0891B8093EE0199
:1029F000AEE5B1E041E050E08D91E82FE295EF7057
:102A0000F0E021A18F708A0102C0000F111F8A958A
:102A1000E2F7C801902F9095922391A392A1892B60
:102A200082A311E0A236B10739F7A6E6B1E04CE681
:102A300051E061E070E08D91E82FE295EF70F0E0F9
:102A400021A18F708B0102C0000F111F8A95E2F740
:102A5000C801902F9095922391A392A1892B82A3D4
:102A60004A175B0741F7E6EEF1E08EEE91E0AAEF40
:102A7000B1E011921D928E179F07D9F70E940F0B9C
:102A80008FE39CE90197F1F700C000000E940F0B53
:102A90008091FA0180FF08C06FEF7FEF80E090E047
:102AA0000E941D240E94641780E090E00E94F92398
:102AB0008C3E9E4F11F00E942A180E94F20A81114A
:102AC00006C062E070E087E191E00E94332280E07E
:102AD00090E00E94F9238C3E9E4F11F00E942A182C
:102AE00082E090E00E94EB2380930F020E9419186D
:102AF0009093F5018093F40183E090E00E94EB2332
:102B0000682F70E080E090E00E94E7198091F60164
:102B100081113BC080E090E00E94F9238C3E9E4FE3
:102B200021F00E942A180E94DB0A88E090E00E94AF
:102B3000F3236093840270938502809386029093BE
:102B4000870280910D02836080930D026E7F71F485
:102B50000E94DB0A88E090E00E94F32360938402E5
:102B60007093850280938602909387020E944B099E
:102B70000E9403058091840280FF04C060E0869576
:102B80000E94760A81E08093F60188E291E09093BA
:102B9000F8018093F701A0EBEA2EA4E0FA2E8091D1
:102BA0009702853009F04BC080919702843009F478
:102BB00034C01092F90120E488E190E00FB6F89457
:102BC000A895809360000FBE209360000E940305CB
:102BD00080918A0281110AC081E080938A028091EB
:102BE00084028170809389020E94340983B7817FB7
:102BF000846083BF83B7816083BF7894889583B7EF
:102C00008E7F83BF0FB6F894A8958091600088618D
:102C100080936000109260000FBE8091960288231E
:102C200009F4BDCF0E940F0B82E092E0EAEFF1E0E1
:102C30002191211133C18E179F07D1F7B0CF0E9488
:102C40000F0B0E94F20A8823A1F1E0E1F2E0AAEF63
:102C5000B1E000E010E0302F2D919191922721F109
:102C600080E0DD24D3944D2D4923D1F089833A832C
:102C70002D2181E009F480E08B830E94BD178160E3
:102C8000782F9D838C8349815A816B818D810E942D
:102C9000DB03F801E05FFD4F8081D826D08219C0A8
:102CA0008F5FDD0C8630F9F60F5F1F4F083011057E
:102CB00091F68FEF8E838F8318860E94BD178160F7
:102CC000782F9A8789874E815F8168858A850E94DF
:102CD000DB0380910C02882309F4D4C080910B029D
:102CE000E0918402E695E81BE0930702823059F4F4
:102CF000F0E0E254FB4FE4910E2F10E0F0E2CF2E13
:102D0000F9E0DF2E6AC0863059F4F0E0E554FB4F5D
:102D1000E4910E2F10E0E0E1CE2EE9E0DE2E5DC062
:102D2000893061F4E695F0E0E854FB4FE4910E2F12
:102D300010E070E6C72E78E0D72E4FC08F3061F4D8
:102D4000E695F0E0EB54FB4FE4910E2F10E063ECBE
:102D5000C62E67E0D62E41C0853159F4F0E0EE541E
:102D6000FB4FE4910E2F10E05DE3C52E57E0D52E0A
:102D700034C08831F1F0833241F4F70105911491A8
:102D800046EBC42E48E0D42E28C08432C9F08532E8
:102D9000F1F48E2F63E00E949624E92FF0E0E355D2
:102DA000FB4FE4910E2F10E03CEAC32E35E0D32E0A
:102DB00014C008E210E02AEAC22E26E0D22E0DC08E
:102DC00004EF11E09BE6C92E96E0D92E06C000ED77
:102DD00017E081E0C82E83E0D82E80910802882376
:102DE00089F0109208020E94BD1798012095309535
:102DF000820F931F909306028093050210920A029D
:102E00001092090280910502909106020E94AE176D
:102E100080179107B8F1809104028823B1F01092D5
:102E2000040280910202909103020E94AE17803347
:102E3000954758F00E94BD179093030280930202B9
:102E400080910D02886080930D02A0900902B090DD
:102E50000A02E0910502F09106020E0F1F1F109367
:102E600006020093050285E092E0F6010995809143
:102E7000090290910A02892B29F4AB2819F081E00C
:102E8000809304020E94770490910E02891709F43E
:102E900086CE0E94770480930E0281CE80E189BDA8
:102EA00082E189BD09B400FEFDCF8091D8008F7DFD
:102EB0008093D8008091E00082608093E000809150
:102EC000E00081FDFCCF6BCE81E08093E00080E2EA
:102ED0008093D8001092C9008FE19EE40197F1F72A
:102EE00000C0000087E090EBDC018093A802909383
:102EF000A902A093AA02B093AB029CE088E10FB6AE
:102F0000F894A895809360000FBE90936000FFCF67
:102F100078941F920F920FB60F9211248F939F9364
:102F2000AF93BF9380917F0290918002A091810224
:102F3000B09182020196A11DB11D80937F029093F2
:102F40008002A0938102B0938202BF91AF919F91C2
:102F50008F910F900FBE0F901F9018959C014FB747
:102F6000F89480917F0290918002A0918102B091AB
:102F700082024FBF821B930B08952FB7F894809164
:102F80007F0290918002A0918102B09182022FBFB6
:102F900008951F920F920FB60F9211248F939F9353
:102FA000AF93BF938091F901811113C080917F028B
:102FB00090918002A0918102B09182024196A11D60
:102FC000B11D80937F0290938002A0938102B09301
:102FD0008202BF91AF919F918F910F900FBE0F9082
:102FE0001F9018959C012A5F3F4FFC0142814613B8
:102FF00001C01282019682179307B9F708959C01C8
:10300000FC0132969FEF80E04191461789F09F3F87
:1030100019F4411101C0982F8F5F8630A9F79F3FA7
:1030200039F0F901E90FF11D97FDFA9562830895D2
:103030000895CF9384E090E00E94EB23C82F81E2B3
:1030400090E00E94EB232C2F30E0A901582BCA01FD
:10305000CF9108956CEE7EEF80E090E00E941D24F9
:1030600060E082E090E00E94FF2360E083E090E077
:103070000E94FF2310927B0210927C0210927D022C
:1030800010927E0260E084E090E00E94FF2360E006
:1030900081E290E00E94FF2360E085E090E00E94E2
:1030A000FF2360E086E090E00E94FF236FEF87E05F
:1030B00090E00E94FF2340E050E0BA0188E090E0F9
:1030C0000E94112460E08DE090E00E94FF2340E028
:1030D00050E0BA0188E190E00E94112460E087E1AD
:1030E00090E00E94FF2340E050E0BA018CE190E0C4
:1030F0000E94112460E080E290E00E94FF2340E003
:1031000050E0BA018FE090E00E94112440E050E0CE
:10311000BA0183E190E00C94112480917A0281112C
:1031200010927A0208959091790280917802892B09
:1031300020917702982F922B9093180280917A0217
:10314000882389F0892B80931802EAE1F2E097E066
:1031500080E0915029F021912223D9F38F5FF9CF9C
:1031600081110E948D18E091F701F091F8013097DC
:1031700031F00280F381E02D88E192E00994089516
:10318000BF92CF92DF92EF92FF920F931F93CF9354
:10319000DF938C01C090F001D090F101E090F2013A
:1031A000F090F30180917B0290917C02A0917D02CE
:1031B000B0917E02C82AD92AEA2AFB2ACFE1D0E0C0
:1031C000D701C6010C2E04C0B695A7959795879593
:1031D0000A94D2F780FD04C0219790F7B12C07C064
:1031E000BC2EB8018C2F0E94520C0197A9F38B2D95
:1031F000DF91CF911F910F91FF90EF90DF90CF90D3
:10320000BF900895CF93DF93EC010E94C018BE01D8
:103210000E94520CDF91CF910895292F220F920F17
:10322000990F890F682F669566956695982F977008
:1032300085E0689FB001112440E050E080E0FB0190
:10324000E40FF51FE85AFD4F208130E0092E02C03F
:10325000369527950A94E2F721703327042E01C092
:10326000220F0A94EAF7822B4F5F5F4F45305105DA
:1032700031F70895292F220F920F990F890FE82F08
:10328000E695E695E695877051E001C0550F8A9561
:10329000EAF785E0E89FF0011124E85AFD4F20E0AD
:1032A00030E070E04081CB01022E02C096958795F8
:1032B0000A94E2F78170819584278523842781937E
:1032C0002F5F3F4F2530310569F708950F931F9306
:1032D0008B019C010670112722273327DC01CB01CB
:1032E000063011052105310511F4886001C0877F82
:1032F0008093F0019093F101A093F201B093F30158
:1033000010927802109277021F910F910C949318EB
:103310000F931F9341E050E060E070E004C0440F61
:10332000551F661F771F8A95D2F740955095609577
:1033300070958091F0019091F101A091F201B0910E
:10334000F3018A019B01082319232A233B23C90186
:10335000B8011F910F910C94661920917602809507
:10336000822380937602982F977079F430E0482F6B
:10337000082E000C550B2417350739F085958595D7
:1033800085950E9488191092760208950F931F93D5
:1033900041E050E060E070E004C0440F551F661F3C
:1033A000771F8A95D2F78091F0019091F101A09159
:1033B000F201B091F3018A019B01082B192B2A2BF2
:1033C0003B2BC901B8011F910F910C9466196093B2
:1033D0007B0270937C0280937D0290937E02109218
:1033E0007802109277020C94931880915702909172
:1033F0002602891719F08F5F8770FBCF08950F930E
:103400001F93CF93DF938091250282958F7009F0EF
:103410005DC080912202882309F458C08091570230
:10342000109126026091200270912102C091230226
:10343000D091240291E06F3F09F090E0292F06E03F
:10344000811709F443C0209721F07F3F21F030E03D
:1034500003C031E001C0322F90E030FD34C0089F3E
:10346000F001099FF00D1124DF01A95DBD4F1196F8
:103470003C911197371327C03C91361324C0129604
:103480003C91129731111FC013964D915C91149786
:103490004C1B5D0B483C5105B0F4809125028F70A8
:1034A000806180932502E45DFD4F80818F70806193
:1034B000808380E292E00E94DF0DDF91CF911F9127
:1034C0000F910C94F51901968770BACFDF91CF91C7
:1034D0001F910F9108959F92AF92BF92CF92DF926A
:1034E000EF92FF920F931F93CF93DF93CDB7DEB789
:1034F00061970FB6F894DEBF0FBECDBF8C0185E09B
:10350000F801DE011D9601900D928A95E1F7F80110
:1035100090818181E280309120026091210240916E
:103520002302509124024115510531F06F3F31F4CF
:1035300021E03F3F19F403C021E001C020E0F22F59
:10354000F1709F2E20FD23C1F801C380D48020E2BA
:10355000A22E22E0B22EF0902202F601E41BF50B1F
:10356000FF2009F4CEC020912502E83CF10508F0C7
:1035700099C0422F407F09F051C0681311C0391320
:103580000FC0FE2CE1100CC02F702061209325028B
:10359000C5010E94DF0D80912502F801858337C1A6
:1035A000CD2831F08F3F31F421E09F3F19F403C063
:1035B00021E001C020E020FD03C021E02E2502C053
:1035C00020E030E0F22FF170FF2E20FF1DC020918F
:1035D00057024091260256E0241709F4F6C030E065
:1035E000529FF001539FF00D1124E95DFD4F618161
:1035F000861306C06081961303C06281E61204C080
:103600002F5F3F4F2770E8CFFE2CEE2009F4FFC05C
:103610008091250281608093250250C0681307C005
:10362000391305C0E11003C0F80125838DC09D87C3
:103630008E878D859E850E947D20882369F1EE20EE
:1036400059F120912502822F82958F7090E0029788
:1036500074F0809120029091210298878F831986BF
:10366000DB86CA862C87CE0107960E94DF0D86E096
:10367000F801A0E2B2E001900D928A95E1F70E9474
:10368000FF190DC06817E1F09D878E878D859E8597
:103690000E947D2081111EC0C8010E94DF0DFF2401
:1036A000F394B5C0422F407F69F780E292E00E9418
:1036B000DF0D86E0F50111928A95E9F7F12CA7C09C
:1036C0003913E2CFE110E0CFF8012583C8010E9451
:1036D000DF0D57C0EE2001F320912502822F829545
:1036E0008F7090E002971CF280912002909121024D
:1036F0009A8389831B82DD82CC822E83CE01019640
:10370000B4CFE83CF105E8F5FE2CEE2029F2681371
:1037100027C0391325C02091250220FD18C0822F13
:1037200082958F70482F50E04115510581F0F801C6
:1037300025834F30510541F08F5F982F9295907FF0
:10374000822F8F70892B8583C8010E94DF0D86E050
:10375000F801A0E2B2E001900D928A95E1F757C01E
:103760009D878E878D859E850E947D2081117FCFCC
:1037700080912502816080932502C8010E94DF0D9F
:1037800046C086E0F50111928A95E9F740C0EE2027
:1037900009F482CF9D878E878D859E850E947D202E
:1037A000F82E882309F478CF86E0F801A0E2B2E091
:1037B00001900D928A95E1F780912002909121026B
:1037C0000E9402190E94FF1922C09D878E878D8555
:1037D0009E850E940219292F22952F70223028F4ED
:1037E0009F7039F0811105C00BC0243028F49F7000
:1037F00049F4805E883020F0C8010E94DF0D9F2CC4
:10380000F92C05C0F8019581907F99F7F9CF8F2D9C
:1038100061960FB6F894DEBF0FBECDBFDF91CF919A
:103820001F910F91FF90EF90DF90CF90BF90AF90DE
:103830009F9008950F931F93CF93DF938C010E9465
:10384000CD13811118C0E80108E010E08091E80074
:1038500085FD0AC08091E8008E778093E8000E9481
:10386000CD13882399F307C089918093F10001500B
:10387000110961F780E0DF91CF911F910F910895B9
:10388000982F973068F59093E900981739F0509188
:10389000EC002091ED004091F00003C0562F40E075
:1038A00022E021FD02C09F5FECCF3091EB003E7F14
:1038B0003093EB003091ED003D7F3093ED0030917F
:1038C000EB0031603093EB005093EC002093ED005F
:1038D0004093F0002091EE0027FDE5CF80E00895B1
:1038E0008F708093E90081E008951F93CF93DF9359
:1038F000CDB7DEB7AA970FB6F894DEBF0FBECDBF27
:10390000E9E9F2E08091F100819322E0E13AF207E7
:10391000C9F780919A02833009F460C030F4813095
:1039200071F0823009F49AC0B1C08A3009F486C0BF
:103930008B3009F46BC0893009F0A8C020C0809199
:103940009902813A09F0A2C08091E800877F8093B4
:10395000E80080919D0290919E02892B21F468E0FD
:103960008DE892E003C060E080E090E070E00E94AB
:103970001F148091E8008B778093E80087C08091C6
:103980009902813209F082C080919D0290919E023D
:10399000892B09F07BC08091E800877F8093E80045
:1039A0008091E80082FD05C0809197028111F8CFD7
:1039B0006DC02091F3008091F20090E0922B02976D
:1039C00029F48091F1008B7F813021F48091F10006
:1039D00080938C028091E8008B7754C0809199028B
:1039E000813A09F053C080919D0290919E02892BEB
:1039F00009F04CC08091E800877F8093E8008091B7
:103A0000E80080FFFCCF8091320137C0809199029D
:103A10008132E1F580919D0290919E02892BB1F552
:103A20008091E800877F8093E8000E9400148091D5
:103A30009B02809332010E94A62028C080919902A7
:103A4000813221F58091E800877F8093E8000E9411
:103A5000001480919C0280938B0218C0809199027F
:103A6000813AA1F48091E800877F8093E8008091FB
:103A7000E80080FFFCCF80918B028093F100809161
:103A8000E8008E778093E8000E9400148091E8009F
:103A900083FFBFC18091990290919A02492F50E013
:103AA0004A30510508F0B5C1FA01EA58FF4F0C94AD
:103AB000D824803821F0823809F0ABC108C0809149
:103AC000950290919602992389F082600FC08091AF
:103AD0009D028F70873008F09CC18093E90080912F
:103AE000EB0085FB882780F91092E9009091E800AF
:103AF000977F9093E8008093F1001092F1005EC1EF
:103B0000282F2D7F09F085C1882319F0823061F0BC
:103B100080C180919B02813009F07BC1933009F014
:103B200080E0809396022EC080919B0281112AC072
:103B300080919D028F702FEF280F263008F069C109
:103B40008093E9002091EB0020FF1CC0933021F40A
:103B50008091EB00806214C09091EB009061909393
:103B6000EB0021E030E0A90102C0440F551F8A9507
:103B7000E2F74093EA001092EA008091EB0088603F
:103B80008093EB001092E9008091E800877F19C1D3
:103B900081113FC110919B021F778091E3008078D3
:103BA000812B8093E3008091E800877F8093E80079
:103BB0000E9400148091E80080FFFCCF8091E30018
:103BC00080688093E300111102C082E001C083E0AD
:103BD000809397021EC18058823008F01AC18091EC
:103BE0009B0290919C028C3D53E0950779F583E010
:103BF0008A838AE289834FB7F894DE01139620E026
:103C00003EE051E2E32FF0E050935700E49120FFB3
:103C100003C0E295EF703F5FEF708E2F90E0EA30C7
:103C200010F0C79601C0C0968D939D932F5F2431ED
:103C300049F74FBF8091E800877F8093E8006AE2F0
:103C400070E0CE0101960E941F14A7C040919D0212
:103C500050919E02292F332723303105A9F068F4B3
:103C60002130310509F4E4C02230310509F0D1C01A
:103C700082E290E0E2E0F5E03DC02132310579F1E9
:103C80002232310581F1C5C0992781309105B9F003
:103C900070F082309105D9F0039709F0BAC0E6E3DD
:103CA000F5E0E4918E2F90E0E6E3F5E020C0ECE64D
:103CB000F5E0E4918E2F90E0ECE6F5E018C0E8E541
:103CC000F5E0E4918E2F90E0E8E5F5E010C0ECE33C
:103CD000F5E0E4918E2F90E0ECE3F5E008C0452B91
:103CE00009F4ABC096C0452B09F4ACC092C0009754
:103CF00009F48FC02091E800277F2093E8002091ED
:103D00009F023091A0028217930708F49C0140E0C3
:103D10002115310589F180919702882309F43DC06E
:103D20008530D9F18091E80083FD37C08091E800AB
:103D300082FD2FC08091E80080FFEACF4091F30020
:103D40008091F20090E0942B2115310559F08830D4
:103D5000910540F444914093F1003196215031098E
:103D60000196F2CF41E0089709F040E08091E80029
:103D70008E778093E800CCCF4111CDCF0AC08091DF
:103D80009702882351F0853041F08091E80083FD4F
:103D900004C08091E80082FFF2CF8091E8008B7729
:103DA0008093E80036C08038A1F58091E800877FD5
:103DB0008093E800809198028093F1008091E80060
:103DC0008E778093E8000E94001423C0811121C0E7
:103DD00080919B0290919C0299270297D4F4809144
:103DE000E800877F8093E80010919B02109398026F
:103DF0000E940014111106C08091E30087FD02C0EB
:103E000081E001C084E08093970261EC81E00E9430
:103E1000401C8091E80083FF1AC08091E800877FF2
:103E20008093E8008091EB0080628093EB000FC0EC
:103E300082E190E0E4E2F5E05DCF89E090E0E4E14A
:103E4000F5E058CF80E490E0E2ECF4E053CFAA969E
:103E50000FB6F894DEBF0FBECDBFDF91CF911F919B
:103E600008951F920F920FB60F9211242F933F9334
:103E70004F935F936F937F938F939F93AF93BF9372
:103E8000CF93DF93EF93FF93C091E900CF708091C0
:103E9000EC00D82FD17080FDD0E81092E90080911D
:103EA000F000877F8093F00078940E94751C109238
:103EB000E9008091F00088608093F000CD2BCF70F6
:103EC000C093E900FF91EF91DF91CF91BF91AF9146
:103ED0009F918F917F916F915F914F913F912F9122
:103EE0000F900FBE0F901F901895E8EDF0E08081C5
:103EF0008E7F80831092E2001092DA001092E1002F
:103F0000A0EEB0E08C9181608C9380818F7780836C
:103F100019BCA7EDB0E08C918E7F8C9380818F7E51
:103F200080831092830208951F920F920FB60F9212
:103F300011242F933F934F935F936F937F938F93AE
:103F40009F93AF93BF93EF93FF938091E10082FF24
:103F500009C08091E20082FF05C08091E1008B7F63
:103F60008093E1008091DA0080FF2AC08091D80020
:103F700080FF26C08091DA008E7F8093DA008091E6
:103F8000D90080FF18C080E189BD82E189BD09B4F4
:103F900000FEFDCF81E08093970280918302811122
:103FA0000FC00E94751F0E946D138091E200846013
:103FB0008093E20005C019BC109297021092830210
:103FC0008091E10080FF17C08091E20080FF13C064
:103FD0008091E2008E7F8093E2008091E200806118
:103FE0008093E2008091D80080628093D80019BC51
:103FF00085E0809397028091E10084FF43C0809127
:10400000E20084FF3FC080E189BD82E189BD09B43F
:1040100000FEFDCF8091D8008F7D8093D8008091E5
:10402000E1008F7E8093E1008091E2008F7E80939B
:10403000E2008091E20081608093E200809198022A
:10404000882311F084E007C08091E30087FD02C05F
:1040500081E001C083E0809397020E94A6200E9425
:10406000770410928A0280918902882349F0809116
:10407000840281608093840260E086950E94760AC3
:104080000E940A058091E10083FF26C08091E20032
:1040900083FF22C08091E100877F8093E10082E06E
:1040A00080939702109298028091E1008E7F809316
:1040B000E1008091E2008E7F8093E2008091E20037
:1040C00080618093E20060E080E00E94401C80916B
:1040D000F00088608093F000FF91EF91BF91AF9165
:1040E0009F918F917F916F915F914F913F912F9110
:1040F0000F900FBE0F901F9018950E940219292F44
:104100002F70E92FE295EF704E2F50E0FA013297B1
:10411000EE30F105B8F4E058FF4F0C94D824803FFE
:1041200099F018F4883E70F40FC0843F59F40CC025
:10413000883E50F0813F31F407C0822F86958695E6
:104140008695089580E0089581E00895109279029F
:1041500086E0EAE1F2E0DF011D928A95E9F710922C
:104160007802109277020C949318882341F080957E
:10417000909179028923809379020C949318089581
:10418000882339F090917902892B809379020C94DD
:1041900093180895882309F47AC0682F823869F447
:1041A0000E94770481FF73C069E388E192E00E9476
:1041B000FF170E94931869E30EC0833891F40E94A0
:1041C000770480FF64C063E588E192E00E94FF17F6
:1041D0000E94931863E588E192E00E94F2170C9424
:1041E0009318843869F40E94770482FF50C067E412
:1041F00088E192E00E94FF170E94931867E4EBCFDA
:104200008CEF860F813A38F380E2860F883070F4A5
:10421000677081E090E001C0880F6A95EAF78095A9
:1042200090917902892380937902D9CF8BE5860F0B
:104230008330A0F48091A1029091A202892B39F1E0
:104240001092A2021092A102E091F701F091F80100
:104250003097E9F00680F781E02D16C0685A673183
:10426000B0F48091A3029091A402892B81F0109266
:10427000A4021092A302E091F701F091F8013097A7
:1042800031F00084F185E02D80E090E009940895FC
:10429000CF93882309F47CC0C82F8238B1F40E94E0
:1042A000770481FD75C069E388E192E00E94FF1701
:1042B0000E9493182FEF81EE94E0215080409040AF
:1042C000E1F700C0000069E317C08338D1F40E9411
:1042D000770480FD5DC063E588E192E00E94FF17EE
:1042E0000E9493182FEF81EE94E02150804090407F
:1042F000E1F700C0000063E588E192E00E94F21758
:104300003CC08438B1F40E94770482FD41C067E468
:1043100088E192E00E94FF170E9493182FEF81EE30
:1043200094E0215080409040E1F700C0000067E435
:10433000E3CF8CEF8C0F813A80F4EAE1F2E080E287
:1043400092E02191C217E1F08E179F07D1F76C2FF1
:1043500088E192E00E94FF1710C080E28C0F883045
:10436000B8F4C77081E090E001C0880FCA95EAF701
:1043700090917902892B80937902CF910C949318B4
:104380006C2F88E192E00E94F2170E949318DFCF11
:10439000CF9108958EE14A9B02C08150E1F74A9B7C
:1043A000FECF08955A9880E28A95F1F75A9A0895B7
:1043B000FC012AE02A95F1F790E020E080E031E06E
:1043C000261779F040E14A95F1F7880F4A9B02C021
:1043D0008160932700C0000040E14A95F1F72F5F0C
:1043E000EFCF20E12A95F1F729B100C0000030E1BC
:1043F0003A95F1F722FB222720F992272081920F8C
:1044000090830895EF92FF920F931F93CF93DF93C2
:104410001F92CDB7DEB719828C017C01E60EF11C2C
:104420000E151F0559F00E94CA2168E0CE010196C1
:104430000E94D821F80181938F01F2CF81E0998108
:10444000911180E00F90DF91CF911F910F91FF901C
:10445000EF9008959093A7028093A6026093A5021F
:10446000529A5A9A08959093A7028093A602609355
:10447000A50252985A9AEA9AE9E6F0E080818F7C88
:1044800080830895615091E001C0990F6A95EAF721
:1044900020E031E0992361F0492F482319F05A9A1E
:1044A000232701C05A9840E24A95F1F79695F2CF3A
:1044B000222311F05A9A01C05A9880E28A95F1F7A6
:1044C0005A980895FF920F931F93CF93DF93EC01B7
:1044D0008C01060F111DC017D10741F0F9900E9401
:1044E000D22168E08F2D0E944222F5CFDF91CF913B
:1044F0001F910F91FF9008951F920F920FB60F9288
:1045000011240F931F932F933F934F935F936F93B8
:104510007F938F939F93AF93BF93EF93FF93CF932B
:10452000DF931F92CDB7DEB719820E94CA2167E0E0
:10453000CE0101960E94D821382F369536953695B2
:10454000932F96959570232F2570920F292F237006
:10455000969596958770920F891348C0898181112D
:1045600045C08091A502831708F440C080E18A9578
:10457000F1F75A9A529AA2E0AA95F1F700C0009179
:10458000A6021091A702B8E03B9F000D111D112457
:104590005A98F8016581662321F0868197810E94EF
:1045A00062220E94D221F0E1FA95F1F75A985298CE
:1045B0005A9A80E18A95F1F7D80112966C91129778
:1045C000662369F013968D919C9114970E940222A4
:1045D000D801ED91FC91811105C082E004C0D801A1
:1045E000ED91FC9188E080830E94CA210F90DF91B9
:1045F000CF91FF91EF91BF91AF919F918F917F915B
:104600006F915F914F913F912F911F910F910F905B
:104610000FBE0F901F9018950F931F93CF93DF93AA
:104620002091A50230E0281739070CF471C09C01D5
:1046300093E0220F331F9A95E1F7C091A602D09123
:10464000A702C20FD31FF894529A5A9845E04A9590
:10465000F1F70000982F969595708570890F982F27
:10466000937086958695890F8901082B0E94D22127
:1046700084E08A95F1F700C067E0802F0E94422213
:1046800040E14A95F1F752985A9A4A9902C000C0FF
:10469000FCCF87E090E04A9B0EC0019751F4529AFC
:1046A0005A9AE881F98181E08083789481E090E0F2
:1046B00031C000C0F0CF6D81662381F08E819F8173
:1046C0000E94022281110AC0529A5A9AE881F98105
:1046D00082E08083789482E090E01CC00E94CA212E
:1046E00080E28A95F1F75A98529A40E14A95F1F79B
:1046F0006A81662321F08B819C810E9462220E9444
:10470000D221E881F9811082789480E090E002C0A3
:1047100084E090E0DF91CF911F910F9108958F92E7
:104720009F92AF92BF92CF92DF92EF92FF92CF9380
:10473000DF93EC01688179818A819B816115710524
:104740008105910521F464E279ED8BE597E02DE197
:1047500033EF41E050E00E94332449015A019B01AC
:10476000AC01A7EAB1E40E9452246B017C01ACEEDB
:10477000B4EFA50194010E946024DC01CB018C0DF3
:104780009D1DAE1DBF1DB7FF03C00197A109B04815
:1047900088839983AA83BB839F77DF91CF91FF9012
:1047A000EF90DF90CF90BF90AF909F908F90089543
:1047B0000E948F23089580E091E00E948F23089546
:1047C000A0E0B0E08093000190930101A09302016A
:1047D000B09303010895F999FECF92BD81BDF89A77
:1047E000992780B50895A6E1B0E044E050E00C942C
:1047F0002524A8E1B0E042E050E00C942524262FC7
:10480000F999FECF92BD81BDF89A019700B40216C6
:1048100039F01FBA20BD0FB6F894FA9AF99A0FBE74
:1048200008950396272F0E9400240E94FF23252F1E
:104830000E940024242F0C9400240196272F0E940C
:1048400000240C94FF23DC01CB01FC01F999FECF7D
:1048500006C0F2BDE1BDF89A319600B40D92415008
:104860005040B8F70895052E97FB1EF400940E945F
:104870004A2457FD07D00E94652407FC03D04EF45C
:104880000C944A2450954095309521953F4F4F4FB9
:104890005F4F089590958095709561957F4F8F4FEC
:1048A0009F4F08950E948724A59F900DB49F900D5F
:1048B000A49F800D911D11240895B7FF0C945224DC
:1048C0000E945224821B930B0895A1E21A2EAA1B68
:1048D000BB1BFD010DC0AA1FBB1FEE1FFF1FA217B0
:1048E000B307E407F50720F0A21BB30BE40BF50BAD
:1048F000661F771F881F991F1A9469F76095709536
:10490000809590959B01AC01BD01CF010895A29FB8
:10491000B001B39FC001A39F700D811D1124911D93
:10492000B29F700D811D1124911D0895991B79E08E
:1049300004C0991F961708F0961B881F7A95C9F72F
:104940008095089587FB082E062687FD819567FDD3
:1049500061950E9496240EF4919507FC8195089527
:10496000AA1BBB1B51E107C0AA1FBB1FA617B70795
:1049700010F0A61BB70B881F991F5A95A9F78095B1
:104980009095BC01CD01089597FB072E16F4009475
:1049900007D077FD09D00E94B02407FC05D03EF473
:1049A000909581959F4F0895709561957F4F0895DB
:1049B000EE0FFF1F0590F491E02D09940E948724CB
:1049C000332312F48A1B9B0B0C94E8240E94872447
:1049D000B7FF0895821B930B0895FC01415050408E
:1049E00030F001900616D1F73197CF01089588274E
:0849F00099270895F894FFCF08
:1049F8000100000001191A1B1C1D1E1F2021220185
:104A08000201000C000C0CE50100E50104E101E0E5
:104A18000108D801000000013E1341133D133B1368
:104A28003C130100010202020206060609090909EF
:104A380009090F0F0F0F0F0F151515181919191947
:104A48001919191919192324252525252525949778
:0C4A5800C63400000000F4F5F6F731331E
:00000001FF
