:100000000C9463030C94AA030C94AA030C94B32BD2
:100010000C94AA030C94AA030C94AA030C94AA03AC
:100020000C94AA030C94AA030C947A150C94B6149D
:100030000C94CB230C94AA030C94AA030C94AA034B
:100040000C94AA030C94AA030C94AA030C94AA037C
:100050000C94AA030C9430170C94AA030C94AA03D2
:100060000C94AA030C94AA030C94AA030C94AA035C
:100070000C94AA030C94AA030C94AA030C94AA034C
:100080000C94AA030C94AA030C94AA030C94AA033C
:100090000C94AA030C94AA030C94AA030C94AA032C
:1000A0000C94AA030C94AA030C94AA030B080B0843
:1000B000450845089E08B909B909B909BA082E09C1
:1000C0003F093F09550F580F720F7F0F860FA60F7C
:1000D000A90FDD0FFF0F9C109C100A100C101010C0
:1000E0003410551058105B107D10CA12F11298147C
:1000F000F11298143D1360139814551465148D1E55
:100100008D1EA01EA01E961EA01EA01EA01E8D1E2F
:100110008D1E9B1EA01EA01E9B1E00000000000046
:1001200000000000000000000000000000000000CF
:1001300000000000000000000000000000007E0F32
:1001400000D4FFFFFFC7000000780000000000009F
:1001500000002A2B28000000000000000000000022
:10016000000000000029000000002C1E3420212285
:1001700024342627252E362D3738271E1F202122EE
:10018000232425263333362E37381F040506070867
:10019000090A0B0C0D0E0F10111213141516171857
:1001A000191A1B1C1D2F3130232D35040506070895
:1001B000090A0B0C0D0E0F10111213141516171837
:1001C000191A1B1C1D2F3130354C00DA0281FFD962
:1001D000F1DB20A4A62EAF00A0C000A1C800AED5C0
:1001E00080A81FD300408D14200000047F3F1F64AF
:1001F0003214643214783C1E1E140A0500AE050148
:100200000980A101850319012AB700150126B7004D
:10021000950175108100C0050C0901A10185041923
:10022000012AA002150126A002950175108100C0C7
:100230000660FF0961A1010962150026FF009520F3
:10024000750881020963150026FF00952075089145
:1002500002C005010906A101050719E029E71500FB
:100260002501950875018102950175088101050731
:10027000190029FF150026FF009506750881000565
:1002800008190129059505750191029501750391DC
:1002900001C009025B00030100A0FA09040000018B
:1002A000030101000921110100012240000705811D
:1002B0000308000A090401000203000000092111DB
:1002C0000100012222000705820320000107050327
:1002D00003200001090402000103000000092111AC
:1002E0000100012232000705840320000A120100E8
:1002F0000200000008545901000100010200011A27
:10030000034C0075006E0061006B006500790020F1
:10031000004D0069006E0069000000120379006F53
:1003200000690063006800690072006F000000044B
:100330000309042223252628292A2C2D2F30323385
:100340003536383A3B3D3E4042434547494A4C4E9C
:100350005051535557595A5C5E6062646668696BC8
:100360006D6F71737577797B7D7F81838587898ACE
:100370008C8E90929496989A9C9E9FA1A3A5A7A8D4
:10038000AAACAEAFB1B3B4B6B8B9BBBCBEBFC1C204
:10039000C3C5C6C7C9CACBCCCDCED0D1D2D2D3D497
:1003A000D5D6D7D7D8D9D9DADADBDBDBDCDCDCDCB5
:1003B000DCDDDDDDDDDCDCDCDCDCDBDBDBDADAD983
:1003C000D9D8D7D7D6D5D4D3D2D2D1D0CECDCCCB05
:1003D000CAC9C7C6C5C3C2C1BFBEBCBBB9B8B6B423
:1003E000B3B1AFAEACAAA8A7A5A3A19F9E9C9A98B3
:1003F000969492908E8C8A89878583817F7D7B7984
:10040000777573716F6D6B6968666462605E5C5A64
:100410005957555351504E4C4A4947454342403E27
:100420003D3B3A3836353332302F2D2C2A292826B9
:100430002523222B0014001A00080015001700E0E5
:100440000004001600070009000A00E1001D001B5F
:100450000006001900050000000000E300E20001B2
:10046000512C002A00130012000C0018001C00344C
:100470000033000F000E000D000B00E500380037C0
:100480000036001000110000000000E700E6000246
:1004900051280029001E001F00200021002200E03A
:1004A0000001000100010001000100E10001000164
:1004B0000001000100010000000000E300E2000173
:1004C000512C002A002700260025002400230001CB
:1004D0000001004F005200510050000100010001D6
:1004E0000001000100010000000000E700E600023A
:1004F00051280029001E021F02200221022202E0D0
:100500000001000100010001000100E100350201CD
:100510000001000100010000000000E300E2000112
:10052000512C002A0027022602250224022302352C
:1005300000310230022F022E002D00350231003032
:10054000002F002E022D0200000000E700E600024E
:10055000512800005C01000100010001000100C2FF
:100560005CC55CC75CC95C01000100C35CC65CC8BB
:100570005CCA5C0100010000000000E300E2000131
:10058000512C003F003E003D003C003B003A00453E
:10059000004400430042004100400001000100010E
:1005A0000001000100010000000000E700E6000279
:1005B00051280000AF000101010101010101010208
:1005C0000202020202020202030303030303030303
:1005D00004040404040404050505050506060606CE
:1005E00006070707070708080808090909090A0A8A
:1005F0000A0B0B0B0C0C0C0D0D0D0E0E0E0F0F0F2E
:1006000010101111111212131314141515161617B8
:1006100017181819191A1A1B1B1C1D1D1E1E1F2026
:1006200020212222232424252626272829292A2B73
:100630002C2D2D2E2F303132323334353637383998
:100640003A3B3C3D3E3F4041424344454647484992
:100650004A4C4D4E4F50515354555658595A5B5D64
:100660005E5F616264656668696B6C6D6F70727302
:100670007577787A7B7D7E8082838587888A8C8E69
:100680008F91939596989A9C9EA0A2A3A5A7A9AB9B
:10069000ADAFB1B3B5B7BABCBEC0C2C4C6C9CBCD8D
:1006A000CFD1D4D6D8DBDDDFE2E4E7E9EBEEF0F33F
:1006B000F5F8FAFDFFFFAA7F55400001020304058B
:1006C0000B0A0908070611241FBECFEFDAE0DEBFD0
:1006D000CDBF04B603FE27C08091070590910805A1
:1006E000A0910905B0910A058730904BA740B04B07
:1006F000D1F4109207051092080510920905109286
:100700000A0514BE84B7877F84BF0FB6F894A895F6
:1007100080916000886180936000109260000FBE3D
:10072000E0E0F8E3099511E0A0E0B1E0E2E8FCE5E3
:1007300002C005900D92AC3CB107D9F725E0ACECB6
:10074000B1E001C01D92A730B207E1F70E94DC0AB8
:100750000C943F2E0C9400001F93CF93DF93CDB7E2
:10076000DEB767970FB6F894DEBF0FBECDBF4B8BD9
:100770005C8B6D8B7E8B8F8B61111092BC0486E03D
:100780009E01235F3F4FD901E82F1D92EA95E9F7BB
:1007900095E0FE017396D90101900D929A95E1F7CB
:1007A0009C894E895F897B897D879E876F87598B5E
:1007B000488BF901DE01179601900D928A95E1F7B9
:1007C000CE0107960E94A41E81113EC086E0FE0164
:1007D0003796DE01119601900D928A95E1F7FF811F
:1007E000E8856A857B856115710531F0EF3F31F44D
:1007F00081E0FF3F19F403C081E001C080E080FD8B
:1008000023C02091880430E0C901019687709927A0
:100810004091B90450E08417950779F1F983EA8390
:100820007D836C8396E0929FD001939FB00D11243D
:10083000A757BB4FFE01319601900D929A95E1F7B3
:10084000809388040E94C61D16E08091B90490919F
:1008500088048917F9F0189FC001112487579B4F0E
:100860000E94A41E8823B1F08091B90490E0019603
:10087000877099278093B904E8CF0E94E1201092F5
:1008800088041092B904E2E8F4E086E0DF011D92EA
:100890008A95E9F767960FB6F894DEBF0FBECDBF15
:1008A000DF91CF911F9108953F924F925F926F9287
:1008B0007F928F929F92AF92BF92CF92DF92EF92F0
:1008C000FF920F931F93CF93DF93CDB7DEB7299796
:1008D0000FB6F894DEBF0FBECDBFFC0180819181C1
:1008E00023813481232B31F09F3F31F491E08F3FFE
:1008F00019F403C091E001C090E090FD45C67F016E
:1009000085E0DE01119601900D928A95E1F7F701DD
:10091000228189819A81222349F00E943C1E182F4E
:10092000682F89819A810E94722003C00E9445200D
:10093000182F69817A81812F0E940B258C01F70184
:100940008281882309F4F2C0980122513F45203169
:10095000310508F019C18FEF93E00E94462D8111F7
:10096000EFC0025137EA832E99249394002379F043
:100970008114F4E09F0609F4E3C0C4010E94462DEF
:10098000811101C001502FEF821A920AEFCF1E820F
:100990001F8218861986442443942AE0322E84014B
:1009A0000F5F1F4FC4010E94462D8E831F82882334
:1009B00009F4C6C09FEF980F933060F48F834E8286
:1009C00032E0830E911CC8010E94462D8887811158
:1009D00002C0B6C048018E010A5F1F4FF801208196
:1009E0002223E9F2213009F04CC08181813049F4A1
:1009F0006801F2E0CF0ED11CF80182810E94012132
:100A00000AC0823051F46801F2E0CF0ED11CF80127
:100A100082810E946529860186C0833049F468017D
:100A2000F2E0CF0ED11CF80182810E940929F3CF98
:100A3000843019F00F5F1F4F76C0F80122810E5FDE
:100A40001F4F80E090E030E0205331092A3031051B
:100A500068F4389EA001399E500D1124C901840FFD
:100A6000951F0F5F1F4FF8012081EDCF009709F40C
:100A70005AC0EFE9FFE03197F1F700C0000001979D
:100A8000F5CFE22FF0E0E65BFE4F5490822F869583
:100A90008695869590E0FC01E65CFE4F6490277099
:100AA000712C022E02C0759467940A94E2F7F1E06B
:100AB0006F227724FC01E65DFE4FA490B12C022E3C
:100AC00002C0B594A7940A94E2F731E0A322BB24B4
:100AD000FC01E65EFE4FC490D12C02C0D594C794B1
:100AE0002A95E2F781E0C822DD246114710419F02F
:100AF00081EE0E946529A114B10419F086EE0E94CE
:100B00006529852D0E940121AB2819F086EE0E94EF
:100B10000929672819F081EE0E940929CD2819F0CA
:100B20008CE20E9401210F5F1F4F58CF00313FE53B
:100B3000130709F053C481E00E94A9200E94991173
:100B40008091BA04877009F41FC5F7018281882358
:100B500009F41AC582E029960FB6F894DEBF0FBEDD
:100B6000CDBFDF91CF911F910F91FF90EF90DF905C
:100B7000CF90BF90AF909F908F907F906F905F903D
:100B80004F903F900C94B5200031FFE51F0711F402
:100B900081E005C001312FE5120721F482E00E94B7
:100BA000D220CCCF033FFCE51F0749F406E221EE3B
:100BB00040EE63EF7CE5C7010E947D25C1CF043F75
:100BC0002CE5120708F049C1083D3CE5130731F454
:100BD00007E225EE45EE68ED7CE5EDCF093D9CE5AD
:100BE000190731F408E221E045EE69ED7CE5E3CF39
:100BF000073DECE51E0731F406E221EE41EE67ED1C
:100C00007CE5D9CF882309F45DC11092F504023048
:100C10009CE5190708F440C10631ECE51E0730F0E9
:100C2000C8018A5F9C45099708F036C10E94211BC4
:100C30009093D0018093CF010031FCE51F0709F4A8
:100C4000C3C008F041C008303CE5130709F49AC05E
:100C5000F0F404309CE5190709F487C068F4023009
:100C6000FCE51F0709F477C003301C4509F0E5C017
:100C70008091CF01826076C006303CE5130709F40D
:100C80006EC008F07BC08091CF0188606BC00C30D3
:100C90009CE5190709F485C068F40A30FCE51F07D4
:100CA00009F474C008F079C00E94E1208091CF015E
:100CB000806858C00E303CE5130709F476C008F090
:100CC0007FC08091CF018BC00B3F9CE5190709F4D1
:100CD0004FC018F50331FCE51F0709F47DC078F417
:100CE00001313CE5130709F473C002311C4509F0DA
:100CF000A4C00E94E1208091CF018F7733C00531DD
:100D00009CE5190709F472C008F486C00A3F1C4527
:100D100009F093C08091D0013EC00F3F2CE512072F
:100D200009F45FC058F40D3F8CE5180709F444C07E
:100D300008F43FC08091D00182602DC00130EDE504
:100D40001E0709F475C008F45DC002301D4509F0A6
:100D500074C060E06EC08091CF01816003C080915B
:100D6000CF0180618093CF0168C08091CF0111C015
:100D70008091D00182608093D0015FC08091CF01CB
:100D80008062F0CF8091CF018064ECCF8091CF0161
:100D900088608460E7CF8160EECF8091CF018E7F45
:100DA000E1CF8091CF018D7FDDCF8091CF01877F13
:100DB000D9CF8091D00118C08091D0018D7FDBCF39
:100DC0008091CF018F7ECECF8091CF018F7DCACF12
:100DD0008091CF018F7BC6CF8091CF01877F8B7FA2
:100DE000C1CF8091D0018D7F8E7FC5CF8091CF0103
:100DF00082FB222720F991E0922790FB82F990FB59
:100E000083F9B0CF8091D001982F909591708E7F0B
:100E1000892B90FB81F9AFCF0E94E1208091CF0117
:100E200087FB222720F991E0922790FB87F99ACF40
:100E300061E08EE090E00E945A2D6091CF01109108
:100E4000D00184E090E00E945A2D612F82E290E070
:100E50000E945A2D0E94E12073CE053FFCE51F073A
:100E600031F406E221EE42EE65EF7CE5A4CE053FCB
:100E70002CE5120730F407E225EE44EE64EF7CE542
:100E80009ACE063F3CE5130709F0BCCE07E225EEFB
:100E900046EE66EF7CE58FCE06318CE5180721F52E
:100EA0008091BD048A7A91E009F490E09093CE019C
:100EB000882311F065E301C069E288E694E00E94AE
:100EC00025240FC00631ECE51E0709F040C08091D3
:100ED000CE01882309F489C265E388E694E00E9484
:100EE00018240E94711D2CCE0A359DE5190749F181
:100EF00058F40115FCE51F07B1F00E3D1C4509F043
:100F000042C00E943D1B1CCE0B353DE51307D9F0B6
:100F10000C351D45C1F58091D00182FB882780F9F1
:100F200091E0892711C00E94E1209FEFE4E3FCE0FB
:100F30009150E040F040E1F700C000000E940C1723
:100F4000FFCD81E001C080E00E94AC1D1CC08091FB
:100F5000BD0482720C3C3CE5130709F4F5C208F0AD
:100F600076C2063CECE51E0709F4DAC208F04DC271
:100F7000033C2CE5120709F4C9C208F038C2023C50
:100F80001C4509F499C2F7018281008111818823EF
:100F900049F0C8010E943C1ED82E682FC8010E944B
:100FA000722004C0C8010E944520D82EB8018D2DA2
:100FB0000E940B250E9498198C01982EF701B2808F
:100FC000A580A2949FE0A9228091BA04877099F02D
:100FD000BB2089F0812F807F803421F080E2800F58
:100FE000883048F082E00E94B5208091BA04877072
:100FF000DD24D3948111D12CC12EC2948FE0C8225C
:101000008C2D90E08C30910508F0B3C1FC01EA5AB8
:10101000FF4F0C94D22D812F807F1F70882311F0F9
:101020001295107FBB20B9F0112309F48EC180E224
:10103000800F883010F0911006C08091BD04182BED
:101040001093BD0405C08091BC04182B1093BC0400
:101050000E94711D7AC1802F0E940929112309F471
:1010600088C1005E1095083010F0911006C0809184
:10107000BD0418231093BD0405C08091BC0418233F
:101080001093BC040E94711D74C1812F807F1F705A
:10109000803211F01295107F992021F0F1E09F1617
:1010A00011F130C0BB20B1F0AA2081F021E0A212E2
:1010B0000DC08091D00182FD5CC180913A04182B53
:1010C000181709F456C110933A0453C180913A0499
:1010D000812B10C0AA2021F031E0A31609F449C1E8
:1010E0000E94A71B27C0BB2041F085E08A1508F4A9
:1010F00040C1812F0E94F7203CC194E09A1508F46A
:1011000038C118C0BB2049F0AA2099F3F7018581A6
:1011100080FF1BC18F708583ECCFAA2059F0093363
:1011200009F024C1FFEF27EE33E0F15020403040BA
:10113000E1F71AC1812F0E94EC201BC1812F8695F7
:101140008695837019F0813059F013C1BB2019F0D6
:10115000C801937002C080E090E00E9455240FC146
:10116000BB2019F0C801937002C080E090E00E949B
:101170003F2405C1812F8370A9F5B110FEC0402F17
:10118000429546954770440F440F802F8F7090E032
:101190009C01042E01C0220F0A94EAF704FF08C044
:1011A0008FE090E001C0880F4A95EAF7809501C072
:1011B00080E0169516951370123069F088F49091BE
:1011C0003B04113019F0822B892302C0922B892B0A
:1011D0000E94DD20D2C0822B90913B048927F8CF5A
:1011E000822BF6CFBB2019F0812F817001C086952C
:1011F000882309F4C2C0402F429546954770440F9A
:10120000440F802F8F7090E09C01042E01C0220FAC
:101210000A94EAF704FF08C08FE090E001C0880F4D
:101220004A95EAF7809501C080E0169516951370EF
:10123000123059F078F490913804113019F0822B63
:10124000892309C0922B892B06C0822B90913804E8
:10125000892701C0822B0E949E208FC01F70BB2057
:1012600039F0812F0E94D220802F0E94F72085C064
:10127000802F0E94EC20812F0E94A9207EC0802F09
:1012800092EF991659F1991538F0E0EF9E1659F042
:10129000F1EF9F16F1F055C023EF921631F134EFC4
:1012A000931681F14EC0BB2079F084E08A1508F4D2
:1012B00060C01F7181E090E001C0880F1A95EAF7C5
:1012C0009091380489271BC095E09A1508F451C005
:1012D000F0CFBB2029F0812F8F7126C0BB20D9F31E
:1012E000812F8F710E94A92044C0BB2039F01F714B
:1012F00081E001C0880F1A95EAF701C080E00E94E2
:101300009E2037C0BB2099F01F71812F0E94D220F0
:101310008091D00182FD07C0E8E01E9FC00111242A
:1013200083608093BA04812F0E94D22022C081E082
:101330000E94B520F1E0FA15E0F482E00E94B520A9
:1013400018C0BB2031F0AA2031F2802F0E946529FD
:1013500010C0AA2029F2893349F42FEF37EE83E039
:10136000215030408040E1F700C00000802F0E94F3
:10137000092988EF8C0D843010F40E946B24DD2045
:1013800009F402C18091BA0480FDFEC0F701128207
:101390008595859585950E94D220C7010E945404A9
:1013A0008091BA0485958595859529960FB6F89410
:1013B000DEBF0FBECDBFDF91CF911F910F91FF9088
:1013C000EF90DF90CF90BF90AF909F908F907F90E5
:1013D0006F905F904F903F900C94A92001319FE552
:1013E000190709F0DFCB82E0A7CB69E276CD043C98
:1013F0009CE5190709F48FC0053C1C4509F0C3CDD5
:101400004DE858E266E978E2A3C0093CFCE51F0715
:1014100009F490C070F4073C3CE5130709F485C05B
:10142000083C1C4509F0AFCD41E858E265E778E299
:101430008FC00A3CECE51E0709F481C00B3C1C453B
:1014400009F0A1CD42ED56E263EE76E281C0013DA6
:101450002CE5120709F488C098F40E3C8CE51807B7
:1014600009F47CC008F477C00F3CECE51E0709F4D2
:1014700078C0003D1C4509F086CD6EE089E07CC057
:10148000043D2CE5120709F475C060F4023D8CE5BB
:10149000180709F46CC0033D1C4509F074CD61E0E8
:1014A00088E16FC0053DECE51E0709F468C00D3505
:1014B0001D4509F445CB67CD8091E80480FF20C02D
:1014C0008E7F8093E8046091E8047091E904809134
:1014D000EA049091EB040E94C0260E947625809138
:1014E000C00481608093C0042FEF30E782E0215078
:1014F00030408040E1F700C000000E940B2620CB66
:1015000081608093E80461E086953BC046EF58E235
:101510006FEF78E21DC04FEF58E266EF78E218C037
:1015200046E958E26DE878E213C045E758E261E821
:1015300078E20EC04DE558E269E678E209C049E676
:1015400058E26DE578E204C043EE56E262ED76E2E1
:101550000E947025F5CA61E081E013C065E082E079
:101560000BC068E086E008C064E18FE005C067E179
:1015700085E102C062E289E10E945E25E1CA61E084
:1015800083E20E94B628DCCA29960FB6F894DEBF23
:101590000FBECDBFDF91CF911F910F91FF90EF90C4
:1015A000DF90CF90BF90AF909F908F907F906F9083
:1015B0005F904F903F900895CF93DF93CDB7DEB704
:1015C000AC970FB6F894DEBF0FBECDBF84B7877F50
:1015D00084BF0FB6F894A8958091600088618093CD
:1015E0006000109260000FBE90E080E80FB6F894A3
:1015F00080936100909361000FBE85B7806885BFBE
:1016000085B7806885BF85E697E19093CD0180938B
:10161000CC010E94FA140E9419158091E2008460A6
:101620008093E200789480912E048823A1F0109199
:10163000E9001F709091EC00892F817090FD80E887
:10164000182B1092E9008091E80083FD0E94E411BC
:101650001F701093E90082E084BD93E095BD9AEF7E
:1016600097BD80936E001092FC041092FD041092BE
:10167000FE041092FF040E944525811102C00E94C1
:1016800036250E945E198093000180910001882315
:1016900021F010923E0186E003C086E080933E0177
:1016A00080933F010E945E1981110E946D2B8091F1
:1016B000000180910001882311F090E001C094E0C6
:1016C0009093DA0184E0891B8093D9010EE411E044
:1016D00072E5E72E71E0F72ED8018D918D018F3FD5
:1016E00011F00E948119E016F106B1F706E511E04C
:1016F0006CE5E62E61E0F62EF80181918F018F3FB7
:1017000011F00E948119E016F106B1F7E1EDF1E068
:10171000A2E1B4E011921D9221E0E93DF207D1F778
:101720000E94321B811102C00E943D1B82E090E0AA
:101730000E94462D809309040E94211B9093D001A2
:101740008093CF010E94AD1B8FE39CE90197F1F7D5
:1017500000C000000E94AD1B8091120480FF08C0F1
:101760006FEF7FEF80E090E00E94782D0E940C17D1
:1017700083E090E00E94462D0E94DD200E945E19C9
:10178000811102C00E94702B1092020480E88093A5
:10179000E1010E94012A6DE070E08DED91E00E9470
:1017A000BB11892B09F03FC08091020463E070E017
:1017B00081FD36C08AED91E00E94BB11892B99F51D
:1017C0006DE070E08AEC91E00E94BB11892B59F525
:1017D0000E94B323DC01CB01805A9541AF4FBF4F2C
:1017E0008093ED049093EE04A093EF04B093F00483
:1017F00080E092E0E2E0F2E0DF019C011D922150E6
:101800003040E1F78FEF9FEF90930504809304043D
:1018100081E08093F2048093F1041092030403C0EA
:1018200087ED91E0C9CF8091DB01811138C00E9422
:10183000321B811104C00E943D1B0E94F42688E0E7
:1018400090E00E944E2D6093E8047093E904809329
:10185000EA049093EB048091C00483608093C004F9
:101860006E7F71F40E94F42688E090E00E944E2D75
:101870006093E8047093E9048093EA049093EB0486
:101880000E94AD260E9476258091E80480FF04C066
:1018900060E086950E94B62881E08093DB0181E0BC
:1018A00091E09093F9048093F804CE0101967C01B5
:1018B0001E019BE0290E311C80912E04853009F019
:1018C00067C0DD24D39400E112E180912E048530BD
:1018D00009F049C080912E04843009F433C00E947D
:1018E00076258091DD01811109C0D092DD018091C2
:1018F000E80481708093DC010E949F28109200050B
:10190000A8E1B0E0E0E40FB6F894A895A0936000D9
:101910000FBEE093600083B7817F846083BF83B78D
:10192000816083BF7894889583B78E7F83BF0FB61D
:10193000F894A8958091600088618093600010926F
:1019400060000FBE80912D04882309F4BECF0E9451
:10195000AD1BE2E1F4E08191811116C424E0EA318B
:10196000F207C9F7B2CF0E94E1200E946B241092C7
:10197000DD018091DC01882349F08091E8048160D9
:101980008093E80460E086950E94B6280E94F025C6
:101990000E94AD1BB82E81110E94B323EAE0F4E04F
:1019A000A2E1B4E000E010E0902EAD9081918A2594
:1019B00049F1C12CDD24D394982F9D21F1F00E9490
:1019C0005E19882399F0C9A29AA2AD2081E009F49A
:1019D00080E08BA30E94BF238160782F9DA38CA3FE
:1019E00049A15AA16BA18DA10E94AC03F801E65F49
:1019F000FB4F8081D826D0821AC0C394DD0C36E01C
:101A0000C312DACF0F5F1F4F0830110569F68FEF51
:101A10008EA38FA318A60E94BF238160782F9AA758
:101A200089A74EA15FA168A58AA50E94AC038091F9
:101A3000BF04882309F4BDC08091BE04E091E8048E
:101A4000E695E81BE0930305823059F4F0E0E85096
:101A5000FE4FE4910E2F10E05FE9852E53E2952EA4
:101A600059C0863059F4F0E0EB50FE4FE4910E2F50
:101A700010E04FE8842E43E2942E4CC0893061F48C
:101A8000E695F0E0EE50FE4FE4910E2F10E034E1C9
:101A9000832E33E2932E3EC08F3061F4E695F0E062
:101AA000E151FE4FE4910E2F10E028E7822E22E252
:101AB000922E30C0853159F4F0E0E451FE4FE491AC
:101AC0000E2F10E092EF892E91E2992E23C08831DB
:101AD000A1F0833249F4EAEEF1E0059114918FE42C
:101AE000882E83E2982E16C0843271F000ED17E044
:101AF000BFE18B2EB1E29B2E0DC008E210E0AFE5F6
:101B00008A2EA1E29A2E06C004EF11E0F0E28F2E99
:101B1000F1E29F2E80910405882361F01092040564
:101B20000E940F24909302058093010510920605F0
:101B3000109205050E940F24E0910105F091020525
:101B40009C012E1B3F0B2F3F3F4798F52091E00152
:101B50002223B1F01092E0012091DE013091DF01EB
:101B6000821B930B8F3F9F4758F4205D3A48309378
:101B7000DF012093DE018091C00488608093C0045F
:101B8000C0900505D09006050E0F1F1F109302058B
:101B90000093010581E095E0F40109958091050528
:101BA00090910605892B29F4CD2819F081E08093C6
:101BB000E0018091F204882309F421C18091060498
:101BC000909107040E945617C29730F00E94BF23DD
:101BD00090930704809306048091F204882309F40B
:101BE000E3C020910404309105042115310509F466
:101BF000DBC0809103048111D7C0482E512CCC2426
:101C0000C394D12C082E02C0CC0CDD1C0A94E2F740
:101C1000A9014C215D21452B11F48F5FEECF9091EE
:101C20000204920175E0220F331F7A95E1F790FDCF
:101C300012C08295880F807680930D01220F232F8A
:101C4000221F330B319520931001815E80930E018A
:101C50001092110112C055E0369527955A95E1F77B
:101C6000220F220F220F20930D0110921001295FE5
:101C700020930E0183E08093110124E630E047E0D9
:101C800050E06BE071E088E70E94B82A892B09F0E8
:101C90008BC08091020480FD23C0C20145E0880F03
:101CA000991F4A95E1F7AC014E5F5D4F04E610E0E5
:101CB00020E230E060E488E70E94DF2A892B09F007
:101CC00073C00E947B24C094D094809104049091AE
:101CD0000504C822D922D0920504C092040464C02D
:101CE00080E2E2EEF1E0DF011D928A95E9F735E04E
:101CF000440C551C3A95E1F7E0E6F1E0FCA7EBA7B0
:101D00006CE571E0ABA5BCA58D91BCA7ABA7FB01B1
:101D10009191BF01A201490F511D4E5F5D4F90E0AF
:101D20008E519E4FFC0127E0922E9F01281B390BFC
:101D30007724739401C0770C2A95EAF78A01812CE5
:101D4000D801AD908D01A720292D28192770622E6A
:101D5000022E000C330BBA2D01C0BB0F6A94EAF7B8
:101D60006B2E3195219531092770332701C0A69438
:101D70002A95EAF76A28A0806A286082839428E07E
:101D80008212DECF9A9431963FEF9312CECF8BA57D
:101D90009CA58456914009F0B5CF04E610E020E2FE
:101DA00030E042EE51E086CF8091F104882339F192
:101DB0000E94B3230091ED041091EE042091EF04F2
:101DC0003091F004DC01CB01801B910BA20BB30B13
:101DD0008F3F9F4FAF4FBF4790F48091F20488230D
:101DE00071F08091F104882351F062E070E08CEF93
:101DF00091E00E94BB11892B11F41092F104B110F3
:101E00000E947B240E946B2490910804891721F082
:101E10000E946B248093080480912E04843009F082
:101E20004BCD83E08093E9008091E80082FF44CDB0
:101E30008091E80085FF23C00E944F1681111DC0CC
:101E400080E2C82ED12C8E010F5F1F4F09C08091F8
:101E5000F100D8018D938D01B1E0CB1AD10869F062
:101E60008091E80085FDF3CF8091E8008B77809327
:101E7000E8000E944F16882399F391E001C090E09A
:101E80008091E8008B778093E800992309F414CDC2
:101E9000E9818E2F90E0FC013197E331F10508F0E4
:101EA0004BC1EE59FF4F0C94D22D1A8289E0A5C088
:101EB0008A81823009F47EC1833051F0813009F08B
:101EC0003BC10E94B3239B838C837D836E8336C189
:101ED000FE013396A2E1B4E08D9181932E163F0668
:101EE000D9F72CC18A81823009F026C16B817C81AF
:101EF0008D819E810E94D82D86E290E024C04C8185
:101F00006B818A810E94E5249D835BC10D811E81C6
:101F10001027012710278C81CB809A81ECE0CE9E80
:101F200060011124F0E69F9FC00CD11C1124C80E43
:101F3000D11CC80ED11C612FC60187960E945A2D54
:101F4000602FC60188960E945A2DF8C00E94B124C5
:101F5000F5C08A818138B1F050F4803809F0EEC0C4
:101F600020E04B816091EA048091E90423C082382B
:101F7000E9F0833809F0E2C020E04091EB046C8185
:101F80008B8118C060E08B810E94B6288B81811103
:101F900003C00E949F28D2C08091E8048160809392
:101FA000E80460E086950E94B628C8C08B818093C3
:101FB000EC04C4C00E94BB27C1C08A81813899F05B
:101FC00030F4803809F0BAC08091EB0416C0823832
:101FD00091F0833809F0B2C08091E9048B8380913D
:101FE000EA048C83ABC08091E80480FF02C0869530
:101FF00004C080E002C08091EC048B839FC060919C
:10200000E8047091E9048091EA049091EB040E9445
:10201000C02694C080E14DC082E08A8389E5EDCF7F
:102020000A811B81102701271027AC80B12C670182
:10203000C80189559E4F96012E193F092A153B0567
:1020400008F07CC0093522E0120730F40E94462DCA
:10205000D60114968C9302C0F60114820F5F1F4FB5
:10206000FFEFCF1ADF0AE4CF0A811B811027012777
:102070001027AC80B12C6701C80189559E4F96018D
:102080002E193F092A153B0508F058C0093522E0F2
:10209000120728F4D60114966C910E945A2D0F5FF6
:1020A0001F4FBFEFCB1ADB0AE7CF0E94A12446C027
:1020B00084E08A8343C00A811B81102701271027EF
:1020C000AC80B12C6701C801879696012E193F0993
:1020D0002A153B0598F50038E1E01E0730F40E9410
:1020E000462DD60114968C9302C0F60114820F5F20
:1020F0001F4FFFEFCF1ADF0AE6CF0A811B8110279F
:1021000001271027AC80B12C6701C8018796960182
:102110002E193F092A153B0588F4003821E01207E3
:1021200028F4D60114966C910E945A2D0F5F1F4F10
:10213000BFEFCB1ADB0AE9CF8FEF898380912E04A2
:10214000843009F0B9CB1091E9001F709091EC0038
:10215000892F817090FD80E8182B82E08093E90040
:102160008091E80080FF0CC040E050E060E270E049
:10217000C7010E9482168091E8008E778093E80064
:102180001F701093E90098CB09BD19BD09B400FE7A
:10219000FDCF8091D8008F7D8093D8008091E000A2
:1021A00082608093E0008091E00081FDFCCF0E947E
:1021B000E1208BCB86E290E00E94462D1B821C82A0
:1021C0001D828E83BBCF8091300487FF11C0809128
:1021D000E80082FD05C080912E048111F8CF11C066
:1021E0008091E8008B770BC080912E04882349F002
:1021F0008091E80080FFF8CF8091E8008E7780938F
:10220000E8000895982F973068F59093E9009817A3
:1022100039F07091EC002091ED005091F00003C076
:10222000242F762F50E021FD02C09F5FECCF30912C
:10223000EB003E7F3093EB003091ED003D7F30931B
:10224000ED003091EB0031603093EB007093EC00C7
:102250002093ED005093F0002091EE0027FDE5CF94
:1022600080E008958F708093E90081E008952091C7
:102270003604309137042617370748F06115710589
:1022800039F42091E8002E772093E80001C0B901CD
:10229000FC0120E06115710579F180912E048823FD
:1022A000F1F18530F1F18091E80083FD3CC080912F
:1022B000E80082FD2EC08091E80080FFEBCF2091E6
:1022C000F3008091F20090E0922B6115710551F0BE
:1022D0008830910538F421912093F1006150710903
:1022E0000196F3CF21E0089709F020E08091E80003
:1022F0008E778093E800CECF2111CFCF0AC0809196
:102300002E04882361F0853061F08091E80083FD20
:102310000AC08091E80082FFF2CF80E0089582E059
:10232000089583E0089581E008950895809123043D
:10233000089580913804982F9670963011F4886033
:1023400001C0877F0C949E20FC01AC014C5F5F4F65
:102350008FEF91E32191822728E030E087FF03C0CF
:10236000880F892701C0880F21503109B9F7E41778
:10237000F50781F70895EF92FF920F931F93CF9384
:10238000DF93EC017B0164E670E088E70E94072A96
:102390008C01EC0EFD1ECE15DF0561F017FD0AC0A5
:1023A000FE01849164E670E00E94882A8C012196E7
:1023B000892B89F30E940C2BC801DF91CF911F91CB
:1023C0000F91FF90EF9008951F93CF93DF93CDB7B8
:1023D000DEB7AA970FB6F894DEBF0FBECDBFE0E31D
:1023E000F4E08091F100819344E0E833F407C9F709
:1023F00080913104833009F462C030F4813071F08F
:10240000823009F49CC0B3C08A3009F488C08B3094
:1024100009F46DC0893009F0AAC020C08091300451
:10242000813A09F0A4C08091E800877F8093E8009A
:102430008091340490913504892B21F468E084E282
:1024400094E003C060E080E090E070E00E9437110B
:102450008091E8008B778093E80089C080913004F8
:10246000813209F084C08091340490913504009742
:1024700019F0029709F07BC08091E800877F809374
:10248000E8008091E80082FD05C080912E04811152
:10249000F8CF6DC02091F3008091F20090E0922B74
:1024A000029729F48091F1008B7F813021F4809193
:1024B000F100809323048091E8008B7754C08091D1
:1024C0003004813A09F053C080913404909135046E
:1024D000892B09F04CC08091E800877F8093E80049
:1024E0008091E80080FFFCCF8091120137C080917D
:1024F00030048132E1F58091340490913504892BC8
:10250000B1F58091E800877F8093E8000E94E31096
:1025100080913204809312010E94E12028C08091B2
:102520003004813221F58091E800877F8093E800B4
:102530000E94E310809133048093220418C080919C
:102540003004813AA1F48091E800877F8093E8000D
:102550008091E80080FFFCCF809122048093F100FD
:102560008091E8008E778093E8000E94E3108091CC
:10257000E80083FFDDC18091300490913104492F40
:1025800050E04A30510508F0D3C1FA01EB58FF4F33
:102590000C94D22D803821F0823809F0C9C108C0CE
:1025A00080912C0490912D04992389F082600FC0B2
:1025B000809134048F70873008F0BAC18093E900AD
:1025C0008091EB0085FB882780F91092E9009091BB
:1025D000E800977F9093E8008093F1001092F1005B
:1025E00070C1282F2D7F09F0A3C1882319F08230F4
:1025F00061F09EC180913204813009F099C193301D
:1026000009F080E080932D042EC080913204811166
:102610002AC0809134048F702FEF280F263008F0E5
:1026200087C18093E9002091EB0020FF1CC093300C
:1026300021F48091EB00806214C09091EB009061D6
:102640009093EB0021E030E0A90102C0440F551F38
:102650008A95E2F74093EA001092EA008091EB003D
:1026600088608093EB001092E9008091E800877FFA
:102670008093E8000E94E3105BC1811159C1109161
:1026800032041F778091E3008078812B8093E300F0
:102690008091E800877F8093E8000E94E31080919A
:1026A000E80080FFFCCF8091E30080688093E30026
:1026B000111102C082E001C083E080932E0438C172
:1026C0008058823008F034C12091320430913304B4
:1026D0002C3D53E0350779F583E08A838AE28983CC
:1026E0004FB7F894DE01139620E03EE051E2E32F6D
:1026F000F0E050935700E49120FF03C0E295EF70A3
:102700003F5FEF708E2F90E0EA3010F0C79601C067
:10271000C0968D939D932F5F243149F74FBF8091D1
:10272000E800877F8093E8006AE270E0CE010196BE
:102730000E943711B4C08091340490913504432F26
:10274000552743305105A9F068F44130510509F48B
:10275000FEC04230510509F0EBC08BE590E0E2E9A4
:10276000F2E04BC04132510529F14232510589F165
:10277000DFC0C901992781309105A1F058F0029777
:1027800009F0D6C0EFEFF2E0E4918E2F90E0EFEF8A
:10279000F2E030C0EFE2F3E0E4918E2F90E0EFE260
:1027A000F3E028C0EBE1F3E0E4918E2F90E0EBE161
:1027B000F3E020C08330910508F0BAC0880F991F5C
:1027C000FC01E359FE4F0190F081E02D89E090E09B
:1027D00014C08330910508F0ABC0FC01EE0FFF1F61
:1027E000E959FE4F0190F081E02DDC01AC59BE4F5C
:1027F0008C9190E0009709F49BC02091E800277F1E
:102800002093E800209136043091370428173907C7
:1028100008F4C90140E0009789F120912E04222399
:1028200009F43DC02530D9F12091E80023FD37C0DF
:102830002091E80022FD2FC02091E80020FFEBCF7F
:102840004091F3002091F20030E0342B009759F0D2
:102850002830310540F444914093F10031960197BE
:102860002F5F3F4FF3CF41E02830310509F040E0C2
:102870002091E8002E772093E800CDCF4111CDCFF5
:102880000AC080912E04882351F0853041F0809158
:10289000E80083FD04C08091E80082FFF2CF8091C0
:1028A000E8008B778093E80043C0803809F040C08F
:1028B0008091E800877F8093E80080912F048093C7
:1028C000F1008091E8008E77D3CE811131C08091E4
:1028D0003204909133049927029754F58091E800CF
:1028E000877F8093E8001091320410932F040E9498
:1028F000E310111106C08091E30087FD02C081E062
:1029000001C084E080932E0442E061EC81E00E94EB
:10291000021142E261EC84E00E94021142E261ECA9
:1029200082E00E94021142E260EC83E00E94021108
:102930008091E80083FF10C08091E800877F80933A
:10294000E8008091EB0080628093EB0005C082E19B
:1029500090E0EDEEF2E051CFAA960FB6F894DEBF0C
:102960000FBECDBFDF91CF911F9108951F920F929F
:102970000FB60F9211242F933F934F935F936F9352
:102980007F938F939F93AF93BF93CF93DF93EF93F7
:10299000FF93C091E900CF708091EC00D82FD170E7
:1029A00080FDD0E81092E9008091F000877F80934D
:1029B000F00078940E94E4111092E9008091F000F8
:1029C00088608093F000CD2BCF70C093E900FF9119
:1029D000EF91DF91CF91BF91AF919F918F917F91B7
:1029E0006F915F914F913F912F910F900FBE0F907C
:1029F0001F901895E8EDF0E080818E7F8083109223
:102A0000E2001092DA001092E100A0EEB0E08C91AA
:102A100081608C9380818F77808319BCA7EDB0E0B3
:102A20008C918E7F8C9380818F7E80831092210485
:102A30000895CF92DF92EF92FF920F931F93CF935F
:102A4000DF93C8EDD0E088818F7E8883E7EDF0E0EA
:102A500080818160808384E082BF81E08093210453
:102A600088818E7F888302EE10E0F8011082109238
:102A7000DA0081EEC82ED12CF601108288818F7782
:102A8000888388818068888388818F7D888319BC4A
:102A900010922E0410922F0410922D0410922C04E8
:102AA00090EEE92EF12CF70180818B7F8083888165
:102AB0008160888342E060E080E00E940211F601BC
:102AC00080818E7F8083F801808181608083808116
:102AD00088608083F70180818E7F80838881806118
:102AE0008883DF91CF911F910F91FF90EF90DF903E
:102AF000CF9008951F920F920FB60F9211242F932B
:102B00003F934F935F936F937F938F939F93AF9375
:102B1000BF93EF93FF938091E10082FF09C0809102
:102B2000E20082FF05C08091E1008B7F8093E1008D
:102B30008091DA0080FF2AC08091D80080FF26C0F3
:102B40008091DA008E7F8093DA008091D90080FF37
:102B500018C080E189BD82E189BD09B400FEFDCFC6
:102B600081E080932E048091210481110FC00E9486
:102B7000FA140E9419158091E20084608093E200AB
:102B800005C019BC10922E04109221048091E1001E
:102B900080FF17C08091E20080FF13C08091E200A7
:102BA0008E7F8093E2008091E20080618093E2005A
:102BB0008091D80080628093D80019BC85E0809312
:102BC0002E048091E10084FF2EC08091E20084FFFA
:102BD0002AC080E189BD82E189BD09B400FEFDCF34
:102BE0008091D8008F7D8093D8008091E1008F7E06
:102BF0008093E1008091E2008F7E8093E2008091DB
:102C0000E20081608093E20080912F04882311F01C
:102C100084E007C08091E30087FD02C081E001C02D
:102C200083E080932E048091E10083FF27C0809190
:102C3000E20083FF23C08091E100877F8093E10061
:102C400082E080932E0410922F048091E1008E7F09
:102C50008093E1008091E2008E7F8093E20080917A
:102C6000E20080618093E20042E060E080E00E9448
:102C700002118091F00088608093F000FF91EF9145
:102C8000BF91AF919F918F917F916F915F914F9184
:102C90003F912F910F900FBE0F901F90189520918C
:102CA000E4003091E50095E64091EC00842F8170BE
:102CB00040FF23C08091E80080FD1DC080912E045C
:102CC000882399F0853099F08091EB0085FD11C043
:102CD0004091E4005091E5002417350729F3915005
:102CE00011F09A01E1CF84E0089582E0089583E035
:102CF000089581E0089580E008954091E80042FF42
:102D0000DDCF0895EF92FF920F931F93CF93DF9340
:102D10007C018B010E944F16811119C0E70101153A
:102D20001105A1F08091E80085FD0AC08091E800BE
:102D30008E778093E8000E944F16882381F307C0A6
:102D400089918093F10001501109E9CF80E0DF9172
:102D5000CF911F910F91FF90EF90089590912E04C5
:102D6000943029F580931E047093200460931F040F
:102D70009093E9008FEF9091E800815095FD06C097
:102D800095ED9A95F1F700008111F5CF8091E8005B
:102D900085FF0DC040E050E063E070E08EE194E01C
:102DA0000E9482168091E8008E778093E800089553
:102DB000BC0184E00C94AE16BC0183E00C94AE160A
:102DC000CF93DF9321E02093E9002FEF3091E800CB
:102DD000215035FD06C035ED3A95F1F7000021117F
:102DE000F5CF2091E80025FF14C0EC0140E050E051
:102DF00068E070E00E9482168091E8008E778093F0
:102E0000E80088E0FE01A4E2B4E001900D928A950A
:102E1000E1F7DF91CF91089581E08093E00080E2B7
:102E20008093D8001092C9008FE19EE40197F1F7DA
:102E300000C0000087E090EBDC01809307059093D1
:102E40000805A0930905B0930A059CE088E10FB638
:102E5000F894A895809360000FBE90936000FFCF18
:102E600078941F920F920FB60F9211248F939F9315
:102E7000AF93BF9380911A0490911B04A0911C04FE
:102E8000B0911D040196A11DB11D80931A04909369
:102E90001B04A0931C04B0931D04BF91AF919F919C
:102EA0008F910F900FBE0F901F9018959C014FB7F8
:102EB000F89480911A0490911B04A0911C04B09185
:102EC0001D044FBF821B930B089580E008959091DD
:102ED000CF0192FF0DC0282F2871283019F4877F69
:102EE000846006C0282F2471243011F48B7F886001
:102EF00093FF0DC0282F2871283119F4877E846133
:102F000006C0282F2471243111F48B7E8861209112
:102F1000D00120FF0DC0382F3871383019F4877F69
:102F2000816006C0382F3171313011F48E7F886096
:102F300021FF0DC0282F2871283119F4877E816167
:102F400006C0282F2171213111F48E7E886194FDF5
:102F5000877E0895AF92BF92CF92DF92EF92FF9259
:102F60000F931F93CF93DF937C015B016A018091E4
:102F700067048A3018F001E010E002C00AE010E0B7
:102F8000C1E0D0E0F894B501C701F6010995789445
:102F9000811115C021960C171D0794F0CC9F90014C
:102FA000CD9F300D300D112480E090E045E34A952F
:102FB000F1F70000019682179307C1F7E3CF81E094
:102FC000DF91CF911F910F91FF90EF90DF90CF9005
:102FD000BF90AF900895CF93DF93CDB7DEB728971A
:102FE0000FB6F894DEBF0FBECDBF85E0E8EEF4E08B
:102FF000DE01119601900D928A95E1F78091BE0451
:103000009091BF04A091C0048E839F83A8872885D8
:10301000409163045091640460916504709166046A
:103020003FB7F89480911A0490911B04A0911C045E
:10303000B0911D043FBF841B950BA60BB70B8436C4
:103040009105A105B10510F4222329F180913401E5
:10305000909135018E5A9B4F4091330150E0493099
:10306000510510F048E050E0BE016F5F7F4F0E94B5
:10307000362E83E090E00E947A2C892B11F080E0BC
:103080000DC00E94B3236093630470936404809323
:103090006504909366041092C00481E028960FB6F0
:1030A000F894DEBF0FBECDBFDF91CF910895CF93CF
:1030B000DF9300D000D0CDB7DEB740914E045091E1
:1030C0004F0460915004709151042FB7F89480918F
:1030D0001A0490911B04A0911C04B0911D042FBFF1
:1030E000841B950BA60BB70B84369105A105B10582
:1030F00080F10E94F423DC01CB010296A11DB11DD9
:1031000089839A83AB83BC8380912A0190912B01A0
:103110008E5A9B4F4091290150E04530510510F0E7
:1031200044E050E0BE016F5F7F4F0E94362E82E088
:1031300090E00E947A2C892B11F080E00BC00E9455
:10314000B32360934E0470934F0480935004909384
:10315000510481E00F900F900F900F90DF91CF916D
:103160000895EF92FF921F93CF93DF9300D000D08A
:103170001F92CDB7DEB77B0180E090E00E947A2CF1
:10318000892B09F065C04091180150E041155105A7
:1031900011F041E050E06091190170911A016E5AEE
:1031A0007B4FCE0105960E94362E40914A045091E5
:1031B0004B0460914C0470914D042FB7F8948091AA
:1031C0001A0490911B04A0911C04B0911D042FBF00
:1031D000841B950BA60BB70B84369105A105B10591
:1031E00038F483E594E00E94A4119D81891791F140
:1031F00081E090E00E947A2C892BA1F44091220179
:1032000050E04530510510F044E050E0609123015A
:10321000709124016E5A7B4FCE0101960E94362E8A
:1032200011E001C010E083E594E00E94A41191E058
:103230002D81281390E0192341F10E94B32360935C
:103240004A0470934B0480934C0490934D040FC038
:1032500010E001C011E08091530490915404A091BA
:103260005504B091560489839A83AB83BC831123A0
:1032700061F089819A81AB81BC81809346049093EF
:103280004704A0934804B093490480914604909168
:103290004704A0914804B0914904F70180839183C9
:1032A000A283B383812F0F900F900F900F900F90F8
:1032B000DF91CF911F91FF90EF9008958091450489
:1032C000811118C08091D80080618093D8008AE174
:1032D0008A95F1F700C08091D90080FD02C082E09C
:1032E00001C081E080934504823021F40E94FA14E9
:1032F00010922E0481E090914504913009F080E015
:103300000895F894E82FE295EF70F0E031A1282FAE
:103310002F7081E090E001C0880F2A95EAF7982F7E
:103320009095932391A392A1892B82A378940895D9
:10333000CF93DF938238910569F1B0F48133910521
:1033400009F46FC048F48932910509F465C08A32E6
:10335000910509F46BC08AC08533910509F457C003
:1033600089339105B9F082C0833E910571F138F43B
:10337000803E9105B1F0823E910511F177C0863E05
:103380009105B9F1873E9105C9F1843E910509F097
:103390006DC024C02091CF0120FD53C021FD51C03C
:1033A00065C08091CF0180FD46C08091D00180FF33
:1033B00048C08091CF0184FD3FC183EE90E03EC1C3
:1033C0008091CF0182FF3AC0F4CF8091CF0182FD7E
:1033D00035C08091D00180FD34C0EBCF8091D00109
:1033E00081FF35C08091CF0184FD26C187EE90E03A
:1033F00025C18091CF0183FF27C0F4CF8091CF01F9
:1034000083FD22C08091D00181FD21C0EBCF80914E
:10341000CF0185FD1FC021C08091CF0185FD1DC05A
:1034200019C08091CF0186FD1BC01DC08091CF01C6
:1034300086FD19C015C089E390E000C182EE90E0DE
:10344000FDC080EE90E0FAC086EE90E0F7C084EE1A
:1034500090E0F4C089E290E0F1C085E390E0EEC036
:103460008AE290E0EBC081E390E0E8C0811532E5AC
:10347000930708F069C0811541E5940728F0982F5B
:103480008827816F906ADAC0883E910568F5803E92
:10349000910508F0D3C0883A9105B8F4853A9105B2
:1034A00048F0855AE82FF0E0ED58FE4F808190E01B
:1034B0009064C4C08130910509F4BBC008F4BCC05D
:1034C0008430910508F4B8C0B9C08F3B910508F06D
:1034D000B3C0885AE82FF0E0EE0FFF1FEA58FE4F06
:1034E000808191819464AAC0811520E59207F0F053
:1034F0009C0174E0369527957A95E1F7922F9370A9
:10350000482F437021E030E002C0220F331F4A955C
:10351000E2F73C68392B8F70982F9695969540E28C
:10352000949FC0011124822B932B88C0811530E415
:10353000930718F09F70906A81C09C013A952115FD
:103540003F4108F47BC078C0EC01C11586E5D8077F
:10355000E8F5C11525E5D20748F08C2F0E946717C2
:103560008F7190E0982F8827906268C0C11534E56C
:10357000D30728F09C2F8827846F906A5FC0AE0124
:10358000437055272C2F26952695C115D34578F4E1
:1035900081E090E002C0880F991F4A95E2F740E26F
:1035A000249F90011124822B932B9C6847C081E0BB
:1035B00090E002C0880F991F4A95E2F740E2249FED
:1035C00090011124822B932B9A6838C0C1152AE5EB
:1035D000D207F8F4C11539E5D30790F08C2F8F701E
:1035E0000E94671794E0D695C7959A95E1F7CF703A
:1035F000D0E0DC2FCC27D0699E01282BC9011EC04A
:10360000C11548E5D407C0F09C2F8827806F906AC9
:1036100015C0CE0190568115904270F48D2F8F7198
:103620000E946717282F2F71CE0199279062922B45
:1036300005C081E090E002C080E090E0DF91CF9192
:103640000895CF9384E090E00E94462DC82F82E237
:1036500090E00E94462D2C2F30E0A901582BCA0182
:10366000CF91089580E090E00E94542D893E9E4FB6
:1036700011F40C94452580E0089569EE7EEF80E01A
:1036800090E00E94782D60E082E090E00E945A2D48
:1036900060E083E090E00E945A2D10923B0460E0CD
:1036A00084E090E00E945A2D60E082E290E00E9467
:1036B0005A2D60E085E090E00E945A2D60E086E09F
:1036C00090E00E945A2D6FEF87E090E00E945A2D03
:1036D00040E050E0BA0188E090E00E946C2D60E08C
:1036E0008DE090E00E945A2D40E050E0BA0188E160
:1036F00090E00E946C2D60E087E190E00E945A2DDE
:1037000040E050E0BA018CE190E00E946C2D60E056
:1037100070E080E290E00E94782D40E050E0BA0135
:1037200088E190E00E946C2D80E00E9418250E94A4
:10373000362540E050E0BA018FE090E00E946C2D09
:1037400040E050E0BA0183E190E00C946C2D809150
:103750003A04811110923A0408957F928F929F92B9
:10376000AF92BF92CF92DF92EF92FF920F931F938F
:10377000CF93DF93CDB7DEB72C970FB6F894DEBFAB
:103780000FBECDBFAE014F5F5F4F7A0188E0DA0117
:103790001D928A95E9F70EE411E06A0182E5882E10
:1037A00081E0982EAA24A394B12CF80180818F3F48
:1037B00009F448C0F894E82FE295EF70F0E021A1F9
:1037C0008F70A50102C0440F551F8A95E2F7CA0108
:1037D000922F982B91A392A18095892382A378940C
:1037E00000C0E6E5F1E020E030E0712C81918F3FF0
:1037F000B9F0A82FA295AF70B0E090964C9150E030
:103800008F70DA0102C0B595A7958A95E2F7A0FD01
:1038100007C08A2D022E01C0880F0A94EAF701C062
:1038200080E0782A2F5F3F4F26303105F9F6F80106
:1038300080818F3F11F00E948119F0EAFA95F1F72B
:10384000D6017C920F5F1F4FBFEFCB1ADB0A8016A9
:10385000910609F0AACF48E050E0B70181ED91E070
:103860000E94292E8C01892B41F088E0F701A1EDFF
:10387000B1E001900D928A95E1F7F090DA0101151F
:10388000110549F081E080933E040E94BF2390938C
:103890003D0480933C0480913E048823B9F08091DC
:1038A0003C0490913D040E945617059778F0A1EDD5
:1038B000B1E0EF2DF0E0EE5EFB4F85ED91E02D9154
:1038C00021938A179B07D9F710923E040115110521
:1038D00009F0F0C00E945E19E091DA01882309F432
:1038E0006AC019861A861B861C860E2F10E00E5E93
:1038F0001B4F809167048A3058F441EB58E1BE01B8
:10390000675F7F4FC8010E94AA17882311F10AC080
:1039100080913F04909140040E945617843F91404B
:1039200060F728C047E558E1BE01675F7F4FC801D7
:103930000E94AA17882369F04BEE57E1BE01675F2A
:103940007F4FC8010E94AA17882319F010926704BC
:103950001CC0809167048F3F19F08F5F80936704CC
:10396000809167048A3088F00E94BF2390934004BE
:1039700080933F04E091D901F0E0EE5EFB4F1082AE
:1039800011821282138201E097C0E091D901F0E028
:10399000EE5EFB4FDE0119969E01235F3F4F00E074
:1039A0008D919081981711F0808301E03196A217D4
:1039B000B307B1F781C0F0E0EE5EFB4FF89484E00E
:1039C000A3E5B4E001900D928A95E1F783E594E0D8
:1039D0000E94A411809352047894F894C0905704E4
:1039E000D0905804E0905904F0905A04809141041A
:1039F00090914204A0914304B0914404C816D906A2
:103A0000EA06FB06D1F0C0924104D0924204E09253
:103A10004304F09244040E945E1981110EC00E947A
:103A2000B323C61AD70AE80AF90AC092FC04D09256
:103A3000FD04E092FE04F092FF047894F8948091E3
:103A400062048823A9F180FF10C080915B0480FF8D
:103A50000AC09091E80491609093E80460E0869534
:103A60000E94B62802C00E949F288091620481FFB4
:103A700009C020E040915E0460915D0480915C0487
:103A80000E94BB278091620482FF09C0809161047B
:103A9000882319F00E94F02502C00E9476258091AB
:103AA000620483FF03C081E08093040510926204E6
:103AB000789402C001E010E0802F2C960FB6F894A5
:103AC000DEBF0FBECDBFDF91CF911F910F91FF9051
:103AD000EF90DF90CF90BF90AF909F908F907F90AE
:103AE00008959091BD048091BC04892B2091BB0462
:103AF000982F922B9093680480913A04882389F040
:103B0000892B80936804EAE6F4E097E080E0915026
:103B100029F021912223D9F38F5FF9CF81110E94DF
:103B2000A71BE091F804F091F904309731F002807E
:103B3000F381E02D88E694E00994089580E090E018
:103B40000E94552480E090E00E943F241092BC0423
:103B50001092BB040C94711DCF93C091D001C2FB95
:103B6000992790F9981781F080FBC2F9C093D00192
:103B70006091CF0184E090E00E945A2D6C2F82E288
:103B800090E0CF910C945A2DCF9108958091B90473
:103B900090918804891719F08F5F8770FBCF089583
:103BA0000F931F93CF93DF938091870482958F703B
:103BB00009F05DC080918404882309F458C0809185
:103BC000B904109188046091820470918304C091BB
:103BD0008504D091860491E06F3F09F090E0292F91
:103BE00006E0811709F443C0209721F07F3F21F0C0
:103BF00030E003C031E001C0322F90E030FD34C02E
:103C0000089FF001099FF00D1124DF01A757BB4F5A
:103C100011963C911197371327C03C91361324C05D
:103C200012963C91129731111FC013964D915C91E1
:103C300014974C1B5D0B483C5105B0F480918704F0
:103C40008F70806180938704E257FB4F80818F7073
:103C50008061808382E894E00E945404DF91CF91D8
:103C60001F910F910C94C61D01968770BACFDF91FA
:103C7000CF911F910F910895CF92DF92FF920F93F2
:103C80001F93CF93DF936C010091380480913B0424
:103C9000082BC7E0D0E010E0C8010C2E02C09595BB
:103CA00087950A94E2F780FD04C02197A8F7F12CCC
:103CB00009C0FC2EB6018C2F0E940B250E9498197A
:103CC000019799F38F2DDF91CF911F910F91FF9065
:103CD000DF90CF900895CF93DF93EC010E943C1EBC
:103CE000BE010E940B250E949819DF91CF91089583
:103CF000FC01808191810E946B1E292F2F70E92F7A
:103D0000E295EF704E2F50E0FA013297EE30F10558
:103D1000B8F4E158FF4F0C94D22D803F99F018F47D
:103D2000883E70F40FC0843F59F40CC0883E50F0B8
:103D3000813F31F407C0822F869586958695089538
:103D400080E0089581E008959F92AF92BF92CF9254
:103D5000DF92EF92FF920F931F93CF93DF93CDB734
:103D6000DEB761970FB6F894DEBF0FBECDBF8C01F2
:103D700085E0F801DE011D9601900D928A95E1F72C
:103D8000F801E2809091820460918304409185045F
:103D9000509186044115510531F06F3F31F481E0B7
:103DA0009F3F19F403C081E001C080E0F82FF1705B
:103DB0009F2E80FD1AC1F80130812181C380D480FB
:103DC00082E8A82E84E0B82EF0908404F601E41B6B
:103DD000F50BFF2009F4C6C080918704E83CF1058B
:103DE00008F091C0482F407F09F050C0621311C005
:103DF00093130FC0FE2CE1100CC08F708061809374
:103E00008704C5010E94540480918704F8018583CA
:103E100029C1CD2831F02F3F31F481E03F3F19F423
:103E200003C081E001C080E080FD03C081E08E25F9
:103E300002C080E090E0F82FF170FF2E80FF1CC0E0
:103E40008091B9044091880456E0841709F4E8C0D1
:103E500090E0589FF001599FF00D1124E757FB4F58
:103E60006181261306C06081631303C06281E6127C
:103E700003C001968770E9CFFE2CEE2009F4F2C052
:103E80008091870481608093870449C0621306C0D3
:103E9000931304C0E11002C0F80186C0C8010E945B
:103EA000781E882351F1EE2041F120918704822F62
:103EB00082958F7090E0029774F0809182049091C7
:103EC000830498878F831986DB86CA862C87CE0168
:103ED00007960E94540486E0F801A2E8B4E001903D
:103EE0000D928A95E1F70E94D01D0AC06217C9F0B1
:103EF000C8010E94781E81111EC0C8010E9454048E
:103F0000FF24F394AFC0482F407F81F782E894E00C
:103F10000E94540486E0F50111928A95E9F7F12C8C
:103F2000A1C09313E5CFE110E3CFF8018583C80169
:103F30000E94540454C0EE2001F320918704822F84
:103F400082958F7090E0029734F280918204909174
:103F500083049A8389831B82DD82CC822E83CE01E7
:103F60000196B7CFE83CF105D0F5FE2CEE2029F202
:103F7000621327C0931325C02091870420FD18C029
:103F8000822F82958F70482F50E04115510581F0A6
:103F9000F80125834F30510541F08F5F982F92959E
:103FA000907F822F8F70892B8583C8010E945404D3
:103FB00086E0F801A2E8B4E001900D928A95E1F75D
:103FC00051C0C8010E94781E811185CF809187045D
:103FD000816080938704C8010E94540443C086E036
:103FE000F50111928A95E9F73DC0EE2009F485CFDD
:103FF000C8010E94781EF82E882309F47ECF86E03F
:10400000F801A2E8B4E001900D928A95E1F7809161
:104010008204909183040E946B1E0E94D01D22C0D6
:104020003D872E878D859E850E946B1E292F2295A8
:104030002F70223028F49F7039F0811105C00BC019
:10404000243028F49F7049F4805E883020F0C80145
:104050000E9454049F2CF92C05C0F8019581907F93
:1040600099F7F9CF8F2D61960FB6F894DEBF0FBE8A
:10407000CDBFDF91CF911F910F91FF90EF90DF9017
:10408000CF90BF90AF909F900895292F220F920F4D
:10409000990F890F682F669566956695982F97708A
:1040A00083E0689FB001112440E050E080E0FB0114
:1040B000E40FF51FE059FB4F208130E0092E02C0CC
:1040C000369527950A94E2F721703327042E01C014
:1040D000220F0A94EAF7822B4F5F5F4F433051055E
:1040E00031F70895292F220F920F990F890FE82F8A
:1040F000E695E695E695877051E001C0550F8A95E3
:10410000EAF783E0E89FF0011124E059FB4F20E03B
:1041100030E070E04081CB01022E02C09695879579
:104120000A94E2F7817081958427852384278193FF
:104130002F5F3F4F2330310569F70895982F967010
:10414000963011F4886001C0877F809338040C9406
:104150009E1D21E030E001C0220F8A95EAF72095EC
:104160008091380482230C949E202091BA0480957B
:1041700082238093BA04982F977041F430E0482F3F
:10418000082E000C550B2417350721F49091D0010F
:1041900092FF07C08595859585950E94A92010926C
:1041A000BA04089521E030E001C0220F8A95EAF7B1
:1041B00080913804822B0C949E2080933B040C94B5
:1041C0009E1D1092BD0486E0EAE6F4E0DF011D9238
:1041D0008A95E9F70C949E1D882341F08095909173
:1041E000BD0489238093BD040C94711D0895882318
:1041F00039F09091BD04892B8093BD040C94711DFE
:1042000008951F93CF93DF93182F893319F0C0E0DF
:10421000D0E002C0C0E5D0E0812F0E946529209740
:1042200041F08FE99FE00197F1F700C0000021976E
:10423000F6CF812FDF91CF911F910C94092908951A
:104240000F931F93CF93DF93EC0100E010E0809178
:104250004201282F30E00217130724F59091400106
:104260009801290F311DA901440F551F240F351F37
:104270002C533B4F869590E04C81081719071CF48E
:10428000442331F002C0411103C04091EB0401C04E
:1042900040E06091EA048091E9040E940B270F5FDF
:1042A0001F4FD5CF0E940B268C8190E00196817024
:1042B00099278C83DF91CF911F910F9108958F9251
:1042C0009F92AF92BF92CF92DF92EF92FF920F93A5
:1042D0001F93CF93DF938C01FC014481C42FD0E066
:1042E0009E01DE010E94E72D9B01AC010E94FD2D85
:1042F0006B017C01E0E2F0E0EC1BFD0BA5E5B0E01A
:104300009B01AC010E94FD2D4B015C019F01DF016F
:104310000E94DF2D9B01AC010E94082E9B01AC0185
:104320002C0D3D1D4E1D5F1DC501B4010E94B02D19
:10433000C22FD22F2A3228F4F3E02F9F90011124AC
:104340000DC025E530E02C1B3109C901880F991FEC
:10435000280F391F37FF02C02F5F3F4F3595279534
:10436000C22FC095F12C85E5E82EED1A809142010F
:10437000F816C8F4F1FC02C08E2D01C08D2F90916B
:1043800040012F2D30E0290F311DA901440F551F89
:10439000240F351F2C533B4F4C2F6091EA040E9491
:1043A0000B27F394E3CF0E940B26F801848181113F
:1043B00002C091E003C0803219F49FEF90933D0159
:1043C00090913D01890FF8018483DF91CF911F9176
:1043D0000F91FF90EF90DF90CF90BF90AF909F90A4
:1043E0008F9008951F93CF93DF93EC018C818111FF
:1043F00009C081E08C831092C20492E090933C014A
:1044000080933B018091400190914101891770F4A4
:10441000E82FF0E09F01220F331FE20FF31FEC5350
:10442000FB4F1182108212828F5FF0CF10E06091FB
:1044300042011617C0F5E12FF0E070E0CF010E94B5
:104440009C2D20914001820F2091C204022E000C6D
:10445000330B90E0E217F307CCF020913C01022EE1
:10446000000C330B2E173F078CF09C01220F331FDB
:10447000820F931F9C012C533B4F4091EB046091A2
:10448000EA048091E9040E940B270BC0FC01EE0FA7
:10449000FF1F8E0F9F1FFC01EC53FB4F11821082F8
:1044A00012821F5FC4CF0E940B2680913B01209196
:1044B000C204280F2093C20490913C01980F90935E
:1044C0003C0119165CF4022E000C330B40914201A2
:1044D00050E0415051092417350734F081958093FD
:1044E0003B01813009F41C82DF91CF911F91089527
:1044F0007F928F929F92AF92BF92CF92DF92EF9274
:10450000FF920F931F93CF93DF93EC018A8180FF7B
:1045100003C0BB24BA9402C0BB24B3948C81811124
:104520000DC081E0B81206C0809142018150809395
:10453000C10402C01092C10481E08C83A12C4CE024
:10454000842E90904201A91408F041C0809140014E
:10455000CA2CD12C8601080F111DC801880F991F84
:10456000080F191F0C531B4FF80111821082128281
:1045700034E0E32EF12C712C8091C104870D8D3035
:104580002CF0682D0E948E2D892F02C087FD890D89
:10459000082E000C990BC816D90691F48091EB04F3
:1045A0008E9DA0018F9D500D1124559547955595D1
:1045B000479598016091EA048091E9040E940B27D5
:1045C0007B0CF1E0EF1AF108B9F6A394BACF0E9480
:1045D0000B268091C10491E0B9120EC0811107C071
:1045E0008091420181508093C1041C820FC0815090
:1045F0008093C104BC820AC090E0019660914201A0
:1046000070E00E949C2D8093C1048C83DF91CF9138
:104610001F910F91FF90EF90DF90CF90BF90AF90E0
:104620009F908F907F900895FF920F931F93CF9349
:10463000DF93EC01F12C0FEF10E060914201F616D0
:10464000F0F4809140012F2D30E0280F311DC90179
:10465000880F991F280F391F2C533B4F70E0C8015A
:104660000E949C2D962F8C814091EB046091EA046E
:10467000F99E800D11240E940B27F394DECF0E9437
:104680000B269A818C8190FF02C08F5F01C0815000
:104690008C83DF91CF911F910F91FF9008950F931D
:1046A0001F93CF93DF9300D01F92CDB7DEB78C015D
:1046B0008091C30481110AC09E012F5F3F4F4FEFCD
:1046C0006FEF0E940B278A818093C304F8018481D5
:1046D000813051F028F0823061F44091C3040AC067
:1046E0008091C30440E007C06091C30440E080E0D3
:1046F00003C040E080E060E00E949226F8018481DF
:1047000090E0019663E070E00E949C2D84830F90FE
:104710000F900F90DF91CF911F910F910895CF933C
:10472000DF93EC01E8EEF4E0438162818C810E942A
:10473000A1278C818F5F8C83DF91CF910895CF93D8
:10474000DF93EC01EC81F0E0ED5CFC4F4491E8EE8E
:10475000F4E0628181810E94A1278C818F5F8C832C
:10476000DF91CF9108952FB7F89460911A0470915A
:104770001B0480911C0490911D042FBF08952FB736
:10478000F89480911A0490911B04A0911C04B0919C
:104790001D042FBF08951F920F920FB60F92112480
:1047A0008F939F93AF93BF9380910005811113C0A6
:1047B00080911A0490911B04A0911C04B0911D04D7
:1047C0004196A11DB11D80931A0490931B04A093E0
:1047D0001C04B0931D04BF91AF919F918F910F90D6
:1047E0000FBE0F901F9018950F931F930E945E1994
:1047F000882321F01F910F910C94B3230E94B323BF
:104800000091FC041091FD042091FE043091FF04FE
:10481000600F711F821F931F1F910F9108950E94B7
:104820005E1981110C94BF230E94F423CB010895DB
:104830009C012A5F3F4FFC014281461301C0128256
:10484000019682179307B9F708959C01FC013296EF
:104850009FEF80E04191461789F09F3F19F4411185
:1048600001C0982F8F5F8630A9F79F3F39F0F9017B
:10487000E90FF11D97FDFA9562830895089520913F
:10488000FA043091FB042817390771F09093FB0468
:104890008093FA04E091F804F091F904309721F044
:1048A0000084F185E02D099408952091F60430915B
:1048B000F7042817390771F09093F7048093F604F2
:1048C000E091F804F091F904309721F00680F78127
:1048D000E02D099408950E945E19882351F0E0911B
:1048E000F804F091F904309721F00190F081E02D67
:1048F000099480E008958091F2048823F9F00E94E1
:10490000B323DC01CB01805A9541AF4FBF4F809359
:10491000ED049093EE04A093EF04B093F004809123
:10492000F10481110BC062E070E083EB95E00E941E
:10493000BB11892B19F481E08093F1048091F1047B
:104940000895CF93DF93C7EAD1E060E0CE010E94E3
:104950005A2D2196C11584E0D807B9F7DF91CF9180
:104960000895CF92DF92EF92FF920F931F93CF9310
:10497000DF93C0E0D0E08E01005A1F4F6E018CE043
:10498000C80ED11CFE01ED5CFB4FE590F4906F2D3D
:10499000CE0187960E945A2D6E2DCE0188960E94D8
:1049A0005A2D2296CC15DD0569F70C171D0731F736
:1049B000E80100381140F9F6DF91CF911F910F9176
:1049C000FF90EF90DF90CF9008950F931F93CF93B8
:1049D000DF93C42FD0E0CC0FDD1F2CE0629FC00D11
:1049E000D11D112430E6839FC00DD11D1124CE01AD
:1049F00087960E94462D082F10E0102F0027CE0129
:104A000088960E94462D9801282BC901DF91CF91ED
:104A10001F910F910895462F843038F4783028F490
:104A2000663018F4672F0C94E52480E090E0089538
:104A3000CF93C82F811102C06FEF01C061E283E202
:104A400090E00E945A2DC11102C06FEF01C069E0D1
:104A500084E290E00E945A2DC11102C06FEF01C0A4
:104A600065E285E290E0CF910C945A2D80E00E949F
:104A7000182560E086E290E00E945A2D0E94B12441
:104A80000E94A12481E00C94182583E290E00E940A
:104A9000462D813281F484E290E00E94462D8930D7
:104AA00051F485E290E00E94462D91E0853209F0B4
:104AB00090E0892F01C080E0817008959091E80412
:104AC00090FF04C09695981740F003C0811105C06F
:104AD00090E0961710F40C94FF2861E00C94B6282F
:104AE000882311F0FA0101C0FB010994EEEBF4E018
:104AF000118282818460828308950F931F93CF93E4
:104B0000DF93C42FD22FFC0182818823C9F0409308
:104B1000F5040E94BF239093F4048093F30480E291
:104B20008C0F883008F057C0C77081E001C0880F33
:104B3000CA95EAF7DF91CF911F910F910C94F7205E
:104B40008091F504481330C08091F3049091F404EF
:104B50000E945617883C910538F510E21D0FCD17BD
:104B6000B9F080E28C0F883040F4C77081E001C05A
:104B7000880FCA95EAF70E94EC20183028F581E0EA
:104B80009D2F977001C0880F9A95EAF70E94F72031
:104B9000802F0E9401211830F0F4D77081E001C00D
:104BA000880FDA95EAF70AC080E28C0F883098F413
:104BB000C77081E001C0880FCA95EAF7DF91CF91F5
:104BC0001F910F910C94EC20802FDF91CF911F91BA
:104BD0000F910C940121DF91CF911F910F910895B6
:104BE0006091E804669570E04BE050E083E491E06A
:104BF0000E941C2E892B19F481E08093BF040E942F
:104C00000F2490930205809301058091C004846075
:104C10008093C0040895CF92DF92EF920F931F9379
:104C2000CF93DF93CDB7DEB7A4970FB6F894DEBF6E
:104C30000FBECDBF60913F018091E80480FF0AC0A4
:104C4000EAEBF6E0AE014F5F5F4F8E010B5D1F4F49
:104C5000CA0114C08091400190914101891780F7E9
:104C6000E82FF0E09F01220F331FE20FF31FEC53F8
:104C7000FB4F1182108212828F5FF0CF249130E0BF
:104C8000D901AA0FBB1F2A0F3B1FD901AC53BB4F41
:104C9000CD90DD90EC90DA01CD92DD92ED92AD01F8
:104CA0003196A017B10751F720913E01FC01B3E006
:104CB0002B9FE00DF11D1124539A8BB1877F9BB17F
:104CC00098602FB7F894AF0133E0639F400D511DFA
:104CD0001124E417F50789F0319168E09BB90000D1
:104CE00000C037FF8BB9330F000000C000C000C008
:104CF0008BB900C06A9591F7ECCF2FBF8FE594E098
:104D00000197F1F700C00000A4960FB6F894DEBF3B
:104D10000FBECDBFDF91CF911F910F91EF90DF902C
:104D2000CF9008959091E80490FF16C090914001B3
:104D300020914101921770F4E92FF0E0DF01AA0FF2
:104D4000BB1FEA0FFB1FEC53FB4F81836083428341
:104D50009F5FF0CF0C940B2608958091E804282FD4
:104D6000269530E02115310519F48170826005C067
:104D70002532310524F0817088648093E804089519
:104D8000CF92DF92EF92FF926B017C010E94AD26E1
:104D9000B701A60188E090E0FF90EF90DF90CF9000
:104DA0000C946C2D8091EC04882319F08150809331
:104DB000EC046091E8047091E9048091EA04909118
:104DC000EB040C94C0268091EC04833018F48F5FC0
:104DD0008093EC046091E8047091E9048091EA0406
:104DE0009091EB040C94C026E8EEF4E083E080831D
:104DF00011828FEF828383831482AEEBB4E012962C
:104E00008C911297836012968C936081718182815C
:104E100093810C94C026AF92BF92CF92DF92EF9213
:104E2000FF920F931F93CF93DF93E82EF62EE901A5
:104E3000E42FF0E0611106C0EB54FA4FE4914E2FDD
:104E40002E2F71C0062F10E0EB54FA4F4491F42F2F
:104E5000C42ED12C26E0829FC00111242FEF30E018
:104E6000B9010E94322D5BEA5603C001579F900D95
:104E700011248E0D911D8E0D911D582F550F580F19
:104E8000D901A01BB10BAC9DC001AD9D900DBC9D87
:104E9000900D1124E92FF59ED0011124AB2FBB27D3
:104EA0007901EA1AFB0AEC9CD001ED9CB00DFC9C48
:104EB000B00D11245901A51AB108A09E7001A19E40
:104EC000F00CB09EF00C1124EF2CFF242E193F099A
:104ED0002C9D80012D9D100D3C9D100D1124212F26
:104EE0006230710591F048F461157105E1F06130AF
:104EF0007105B9F4242F4B2F16C06430710569F089
:104F000040F06630710579F00CC0242F492FE12F55
:104F10000AC0492FEF2F2B2F06C0292FE42F412F36
:104F200002C0292FEB2F49832883EA83DF91CF9199
:104F30001F910F91FF90EF90DF90CF90BF90AF90B7
:104F40000895CF93DF9300D01F92CDB7DEB7909135
:104F5000E80490FF0AC09E012F5F3F4F0E940B277D
:104F60004B8169818A810E9492260F900F900F9049
:104F7000DF91CF910895AF92BF92CF92DF92EF92DF
:104F8000FF920F931F93CF93DF9300D01F92CDB763
:104F9000DEB7182FF62E042FE22E9091E80490FF32
:104FA0007EC0E92FE695AE2FB0E0AA55BE4F8C919A
:104FB0008093BE049E7F923061F49E012F5F3F4F2D
:104FC000812F0E940B274B8169818A810E94922642
:104FD00043C0823019F40091EB043EC0863019F4CE
:104FE0001091E90439C08930D9F38931A9F5E95123
:104FF0008E2F8170D82EE695F0E0EB54F94FA590F6
:10500000B490C12CBB2460914201C61618F52C2D1A
:1050100030E0A29EC001A39E900DB29E900D11247F
:1050200070E00E94322D812FD11002C0860F01C086
:10503000861B90914001290F311DA901440F551F76
:10504000240F351F2C533B4F402F6F2D0E940B27F1
:10505000C394D9CF0E940B268091E904181308C08D
:105060008091EA04F81204C08091EB04081729F03B
:105070008091C00482608093C0041093E904F09290
:10508000EA040093EB04EE2051F06091E804709183
:10509000E9048091EA049091EB040E94C0260F90ED
:1050A0000F900F90DF91CF911F910F91FF90EF9094
:1050B000DF90CF90BF90AF900895E8EEF4E0438189
:1050C00028E0421B08F440E021E0628181810C94D9
:1050D000BB27E8EEF4E0438128E0420F08F44FEFED
:1050E00021E0628181810C94BB27E8EEF4E06281CB
:1050F00028E0621B08F460E021E0438181810C9488
:10510000BB27E8EEF4E0628128E0620F08F46FEF5D
:1051100021E0438181810C94BB27E8EEF4E081819A
:1051200021E04381628188500C94BB27E8EEF4E0D3
:10513000818121E043816281885F0C94BB27E8EE86
:10514000F4E080818E7F80830E947625EEEBF4E090
:105150008281816082832FEF80E792E0215080403E
:105160009040E1F700C000000C940B269091E804F9
:1051700090FF3BC09170811102C0926006C08532E1
:1051800010F0986402C0880F982B9093E8048091E7
:10519000C00481608093C004662351F06091E804EC
:1051A0007091E9048091EA049091EB040E94C0267A
:1051B0006091E804669570E04BE050E083E491E094
:1051C0000E941C2E892B19F00E94762502C00E9495
:1051D000F02581E08093040520E04091EB0460918C
:1051E000EA048091E9040C94BB2708958091E804B7
:1051F0008695815009F484E261E00C94B628809190
:10520000E80486958F5F853208F081E061E00C94B8
:10521000B628882309F458C0682F823869F40E94A0
:105220006B2481FF51C069E388E694E00E94252445
:105230000E94711D69E30EC0833891F40E946B24B3
:1052400080FF42C063E588E694E00E9425240E9426
:10525000711D63E588E694E00E9418240C94711D8A
:10526000843869F40E946B2482FF2EC067E488E6CC
:1052700094E00E9425240E94711D67E4EBCF8CEF1F
:10528000860F813A38F380E2860F883070F46770B9
:1052900081E090E001C0880F6A95EAF780959091CF
:1052A000BD0489238093BD04D9CF8BE5860F83305D
:1052B00020F480E090E00C945524685A673120F483
:1052C00080E090E00C943F240895CF93882309F464
:1052D00096C0C82F8238B1F40E946B2481FD8FC024
:1052E00069E388E694E00E9425240E94711D2FEF57
:1052F00081EE94E0215080409040E1F700C0000032
:1053000069E317C08338E1F40E946B2480FD77C005
:1053100063E588E694E00E9425240E94711D2FEF2A
:1053200081EE94E0215080409040E1F700C0000001
:1053300063E588E694E00E941824CF910C94711DD7
:105340008438B1F40E946B2482FD59C067E488E67A
:1053500094E00E9425240E94711D2FEF81EE94E0BD
:10536000215080409040E1F700C0000067E4E1CFA9
:105370008CEF8C0F813A80F4EAE6F4E080E794E069
:105380002191C217A1F18E179F07D1F76C2F88E6E4
:1053900094E00E942524D1CF80E28C0F883068F4FD
:1053A000C77081E090E001C0880FCA95EAF790913C
:1053B000BD04892B8093BD04C0CFEBE5EC0FE33037
:1053C00040F4F0E0ED58FE4F808190E0CF910C94D6
:1053D0005524C85AC73198F4EC2FF0E0EE0FFF1FA8
:1053E000EA58FE4F80819181CF910C943F246C2F1D
:1053F00088E694E00E9418240E94711DC7CFCF91C7
:1054000008951092B9008CE08093B80008959F929F
:10541000AF92BF92CF92DF92EF92FF920F931F93C2
:10542000CF93DF93B82EEB010E94BF236C01C431F0
:10543000D10558F0CF3F8FEFD80759F0CE0164E186
:1054400070E00E94322D7B0107C0EE24E394F12C22
:1054500003C025E0E22EF12C84E8A82E94EA992ED0
:105460001092BC009092BC000E94BF238C018091DE
:10547000BC0087FD08C00E94BF23801B910B8E15C6
:105480009F05A8F32AC08091B900887F883041F039
:105490008091B900887F803119F00FEF1FEF1FC096
:1054A000B092BB00A092BC000E94BF238C018091EF
:1054B000BC0087FD08C00E94BF23801B910B8E1586
:1054C0009F05A8F30AC08091B900887F883111F048
:1054D000803419F700E010E00EC00EEF1FEFCF3F51
:1054E0008FEFD80709F4BCCFC6010E9456178C175E
:1054F0009D0708F4B5CFC801DF91CF911F910F919F
:10550000FF90EF90DF90CF90BF90AF909F90089565
:105510000F931F93CF93DF93EB018093BB0084E83D
:105520008093BC000E94BF238C018091BC0087FD4A
:105530000EC0CF3F8FEFD807C1F30E94BF23801B5F
:10554000910B8C179D0788F38EEF9FEF0CC0209175
:10555000B900287F81E090E0283211F480E090E0EB
:10556000919581959109DF91CF911F910F910895A8
:10557000CF92DF92EF92FF920F931F93CF93DF931F
:105580006B018A017901B9010E94072AE6010C0D1D
:105590001D1DC017D10761F424E92093BC00DF91E1
:1055A000CF911F910F91FF90EF90DF90CF900895D2
:1055B00097FDF2CFB70189910E94882AEACFCF9256
:1055C000DF92EF92FF920F931F93CF93DF93C62F3B
:1055D0006A017901B8010E94072A97FD11C0B8013C
:1055E0008C2F0E94882AE601EC0CFD1CCE15DF05ED
:1055F00039F097FD05C0B80189910E94882AF6CF3D
:1056000024E92093BC00DF91CF911F910F91FF906F
:10561000EF90DF90CF90089584E98093BC000895C7
:105620008EE14A9B02C08150E1F74A9BFECF08956C
:105630005A9880E28A95F1F75A9A0895FC012AE077
:105640002A95F1F728E090E080E031E040E14A95CA
:10565000F1F7880F4A9B02C08160932700C00000C9
:1056600040E14A95F1F7215089F720E12A95F1F7B9
:1056700029B100C0000030E13A95F1F722FB222762
:1056800020F992272081920F90830895EF92FF9244
:105690000F931F93CF93DF931F92CDB7DEB719827D
:1056A0008C017C01E60EF11C0E151F0551F00E94C5
:1056B000102BCE0101960E941E2BF80181938F01C1
:1056C000F3CF81E09981911180E00F90DF91CF912C
:1056D0001F910F91FF90EF900895529A5A9A089552
:1056E00052985A9AEA9AE9E6F0E080818F7C8083AA
:1056F0000895615091E001C0990F6A95EAF720E0A2
:1057000031E0992361F0492F482319F05A9A232751
:1057100001C05A9840E24A95F1F79695F2CF2223BC
:1057200011F05A9A01C05A9880E28A95F1F75A9876
:105730000895FF920F931F93CF93DF93EC018C0199
:10574000060F111DC017D10741F0F9900E94182BC8
:1057500068E08F2D0E94792BF5CFDF91CF911F91BB
:105760000F91FF9008951F920F920FB60F92112480
:10577000EF92FF920F931F932F933F934F935F935B
:105780006F937F938F939F93AF93BF93EF93FF9309
:10579000CF93DF931F92CDB7DEB719820E94102BF3
:1057A000CE0101960E941E2BA82FA695A695A69520
:1057B0009A2F969595702A2F2570920F292F237076
:1057C00096959695920F877089137CC08981811177
:1057D00079C0A53008F076C080E18A95F1F75A9A31
:1057E000529AB2E0BA95F1F700C05A98EA2EF12C1D
:1057F000EAE0AE9FD0011124AD5EBE4F1896ED9148
:10580000FC9119973097B1F06091A4017091A501B6
:1058100016962D913C911797260F371F13968D9151
:105820009C911497680F791F15964C9115971296B5
:105830008C9109958AE08E9DF0018F9DF00D1124C9
:10584000ED5EFE4F6581662351F08091A401909139
:10585000A50126813781820F931F0E94992B0E94F8
:10586000182BF0E1FA95F1F75A9852985A9A80E17C
:105870008A95F1F78AE08E9D80018F9D100D11248D
:105880000D5E1E4FD80112966C911297662399F007
:105890008091A4019091A50113962D913C911497AC
:1058A000820F931F0E94462BD801ED91FC9181112C
:1058B00005C082E004C0D801ED91FC9188E08083AE
:1058C0000E94102B0F90DF91CF91FF91EF91BF912C
:1058D000AF919F918F917F916F915F914F913F9188
:1058E0002F911F910F91FF90EF900F900FBE0F908F
:1058F0001F9018950F931F93CF93DF9385309105D9
:105900000CF0A9C02AE0289FF001299FF00D112476
:10591000ED5EFE4F20813181232B09F49CC0EC0108
:10592000F894529A5A9885E08A95F1F700008C2FE6
:10593000869585709C2F9570890F982F937086950A
:1059400086958E0123E0000F111F2A95E1F7890F3C
:10595000082B0E94182BA4E0AA95F1F700C068E07C
:10596000802F0E94792BB0E1BA95F1F752985A9A9C
:105970004A9902C000C0FCCF87E090E04A9B17C064
:10598000019799F4529A5A9A8AE08C9FF0018D9F60
:10599000F00D1124ED5EFE4F0190F081E02D81E0CD
:1059A0008083789481E090E058C000C0E7CF8AE01F
:1059B0008C9F80018D9F100D11240D5E1E4FF801EC
:1059C00065816623B9F08091A4019091A50126819B
:1059D0003781820F931F0E94462B81110BC0529A70
:1059E0005A9AD801ED91FC9182E08083789482E00C
:1059F00090E033C00E94102BB0E2BA95F1F75A98AC
:105A0000529AE0E1EA95F1F78AE08C9FF0018D9FD0
:105A1000F00D1124ED5EFE4F6281662351F08091FE
:105A2000A4019091A50123813481820F931F0E94CC
:105A3000992B0E94182B8AE08C9FF0018D9FF00D0E
:105A40001124ED5EFE4F0190F081E02D10827894DC
:105A500080E090E002C084E090E0DF91CF911F9160
:105A60000F910895AA1BBB1B51E107C0AA1FBB1FC2
:105A7000A617B70710F0A61BB70B881F991F5A95DA
:105A8000A9F780959095BC01CD010895F999FECFB5
:105A900092BD81BDF89A992780B50895A6E1B0E03E
:105AA00044E050E00C94802DA8E1B0E042E050E0EA
:105AB0000C94802D262FF999FECF92BD81BDF89AC6
:105AC000019700B4021639F01FBA20BD0FB6F89442
:105AD000FA9AF99A0FBE08950396272F0E945B2D1C
