:100000000C9492030C94D9030C94D9030C94E62F0E
:100010000C94D9030C94D9030C94D9030C94D903F0
:100020000C94D9030C94D9030C94A11B0C94DD1AE5
:100030000C94102B0C94D9030C94D9030C94D90371
:100040000C94D9030C94D9030C94D9030C94D903C0
:100050000C94D9030C94C32A0C94D9030C94D9039F
:100060000C94D9030C94D9030C94D9030C94D903A0
:100070000C94D9030C94D9030C94D9030C94D90390
:100080000C9474210C94D9030C94D9030C94D903C7
:100090000C94D9030C94D9030C94D9030C94D90370
:1000A0000C94D9030C94D9030C94D9033909390958
:1000B00073097309CF09EA0AEA0AEA0AEB095F0A37
:1000C000700A700A100F130F2F0F3C0F430F630FAE
:1000D000660F9A0FBC0F55105510C70FC90FCD0FE3
:1000E000F00F1010131016103710F1181819BF1A4E
:1000F0001819BF1A64198719BF1A7C1A8C1A1F2580
:100100001F253225322528253225322532251F2567
:100110001F252D25322532252D2507634236B79B15
:10012000D8A71A39685618AEBAAB558C1D3CB7CC57
:100130005763BD6DEDFD753EF6177231BF000000CF
:10014000803F08000000BE922449123EABAAAA2AB2
:10015000BECDCCCC4C3E00000080BEABAAAAAA3ECD
:1001600000000000BF000000803F00000000000809
:100170004178D3BB4387D1133D190E3CC3BD4282A6
:10018000AD2B3E68EC8276BED98FE1A93E4C80EF64
:10019000FFBE01C4FF7F3F00000000000000000020
:1001A000000000000000000000000000000000004F
:1001B000000000000000000000000000000000003F
:1001C0007E0F00D4FFFFFFC7000000780000000092
:1001D000000000002A2B28000000000000000000A2
:1001E0000000000000000029000000002C1E342048
:1001F000212224342627252E362D3738271E1F206E
:100200002122232425263333362E37381F040506B2
:100210000708090A0B0C0D0E0F10111213141516F6
:100220001718191A1B1C1D2F3130232D35040506F4
:100230000708090A0B0C0D0E0F10111213141516D6
:100240001718191A1B1C1D2F3130354C00047F3F25
:100250001F643214643214783C1E1E140A05050112
:100260000980A101850319012AB700150126B700ED
:10027000950175108100C0050C0901A101850419C3
:10028000012AA002150126A002950175108100C067
:100290000660FF0961A1010962150026FF00952093
:1002A000750881020963150026FF009520750891E5
:1002B00002C005010906A101050719E029E715009B
:1002C00025019508750181029501750881010507D1
:1002D000190029FF150026FF009506750881000505
:1002E000081901290595057501910295017503917C
:1002F00001C009025B00030100A0FA09040000012B
:1003000003010100092111010001224000070581BC
:100310000308000A0904010002030000000921117A
:1003200001000122220007058203200001070503C6
:10033000032000010904020001030000000921114B
:100340000100012232000705840320000A12010087
:100350000200000008545901000100010200011AC6
:10036000034C0075006E0061006B00650079002091
:10037000004D0069006E0069000000120379006FF3
:1003800000690063006800690072006F00000004EB
:10039000030904000101010101010101010202023E
:1003A0000202020202020303030303030303040421
:1003B00004040404040505050505060606060607EB
:1003C0000707070708080808090909090A0A0A0BA4
:1003D0000B0B0C0C0C0D0D0D0E0E0E0F0F0F101045
:1003E00011111112121313141415151616171718CC
:1003F0001819191A1A1B1B1C1D1D1E1E1F20202137
:100400002222232424252626272829292A2B2C2D7D
:100410002D2E2F30313232333435363738393A3B9E
:100420003C3D3E3F404142434445464748494A4C93
:100430004D4E4F50515354555658595A5B5D5E5F5F
:10044000616264656668696B6C6D6F7072737577F5
:10045000787A7B7D7E8082838587888A8C8E8F9157
:10046000939596989A9C9EA0A2A3A5A7A9ABADAF81
:10047000B1B3B5B7BABCBEC0C2C4C6C9CBCDCFD16B
:10048000D4D6D8DBDDDFE2E4E7E9EBEEF0F3F5F814
:10049000FAFDFFFFAA7F55400001020304050B0A85
:1004A000090807062223252628292A2C2D2F303239
:1004B000333536383A3B3D3E4042434547494A4C46
:1004C0004E5051535557595A5C5E60626466686974
:1004D0006B6D6F71737577797B7D7F81838587897C
:1004E0008A8C8E90929496989A9C9E9FA1A3A5A781
:1004F000A8AAACAEAFB1B3B4B6B8B9BBBCBEBFC1AD
:10050000C2C3C5C6C7C9CACBCCCDCED0D1D2D2D337
:10051000D4D5D6D7D7D8D9D9DADADBDBDBDCDCDC4B
:10052000DCDCDDDDDDDDDCDCDCDCDCDBDBDBDADA0E
:10053000D9D9D8D7D7D6D5D4D3D2D2D1D0CECDCC85
:10054000CBCAC9C7C6C5C3C2C1BFBEBCBBB9B8B69A
:10055000B4B3B1AFAEACAAA8A7A5A3A19F9E9C9A25
:1005600098969492908E8C8A89878583817F7D7BF3
:1005700079777573716F6D6B6968666462605E5CD4
:100580005A5957555351504E4C4A4947454342409A
:100590003E3D3B3A3836353332302F2D2C2A292830
:1005A000262523222B0014001A000800150017002E
:1005B000E00004001600070009000A00E1001D0029
:1005C0001B0006001900050000000000E300E20027
:1005D00001512C002A00130012000C0018001C000E
:1005E000340033000F000E000D000B00E500380052
:1005F000370036001000110000000000E700E600A0
:100600000251280029001E001F00200021002200A6
:10061000E00001000100010001000100E100010013
:10062000010001000100010000000000E300E20001
:1006300001512C002A002700260025002400230059
:10064000010001004F005200510050000100010064
:10065000010001000100010000000000E700E600C9
:100660000251280029001E021F022002210222023C
:10067000E00001000100010001000100E10035027D
:10068000010001000100010000000000E300E200A1
:1006900001512C002A0027022602250224022302EF
:1006A0003500310230022F022E002D0035023100BC
:1006B00030002F002E022D0200000000E700E600AF
:1006C00002512800005C010001000100010001004E
:1006D000C25CC55CC75CC95C01000100C35CC65C50
:1006E000C85CCA5C0100010000000000E300E200F9
:1006F00001512C003F003E003D003C003B003A0011
:100700004500440043004200410040000100010058
:10071000010001000100010000000000E700E60008
:100720000251280011241FBECFEFDAE0DEBFCDBF9B
:1007300004B603FE27C08091D7059091D805A091FB
:10074000D905B091DA058730904BA740B04BD1F472
:100750001092D7051092D8051092D9051092DA059B
:1007600014BE84B7877F84BF0FB6F894A895809194
:100770006000886180936000109260000FBEE0E02E
:10078000F8E3099514E0A0E0B1E0E6E5FCE602C07C
:1007900005900D92A435B107D9F725E0A4E5B4E0A2
:1007A00001C01D92A73DB207E1F70E940E0C0C9408
:1007B00029360C9400003F924F925F926F927F9285
:1007C0008F929F92AF92BF92CF92DF92EF92FF9261
:1007D0000F931F93CF93DF93CDB7DEB7A8970FB6D4
:1007E000F894DEBF0FBECDBFFC01808191812381D3
:1007F0003481232B31F09F3F31F491E08F3F19F486
:1008000003C091E001C090E090FF02C00C94F60B91
:100810007F0185E0DE01949601900D928A95E1F7C3
:10082000D70112962C918CA19DA1222349F00E9400
:10083000CE24182F682F8CA19DA10E94042703C0ED
:100840000E94D726182F6CA17DA1812F0E949D2C7C
:100850008C01F7019281992309F4F5C09801225186
:100860003F452031310508F01DC18FEF93E00E9414
:1008700065318111F2C0025157EA852E9924939473
:10088000002379F08114F4E09F0609F4E6C0C40166
:100890000E946531811101C001502FEF821A920A26
:1008A000EFCF19821A821B821C82442443944AE0AF
:1008B000342E84010F5F1F4FC4010E94653189836C
:1008C0001A82882309F4C9C09FEF980F933060F40F
:1008D0008A83498232E0830E911CC8010E946531EF
:1008E0008B83811102C0B9C048018E010F5F1F4F79
:1008F000D8012C912223E9F2213009F04FC0119642
:100900008C91813049F46801B2E0CB0ED11CF80122
:1009100082810E9493270BC0823059F46801F2E073
:10092000CF0ED11CD80112968C910E946B2D86019E
:1009300087C0833049F46801B2E0CB0ED11CF801C6
:1009400082810E940F2DF3CF843019F00F5F1F4F6B
:1009500077C0D80112962C910E5F1F4F80E090E077
:1009600030E0205331092A30310568F4389EA00167
:10097000399E500D1124C901840F951F0F5F1F4F21
:10098000F8012081EDCF009709F45AC0AFE9BFE02C
:100990001197F1F700C000000197F5CFE22FF0E0CA
:1009A000E453FE4F5490822F86958695869590E06D
:1009B000FC01E454FE4F64902770712C022E02C09B
:1009C000759467940A94E2F7B1E06B227724FC01F6
:1009D000E455FE4FA490B12C022E02C0B594A7940A
:1009E0000A94E2F7E1E0AE22BB24FC01E456FE4F9C
:1009F000C490D12C02C0D594C7942A95E2F7F1E0B7
:100A0000CF22DD246114710419F081EE0E946B2D58
:100A1000A114B10419F086EE0E946B2D852D0E9461
:100A20009327AB2819F086EE0E940F2D672819F046
:100A300081EE0E940F2DCD2819F08CE20E949327A1
:100A40000F5F1F4F55CF0031FFE51F0709F0F8C5B5
:100A500081E00E943B270E94401780918D0587709E
:100A600009F4C4C6D70112968C91882309F4BEC636
:100A700082E0A8960FB6F894DEBF0FBECDBFDF911F
:100A8000CF911F910F91FF90EF90DF90CF90BF908B
:100A9000AF909F908F907F906F905F904F903F901E
:100AA0000C9447270031BFE51B0711F481E005C016
:100AB0000131EFE51E0721F482E00E946427CBCFCD
:100AC0000D31BCE51B0731F4992309F44EC00E9497
:100AD000C92EC3CF0E312CE5120731F4992309F446
:100AE00044C00E94AF2EB9CF0F313CE5130739F453
:100AF0009923D9F18091E50480FDF3CFE8CF0A3244
:100B00005CE5150749F4992381F11092E70464E04C
:100B100070E080E091E024C00B328CE5180799F377
:100B20000632ECE51E07F9F00732ACE51A0709F4C6
:100B3000F4C00832BCE51B0709F4E5C00C32ECE553
:100B40001E0709F4F0C00D32FCE51F0709F0F1C0E3
:100B5000992359F01092340568E070E080E291E04A
:100B60000E9478177ACF9111D5C040913305411179
:100B700005C080913405882309F405C1992309F43F
:100B80004BC0003E110561F40E94642181E0809316
:100B900057041092560410929704109293045DCF5C
:100BA000023E110571F40E9464218091570488234C
:100BB00019F081E080935604109257041092970424
:100BC0004CCF033E110591F480915604882321F106
:100BD0000E9464211092570481E080939704109240
:100BE0009404109296041092950437CF02351105A3
:100BF00031F480918402909185020A9708C00135F2
:100C0000110551F480918402909185020A96909387
:100C100085028093840221CF8091000281110DC052
:100C2000D70111968C91119728E030E0281B3109EB
:100C30008C91805FD82EBCE01DC0813069F4F70133
:100C4000818128E030E0281B3109D22EDD0CDD0C3B
:100C5000D20E80818D5C31C0823081F4D701119633
:100C60008C91119728E030E0281B31098C918D5C24
:100C7000D82EB7E02B9FD00C112423C08330F9F479
:100C800083E2EBEBF3E0DE01119601900D928A9581
:100C9000E1F7F7018081FE01E80FF11DD701119600
:100CA0008C9128E030E0281B3109D0848D2DBCE0E8
:100CB0002B9F800D112439E0D32ED80E02C02CE0DA
:100CC000D22E9923A1F0442319F08D2D0E943D2F9F
:100CD00080915704882391F080919304E82FF0E0ED
:100CE000ED57FB4FD0828F5F8093930407C044235E
:100CF00029F08D2D0E941E2F0E94C2200F3F11054A
:100D000008F041C0AACE992309F42FCF8091330572
:100D1000811106C00E94DE1FA0CE992309F425CFC1
:100D20000E946A219ACE992309F41FCF0E94D51FF1
:100D300094CE0E322CE5120741F4992309F415CF15
:100D400080913405811106CFF1CF09323CE51307BC
:100D500009F00BCF992309F408CF0E946421209158
:100D6000000230E02F5F3F4F2370332720930002B3
:100D700048E2429FC001439F900D112465E070E05E
:100D8000805A9E4FEDCE033FFCE51F0799F406E223
:100D900021EE40EE63EF7CE509C0073D8CE51807C6
:100DA00011F506E221EE41EE67ED7CE5C7010E94F8
:100DB000C02B53CE043F2CE5120708F068C1083D54
:100DC0003CE5130731F407E225EE45EE68ED7CE5DE
:100DD000EDCF093D5CE5150701F708E221E045EE9E
:100DE00069ED7CE5E3CFF7018281882309F484C1B2
:100DF0001092C4050230FCE51F0708F467C10631F4
:100E00002CE5120730F0C8018A5F9C45099708F06D
:100E10005DC10E94581490935A0480935904003184
:100E20003CE5130709F4CAC008F042C008308CE55D
:100E3000180709F4A0C0F0F40430ACE51A0709F46F
:100E400086C068F40230ECE51E0709F47CC003306C
:100E50001C4509F00CC18091590482607BC00630AA
:100E60002CE5120709F47FC008F081C08091590475
:100E7000886070C00C305CE5150709F48BC068F41D
:100E80000A309CE5190709F47AC008F07FC00E9477
:100E900073278091590480685DC00E30BCE51B0744
:100EA00009F47CC008F086C0809159048B7F52C041
:100EB0000B3FFCE51F0709F450C020F503313CE56A
:100EC000130709F483C078F401318CE5180709F49D
:100ED00079C002311C4509F0CAC00E947327809175
:100EE00059048F7737C00531ACE51A0709F47CC087
:100EF00008F4ACC00A3F1C4509F0B9C080915A04FF
:100F000081602EC00F3FFCE51F0709F466C070F436
:100F10000D3F3CE5130709F449C008F443C0809134
:100F20005A048260816080935A0484C001308DE548
:100F3000180709F497C008F470C002301D4509F085
:100F400096C060E090C080915904816003C0809198
:100F500059048460809359048AC080915A04826045
:100F600080935A0484C0809159048061F3CF8091AA
:100F700059048062EFCF809159048064EBCF809157
:100F8000590488608460809359043DC0809159045D
:100F90008E7FE0CF809159048D7FDCCF8091590402
:100FA000877FD8CF80915A048E7FDACF80915A0400
:100FB0008D7FD6CF809159048F7ECCCF80915904FC
:100FC0008F7DC8CF809159048F7BC4CF8091590405
:100FD000877F8B7F809359041BC080915A048D7F3B
:100FE0008E7F80935A042BC08091590482FB222764
:100FF00020F991E0922790FB82F990FB83F980938E
:101000005904992329F064E070E081E492E01BC068
:1010100062E070E081E192E016C080915A04982F5E
:10102000909591708E7F892B90FB81F980935A0463
:10103000992329F064E070E081E292E004C062E06C
:1010400070E081E092E00E94781711C00E9473273F
:101050008091590487FB222720F991E0922790FB89
:1010600087F978CF61E08EE090E00E94793160915D
:10107000590410915A0484E090E00E947931612F64
:1010800082E290E00E9479310E947327E6CC053F0E
:101090009CE5190731F406E221EE42EE65EF7CE5AE
:1010A00085CE053FACE51A0730F407E225EE44EEA5
:1010B00064EF7CE57BCE063FBCE51B0709F093CED1
:1010C00007E225EE46EE66EF7CE570CE0631ECE5F4
:1010D0001E0721F5809190058A7A91E009F490E04D
:1010E00090935804882311F065E301C069E28BE313
:1010F00095E00E946A2B0FC006313CE5130709F00A
:1011000052C080915804882309F4A1C265E38BE39F
:1011100095E00E945D2B0E9403249FCC0A352DE5AB
:101120001207D9F158F401155CE51507B9F00E3D29
:101130001C4509F054C00E9493238FCC0B359DE5CC
:10114000190769F10C351D4509F049C080915A0411
:1011500082FB882780F991E0892722C00E947327AB
:101160000E9464210E94042B8C0163E070E081E600
:1011700092E00E947817C8010E94E92A8A3F9105EF
:1011800038F4EFE9FFE03197F1F700C00000F3CF4A
:101190000E943D210E949F2A60CC81E001C080E036
:1011A0000E943E241CC08091900582720C3CBCE5DC
:1011B0001B0709F4FBC208F07CC2063CFCE51F07D4
:1011C00009F4E0C208F053C2033C3CE5130709F4FC
:1011D000CFC208F03EC2023C1C4509F49FC2D701B1
:1011E00012968C9112970D911C91882349F0C80199
:1011F0000E94CE24D82E682FC8010E94042704C064
:10120000C8010E94D726D82EB8018D2D0E949D2C92
:101210000E94CF128C01982EF701B280A580A29473
:101220009FE0A92280918D05877099F0BB2089F0FD
:10123000812F807F803421F080E2800F883048F059
:1012400082E00E94472780918D058770DD24D3942A
:101250008111D12CC12EC2948FE0C8228C2D90E038
:101260008C30910508F0B6C1FC01EA5AFF4F0C948E
:10127000BC35812F807F1F70882311F01295107F5D
:10128000BB20B9F0112309F491C180E2800F8830AE
:1012900010F0911006C080919005182B10939005C6
:1012A00005C080918F05182B10938F050E94032491
:1012B0007DC1802F0E940F2D112309F48BC1005E88
:1012C0001095083010F0911006C0809190051823F9
:1012D0001093900505C080918F05182310938F05FA
:1012E0000E94032477C1812F807F1F70803211F00C
:1012F0001295107F992021F0F1E09F1611F130C076
:10130000BB20B1F0AA2081F021E0A2120DC0809193
:101310005A0482FD5FC180919105182B181709F4BA
:1013200059C11093910556C180919105812B10C030
:10133000AA2021F031E0A31609F44CC10E94FD233C
:101340002AC0BB2041F055E05A1508F443C1812F53
:101350000E9489273FC184E08A1508F43BC11BC065
:10136000BB2061F0AA2099F3D70115968C911597AF
:1013700080FF1CC18F7015968C93E9CFAA2059F07D
:10138000093309F024C1BFEFE7EEF3E0B150E040CC
:10139000F040E1F71AC1812F0E947E271BC1812FE7
:1013A00086958695837019F0813059F013C1BB2062
:1013B00019F0C801937002C080E090E00E949A2B5F
:1013C0000FC1BB2019F0C801937002C080E090E00B
:1013D0000E94842B05C1812F8370A9F5B110FEC036
:1013E000402F429546954770440F440F802F8F70D1
:1013F00090E09C01042E01C0220F0A94EAF704FF3A
:1014000008C08FE090E001C0880F4A95EAF7809508
:1014100001C080E0169516951370123069F088F4BB
:1014200090919205113019F0822B892302C0922BE2
:10143000892B0E946F27D2C0822B90919205892719
:10144000F8CF822BF6CFBB2019F0812F817001C01D
:101450008695882309F4C2C0402F4295469547706F
:10146000440F440F802F8F7090E09C01042E01C028
:10147000220F0A94EAF704FF08C08FE090E001C051
:10148000880F4A95EAF7809501C080E01695169579
:101490001370123059F078F490912905113019F039
:1014A000822B892309C0922B892B06C0822B909115
:1014B0002905892701C0822B0E9430278FC01F7009
:1014C000BB2039F0812F0E946427802F0E9489273A
:1014D00085C0802F0E947E27812F0E943B277EC0DF
:1014E000802F22EF921659F1291538F030EF93161C
:1014F00059F051EF9516F1F055C093EF991631F16F
:10150000A4EF9A1681F14EC0BB2079F0B4E0BA1571
:1015100008F460C01F7181E090E001C0880F1A9547
:10152000EAF79091290589271BC0E5E0EA1508F440
:1015300051C0F0CFBB2029F0812F8F7126C0BB2076
:10154000D9F3812F8F710E943B2744C0BB2039F013
:101550001F7181E001C0880F1A95EAF701C080E091
:101560000E94302737C0BB2099F01F71812F0E9445
:10157000642780915A0482FD07C0F8E01F9FC001D4
:101580001124836080938D05812F0E94642722C0DF
:1015900081E00E94472721E02A15E0F482E00E94C2
:1015A000472718C0BB2031F0AA2031F2802F0E94BB
:1015B0006B2D10C0AA2029F2893349F43FEF57EE72
:1015C00083E0315050408040E1F700C00000802FA0
:1015D0000E940F2D88EF8C0D843010F40E94B02BE8
:1015E000DD2009F403C180918D0580FDFFC0D70186
:1015F00012961C928595859585950E946427C70152
:101600000E94DB0380918D05859585958595A8962B
:101610000FB6F894DEBF0FBECDBFDF91CF911F9103
:101620000F91FF90EF90DF90CF90BF90AF909F9081
:101630008F907F906F905F904F903F900C943B27DE
:1016400001312FE5120709F03BCA82E002CA69E2C4
:101650005ECD043C9CE5190709F48FC0053C1C4590
:1016600009F0BDCD43EC5FE16CEC7FE1A3C0093C28
:10167000BCE51B0709F490C070F4073CFCE51F07AC
:1016800009F485C0083C1C4509F0A9CD47EB5FE192
:101690006BEA7FE18FC00A3C3CE5130709F481C087
:1016A0000B3C1C4509F09BCD48E05EE169E17EE121
:1016B00081C0013D8CE5180709F488C098F40E3C00
:1016C000ACE51A0709F47CC008F477C00F3CECE5E0
:1016D0001E0709F478C0003D1C4509F080CD6EE07E
:1016E00089E07CC0043D2CE5120709F475C060F464
:1016F000023D5CE5150709F46CC0033D1C4509F08B
:101700006ECD61E088E16FC0053D9CE5190709F4E5
:1017100068C00D351D4509F4A0C961CD8091BD0596
:1017200080FF20C08E7F8093BD056091BD057091C4
:10173000BE058091BF059091C0050E94F61D0E94D4
:10174000082D80919505816080939505BFEFE0E7B6
:10175000F2E0B150E040F040E1F700C000000E942C
:10176000411D7BC981608093BD0561E086953BC0CA
:1017700040E853E269E873E21DC049E853E260E8DB
:1017800073E218C04CEC5FE163EC7FE113C04BEAFD
:101790005FE167EB7FE10EC043E95FE16FE97FE165
:1017A00009C04FE95FE163E97FE104C049E15EE11F
:1017B00068E07EE10E94022D50C961E081E013C023
:1017C00065E082E00BC068E086E008C064E18FE07D
:1017D00005C067E185E102C062E289E10E94F02C68
:1017E0003CC961E083E20E94402337C9A8960FB646
:1017F000F894DEBF0FBECDBFDF91CF911F910F9147
:10180000FF90EF90DF90CF90BF90AF909F908F9020
:101810007F906F905F904F903F900895CF93DF93AC
:10182000CDB7DEB7AA970FB6F894DEBF0FBECDBF17
:1018300084B7877F84BF0FB6F894A8958091600025
:10184000886180936000109260000FBE90E080E895
:101850000FB6F89480936100909361000FBE85B736
:10186000806885BF85B7806885BF8CE990E19093DB
:101870005504809354040E94211B0E94401B8091B8
:10188000E20084608093E20078948091CC04882305
:10189000A1F01091E9001F709091EC00892F8170E8
:1018A00090FD80E8182B1092E9008091E80083FDFC
:1018B0000E940B181F701093E90082E084BD93E032
:1018C00095BD9AEF97BD80936E001092CB05109254
:1018D000CC051092CD051092CE050E94D72C811117
:1018E00002C00E94C82C0E949512809379028091B8
:1018F0007902882321F010927E0386E003C086E0FF
:1019000080937E0380937F030E94951281110E9431
:10191000A02F8091790280917902882311F090E0C4
:1019200001C094E09093640484E0891B8093630475
:101930000EED13E082EEE82E83E0F82EF80181919F
:101940008F018F3F11F00E94B812E016F106B1F737
:1019500006EE13E0BCEEEB2EB3E0FB2EF801819116
:101960008F018F3F11F00E94B812E016F106B1F717
:10197000EBE5F4E083E694E0A5E7B4E011921D9274
:101980008E179F07D9F70E946914811102C00E9427
:10199000932382E090E00E94653180936C040E9462
:1019A000581490935A04809359040E9474148FE33E
:1019B0009CE90197F1F700C000000E947414809127
:1019C000750480FF08C06FEF7FEF80E090E00E9419
:1019D00097310E949F2A83E090E00E9465310E9427
:1019E0006F270E94D82E0E949512811102C00E947A
:1019F000A32F80916504811138C00E946914811160
:101A000004C00E9493230E942A1E88E090E00E9456
:101A10006D316093BD057093BE058093BF059093B3
:101A2000C005809195058360809395056E7F71F464
:101A30000E942A1E88E090E00E946D316093BD05EF
:101A40007093BE058093BF059093C0050E94E31D6F
:101A50000E94082D8091BD0580FF04C060E086953E
:101A60000E94402381E0809365048AE792E090938E
:101A7000C8058093C705F8E1AF2EB12CA0E45A2E1B
:101A80006624639477247394FE0131967F018091DC
:101A9000CC04853009F064C000E112E18091CC04EF
:101AA000853009F048C08091CC04843009F432C0FC
:101AB0000E943D210E94082D80916704811109C078
:101AC000709267048091BD058170809366040E94C6
:101AD00029231092CF050FB6F894A895A092600024
:101AE0000FBE5092600083B7817F846083BF83B74D
:101AF000816083BF7894889583B78E7F83BF0FB64C
:101B0000F894A8958091600088618093600010929D
:101B100060000FBE8091CB04882309F4BFCF0E94E0
:101B20007414E5E7F4E081918111E7C224E0ED3718
:101B3000F207C9F7B3CF0E9473270E94B02B10920F
:101B4000670480916604882349F08091BD05816017
:101B50008093BD0560E086950E9440230E94261D6B
:101B60000E94741481110E94F82AADE6B4E0E5E702
:101B7000F4E000E010E0802E91908D91892549F1EC
:101B8000C12CDD24D394982F9D21F1F00E94951251
:101B9000882399F0C9A28AA29D2081E009F480E0FF
:101BA0008BA30E94042B8160782F9DA38CA349A155
:101BB0005AA16BA18DA10E94072EF801E359FB4F9A
:101BC0008081D826D0821AC0C394DD0C46E0C412AE
:101BD000DACF0F5F1F4F0830110569F68FEF8EA324
:101BE0008FA318A60E94042B8160782F9AA789A73B
:101BF0004EA15FA168A58AA50E94072E8091940539
:101C0000882309F4BCC080919305E091BD05E69559
:101C1000E81BE0933705823059F4F0E0E65AFD4FB7
:101C2000E4910E2F10E0E1E6CE2EEAE2DE2E59C05E
:101C3000863059F4F0E0E95AFD4FE4910E2F10E0A0
:101C400071E5C72E7AE2D72E4CC0893061F4E69553
:101C5000F0E0EC5AFD4FE4910E2F10E066EDC62E39
:101C600069E2D62E3EC08F3061F4E695F0E0EF5A7F
:101C7000FD4FE4910E2F10E05AE3C52E59E2D52E08
:101C800030C0853159F4F0E0E25BFD4FE4910E2F56
:101C900010E044EBC42E48E2D42E23C08831A1F0DA
:101CA000833249F4ECE4F2E00591149131E1C32E62
:101CB0003AE2D32E16C0843271F000ED17E021EB2A
:101CC000C22E27E2D22E0DC008E210E091E2C92E0A
:101CD00098E2D92E06C004EF11E082EEC82E87E20A
:101CE000D82E80913805882361F0109238050E9423
:101CF000542B909336058093350510923A05109237
:101D000039050E94542BE0913505F09136059C0170
:101D10002E1B3F0B2F3F3F4790F520916A04222353
:101D2000B1F010926A042091680430916904821B1A
:101D3000930B8F3F9F4758F4205D3A4830936904D6
:101D40002093680480919505886080939505809024
:101D5000390590903A050E0F1F1F1093360500931A
:101D6000350585E395E0F601099580913905909157
:101D70003A05892B21F4892811F060926A040E94A7
:101D8000B02B90916B04891721F00E94B02B8093A7
:101D90006B048091CC04843009F079CE83E0809389
:101DA000E9008091E80082FF72CE8091E80085FF13
:101DB00021C00E94761C81111BC000E210E0CE0100
:101DC00001966C0108C08091F100F60181936F01CA
:101DD0000150110969F08091E80085FDF4CF8091F0
:101DE000E8008B778093E8000E94761C882399F3A3
:101DF00091E001C090E08091E8008B778093E8004B
:101E0000992309F444CEE9818E2F90E0FC013197AB
:101E1000E331F10508F049C1EE59FF4F0C94BC3590
:101E20001A8289E0A7C08A81823009F47CC183309C
:101E300051F0813009F039C10E94F82A9B838C83CC
:101E40007D836E8334C1FE013396CE010B96A5E7E8
:101E5000B4E02D9121938E179F07D9F728C18A816D
:101E6000823009F022C16B817C818D819E810E942C
:101E7000C23586E290E024C04C816B818A810E9449
:101E8000772C9D8357C1CD80DE80DC24CD24DC24DB
:101E90008C810B819A81FCE00F9F8001112420E648
:101EA000929F000D111D1124080F111D080F111D07
:101EB0006D2DC80187960E9479316C2DC8018896D6
:101EC0000E947931F4C00E94432CF1C08A8181388C
:101ED000B1F050F4803809F0EAC020E04B81609105
:101EE000BF058091BE0523C08238E9F0833809F030
:101EF000DEC020E04091C0056C818B8118C060E09D
:101F00008B810E9440238B81811103C00E94292371
:101F1000CEC08091BD0581608093BD0560E086954F
:101F20000E944023C4C08B818093C105C0C00E9421
:101F3000F11EBDC08A81813899F030F4803809F0F3
:101F4000B6C08091C00516C0823891F0833809F080
:101F5000AEC08091BE058B838091BF058C83A7C0E6
:101F60008091BD0580FF02C0869504C080E002C05C
:101F70008091C1058B839BC06091BD057091BE05AA
:101F80008091BF059091C0050E94F61D90C080E130
:101F90004BC082E08A8389E5EDCF0A811B8110273F
:101FA00001271027CC80D12C4701C80189559E4FAD
:101FB00094012E193F092C153D0508F078C009350C
:101FC00042E0140728F40E946531F401848302C0C2
:101FD000F40114820F5F1F4FFFEF8F1A9F0AE5CFA6
:101FE0000A811B81102701271027CC80D12C4701A3
:101FF000C80189559E4F94012E193F092C153D05A6
:1020000008F055C0093522E0120720F4F40164817C
:102010000E9479310F5F1F4FFFEF8F1A9F0AE8CFA1
:102020000E94332C44C084E08A8341C00A811B8112
:10203000102701271027CC80D12C4701C801879693
:1020400094012E193F092C153D0588F5003821E033
:10205000120728F40E946531F401848302C0F40160
:1020600014820F5F1F4FFFEF8F1A9F0AE7CF0A817D
:102070001B81102701271027CC80D12C4701C801D4
:10208000879694012E193F092C153D0580F40038E0
:1020900021E0120720F4F40164810E9479310F5F7E
:1020A0001F4FFFEF8F1A9F0AEACF8FEF898380912E
:1020B000CC04843009F0EBCC1091E9001F709091B2
:1020C000EC00892F817090FD80E8182B82E08093CE
:1020D000E9008091E80080FF0CC040E050E060E241
:1020E00070E0C7010E94A91C8091E8008E77809360
:1020F000E8001F701093E900CACC09BD19BD09B4EE
:1021000000FEFDCF8091D8008F7D8093D800809114
:10211000E00082608093E0008091E00081FDFCCFD0
:102120000E947327BBCC86E290E00E9465311B823F
:102130001C821D828E83BBCF80E00895909159044C
:1021400092FF0DC0282F2871283019F4877F8460F2
:1021500006C0282F2471243011F48B7F886093FFF0
:102160000DC0282F2871283119F4877E846106C09C
:10217000282F2471243111F48B7E886120915A0418
:1021800020FF0DC0382F3871383019F4877F8160F7
:1021900006C0382F3171313011F48E7F886021FFF5
:1021A0000DC0282F2871283119F4877E816106C05F
:1021B000282F2171213111F48E7E886194FD877E54
:1021C0000895AF92BF92CF92DF92EF92FF920F935A
:1021D0001F93CF93DF937C015B016A018091BE0462
:1021E0008A3018F001E010E002C00AE010E0C1E01F
:1021F000D0E0F894B501C701F601099578948111F2
:1022000015C021960C171D0794F0CC9F9001CD9F0F
:10221000300D300D112480E090E045E34A95F1F750
:102220000000019682179307C1F7E3CF81E0DF91A9
:10223000CF911F910F91FF90EF90DF90CF90BF90C3
:10224000AF900895CF93DF93CDB7DEB728970FB641
:10225000F894DEBF0FBECDBF85E0EDEBF5E0DE010B
:10226000119601900D928A95E1F7809193059091D6
:102270009405A09195058E839F83A887288540911A
:10228000BA045091BB046091BC047091BD043FB787
:10229000F8948091D0059091D105A091D205B0918C
:1022A000D3053FBF841B950BA60BB70B8436910556
:1022B000A105B10510F4222329F18091A702909184
:1022C000A80287559B4F4091A60250E04930510526
:1022D00010F048E050E0BE016F5F7F4F0E94203653
:1022E00083E090E00E94AD30892B11F080E00DC0BA
:1022F0000E94F82A6093BA047093BB048093BC04D4
:102300009093BD041092950581E028960FB6F8943D
:10231000DEBF0FBECDBFDF91CF910895CF93DF9386
:1023200000D000D0CDB7DEB74091A5045091A604EF
:102330006091A7047091A8042FB7F8948091D005FC
:102340009091D105A091D205B091D3052FBF841BE8
:10235000950BA60BB70B84369105A105B10580F14D
:102360000E94392BDC01CB010296A11DB11D89838E
:102370009A83AB83BC8380919D0290919E02875586
:102380009B4F40919C0250E04530510510F044E0D5
:1023900050E0BE016F5F7F4F0E94203682E090E0E8
:1023A0000E94AD30892B11F080E00BC00E94F82A0A
:1023B0006093A5047093A6048093A7049093A80447
:1023C00081E00F900F900F900F90DF91CF910895C3
:1023D000EF92FF921F93CF93DF9300D000D01F9214
:1023E000CDB7DEB77B0180E090E00E94AD30892B55
:1023F00009F065C040918B0250E04115510511F084
:1024000041E050E060918C0270918D0267557B4FE6
:10241000CE0105960E9420364091A1045091A2045D
:102420006091A3047091A4042FB7F8948091D00513
:102430009091D105A091D205B091D3052FBF841BF7
:10244000950BA60BB70B84369105A105B10538F4A1
:102450008AEA94E00E94F4179D81891791F181E046
:1024600090E00E94AD30892BA1F44091950250E09C
:102470004530510510F044E050E0609196027091B3
:10248000970267557B4FCE0101960E94203611E0DE
:1024900001C010E08AEA94E00E94F41791E02D81D7
:1024A000281390E0192341F10E94F82A6093A104B7
:1024B0007093A2048093A3049093A4040FC010E02F
:1024C00001C011E08091AA049091AB04A091AC04EA
:1024D000B091AD0489839A83AB83BC83112361F0EF
:1024E00089819A81AB81BC8180939D0490939E04E5
:1024F000A0939F04B093A00480919D0490919E04AA
:10250000A0919F04B091A004F70180839183A283DE
:10251000B383812F0F900F900F900F900F90DF914A
:10252000CF911F91FF90EF90089580919C048111AD
:1025300018C08091D80080618093D8008AE18A9584
:10254000F1F700C08091D90080FD02C082E001C097
:1025500081E080939C04823021F40E94211B109220
:10256000CC0481E090919C04913009F080E00895C2
:10257000F894E82FE295EF70F0E031A1282F2F704A
:1025800081E090E001C0880F2A95EAF7982F909596
:10259000932391A392A1892B82A378940895CF933A
:1025A000DF938238910569F1B0F48133910509F424
:1025B0006FC048F48932910509F465C08A329105EB
:1025C00009F46BC08AC08533910509F457C089337B
:1025D0009105B9F082C0833E910571F138F4803ED7
:1025E0009105B1F0823E910511F177C0863E9105CB
:1025F000B9F1873E9105C9F1843E910509F06DC09E
:1026000024C02091590420FD53C021FD51C065C054
:102610008091590480FD46C080915A0480FF48C0D3
:102620008091590484FD3FC183EE90E03EC18091CA
:10263000590482FF3AC0F4CF8091590482FD35C01D
:1026400080915A0480FD34C0EBCF80915A0481FF01
:1026500035C08091590484FD26C187EE90E025C1E4
:102660008091590483FF27C0F4CF8091590483FDE2
:1026700022C080915A0481FD21C0EBCF8091590482
:1026800085FD1FC021C08091590485FD1DC019C062
:102690008091590486FD1BC01DC08091590486FDA0
:1026A00019C015C089E390E000C182EE90E0FDC042
:1026B00080EE90E0FAC086EE90E0F7C084EE90E005
:1026C000F4C089E290E0F1C085E390E0EEC08AE2D8
:1026D00090E0EBC081E390E0E8C0811532E593071C
:1026E00008F069C0811541E5940728F0982F8827E4
:1026F000816F906ADAC0883E910568F5803E910549
:1027000008F0D3C0883A9105B8F4853A910548F0AD
:10271000855AE82FF0E0E451FC4F808190E090640E
:10272000C4C08130910509F4BBC008F4BCC084303A
:10273000910508F4B8C0B9C08F3B910508F0B3C04B
:10274000885AE82FF0E0EE0FFF1FE151FC4F808127
:1027500091819464AAC0811520E59207F0F09C0154
:1027600074E0369527957A95E1F7922F9370482F6C
:10277000437021E030E002C0220F331F4A95E2F798
:102780003C68392B8F70982F9695969540E2949FD0
:10279000C0011124822B932B88C0811530E493074C
:1027A00018F09F70906A81C09C013A9521153F41B5
:1027B00008F47BC078C0EC01C11586E5D807E8F5C0
:1027C000C11525E5D20748F08C2F0E949E108F710D
:1027D00090E0982F8827906268C0C11534E5D30730
:1027E00028F09C2F8827846F906A5FC0AE014370E9
:1027F00055272C2F26952695C115D34578F481E0D1
:1028000090E002C0880F991F4A95E2F740E2249FAA
:1028100090011124822B932B9C6847C081E090E0AB
:1028200002C0880F991F4A95E2F740E2249F900169
:102830001124822B932B9A6838C0C1152AE5D20740
:10284000F8F4C11539E5D30790F08C2F8F700E94F2
:102850009E1094E0D695C7959A95E1F7CF70D0E099
:10286000DC2FCC27D0699E01282BC9011EC0C115C1
:1028700048E5D407C0F09C2F8827806F906A15C068
:10288000CE0190568115904270F48D2F8F710E9469
:102890009E10282F2F71CE0199279062922B05C090
:1028A00081E090E002C080E090E0DF91CF91089558
:1028B000CF9384E090E00E946531C82F82E290E0DF
:1028C0000E9465312C2F30E0A901582BCA01CF910D
:1028D000089580E090E00E947331893E9E4F11F48C
:1028E0000C94D72C80E008957F928F929F92AF92A4
:1028F000BF92CF92DF92EF92FF920F931F93CF93ED
:10290000DF93CDB7DEB72C970FB6F894DEBF0FBEBE
:10291000CDBF9E012F5F3F4F790188E0D9011D9205
:102920008A95E9F70EED13E0690182EE882E83E0C7
:10293000982EAA24A394B12CF80180818F3F09F42A
:1029400048C0F894E82FE295EF70F0E021A18F7075
:10295000A50102C0440F551F8A95E2F7CA01922FC4
:10296000982B91A392A18095892382A3789400C08B
:10297000E6EEF3E020E030E0712C81918F3FB9F07A
:10298000A82FA295AF70B0E090964C9150E08F7058
:10299000DA0102C0B595A7958A95E2F7A0FD07C0B8
:1029A0008A2D022E01C0880F0A94EAF701C080E048
:1029B000782A2F5F3F4F26303105F9F6F8018081E4
:1029C0008F3F11F00E94B812F0EAFA95F1F7D601A4
:1029D0007C920F5F1F4FBFEFCB1ADB0A8016910668
:1029E00009F0AACF48E050E0B7018BE594E00E94DF
:1029F00013368C01892B41F088E0F701ABE5B4E098
:102A000001900D928A95E1F7F0906404011511058B
:102A100049F081E0809380040E94042B90937F040E
:102A200080937E04809180048823B9F080917E0495
:102A300090917F040E94E92A059778F0ABE5B4E015
:102A4000EF2DF0E0EB58FB4F8FE594E02D912193B3
:102A50008A179B07D9F7109280040115110509F018
:102A60003EC10E949512E0916404882309F4B8C025
:102A700019861A861B861C860E2F10E00B581B4FDA
:102A80008091BE04FE013D967F018A3058F448EEE5
:102A900051E1BE01675F7F4FC8010E94E1108823AA
:102AA00011F10AC080918104909182040E94E92A68
:102AB000843F914060F728C04EE851E1BE01675F56
:102AC0007F4FC8010E94E110882369F042E251E182
:102AD000BE01675F7F4FC8010E94E110882319F093
:102AE0001092BE0419C08091BE048F3F19F08F5F11
:102AF0008093BE048091BE048A3070F00E94042B43
:102B00009093820480938104E0916304F0E0EB5899
:102B1000FB4FDE01199613C0E0916304F0E0EB581F
:102B2000FB4FDE01199600E08D919081981711F00E
:102B3000808301E03196EA16FB06B1F706C01192D8
:102B40001D92EA16FB06D9F701E0809197048823CD
:102B500009F4C7C08091950490919604009781F480
:102B60000E94042B909396048093950440919404C2
:102B700050E04115510571F42091930430E00BC0F1
:102B80000E94E92A20918402309185022817390792
:102B900038F3A7C09A0121503109FA01ED57FB4FD4
:102BA000108180913305882341F0F901ED57FB4FE7
:102BB00080810E941E2F0E94C220809133058823AD
:102BC00019F0812F0E943D2F8091940490E001968E
:102BD0006091930470E00E9486358093940481C0D4
:102BE000F0E0EB58FB4FF89484E0AAEAB4E00190DF
:102BF0000D928A95E1F78AEA94E00E94F417809397
:102C0000A9047894F894C090AE04D090AF04E090FA
:102C1000B004F090B1048091980490919904A0912F
:102C20009A04B0919B04C816D906EA06FB06D1F0B7
:102C3000C0929804D0929904E0929A04F0929B0476
:102C40000E94951281110EC00E94F82AC61AD70A56
:102C5000E80AF90AC092CB05D092CC05E092CD05E6
:102C6000F092CE057894F8948091B9048823A9F164
:102C700080FF10C08091B20480FF0AC09091BD0512
:102C800091609093BD0560E086950E94402302C04C
:102C90000E9429238091B90481FF09C020E040915E
:102CA000B5046091B4048091B3040E94F11E809138
:102CB000B90482FF09C08091B804882319F00E94EA
:102CC000261D02C00E94082D8091B90483FF03C015
:102CD00081E0809338051092B904789402C001E035
:102CE00010E0802F2C960FB6F894DEBF0FBECDBF3C
:102CF000DF91CF911F910F91FF90EF90DF90CF90D8
:102D0000BF90AF909F908F907F9008958091CE0458
:102D100087FF11C08091E80082FD05C08091CC043E
:102D20008111F8CF11C08091E8008B770BC08091A2
:102D3000CC04882349F08091E80080FFF8CF80918F
:102D4000E8008E778093E8000895982F973068F513
:102D50009093E900981739F07091EC002091ED0004
:102D60005091F00003C0242F762F50E021FD02C0C7
:102D70009F5FECCF3091EB003E7F3093EB003091C2
:102D8000ED003D7F3093ED003091EB0031603093EA
:102D9000EB007093EC002093ED005093F000209135
:102DA000EE0027FDE5CF80E008958F708093E90065
:102DB00081E008952091D4043091D5042617370777
:102DC00048F06115710539F42091E8002E772093C1
:102DD000E80001C0B901FC0120E06115710579F13D
:102DE0008091CC048823F1F18530F1F18091E800E5
:102DF00083FD3CC08091E80082FD2EC08091E800F8
:102E000080FFEBCF2091F3008091F20090E0922BB5
:102E10006115710551F08830910538F421912093A6
:102E2000F100615071090196F3CF21E0089709F094
:102E300020E08091E8008E778093E800CECF2111CA
:102E4000CFCF0AC08091CC04882361F0853061F037
:102E50008091E80083FD0AC08091E80082FFF2CFF4
:102E600080E0089582E0089583E0089581E0089568
:102E7000BC0184E00C94752ABC0183E00C94752A93
:102E800080912905982F9670963011F4886001C0C2
:102E9000877F0C943027CF92DF92EF92FF92E091E0
:102EA0002805EE23D9F0E15088E0E802F001112472
:102EB000E851FB4FC280D380E480F58020E030E011
:102EC000A901C701B6010E94AD3118163CF48091EA
:102ED000E704811106C01092E60403C0C12CD12C76
:102EE0007601C701B601FF90EF90DF90CF90089573
:102EF000CF92DF92EF92FF92CF93DF932091E50480
:102F000020FD08C0DF91CF91FF90EF90DF90CF9030
:102F10000C943D217B01EC018091E404811102C0FD
:102F20000E94D82E8091E30481110E943D2181E00E
:102F30008093E2041092E104D093E004C093DF0494
:102F4000F092DE04E092DD041092DC041092DB04C7
:102F50001092DA046C817D818E819F810E942432DF
:102F60009B01A0E6BAEE0E94D135C12C2EE1D22EF3
:102F7000E12CF12CA70196010E949A356881798194
:102F80008A819B81A9010E94F21F0E94042B9093C9
:102F9000D9048093D8048091DF049091E004E091FB
:102FA000DA04F091DB0433E0EE0FFF1F3A95E1F70E
:102FB000E80FF91F64817581868197810E94243210
:102FC0009B01A0E6BAEE0E94D135A70196010E94AE
:102FD0009A353093D7042093D604DF91CF91FF9098
:102FE000EF90DF90CF900895FC01AC014C5F5F4FF4
:102FF0008FEF91E32191822728E030E087FF03C023
:10300000880F892701C0880F21503109B9F7E417CB
:10301000F50781F708951F93CF93DF93CDB7DEB700
:10302000AA970FB6F894DEBF0FBECDBFEEECF4E06A
:103030008091F100819344E0E63DF407C9F7809167
:10304000CF04833009F462C030F4813071F08230F3
:1030500009F49CC0B3C08A3009F488C08B3009F4ED
:103060006DC0893009F0AAC020C08091CE04813A99
:1030700009F0A4C08091E800877F8093E8008091E8
:10308000D2049091D304892B21F468E082EC94E07F
:1030900003C060E080E090E070E00E94DA1680916A
:1030A000E8008B778093E80089C08091CE0481325C
:1030B00009F084C08091D2049091D304009719F054
:1030C000029709F07BC08091E800877F8093E80039
:1030D0008091E80082FD05C08091CC048111F8CF79
:1030E0006DC02091F3008091F20090E0922B029746
:1030F00029F48091F1008B7F813021F48091F100DF
:103100008093C1048091E8008B7754C08091CE04F5
:10311000813A09F053C08091D2049091D304892B55
:1031200009F04CC08091E800877F8093E80080918F
:10313000E80080FFFCCF8091AE0237C08091CE04C2
:103140008132E1F58091D2049091D304892BB1F5BD
:103150008091E800877F8093E8000E948616809126
:10316000D0048093AE020E94732728C08091CE04C1
:10317000813221F58091E800877F8093E8000E94EA
:1031800086168091D1048093C00418C08091CE042B
:10319000813AA1F48091E800877F8093E8008091D4
:1031A000E80080FFFCCF8091C0048093F100809103
:1031B000E8008E778093E8000E9486168091E800F0
:1031C00083FFDDC18091CE049091CF04492F50E060
:1031D0004A30510508F0D3C1FA01EB58FF4F0C9467
:1031E000BC35803821F0823809F0C9C108C080910F
:1031F000CA049091CB04992389F082600FC080911A
:10320000D2048F70873008F0BAC18093E9008091B2
:10321000EB0085FB882780F91092E9009091E80087
:10322000977F9093E8008093F1001092F10070C1B5
:10323000282F2D7F09F0A3C1882319F0823061F077
:103240009EC18091D004813009F099C1933009F07A
:1032500080E08093CB042EC08091D00481112AC0DD
:103260008091D2048F702FEF280F263008F087C18D
:103270008093E9002091EB0020FF1CC0933021F4E3
:103280008091EB00806214C09091EB00906190936C
:10329000EB0021E030E0A90102C0440F551F8A95E0
:1032A000E2F74093EA001092EA008091EB00886018
:1032B0008093EB001092E9008091E800877F809373
:1032C000E8000E9486165BC1811159C11091D0049B
:1032D0001F778091E3008078812B8093E3008091B9
:1032E000E800877F8093E8000E9486168091E800BE
:1032F00080FFFCCF8091E30080688093E300111190
:1033000002C082E001C083E08093CC0438C18058C1
:10331000823008F034C12091D0043091D1042C3D8A
:1033200053E0350779F583E08A838AE289834FB7D2
:10333000F894DE01139620E03EE051E2E32FF0E046
:1033400050935700E49120FF03C0E295EF703F5F78
:10335000EF708E2F90E0EA3010F0C79601C0C09653
:103360008D939D932F5F243149F74FBF8091E800E3
:10337000877F8093E8006AE270E0CE0101960E94A8
:10338000DA16B4C08091D2049091D304432F55270C
:1033900043305105A9F068F44130510509F4FEC0ED
:1033A0004230510509F0EBC08BE590E0E2EFF2E02E
:1033B0004BC04132510529F14232510589F1DFC03C
:1033C000C901992781309105A1F058F0029709F0C1
:1033D000D6C0EFE5F3E0E4918E2F90E0EFE5F3E067
:1033E00030C0EFE8F3E0E4918E2F90E0EFE8F3E0F7
:1033F00028C0EBE7F3E0E4918E2F90E0EBE7F3E0F9
:1034000020C08330910508F0BAC0880F991FFC01D5
:10341000E85DFB4F0190F081E02D89E090E014C061
:103420008330910508F0ABC0FC01EE0FFF1FEE5D8D
:10343000FB4F0190F081E02DDC01A15EBB4F8C9130
:1034400090E0009709F49BC02091E800277F20932B
:10345000E8002091D4043091D5042817390708F4E6
:10346000C90140E0009789F12091CC04222309F49E
:103470003DC02530D9F12091E80023FD37C02091CF
:10348000E80022FD2FC02091E80020FFEBCF409103
:10349000F3002091F20030E0342B009759F02830EF
:1034A000310540F444914093F100319601972F5F2C
:1034B0003F4FF3CF41E02830310509F040E0209143
:1034C000E8002E772093E800CDCF4111CDCF0AC080
:1034D0008091CC04882351F0853041F08091E80040
:1034E00083FD04C08091E80082FFF2CF8091E80064
:1034F0008B778093E80043C0803809F040C080910A
:10350000E800877F8093E8008091CD048093F100EC
:103510008091E8008E77D3CE811131C08091D004A4
:103520009091D1049927029754F58091E800877F04
:103530008093E8001091D0041093CD040E94861669
:10354000111106C08091E30087FD02C081E001C037
:1035500084E08093CC0442E061EC81E00E94A516F7
:1035600042E261EC84E00E94A51642E261EC82E056
:103570000E94A51642E260EC83E00E94A5168091AD
:10358000E80083FF10C08091E800877F8093E80007
:103590008091EB0080628093EB0005C082E190E0B7
:1035A000EDE4F3E051CFAA960FB6F894DEBF0FBE5C
:1035B000CDBFDF91CF911F9108951F920F920FB64B
:1035C0000F9211242F933F934F935F936F937F93A9
:1035D0008F939F93AF93BF93CF93DF93EF93FF931B
:1035E000C091E900CF708091EC00D82FD17080FDA0
:1035F000D0E81092E9008091F000877F8093F0007E
:1036000078940E940B181092E9008091F000886075
:103610008093F000CD2BCF70C093E900FF91EF9124
:10362000DF91CF91BF91AF919F918F917F916F91DA
:103630005F914F913F912F910F900FBE0F901F9070
:103640001895E8EDF0E080818E7F80831092E20093
:103650001092DA001092E100A0EEB0E08C9181604F
:103660008C9380818F77808319BCA7EDB0E08C911B
:103670008E7F8C9380818F7E80831092BF0408950B
:10368000CF92DF92EF92FF920F931F93CF93DF932E
:10369000C8EDD0E088818F7E8883E7EDF0E08081FF
:1036A0008160808384E082BF81E08093BF04888151
:1036B0008E7F888302EE10E0F80110821092DA000B
:1036C00081EEC82ED12CF601108288818F778883F5
:1036D00088818068888388818F7D888319BC109257
:1036E000CC041092CD041092CB041092CA0490EE38
:1036F000E92EF12CF70180818B7F808388818160A6
:10370000888342E060E080E00E94A516F601808197
:103710008E7F8083F80180818160808380818860D2
:103720008083F70180818E7F808388818061888398
:10373000DF91CF911F910F91FF90EF90DF90CF908D
:1037400008951F920F920FB60F9211242F933F935B
:103750004F935F936F937F938F939F93AF93BF9399
:10376000EF93FF938091E10082FF09C08091E20016
:1037700082FF05C08091E1008B7F8093E100809102
:10378000DA0080FF2AC08091D80080FF26C0809197
:10379000DA008E7F8093DA008091D90080FF18C014
:1037A00080E189BD82E189BD09B400FEFDCF81E0E1
:1037B0008093CC048091BF0481110FC00E94211B13
:1037C0000E94401B8091E20084608093E20005C06B
:1037D00019BC1092CC041092BF048091E10080FFCC
:1037E00017C08091E20080FF13C08091E2008E7FBD
:1037F0008093E2008091E20080618093E2008091FA
:10380000D80080628093D80019BC85E08093CC04F6
:103810008091E10084FF2EC08091E20084FF2AC0E5
:1038200080E189BD82E189BD09B400FEFDCF8091B0
:10383000D8008F7D8093D8008091E1008F7E8093A7
:10384000E1008091E2008F7E8093E2008091E200AF
:1038500081608093E2008091CD04882311F084E0A0
:1038600007C08091E30087FD02C081E001C083E0D2
:103870008093CC048091E10083FF27C08091E20017
:1038800083FF23C08091E100877F8093E10082E085
:103890008093CC041092CD048091E1008E7F8093C0
:1038A000E1008091E2008E7F8093E2008091E2004F
:1038B00080618093E20042E060E080E00E94A51613
:1038C0008091F00088608093F000FF91EF91BF91AC
:1038D000AF919F918F917F916F915F914F913F91A8
:1038E0002F910F900FBE0F901F9018952091E4001C
:1038F0003091E50095E64091EC00842F817040FF07
:1039000023C08091E80080FD1DC08091CC048823F5
:1039100099F0853099F08091EB0085FD11C04091C0
:10392000E4005091E5002417350729F3915011F078
:103930009A01E1CF84E0089582E0089583E008953C
:1039400081E0089580E008954091E80042FFDDCFD6
:103950000895EF92FF920F931F93CF93DF937C0113
:103960008B010E94761C811119C0E7010115110518
:10397000A1F08091E80085FD0AC08091E8008E7773
:103980008093E8000E94761C882381F307C0899108
:103990008093F10001501109E9CF80E0DF91CF91D0
:1039A0001F910F91FF90EF900895CF92DF92EF92C9
:1039B000FF926B017C0120E030E0A9010E94AD3153
:1039C000811106C0809190008F738093900039C060
:1039D00080919000806880939000C0922B05D092D7
:1039E0002C05E0922D05F0922E0520E030E040E01D
:1039F00051E4C701B6010E9405339B01AC0160E0B0
:103A000074E284E79BE40E94B2316B017C010E9466
:103A10002432709397006093960020E030E048E4F1
:103A200052E4C701B6010E94053320E030E048ECC3
:103A300052E40E94B2310E94243270939900609344
:103A40009800FF90EF90DF90CF9008956091BD05B2
:103A5000669570E04BE050E080E793E00E94063608
:103A6000892B19F481E0809394050E94542B909344
:103A70003605809335058091950584608093950582
:103A80000895CF92DF92EF920F931F93CF93DF931E
:103A9000CDB7DEB7A4970FB6F894DEBF0FBECDBF8B
:103AA00060917F038091BD0580FF0AC0E8E9F4E0E2
:103AB000AE014F5F5F4F8E010B5D1F4FCA0114C0F7
:103AC0008091800390918103891780F7E82FF0E0BF
:103AD0009F01220F331FE20FF31FE756FA4F1182A7
:103AE000108212828F5FF0CF249130E0D901AA0FAB
:103AF000BB1F2A0F3B1FD901A756BA4FCD90DD90AF
:103B0000EC90DA01CD92DD92ED92AD013196A017E5
:103B1000B10751F720917E03FC01B3E02B9FE00D2C
:103B2000F11D1124539A8BB1877F9BB198602FB7F9
:103B3000F894AF0133E0639F400D511D1124E41749
:103B4000F50789F0319168E09BB9000000C037FFAC
:103B50008BB9330F000000C000C000C08BB900C09B
:103B60006A9591F7ECCF2FBF8FE594E00197F1F7BD
:103B700000C00000A4960FB6F894DEBF0FBECDBF04
:103B8000DF91CF911F910F91EF90DF90CF9008952B
:103B90009091BD0590FF16C0909180032091810304
:103BA000921770F4E92FF0E0DF01AA0FBB1FEA0FB4
:103BB000FB1FE756FA4F8183608342839F5FF0CFFC
:103BC0000C94411D08958091BD05282F269530E065
:103BD0002115310519F48170826005C02532310547
:103BE00024F0817088648093BD050895CF92DF92A0
:103BF000EF92FF926B017C010E94E31DB701A601C9
:103C000088E090E0FF90EF90DF90CF900C948B31A4
:103C10008091C105882319F081508093C10560917E
:103C2000BD057091BE058091BF059091C0050C94B3
:103C3000F61D8091C105833018F48F5F8093C10514
:103C40006091BD057091BE058091BF059091C00542
:103C50000C94F61DEDEBF5E083E0808311828FEF8D
:103C6000828383831482A3E9B5E012968C91129724
:103C7000836012968C9360817181828193810C9410
:103C8000F61DAF92BF92CF92DF92EF92FF920F9309
:103C90001F93CF93DF93E82EF62EE901E42FF0E097
:103CA000611106C0ED56FC4FE4914E2F2E2F71C0CE
:103CB000062F10E0ED56FC4F4491F42FC42ED12C6A
:103CC00026E0829FC00111242FEF30E0B9010E944D
:103CD00072355BEA5603C001579F900D11248E0D7B
:103CE000911D8E0D911D582F550F580FD901A01BF6
:103CF000B10BAC9DC001AD9D900DBC9D900D1124EC
:103D0000E92FF59ED0011124AB2FBB277901EA1AC8
:103D1000FB0AEC9CD001ED9CB00DFC9CB00D112475
:103D20005901A51AB108A09E7001A19EF00CB09E89
:103D3000F00C1124EF2CFF242E193F092C9D80013B
:103D40002D9D100D3C9D100D1124212F6230710509
:103D500091F048F461157105E1F061307105B9F435
:103D6000242F4B2F16C06430710569F040F0663087
:103D7000710579F00CC0242F492FE12F0AC0492F7B
:103D8000EF2F2B2F06C0292FE42F412F02C0292F00
:103D9000EB2F49832883EA83DF91CF911F910F9105
:103DA000FF90EF90DF90CF90BF90AF900895CF93AA
:103DB000DF9300D01F92CDB7DEB79091BD0590FF85
:103DC0000AC09E012F5F3F4F0E94411E4B816981B7
:103DD0008A810E94C81D0F900F900F90DF91CF91A4
:103DE0000895AF92BF92CF92DF92EF92FF920F931E
:103DF0001F93CF93DF9300D01F92CDB7DEB7182F5C
:103E0000F62E042FE22E9091BD0590FF7EC0E92F83
:103E1000E695AE2FB0E0A25DBB4F8C9180939305E9
:103E20009E7F923061F49E012F5F3F4F812F0E9451
:103E3000411E4B8169818A810E94C81D43C0823026
:103E400019F40091C0053EC0863019F41091BE05EA
:103E500039C08930D9F38931A9F5E9518E2F8170A4
:103E6000D82EE695F0E0ED56FB4FA590B490C12C0E
:103E7000BB2460918203C61618F52C2D30E0A29E5B
:103E8000C001A39E900DB29E900D112470E00E947F
:103E90007235812FD11002C0860F01C0861B909110
:103EA0008003290F311DA901440F551F240F351F11
:103EB00027563A4F402F6F2D0E94411EC394D9CFF1
:103EC0000E94411D8091BE05181308C08091BF0556
:103ED000F81204C08091C005081729F0809195055B
:103EE0008260809395051093BE05F092BF05009304
:103EF000C005EE2051F06091BD057091BE05809126
:103F0000BF059091C0050E94F61D0F900F900F9075
:103F1000DF91CF911F910F91FF90EF90DF90CF90A5
:103F2000BF90AF900895EDEBF5E0438128E0421B90
:103F300008F440E021E0628181810C94F11EEDEBF8
:103F4000F5E0438128E0420F08F44FEF21E0628161
:103F500081810C94F11EEDEBF5E0628128E0621B9B
:103F600008F460E021E0438181810C94F11EEDEBC7
:103F7000F5E0628128E0620F08F46FEF21E04381F1
:103F800081810C94F11EEDEBF5E0818121E043810C
:103F9000628188500C94F11EEDEBF5E0818121E007
:103FA00043816281885F0C94F11E81E08093340527
:103FB00068E070E080E393E00C94781781E08093F0
:103FC000330568E070E080EB92E00C947817E1E74D
:103FD000F0E080818D7F8083E0E9F0E080818F7365
:103FE000808308957F928F929F92AF92BF92CF92DB
:103FF000DF92EF92FF920F931F93CF93DF934B01CA
:104000005C016A018091E50480FFAEC08091E40408
:10401000811102C00E94D82E20E030E0A901C50124
:10402000B4010E94AD3187FF04C0B7FAB094B7F86D
:10403000B09470902805072D10E0E801219743E027
:10404000000F111F4A95E1F7E12CF12CCF3FFFEF54
:10405000DF07D9F128E0E21AF108F801EE0DFF1DA3
:10406000E851FB4F2281338144815581C501B40160
:104070000E94AD31811127C08E0133E0000F111F66
:104080003A95E1F708511B4F8091280590E0019780
:10409000C817D9070CF068C0219688E0F801389657
:1040A000D80101900D928A95E1F70E94042BF80146
:1040B0009187808782869386A486B586D786C686B2
:1040C000085F1F4FE1CF2197C1CF81E0870D893075
:1040D00020F58093280581E080932A058093E304EE
:1040E000C0912805D0E021970E94042BFE0123E017
:1040F000EE0FFF1F2A95E1F7E851FB4F9183808374
:1041000082829382A482B582D782C6820E94042BC7
:104110008091AF02882341F113C088E08093280585
:1041200088EE94E028E0FC013896DC0101900D92C5
:104130002A95E1F7089625E08032920799F7CBCFD0
:1041400080917100826080937100809190008068FE
:10415000809390008091E304882321F00E944B1704
:104160000E94D51C1092AF02DF91CF911F910F9149
:10417000FF90EF90DF90CF90BF90AF909F908F9087
:104180007F900895CF92DF92EF92FF920F931F934B
:10419000CF93DF936B017C0120E030E0A9010E9406
:1041A000AD3187FF04C0F7FAF094F7F8F0948091EE
:1041B000E304882309F458C08091E404811102C00B
:1041C0000E94D82E08EE14E0C7E0D0E0F80122AD3E
:1041D00033AD44AD55ADC701B6010E94AD3181117B
:1041E0002BC083E0CC0FDD1F8A95E1F7C851DB4F70
:1041F0001982188280E090E0A0E8BFEB8A839B835D
:10420000AC83BD831F821E82AC01BD01F5E0C032CC
:10421000DF07D1F088E0FE013896DE0101900D92B3
:104220008A95E1F7198618864A875B876C877D87B0
:104230001F861E862896EACF219708501109CF3F86
:104240008FEFD80719F610C0C1E0C0932A058091FE
:104250002805815080932805811106C00E94E71F20
:10426000C093AF021092E304DF91CF911F910F91A1
:10427000FF90EF90DF90CF9008958091AF02811171
:1042800022C0109228050E94E71F1092E2041092AB
:10429000E3041092D7041092D604E8EEF4E080E034
:1042A00090E0A0E8BFEB1182108282839383A48305
:1042B000B58317821682389625E0E832F20799F71F
:1042C00081E08093AF0208958091330581110C94B1
:1042D0003D2108950E9464211092330568E070E04A
:1042E00080EF92E00C9478171F920F920FB60F9206
:1042F00011244F925F926F927F92AF92BF92CF92B2
:10430000DF92EF92FF920F931F932F933F934F9360
:104310005F936F937F938F939F93AF93BF93CF934D
:10432000DF93EF93FF9380912F0590913005A0913B
:104330003105B09132050196A11DB11D80932F0565
:1043400090933005A0933105B093320560912F050D
:104350007091300580913105909132050E94533261
:104360006B017C0120E030E040E85CE360912B05CC
:1043700070912C0580912D0590912E050E9405339A
:104380009B01AC01C701B6010E94AD3187FD42C15E
:1043900010922F05109230051092310510923205BF
:1043A0008091E304811105C0C091E204CC2309F49B
:1043B00020C10E94042BEC018091E204811102C013
:1043C00010E0E3C08091D8049091D9040E94E92ABA
:1043D0002091D6043091D7048217930788F38091F7
:1043E000D8049091D9040E94E92A2091D6043091F2
:1043F000D7047C01E21AF30AD093D904C093D804FD
:104400000091DA041091DB04C80101969093DB045B
:104410008093DA040E94042BA090DD04B090DE04A7
:104420008091DA049091DB048A159B0560F0C091BD
:10443000DC04CC2329F01092DB041092DA0403C0D0
:104440000E943D21D6C08091E104C091DA04D09150
:10445000DB04C090DF04D090E004811131C0F8018A
:1044600053E0EE0FFF1F5A95E1F7EC0DFD1DDE0145
:1044700063E0AA0FBB1F6A95E1F7AC0DBD1D2D913E
:104480003D914D915C9160817181828193810E9407
:10449000AD31811115C081E08093E1044FE050E01F
:1044A00060E070E0CB010E94F21F1093DB040093E8
:1044B000DA048FE090E09093D7048093D60464C030
:1044C0001092E1048E0133E0000F111F3A95E1F7DD
:1044D0000C0D1D1DF80164817581868197810E94F4
:1044E00024329B01A0E6BAEE0E94D13520E03EE1E5
:1044F00040E050E00E949A35F1E0AF1AB108412C3B
:104500004EE1542E612C712C2E153F0550F0D093A6
:10451000DB04C093DA04E216F306E0F0C1E0D0E079
:104520001CC0085F1F4FCA15DB0588F7E21AF30AA3
:104530002196F80164817581868197810E942432D9
:104540009B01A0E6BAEE0E94D135A30192010E9420
:104550009A35DACFE901CE19DF098091DA0490911A
:10456000DB0423E0880F991F2A95E1F7F601E80F95
:10457000F91F6081718182819381AE010E94F21FD7
:10458000D093D704C093D60411E08091E30488232C
:1045900041F18091E604811111E0C8EED4E0E12CF4
:1045A000F12C8091280590E0E816F906D4F48E816C
:1045B0009F8101978E3F9F4F78F4888199810E9457
:1045C000E92A2E813F818217930730F06A817B812F
:1045D0008C819D810E94C2202FEFE21AF20A289658
:1045E000E0CFC0912A05CC2319F010922A0501C012
:1045F000C12F8091E304811107C08091E2048111F1
:1046000003C00E94E71F06C0CC2321F00E944B1775
:104610000E94D51CFF91EF91DF91CF91BF91AF9197
:104620009F918F917F916F915F914F913F912F91CA
:104630001F910F91FF90EF90DF90CF90BF90AF90C0
:104640007F906F905F904F900F900FBE0F901F90D4
:104650001895EDEBF5E080818E7F80830E94082D18
:10466000E3E9F5E08281816082832FEF80E792E0C9
:10467000215080409040E1F700C000000C94411DA3
:104680009091BD0590FF3BC09170811102C0926076
:1046900006C0853210F0986402C0880F982B909362
:1046A000BD0580919505816080939505662351F045
:1046B0006091BD057091BE058091BF059091C005C8
:1046C0000E94F61D6091BD05669570E04BE050E0DC
:1046D00080E793E00E940636892B19F00E94082D8E
:1046E00002C00E94261D81E08093380520E04091A1
:1046F000C0056091BF058091BE050C94F11E089520
:104700008091BD058695815009F484E261E00C94A6
:1047100040238091BD0586958F5F853208F081E04A
:1047200061E00C94402369EE7EEF80E090E00E940F
:10473000973160E082E090E00E94793160E083E0B0
:1047400090E00E9479311092920560E084E090E060
:104750000E94793160E082E290E00E94793160E06D
:1047600085E090E00E94793160E086E090E00E9470
:1047700079316FEF87E090E00E94793140E050E0BE
:10478000BA0188E090E00E948B3160E08DE090E01B
:104790000E94793140E050E0BA0188E190E00E9447
:1047A0008B3160E087E190E00E94793140E050E099
:1047B000BA018CE190E00E948B3160E070E080E211
:1047C00090E00E94973140E050E0BA0188E190E02B
:1047D0000E948B3180E00E94AA2C0E94C82C40E0ED
:1047E00050E0BA018FE090E00E948B3140E050E051
:1047F000BA0183E190E00C948B3180919105811195
:104800001092910508959091900580918F05892BC4
:1048100020918E05982F922B90933B0580919105C6
:10482000882389F0892B80933B05EDE3F5E097E041
:1048300080E0915029F021912223D9F38F5FF9CFA5
:1048400081110E94FD23E091C705F091C8053097C2
:1048500031F00280F381E02D8BE395E00994089517
:1048600080E090E00E949A2B80E090E00E94842BF0
:1048700010928F0510928E050C940324CF93C09153
:104880005A04C2FB992790F9981781F080FBC2F96E
:10489000C0935A046091590484E090E00E947931F9
:1048A0006C2F82E290E0CF910C947931CF910895F2
:1048B00080918C0590915B05891719F08F5F877047
:1048C000FBCF08950F931F93CF93DF9380915A05E9
:1048D00082958F7009F05DC080915705882309F497
:1048E00058C080918C0510915B05609155057091C1
:1048F0005605C0915805D091590591E06F3F09F0D8
:1049000090E0292F06E0811709F443C0209721F099
:104910007F3F21F030E003C031E001C0322F90E052
:1049200030FD34C0089FF001099FF00D1124DF0114
:10493000A45ABA4F11963C911197371327C03C9156
:10494000361324C012963C91129731111FC0139652
:104950004D915C9114974C1B5D0B483C5105B0F494
:1049600080915A058F70806180935A05EF59FA4FF4
:1049700080818F708061808385E595E00E94DB03F4
:10498000DF91CF911F910F910C945824019687705D
:10499000BACFDF91CF911F910F910895CF92DF92FF
:1049A000FF920F931F93CF93DF936C010091290522
:1049B00080919205082BC7E0D0E010E0C8010C2ED2
:1049C00002C0959587950A94E2F780FD04C021976F
:1049D000A8F7F12C09C0FC2EB6018C2F0E949D2C4B
:1049E0000E94CF12019799F38F2DDF91CF911F91E4
:1049F0000F91FF90DF90CF900895CF93DF93EC015C
:104A00000E94CE24BE010E949D2C0E94CF12DF91F5
:104A1000CF910895FC01808191810E94FD24292F6E
:104A20002F70E92FE295EF704E2F50E0FA01329788
:104A3000EE30F105B8F4E158FF4F0C94BC35803FDF
:104A400099F018F4883E70F40FC0843F59F40CC0FC
:104A5000883E50F0813F31F407C0822F86958695BD
:104A60008695089580E0089581E008959F92AF9221
:104A7000BF92CF92DF92EF92FF920F931F93CF934B
:104A8000DF93CDB7DEB761970FB6F894DEBF0FBEE8
:104A9000CDBF8C0185E0F801DE011D9601900D92DD
:104AA0008A95E1F7F801E2809091550560915605ED
:104AB00040915805509159054115510531F06F3F0E
:104AC00031F481E09F3F19F403C081E001C080E030
:104AD000F82FF1709F2E80FD1AC1F80130812181DD
:104AE000C380D48085E5A82E85E0B82EF0905705C8
:104AF000F601E41BF50BFF2009F4C6C080915A05AE
:104B0000E83CF10508F091C0482F407F09F050C003
:104B1000621311C093130FC0FE2CE1100CC08F70F4
:104B2000806180935A05C5010E94DB0380915A057C
:104B3000F801858329C1CD2831F02F3F31F481E080
:104B40003F3F19F403C081E001C080E080FD03C055
:104B500081E08E2502C080E090E0F82FF170FF2EFA
:104B600080FF1CC080918C0540915B0556E0841746
:104B700009F4E8C090E0589FF001599FF00D11240E
:104B8000E45AFA4F6181261306C06081631303C0A3
:104B90006281E61203C001968770E9CFFE2CEE20F9
:104BA00009F4F2C080915A05816080935A0549C08A
:104BB000621306C0931304C0E11002C0F80186C05E
:104BC000C8010E940A25882351F1EE2041F120916D
:104BD0005A05822F82958F7090E0029774F0809131
:104BE00055059091560598878F831986DB86CA866E
:104BF0002C87CE0107960E94DB0386E0F801A5E52D
:104C0000B5E001900D928A95E1F70E9462240AC0F6
:104C10006217C9F0C8010E940A2581111EC0C8018F
:104C20000E94DB03FF24F394AFC0482F407F81F73D
:104C300085E595E00E94DB0386E0F50111928A95F7
:104C4000E9F7F12CA1C09313E5CFE110E3CFF80110
:104C50008583C8010E94DB0354C0EE2001F320913C
:104C60005A05822F82958F7090E0029734F28091DE
:104C70005505909156059A8389831B82DD82CC82EB
:104C80002E83CE010196B7CFE83CF105D0F5FE2C7E
:104C9000EE2029F2621327C0931325C020915A05F4
:104CA00020FD18C0822F82958F70482F50E041154B
:104CB000510581F0F80125834F30510541F08F5F98
:104CC000982F9295907F822F8F70892B8583C801B2
:104CD0000E94DB0386E0F801A5E5B5E001900D92A6
:104CE0008A95E1F751C0C8010E940A25811185CF3C
:104CF00080915A05816080935A05C8010E94DB03A8
:104D000043C086E0F50111928A95E9F73DC0EE2097
:104D100009F485CFC8010E940A25F82E882309F4DA
:104D20007ECF86E0F801A5E5B5E001900D928A9569
:104D3000E1F780915505909156050E94FD240E944F
:104D4000622422C03D872E878D859E850E94FD248A
:104D5000292F22952F70223028F49F7039F081116D
:104D600005C00BC0243028F49F7049F4805E883061
:104D700020F0C8010E94DB039F2CF92C05C0F8012C
:104D80009581907F99F7F9CF8F2D61960FB6F894A2
:104D9000DEBF0FBECDBFDF91CF911F910F91FF906E
:104DA000EF90DF90CF90BF90AF909F900895292F04
:104DB000220F920F990F890F682F66956695669559
:104DC000982F977083E0689FB001112440E050E075
:104DD00080E0FB01E40FF51FED5BFA4F208130E02E
:104DE000092E02C0369527950A94E2F721703327E1
:104DF000042E01C0220F0A94EAF7822B4F5F5F4F07
:104E00004330510531F70895292F220F920F990F42
:104E1000890FE82FE695E695E695877051E001C089
:104E2000550F8A95EAF783E0E89FF0011124ED5BC6
:104E3000FA4F20E030E070E04081CB01022E02C04A
:104E4000969587950A94E2F781708195842785234A
:104E5000842781932F5F3F4F2330310569F70895F1
:104E6000982F9670963011F4886001C0877F8093E8
:104E700029050C94302421E030E001C0220F8A95EE
:104E8000EAF720958091290582230C943027209100
:104E90008D058095822380938D05982F977041F41E
:104EA00030E0482F082E000C550B2417350721F44D
:104EB00090915A0492FF07C08595859585950E942B
:104EC0003B2710928D05089521E030E001C0220FAC
:104ED0008A95EAF780912905822B0C9430278093DC
:104EE00092050C9430241092900586E0EDE3F5E0F5
:104EF000DF011D928A95E9F70C943024882341F054
:104F00008095909190058923809390050C940324BB
:104F10000895882339F090919005892B809390050E
:104F20000C94032408951F93CF93DF93182F893394
:104F300019F0C0E0D0E002C0C0E5D0E0812F0E94AF
:104F40006B2D209741F08FE99FE00197F1F700C0AA
:104F500000002197F6CF812FDF91CF911F910C9404
:104F60000F2D089508958091C1040895CF93DF9384
:104F700021E02093E9002FEF3091E800215035FD2A
:104F800006C035ED3A95F1F700002111F5CF2091DB
:104F9000E80025FF14C0EC0140E050E068E070E05C
:104FA0000E94A91C8091E8008E778093E80088E039
:104FB000FE01A2ECB4E001900D928A95E1F7DF9139
:104FC000CF9108950F931F93CF93DF93EC0100E0EF
:104FD00010E080918203282F30E00217130724F598
:104FE000909180039801290F311DA901440F551F8D
:104FF000240F351F27563A4F869590E04C810817AD
:1050000019071CF4442331F002C0411103C0409140
:10501000C00501C040E06091BF058091BE050E94BF
:10502000411E0F5F1F4FD5CF0E94411D8C8190E024
:105030000196817099278C83DF91CF911F910F91F9
:1050400008958F929F92AF92BF92CF92DF92EF928C
:10505000FF920F931F93CF93DF938C01FC01448148
:10506000C42FD0E09E01DE010E94D1359B01AC012E
:105070000E94E7356B017C01E0E2F0E0EC1BFD0BE8
:10508000A5E5B0E09B01AC010E94E7354B015C0156
:105090009F01DF010E94C9359B01AC010E94F235DE
:1050A0009B01AC012C0D3D1D4E1D5F1DC501B401C2
:1050B0000E949A35C22FD22F2A3228F4F3E02F9F74
:1050C000900111240DC025E530E02C1B3109C901E8
:1050D000880F991F280F391F37FF02C02F5F3F4FDE
:1050E00035952795C22FC095F12C85E5E82EED1A50
:1050F00080918203F816C8F4F1FC02C08E2D01C025
:105100008D2F909180032F2D30E0290F311DA901A3
:10511000440F551F240F351F27563A4F4C2F6091CF
:10512000BF050E94411EF394E3CF0E94411DF80188
:105130008481811102C091E003C0803219F49FEF95
:1051400090937D0390917D03890FF8018483DF9113
:10515000CF911F910F91FF90EF90DF90CF90BF9074
:10516000AF909F908F9008951F93CF93DF93EC01A2
:105170008C81811109C081E08C831092970592E0A7
:1051800090937C0380937B038091800390918103B3
:10519000891770F4E82FF0E09F01220F331FE20F10
:1051A000F31FE756FA4F1182108212828F5FF0CF01
:1051B00010E0609182031617C0F5E12FF0E070E077
:1051C000CF010E94863520918003820F20919705A0
:1051D000022E000C330B90E0E217F307CCF0209185
:1051E0007C03022E000C330B2E173F078CF09C0122
:1051F000220F331F820F931F9C0127563A4F409175
:10520000C0056091BF058091BE050E94411E0BC084
:10521000FC01EE0FFF1F8E0F9F1FFC01E756FA4F98
:105220001182108212821F5FC4CF0E94411D8091A3
:105230007B0320919705280F2093970590917C037D
:10524000980F90937C0319165CF4022E000C330B1C
:105250004091820350E0415051092417350734F042
:10526000819580937B03813009F41C82DF91CF917B
:105270001F9108957F928F929F92AF92BF92CF928B
:10528000DF92EF92FF920F931F93CF93DF93EC0186
:105290008A8180FF03C0BB24BA9402C0BB24B394AC
:1052A0008C8181110DC081E0B81206C0809182030B
:1052B00081508093960502C01092960581E08C8300
:1052C000A12C4CE0842E90908203A91408F041C0D8
:1052D00080918003CA2CD12C8601080F111DC801B2
:1052E000880F991F080F191F07561A4FF8011182CE
:1052F0001082128234E0E32EF12C712C80919605FD
:10530000870D8D302CF0682D0E946435892F02C0E6
:1053100087FD890D082E000C990BC816D90691F44B
:105320008091C0058E9DA0018F9D500D1124559533
:1053300047955595479598016091BF058091BE05A9
:105340000E94411E7B0CF1E0EF1AF108B9F6A3941C
:10535000BACF0E94411D8091960591E0B9120EC00E
:10536000811107C0809182038150809396051C8231
:105370000FC0815080939605BC820AC090E00196D0
:105380006091820370E00E948635809396058C833D
:10539000DF91CF911F910F91FF90EF90DF90CF9011
:1053A000BF90AF909F908F907F900895FF920F9342
:1053B0001F93CF93DF93EC01F12C0FEF10E060917E
:1053C0008203F616F0F4809180032F2D30E0280F31
:1053D000311DC901880F991F280F391F27563A4FD1
:1053E00070E0C8010E948635962F8C814091C005DF
:1053F0006091BF05F99E800D11240E94411EF39417
:10540000DECF0E94411D9A818C8190FF02C08F5F88
:1054100001C081508C83DF91CF911F910F91FF903C
:1054200008950F931F93CF93DF9300D01F92CDB7B2
:10543000DEB78C018091980581110AC09E012F5F13
:105440003F4F4FEF6FEF0E94411E8A818093980576
:10545000F8018481813051F028F0823061F440916C
:1054600098050AC08091980540E007C060919805B2
:1054700040E080E003C040E080E060E00E94C81DA2
:10548000F801848190E0019663E070E00E94863527
:1054900084830F900F900F90DF91CF911F910F9108
:1054A0000895CF93DF93EC01EDEBF5E0438162814A
:1054B0008C810E94D71E8C818F5F8C83DF91CF916E
:1054C0000895CF93DF93EC01EC81F0E0EC55FB4FB6
:1054D0004491EDEBF5E0628181810E94D71E8C81C1
:1054E0008F5F8C83DF91CF9108959091CC0494309D
:1054F00029F58093D4057093D6056093D5059093D4
:10550000E9008FEF9091E800815095FD06C095ED80
:105510009A95F1F700008111F5CF8091E80085FFA1
:105520000DC040E050E063E070E084ED95E00E9443
:10553000A91C8091E8008E778093E800089581E0AF
:105540008093E00080E28093D8001092C9008FE140
:105550009EE40197F1F700C0000087E090EBDC01CA
:105560008093D7059093D805A093D905B093DA0519
:105570009CE088E10FB6F894A895809360000FBE78
:1055800090936000FFCF78941F920F920FB60F9206
:1055900011248F939F93AF93BF938091D0059091E7
:1055A000D105A091D205B091D3050196A11DB11DE1
:1055B0008093D0059093D105A093D205B093D305E5
:1055C000BF91AF919F918F910F900FBE0F901F9041
:1055D00018959C014FB7F8948091D0059091D10512
:1055E000A091D205B091D3054FBF821B930B0895B4
:1055F0002FB7F8946091D0057091D1058091D205B4
:105600009091D3052FBF08952FB7F8948091D005BE
:105610009091D105A091D205B091D3052FBF0895E7
:105620001F920F920FB60F9211248F939F93AF93F7
:10563000BF938091CF05811113C08091D0059091C7
:10564000D105A091D205B091D3054196A11DB11D00
:105650008093D0059093D105A093D205B093D30544
:10566000BF91AF919F918F910F900FBE0F901F90A0
:1056700018950F931F930E949512882321F01F9174
:105680000F910C94F82A0E94F82A0091CB051091F2
:10569000CC052091CD053091CE05600F711F821F82
:1056A000931F1F910F9108950E94951281110C94E0
:1056B000042B0E94392BCB0108959C012A5F3F4F98
:1056C000FC014281461301C01282019682179307A2
:1056D000B9F708959C01FC0132969FEF80E041915B
:1056E000461789F09F3F19F4411101C0982F8F5F31
:1056F0008630A9F79F3F39F0F901E90FF11D97FDB9
:10570000FA956283089508952091C9053091CA05DC
:105710002817390771F09093CA058093C905E09165
:10572000C705F091C805309721F00084F185E02D80
:10573000099408952091C5053091C60528173907A9
:1057400071F09093C6058093C505E091C705F0916F
:10575000C805309721F00680F781E02D099408955F
:105760000E949512882351F0E091C705F091C80579
:10577000309721F00190F081E02D099480E00895A8
:105780000F931F93CF93DF93C42FD22FFC018281FD
:105790008823C9F04093C4050E94042B9093C3054D
:1057A0008093C20580E28C0F883008F057C0C77024
:1057B00081E001C0880FCA95EAF7DF91CF911F9170
:1057C0000F910C9489278091C405481330C08091B3
:1057D000C2059091C3050E94E92A883C910538F5DD
:1057E00010E21D0FCD17B9F080E28C0F883040F425
:1057F000C77081E001C0880FCA95EAF70E947E2732
:10580000183028F581E09D2F977001C0880F9A9578
:10581000EAF70E948927802F0E9493271830F0F41E
:10582000D77081E001C0880FDA95EAF70AC080E2FC
:105830008C0F883098F4C77081E001C0880FCA953A
:10584000EAF7DF91CF911F910F910C947E27802F63
:10585000DF91CF911F910F910C949327DF91CF91FE
:105860001F910F910895CF93DF93C7EAD1E060E0D5
:10587000CE010E9479312196C11584E0D807B9F78D
:10588000DF91CF910895CF92DF92EF92FF920F9325
:105890001F93CF93DF93C0E0D0E08E01005A1F4FDB
:1058A0006E018CE0C80ED11CFE01EC55FA4FE5905C
:1058B000F4906F2DCE0187960E9479316E2DCE0126
:1058C00088960E9479312296CC15DD0569F70C1770
:1058D0001D0731F7E80100381140F9F6DF91CF914B
:1058E0001F910F91FF90EF90DF90CF9008950F934D
:1058F0001F93CF93DF93C42FD0E0CC0FDD1F2CE09C
:10590000629FC00DD11D112430E6839FC00DD11DB3
:105910001124CE0187960E946531082F10E0102FC8
:105920000027CE0188960E9465319801282BC90175
:10593000DF91CF911F910F910895462F843038F455
:10594000783028F4663018F4672F0C94772C80E0B8
:1059500090E00895CF93C82F811102C06FEF01C06E
:1059600061E283E290E00E947931C11102C06FEFE1
:1059700001C069E084E290E00E947931C11102C067
:105980006FEF01C065E285E290E0CF910C94793130
:1059900080E00E94AA2C60E086E290E00E947931CB
:1059A0000E94432C0E94332C81E00C94AA2C83E2A9
:1059B00090E00E946531813281F484E290E00E949F
:1059C0006531893051F485E290E00E94653191E0C3
:1059D000853209F090E0892F01C080E08170089540
:1059E0009091BD0590FF04C09695981740F003C0B4
:1059F000811105C090E0961710F40C94892361E0A2
:105A00000C944023882311F0FA0101C0FB01099492
:105A1000E3E9F5E01182828184608283089588231E
:105A200009F458C0682F823869F40E94B02B81FFB6
:105A300051C069E38BE395E00E946A2B0E94032426
:105A400069E30EC0833891F40E94B02B80FF42C0FE
:105A500063E58BE395E00E946A2B0E94032463E5D3
:105A60008BE395E00E945D2B0C940324843869F449
:105A70000E94B02B82FF2EC067E48BE395E00E946A
:105A80006A2B0E94032467E4EBCF8CEF860F813AE8
:105A900038F380E2860F883070F4677081E090E020
:105AA00001C0880F6A95EAF7809590919005892347
:105AB00080939005D9CF8BE5860F833020F480E06A
:105AC00090E00C949A2B685A673120F480E090E0C3
:105AD0000C94842B0895CF93882309F496C0C82F83
