:100000000C9440020C9487020C9487020C94BD1E41
:100010000C9487020C9487020C9487020C9487023C
:100020000C9487020C9487020C94390D0C94750C77
:100030000C945E1C0C9487020C9487020C9487022B
:100040000C9487020C9487020C9487020C9487020C
:100050000C9487020C94EF0E0C9487020C94870288
:100060000C9487020C9487020C9487020C948702EC
:100070000C9487020C9487020C9487020C948702DC
:100080000C9487020C9487020C9487020C948702CC
:100090000C9487020C9487020C9487020C948702BC
:1000A0000C9487020C9487020C948702C806C80639
:1000B000020702075B077608760876087707EB07E2
:1000C000FC07FC07890AB00A570CB00A570CFC0A57
:1000D0001F0B570C140C240C8E119111AB11B8117D
:1000E000BF11DF1179127912791279127912E211A6
:1000F000E411E9110E123012331236125912F118AE
:10010000F11804190419FA18041904190419F1183A
:10011000F118FF1804190419FF180000000000006E
:1001200000000000000000000000000000000000CF
:1001300000000000000000000000000000007E0F32
:1001400000D4FFFFFFC7000000780000000000009F
:1001500000002A2B28000000000000000000000022
:10016000000000000029000000002C1E3420212285
:1001700024342627252E362D3738271E1F202122EE
:10018000232425263333362E37381F040506070867
:10019000090A0B0C0D0E0F10111213141516171857
:1001A000191A1B1C1D2F3130232D35040506070895
:1001B000090A0B0C0D0E0F10111213141516171837
:1001C000191A1B1C1D2F3130354C05010980A10166
:1001D000850319012AB700150126B700950175108E
:1001E0008100C0050C0901A101850419012AA002A2
:1001F000150126A002950175108100C00660FF0957
:1002000061A1010962150026FF0095207508810291
:100210000963150026FF00952075089102C00501AD
:100220000906A101050719E029E715002501950830
:10023000750181029501750881010507190029FFE3
:10024000150026FF0095067508810005081901298B
:1002500005950575019102950175039101C009028B
:100260005B00030100A0FA09040000010301010082
:100270000921110100012240000705810308000A3D
:1002800009040100020300000009211101000122FC
:100290002200070582032000010705030320000157
:1002A00009040200010300000009211101000122DC
:1002B00032000705840320000A120100020000003A
:1002C00008545901000100010200011A034C007595
:1002D000006E0061006B006500790020004D006930
:1002E000006E0069000000120379006F006900636E
:1002F000006800690072006F000000040309042B0D
:100300000014001A00080015001700E00004001691
:1003100000070009000A00E1001D001B000600198B
:1003200000050000000000E300E20001512C002A5B
:1003300000130012000C0018001C00340033000FE2
:10034000000E000D000B00E50038003700360010ED
:1003500000110000000000E700E60002512800291B
:10036000001E001F00200021002200E0000100010B
:1003700000010001000100E1000100010001000195
:1003800000010000000000E300E20001512C002AFF
:100390000027002600250024002300010001004F53
:1003A0000052005100500001000100010001000155
:1003B00000010000000000E700E6000251280029CB
:1003C000001E021F02200221022202E000010001A1
:1003D00000010001000100E10035020100010001FF
:1003E00000010000000000E300E20001512C002A9F
:1003F00000270226022502240223023500310230A2
:10040000022F022E002D003502310030002F002E69
:10041000022D0200000000E700E600025128000063
:100420005C01000100010001000100C25CC55CC765
:100430005CC95C01000100C35CC65CC85CCA5C01AD
:1004400000010000000000E300E20001512C003F29
:10045000003E003D003C003B003A004500440043A4
:1004600000420041004000010001000100010001C4
:1004700000010000000000E700E600025128000033
:1004800011241FBECFEFDAE0DEBFCDBF04B603FEFE
:1004900027C08091410290914202A0914302B09105
:1004A00044028730904BA740B04BD1F410924102E8
:1004B00010924202109243021092440214BE84B77A
:1004C000877F84BF0FB6F894A895809160008861FB
:1004D00080936000109260000FBEE0E0F8E30995A1
:1004E00011E0A0E0B1E0E6E4F1E402C005900D9275
:1004F000AA37B107D9F722E0AAE7B1E001C01D92FF
:10050000A134B207E1F70E94AE0F0C94A1200C9425
:1005100000001F93CF93DF93CDB7DEB767970FB679
:10052000F894DEBF0FBECDBF4B8B5C8B6D8B7E8B8B
:100530008F8B611110920F0286E09E01235F3F4F67
:10054000D901E82F1D92EA95E9F795E0FE0173962F
:10055000D90101900D929A95E1F79C894E895F89A6
:100560007B897D879E876F87598B488BF901DE01D8
:10057000179601900D928A95E1F7CE0107960E9499
:10058000081981113EC086E0FE013796DE01119602
:1005900001900D928A95E1F7FF81E8856A857B8558
:1005A0006115710531F0EF3F31F481E0FF3F19F43F
:1005B00003C081E001C080E080FD23C02091DB0109
:1005C00030E0C90101968770992740910C0250E0F4
:1005D0008417950779F1F983EA837D836C8396E02C
:1005E000929FD001939FB00D1124A452BE4FFE01E3
:1005F000319601900D929A95E1F78093DB010E946C
:100600001C1816E080910C029091DB018917F9F01B
:10061000189FC001112484529E4F0E9408198823FC
:10062000B1F080910C0290E0019687709927809339
:100630000C02E8CF0E94281B1092DB0110920C02E2
:10064000E5EDF1E086E0DF011D928A95E9F7679616
:100650000FB6F894DEBF0FBECDBFDF91CF911F91D3
:1006600008953F924F925F926F927F928F929F92E6
:10067000AF92BF92CF92DF92EF92FF920F931F93B0
:10068000CF93DF93CDB7DEB729970FB6F894DEBFCF
:100690000FBECDBFFC018081918123813481232B4A
:1006A00031F09F3F31F491E08F3F19F403C091E0A6
:1006B00001C090E090FD57C57F0185E0DE011196F5
:1006C00001900D928A95E1F7F701228189819A8143
:1006D000222349F00E94A018182F682F89819A813F
:1006E0000E94D61A03C00E94A91A182F69817A8124
:1006F000812F0E94C71D8C01F7018281882309F494
:10070000F2C0980122513F452031310508F019C14E
:100710008FEF93E00E943C208111EFC0025137EA35
:10072000832E99249394002379F08114F4E09F069A
:1007300009F4E3C0C4010E943C20811101C00150B2
:100740002FEF821A920AEFCF1E821F821886198617
:10075000442443942AE0322E84010F5F1F4FC401CA
:100760000E943C208E831F82882309F4C6C09FEF1D
:10077000980F933060F48F834E8232E0830E911C89
:10078000C8010E943C208887811102C0B6C0480180
:100790008E010A5F1F4FF80120812223E9F22130E8
:1007A00009F04CC08181813049F46801F2E0CF0E3C
:1007B000D11CF80182810E94401C0AC0823051F491
:1007C0006801F2E0CF0ED11CF80182810E94A41BC7
:1007D000860186C0833049F46801F2E0CF0ED11C57
:1007E000F80182810E94481BF3CF843019F00F5F1B
:1007F0001F4F76C0F80122810E5F1F4F80E090E00E
:1008000030E0205331092A30310568F4389EA001C8
:10081000399E500D1124C901840F951F0F5F1F4F82
:10082000F8012081EDCF009709F45AC0EFE9FFE00D
:100830003197F1F700C000000197F5CFE22FF0E00B
:10084000E65BFE4F5490822F86958695869590E0C4
:10085000FC01E65CFE4F64902770712C022E02C0F2
:10086000759467940A94E2F7F1E06F227724FC0113
:10087000E65DFE4FA490B12C022E02C0B594A79461
:100880000A94E2F731E0A322BB24FC01E65EFE4FAE
:10089000C490D12C02C0D594C7942A95E2F781E088
:1008A000C822DD246114710419F081EE0E94A41B9A
:1008B000A114B10419F086EE0E94A41B852D0E949C
:1008C000401CAB2819F086EE0E94481B672819F0DF
:1008D00081EE0E94481BCD2819F08CE20E94401C3A
:1008E0000F5F1F4F58CF00313FE5130709F032C4A7
:1008F00081E00E940D1B0E94810980910D0287708A
:1009000009F431C4F7018281882309F42CC482E000
:1009100029960FB6F894DEBF0FBECDBFDF91CF9101
:100920001F910F91FF90EF90DF90CF90BF90AF900D
:100930009F908F907F906F905F904F903F900C941E
:10094000FF170031FFE51F0711F481E005C00131F9
:100950002FE5120721F482E00E94191BCCCF033F40
:10096000FCE51F0799F406E221EE40EE63EF7CE51B
:1009700009C0073DECE51E0711F506E221EE41EE48
:1009800067ED7CE5C7010E94EA1CB7CF043F2CE568
:10099000120708F03FC1083D3CE5130731F407E2B8
:1009A00025EE45EE68ED7CE5EDCF093D9CE51907A8
:1009B00001F708E221E045EE69ED7CE5E3CF88230D
:1009C00009F45DC11092390202309CE5190708F460
:1009D00040C10631ECE51E0730F0C8018A5F9C4536
:1009E000099708F036C10E9437179093B0018093A1
:1009F000AF010031FCE51F0709F4C3C008F041C096
:100A000008303CE5130709F49AC0F0F404309CE583
:100A1000190709F487C068F40230FCE51F0709F4E0
:100A200077C003301C4509F0E5C08091AF018260BA
:100A300076C006303CE5130709F46EC008F07BC0B1
:100A40008091AF0188606BC00C309CE5190709F4F8
:100A500085C068F40A30FCE51F0709F474C008F08B
:100A600079C00E94281B8091AF01806858C00E3069
:100A70003CE5130709F476C008F07FC08091AF0110
:100A80008BC00B3F9CE5190709F44FC018F50331E3
:100A9000FCE51F0709F47DC078F401313CE513073C
:100AA00009F473C002311C4509F0A4C00E94281B40
:100AB0008091AF018F7733C005319CE5190709F4A8
:100AC00072C008F486C00A3F1C4509F093C08091AB
:100AD000B0013EC00F3F2CE5120709F45FC058F487
:100AE0000D3F8CE5180709F444C008F43FC080911D
:100AF000B00182602DC00130EDE51E0709F475C01C
:100B000008F45DC002301D4509F074C060E06EC09D
:100B10008091AF01816003C08091AF0180618093BB
:100B2000AF0168C08091AF0111C08091B0018260B7
:100B30008093B0015FC08091AF018062F0CF80915F
:100B4000AF018064ECCF8091AF0188608460E7CF13
:100B50008160EECF8091AF018E7FE1CF8091AF01B8
:100B60008D7FDDCF8091AF01877FD9CF8091B0019C
:100B700018C08091B0018D7FDBCF8091AF018F7E57
:100B8000CECF8091AF018F7DCACF8091AF018F7B97
:100B9000C6CF8091AF01877F8B7FC1CF8091B0019D
:100BA0008D7F8E7FC5CF8091AF0182FB222720F9F8
:100BB00091E0922790FB82F990FB83F9B0CF80916E
:100BC000B001982F909591708E7F892B90FB81F9C1
:100BD000AFCF0E94281B8091AF0187FB222720F90D
:100BE00091E0922790FB87F99ACF61E08EE090E048
:100BF0000E944A206091AF011091B00184E090E022
:100C00000E944A20612F82E290E00E944A200E94C6
:100C1000281B73CE053FFCE51F0731F406E221EEE9
:100C200042EE65EF7CE5AECE053F2CE5120730F4D1
:100C300007E225EE44EE64EF7CE5A4CE063F3CE5FA
:100C4000130709F0BCCE07E225EE46EE66EF7CE521
:100C500099CE06318CE5180711F5809110028A7A39
:100C600091E009F490E090937C01882311F065E312
:100C700001C069E28DEC91E00E94941C0DC0063128
:100C80001C45F1F580917C01882309F46AC265E373
:100C90008DEC91E00E94871C0E94B8172ECE0A3579
:100CA0003DE5130741F150F401159CE51907A9F042
:100CB0000E3D1C4529F50E9448171FCE0B35FDE55A
:100CC0001F07D9F00C351D45D9F48091B00182FB86
:100CD000882780F991E0892711C00E94281B3FEFE7
:100CE00084E39CE0315080409040E1F700C0000078
:100CF0000E94CB0E02CE81E001C080E00E94E51789
:100D0000F701828100811181882349F0C8010E9486
:100D1000A018D82E682FC8010E94D61A04C0C80196
:100D20000E94A91AD82EB8018D2D0E94C71D0E94BD
:100D3000AE158C01982EF701B280A580A2949FE099
:100D4000A92280910D02877099F0BB2089F0812F34
:100D5000807F803421F080E2800F883048F082E08C
:100D60000E94FF1780910D028770DD24D3948111BA
:100D7000D12CC12EC2948FE0C8228C2D90E08C30F3
:100D8000910508F0B3C1FC01EA5AFF4F0C947E2094
:100D9000812F807F1F70882311F01295107FBB2058
:100DA000B9F0112309F48EC180E2800F883010F071
:100DB000911006C080911002182B1093100205C0EC
:100DC00080910F02182B10930F020E94B8177AC15E
:100DD000802F0E94481B112309F488C1005E1095E2
:100DE000083010F0911006C0809110021823109363
:100DF000100205C080910F02182310930F020E9469
:100E0000B81774C1812F807F1F70803211F0129546
:100E1000107F992021F0F1E09F1611F130C0BB2026
:100E2000B1F0AA2081F021E0A2120DC08091B001A2
:100E300082FD5CC180911102182B181709F456C16C
:100E40001093110253C180911102812B10C0AA206E
:100E500021F031E0A31609F449C10E94B21727C05E
:100E6000BB2041F085E08A1508F440C1812F0E9423
:100E70003E1B3CC194E09A1508F438C118C0BB2051
:100E800049F0AA2099F3F701858180FF1BC18F707B
:100E90008583ECCFAA2059F0093309F024C1FFEF74
:100EA00027EE33E0F15020403040E1F71AC1812FA6
:100EB0000E94331B1BC1812F86958695837019F084
:100EC000813059F013C1BB2019F0C801937002C0E2
:100ED00080E090E00E94C41C0FC1BB2019F0C80143
:100EE000937002C080E090E00E94AE1C05C1812F8B
:100EF0008370A9F5B110FEC0402F4295469547700A
:100F0000440F440F802F8F7090E09C01042E01C08D
:100F1000220F0A94EAF704FF08C08FE090E001C0B6
:100F2000880F4A95EAF7809501C080E016951695DE
:100F30001370123069F088F490911202113019F098
:100F4000822B892302C0922B892B0E94241BD2C0A2
:100F5000822B909112028927F8CF822BF6CFBB20EB
:100F600019F0812F817001C08695882309F4C2C0D1
:100F7000402F429546954770440F440F802F8F7045
:100F800090E09C01042E01C0220F0A94EAF704FFAE
:100F900008C08FE090E001C0880F4A95EAF780957D
:100FA00001C080E0169516951370123059F078F450
:100FB00090919B01113019F0822B892309C0922B4B
:100FC000892B06C0822B90919B01892701C0822B1F
:100FD0000E94021B8FC01F70BB2039F0812F0E941E
:100FE000191B802F0E943E1B85C0802F0E94331B3F
:100FF000812F0E940D1B7EC0802F92EF991659F110
:10100000991538F0E0EF9E1659F0F1EF9F16F1F0C8
:1010100055C023EF921631F134EF931681F14EC093
:10102000BB2079F084E08A1508F460C01F7181E06C
:1010300090E001C0880F1A95EAF790919B018927EB
:101040001BC095E09A1508F451C0F0CFBB2029F0E1
:10105000812F8F7126C0BB20D9F3812F8F710E9401
:101060000D1B44C0BB2039F01F7181E001C0880F07
:101070001A95EAF701C080E00E94021B37C0BB202E
:1010800099F01F71812F0E94191B8091B00182FD80
:1010900007C0E8E01E9FC0011124836080930D0209
:1010A000812F0E94191B22C081E00E94FF17F1E0EE
:1010B000FA15E0F482E00E94FF1718C0BB2031F05F
:1010C000AA2031F2802F0E94A41B10C0AA2029F26E
:1010D000893349F42FEF37EE83E0215030408040D0
:1010E000E1F700C00000802F0E94481B88EF8C0DA4
:1010F000843010F40E94DA1CDD20A9F180910D02E9
:1011000080FD31C0F70112828595859585950E94F5
:10111000191BC7010E94310380910D0285958595A9
:10112000859529960FB6F894DEBF0FBECDBFDF912F
:10113000CF911F910F91FF90EF90DF90CF90BF90D4
:10114000AF909F908F907F906F905F904F903F9067
:101150000C940D1B01319FE5190709F000CC82E0CA
:10116000C8CB69E295CD29960FB6F894DEBF0FBEC5
:10117000CDBFDF91CF911F910F91FF90EF90DF9046
:10118000CF90BF90AF909F908F907F906F905F9027
:101190004F903F9008958091930187FF11C08091F7
:1011A000E80082FD05C0809191018111F8CF11C046
:1011B0008091E8008B770BC080919101882349F0E2
:1011C0008091E80080FFF8CF8091E8008E778093CF
:1011D000E8000895982F973068F59093E9009817E4
:1011E00039F07091EC002091ED005091F00003C0B7
:1011F000242F762F50E021FD02C09F5FECCF30916D
:10120000EB003E7F3093EB003091ED003D7F30935B
:10121000ED003091EB0031603093EB007093EC0007
:101220002093ED005093F0002091EE0027FDE5CFD4
:1012300080E008958F708093E90081E00895209107
:10124000990130919A012617370748F06115710509
:1012500039F42091E8002E772093E80001C0B9010D
:10126000FC0120E06115710579F1809191018823DD
:10127000F1F18530F1F18091E80083FD3CC080916F
:10128000E80082FD2EC08091E80080FFEBCF209126
:10129000F3008091F20090E0922B6115710551F0FE
:1012A0008830910538F421912093F1006150710943
:1012B0000196F3CF21E0089709F020E08091E80043
:1012C0008E778093E800CECF2111CFCF0AC08091D6
:1012D0009101882361F0853061F08091E80083FD01
:1012E0000AC08091E80082FFF2CF80E0089582E09A
:1012F000089583E0089581E008950895809186011E
:10130000089580919B01982F9670963011F4886013
:1013100001C0877F0C94021BFC01AC014C5F5F4F46
:101320008FEF91E32191822728E030E087FF03C00F
:10133000880F892701C0880F21503109B9F7E417B8
:10134000F50781F708951F93CF93DF93CDB7DEB7ED
:10135000AA970FB6F894DEBF0FBECDBFE3E9F1E068
:101360008091F100819341E0EB39F407C9F7809156
:101370009401833009F462C030F4813071F082301E
:1013800009F49CC0B3C08A3009F488C08B3009F4DA
:101390006DC0893009F0AAC020C080919301813AC4
:1013A00009F0A4C08091E800877F8093E8008091D5
:1013B000970190919801892B21F468E087E891E0EA
:1013C00003C060E080E090E070E00E941F0980911F
:1013D000E8008B778093E80089C080919301813287
:1013E00009F084C08091970190919801009719F0BD
:1013F000029709F07BC08091E800877F8093E80026
:101400008091E80082FD05C0809191018111F8CFA3
:101410006DC02091F3008091F20090E0922B029732
:1014200029F48091F1008B7F813021F48091F100CB
:10143000809386018091E8008B7754C0809193015E
:10144000813A09F053C08091970190919801892BBE
:1014500009F04CC08091E800877F8093E80080917C
:10146000E80080FFFCCF8091000137C0809193019C
:101470008132E1F58091970190919801892BB1F526
:101480008091E800877F8093E8000E94CB088091DC
:101490009501809300010E94281B28C08091930130
:1014A000813221F58091E800877F8093E8000E94D7
:1014B000CB08809196018093850118C0809193019B
:1014C000813AA1F48091E800877F8093E8008091C1
:1014D000E80080FFFCCF809185018093F10080912E
:1014E000E8008E778093E8000E94CB088091E800A6
:1014F00083FFDDC18091930190919401492F50E0C9
:101500004A30510508F0D3C1FA01EE59FF4F0C944F
:101510007E20803821F0823809F0C9C108C080914E
:101520008F0190919001992389F082600FC0809182
:1015300097018F70873008F0BAC18093E9008091DD
:10154000EB0085FB882780F91092E9009091E80074
:10155000977F9093E8008093F1001092F10070C1A2
:10156000282F2D7F09F0A3C1882319F0823061F064
:101570009EC180919501813009F099C1933009F0A5
:1015800080E0809390012EC08091950181112AC046
:10159000809197018F702FEF280F263008F087C1B8
:1015A0008093E9002091EB0020FF1CC0933021F4D0
:1015B0008091EB00806214C09091EB009061909359
:1015C000EB0021E030E0A90102C0440F551F8A95CD
:1015D000E2F74093EA001092EA008091EB00886005
:1015E0008093EB001092E9008091E800877F809360
:1015F000E8000E94CB085BC1811159C1109195018F
:101600001F778091E3008078812B8093E3008091A5
:10161000E800877F8093E8000E94CB088091E80073
:1016200080FFFCCF8091E30080688093E30011117C
:1016300002C082E001C083E08093910138C18058EC
:10164000823008F034C120919501309196012C3DF3
:1016500053E0350779F583E08A838AE289834FB7BF
:10166000F894DE01139620E03EE051E2E32FF0E033
:1016700050935700E49120FF03C0E295EF703F5F65
:10168000EF708E2F90E0EA3010F0C79601C0C09640
:101690008D939D932F5F243149F74FBF8091E800D0
:1016A000877F8093E8006AE270E0CE0101960E9495
:1016B0001F09B4C08091970190919801432F55273D
:1016C00043305105A9F068F44130510509F4FEC0DA
:1016D0004230510509F0EBC08BE590E0EEE5F2E019
:1016E0004BC04132510529F14232510589F1DFC029
:1016F000C901992781309105A1F058F0029709F0AE
:10170000D6C0EBECF2E0E4918E2F90E0EBECF2E04F
:1017100030C0EBEFF2E0E4918E2F90E0EBEFF2E0DF
:1017200028C0E7EEF2E0E4918E2F90E0E7EEF2E0E1
:1017300020C08330910508F0BAC0880F991FFC01C2
:10174000ED5CFE4F0190F081E02D89E090E014C047
:101750008330910508F0ABC0FC01EE0FFF1FE35D85
:10176000FE4F0190F081E02DDC01A65DBE4F8C9113
:1017700090E0009709F49BC02091E800277F209318
:10178000E8002091990130919A012817390708F44F
:10179000C90140E0009789F120919101222309F4C9
:1017A0003DC02530D9F12091E80023FD37C02091BC
:1017B000E80022FD2FC02091E80020FFEBCF4091F0
:1017C000F3002091F20030E0342B009759F02830DC
:1017D000310540F444914093F100319601972F5F19
:1017E0003F4FF3CF41E02830310509F040E0209130
:1017F000E8002E772093E800CDCF4111CDCF0AC06D
:1018000080919101882351F0853041F08091E8006A
:1018100083FD04C08091E80082FFF2CF8091E80050
:101820008B778093E80043C0803809F040C08091F6
:10183000E800877F8093E800809192018093F10017
:101840008091E8008E77D3CE811131C080919501CF
:10185000909196019927029754F58091E800877F2F
:101860008093E80010919501109392010E94CB089B
:10187000111106C08091E30087FD02C081E001C024
:1018800084E08093910142E061EC81E00E94EA08EB
:1018900042E261EC84E00E94EA0842E261EC82E00C
:1018A0000E94EA0842E260EC83E00E94EA0880912C
:1018B000E80083FF10C08091E800877F8093E800F4
:1018C0008091EB0080628093EB0005C082E190E0A4
:1018D000E9EBF2E051CFAA960FB6F894DEBF0FBE47
:1018E000CDBFDF91CF911F9108951F920F920FB638
:1018F0000F9211242F933F934F935F936F937F9396
:101900008F939F93AF93BF93CF93DF93EF93FF9307
:10191000C091E900CF708091EC00D82FD17080FD8C
:10192000D0E81092E9008091F000877F8093F0006A
:1019300078940E94A3091092E9008091F0008860D9
:101940008093F000CD2BCF70C093E900FF91EF9111
:10195000DF91CF91BF91AF919F918F917F916F91C7
:101960005F914F913F912F910F900FBE0F901F905D
:101970001895E8EDF0E080818E7F80831092E20080
:101980001092DA001092E100A0EEB0E08C9181603C
:101990008C9380818F77808319BCA7EDB0E08C9108
:1019A0008E7F8C9380818F7E808310928401089536
:1019B000CF92DF92EF92FF920F931F93CF93DF931B
:1019C000C8EDD0E088818F7E8883E7EDF0E08081EC
:1019D0008160808384E082BF81E08093840188817C
:1019E0008E7F888302EE10E0F80110821092DA00F8
:1019F00081EEC82ED12CF601108288818F778883E2
:101A000088818068888388818F7D888319BC109243
:101A10009101109292011092900110928F0190EE1C
:101A2000E92EF12CF70180818B7F80838881816092
:101A3000888342E060E080E00E94EA08F60180814D
:101A40008E7F8083F80180818160808380818860BF
:101A50008083F70180818E7F808388818061888385
:101A6000DF91CF911F910F91FF90EF90DF90CF907A
:101A700008951F920F920FB60F9211242F933F9348
:101A80004F935F936F937F938F939F93AF93BF9386
:101A9000EF93FF938091E10082FF09C08091E20003
:101AA00082FF05C08091E1008B7F8093E1008091EF
:101AB000DA0080FF2AC08091D80080FF26C0809184
:101AC000DA008E7F8093DA008091D90080FF18C001
:101AD00080E189BD82E189BD09B400FEFDCF81E0CE
:101AE000809391018091840181110FC00E94B90CF3
:101AF0000E94D80C8091E20084608093E20005C0CF
:101B000019BC10929101109284018091E10080FF34
:101B100017C08091E20080FF13C08091E2008E7FA9
:101B20008093E2008091E20080618093E2008091E6
:101B3000D80080628093D80019BC85E08093910121
:101B40008091E10084FF2EC08091E20084FF2AC0D2
:101B500080E189BD82E189BD09B400FEFDCF80919D
:101B6000D8008F7D8093D8008091E1008F7E809394
:101B7000E1008091E2008F7E8093E2008091E2009C
:101B800081608093E20080919201882311F084E0CB
:101B900007C08091E30087FD02C081E001C083E0BF
:101BA000809391018091E10083FF27C08091E20042
:101BB00083FF23C08091E100877F8093E10082E072
:101BC00080939101109292018091E1008E7F809329
:101BD000E1008091E2008E7F8093E2008091E2003C
:101BE00080618093E20042E060E080E00E94EA08C9
:101BF0008091F00088608093F000FF91EF91BF9199
:101C0000AF919F918F917F916F915F914F913F9194
:101C10002F910F900FBE0F901F9018952091E40008
:101C20003091E50095E64091EC00842F817040FFF3
:101C300023C08091E80080FD1DC080919101882320
:101C400099F0853099F08091EB0085FD11C04091AD
:101C5000E4005091E5002417350729F3915011F065
:101C60009A01E1CF84E0089582E0089583E0089529
:101C700081E0089580E008954091E80042FFDDCFC3
:101C80000895EF92FF920F931F93CF93DF937C0100
:101C90008B010E940E0E811119C0E701011511057B
:101CA000A1F08091E80085FD0AC08091E8008E7760
:101CB0008093E8000E940E0E882381F307C089916B
:101CC0008093F10001501109E9CF80E0DF91CF91BD
:101CD0001F910F91FF90EF90089590919101943092
:101CE00029F5809381017093830160938201909321
:101CF000E9008FEF9091E800815095FD06C095EDC9
:101D00009A95F1F700008111F5CF8091E80085FFE9
:101D10000DC040E050E063E070E081E891E00E9497
:101D2000410E8091E8008E778093E8000895BC0111
:101D300084E00C946D0EBC0183E00C946D0ECF9387
:101D4000DF9321E02093E9002FEF3091E80021504C
:101D500035FD06C035ED3A95F1F700002111F5CFBC
:101D60002091E80025FF14C0EC0140E050E068E05D
:101D700070E00E94410E8091E8008E778093E80029
:101D800088E0FE01A7E8B1E001900D928A95E1F7A5
:101D9000DF91CF91089581E08093E00080E280930D
:101DA000D8001092C9008FE19EE40197F1F700C0BE
:101DB000000087E090EBDC018093410290934202A7
:101DC000A0934302B09344029CE088E10FB6F894DC
:101DD000A895809360000FBE90936000FFCF789429
:101DE0001F920F920FB60F9211248F939F93AF9370
:101DF000BF9380917D0190917E01A0917F01B09170
:101E000080010196A11DB11D80937D0190937E01FB
:101E1000A0937F01B0938001BF91AF919F918F916B
:101E20000F900FBE0F901F9018959C014FB7F8941C
:101E300080917D0190917E01A0917F01B091800100
:101E40004FBF821B930B08952FB7F89460917D01CB
:101E500070917E0180917F01909180012FBF089544
:101E60002FB7F89480917D0190917E01A0917F0120
:101E7000B09180012FBF08950F931F93CF93DF93ED
:101E800000D000D0CDB7DEB74091A6015091A70198
:101E90006091A8017091A9012FB7F89480917D01FC
:101EA00090917E01A0917F01B09180012FBF841B92
:101EB000950BA60BB70B84369105A105B10508F467
:101EC00043C00E94F513882319F00E94240F0EC00E
:101ED0000E94240F0091AB011091AC012091AD0143
:101EE0003091AE01600F711F821F931FDC01CB0187
:101EF0000296A11DB11D89839A83AB83BC83809117
:101F000018019091190183569E4F4091170150E09E
:101F10004530510510F044E050E0BE016F5F7F4F47
:101F20000E94982082E090E00E94841F892B11F08B
:101F300080E00BC00E94240F6093A6017093A7015C
:101F40008093A8019093A90181E00F900F900F90CA
:101F50000F90DF91CF911F910F910895CF93DF9351
:101F6000CDB7DEB7AA970FB6F894DEBF0FBECDBFD0
:101F700084B7877F84BF0FB6F894A89580916000DE
:101F8000886180936000109260000FBE90E080E84E
:101F90000FB6F89480936100909361000FBE85B7EF
:101FA000806885BF85B7806885BF83E093E19093A3
:101FB0007B0180937A010E94B90C0E94D80C809119
:101FC000E20084608093E2007894809191018823FC
:101FD000A1F01091E9001F709091EC00892F8170A1
:101FE00090FD80E8182B1092E9008091E80083FDB5
:101FF0000E94A3091F701093E90082E084BD93E062
:1020000095BD9AEF97BD80936E001092AB01109230
:10201000AC011092AD011092AE010E94011E81111F
:1020200002C00E94F21D0E94F51380931F010E94BE
:10203000F51381110E94771E80911F0180911F016D
:10204000882311F090E001C094E09093BA0184E0FD
:10205000891B8093B9010BE311E07FE3E72E71E068
:10206000F72EF80181918F018F3F11F00E94181413
:10207000E016F106B1F703E411E069E4E62E61E051
:10208000F62EF80181918F018F3F11F00E941814F4
:10209000E016F106B1F7E1EBF1E0A5ECB1E0119249
:1020A0001D9221E0E93BF207D1F780E090E00E9429
:1020B0004420893E9E4F21F40E94011E811102C0DE
:1020C0000E94481782E090E00E943C208093BC016F
:1020D0000E9437179093B0018093AF010E942F1494
:1020E0008FE39CE90197F1F700C000000E942F14D4
:1020F0008091C50180FF08C06FEF7FEF80E090E026
:102100000E9468200E94CB0E83E090E00E943C2059
:102110000E94241B0E94F513811102C00E947A1EA6
:1021200080E291E090933D0280933C0298E1692E19
:10213000712C20E4222E30E1332E42E1442E50E176
:10214000552E8E010F5F1F4F6E019BE0C90ED11CF3
:1021500080919101853009F03EC0809191018530D8
:1021600009F035C080919101843009F1109240024C
:102170000FB6F894A895609260000FBE20926000A0
:1021800083B7817F846083BF83B7816083BF789486
:10219000889583B78E7F83BF0FB6F894A8958091FA
:1021A0006000886180936000109260000FBE809193
:1021B0009001882391F20E942F14E5ECF1E08191C7
:1021C0008111C1C121E0ED3CF207C9F7C6CF0E94E1
:1021D000281B0E94DA1C0E942F1481110E94240FD8
:1021E000ADEBB1E0E5ECF1E0E12CF12C8E2C91901F
:1021F0008D91892549F1A12CBB24B394982F9B2163
:10220000F1F00E94F513882399F0A9A28AA29B20DD
:1022100081E009F480E08BA30E94300F8160782F69
:102220009DA38CA349A15AA16BA18DA10E948902F3
:10223000F701E354FE4F8081B826B0821CC0A394FE
:10224000BB0C96E0A912DACF2FEFE21AF20A88E06F
:10225000E816F10459F68FEF8EA38FA318A60E94FB
:10226000300F8160782F9AA789A74EA15FA168A53A
:102270008AA50E9489020E94DA1C9091BB018917ED
:1022800021F00E94DA1C8093BB018091910184307F
:1022900009F05ECF83E08093E9008091E80082FF3F
:1022A00057CF8091E80085FF23C00E940E0E811158
:1022B0001DC080E2A82EB12CFE0131967F0109C01D
:1022C0008091F100F70181937F01F1E0AF1AB1082D
:1022D00069F08091E80085FDF3CF8091E8008B776D
:1022E0008093E8000E940E0E882399F391E001C0CC
:1022F00090E08091E8008B778093E800992309F4BF
:1023000027CFE9818E2F90E0FC013197E331F10571
:1023100008F0EFC0E459FF4F0C947E201A8289E048
:1023200056C08A81823009F424C1833051F0813053
:1023300009F0DFC00E94240F9B838C837D836E8312
:10234000DAC0FE013396A5ECB1E08D918193CE16F3
:10235000DF06D9F7D0C08A81823009F0CAC06B810C
:102360007C818D819E810E94842086E290E024C041
:102370004C816B818A810E94A11D9D8301C1ED80EA
:10238000FE80FE24EF24FE248C81AB809A812CE019
:10239000A29E50011124E0E69E9FA00CB11C1124C6
:1023A000A80EB11CA80EB11C6F2DC50187960E9406
:1023B0004A206E2DC50188960E944A209CC00E942A
:1023C0006D1D99C05A8297C082E08A8389E58B830C
:1023D00092C0EA80FB80FE24EF24FE248C80912CA6
:1023E0005801C70189559E4F9501201B310B2815B7
:1023F000390508F080C0F9E5EF16F2E0FF0628F491
:102400000E943C20F501848302C0F5011482FFEF95
:10241000EF1AFF0A2FEFA21AB20AE3CFEA80FB807D
:10242000FE24EF24FE248C80912C5801C70189558D
:102430009E4F9501201B310B2815390508F05BC014
:10244000E9E5EE16E2E0FE0620F4F50164810E9463
:102450004A20FFEFEF1AFF0A2FEFA21AB20AE6CFC7
:102460000E945D1D48C084E08A8345C0EA80FB80ED
:10247000FE24EF24FE248C80912C5801C7018796FE
:102480009501201B310B28153905A8F5E0E8EE165B
:10249000E1E0FE0628F40E943C20F501848302C09E
:1024A000F5011482FFEFEF1AFF0A2FEFA21AB20A0A
:1024B000E5CFEA80FB80FE24EF24FE248C80912C63
:1024C0005801C70187969501201B310B2815390546
:1024D00090F4E0E8EE16E1E0FE0620F4F5016481F8
:1024E0000E944A20FFEFEF1AFF0A2FEFA21AB20A4A
:1024F000E8CF8FEF898380919101843009F028CE55
:102500008091E9008F702091EC00922F917020FD56
:1025100090E8F92EF82A82E08093E9008091E800A3
:1025200080FF0CC040E050E060E270E0C8010E9413
:10253000410E8091E8008E778093E8008F2D8F7098
:102540008093E90005CE39BC49BC09B400FEFDCF3B
:102550008091D8008F7D8093D8008091E0008260C8
:102560008093E0008091E00081FDFCCF0E94281B59
:10257000F4CD86E290E00E943C201B821C821D82EA
:102580008E83B9CFAF92BF92CF92DF92EF92FF923C
:102590000F931F93CF93DF937C015B016A018091BE
:1025A000AA018A3018F001E010E002C00AE010E051
:1025B000C1E0D0E0F894B501C701F601099578941F
:1025C000811115C021960C171D0794F0CC9F900126
:1025D000CD9F300D300D112480E090E045E34A9509
:1025E000F1F70000019682179307C1F7E3CF81E06E
:1025F000DF91CF911F910F91FF90EF90DF90CF90DF
:10260000BF90AF90089580E008959091AF0192FF40
:102610000DC0282F2871283019F4877F846006C0E8
:10262000282F2471243011F48B7F886093FF0DC014
:10263000282F2871283119F4877E846106C0282F3D
:102640002471243111F48B7E88612091B00120FF28
:102650000DC0382F3871383019F4877F816006C07B
:10266000382F3171313011F48E7F886021FF0DC019
:10267000282F2871283119F4877E816106C0282F00
:102680002171213111F48E7E886194FD877E089539
:10269000EF92FF921F93CF93DF9300D000D01F9251
:1026A000CDB7DEB77B0180E090E00E94841F892BCC
:1026B00009F065C04091060150E04115510511F047
:1026C00041E050E0609107017091080163567E4F30
:1026D000CE0105960E94982040912102509122023D
:1026E00060912302709124022FB7F89480917D01AC
:1026F00090917E01A0917F01B09180012FBF841B3A
:10270000950BA60BB70B84369105A105B10538F4DE
:102710008EE991E00E948C099D81891791F181E0F9
:1027200090E00E94841F892BA1F44091100150E099
:102730004530510510F044E050E060911101709176
:10274000120163567E4FCE0101960E94982011E03F
:1027500001C010E08EE991E00E948C0991E02D818A
:10276000281390E0192341F10E94240F6093210265
:102770007093220280932302909324020FC010E0F2
:1027800001C011E080919E0190919F01A091A00154
:10279000B091A10189839A83AB83BC83112361F03B
:1027A00089819A81AB81BC8180931D0290931E0226
:1027B000A0931F02B093200280911D0290911E02EF
:1027C000A0911F02B0912002F70180839183A28320
:1027D000B383812F0F900F900F900F900F90DF9188
:1027E000CF911F91FF90EF90089580911C0281116D
:1027F00018C08091D80080618093D8008AE18A95C2
:10280000F1F700C08091D90080FD02C082E001C0D4
:1028100081E080931C02823021F40E94B90C109256
:10282000910181E090911C02913009F080E00895BF
:10283000F894E82FE295EF70F0E031A1282F2F7087
:1028400081E090E001C0880F2A95EAF7982F9095D3
:10285000932391A392A1892B82A3789408957F92C8
:102860008F929F92AF92BF92CF92DF92EF92FF92A0
:102870000F931F93CF93DF93CDB7DEB72C970FB68F
:10288000F894DEBF0FBECDBFAE014F5F5F4F7A0140
:1028900088E0DA011D928A95E9F70BE311E06A01FD
:1028A0008FE3882E81E0982EAA24A394B12CF801FE
:1028B00080818F3F09F448C0F894E82FE295EF70CB
:1028C000F0E021A18F70A50102C0440F551F8A9529
:1028D000E2F7CA01922F982B91A392A180958923A8
:1028E00082A3789400C0E3E4F1E020E030E0712CB2
:1028F00081918F3FB9F0A82FA295AF70B0E090966C
:102900004C9150E08F70DA0102C0B595A7958A9579
:10291000E2F7A0FD07C08A2D022E01C0880F0A949D
:10292000EAF701C080E0782A2F5F3F4F263031055B
:10293000F9F6F80180818F3F11F00E941814F0EA37
:10294000FA95F1F7D6017C920F5F1F4FBFEFCB1ABC
:10295000DB0A8016910609F0AACF48E050E0B701E3
:1029600081EB91E00E948B208C01892B41F088E063
:10297000F701A1EBB1E001900D928A95E1F7F0909B
:10298000BA010115110549F081E0809315020E94FA
:10299000300F9093140280931302809115028823C4
:1029A000B9F080911302909114020E94150F0597BF
:1029B00078F0A1EBB1E0EF2DF0E0EB53FE4F85EBAB
:1029C00091E02D9121938A179B07D9F71092150258
:1029D0000115110509F0ABC00E94F513E091BA0191
:1029E000882309F460C019861A861B861C860E2F60
:1029F00010E00B531E4F8091AA018A3058F448E42E
:102A000053E1BE01675F7F4FC8010E94C212882355
:102A1000C1F00AC080911602909117020E94150F12
:102A2000843F914060F71EC04CE35FE0BE01675FEA
:102A30007F4FC8010E94C212882319F01092AA0188
:102A40001CC08091AA018F3F19F08F5F8093AA016B
:102A50008091AA018A3088F00E94300F909317026B
:102A600080931602E091B901F0E0EB53FE4F108223
:102A700011821282138201E05CC0E091B901F0E0A2
:102A8000EB53FE4FDE0119969E01235F3F4F00E09E
:102A90008D919081981711F0808301E031962A176B
:102AA0003B07B1F746C0F0E0EB53FE4FF89484E0EB
:102AB000AEE9B1E001900D928A95E1F78EE991E0DF
:102AC0000E948C0980939D017894F894C090A20193
:102AD000D090A301E090A401F090A501809118028C
:102AE00090911902A0911A02B0911B02C816D90642
:102AF000EA06FB06D1F0C0921802D0921902E092C9
:102B00001A02F0921B020E94F51381110EC00E945E
:102B1000240FC61AD70AE80AF90AC092AB01D0926C
:102B2000AC01E092AD01F092AE01789402C001E0F8
:102B300010E0802F2C960FB6F894DEBF0FBECDBFED
:102B4000DF91CF911F910F91FF90EF90DF90CF9089
:102B5000BF90AF909F908F907F900895CF93DF9319
:102B60008238910569F1B0F48133910509F46FC0A1
:102B700048F48932910509F465C08A32910509F457
:102B80006BC08AC08533910509F457C0893391051C
:102B9000B9F082C0833E910571F138F4803E910511
:102BA000B1F0823E910511F177C0863E9105B9F1F1
:102BB000873E9105C9F1843E910509F06DC024C09E
:102BC0002091AF0120FD53C021FD51C065C080910F
:102BD000AF0180FD46C08091B00180FF48C0809168
:102BE000AF0184FD3FC183EE90E03EC18091AF0113
:102BF00082FF3AC0F4CF8091AF0182FD35C0809151
:102C0000B00180FD34C0EBCF8091B00181FF35C0B1
:102C10008091AF0184FD26C187EE90E025C18091AF
:102C2000AF0183FF27C0F4CF8091AF0183FD22C0A5
:102C30008091B00181FD21C0EBCF8091AF0185FD76
:102C40001FC021C08091AF0185FD1DC019C08091BA
:102C5000AF0186FD1BC01DC08091AF0186FD19C06C
:102C600015C089E390E000C182EE90E0FDC080EEE7
:102C700090E0FAC086EE90E0F7C084EE90E0F4C0F9
:102C800089E290E0F1C085E390E0EEC08AE290E056
:102C9000EBC081E390E0E8C0811532E5930708F0CE
:102CA00069C0811541E5940728F0982F8827816F26
:102CB000906ADAC0883E910568F5803E910508F07B
:102CC000D3C0883A9105B8F4853A910548F0855A01
:102CD000E82FF0E0E75BFE4F808190E09064C4C095
:102CE0008130910509F4BBC008F4BCC08430910563
:102CF00008F4B8C0B9C08F3B910508F0B3C0885A3A
:102D0000E82FF0E0EE0FFF1FE45BFE4F8081918122
:102D10009464AAC0811520E59207F0F09C0174E04C
:102D2000369527957A95E1F7922F9370482F437047
:102D300021E030E002C0220F331F4A95E2F73C68E1
:102D4000392B8F70982F9695969540E2949FC001ED
:102D50001124822B932B88C0811530E4930718F03F
:102D60009F70906A81C09C013A9521153F4108F4FB
:102D70007BC078C0EC01C11586E5D807E8F5C11520
:102D800025E5D20748F08C2F0E9405138F7190E043
:102D9000982F8827906268C0C11534E5D30728F0C2
:102DA0009C2F8827846F906A5FC0AE0143705527BF
:102DB0002C2F26952695C115D34578F481E090E017
:102DC00002C0880F991F4A95E2F740E2249F9001C4
:102DD0001124822B932B9C6847C081E090E002C0B5
:102DE000880F991F4A95E2F740E2249F9001112431
:102DF000822B932B9A6838C0C1152AE5D207F8F4C4
:102E0000C11539E5D30790F08C2F8F700E94051300
:102E100094E0D695C7959A95E1F7CF70D0E0DC2F76
:102E2000CC27D0699E01282BC9011EC0C11548E5D9
:102E3000D407C0F09C2F8827806F906A15C0CE0100
:102E400090568115904270F48D2F8F710E9405135A
:102E5000282F2F71CE0199279062922B05C081E017
:102E600090E002C080E090E0DF91CF910895CF9391
:102E700084E090E00E943C20C82F82E290E00E9413
:102E80003C202C2F30E0A901582BCA01CF91089586
:102E900069EE7EEF80E090E00E94682060E082E0D2
:102EA00090E00E944A2060E083E090E00E944A2087
:102EB0001092120260E084E090E00E944A2060E0FC
:102EC00082E290E00E944A2060E085E090E00E946B
:102ED0004A2060E086E090E00E944A206FEF87E0A1
:102EE00090E00E944A2040E050E0BA0188E090E083
:102EF0000E945C2060E08DE090E00E944A2040E06B
:102F000050E0BA0188E190E00E945C2060E087E137
:102F100090E00E944A2040E050E0BA018CE190E04D
:102F20000E945C2060E070E080E290E00E946820F7
:102F300040E050E0BA0188E190E00E945C2080E02F
:102F40000E94D41D0E94F21D40E050E0BA018FE0C3
:102F500090E00E945C2040E050E0BA0183E190E004
:102F60000C945C208091110281111092110208953D
:102F70009091100280910F02892B20910E02982FC0
:102F8000922B9093CD0180911102882389F0892B97
:102F90008093CD01EFECF1E097E080E0915029F0D3
:102FA00021912223D9F38F5FF9CF81110E94B217AB
:102FB000E0913C02F0913D02309731F00280F381C4
:102FC000E02D8DEC91E009940895CF93C091B0016C
:102FD000C2FB992790F9981781F080FBC2F9C09342
:102FE000B0016091AF0184E090E00E944A206C2F14
:102FF00082E290E0CF910C944A20CF9108952091E5
:103000000D028095822380930D02982F977041F4D2
:1030100030E0482F082E000C550B2417350721F4FB
:103020009091B00192FF07C08595859585950E9486
:103030000D1B10920D02089580910C029091DB01FE
:10304000891719F08F5F8770FBCF08950F931F9337
:10305000CF93DF938091DA0182958F7009F05DC084
:103060008091D701882309F458C080910C021091F7
:10307000DB016091D5017091D601C091D801D0914A
:10308000D90191E06F3F09F090E0292F06E0811708
:1030900009F443C0209721F07F3F21F030E003C0C6
:1030A00031E001C0322F90E030FD34C0089FF001C4
:1030B000099FF00D1124DF01A452BE4F11963C91DF
:1030C0001197371327C03C91361324C012963C91B8
:1030D000129731111FC013964D915C9114974C1BA0
:1030E0005D0B483C5105B0F48091DA018F7080612E
:1030F0008093DA01EF51FE4F80818F708061808371
:1031000085ED91E00E943103DF91CF911F910F91E6
:103110000C941C1801968770BACFDF91CF911F9144
:103120000F91089580E090E00E94C41C80E090E040
:103130000E94AE1C10920F0210920E020C94B8174F
:10314000CF92DF92FF920F931F93CF93DF936C0187
:1031500000919B0180911202082BC7E0D0E010E0A3
:10316000C8010C2E02C0959587950A94E2F780FD60
:1031700004C02197A8F7F12C09C0FC2EB6018C2FB2
:103180000E94C71D0E94AE15019799F38F2DDF9104
:10319000CF911F910F91FF90DF90CF900895CF9323
:1031A000DF93EC010E94A018BE010E94C71D0E947F
:1031B000AE15DF91CF910895FC01808191810E942D
:1031C000CF18292F2F70E92FE295EF704E2F50E086
:1031D000FA013297EE30F105B8F4E158FF4F0C9444
:1031E0007E20803F99F018F4883E70F40FC0843F31
:1031F00059F40CC0883E50F0813F31F407C0822F53
:10320000869586958695089580E0089581E00895D5
:103210009F92AF92BF92CF92DF92EF92FF920F9365
:103220001F93CF93DF93CDB7DEB761970FB6F894B6
:10323000DEBF0FBECDBF8C0185E0F801DE011D961B
:1032400001900D928A95E1F7F801E2809091D50105
:103250006091D6014091D8015091D9014115510595
:1032600031F06F3F31F481E09F3F19F403C081E0FA
:1032700001C080E0F82FF1709F2E80FD1AC1F80187
:1032800030812181C380D48085EDA82E81E0B82EC5
:10329000F090D701F601E41BF50BFF2009F4C6C03E
:1032A0008091DA01E83CF10508F091C0482F407F99
:1032B00009F050C0621311C093130FC0FE2CE1102F
:1032C0000CC08F7080618093DA01C5010E943103C8
:1032D0008091DA01F801858329C1CD2831F02F3F93
:1032E00031F481E03F3F19F403C081E001C080E088
:1032F00080FD03C081E08E2502C080E090E0F82FC1
:10330000F170FF2E80FF1CC080910C024091DB0108
:1033100056E0841709F4E8C090E0589FF001599FE7
:10332000F00D1124E452FE4F6181261306C0608126
:10333000631303C06281E61203C001968770E9CF70
:10334000FE2CEE2009F4F2C08091DA0181608093B6
:10335000DA0149C0621306C0931304C0E11002C031
:10336000F80186C0C8010E94DC18882351F1EE20C4
:1033700041F12091DA01822F82958F7090E00297BF
:1033800074F08091D5019091D60198878F8319862A
:10339000DB86CA862C87CE0107960E94310386E021
:1033A000F801A5EDB1E001900D928A95E1F70E9438
:1033B00026180AC06217C9F0C8010E94DC188111E2
:1033C0001EC0C8010E943103FF24F394AFC0482FF0
:1033D000407F81F785ED91E00E94310386E0F501A1
:1033E00011928A95E9F7F12CA1C09313E5CFE11072
:1033F000E3CFF8018583C8010E94310354C0EE2059
:1034000001F32091DA01822F82958F7090E002976C
:1034100034F28091D5019091D6019A8389831B82E1
:10342000DD82CC822E83CE010196B7CFE83CF10538
:10343000D0F5FE2CEE2029F2621327C0931325C08D
:103440002091DA0120FD18C0822F82958F70482FBD
:1034500050E04115510581F0F80125834F305105A9
:1034600041F08F5F982F9295907F822F8F70892BDC
:103470008583C8010E94310386E0F801A5EDB1E023
:1034800001900D928A95E1F751C0C8010E94DC18A5
:10349000811185CF8091DA0181608093DA01C801C2
:1034A0000E94310343C086E0F50111928A95E9F745
:1034B0003DC0EE2009F485CFC8010E94DC18F82E2B
:1034C000882309F47ECF86E0F801A5EDB1E00190F4
:1034D0000D928A95E1F78091D5019091D6010E94D5
:1034E000CF180E94261822C03D872E878D859E8585
:1034F0000E94CF18292F22952F70223028F49F7018
:1035000039F0811105C00BC0243028F49F7049F4B4
:10351000805E883020F0C8010E9431039F2CF92C76
:1035200005C0F8019581907F99F7F9CF8F2D6196AD
:103530000FB6F894DEBF0FBECDBFDF91CF911F91C4
:103540000F91FF90EF90DF90CF90BF90AF909F9042
:103550000895292F220F920F990F890F682F6695D2
:1035600066956695982F977083E0689FB001112447
:1035700040E050E080E0FB01E40FF51FEB5DFD4F04
:10358000208130E0092E02C0369527950A94E2F793
:1035900021703327042E01C0220F0A94EAF7822BF0
:1035A0004F5F5F4F4330510531F70895292F220FA8
:1035B000920F990F890FE82FE695E695E6958770AB
:1035C00051E001C0550F8A95EAF783E0E89FF001CA
:1035D0001124EB5DFD4F20E030E070E04081CB0135
:1035E000022E02C0969587950A94E2F78170819524
:1035F00084278523842781932F5F3F4F2330310514
:1036000069F70895982F9670963011F4886001C07C
:10361000877F80939B010C94921821E030E001C0D9
:10362000220F8A95EAF7209580919B0182230C94C2
:10363000021B21E030E001C0220F8A95EAF7809159
:103640009B01822B0C94021B809312020C94921803
:103650001092100286E0EFECF1E0DF011D928A95F6
:10366000E9F70C949218882341F08095909110020C
:103670008923809310020C94B8170895882339F099
:1036800090911002892B809310020C94B817089522
:10369000882309F458C0682F823869F40E94DA1C24
:1036A00081FF51C069E38DEC91E00E94941C0E945F
:1036B000B81769E30EC0833891F40E94DA1C80FFCA
:1036C00042C063E58DEC91E00E94941C0E94B81703
:1036D00063E58DEC91E00E94871C0C94B817843848
:1036E00069F40E94DA1C82FF2EC067E48DEC91E041
:1036F0000E94941C0E94B81767E4EBCF8CEF860FF2
:10370000813A38F380E2860F883070F4677081E088
:1037100090E001C0880F6A95EAF7809590911002B9
:10372000892380931002D9CF8BE5860F833020F454
:1037300080E090E00C94C41C685A673120F480E06B
:1037400090E00C94AE1C0895CF93882309F496C0A2
:10375000C82F8238B1F40E94DA1C81FD8FC069E362
:103760008DEC91E00E94941C0E94B8172FEF81EE1F
:1037700094E0215080409040E1F700C0000069E3F0
:1037800017C08338E1F40E94DA1C80FD77C063E53E
:103790008DEC91E00E94941C0E94B8172FEF81EEEF
:1037A00094E0215080409040E1F700C0000063E5C4
:1037B0008DEC91E00E94871CCF910C94B81784384F
:1037C000B1F40E94DA1C82FD59C067E48DEC91E0EF
:1037D0000E94941C0E94B8172FEF81EE94E02150B4
:1037E00080409040E1F700C0000067E4E1CF8CEF3B
:1037F0008C0F813A80F4EFECF1E085ED91E02191BE
:10380000C217A1F18E179F07D1F76C2F8DEC91E0B5
:103810000E94941CD1CF80E28C0F883068F4C7706E
:1038200081E090E001C0880FCA95EAF790911002FC
:10383000892B80931002C0CFEBE5EC0FE33040F40E
:10384000F0E0E75BFE4F808190E0CF910C94C41CC8
:10385000C85AC73198F4EC2FF0E0EE0FFF1FE45B7D
:10386000FE4F80819181CF910C94AE1C6C2F8DEC1A
:1038700091E00E94871C0E94B817C7CFCF9108958E
:103880001F93CF93DF93182F893319F0C0E0D0E056
:1038900002C0C0E5D0E0812F0E94A41B209741F018
:1038A0008FE99FE00197F1F700C000002197F6CF64
:1038B000812FDF91CF911F910C94481B1F920F9283
:1038C0000FB60F9211248F939F93AF93BF93809164
:1038D0004002811113C080917D0190917E01A091E1
:1038E0007F01B09180014196A11DB11D80937D01A2
:1038F00090937E01A0937F01B0938001BF91AF911F
:103900009F918F910F900FBE0F901F9018959C0163
:103910002A5F3F4FFC014281461301C0128201968B
:1039200082179307B9F708959C01FC0132969FEF27
:1039300080E04191461789F09F3F19F4411101C081
:10394000982F8F5F8630A9F79F3F39F0F901E90F73
:10395000F11D97FDFA9562830895089520913E0226
:1039600030913F022817390771F090933F028093FE
:103970003E02E0913C02F0913D02309721F000843C
:10398000F185E02D0994089520913A0230913B028F
:103990002817390771F090933B0280933A02E09127
:1039A0003C02F0913D02309721F00680F781E02D36
:1039B000099408950E94F513882351F0E0913C0288
:1039C000F0913D02309721F00190F081E02D0994B3
:1039D00080E008950F931F93CF93DF93C42FD22FCE
:1039E000FC0182818823C9F0409339020E94300F84
:1039F000909338028093370280E28C0F883008F071
:103A000057C0C77081E001C0880FCA95EAF7DF91FF
:103A1000CF911F910F910C943E1B80913902481356
:103A200030C080913702909138020E94150F883C77
:103A3000910538F510E21D0FCD17B9F080E28C0F1B
:103A4000883040F4C77081E001C0880FCA95EAF75A
:103A50000E94331B183028F581E09D2F977001C01C
:103A6000880F9A95EAF70E943E1B802F0E94401C07
:103A70001830F0F4D77081E001C0880FDA95EAF7CA
:103A80000AC080E28C0F883098F4C77081E001C0D2
:103A9000880FCA95EAF7DF91CF911F910F910C948F
:103AA000331B802FDF91CF911F910F910C94401CFD
:103AB000DF91CF911F910F910895CF93DF93C7EAC4
:103AC000D1E060E0CE010E944A202196C11584E039
:103AD000D807B9F7DF91CF910895CF92DF92EF9297
:103AE000FF920F931F93CF93DF93C0E0D0E08E013E
:103AF000005A1F4F6E018CE0C80ED11CFE01E15030
:103B0000FD4FE590F4906F2DCE0187960E944A20DC
:103B10006E2DCE0188960E944A202296CC15DD0596
:103B200069F70C171D0731F7E80100381140F9F665
:103B3000DF91CF911F910F91FF90EF90DF90CF9089
:103B400008950F931F93CF93DF93C42FD0E0CC0F32
:103B5000DD1F2CE0629FC00DD11D112430E6839F34
:103B6000C00DD11D1124CE0187960E943C20082F44
:103B700010E0102F0027CE0188960E943C2098016B
:103B8000282BC901DF91CF911F910F910895462FE6
:103B9000843038F4783028F4663018F4672F0C94A9
:103BA000A11D80E090E00895CF93C82F811102C03D
:103BB0006FEF01C061E283E290E00E944A20C111F0
:103BC00002C06FEF01C069E084E290E00E944A20E9
:103BD000C11102C06FEF01C065E285E290E0CF91B4
:103BE0000C944A2080E00E94D41D60E086E290E0C0
:103BF0000E944A200E946D1D0E945D1D81E00C9470
:103C0000D41D83E290E00E943C20813281F484E262
:103C100090E00E943C20893051F485E290E00E94BF
:103C20003C2091E0853209F090E0892F01C080E0CE
:103C3000817008958EE14A9B02C08150E1F74A9B52
:103C4000FECF08955A9880E28A95F1F75A9A08951E
:103C5000FC012AE02A95F1F728E090E080E031E0CD
:103C600040E14A95F1F7880F4A9B02C08160932793
:103C700000C0000040E14A95F1F7215089F720E1AA
:103C80002A95F1F729B100C0000030E13A95F1F72B
:103C900022FB222720F992272081920F90830895FA
:103CA000EF92FF920F931F93CF93DF931F92CDB7A5
:103CB000DEB719828C017C01E60EF11C0E151F0582
:103CC00051F00E941A1ECE0101960E94281EF80192
:103CD00081938F01F3CF81E09981911180E00F9062
:103CE000DF91CF911F910F91FF90EF900895529A1D
:103CF0005A9A089552985A9AEA9AE9E6F0E0808131
:103D00008F7C80830895615091E001C0990F6A957E
:103D1000EAF720E031E0992361F0492F482319F0B8
:103D20005A9A232701C05A9840E24A95F1F796958E
:103D3000F2CF222311F05A9A01C05A9880E28A9554
:103D4000F1F75A980895FF920F931F93CF93DF9343
:103D5000EC018C01060F111DC017D10741F0F9903D
:103D60000E94221E68E08F2D0E94831EF5CFDF91F6
:103D7000CF911F910F91FF9008951F920F920FB650
:103D80000F921124EF92FF920F931F932F933F9363
:103D90004F935F936F937F938F939F93AF93BF9353
:103DA000EF93FF93CF93DF931F92CDB7DEB71982C6
:103DB0000E941A1ECE0101960E94281EA82FA695C9
:103DC000A695A6959A2F969595702A2F2570920FF5
:103DD000292F237096959695920F877089137CC032
:103DE0008981811179C0A43008F076C080E18A957C
:103DF000F1F75A9A529AB2E0BA95F1F700C05A9880
:103E0000EA2EF12CEAE0AE9FD0011124AF5FBE4F45
:103E10001896ED91FC9119973097B1F060913901A6
:103E200070913A0116962D913C911797260F371FE6
:103E300013968D919C911497680F791F15964C914C
:103E4000159712968C9109958AE08E9DF0018F9DB1
:103E5000F00D1124EF5FFE4F6581662351F08091D4
:103E6000390190913A0126813781820F931F0E9478
:103E7000A31E0E94221EF0E1FA95F1F75A9852987B
:103E80005A9A80E18A95F1F78AE08E9D80018F9D94
:103E9000100D11240F5F1E4FD80112966C911297CE
:103EA000662399F08091390190913A0113962D91F2
:103EB0003C911497820F931F0E94501ED801ED91E0
:103EC000FC91811105C082E004C0D801ED91FC9104
:103ED00088E080830E941A1E0F90DF91CF91FF919E
:103EE000EF91BF91AF919F918F917F916F915F9172
:103EF0004F913F912F911F910F91FF90EF900F9055
:103F00000FBE0F901F9018950F931F93CF93DF93C1
:103F1000843091050CF0A9C02AE0289FF001299F68
:103F2000F00D1124EF5FFE4F20813181232B09F426
:103F30009CC0EC01F894529A5A9885E08A95F1F762
:103F400000008C2F869585709C2F9570890F982F77
:103F50009370869586958E0123E0000F111F2A9598
:103F6000E1F7890F082B0E94221EA4E0AA95F1F721
:103F700000C068E0802F0E94831EB0E1BA95F1F77F
:103F800052985A9A4A9902C000C0FCCF87E090E04C
:103F90004A9B17C0019799F4529A5A9A8AE08C9FCB
:103FA000F0018D9FF00D1124EF5FFE4F0190F08125
:103FB000E02D81E08083789481E090E058C000C0DB
:103FC000E7CF8AE08C9F80018D9F100D11240F5F39
:103FD0001E4FF80165816623B9F0809139019091F7
:103FE0003A0126813781820F931F0E94501E811152
:103FF0000BC0529A5A9AD801ED91FC9182E08083CD
:10400000789482E090E033C00E941A1EB0E2BA9524
:10401000F1F75A98529AE0E1EA95F1F78AE08C9F1D
:10402000F0018D9FF00D1124EF5FFE4F628166233A
:1040300051F08091390190913A0123813481820FAE
:10404000931F0E94A31E0E94221E8AE08C9FF001F3
:104050008D9FF00D1124EF5FFE4F0190F081E02D58
:104060001082789480E090E002C084E090E0DF91DC
:10407000CF911F910F910895F999FECF92BD81BD07
:10408000F89A992780B50895A8E1B0E042E050E0A1
:104090000C947020262FF999FECF92BD81BDF89A1D
:1040A000019700B4021639F01FBA20BD0FB6F8947C
:1040B000FA9AF99A0FBE08950396272F0E944B2073
:1040C0000E944A20252F0E944B20242F0C944B2025
:1040D0000196272F0E944B200C944A20DC01CB0133
:1040E000FC01F999FECF06C0F2BDE1BDF89A319608
:1040F00000B40D9241505040B8F70895EE0FFF1FE5
:104100000590F491E02D099469279627692778276F
:10411000872778270895FB01DC0104C08D91019069
:10412000801921F441505040C8F7881B990B08951D
:10413000FB01DC0102C001900D9241505040D8F7C4
:064140000895F894FFCF82
:10414600019C0100000001000000009C010000002D
:1041560004010000009C01040500000000000001AD
:104166007E099F0E7D099B0E970E4022321E02FC91
:1041760001CA0170028902A9029D019497C6340002
:10418600000000F4F5F6F73133818283E200E9009E
:10419600EA00B500B600B700CD008301CC008A0165
:1041A60092019401210223022402250226022702FB
:0A41B6002A02B300B4006F0070008D
:00000001FF
