:100000000C9451030C9498030C9498030C94C628F8
:100010000C9498030C9498030C9498030C949803F4
:100020000C9498030C9498030C94C2130C94FE1235
:100030000C9413220C9498030C9498030C9498033A
:100040000C9498030C9498030C9498030C949803C4
:100050000C9498030C9478150C9498030C949803C2
:100060000C9498030C9498030C9498030C949803A4
:100070000C9498030C9498030C9498030C94980394
:100080000C9498030C9498030C9498030C94980384
:100090000C9498030C9498030C9498030C94980374
:1000A0000C9498030C9498030C949803F907F9079F
:1000B000330833088C08A709A709A709A8081C0951
:1000C0002D092D09C80DCB0DE70DF40DFB0D1B0EF1
:1000D0001E0E520E740E0D0F0D0F7F0E810E850E2B
:1000E000A80EC80ECB0ECE0EEF0E12113911E01273
:1000F0003911E0128511A811E0129D12AD12ED1C0C
:10010000ED1C001D001DF61C001D001D001DED1C3A
:10011000ED1CFB1C001D001DFB1C0000000000006E
:1001200000000000000000000000000000000000CF
:1001300000000000000000000000000000007E0F32
:1001400000D4FFFFFFC7000000780000000000009F
:1001500000002A2B28000000000000000000000022
:10016000000000000029000000002C1E3420212285
:1001700024342627252E362D3738271E1F202122EE
:10018000232425263333362E37381F040506070867
:10019000090A0B0C0D0E0F10111213141516171857
:1001A000191A1B1C1D2F3130232D35040506070895
:1001B000090A0B0C0D0E0F10111213141516171837
:1001C000191A1B1C1D2F3130354C00047F3F1F6452
:1001D0003214643214783C1E1E140A05050109808D
:1001E000A101850319012AB700150126B700950161
:1001F00075108100C0050C0901A101850419012AAF
:10020000A002150126A002950175108100C00660AC
:10021000FF0961A1010962150026FF0095207508FC
:1002200081020963150026FF00952075089102C020
:1002300005010906A101050719E029E715002501B7
:10024000950875018102950175088101050719005E
:1002500029FF150026FF009506750881000508197D
:10026000012905950575019102950175039101C05C
:1002700009025B00030100A0FA0904000001030168
:100280000100092111010001224000070581030836
:10029000000A090401000203000000092111010005
:1002A0000122220007058203200001070503032025
:1002B00000010904020001030000000921110100EE
:1002C000012232000705840320000A120100020007
:1002D000000008545901000100010200011A034CFA
:1002E0000075006E0061006B006500790020004D14
:1002F0000069006E0069000000120379006F006958
:100300000063006800690072006F000000040309C8
:10031000042223252628292A2C2D2F303233353646
:10032000383A3B3D3E4042434547494A4C4E505186
:10033000535557595A5C5E6062646668696B6D6FAD
:1003400071737577797B7D7F81838587898A8C8EB0
:1003500090929496989A9C9E9FA1A3A5A7A8AAACB8
:10036000AEAFB1B3B4B6B8B9BBBCBEBFC1C2C3C5F2
:10037000C6C7C9CACBCCCDCED0D1D2D2D3D4D5D694
:10038000D7D7D8D9D9DADADBDBDBDCDCDCDCDCDDC7
:10039000DDDDDDDCDCDCDCDCDBDBDBDADAD9D9D8AB
:1003A000D7D7D6D5D4D3D2D2D1D0CECDCCCBCAC943
:1003B000C7C6C5C3C2C1BFBEBCBBB9B8B6B4B3B172
:1003C000AFAEACAAA8A7A5A3A19F9E9C9A9896940D
:1003D00092908E8C8A89878583817F7D7B797775E2
:1003E00073716F6D6B6968666462605E5C5A5957C1
:1003F000555351504E4C4A4947454342403E3D3B80
:100400003A3836353332302F2D2C2A292826252309
:10041000222B0014001A00080015001700E0000449
:10042000001600070009000A00E1001D001B00067D
:10043000001900050000000000E300E20001512C5B
:10044000002A00130012000C0018001C00340033B6
:10045000000F000E000D000B00E5003800370036DD
:10046000001000110000000000E700E60002512823
:100470000029001E001F00200021002200E00001D2
:10048000000100010001000100E100010001000184
:10049000000100010000000000E300E20001512C17
:1004A000002A002700260025002400230001000167
:1004B000004F0052005100500001000100010001F6
:1004C000000100010000000000E700E600025128E2
:1004D0000029001E021F02200221022202E0000168
:1004E000000100010001000100E1003502010001EE
:1004F000000100010000000000E300E20001512CB7
:10050000002A002702260225022402230235003198
:100510000230022F022E002D003502310030002F54
:10052000002E022D0200000000E700E60002512824
:1005300000005C01000100010001000100C25CC577
:100540005CC75CC95C01000100C35CC65CC85CCAD6
:100550005C0100010000000000E300E20001512CFA
:10056000003F003E003D003C003B003A0045004497
:100570000043004200410040000100010001000171
:10058000000100010000000000E700E60002512821
:100590000000010101010101010101020202020248
:1005A000020202020303030303030303040404041B
:1005B00004040405050505050606060606070707E3
:1005C000070708080808090909090A0A0A0B0B0B9A
:1005D0000C0C0C0D0D0D0E0E0E0F0F0F1010111137
:1005E00011121213131414151516161717181819BB
:1005F000191A1A1B1B1C1D1D1E1E1F202021222222
:10060000232424252626272829292A2B2C2D2D2E64
:100610002F30313232333435363738393A3B3C3D7E
:100620003E3F404142434445464748494A4C4D4E6F
:100630004F50515354555658595A5B5D5E5F616235
:1006400064656668696B6C6D6F7072737577787AC4
:100650007B7D7E8082838587888A8C8E8F9193951F
:1006600096989A9C9EA0A2A3A5A7A9ABADAFB1B343
:10067000B5B7BABCBEC0C2C4C6C9CBCDCFD1D4D623
:10068000D8DBDDDFE2E4E7E9EBEEF0F3F5F8FAFDC5
:10069000FFFFAA7F55400001020304050B0A090869
:1006A000070611241FBECFEFDAE0DEBFCDBF04B6D0
:1006B00003FE27C08091CA029091CB02A091CC0288
:1006C000B091CD028730904BA740B04BD1F410923F
:1006D000CA021092CB021092CC021092CD0214BE2C
:1006E00084B7877F84BF0FB6F894A8958091600087
:1006F000886180936000109260000FBEE0E0F8E334
:10070000099511E0A0E0B1E0E8EAF6E502C0059045
:100710000D92AC3BB107D9F722E0ACEBB1E001C0E0
:100720001D92AA3CB207E1F70E94CA0A0C94522B10
:100730000C9400001F93CF93DF93CDB7DEB767977C
:100740000FB6F894DEBF0FBECDBF4B8B5C8B6D8BAD
:100750007E8B8F8B61111092850286E09E01235F54
:100760003F4FD901E82F1D92EA95E9F795E0FE0188
:100770007396D90101900D929A95E1F79C894E8963
:100780005F897B897D879E876F87598B488BF901AD
:10079000DE01179601900D928A95E1F7CE0107963A
:1007A0000E94041D81113EC086E0FE013796DE01E5
:1007B000119601900D928A95E1F7FF81E8856A858F
:1007C0007B856115710531F0EF3F31F481E0FF3F2A
:1007D00019F403C081E001C080E080FD23C02091B6
:1007E000510230E0C9010196877099274091820239
:1007F00050E08417950779F1F983EA837D836C8350
:1008000096E0929FD001939FB00D1124AE5ABD4F38
:10081000FE01319601900D929A95E1F78093510275
:100820000E94261C16E08091820290915102891745
:10083000F9F0189FC00111248E5A9D4F0E94041D8B
:100840008823B1F08091820290E001968770992709
:1008500080938202E8CF0E94411F109251021092B1
:100860008202EBE4F2E086E0DF011D928A95E9F76F
:1008700067960FB6F894DEBF0FBECDBFDF91CF9164
:100880001F9108953F924F925F926F927F928F9245
:100890009F92AF92BF92CF92DF92EF92FF920F930F
:1008A0001F93CF93DF93CDB7DEB729970FB6F89498
:1008B000DEBF0FBECDBFFC018081918123813481D9
:1008C000232B31F09F3F31F491E08F3F19F403C0A7
:1008D00091E001C090E090FD45C67F0185E0DE011A
:1008E000119601900D928A95E1F7F7012281898195
:1008F0009A81222349F00E949C1C182F682F89811D
:100900009A810E94D21E03C00E94A51E182F6981E1
:100910007A81812F0E94A0238C01F7018281882394
:1009200009F4F2C0980122513F452031310508F009
:1009300019C18FEF93E00E94452A8111EFC0025147
:1009400037EA832E99249394002379F08114F4E0FC
:100950009F0609F4E3C0C4010E94452A811101C029
:1009600001502FEF821A920AEFCF1E821F82188643
:100970001986442443942AE0322E84010F5F1F4FCE
:10098000C4010E94452A8E831F82882309F4C6C0B1
:100990009FEF980F933060F48F834E8232E0830E86
:1009A000911CC8010E94452A8887811102C0B6C0E7
:1009B00048018E010A5F1F4FF80120812223E9F2CE
:1009C000213009F04CC08181813049F46801F2E0A6
:1009D000CF0ED11CF80182810E94611F0AC08230B3
:1009E00051F46801F2E0CF0ED11CF80182810E941F
:1009F0008727860186C0833049F46801F2E0CF0E74
:100A0000D11CF80182810E942B27F3CF843019F08A
:100A10000F5F1F4F76C0F80122810E5F1F4F80E0ED
:100A200090E030E0205331092A30310568F4389ED7
:100A3000A001399E500D1124C901840F951F0F5F2D
:100A40001F4FF8012081EDCF009709F45AC0EFE95C
:100A5000FFE03197F1F700C000000197F5CFE22FDA
:100A6000F0E0E65BFE4F5490822F86958695869542
:100A700090E0FC01E65CFE4F64902770712C022E22
:100A800002C0759467940A94E2F7F1E06F2277242C
:100A9000FC01E65DFE4FA490B12C022E02C0B5947D
:100AA000A7940A94E2F731E0A322BB24FC01E65E9E
:100AB000FE4FC490D12C02C0D594C7942A95E2F77A
:100AC00081E0C822DD246114710419F081EE0E94D6
:100AD0008727A114B10419F086EE0E948727852D7F
:100AE0000E94611FAB2819F086EE0E942B27672811
:100AF00019F081EE0E942B27CD2819F08CE20E947C
:100B0000611F0F5F1F4F58CF00313FE5130709F0FA
:100B100053C481E00E94091F0E940A108091830241
:100B2000877009F41FC5F7018281882309F41AC56B
:100B300082E029960FB6F894DEBF0FBECDBFDF91DD
:100B4000CF911F910F91FF90EF90DF90CF90BF90CA
:100B5000AF909F908F907F906F905F904F903F905D
:100B60000C94151F0031FFE51F0711F481E005C04B
:100B700001312FE5120721F482E00E94321FCCCF11
:100B8000033FFCE51F0749F406E221EE40EE63EF68
:100B90007CE5C7010E94C322C1CF043F2CE51207A8
:100BA00008F049C1083D3CE5130731F407E225EEA2
:100BB00045EE68ED7CE5EDCF093D9CE5190731F484
:100BC00008E221E045EE69ED7CE5E3CF073DECE589
:100BD0001E0731F406E221EE41EE67ED7CE5D9CF48
:100BE000882309F45DC11092B80202309CE5190710
:100BF00008F440C10631ECE51E0730F0C8018A5FF9
:100C00009C45099708F036C10E9481199093C00154
:100C10008093BF010031FCE51F0709F4C3C008F051
:100C200041C008303CE5130709F49AC0F0F40430E1
:100C30009CE5190709F487C068F40230FCE51F073A
:100C400009F477C003301C4509F0E5C08091BF016D
:100C5000826076C006303CE5130709F46EC008F0E8
:100C60007BC08091BF0188606BC00C309CE5190788
:100C700009F485C068F40A30FCE51F0709F474C064
:100C800008F079C00E94411F8091BF01806858C060
:100C90000E303CE5130709F476C008F07FC0809160
:100CA000BF018BC00B3F9CE5190709F44FC018F535
:100CB0000331FCE51F0709F47DC078F401313CE500
:100CC000130709F473C002311C4509F0A4C00E9447
:100CD000411F8091BF018F7733C005319CE5190713
:100CE00009F472C008F486C00A3F1C4509F093C09D
:100CF0008091C0013EC00F3F2CE5120709F45FC090
:100D000058F40D3F8CE5180709F444C008F43FC0BF
:100D10008091C00182602DC00130EDE51E0709F40D
:100D200075C008F45DC002301D4509F074C060E074
:100D30006EC08091BF01816003C08091BF0180615E
:100D40008093BF0168C08091BF0111C08091C00134
:100D500082608093C0015FC08091BF018062F0CF4C
:100D60008091BF018064ECCF8091BF018860846076
:100D7000E7CF8160EECF8091BF018E7FE1CF809180
:100D8000BF018D7FDDCF8091BF01877FD9CF80915B
:100D9000C00118C08091C0018D7FDBCF8091BF0161
:100DA0008F7ECECF8091BF018F7DCACF8091BF0152
:100DB0008F7BC6CF8091BF01877F8B7FC1CF809112
:100DC000C0018D7F8E7FC5CF8091BF0182FB22271E
:100DD00020F991E0922790FB82F990FB83F9B0CF44
:100DE0008091C001982F909591708E7F892B90FBF8
:100DF00081F9AFCF0E94411F8091BF0187FB22275D
:100E000020F991E0922790FB87F99ACF61E08EE07C
:100E100090E00E94592A6091BF011091C00184E0C6
:100E200090E00E94592A612F82E290E00E94592AA4
:100E30000E94411F73CE053FFCE51F0731F406E217
:100E400021EE42EE65EF7CE5A4CE053F2CE51207CE
:100E500030F407E225EE44EE64EF7CE59ACE063FDF
:100E60003CE5130709F0BCCE07E225EE46EE66EF3F
:100E70007CE58FCE06318CE5180721F5809186023E
:100E80008A7A91E009F490E09093BE01882311F0F2
:100E900065E301C069E281E392E00E946D220FC028
:100EA0000631ECE51E0709F040C08091BE018823A1
:100EB00009F489C265E381E392E00E9460220E9406
:100EC000D11B2CCE0A359DE5190749F158F40115BF
:100ED000FCE51F07B1F00E3D1C4509F042C00E9421
:100EE0009D191CCE0B353DE51307D9F00C351D457A
:100EF000C1F58091C00182FB882780F991E08927A4
:100F000011C00E94411F9FEFE4E3FCE09150E040DC
:100F1000F040E1F700C000000E945415FFCD81E0D1
:100F200001C080E00E940C1C1CC08091860282726D
:100F30000C3C3CE5130709F4F5C208F076C2063C08
:100F4000ECE51E0709F4DAC208F04DC2033C2CE5BB
:100F5000120709F4C9C208F038C2023C1C4509F462
:100F600099C2F701828100811181882349F0C8016B
:100F70000E949C1CD82E682FC8010E94D21E04C05B
:100F8000C8010E94A51ED82EB8018D2D0E94A02355
:100F90000E94F8178C01982EF701B280A580A294C8
:100FA0009FE0A92280918302877099F0BB2089F08D
:100FB000812F807F803421F080E2800F883048F0DC
:100FC00082E00E94151F809183028770DD24D394F4
:100FD0008111D12CC12EC2948FE0C8228C2D90E0BB
:100FE0008C30910508F0B3C1FC01EA5AFF4F0C9414
:100FF000E52A812F807F1F70882311F01295107FC2
:10100000BB20B9F0112309F48EC180E2800F883033
:1010100010F0911006C080918602182B1093860262
:1010200005C080918502182B109385020E94D11B68
:101030007AC1802F0E942B27112309F488C1005EFA
:101040001095083010F0911006C080918602182388
:101050001093860205C080918502182310938502A3
:101060000E94D11B74C1812F807F1F70803211F0CC
:101070001295107F992021F0F1E09F1611F130C0F8
:10108000BB20B1F0AA2081F021E0A2120DC0809116
:10109000C00182FD5CC180910302182B181709F46E
:1010A00056C11093030253C180910302812B10C0DB
:1010B000AA2021F031E0A31609F449C10E94071AC1
:1010C00027C0BB2041F085E08A1508F440C1812F7C
:1010D0000E94571F3CC194E09A1508F438C118C00B
:1010E000BB2049F0AA2099F3F701858180FF1BC13D
:1010F0008F708583ECCFAA2059F0093309F024C101
:10110000FFEF27EE33E0F15020403040E1F71AC105
:10111000812F0E944C1F1BC1812F8695869583705D
:1011200019F0813059F013C1BB2019F0C801937038
:1011300002C080E090E00E949D220FC1BB2019F008
:10114000C801937002C080E090E00E94872205C130
:10115000812F8370A9F5B110FEC0402F42954695AE
:101160004770440F440F802F8F7090E09C01042E35
:1011700001C0220F0A94EAF704FF08C08FE090E054
:1011800001C0880F4A95EAF7809501C080E0169566
:1011900016951370123069F088F4909104021130A2
:1011A00019F0822B892302C0922B892B0E943D1FAC
:1011B000D2C0822B909104028927F8CF822BF6CFE0
:1011C000BB2019F0812F817001C08695882309F416
:1011D000C2C0402F429546954770440F440F802F60
:1011E0008F7090E09C01042E01C0220F0A94EAF750
:1011F00004FF08C08FE090E001C0880F4A95EAF72D
:10120000809501C080E0169516951370123059F044
:1012100078F490910102113019F0822B892309C0D2
:10122000922B892B06C0822B90910102892701C045
:10123000822B0E94FE1E8FC01F70BB2039F0812FB1
:101240000E94321F802F0E94571F85C0802F0E944E
:101250004C1F812F0E94091F7EC0802F92EF99168C
:1012600059F1991538F0E0EF9E1659F0F1EF9F16FD
:10127000F1F055C023EF921631F134EF931681F15E
:101280004EC0BB2079F084E08A1508F460C01F715D
:1012900081E090E001C0880F1A95EAF79091010271
:1012A00089271BC095E09A1508F451C0F0CFBB20E8
:1012B00029F0812F8F7126C0BB20D9F3812F8F7128
:1012C0000E94091F44C0BB2039F01F7181E001C09A
:1012D000880F1A95EAF701C080E00E94FE1E37C011
:1012E000BB2099F01F71812F0E94321F8091C00195
:1012F00082FD07C0E8E01E9FC00111248360809337
:101300008302812F0E94321F22C081E00E94151F9C
:10131000F1E0FA15E0F482E00E94151F18C0BB202E
:1013200031F0AA2031F2802F0E94872710C0AA2016
:1013300029F2893349F42FEF37EE83E02150304012
:101340008040E1F700C00000802F0E942B2788EF2B
:101350008C0D843010F40E94B322DD2009F402C108
:101360008091830280FDFEC0F701128285958595EC
:1013700085950E94321FC7010E944204809183021A
:1013800085958595859529960FB6F894DEBF0FBE95
:10139000CDBFDF91CF911F910F91FF90EF90DF9024
:1013A000CF90BF90AF909F908F907F906F905F9005
:1013B0004F903F900C94091F01319FE5190709F0E8
:1013C000DFCB82E0A7CB69E276CD043C9CE5190730
:1013D00009F48FC0053C1C4509F0C3CD4FEA56E225
:1013E00068EB76E2A3C0093CFCE51F0709F490C056
:1013F00070F4073C3CE5130709F485C0083C1C4524
:1014000009F0AFCD43EA56E267E976E28FC00A3CC5
:10141000ECE51E0709F481C00B3C1C4509F0A1CD89
:1014200044EF54E265E075E281C0013D2CE512070E
:1014300009F488C098F40E3C8CE5180709F47CC0C8
:1014400008F477C00F3CECE51E0709F478C0003DB6
:101450001C4509F086CD6EE089E07CC0043D2CE59A
:10146000120709F475C060F4023D8CE5180709F411
:101470006CC0033D1C4509F074CD61E088E16FC08C
:10148000053DECE51E0709F468C00D351D4509F45E
:1014900045CB67CD8091B10280FF20C08E7F8093C5
:1014A000B1026091B1027091B2028091B302909149
:1014B000B4020E94E2240E940B2480918902816080
:1014C000809389022FEF30E782E021503040804046
:1014D000E1F700C000000E942D2420CB81608093A2
:1014E000B10261E086953BC048E157E261E277E2F4
:1014F0001DC041E257E268E177E218C048EB56E2CE
:101500006FEA76E213C047E956E263EA76E20EC07C
:101510004FE756E26BE876E209C04BE856E26FE728
:1015200076E204C045E055E264EF74E20E940524CF
:10153000F5CA61E081E013C065E082E00BC068E0BD
:1015400086E008C064E18FE005C067E185E102C084
:1015500062E289E10E94F323E1CA61E083E20E9432
:10156000D826DCCA29960FB6F894DEBF0FBECDBFD1
:10157000DF91CF911F910F91FF90EF90DF90CF906F
:10158000BF90AF909F908F907F906F905F904F90A3
:101590003F900895CF93DF93CDB7DEB7AA970FB6EC
:1015A000F894DEBF0FBECDBF84B7877F84BF0FB670
:1015B000F894A895809160008861809360001092F3
:1015C00060000FBE90E080E80FB6F8948093610051
:1015D000909361000FBE85B7806885BF85B780682E
:1015E00085BF85EC95E19093BD018093BC010E947D
:1015F00042130E9461138091E20084608093E200B4
:1016000078948091F7018823A1F01091E9001F7070
:101610009091EC00892F817090FD80E8182B10923A
:10162000E9008091E80083FD0E942C101F70109348
:10163000E90082E084BD93E095BD9AEF97BD809369
:101640006E001092BF021092C0021092C10210925E
:10165000C2020E94DA23811102C00E94CB230E94A1
:10166000BE178093000180910001882321F0109221
:10167000370186E003C086E080933701809338010C
:101680000E94BE1781110E948028809100018091E4
:101690000001882311F090E001C094E09093CA010A
:1016A00084E0891B8093C90107E411E08BE4E82EF4
:1016B00081E0F82EF80181918F018F3F11F00E9497
:1016C000E117E016F106B1F70FE411E0B5E5EB2EF6
:1016D000B1E0FB2EF80181918F018F3F11F00E9444
:1016E000E117E016F106B1F7E1ECF1E089EC91E0E9
:1016F000ABEDB1E011921D928E179F07D9F70E94B2
:101700009219811102C00E949D1982E090E00E940E
:10171000452A8093D2010E9481199093C001809341
:10172000BF010E940D1A8FE39CE90197F1F700C0F9
:1017300000000E940D1A8091DB0180FF08C06FEF4E
:101740007FEF80E090E00E94772A0E94541583E0AA
:1017500090E00E94452A0E943D1F0E94BE17811101
:1017600002C00E9483288091CB01811138C00E9461
:101770009219811104C00E949D190E94162588E0CB
:1017800090E00E944D2A6093B1027093B202809360
:10179000B3029093B402809189028360809389029E
:1017A0006E7F71F40E94162588E090E00E944D2A19
:1017B0006093B1027093B2028093B3029093B4022B
:1017C0000E94CF240E940B248091B10280FF04C0AC
:1017D00060E086950E94D82681E08093CB0181E06D
:1017E00091E09093BC028093BB02F8E1AF2EB12C44
:1017F000A0E45A2E6624639477247394FE013196F4
:101800007F018091F701853009F062C000E112E1AB
:101810008091F701853009F046C08091F70184304E
:1018200009F430C00E940B248091CD01811109C0C0
:101830007092CD018091B10281708093CC010E94A1
:10184000C1261092C3020FB6F894A895A09260002A
:101850000FBE5092600083B7817F846083BF83B7DF
:10186000816083BF7894889583B78E7F83BF0FB6DE
:10187000F894A89580916000886180936000109230
:1018800060000FBE8091F601882309F4C1CF0E9449
:101890000D1AEBEDF1E081918111E7C221E0E33E09
:1018A000F207C9F7B5CF0E94411F0E94B3221092E0
:1018B000CD018091CC01882349F08091B1028160F3
:1018C0008093B10260E086950E94D8260E9412247F
:1018D0000E940D1A81110E94AD15A3EDB1E0EBED50
:1018E000F1E000E010E0802E91908D91892549F182
:1018F000C12CDD24D394982F9D21F1F00E94BE17B6
:10190000882399F0C9A28AA29D2081E009F480E091
:101910008BA30E94B9158160782F9DA38CA349A148
:101920005AA16BA18DA10E949A03F801ED52FE4FBE
:101930008081D826D0821AC0C394DD0C46E0C41240
:10194000DACF0F5F1F4F0830110569F68FEF8EA3B6
:101950008FA318A60E94B9158160782F9AA789A72E
:101960004EA15FA168A58AA50E949A038091880272
:10197000882309F4BCC080918702E091B102E6950A
:10198000E81BE093C602823059F4F0E0E852FE4FC3
:10199000E4910E2F10E0EFEFCE2EE1E2DE2E59C0E3
:1019A000863059F4F0E0EB52FE4FE4910E2F10E038
:1019B0007FEEC72E71E2D72E4CC0893061F4E695D8
:1019C000F0E0EE52FE4FE4910E2F10E064E7C62ED9
:1019D00061E2D62E3EC08F3061F4E695F0E0E1532F
:1019E000FE4FE4910E2F10E058EDC52E50E2D52E9B
:1019F00030C0853159F4F0E0E453FE4FE4910E2FEE
:101A000010E042E5C42E40E2D42E23C08831A1F07C
:101A1000833249F4EAECF1E0059114913FEAC32ED8
:101A200031E2D32E16C0843271F000ED17E02FE7BB
:101A3000C22E2FE1D22E0DC008E210E09FEBC92E7E
:101A40009FE1D92E06C004EF11E080E8C82E8FE197
:101A5000D82E8091C702882361F01092C7020E949D
:101A600057229093C5028093C4021092C90210922B
:101A7000C8020E945722E091C402F091C5029C0165
:101A80002E1B3F0B2F3F3F4790F52091D001222383
:101A9000B1F01092D0012091CE013091CF01821B84
:101AA000930B8F3F9F4758F4205D3A483093CF0106
:101AB0002093CE0180918902886080938902809072
:101AC000C8029090C9020E0F1F1F1093C502009309
:101AD000C40284EC92E0F60109958091C8029091CD
:101AE000C902892B21F4892811F06092D0010E944B
:101AF000B3229091D101891721F00E94B3228093E3
:101B0000D1018091F701843009F07BCE83E080938E
:101B1000E9008091E80082FF74CE8091E80085FFA3
:101B200021C00E94971481111BC000E210E0CE0179
:101B300001966C0108C08091F100F60181936F015C
:101B40000150110969F08091E80085FDF4CF809182
:101B5000E8008B778093E8000E949714882399F31C
:101B600091E001C090E08091E8008B778093E800DD
:101B7000992309F446CEE9818E2F90E0FC0131973C
:101B8000E331F10508F049C1EE59FF4F0C94E52A05
:101B90001A8289E0A7C08A81823009F47CC183302F
:101BA00051F0813009F039C10E94AD159B838C83BF
:101BB0007D836E8334C1FE013396CE010B96ABED6F
:101BC000B1E02D9121938E179F07D9F728C18A8103
:101BD000823009F022C16B817C818D819E810E94BF
:101BE000EB2A86E290E024C04C816B818A810E94BE
:101BF0007A239D8357C1CD80DE80DC24CD24DC2474
:101C00008C810B819A81FCE00F9F8001112420E6DA
:101C1000929F000D111D1124080F111D080F111D99
:101C20006D2DC80187960E94592A6C2DC80188968F
:101C30000E94592AF4C00E944623F1C08A8181384B
:101C4000B1F050F4803809F0EAC020E04B81609197
:101C5000B3028091B20223C08238E9F0833809F0E0
:101C6000DEC020E04091B4026C818B8118C060E03E
:101C70008B810E94D8268B81811103C00E94C126CE
:101C8000CEC08091B10281608093B10260E0869500
:101C90000E94D826C4C08B818093B502C0C00E9428
:101CA000DD25BDC08A81813899F030F4803809F093
:101CB000B6C08091B40216C0823891F0833809F022
:101CC000AEC08091B2028B838091B3028C83A7C097
:101CD0008091B10280FF02C0869504C080E002C0FE
:101CE0008091B5028B839BC06091B1027091B2026A
:101CF0008091B3029091B4020E94E22490C080E1EE
:101D00004BC082E08A8389E5EDCF0A811B811027D1
:101D100001271027CC80D12C4701C80189559E4F3F
:101D200094012E193F092C153D0508F078C009359E
:101D300042E0140728F40E94452AF401848302C07B
:101D4000F40114820F5F1F4FFFEF8F1A9F0AE5CF38
:101D50000A811B81102701271027CC80D12C470135
:101D6000C80189559E4F94012E193F092C153D0538
:101D700008F055C0093522E0120720F4F40164810F
:101D80000E94592A0F5F1F4FFFEF8F1A9F0AE8CF5B
:101D90000E94362344C084E08A8341C00A811B81AB
:101DA000102701271027CC80D12C4701C801879626
:101DB00094012E193F092C153D0588F5003821E0C6
:101DC000120728F40E94452AF401848302C0F4011A
:101DD00014820F5F1F4FFFEF8F1A9F0AE7CF0A8110
:101DE0001B81102701271027CC80D12C4701C80167
:101DF000879694012E193F092C153D0580F4003873
:101E000021E0120720F4F40164810E94592A0F5F37
:101E10001F4FFFEF8F1A9F0AEACF8FEF89838091C0
:101E2000F701843009F0EDCC1091E9001F7090911A
:101E3000EC00892F817090FD80E8182B82E0809360
:101E4000E9008091E80080FF0CC040E050E060E2D3
:101E500070E0C7010E94CA148091E8008E778093D9
:101E6000E8001F701093E900CCCC09BD19BD09B47E
:101E700000FEFDCF8091D8008F7D8093D8008091A7
:101E8000E00082608093E0008091E00081FDFCCF63
:101E90000E94411FBDCC86E290E00E94452A1B8231
:101EA0001C821D828E83BBCF8091F90187FF11C0F8
:101EB0008091E80082FD05C08091F7018111F8CF83
:101EC00011C08091E8008B770BC08091F7018823C7
:101ED00049F08091E80080FFF8CF8091E8008E778C
:101EE0008093E8000895982F973068F59093E90063
:101EF000981739F07091EC002091ED005091F000AE
:101F000003C0242F762F50E021FD02C09F5FECCF4D
:101F10003091EB003E7F3093EB003091ED003D7F40
:101F20003093ED003091EB0031603093EB00709313
:101F3000EC002093ED005093F0002091EE0027FD7F
:101F4000E5CF80E008958F708093E90081E00895E7
:101F50002091FF01309100022617370748F06115E4
:101F6000710539F42091E8002E772093E80001C034
:101F7000B901FC0120E06115710579F18091F7014B
:101F80008823F1F18530F1F18091E80083FD3CC0B8
:101F90008091E80082FD2EC08091E80080FFEBCFA9
:101FA0002091F3008091F20090E0922B6115710571
:101FB00051F08830910538F421912093F10061505F
:101FC00071090196F3CF21E0089709F020E0809194
:101FD000E8008E778093E800CECF2111CFCF0AC0E2
:101FE0008091F701882361F0853061F08091E800ED
:101FF00083FD0AC08091E80082FFF2CF80E008955F
:1020000082E0089583E0089581E008950895809125
:10201000EC01089580910102982F9670963011F48A
:10202000886001C0877F0C94FE1EFC01AC014C5FF0
:102030005F4F8FEF91E32191822728E030E087FF07
:1020400003C0880F892701C0880F21503109B9F7D3
:10205000E417F50781F708951F93CF93DF93CDB76A
:10206000DEB7AA970FB6F894DEBF0FBECDBFE9EF7B
:10207000F1E08091F100819342E0E130F407C9F78B
:102080008091FA01833009F462C030F4813071F03C
:10209000823009F49CC0B3C08A3009F488C08B3008
:1020A00009F46DC0893009F0AAC020C08091F901FF
:1020B000813A09F0A4C08091E800877F8093E8000E
:1020C0008091FD019091FE01892B21F468E08DEE55
:1020D00091E003C060E080E090E070E00E94A80F13
:1020E0008091E8008B778093E80089C08091F901A6
:1020F000813209F084C08091FD019091FE0100972A
:1021000019F0029709F07BC08091E800877F8093E7
:10211000E8008091E80082FD05C08091F7018111FF
:10212000F8CF6DC02091F3008091F20090E0922BE7
:10213000029729F48091F1008B7F813021F4809106
:10214000F1008093EC018091E8008B7754C080917E
:10215000F901813A09F053C08091FD019091FE018F
:10216000892B09F04CC08091E800877F8093E800BC
:102170008091E80080FFFCCF80910B0137C08091F7
:10218000F9018132E1F58091FD019091FE01892BE9
:10219000B1F58091E800877F8093E8000E94540F9A
:1021A0008091FB0180930B010E94411F28C0809108
:1021B000F901813221F58091E800877F8093E80062
:1021C0000E94540F8091FC018093EB0118C0809114
:1021D000F901813AA1F48091E800877F8093E800BB
:1021E0008091E80080FFFCCF8091EB018093F100AB
:1021F0008091E8008E778093E8000E94540F8091D0
:10220000E80083FFDDC18091F9019091FA01492F27
:1022100050E04A30510508F0D3C1FA01EB58FF4FA6
:102220000C94E52A803821F0823809F0C9C108C031
:102230008091F5019091F601992389F082600FC099
:102240008091FD018F70873008F0BAC18093E9005A
:102250008091EB0085FB882780F91092E90090912E
:10226000E800977F9093E8008093F1001092F100CE
:1022700070C1282F2D7F09F0A3C1882319F0823067
:1022800061F09EC18091FB01813009F099C19330CA
:1022900009F080E08093F6012EC08091FB0181114E
:1022A0002AC08091FD018F702FEF280F263008F093
:1022B00087C18093E9002091EB0020FF1CC0933080
:1022C00021F48091EB00806214C09091EB0090614A
:1022D0009093EB0021E030E0A90102C0440F551FAC
:1022E0008A95E2F74093EA001092EA008091EB00B1
:1022F00088608093EB001092E9008091E800877F6E
:102300008093E8000E94540F5BC1811159C1109164
:10231000FB011F778091E3008078812B8093E3009D
:102320008091E800877F8093E8000E94540F80919D
:10233000E80080FFFCCF8091E30080688093E30099
:10234000111102C082E001C083E08093F70138C11F
:102350008058823008F034C12091FB013091FC019B
:102360002C3D53E0350779F583E08A838AE289833F
:102370004FB7F894DE01139620E03EE051E2E32FE0
:10238000F0E050935700E49120FF03C0E295EF7016
:102390003F5FEF708E2F90E0EA3010F0C79601C0DB
:1023A000C0968D939D932F5F243149F74FBF809145
:1023B000E800877F8093E8006AE270E0CE01019632
:1023C0000E94A80FB4C08091FD019091FE01432F9F
:1023D000552743305105A9F068F44130510509F4FF
:1023E000FEC04230510509F0EBC08BE590E0E0E71C
:1023F000F2E04BC04132510529F14232510589F1D9
:10240000DFC0C901992781309105A1F058F00297EA
:1024100009F0D6C0EDEDF2E0E4918E2F90E0EDED05
:10242000F2E030C0EDE0F3E0E4918E2F90E0EDE0DB
:10243000F3E028C0E9EFF2E0E4918E2F90E0E9EFBD
:10244000F2E020C08330910508F0BAC0880F991FD0
:10245000FC01E25AFE4F0190F081E02D89E090E00E
:1024600014C08330910508F0ABC0FC01EE0FFF1FD4
:10247000E85AFE4F0190F081E02DDC01AB5ABE4FCF
:102480008C9190E0009709F49BC02091E800277F91
:102490002093E8002091FF013091000228173907AE
:1024A00008F4C90140E0009789F12091F701222347
:1024B00009F43DC02530D9F12091E80023FD37C053
:1024C0002091E80022FD2FC02091E80020FFEBCFF3
:1024D0004091F3002091F20030E0342B009759F046
:1024E0002830310540F444914093F1003196019732
:1024F0002F5F3F4FF3CF41E02830310509F040E036
:102500002091E8002E772093E800CDCF4111CDCF68
:102510000AC08091F701882351F0853041F0809105
:10252000E80083FD04C08091E80082FFF2CF809133
:10253000E8008B778093E80043C0803809F040C002
:102540008091E800877F8093E8008091F801809374
:10255000F1008091E8008E77D3CE811131C0809157
:10256000FB019091FC019927029754F58091E800B6
:10257000877F8093E8001091FB011093F8010E947F
:10258000540F111106C08091E30087FD02C081E065
:1025900001C084E08093F70142E061EC81E00E9499
:1025A000730F42E261EC84E00E94730F42E261EC3F
:1025B00082E00E94730F42E260EC83E00E94730F9E
:1025C0008091E80083FF10C08091E800877F8093AE
:1025D000E8008091EB0080628093EB0005C082E10F
:1025E00090E0EBECF2E051CFAA960FB6F894DEBF84
:1025F0000FBECDBFDF91CF911F9108951F920F9213
:102600000FB60F9211242F933F934F935F936F93C5
:102610007F938F939F93AF93BF93CF93DF93EF936A
:10262000FF93C091E900CF708091EC00D82FD1705A
:1026300080FDD0E81092E9008091F000877F8093C0
:10264000F00078940E942C101092E9008091F00024
:1026500088608093F000CD2BCF70C093E900FF918C
:10266000EF91DF91CF91BF91AF919F918F917F912A
:102670006F915F914F913F912F910F900FBE0F90EF
:102680001F901895E8EDF0E080818E7F8083109296
:10269000E2001092DA001092E100A0EEB0E08C911E
:1026A00081608C9380818F77808319BCA7EDB0E027
:1026B0008C918E7F8C9380818F7E80831092EA0133
:1026C0000895CF92DF92EF92FF920F931F93CF93D3
:1026D000DF93C8EDD0E088818F7E8883E7EDF0E05E
:1026E00080818160808384E082BF81E08093EA0101
:1026F00088818E7F888302EE10E0F80110821092AC
:10270000DA0081EEC82ED12CF601108288818F77F5
:10271000888388818068888388818F7D888319BCBD
:102720001092F7011092F8011092F6011092F50143
:1027300090EEE92EF12CF70180818B7F80838881D8
:102740008160888342E060E080E00E94730FF601C0
:1027500080818E7F8083F801808181608083808189
:1027600088608083F70180818E7F8083888180618B
:102770008883DF91CF911F910F91FF90EF90DF90B1
:10278000CF9008951F920F920FB60F9211242F939E
:102790003F934F935F936F937F938F939F93AF93E9
:1027A000BF93EF93FF938091E10082FF09C0809176
:1027B000E20082FF05C08091E1008B7F8093E10001
:1027C0008091DA0080FF2AC08091D80080FF26C067
:1027D0008091DA008E7F8093DA008091D90080FFAB
:1027E00018C080E189BD82E189BD09B400FEFDCF3A
:1027F00081E08093F7018091EA0181110FC00E946E
:1028000042130E9461138091E20084608093E20091
:1028100005C019BC1092F7011092EA018091E10005
:1028200080FF17C08091E20080FF13C08091E2001A
:102830008E7F8093E2008091E20080618093E200CD
:102840008091D80080628093D80019BC85E0809385
:10285000F7018091E10084FF2EC08091E20084FFA7
:102860002AC080E189BD82E189BD09B400FEFDCFA7
:102870008091D8008F7D8093D8008091E1008F7E79
:102880008093E1008091E2008F7E8093E20080914E
:10289000E20081608093E2008091F801882311F0CA
:1028A00084E007C08091E30087FD02C081E001C0A1
:1028B00083E08093F7018091E10083FF27C080913E
:1028C000E20083FF23C08091E100877F8093E100D5
:1028D00082E08093F7011092F8018091E1008E7FF1
:1028E0008093E1008091E2008E7F8093E2008091EE
:1028F000E20080618093E20042E060E080E00E94BC
:10290000730F8091F00088608093F000FF91EF9149
:10291000BF91AF919F918F917F916F915F914F91F7
:102920003F912F910F900FBE0F901F9018952091FF
:10293000E4003091E50095E64091EC00842F817031
:1029400040FF23C08091E80080FD1DC08091F70109
:10295000882399F0853099F08091EB0085FD11C0B6
:102960004091E4005091E5002417350729F3915078
:1029700011F09A01E1CF84E0089582E0089583E0A8
:10298000089581E0089580E008954091E80042FFB5
:10299000DDCF0895EF92FF920F931F93CF93DF93B4
:1029A0007C018B010E949714811119C0E701011568
:1029B0001105A1F08091E80085FD0AC08091E80032
:1029C0008E778093E8000E949714882381F307C0D4
:1029D00089918093F10001501109E9CF80E0DF91E6
:1029E000CF911F910F91FF90EF9008959091F70173
:1029F000943029F58093E7017093E9016093E80131
:102A00009093E9008FEF9091E800815095FD06C00A
:102A100095ED9A95F1F700008111F5CF8091E800CE
:102A200085FF0DC040E050E063E070E087EE91E08C
:102A30000E94CA148091E8008E778093E800089580
:102A4000BC0184E00C94F614BC0183E00C94F614F1
:102A5000CF93DF9321E02093E9002FEF3091E8003E
:102A6000215035FD06C035ED3A95F1F700002111F2
:102A7000F5CF2091E80025FF14C0EC0140E050E0C4
:102A800068E070E00E94CA148091E8008E7780931D
:102A9000E80088E0FE01ADEEB1E001900D928A956C
:102AA000E1F7DF91CF91089581E08093E00080E22B
:102AB0008093D8001092C9008FE19EE40197F1F74E
:102AC00000C0000087E090EBDC018093CA02909385
:102AD000CB02A093CC02B093CD029CE088E10FB66C
:102AE000F894A895809360000FBE90936000FFCF8C
:102AF00078941F920F920FB60F9211248F939F9389
:102B0000AF93BF938091E3019091E401A091E5011F
:102B1000B091E6010196A11DB11D8093E301909350
:102B2000E401A093E501B093E601BF91AF919F91BD
:102B30008F910F900FBE0F901F9018959C014FB76B
:102B4000F8948091E3019091E401A091E501B091A6
:102B5000E6014FBF821B930B08952FB7F894609145
:102B6000E3017091E4018091E5019091E6012FBFAE
:102B700008952FB7F8948091E3019091E401A0911A
:102B8000E501B091E6012FBF089580E0089590918E
:102B9000BF0192FF0DC0282F2871283019F4877FBC
:102BA000846006C0282F2471243011F48B7F886044
:102BB00093FF0DC0282F2871283119F4877E846176
:102BC00006C0282F2471243111F48B7E8861209156
:102BD000C00120FF0DC0382F3871383019F4877FBD
:102BE000816006C0382F3171313011F48E7F8860DA
:102BF00021FF0DC0282F2871283119F4877E8161AB
:102C000006C0282F2171213111F48E7E886194FD38
:102C1000877E0895AF92BF92CF92DF92EF92FF929C
:102C20000F931F93CF93DF937C015B016A01809127
:102C300030028A3018F001E010E002C00AE010E033
:102C4000C1E0D0E0F894B501C701F6010995789488
:102C5000811115C021960C171D0794F0CC9F90018F
:102C6000CD9F300D300D112480E090E045E34A9572
:102C7000F1F70000019682179307C1F7E3CF81E0D7
:102C8000DF91CF911F910F91FF90EF90DF90CF9048
:102C9000BF90AF900895CF93DF93CDB7DEB728975D
:102CA0000FB6F894DEBF0FBECDBF85E0E1EBF2E0DA
:102CB000DE01119601900D928A95E1F780918702CD
:102CC00090918802A09189028E839F83A88728858E
:102CD00040912C0250912D0260912E0270912F0292
:102CE0003FB7F8948091E3019091E401A091E50150
:102CF000B091E6013FBF841B950BA60BB70B843642
:102D00009105A105B10510F4222329F180912D012F
:102D100090912E01855E9D4F40912C0150E04930ED
:102D2000510510F048E050E0BE016F5F7F4F0E94F8
:102D3000492B83E090E00E948D29892B11F080E0DF
:102D40000DC00E94AD1560932C0270932D028093EC
:102D50002E0290932F021092890281E028960FB6DE
:102D6000F894DEBF0FBECDBFDF91CF910895CF9312
:102D7000DF9300D000D0CDB7DEB74091170250915D
:102D800018026091190270911A022FB7F89480917D
:102D9000E3019091E401A091E501B091E6012FBF1C
:102DA000841B950BA60BB70B84369105A105B105C5
:102DB00080F10E943C22DC01CB010296A11DB11DD5
:102DC00089839A83AB83BC838091230190912401F2
:102DD000855E9D4F4091220150E04530510510F035
:102DE00044E050E0BE016F5F7F4F0E94492B82E0BC
:102DF00090E00E948D29892B11F080E00BC00E9489
:102E0000AD15609317027093180280931902909386
:102E10001A0281E00F900F900F900F90DF91CF91E9
:102E20000895EF92FF921F93CF93DF9300D000D0CD
:102E30001F92CDB7DEB77B0180E090E00E948D2924
:102E4000892B09F065C04091110150E041155105F1
:102E500011F041E050E06091120170911301655E44
:102E60007D4FCE0105960E94492B4091130250914F
:102E7000140260911502709116022FB7F894809198
:102E8000E3019091E401A091E501B091E6012FBF2B
:102E9000841B950BA60BB70B84369105A105B105D4
:102EA00038F48CE192E00E9415109D81891791F110
:102EB00081E090E00E948D29892BA1F440911B01B3
:102EC00050E04530510510F044E050E060911C01A5
:102ED00070911D01655E7D4FCE0101960E94492BC8
:102EE00011E001C010E08CE192E00E94151091E029
:102EF0002D81281390E0192341F10E94AD156093B4
:102F000013027093140280931502909316020FC05F
:102F100010E001C011E080911C0290911D02A0916F
:102F20001E02B0911F0289839A83AB83BC83112355
:102F300061F089819A81AB81BC8180930F0290936B
:102F40001002A0931102B093120280910F0290918F
:102F50001002A0911102B0911202F70180839183B7
:102F6000A283B383812F0F900F900F900F900F903B
:102F7000DF91CF911F91FF90EF90089580910E0205
:102F8000811118C08091D80080618093D8008AE1B7
:102F90008A95F1F700C08091D90080FD02C082E0DF
:102FA00001C081E080930E02823021F40E9442131E
:102FB0001092F70181E090910E02913009F080E0CB
:102FC0000895F894E82FE295EF70F0E031A1282FF2
:102FD0002F7081E090E001C0880F2A95EAF7982FC2
:102FE0009095932391A392A1892B82A3789408951D
:102FF000CF93DF938238910569F1B0F48133910565
:1030000009F46FC048F48932910509F465C08A3229
:10301000910509F46BC08AC08533910509F457C046
:1030200089339105B9F082C0833E910571F138F47E
:10303000803E9105B1F0823E910511F177C0863E48
:103040009105B9F1873E9105C9F1843E910509F0DA
:103050006DC024C02091BF0120FD53C021FD51C08F
:1030600065C08091BF0180FD46C08091C00180FF96
:1030700048C08091BF0184FD3FC183EE90E03EC116
:103080008091BF0182FF3AC0F4CF8091BF0182FDE1
:1030900035C08091C00180FD34C0EBCF8091C0016C
:1030A00081FF35C08091BF0184FD26C187EE90E08D
:1030B00025C18091BF0183FF27C0F4CF8091BF015C
:1030C00083FD22C08091C00181FD21C0EBCF8091A2
:1030D000BF0185FD1FC021C08091BF0185FD1DC0BE
:1030E00019C08091BF0186FD1BC01DC08091BF012A
:1030F00086FD19C015C089E390E000C182EE90E022
:10310000FDC080EE90E0FAC086EE90E0F7C084EE5D
:1031100090E0F4C089E290E0F1C085E390E0EEC079
:103120008AE290E0EBC081E390E0E8C0811532E5EF
:10313000930708F069C0811541E5940728F0982F9E
:103140008827816F906ADAC0883E910568F5803ED5
:10315000910508F0D3C0883A9105B8F4853A9105F5
:1031600048F0855AE82FF0E0EC59FE4F808190E05E
:103170009064C4C08130910509F4BBC008F4BCC0A0
:103180008430910508F4B8C0B9C08F3B910508F0B0
:10319000B3C0885AE82FF0E0EE0FFF1FE959FE4F49
:1031A000808191819464AAC0811520E59207F0F096
:1031B0009C0174E0369527957A95E1F7922F9370EC
:1031C000482F437021E030E002C0220F331F4A95A0
:1031D000E2F73C68392B8F70982F9695969540E2D0
:1031E000949FC0011124822B932B88C0811530E459
:1031F000930718F09F70906A81C09C013A95211541
:103200003F4108F47BC078C0EC01C11586E5D807C2
:10321000E8F5C11525E5D20748F08C2F0E94C715A7
:103220008F7190E0982F8827906268C0C11534E5AF
:10323000D30728F09C2F8827846F906A5FC0AE0167
:10324000437055272C2F26952695C115D34578F424
:1032500081E090E002C0880F991F4A95E2F740E2B2
:10326000249F90011124822B932B9C6847C081E0FE
:1032700090E002C0880F991F4A95E2F740E2249F30
:1032800090011124822B932B9A6838C0C1152AE52E
:10329000D207F8F4C11539E5D30790F08C2F8F7061
:1032A0000E94C71594E0D695C7959A95E1F7CF701F
:1032B000D0E0DC2FCC27D0699E01282BC9011EC08D
:1032C000C11548E5D407C0F09C2F8827806F906A0D
:1032D00015C0CE0190568115904270F48D2F8F71DC
:1032E0000E94C715282F2F71CE0199279062922B2B
:1032F00005C081E090E002C080E090E0DF91CF91D6
:103300000895CF9384E090E00E94452AC82F82E27E
:1033100090E00E94452A2C2F30E0A901582BCA01C9
:10332000CF91089580E090E00E94532A893E9E4FFD
:1033300011F40C94DA2380E0089569EE7EEF80E0CA
:1033400090E00E94772A60E082E090E00E94592A93
:1033500060E083E090E00E94592A1092040260E04D
:1033600084E090E00E94592A60E082E290E00E94AE
:10337000592A60E085E090E00E94592A60E086E0EA
:1033800090E00E94592A6FEF87E090E00E94592A4E
:1033900040E050E0BA0188E090E00E946B2A60E0D3
:1033A0008DE090E00E94592A40E050E0BA0188E1A7
:1033B00090E00E946B2A60E087E190E00E94592A29
:1033C00040E050E0BA018CE190E00E946B2A60E09E
:1033D00070E080E290E00E94772A40E050E0BA017D
:1033E00088E190E00E946B2A80E00E94AD230E9459
:1033F000CB2340E050E0BA018FE090E00E946B2ABE
:1034000040E050E0BA0183E190E00C946B2A809197
:10341000030281111092030208957F928F929F926E
:10342000AF92BF92CF92DF92EF92FF920F931F93D2
:10343000CF93DF93CDB7DEB72C970FB6F894DEBFEE
:103440000FBECDBFAE014F5F5F4F7A0188E0DA015A
:103450001D928A95E9F707E411E06A018BE4882E52
:1034600081E0982EAA24A394B12CF80180818F3F8B
:1034700009F448C0F894E82FE295EF70F0E021A13C
:103480008F70A50102C0440F551F8A95E2F7CA014B
:10349000922F982B91A392A18095892382A378944F
:1034A00000C0EFE4F1E020E030E0712C81918F3F2B
:1034B000B9F0A82FA295AF70B0E090964C9150E073
:1034C0008F70DA0102C0B595A7958A95E2F7A0FD45
:1034D00007C08A2D022E01C0880F0A94EAF701C0A6
:1034E00080E0782A2F5F3F4F26303105F9F6F8014A
:1034F00080818F3F11F00E94E117F0EAFA95F1F711
:10350000D6017C920F5F1F4FBFEFCB1ADB0A8016EC
:10351000910609F0AACF48E050E0B70181EC91E0B4
:103520000E943C2B8C01892B41F088E0F701A1EC33
:10353000B1E001900D928A95E1F7F090CA01011572
:10354000110549F081E0809307020E94B91590931C
:10355000060280930502809107028823B9F08091CA
:103560000502909106020E949E15059778F0A1EC45
:10357000B1E0EF2DF0E0E552FE4F85EC91E02D91AA
:1035800021938A179B07D9F710920702011511059D
:1035900009F0F0C00E94BE17E091CA01882309F427
:1035A0006AC019861A861B861C860E2F10E00552EB
:1035B0001E4F809130028A3058F441E157E1BE013C
:1035C000675F7F4FC8010E940A16882311F10AC065
:1035D00080910802909109020E949E15843F9140BB
:1035E00060F728C047EB56E1BE01675F7F4FC80117
:1035F0000E940A16882369F04BE456E1BE01675F1A
:103600007F4FC8010E940A16882319F010923002D9
:103610001CC0809130028F3F19F08F5F8093300281
:10362000809130028A3088F00E94B9159093090287
:1036300080930802E091C901F0E0E552FE4F10824C
:1036400011821282138201E097C0E091C901F0E07B
:10365000E552FE4FDE0119969E01235F3F4F00E0C9
:103660008D919081981711F0808301E03196A21717
:10367000B307B1F781C0F0E0E552FE4FF89484E063
:10368000ACE1B2E001900D928A95E1F78CE192E015
:103690000E94151080931B027894F894C090200229
:1036A000D0902102E0902202F090230280910A0241
:1036B00090910B02A0910C02B0910D02C816D90690
:1036C000EA06FB06D1F0C0920A02D0920B02E09209
:1036D0000C02F0920D020E94BE1781110EC00E94D2
:1036E000AD15C61AD70AE80AF90AC092BF02D092ED
:1036F000C002E092C102F092C2027894F8948091E4
:103700002B028823A9F180FF10C08091240280FF42
:103710000AC09091B10291609093B10260E08695E9
:103720000E94D82602C00E94C12680912B0281FFF0
:1037300009C020E040912702609126028091250275
:103740000E94DD2580912B0282FF09C080912A0210
:10375000882319F00E94122402C00E940B24809139
:103760002B0283FF03C081E08093C70210922B02DB
:10377000789402C001E010E0802F2C960FB6F894E8
:10378000DEBF0FBECDBFDF91CF911F910F91FF9094
:10379000EF90DF90CF90BF90AF909F908F907F90F1
:1037A00008959091860280918502892B2091840250
:1037B000982F922B9093310280910302882389F0F5
:1037C000892B80933102E3E3F2E097E080E09150AF
:1037D00029F021912223D9F38F5FF9CF81110E9423
:1037E000071AE091BB02F091BC02309731F00280E1
:1037F000F381E02D81E392E00994089580E090E068
:103800000E949D2280E090E00E9487221092850213
:10381000109284020C94D11BCF93C091C001C2FBC3
:10382000992790F9981781F080FBC2F9C093C001E5
:103830006091BF0184E090E00E94592A6C2F82E2DF
:1038400090E0CF910C94592ACF91089580918202F3
:1038500090915102891719F08F5F8770FBCF0895FF
:103860000F931F93CF93DF938091500282958F70B7
:1038700009F05DC080914D02882309F458C0809101
:1038800082021091510260914B0270914C02C091E2
:103890004E02D0914F0291E06F3F09F090E0292F46
:1038A00006E0811709F443C0209721F07F3F21F003
:1038B00030E003C031E001C0322F90E030FD34C071
:1038C000089FF001099FF00D1124DF01AE5ABD4F92
:1038D00011963C911197371327C03C91361324C0A1
:1038E00012963C91129731111FC013964D915C9125
:1038F00014974C1B5D0B483C5105B0F4809150026D
:103900008F70806180935002E95AFD4F80818F70E3
:10391000806180838BE492E00E944204DF91CF912A
:103920001F910F910C94261C01968770BACFDF91DE
:10393000CF911F910F910895CF92DF92FF920F9335
:103940001F93CF93DF936C010091010280910402D9
:10395000082BC7E0D0E010E0C8010C2E02C09595FE
:1039600087950A94E2F780FD04C02197A8F7F12C0F
:1039700009C0FC2EB6018C2F0E94A0230E94F817CC
:10398000019799F38F2DDF91CF911F910F91FF90A8
:10399000DF90CF900895CF93DF93EC010E949C1CA1
:1039A000BE010E94A0230E94F817DF91CF910895D5
:1039B000FC01808191810E94CB1C292F2F70E92F5F
:1039C000E295EF704E2F50E0FA013297EE30F1059C
:1039D000B8F4E158FF4F0C94E52A803F99F018F4B1
:1039E000883E70F40FC0843F59F40CC0883E50F0FC
:1039F000813F31F407C0822F86958695869508957C
:103A000080E0089581E008959F92AF92BF92CF9297
:103A1000DF92EF92FF920F931F93CF93DF93CDB777
:103A2000DEB761970FB6F894DEBF0FBECDBF8C0135
:103A300085E0F801DE011D9601900D928A95E1F76F
:103A4000F801E28090914B0260914C0240914E024D
:103A500050914F024115510531F06F3F31F481E033
:103A60009F3F19F403C081E001C080E0F82FF1709E
:103A70009F2E80FD1AC1F80130812181C380D4803E
:103A80008BE4A82E82E0B82EF0904D02F601E41BE4
:103A9000F50BFF2009F4C6C080915002E83CF10507
:103AA00008F091C0482F407F09F050C0621311C048
:103AB00093130FC0FE2CE1100CC08F7080618093B7
:103AC0005002C5010E94420480915002F801858392
:103AD00029C1CD2831F02F3F31F481E03F3F19F467
:103AE00003C081E001C080E080FD03C081E08E253D
:103AF00002C080E090E0F82FF170FF2E80FF1CC024
:103B0000809182024091510256E0841709F4E8C086
:103B100090E0589FF001599FF00D1124EE5AFD4F8F
:103B20006181261306C06081631303C06281E612BF
:103B300003C001968770E9CFFE2CEE2009F4F2C095
:103B40008091500281608093500249C0621306C088
:103B5000931304C0E11002C0F80186C0C8010E949E
:103B6000D81C882351F1EE2041F120915002822F80
:103B700082958F7090E0029774F080914B02909143
:103B80004C0298878F831986DB86CA862C87CE01E4
:103B900007960E94420486E0F801ABE4B2E001908F
:103BA0000D928A95E1F70E94301C0AC06217C9F095
:103BB000C8010E94D81C81111EC0C8010E94420485
:103BC000FF24F394AFC0482F407F81F78BE492E04D
:103BD0000E94420486E0F50111928A95E9F7F12CE2
:103BE000A1C09313E5CFE110E3CFF8018583C801AD
:103BF0000E94420454C0EE2001F320915002822F13
:103C000082958F7090E0029734F280914B029091F0
:103C10004C029A8389831B82DD82CC822E83CE0163
:103C20000196B7CFE83CF105D0F5FE2CEE2029F245
:103C3000621327C0931325C02091500220FD18C0A5
:103C4000822F82958F70482F50E04115510581F0E9
:103C5000F80125834F30510541F08F5F982F9295E1
:103C6000907F822F8F70892B8583C8010E94420428
:103C700086E0F801ABE4B2E001900D928A95E1F79D
:103C800051C0C8010E94D81C811185CF809150027B
:103C9000816080935002C8010E94420443C086E0C4
:103CA000F50111928A95E9F73DC0EE2009F485CF20
:103CB000C8010E94D81CF82E882309F47ECF86E024
:103CC000F801ABE4B2E001900D928A95E1F78091A2
:103CD0004B0290914C020E94CB1C0E94301C22C0CF
:103CE0003D872E878D859E850E94CB1C292F22958E
:103CF0002F70223028F49F7039F0811105C00BC05D
:103D0000243028F49F7049F4805E883020F0C80188
:103D10000E9442049F2CF92C05C0F8019581907FE8
:103D200099F7F9CF8F2D61960FB6F894DEBF0FBECD
:103D3000CDBFDF91CF911F910F91FF90EF90DF905A
:103D4000CF90BF90AF909F900895292F220F920F90
:103D5000990F890F682F669566956695982F9770CD
:103D600083E0689FB001112440E050E080E0FB0157
:103D7000E40FF51FE75CFD4F208130E0092E02C003
:103D8000369527950A94E2F721703327042E01C057
:103D9000220F0A94EAF7822B4F5F5F4F43305105A1
:103DA00031F70895292F220F920F990F890FE82FCD
:103DB000E695E695E695877051E001C0550F8A9526
:103DC000EAF783E0E89FF0011124E75CFD4F20E073
:103DD00030E070E04081CB01022E02C096958795BD
:103DE0000A94E2F781708195842785238427819343
:103DF0002F5F3F4F2330310569F70895982F967054
:103E0000963011F4886001C0877F809301020C9482
:103E1000FE1B21E030E001C0220F8A95EAF72095D1
:103E20008091010282230C94FE1E209183028095D2
:103E3000822380938302982F977041F430E0482FBB
:103E4000082E000C550B2417350721F49091C00162
:103E500092FF07C08595859585950E94091F109250
:103E60008302089521E030E001C0220F8A95EAF72D
:103E700080910102822B0C94FE1E809304020C940C
:103E8000FE1B1092860286E0E3E3F2E0DF011D9262
:103E90008A95E9F70C94FE1B882341F08095909158
:103EA00086028923809386020C94D11B089588236F
:103EB00039F090918602892B809386020C94D11B55
:103EC00008951F93CF93DF93182F893319F0C0E023
:103ED000D0E002C0C0E5D0E0812F0E948727209764
:103EE00041F08FE99FE00197F1F700C000002197B2
:103EF000F6CF812FDF91CF911F910C942B2708953E
:103F00000F931F93CF93DF93EC0100E010E08091BB
:103F10003B01282F30E00217130724F59091390157
:103F20009801290F311DA901440F551F240F351F7A
:103F300023573D4F869590E04C81081719071CF4D4
:103F4000442331F002C0411103C04091B40201C0CA
:103F500040E06091B3028091B2020E942D250F5F74
:103F60001F4FD5CF0E942D248C8190E00196817047
:103F700099278C83DF91CF911F910F9108958F9294
:103F80009F92AF92BF92CF92DF92EF92FF920F93E8
:103F90001F93CF93DF938C01FC014481C42FD0E0A9
:103FA0009E01DE010E94FA2A9B01AC010E94102BA7
:103FB0006B017C01E0E2F0E0EC1BFD0BA5E5B0E05D
:103FC0009B01AC010E94102B4B015C019F01DF01A2
:103FD0000E94F22A9B01AC010E941B2B9B01AC01A9
:103FE0002C0D3D1D4E1D5F1DC501B4010E94C32A4D
:103FF000C22FD22F2A3228F4F3E02F9F90011124F0
:104000000DC025E530E02C1B3109C901880F991F2F
:10401000280F391F37FF02C02F5F3F4F3595279577
:10402000C22FC095F12C85E5E82EED1A80913B0159
:10403000F816C8F4F1FC02C08E2D01C08D2F9091AE
:1040400039012F2D30E0290F311DA901440F551FD3
:10405000240F351F23573D4F4C2F6091B3020E9410
:104060002D25F394E3CF0E942D24F8018481811142
:1040700002C091E003C0803219F49FEF90933601A3
:1040800090913601890FF8018483DF91CF911F91C0
:104090000F91FF90EF90DF90CF90BF90AF909F90E7
:1040A0008F9008951F93CF93DF93EC018C81811142
:1040B00009C081E08C8310928B0292E090933501CD
:1040C000809334018091390190913A01891770F4FD
:1040D000E82FF0E09F01220F331FE20FF31FE35799
:1040E000FD4F1182108212828F5FF0CF10E060913D
:1040F0003B011617C0F5E12FF0E070E0CF010E9400
:10410000AF2A20913901820F20918B02022E000CE0
:10411000330B90E0E217F307CCF020913501022E2B
:10412000000C330B2E173F078CF09C01220F331F1E
:10413000820F931F9C0123573D4F4091B402609121
:10414000B3028091B2020E942D250BC0FC01EE0F3C
:10415000FF1F8E0F9F1FFC01E357FD4F118210823E
:1041600012821F5FC4CF0E942D24809134012091C0
:104170008B02280F20938B0290913501980F90931A
:10418000350119165CF4022E000C330B40913B01F3
:1041900050E0415051092417350734F08195809340
:1041A0003401813009F41C82DF91CF911F91089571
:1041B0007F928F929F92AF92BF92CF92DF92EF92B7
:1041C000FF920F931F93CF93DF93EC018A8180FFBF
:1041D00003C0BB24BA9402C0BB24B3948C81811168
:1041E0000DC081E0B81206C080913B0181508093E0
:1041F0008A0202C010928A0281E08C83A12C4CE0DA
:10420000842E90903B01A91408F041C0809139019F
:10421000CA2CD12C8601080F111DC801880F991FC7
:10422000080F191F03571D4FF801118210821282C7
:1042300034E0E32EF12C712C80918A02870D8D30B1
:104240002CF0682D0E948D2A892F02C087FD890DD0
:10425000082E000C990BC816D90691F48091B4026F
:104260008E9DA0018F9D500D112455954795559514
:10427000479598016091B3028091B2020E942D256A
:104280007B0CF1E0EF1AF108B9F6A394BACF0E94C3
:104290002D2480918A0291E0B9120EC0811107C0CD
:1042A00080913B01815080938A021C820FC0815013
:1042B00080938A02BC820AC090E0019660913B0123
:1042C00070E00E94AF2A80938A028C83DF91CF91A5
:1042D0001F910F91FF90EF90DF90CF90BF90AF9024
:1042E0009F908F907F900895FF920F931F93CF938D
:1042F000DF93EC01F12C0FEF10E060913B01F6161B
:10430000F0F4809139012F2D30E0280F311DC901C3
:10431000880F991F280F391F23573D4F70E0C801A0
:104320000E94AF2A962F8C814091B4026091B30213
:10433000F99E800D11240E942D25F394DECF0E945A
:104340002D249A818C8190FF02C08F5F01C0815023
:104350008C83DF91CF911F910F91FF9008950F9360
:104360001F93CF93DF9300D01F92CDB7DEB78C01A0
:1043700080918C0281110AC09E012F5F3F4F4FEF49
:104380006FEF0E942D258A8180938C02F801848131
:10439000813051F028F0823061F440918C020AC0E3
:1043A00080918C0240E007C060918C0240E080E088
:1043B00003C040E080E060E00E94B424F801848102
:1043C00090E0019663E070E00E94AF2A84830F9032
:1043D0000F900F90DF91CF911F910F910895CF9380
:1043E000DF93EC01E1EBF2E0438162818C810E947A
:1043F000C3258C818F5F8C83DF91CF910895CF93FC
:10440000DF93EC01EC81F0E0EF5EFC4F4491E1EBD7
:10441000F2E0628181810E94C3258C818F5F8C8351
:10442000DF91CF9108951F920F920FB60F92112432
:104430008F939F93AF93BF938091C302811113C059
:104440008091E3019091E401A091E501B091E60132
:104450004196A11DB11D8093E3019093E401A093C7
:10446000E501B093E601BF91AF919F918F910F90BD
:104470000FBE0F901F9018950F931F930E94BE17A9
:10448000882321F01F910F910C94AD150E94AD155A
:104490000091BF021091C0022091C1023091C2026E
:1044A000600F711F821F931F1F910F9108950E942B
:1044B000BE1781110C94B9150E943C22CB010895BE
:1044C0009C012A5F3F4FFC014281461301C01282CA
:1044D000019682179307B9F708959C01FC01329663
:1044E0009FEF80E04191461789F09F3F19F44111F9
:1044F00001C0982F8F5F8630A9F79F3F39F0F901EF
:10450000E90FF11D97FDFA956283089508952091B2
:10451000BD023091BE022817390771F09093BE0298
:104520008093BD02E091BB02F091BC02309721F074
:104530000084F185E02D099408952091B90230910D
:10454000BA022817390771F09093BA028093B90222
:10455000E091BB02F091BC02309721F00680F78118
:10456000E02D099408950E94BE17882351F0E09130
:10457000BB02F091BC02309721F00190F081E02D58
:10458000099480E008950F931F93CF93DF93C42F76
:10459000D22FFC0182818823C9F04093B8020E9487
:1045A000B9159093B7028093B60280E28C0F8830E1
:1045B00008F057C0C77081E001C0880FCA95EAF7BC
:1045C000DF91CF911F910F910C94571F8091B802EA
:1045D000481330C08091B6029091B7020E949E1598
:1045E000883C910538F510E21D0FCD17B9F080E237
:1045F0008C0F883040F4C77081E001C0880FCA95E5
:10460000EAF70E944C1F183028F581E09D2F977023
:1046100001C0880F9A95EAF70E94571F802F0E94C9
:10462000611F1830F0F4D77081E001C0880FDA956F
:10463000EAF70AC080E28C0F883098F4C77081E0F6
:1046400001C0880FCA95EAF7DF91CF911F910F91B2
:104650000C944C1F802FDF91CF911F910F910C94E0
:10466000611FDF91CF911F910F910895CF93DF9339
:10467000C7EAD1E060E0CE010E94592A2196C11517
:1046800084E0D807B9F7DF91CF910895CF92DF92F8
:10469000EF92FF920F931F93CF93DF93C0E0D0E090
:1046A0008E01005A1F4F6E018CE0C80ED11CFE0116
:1046B000EF5EFB4FE590F4906F2DCE0187960E9440
:1046C000592A6E2DCE0188960E94592A2296CC1521
:1046D000DD0569F70C171D0731F7E80100381140B7
:1046E000F9F6DF91CF911F910F91FF90EF90DF903E
:1046F000CF9008950F931F93CF93DF93C42FD0E0F3
:10470000CC0FDD1F2CE0629FC00DD11D112430E6BF
:10471000839FC00DD11D1124CE0187960E94452A8A
:10472000082F10E0102F0027CE0188960E94452AFE
:104730009801282BC901DF91CF911F910F91089506
:10474000462F843038F4783028F4663018F4672F18
:104750000C947A2380E090E00895CF93C82F8111C4
:1047600002C06FEF01C061E283E290E00E94592A2B
:10477000C11102C06FEF01C069E084E290E00E94C5
:10478000592AC11102C06FEF01C065E285E290E0D5
:10479000CF910C94592A80E00E94AD2360E086E21C
:1047A00090E00E94592A0E9446230E94362381E00D
:1047B0000C94AD2383E290E00E94452A813281F47B
:1047C00084E290E00E94452A893051F485E290E02D
:1047D0000E94452A91E0853209F090E0892F01C0BE
:1047E00080E0817008959091B10290FF04C0969589
:1047F000981740F003C0811105C090E0961710F49F
:104800000C94212761E00C94D826882311F0FA013A
:1048100001C0FB010994E7E8F2E011828281846023
:10482000828308956091B102669570E04BE050E09C
:104830008CE391E00E942F2B892B19F481E0809367
:1048400088020E9457229093C5028093C4028091EF
:1048500089028460809389020895CF92DF92EF925B
:104860000F931F93CF93DF93CDB7DEB7A4970FB607
:10487000F894DEBF0FBECDBF609138018091B102C8
:1048800080FF0AC0E6E9F6E0AE014F5F5F4F8E01A0
:104890000B5D1F4FCA0114C08091390190913A01FC
:1048A000891780F7E82FF0E09F01220F331FE20FF6
:1048B000F31FE357FD4F1182108212828F5FF0CFFA
:1048C000249130E0D901AA0FBB1F2A0F3B1FD90149
:1048D000A357BD4FCD90DD90EC90DA01CD92DD92E3
:1048E000ED92AD013196A017B10751F72091370134
:1048F000FC01B3E02B9FE00DF11D1124539A8BB105
:10490000877F9BB198602FB7F894AF0133E0639F26
:10491000400D511D1124E417F50789F0319168E02D
:104920009BB9000000C037FF8BB9330F000000C0F7
:1049300000C000C08BB900C06A9591F7ECCF2FBFC3
:104940008FE594E00197F1F700C00000A4960FB640
:10495000F894DEBF0FBECDBFDF91CF911F910F91B5
:10496000EF90DF90CF9008959091B10290FF16C024
:104970009091390120913A01921770F4E92FF0E0FB
:10498000DF01AA0FBB1FEA0FFB1FE357FD4F818317
:10499000608342839F5FF0CF0C942D240895809113
:1049A000B102282F269530E02115310519F48170C8
:1049B000826005C02532310524F0817088648093BF
:1049C000B1020895CF92DF92EF92FF926B017C01CA
:1049D0000E94CF24B701A60188E090E0FF90EF90FD
:1049E000DF90CF900C946B2A8091B502882319F048
:1049F00081508093B5026091B1027091B2028091B2
:104A0000B3029091B4020C94E2248091B5028330F9
:104A100018F48F5F8093B5026091B1027091B20279
:104A20008091B3029091B4020C94E224E1EBF2E0A5
:104A300083E0808311828FEF828383831482A7E8CF
:104A4000B2E012968C911297836012968C936081DB
:104A50007181828193810C94E224AF92BF92CF92B4
:104A6000DF92EF92FF920F931F93CF93DF93E82E85
:104A7000F62EE901E42FF0E0611106C0EF56FA4F7F
:104A8000E4914E2F2E2F71C0062F10E0EF56FA4FF3
:104A90004491F42FC42ED12C26E0829FC001112412
:104AA0002FEF30E0B9010E949B2A5BEA5603C00158
:104AB000579F900D11248E0D911D8E0D911D582F15
:104AC000550F580FD901A01BB10BAC9DC001AD9D76
:104AD000900DBC9D900D1124E92FF59ED00111245D
:104AE000AB2FBB277901EA1AFB0AEC9CD001ED9CA5
:104AF000B00DFC9CB00D11245901A51AB108A09E5F
:104B00007001A19EF00CB09EF00C1124EF2CFF243C
:104B10002E193F092C9D80012D9D100D3C9D100DDF
:104B20001124212F6230710591F048F4611571054F
:104B3000E1F061307105B9F4242F4B2F16C06430B9
:104B4000710569F040F06630710579F00CC0242FD2
:104B5000492FE12F0AC0492FEF2F2B2F06C0292FF5
:104B6000E42F412F02C0292FEB2F49832883EA83AA
:104B7000DF91CF911F910F91FF90EF90DF90CF9039
:104B8000BF90AF900895CF93DF9300D01F92CDB721
:104B9000DEB79091B10290FF0AC09E012F5F3F4F98
:104BA0000E942D254B8169818A810E94B4240F9037
:104BB0000F900F90DF91CF910895AF92BF92CF9257
:104BC000DF92EF92FF920F931F93CF93DF9300D06A
:104BD0001F92CDB7DEB7182FF62E042FE22E90913C
:104BE000B10290FF7EC0E92FE695AE2FB0E0A95646
:104BF000BE4F8C91809387029E7F923061F49E011C
:104C00002F5F3F4F812F0E942D254B8169818A8123
:104C10000E94B42443C0823019F40091B4023EC013
:104C2000863019F41091B20239C08930D9F3893134
:104C3000A9F5E9518E2F8170D82EE695F0E0EF5658
:104C4000F94FA590B490C12CBB2460913B01C616CE
:104C500018F52C2D30E0A29EC001A39E900DB29EAF
:104C6000900D112470E00E949B2A812FD11002C068
:104C7000860F01C0861B90913901290F311DA901B2
:104C8000440F551F240F351F23573D4F402F6F2DC5
:104C90000E942D25C394D9CF0E942D248091B20269
:104CA000181308C08091B302F81204C08091B402B6
:104CB000081729F0809189028260809389021093FD
:104CC000B202F092B3020093B402EE2051F0609170
:104CD000B1027091B2028091B3029091B4020E942D
:104CE000E2240F900F900F90DF91CF911F910F91C1
:104CF000FF90EF90DF90CF90BF90AF900895E1EBE1
:104D0000F2E0438128E0421B08F440E021E06281A8
:104D100081810C94DD25E1EBF2E0438128E0420F34
:104D200008F44FEF21E0628181810C94DD25E1EBF5
:104D3000F2E0628128E0621B08F460E021E0438138
:104D400081810C94DD25E1EBF2E0628128E0620FC5
:104D500008F46FEF21E0438181810C94DD25E1EBC4
:104D6000F2E0818121E04381628188500C94DD254D
:104D7000E1EBF2E0818121E043816281885F0C9464
:104D8000DD25E1EBF2E080818E7F80830E940B24A1
:104D9000E7E8F2E08281816082832FEF80E792E092
:104DA000215080409040E1F700C000000C942D2479
:104DB0009091B10290FF3BC09170811102C092604E
:104DC00006C0853210F0986402C0880F982B90932B
:104DD000B10280918902816080938902662351F03B
:104DE0006091B1027091B2028091B3029091B402CD
:104DF0000E94E2246091B102669570E04BE050E0C1
:104E00008CE391E00E942F2B892B19F00E940B2438
:104E100002C00E94122481E08093C70220E04091EA
:104E2000B4026091B3028091B2020C94DD25089522
:104E30008091B1028695815009F484E261E00C947E
:104E4000D8268091B10286958F5F853208F081E087
:104E500061E00C94D826882309F458C0682F823862
:104E600069F40E94B32281FF51C069E381E392E0BB
:104E70000E946D220E94D11B69E30EC0833891F419
:104E80000E94B32280FF42C063E581E392E00E946A
:104E90006D220E94D11B63E581E392E00E946022B3
:104EA0000C94D11B843869F40E94B32282FF2EC077
:104EB00067E481E392E00E946D220E94D11B67E4C7
:104EC000EBCF8CEF860F813A38F380E2860F883083
:104ED00070F4677081E090E001C0880F6A95EAF78E
:104EE000809590918602892380938602D9CF8BE5A5
:104EF000860F833020F480E090E00C949D22685A65
:104F0000673120F480E090E00C9487220895CF93DD
:104F1000882309F496C0C82F8238B1F40E94B322C6
:104F200081FD8FC069E381E392E00E946D220E94BF
:104F3000D11B2FEF81EE94E0215080409040E1F7AB
:104F400000C0000069E317C08338E1F40E94B32277
:104F500080FD77C063E581E392E00E946D220E94AC
:104F6000D11B2FEF81EE94E0215080409040E1F77B
:104F700000C0000063E581E392E00E946022CF91CF
:104F80000C94D11B8438B1F40E94B32282FD59C025
:104F900067E481E392E00E946D220E94D11B2FEF13
:104FA00081EE94E0215080409040E1F700C0000085
:104FB00067E4E1CF8CEF8C0F813A80F4E3E3F2E019
:104FC00089E392E02191C217A1F18E179F07D1F7D3
:104FD0006C2F81E392E00E946D22D1CF80E28C0F92
:104FE000883068F4C77081E090E001C0880FCA95EE
:104FF000EAF790918602892B80938602C0CFEBE579
:10500000EC0FE33040F4F0E0EC59FE4F808190E08B
:10501000CF910C949D22C85AC73198F4EC2FF0E040
:10502000EE0FFF1FE959FE4F80819181CF910C94C3
:1050300087226C2F81E392E00E9460220E94D11BA4
:10504000C7CFCF9108958EE14A9B02C08150E1F70E
:105050004A9BFECF08955A9880E28A95F1F75A9AB2
:105060000895FC012AE02A95F1F728E090E080E01D
:1050700031E040E14A95F1F7880F4A9B02C0816018
:10508000932700C0000040E14A95F1F7215089F7CD
:1050900020E12A95F1F729B100C0000030E13A95EE
:1050A000F1F722FB222720F992272081920F90838B
:1050B0000895EF92FF920F931F93CF93DF931F9268
:1050C000CDB7DEB719828C017C01E60EF11C0E15FE
:1050D0001F0551F00E942328CE0101960E9431281D
:1050E000F80181938F01F3CF81E09981911180E0E4
:1050F0000F90DF91CF911F910F91FF90EF90089546
:10510000529A5A9A089552985A9AEA9AE9E6F0E021
:1051100080818F7C80830895615091E001C0990F58
:105120006A95EAF720E031E0992361F0492F48239E
:1051300019F05A9A232701C05A9840E24A95F1F78C
:105140009695F2CF222311F05A9A01C05A9880E224
:105150008A95F1F75A980895FF920F931F93CF9372
:10516000DF93EC018C01060F111DC017D10741F030
:10517000F9900E942B2868E08F2D0E948C28F5CF93
:10518000DF91CF911F910F91FF9008951F920F9281
:105190000FB60F921124EF92FF920F931F932F934C
:1051A0003F934F935F936F937F938F939F93AF93AF
:1051B000BF93EF93FF93CF93DF931F92CDB7DEB7EB
:1051C00019820E942328CE0101960E943128A82F1F
:1051D000A695A695A6959A2F969595702A2F257037
:1051E000920F292F237096959695920F87708913A9
:1051F0007CC08981811179C0A53008F076C080E13A
:105200008A95F1F75A9A529AB2E0BA95F1F700C02E
:105210005A98EA2EF12CEAE0AE9FD0011124A45F47
:10522000BE4F1896ED91FC9119973097B1F06091AF
:1052300095017091960116962D913C911797260F26
:10524000371F13968D919C911497680F791F1596AF
:105250004C91159712968C9109958AE08E9DF001DC
:105260008F9DF00D1124E45FFE4F6581662351F0A0
:10527000809195019091960126813781820F931F2D
:105280000E94AC280E942B28F0E1FA95F1F75A9879
:1052900052985A9A80E18A95F1F78AE08E9D8001B2
:1052A0008F9D100D1124045F1E4FD80112966C9132
:1052B0001297662399F0809195019091960113962B
:1052C0002D913C911497820F931F0E945928D80169
:1052D000ED91FC91811105C082E004C0D801ED91EF
:1052E000FC9188E080830E9423280F90DF91CF916A
:1052F000FF91EF91BF91AF919F918F917F916F91AE
:105300005F914F913F912F911F910F91FF90EF90DF
:105310000F900FBE0F901F9018950F931F93CF9370
:10532000DF93853091050CF0A9C02AE0289FF00199
:10533000299FF00D1124E45FFE4F20813181232B42
:1053400009F49CC0EC01F894529A5A9885E08A9529
:10535000F1F700008C2F869585709C2F9570890F32
:10536000982F9370869586958E0123E0000F111F6C
:105370002A95E1F7890F082B0E942B28A4E0AA9513
:10538000F1F700C068E0802F0E948C28B0E1BA9548
:10539000F1F752985A9A4A9902C000C0FCCF87E0B0
:1053A00090E04A9B17C0019799F4529A5A9A8AE062
:1053B0008C9FF0018D9FF00D1124E45FFE4F019052
:1053C000F081E02D81E08083789481E090E058C006
:1053D00000C0E7CF8AE08C9F80018D9F100D1124C3
:1053E000045F1E4FF80165816623B9F08091950135
:1053F0009091960126813781820F931F0E94592830
:1054000081110BC0529A5A9AD801ED91FC9182E019
:105410008083789482E090E033C00E942328B0E239
:10542000BA95F1F75A98529AE0E1EA95F1F78AE0D5
:105430008C9FF0018D9FF00D1124E45FFE4F62817F
:10544000662351F0809195019091960123813481DA
:10545000820F931F0E94AC280E942B288AE08C9F09
:10546000F0018D9FF00D1124E45FFE4F0190F0815B
:10547000E02D1082789480E090E002C084E090E01B
:10548000DF91CF911F910F910895F999FECF92BDB1
:1054900081BDF89A992780B50895A6E1B0E044E06F
:1054A00050E00C947F2AA8E1B0E042E050E00C9478
:1054B0007F2A262FF999FECF92BD81BDF89A0197D8
:1054C00000B4021639F01FBA20BD0FB6F894FA9A4C
:1054D000F99A0FBE08950396272F0E945A2A0E9418
:1054E000592A252F0E945A2A242F0C945A2A0196B1
:1054F000272F0E945A2A0C94592ADC01CB01FC0167
:10550000F999FECF06C0F2BDE1BDF89A319600B41C
:105510000D9241505040B8F7089587FB082E06269B
:1055200087FD819567FD61950E94232B0EF491956F
:1055300007FC81950895AA1BBB1B51E107C0AA1F58
:10554000BB1FA617B70710F0A61BB70B881F991F24
:105550005A95A9F780959095BC01CD01089597FBC8
:10556000072E16F4009407D077FD09D00E949B2ADD
:1055700007FC05D03EF4909581959F4F0895709556
:1055800061957F4F0895A1E21A2EAA1BBB1BFD0156
:105590000DC0AA1FBB1FEE1FFF1FA217B307E40712
:1055A000F50720F0A21BB30BE40BF50B661F771F6A
:1055B000881F991F1A9469F760957095809590954A
:1055C0009B01AC01BD01CF010895EE0FFF1F0590B7
:1055D000F491E02D09946927962769277827872772
:1055E000782708950E94FA2A332312F48A1B9B0B12
:1055F0000C940B2BA29FB001B39FC001A39F700D11
:10560000811D1124911DB29F700D811D1124911DCA
:1056100008950E94FA2AB7FF0895821B930B0895FC
:105620000E94FA2AA59F900DB49F900DA49F800D13
:10563000911D11240895B7FF0C94102B0E94102B7C
:10564000821B930B0895991B79E004C0991F96174C
:1056500008F0961B881F7A95C9F780950895FC017C
:105660004150504030F001900616D1F73197CF01EC
:105670000895882799270895FB01DC0104C08D91C6
:105680000190801921F441505040C8F7881B990BB4
:105690000895FB01DC0102C001900D924150504081
:0856A000D8F70895F894FFCF3C
:1056A8000107102815061024152015010202000014
:1056B80000010000000002020000000401000000D8
:1056C80002020405000000000000020208090000B0
:1056D80000000000010201000C000C0C01191A1B4B
:1056E8001C1D1E1F2021229497C63400000000F4C0
:1056F800F5F6F7313340223230020E02DC01820225
:105708009B02BB02818283E200E900EA00B500B691
:1057180000B700CD008301CC008A019201940121D9
:1057280002230224022502260227022A02B300B419
:10573800006F0070001B020001020202020606064A
:105748000909090909090F0F0F0F0F0F151515186A
:0C57580019191919191919191919232404
:00000001FF
